:100000000000082091040000BD040000BD040000B1
:10001000BD040000BD040000BD040000BD040000DC
:10002000BD040000BD040000BD040000BD040000CC
:10003000BD040000BC04000023D60300BD04000082
:10004000BD040000BD040000E52E0000DFE6030053
:10005000BD040000BD040000CD080000BD04000088
:10006000BD040000BD040000BD040000BD0400008C
:10007000BD040000EBE60300BD040000BD04000069
:10008000BD040000BD040000BD040000BD0400006C
:10009000BD040000BD040000BD040000BD0400005C
:1000A000BD040000BD040000BD040000BD0400004C
:1000B000BD040000BD040000BD04000053E30300C4
:1000C000BD040000BD040000BD040000BD0400002C
:1000D000BD040000BD040000BD040000BD0400001C
:1000E000BD040000BD040000BD040000BD0400000C
:1000F000BD040000BD040000BD040000BD040000FC
:10010000BD040000BD040000BD040000BD040000EB
:10011000BD040000BD040000BD040000BD040000DB
:10012000BD040000BD040000A1FA0200BD040000EF
:10013000BD040000BD040000BD040000BD040000BB
:10014000BD040000BD040000BD040000BD040000AB
:1001500010B5054C237833B9044B13B10448AFF301
:1001600000800123237010BD58040020000000000F
:1001700030E3120008B5034B1BB103490348AFF34A
:10018000008008BD000000005C04002030E3120085
:10019000154B002B08BF134B9D46A3F5803A002159
:1001A0008B460F461348144A121A44F0C4F80F4BFA
:1001B000002B00D098470E4B002B00D09847002012
:1001C000002104000D000D48002802D00C48AFF3B8
:1001D000008044F025F8200029003EF00BFA44F09E
:1001E0000BF800BF0000080000000820000000001D
:1001F000000000005804002024010220000000003C
:100200000000000080B485B000AF786039607B6882
:1002100003F10473DA003B6813449B00FB60FB6846
:100220001B6818461437BD465DF8047B7047000014
:1002300080B582B000AF03463960FB71FB79002BBB
:1002400031D0FB79012B2BD0FB79022B25D0FB7908
:10025000032B1FD0FB79042B19D0FB79052B13D06E
:10026000FB79062B0DD0FB79072B07D0FB79082BE8
:1002700002D14FF6FF7318E0002316E04FF6FF732C
:1002800013E04FF6FF7310E04FF6FF730DE04FF6EB
:10029000FF730AE04FF6FF7307E04FF6FF7304E0C9
:1002A0004FF6FF7301E04FF6FF733A68134103F016
:1002B0000103002B04D140F2F6310B4802F080FE1E
:1002C000FA7913465B0013441B010C3303F180439E
:1002D00003F5082339681846FFF794FF03461846CC
:1002E0000837BD4680BD00BF285A040080B582B0E3
:1002F00000AF03463960FB71FB79002B31D0FB79ED
:10030000012B2BD0FB79022B25D0FB79032B1FD09F
:10031000FB79042B19D0FB79052B13D0FB79062B25
:100320000DD0FB79072B07D0FB79082B02D14FF6B4
:10033000FF7318E0002316E04FF6FF7313E04FF64B
:10034000FF7310E04FF6FF730DE04FF6FF730AE006
:100350004FF6FF7307E04FF6FF7304E04FF6FF73AD
:1003600001E04FF6FF733A68134103F00103002BDD
:1003700004D140F226410A4802F022FE01223B68E5
:1003800002FA03F30749FA79184613465B0013444F
:100390001B010B441833186000BF0837BD4680BDF1
:1003A000285A04000080084080B582B000AF0121C7
:1003B000104803F0C1FB01210F4803F0BDFB0023EF
:1003C0007B600FE00D4A7B6812F833000B4A7B68B4
:1003D000DB00134459680023042206F0FFFB7B680E
:1003E00001337B607B68012BECDD00231846083766
:1003F000BD4680BD4041050000550A008C5A0400EE
:1004000080B584B000AF78604FF0FF33FB607B684D
:10041000002B15DB7B68012B12DC0C4A7B6812F881
:1004200033000A4A7B68DB0013445B681946FFF718
:10043000FFFE0346012B0CBF01230023DBB2FB6050
:10044000FB6818461037BD4680BD00BF8C5A0400BB
:1004500080B582B000AF78607B68002B10DB7B68D2
:10046000012B0DDC094A7B6812F83300074A7B68D0
:10047000DB0013445B681946FFF738FF002301E0F7
:100480004FF0FF3318460837BD4680BD8C5A040034
:10049000064880470649074A074B9A42BEBF51F8B3
:1004A000040B42F8040BF8E7FFF772FE2106000088
:1004B0003CE312000000002058040020FEE700BFCB
:1004C00080B582B000AF00F025F878600A4BD3F811
:1004D00008311B0AC3F308033B603B6801337A68A9
:1004E000B2FBF3F37B60054A7B6813607B681846B8
:1004F0000837BD4680BD00BF00400E400800002008
:1005000080B400AF024B1846BD465DF8047B7047CF
:1005100000A24A0480B483B000AF334BD3F89430C8
:1005200003F00703023B042B49D801A252F823F041
:10053000550500004D05000045050000B50500000B
:100540005D050000294B1B687B603CE04FF40043D5
:100550007B6038E0264B1B687B6034E0224B9B6855
:100560001B0C03F01F03073B072B1FD801A252F8F7
:1005700023F000BF95050000AD050000AD050000AB
:10058000AD0500009B050000AD050000A1050000C1
:10059000A7050000174B7B600BE0174B7B6008E062
:1005A000164B7B6005E0164B7B6002E000237B600E
:1005B00000BF08E0134B1B685B087B6003E0114B36
:1005C0001B687B6000BF084BD3F800311B0A03F0A7
:1005D0001F0301337A68B2FBF3F318460C37BD46AC
:1005E0005DF8047B704700BF00400E40040000200F
:1005F000000000200024F4000048E801006CDC0248
:1006000080F0FA020C00002080B400AF034B1B689E
:100610001846BD465DF8047B704700BF000000200F
:1006200080B400AF074B084A9A60064BD3F8883075
:10063000044A43F47003C2F8883000BFBD465DF839
:10064000047B704700ED00E00000000080B400AFC4
:100650004FF400431846BD465DF8047B704780B4F4
:1006600000AF4FF47A731846BD465DF8047B7047BF
:1006700080B400AF034B1B681846BD465DF8047B91
:10068000704700BF0400002080B483B000AF7860E2
:10069000002318460C37BD465DF8047B704780B4D4
:1006A00083B000AF7860FEE780B483B000AF7860BD
:1006B00039603B684FF400525A60002318460C37EB
:1006C000BD465DF8047B704780B483B000AF7860AE
:1006D000012318460C37BD465DF8047B704780B493
:1006E00085B000AFF860B9607A600023184614370F
:1006F000BD465DF8047B704780B586B000AFF860FA
:10070000B9607A6000237B610FE000F095F93861F1
:100710003B69B3F1FF3F0ED0BB685A1CBA603A691F
:10072000D2B21A707B6901337B617B685A1E7A6092
:10073000002BEAD100E000BF7B69002B02DC4FF008
:10074000FF3300E07B6918461837BD4680BD0000C6
:1007500080B485B000AF78600B4B1B68002B02D1D2
:10076000094B0A4A1A60084B1B68FB60064B1A6863
:100770007B681344044A1360FB6818461437BD466F
:100780005DF8047B704700BF74040020280102203C
:1007900080B586B000AFF860B9607A6000237B61F5
:1007A00009E0BB685A1CBA601B78184600F084F94F
:1007B0007B6901337B617A697B689A42F1DB7B68F4
:1007C00018461837BD4680BD80B483B000AF0346DD
:1007D000FB7197F90730002B0BDBFB7903F01F024D
:1007E000074997F907305B09012000FA02F241F846
:1007F000232000BF0C37BD465DF8047B704700BF67
:1008000000E100E080B483B000AF0346FB7197F9CC
:100810000730002B0CDBFB7903F01F02074997F927
:1008200007305B09012000FA02F2603341F823200F
:1008300000BF0C37BD465DF8047B704700E100E067
:1008400080B483B000AF786039607B683A689A649E
:1008500000BF0C37BD465DF8047B704780B483B0A1
:1008600000AF786039607B68DA6C3B68DB431A4024
:100870007B68DA6400BF0C37BD465DF8047B7047C7
:1008800080B483B000AF786039607B68DA6C3B6815
:100890001A437B68DA6400BF0C37BD465DF8047B01
:1008A0007047000080B500AF04210248FFF7D6FF73
:1008B00000BF80BD0000014080B500AF04210248A8
:1008C000FFF7DEFF00BF80BD0000014098B500AF1C
:1008D000144B1B6903F08003002B20D0124B1B68C4
:1008E000072B1ADC114B1C680E4806F015FD034659
:1008F0001A460F4B1A550D4B1B6801330B4A1360F8
:10090000094B1B680133084A1360084B1B68082B0E
:1009100005D1064B00221A6001E0FFF7C3FF00BFBC
:1009200098BD00BF00000140800400207C0400202E
:100930008404002080B483B000AF78607B68002B13
:1009400003D0064B01221A7002E0044B00221A70F9
:1009500000BF0C37BD465DF8047B70478C04002057
:10096000B0B588B000AF01212C4803F0E5F80121B3
:100970002B4803F0E1F8012304220721042006F0AC
:100980002DF9012302220621042006F027F9254B28
:10099000FB61254B3C461D460FCD0FC495E8070073
:1009A00084E807000121214803F0C6F800233B70CA
:1009B0003B461946F86906F099FBFB6903225A6722
:1009C000FB699B6F23F4E06323F0070343F4807318
:1009D00043F00103FA69936704211248FFF730FFDF
:1009E0000620FFF70FFF04210E48FFF749FF0620FE
:1009F000FFF7EAFE0521F86906F028FB0C4B1B689F
:100A0000986800230222002143F0B0FD094B012227
:100A10001A7000BF2037BD46B0BD00BF4041050081
:100A200000550A00000001409C5A040000720400B6
:100A3000800200208D04002080B582B000AF4FF00E
:100A4000FF337B60184B1B7883F00103DBB2002B74
:100A500001D0FFF785FF04F041FF3860134B1B689E
:100A6000002B18DD124B1B68124AD35CDBB27B6093
:100A70000F4B1B6801330E4A13600D4B1B68082B8C
:100A800002D10B4B00221A60084B1B68013B074A3E
:100A90001360FFF711FF386804F030FF7B681846D9
:100AA0000837BD4680BD00BF8D04002080040020B3
:100AB000780400208404002080B582B000AF034693
:100AC000FB710F4B1B7883F00103DBB2002B01D0CD
:100AD000FFF746FF0B4B1B78002B06D0FB790A2B48
:100AE00003D10D21084806F02BFCFB791946064876
:100AF00006F026FCFB7918460837BD4680BD00BFCE
:100B00008D0400208C0400200000014080B483B0DC
:100B100000AF0346FB7197F90730002B0CDBFB7924
:100B200003F01F02074997F907305B09012000FA1B
:100B300002F2603341F8232000BF0C37BD465DF858
:100B4000047B704700E100E080B400AF034B9B687A
:100B50001846BD465DF8047B704700BF0020064084
:100B600080B58AB000AF002387F82730002387F8CC
:100B70002630002387F82530002387F8243000230F
:100B800087F82330534A3B4607CA03C31A80002321
:100B9000FB610023BB61504BD3F8B03003F001037D
:100BA000002B06D101214D4802F0C6FF012387F832
:100BB00027304B4803F06CFE0346FB75FB7D032B8F
:100BC00002D0012387F82530434BD3F8903003F04F
:100BD0004003002B02D1012387F824300321404831
:100BE00003F0F0FF3F4802F08BFF38613A4BD3F837
:100BF000F03003F00103002B06D10121394802F047
:100C00009BFF012387F8263004F068FEF860364B1E
:100C10001B6803F00103002B15D0334B1B68FB61ED
:100C2000314B5B6ABB61304B00221A602E4B0022B5
:100C30005A622D4B40F2FF721A621F20FFF766FFC7
:100C4000012387F823300023BB700023FB700823A7
:100C50003B713B46184606F0E9F800F065F8F86885
:100C600004F04CFE97F82330002B0AD039691D4858
:100C700002F053FF1C4AFB6913601B4ABB695362B5
:100C800002E0002006F0C0F897F82630002B03D0D1
:100C90000021144802F050FF97F82530002B04D0B3
:100CA000FB7D19460E4803F08DFF97F82430002B8A
:100CB00004D000220021012004F0F0FB97F8273037
:100CC000002B03D00021054802F036FF00BF283773
:100CD000BD4680BDB85A040000400E4000050A0021
:100CE00005002400A00914000020064080B483B051
:100CF00000AF78607B680B49002B0CD0013B882249
:100D00001202003253430A68D80AD20A50438009BB
:100D100001D00138FDD800BF0C37BD465DF8047B1B
:100D2000704700BF1000002080B584B000AF0823DA
:100D3000BB60334B4FF480521A601AE000F062F847
:100D4000786000BF00F05EF802467B689342F9D0FD
:100D500000F058F878602A4B1B68184600F059F8E4
:100D600000F050F802467B68D31A7B607B68002B4A
:100D700007D1234B1B685B00214A1360002BDDD198
:100D800000E000BF1E4B1B685B081D4A13601C4B34
:100D90001B68FB6024E01A4B1A68FB681343184A6F
:100DA000136000F02FF8786000BF00F02BF80246C7
:100DB0007B689342F9D000F025F87860104B1B68EF
:100DC000184600F026F800F01DF802467B689342B2
:100DD00006D0FB68DA430A4B1B681340084A1360CD
:100DE000BB685A1EBA60002B05D0FB685B08FB602D
:100DF000FB68002BCFD100BF1037BD4680BD00BFC0
:100E00001000002080B500AFFFF79EFE0346184695
:100E100080BD80B483B000AF78607B68013BFDD8B3
:100E200000BF0C37BD465DF8047B704780B483B0CB
:100E300000AF78607B6818460C37BD465DF8047BD0
:100E4000704780B584B000AF03463960FB7107F18D
:100E50000802F9790423022000F0F8F8F8603B7AE0
:100E60009AB27B7A9BB21B029BB213439AB23B6845
:100E70001A80FB6818461037BD4680BD80B584B027
:100E800000AF03460A46FB711346BB80BB88DBB24A
:100E90003B73BB881B0A9BB2DBB27B730023BB7323
:100EA0000023FB7307F10C02F9790423012000F001
:100EB000CDF8034618461037BD4680BD80B584B0D6
:100EC00000AF03463960FB71F97904233A680220C8
:100ED00000F0BCF8F8603B681B681846FFF7A6FFF7
:100EE00002463B681A60FB6818461037BD4680BD55
:100EF00080B582B000AF03463960FB713B6818468D
:100F0000FFF794FF03463B603A46F979042301203A
:100F100000F09CF8034618460837BD4680BD80B5F2
:100F200084B000AF786039603B687A6802210220A3
:100F300000F08CF8F860FB6818461037BD4680BD9D
:100F400080B584B000AF786039603B687A68022170
:100F5000012000F07BF8F860FB6818461037BD46AA
:100F600080BD80B586B000AFF860B9607A607B68FC
:100F7000B3F5005F01D321230FE0F9680420FFF7E8
:100F8000B7FF78617B69002B06D17B68BA680521C1
:100F9000012000F05BF878617B6918461837BD4680
:100FA00080BD80B584B000AF786039607968042076
:100FB000FFF79EFFF860FB68002B04D1396805201D
:100FC000FFF796FFF860FB6818461037BD4680BDF6
:100FD00080B586B000AF7860396079680420FFF78B
:100FE00087FF386107F10C0319460020FFF766FF01
:100FF0003861FB6843F4005319460020FFF778FF7F
:10100000386100237B6111E007F10C0319460020D1
:10101000FFF754FF3861FB6803F40053002B09D03D
:10102000012041F0CDFD7B6901337B617B69132B8E
:10103000EAD900E000BF39680520FFF73FFF3861BB
:101040003B6918461837BD4680BD000080B586B0A4
:1010500000AFBA607B600346FB730B46BB73424B29
:101060001B6893F8223203F00803002B1AD00120EA
:1010700041F050FD78617B69002B68D1FB7B012B2F
:1010800005D141F085FD78617B69002B61D1364B3C
:101090001B6893F82222344B1B6822F00802D2B25C
:1010A00083F82222FB7B022B07D1BB7B7A68B968CD
:1010B000184642F08DF978610CE0FB7B012B07D1DB
:1010C000BB7B7A68B968184642F0F0F9786101E0B4
:1010D00021237B617B69002B3DD1234B1B6893F857
:1010E000223203F01003002B37D0FB7B022B34D1CC
:1010F000BB7B012B31D01C4B1B68B3F80632012B94
:101100002BD87B68023BBA6813441B88C3F30B03DC
:10111000002B22D1B97BFB7B7A68184642F048F954
:10112000024640F608339A4217D10F4B1B6893F8DA
:1011300022220D4B1B6842F00802D2B283F8222211
:10114000002041F0E7FC78617B69002B05E000BFDF
:1011500004E000BF02E000BF00E000BF7B6918466A
:101160001837BD4680BD00BF305B002080B483B01F
:1011700000AF78607B6818460C37BD465DF8047B8D
:10118000704780B582B000AF786020220021786877
:1011900043F0D1F800BF0837BD4680BD80B485B0AC
:1011A00000AF0346FB710F4B1B68FA79D208D2B22D
:1011B000134493F850321946FB7903F007030122D8
:1011C00002FA03F30B40002B02DD0123FB7301E065
:1011D0000023FB73FB7B18461437BD465DF8047B88
:1011E000704700BF305B002080B590B002AF7860E0
:1011F0000B46FB700023FB608723FB70FB783B747E
:1012000007F11003013320227968184643F06FF884
:1012100007F1100107F10C0300930023212227207E
:1012200000F07CFE78637B6B002B0BD1FB685B6866
:101230001846FFF79BFF03462721184601F094FC50
:10124000786300E000BF7B6B18463837BD4680BD31
:1012500080B588B000AF786039600023FB6100235F
:101260003B610023FB600023BB6168237B6107F1C6
:1012700010007B690222282101F02CFDF861FB6936
:10128000002B3AD13B690433BB610120FFF76EFFAD
:101290000246BB691A607968B86942F049FAF86198
:1012A000FB69002B2BD1BB69043320221946386817
:1012B00043F01DF83B697A6992B21946282000F084
:1012C000ADFEF861FB69002B1BD107F10C031A4638
:1012D00041F28831282041F099FCF861FB69002B2C
:1012E00011D1FB685B681846FFF740FF03462821D1
:1012F000184601F039FCF86106E000BF04E000BFC9
:1013000002E000BF00E000BF3B69002B05D03B6955
:1013100002222821184601F033FDFB6918462037C8
:10132000BD4680BD80B58AB000AF2F4B1B6802223E
:1013300083F880222C4B1B6803F223233A46114684
:101340001846FFF785FF78627B6A002B39D1E520CC
:1013500041F046FC78627B6A002B34D107F1200310
:101360001A4641F28831E52041F050FC78627B6AF0
:10137000002B2AD13B6A5B681846FFF7F7FE03464D
:101380009E2B03D040F614337B6221E03B6A5B68FE
:101390001846FFF7EBFE0346E521184601F0E4FB93
:1013A00078627B6A002B12D1386A0F4B1B6803F2FC
:1013B00023233A46194642F03BFA78627B6A002BB7
:1013C00006E000BF04E000BF02E000BF00E000BF95
:1013D00042F0DEFA044B1B68002283F880227B6A0D
:1013E00018462837BD4680BD305B002080B58EB0E2
:1013F00002AF78600B46FB7007F108032022796882
:10140000184642F074FFFB781846FFF7AFFE03461C
:10141000BB6207F108010023009300232422292046
:1014200000F07CFDF862FB6A002B09D1074B1B68BA
:1014300003F5147320227968184642F058FF00E043
:1014400000BFFB6A18463037BD4680BD305B0020C8
:1014500080B582B000AF78602022FF21786842F02A
:101460006AFFE021786800F020F8E421786800F055
:101470001CF8E121786800F018F8E221786800F0A3
:1014800014F82821786800F010F8E521786800F059
:101490000CF84A21786800F008F8CA21786800F052
:1014A00004F800BF0837BD4680BD80B483B000AFEC
:1014B00078600B46FB70FB78DB08DBB21A467B6872
:1014C00013441B785AB2FB7803F00703012101FA99
:1014D00003F35BB2DB435BB213405AB2FB78DB0829
:1014E000DBB219467B680B44D2B21A7000BF0C37CE
:1014F000BD465DF8047B704780B483B000AF0346FF
:10150000FB80FB8818460C37BD465DF8047B7047AE
:1015100080B483B000AF78607B6818460C37BD4656
:101520005DF8047B7047000090B591B000AF786023
:10153000A84B1B68002283F880224FF421720021FF
:10154000786842F0F8FEA34A7B681360A14B1B68E1
:101550000022A3F8062241F0EBFFF863FB6B002B9F
:1015600040F00D8100F0D0FFF863FB6B002B40F0E2
:10157000088101F073F8F863FB6B002B40F00381E6
:10158000E12041F02DFBF863FB6B002B40F0FD8068
:1015900001F0B6F8F863FB6B002B40F0F88000F028
:1015A00047FFF863FB6B002B40F0F38000F08EFFE9
:1015B000F863FB6B002B40F0EE8007F134031A4612
:1015C00041F28831E12041F021FBF863FB6B002BF5
:1015D00040F0E3807B6B93F838207B6883F800222F
:1015E0007B6B93F839207B6883F801227B6B93F83F
:1015F0003A207B6883F802227B6803F216207B6B1B
:1016000026330622194642F072FE7B6803F5077006
:101610007B6B2C330622194642F069FE7B6B1B8CD8
:101620009BB21846FFF768FF03461A466A4B1A80BA
:101630007B6803F502707B6B0A330E22194642F079
:1016400056FE012041F066FA7B6B93F83430C3F309
:101650000103DBB287F83A305E4B1B6803F22323A9
:10166000184642F03FF8F863FB6B002B4BD197F81C
:101670003A30032B00F2938001A252F823F000BF0E
:101680000B1700000B17000091160000A9160000B0
:10169000504B1B6803F2232387211846FFF7A4FD54
:1016A000F863FB6B002B7CD1FFF73CFEF863FB6B10
:1016B000002B78D107F10C031846FFF762FD07F104
:1016C0000C031846FFF7C4FE97F83A30022B05D1F9
:1016D00007F10C0329211846FFF7E7FE3D4B1B6875
:1016E00003F5147307F10C012022184642F0FFFDA8
:1016F00007F10C0300211846FFF778FEF863FB6B37
:10170000002B52D102E000BF00E000BF07F132031E
:10171000184641F073F9F863FB6B002B47D10023A7
:1017200087F83B301FE097F83B309AB207F12C0363
:101730001146184641F04CF9F863FB6B002B38D189
:10174000FC6AFB6A184643F041F8034619462046F6
:1017500000F066FBF863FB6B002B2CD197F83B3055
:10176000013387F83B3097F83B309AB27B8E9A4230
:10177000D9D3184B1B68012283F822221CE000BF3A
:101780001AE000BF18E000BF16E000BF14E000BF81
:1017900012E000BF10E000BF0EE000BF0CE000BF91
:1017A0000AE000BF08E000BF06E000BF04E000BFA1
:1017B00002E000BF00E000BFFB6B002B05D000F093
:1017C0005EFE41F087FF41F027F9FB6B1846443776
:1017D000BD4690BD305B00209004002080B58AB0EB
:1017E00000AFF860B9607A607B8000237B620023E1
:1017F000BB6100237B6100233B62B7F848300133B3
:1018000023F001037833FB6107F11800FB69022222
:10181000432101F05FFA78627B6A002B40F08580FB
:10182000BB690022DA70BB6904333B62B868FFF71A
:101830006FFE02463B6A1A607B881846FFF75CFE23
:1018400003461A463B6A5A853B6A97F8302083F86C
:101850002C203B6A97F8342083F82D203B8F1846C4
:10186000FFF74AFE03461A463B6ADA85B7F840306E
:101870001846FFF741FE03461A463B6A1A86B7F838
:1018800048301846FFF738FE03461A463B6AA3F86D
:1018900072203B6A0433BA68F968184642F027FDA3
:1018A0003B6A3233B7F84020F96B184642F01FFD0F
:1018B0003B6A7433B7F84820796C184642F017FD3C
:1018C0007B68002B07D03B6A2433796806221846D0
:1018D00042F00DFD06E03B6A24330622FF21184644
:1018E00042F029FDBB69FA6992B21946432000F023
:1018F00095FB78627B6A002B19D107F114031A4615
:1019000041F28831432041F081F978627B6A002BF3
:101910000FD17B695B681846FFF7FAFD0346432148
:10192000184601F021F9786204E000BF02E000BF30
:1019300000E000BF7B6A072B0DD10E4B1B68B3F88C
:101940000632002B07D00B4B1B68B3F80622013A76
:1019500092B2A3F80622BB69002B05D0BB69022214
:101960004321184601F00CFA7B6A18462837BD4619
:1019700080BD00BF305B002080B582B002AF002385
:101980000093002300220021442000F0C7FA034600
:101990001846BD4680BD000080B58AB000AFB96072
:1019A0007A601A460346FB8113467B7300237B62F1
:1019B0000023BB6100237B6100233B62B7F8482012
:1019C000B7F850301A44B7F84810B7F850300B4405
:1019D0009BB203F0010313447433FB6107F1180059
:1019E000FB690222452101F075F978627B6A002BC0
:1019F00040F08A80BB690222DA70BB6904333B6223
:101A00007868FFF785FD02463B6A1A603B6A7A7B7D
:101A100083F824203B6A97F8302083F825203B6A1E
:101A200097F8342083F826203B6A97F8382083F80B
:101A30002720FB891846FFF75FFD03461A463B6ADD
:101A40001A85B7F840301846FFF756FD03461A4688
:101A50003B6A5A85B7F848301846FFF74DFD0346F4
:101A60001A463B6AA3F86C20B7F850301846FFF7C7
:101A700043FD03461A463B6AA3F86E203B6A0433D3
:101A80007A68B968184642F032FC3B6A2C33B7F8E2
:101A90004020F96B184642F02AFC3B6A7033B7F8D5
:101AA0004820796C184642F022FC3B6A03F1700230
:101AB000B7F848301344B7F85020F96C184642F094
:101AC00016FCBB69FA6992B21946452000F0A6FAE5
:101AD00078627B6A002B19D107F114031A4641F290
:101AE0008831452041F092F878627B6A002B0FD153
:101AF0007B695B681846FFF70BFD034645211846D6
:101B000001F032F8786204E000BF02E000BF00E0BC
:101B100000BF7B6A072B0DD10D4B1B68B3F8063253
:101B2000002B07D00A4B1B68B3F80622013A92B289
:101B3000A3F80622BB69002B05D0BB690222452110
:101B4000184601F01DF97B6A18462837BD4680BD4E
:101B5000305B002080B582B002AF002300930123E8
:101B600000220021472000F0D9F903461846BD465F
:101B700080BD000080B586B000AFF860B960114646
:101B80001A460B46FB711346BB71BB68013323F049
:101B900001030C337B61214B1B68B3F80422013233
:101BA00092B2A3F80422BB689BB20C339BB21846D6
:101BB000FFF7A2FC03461A46FB681A80FB684A221C
:101BC0009A70FB795B00DBB203F00603DAB2FB68C4
:101BD000DA70FB6808221A71FB68BA795A710F4BE8
:101BE0001B68B3F804321846FFF786FC03461A4612
:101BF000FB68DA80B868FFF78BFC0246FB689A60E6
:101C00007B699BB21A46F9684A2000F007FA3861EE
:101C10003B6918461837BD4680BD00BF305B0020C9
:101C200080B58CB000AFB9607B600346FB81134682
:101C3000BB810023FB620023BB610023BB62002346
:101C40007B6200237B61B9893A8F1346DB00134422
:101C50009B00CA18B7F84030134406333B623B6A16
:101C6000013323F001030C33FB6107F11800FB691A
:101C700002224B2101F02EF8F862FB6A002B40F0A3
:101C80008E80BB690022DA70BB6904337B62FB89FA
:101C90001846FFF731FC03461A467B6A1A80BB8957
:101CA0001846FFF729FC03461A467B6A5A803B8F89
:101CB0001846FFF721FC03461A467B6A9A80B7F85C
:101CC00040301846FFF718FC03461A467B6ADA8054
:101CD0007B6A0833BB62BB89002B09D0BB891A46DB
:101CE000B968B86A42F003FBBB89BA6A1344BB62A5
:101CF0003B8F002B12D03A8F1346DB0013449B001E
:101D00001A467968B86A42F0F2FA3A8F1346DB0055
:101D100013449B001A46BB6A1344BB62B7F84030B9
:101D2000002B0BD0B7F840301A46F96BB86A42F076
:101D3000DEFAB7F84030BA6A1344BB627B6C002B02
:101D400005D00622796CB86A42F0D1FA04E0062286
:101D5000FF21B86A42F0EFFABB69FA6992B21946FC
:101D60004B2000F05BF9F862FB6A002B19D107F1F8
:101D700014031A4641F288314B2040F047FFF862C5
:101D8000FB6A002B0FD17B695B681846FFF7C0FB2D
:101D900003464B21184600F0E7FEF86204E000BF5E
:101DA00002E000BF00E000BFFB6A072B0DD10E4B25
:101DB0001B68B3F80632002B07D00B4B1B68B3F837
:101DC0000622013A92B2A3F80622BB69002B05D085
:101DD000BB6902224B21184600F0D2FFFB6A18466D
:101DE0003037BD4680BD00BF305B002080B586B077
:101DF00002AF7860796807F108030622184642F0BE
:101E000076FA07F1080100230093012306224F20F0
:101E100000F084F8034618461037BD4680BD000028
:101E200080B588B000AF786039600023FB61002383
:101E30003B610023FB600023BB613B68013323F05F
:101E4000010306337B6107F110007B69022209213F
:101E500000F040FFF861FB69002B38D13B6900229C
:101E6000DA703B690433BB613B689BB21846FFF7ED
:101E700043FB03461A46BB691A80BB6902333A68C2
:101E80007968184642F033FA3B697A6992B219468A
:101E9000092000F0C3F8F861FB69002B19D107F1A4
:101EA0000C031A4641F28831092040F0AFFEF86178
:101EB000FB69002B0FD1FB685B681846FFF728FB16
:101EC00003460921184600F04FFEF86104E000BF08
:101ED00002E000BF00E000BFFB69072B0DD10E4BF5
:101EE0001B68B3F80632002B07D00B4B1B68B3F806
:101EF0000622013A92B2A3F806223B69002B05D0D4
:101F00003B6902220921184600F03AFFFB69184696
:101F10002037BD4680BD00BF305B002080B588B053
:101F200000AFB9607A601A460346FB731346BB7371
:101F300000233B617B68013323F001030433BB6161
:101F4000F97B07F11000BB69022200F0C3FEF861C3
:101F5000FB69002B3CD1BB7B5B00DAB23B6902F032
:101F60000602D2B2DA70BB68002B06D03B6904339C
:101F70007A68B968184642F0BAF93969BB699AB209
:101F8000FB7B184600F04AF8F861FB69002B21D171
:101F900007F11402FB7B41F28831184640F036FE0F
:101FA000F861FB69002B17D1BB6A002B03D07A695B
:101FB000BB6A1A6011E07B695B681846FFF7A8FAF4
:101FC0000246FB7B1946104600F0CEFDF86104E0A6
:101FD00000BF02E000BF00E000BFFB69072B0DD18E
:101FE0000D4B1B68B3F80632002B07D00A4B1B6859
:101FF000B3F80622013A92B2A3F806223B69002BFD
:1020000005D03B69F97B0222184600F0B9FEFB6956
:1020100018462037BD4680BD305B002080B588B0B3
:1020200000AF03463960FB711346BB801A23FB6186
:1020300040F02AFEF861FB69002B40F0A6805D4B62
:102040001B68B3F806225C4B1B889A4280F09F8085
:102050003B68FA799A70BB881846FFF74DFA034639
:102060001A463B681A80534B1B6893F88032022B48
:1020700005D1FB79282B02D00123FB618EE0FB798F
:102080001846FFF78BF80346012B64D10023FB6051
:1020900000233B61474B1B68D3F84C327B61BB8804
:1020A0000D339BB223F00F039BB20233BB80BB887E
:1020B000023B19463F4B1B6803F51C7207F10C03EA
:1020C000386841F0E9FCF861FB69002B61D13B689D
:1020D000043BBB61374B1B68D3F84C329BB21846AC
:1020E000FFF70AFA03461A46BB691A80BB69023336
:1020F000BB61304B1B68D3F84C321B0C9BB2C3F353
:102100000D039BB243F480439BB21846FFF7F4F9EA
:1021100003461A46BB691A80264B1B68D3F84C222B
:102120000132C3F84C22234B1B68D3F84C32B3F175
:10213000005F0AD91F4B1B6893F88032002B04D133
:102140001C4B1B68012283F88022BB881433BB80A0
:102150003B68043B3B60FB79184640F041FDF86169
:10216000FB69002B17D1BB881946386840F0A0FEE8
:10217000F861FB69002B10D10E4B1B68B3F80622E7
:10218000013292B2A3F8062208E000BF06E000BFC9
:1021900004E000BF02E000BF00E000BF40F08CFDA3
:1021A0000346002B01D00123FB61FB691846203751
:1021B000BD4680BD305B00209004002090B58DB0FE
:1021C00000AF78600023FB60012387F82B3040F0DC
:1021D0005BFDF862FB6A002B40F0F5807B681B8892
:1021E000C3F30B035B007B627B6A002B18D1796819
:1021F0000120FEF726FEF862FB6A002B40F0E58026
:102200007B681B88C3F30B035B007B627B6A002B3C
:1022100006D140F60533FB62FB6A002B40F0D78005
:102220007B681B889B0B9BB287F823307B6A023349
:10223000FB6197F82330032B01D1012300E0022337
:1022400087F82B30FB6903F03F03002B04D0FB69B8
:1022500023F03F03403300E0FB6997F82B1007F1B0
:102260000C001A4640F0E0FBF862FB6A002B40F0DD
:10227000B080FB68FA690021184642F05CF8FB6800
:10228000F9691846FEF74BFEF862FB6A002B40F036
:10229000A280654B1B68B3F80632002B0CD0FB689C
:1022A0009B785BB2002B07DB5F4B1B68B3F8062201
:1022B000013A92B2A3F80622FA687B6A13441B78AB
:1022C0009AB2F9687B6A01330B441B789BB21B02FC
:1022D0009BB213439AB27B681A80FB68DB7803F0E9
:1022E000C003002B60D0FB68BB61FB681B781A46FB
:1022F000FB6801331B781B0213437B61BB6902330C
:10230000BB61BB691B881B041A46484B13407A69A2
:1023100013437B61FB68DB789B09DBB2022B0AD09D
:10232000032B0ED0012B00D011E03F4B1B687A69C4
:10233000C3F84C220BE03C4B1B687A69C3F8482277
:1023400005E0394B1B687A69C3F8442200BFFB697A
:10235000183B3B61FB68981D334B1B6803F51C73EE
:102360001A46396941F028FBF862FB6A002B34D128
:102370002D4B1B68D3F84832B3F1005F06D82A4BC7
:102380001B68D3F84432B3F1005F0AD9264B1B68AF
:1023900093F88032002B04D1234B1B68012283F871
:1023A0008022FB680433FB60FB681B889BB2FC68DF
:1023B0001846FFF7A1F803462380FB68184640F053
:1023C00091FCF8620AE000BF08E000BF06E000BF31
:1023D00004E000BF02E000BF00E000BFFB68002B8C
:1023E00008D0F868FB689B78194697F82B301A4696
:1023F00000F0C6FC0C4B1B6893F88032012B06D111
:10240000094B1B68022283F8802241F083FB40F0D5
:1024100053FC0346002B01D00123FB62FB6A1846E4
:102420003437BD4690BD00BF305B00200000FF3F49
:1024300080B582B000AF40F001F978607B68002B76
:1024400015D13B4619460020FEF738FD78607B68C1
:10245000002B0ED13B6843F480333B603B68194648
:102460000020FEF745FD78607B68002B02E000BF8E
:1024700000E000BF7B6818460837BD4680BD80B5C8
:1024800082B000AF3B4619460020FEF717FD78608A
:102490007B68002B12D13B6823F480333B603B68A0
:1024A00019460020FEF724FD78607B68002B07D1D9
:1024B00040F0EAF878607B68002B02E000BF00E0A3
:1024C00000BF7B6818460837BD4680BD80B582B026
:1024D00000AF3B4619460020FEF7F0FC78607B68B1
:1024E000002B0AD13B6823F4806319460020FEF7D5
:1024F000FFFC78607B68002B00E000BF7B6818461B
:102500000837BD4680BD000080B584B000AF3B1DDC
:1025100019460020FEF7D2FCF860FB68002B77D14B
:1025200049490620FEF7E4FCF860FB68002B71D1F6
:1025300046490620FEF7DCFCF860FB68002B6BD1F7
:1025400043490620FEF7D4FCF860FB68002B65D1F8
:1025500040490620FEF7CCFCF860FB68002B5FD1F9
:102560003D490620FEF7C4FCF860FB68002B59D1FA
:10257000BB1C19460120FEF764FCF860FB68002BC9
:1025800052D17B8843F480539BB27B807B88194671
:102590000120FEF773FCF860FB68002B46D1002396
:1025A000BB6013E0BB1C19460120FEF74AFCF86033
:1025B000FB68002B3CD17B8803F40053002B09D12E
:1025C000012040F0FDFABB680133BB60BB68C72B3C
:1025D000E8D900E000BF7B8803F40053002B04D14E
:1025E0000723FB60FB68002B24D13B1D194600200C
:1025F000FEF764FCF860FB68002B1DD17B6803F4D8
:102600008063002B1AD10123FB60FB68002B15E0CF
:1026100000BF14E000BF12E000BF10E000BF0EE0FA
:1026200000BF0CE000BF0AE000BF08E000BF06E00A
:1026300000BF04E000BF02E000BF00E000BFFB6895
:1026400018461037BD4680BD7587200720C02E086C
:102650003C3C3C09442C320B9764A00C80B582B002
:1026600000AF3B4619462348FEF7B2FC78607B6812
:10267000002B2FD13B4619460020FEF71FFC786047
:102680007B68002B28D13B6823F4A0433B603B6868
:1026900019460020FEF72CFC78607B68002B1DD1CA
:1026A00015491648FEF77DFC78607B68002B17D132
:1026B0003B4619461148FEF78BFC78607B68002B7F
:1026C00010D13B680C4A93420ED001237B607B689B
:1026D000002B09E000BF08E000BF06E000BF04E0F7
:1026E00000BF02E000BF00E000BF7B68184608376B
:1026F000BD4680BD10C000098EC8AB230040000954
:1027000080B58CB000AF00233B620023BB6040F07B
:10271000F5F8F862FB6A002B40F06781B449B548D0
:10272000FEF73FFCF862FB6A002B40F08781002136
:10273000B148FEF736FCF862FB6A002B40F080815E
:102740000021AE48FEF72DFCF862FB6A002B40F03A
:102750007981AB49A748FEF724FCF862FB6A002B9D
:1027600040F072816422A749A74800F0A5F9F862F9
:10277000FB6A002B40F06A8107F110031946A34859
:10278000FEF726FCF862FB6A002B40F0618107F13E
:10279000100319469E48FEF71BFCF862FB6A002BEB
:1027A00040F058813B691B0ADAB29A4B1A709A4979
:1027B0009048FEF7F6FBF862FB6A002B40F04C8174
:1027C00064228F49904800F077F9F862FB6A002B89
:1027D00040F044814FF0FF319048FEF7E2FBF86291
:1027E000FB6A002B40F03C8107F10C03184640F0D7
:1027F000DFF8FB68503B19468948FEF7D2FBF862C8
:10280000FB6A002B40F02E813B1D0821184640F04A
:10281000B3F8F862FB6A002B40F026817D4B1B78F1
:102820007A681146184600F078F9F862FB6A002BC6
:1028300040F01C813B1D4021184640F09DF8F86295
:10284000FB6A002B40F014817B68402219467548D2
:10285000FEF787FBF862FB6A002B40F00B813B1D03
:102860000821184640F088F8F862FB6A002B40F017
:1028700003817B68082219466B48FEF772FBF862F9
:10288000FB6A002B40F0FA8001216848FEF789FBC3
:10289000F862FB6A002B40F0F38065495548FEF76B
:1028A00080FBF862FB6A002B40F0EC80FB68503B39
:1028B000FB60FB68013B9B0A0133BB6100237B6229
:1028C00076E007F1100319464F48FEF781FBF862E6
:1028D000FB6A002B40F0D8803B69554A934205D0F3
:1028E0000123FB62FB6A002B40F0D0800023BB6217
:1028F00015E00023BB6007F1080319463F48FEF7C7
:1029000067FBF862FB6A002B40F0C280BB683A6A42
:10291000D31AB3F5F84F06D9BB6A0133BB62BB6A61
:10292000632BE6D900E000BFBB683A6AD31AB3F55F
:10293000F84F06D940F60233FB62FB6A002B40F0E9
:10294000A980FA683B6AD31AFB61FB69B3F5806F13
:1029500002D94FF48063FB613B1DF969184640F0D2
:102960000BF8F862FB6A002B40F096803B6AC3F3D9
:102970000E0303F1106303F580437B617B68FA6902
:1029800019467869FEF7EDFAF862FB6A002B40F011
:1029900085803A6AFB6913443B62396A1648FEF740
:1029A00000FBF862FB6A002B7AD17B6A01337B6201
:1029B0007A6ABB699A4284D31E490E48FEF7F1FA3F
:1029C000F862FB6A002B6DD164221A490E4800F0B0
:1029D00073F8F862FB6A002B66D117490548FEF7C9
:1029E000E0FAF862FB6A002B5FE000BF5DE000BF29
:1029F000785634120CC0000904C0000908C0000950
:102A00002143658799EF53BD10C0000980C00009BC
:102A1000CCC000098E04002099BD53A700400009D6
:102A200000C0000914C0000954C000095CC00009BE
:102A3000BADCCDAB994AC6D482C84F1700BF34E088
:102A400000BF32E000BF30E000BF2EE000BF2CE04E
:102A500000BF2AE000BF28E000BF26E000BF24E05E
:102A600000BF22E000BF20E000BF1EE000BF1CE06E
:102A700000BF1AE000BF18E000BF16E000BF14E07E
:102A800000BF12E000BF10E000BF0EE000BF0CE08E
:102A900000BF0AE000BF08E000BF06E000BF04E09E
:102AA00000BF02E000BF00E000BF3FF0B5FFFB6ADF
:102AB00018463037BD4680BD80B586B000AFF8609F
:102AC000B9607A6000237B6113E007F110031946B7
:102AD000F868FEF77DFA78617B69002B15D13B69B8
:102AE000BA689A4209D0012040F06AF87B68013B3D
:102AF0007B607B68002BE8D100E000BF3B69BA68CF
:102B00009A4204D007237B6102E000BF00E000BFCF
:102B10007B6918461837BD4680BD80B584B000AFCC
:102B200003463960FB713B689B793B723B68DB79FC
:102B30007B720023BB7207F10803102200211846A4
:102B400041F05CFF0346FB72FA7AFB799A4202D1AC
:102B50000023FB6002E040F60133FB60FB6818468F
:102B60001037BD4680BD000080B485B000AF7860EE
:102B70000B46FB70FB7803F02003002B3DD07B68F5
:102B80006B2B28D06B2B0FD8022B27D0022B04D80D
:102B9000002B1DD0012B1ED02BE0042B25D0042BA5
:102BA0001FD35A2B14D024E09E2B11D09E2B04D877
:102BB0007C2B10D08D2B0ED01BE041F2342293429F
:102BC00006D041F25622934205D0AF2B03D010E03D
:102BD0000023FB6076E00123FB6073E02123FB60B0
:102BE00070E040F60433FB606CE040F60333FB60BA
:102BF00068E00123FB6000BF64E07B68142B5ED8B3
:102C000001A252F823F000BF5D2C0000632C0000ED
:102C1000692C0000712C0000772C00007F2C000034
:102C2000872C00008F2C0000972C00009F2C0000A8
:102C3000A72C0000BF2C0000BF2C0000BF2C000000
:102C4000BF2C0000BF2C0000BF2C0000BF2C0000D8
:102C5000BF2C0000AF2C0000B72C00000023FB604D
:102C600030E02123FB602DE040F61833FB6029E0C3
:102C70000123FB6026E040F61933FB6022E040F6BA
:102C80000433FB601EE040F61A33FB601AE040F6A6
:102C90001B33FB6016E040F61C33FB6012E040F68D
:102CA0001D33FB600EE040F61E33FB600AE040F689
:102CB0001F33FB6006E04FF43263FB6002E0012348
:102CC000FB6000BFFB6818461437BD465DF8047B07
:102CD000704700BF80B586B000AFF860B9603B6058
:102CE0001346FB71BB68DBB21846FEF757FA034682
:102CF000012B2BD100233B613B6803F00F03002B1A
:102D000006D03B68DBB203F00F03C3F110033B6155
:102D10003A683B69134403F11402FB791946F868D9
:102D20003FF082FE78617B69002B21D1FB68186837
:102D30003A683B69134414331A46002141F0FBFA08
:102D4000FB681B681A1DFB681A6014E0FB793A687F
:102D50001946F8683FF068FE78617B69002B09D15D
:102D6000FB681B683A680021184641F0E4FA02E06B
:102D700000BF00E000BF7B6918461837BD4680BD24
:102D800080B584B000AFF860B9601346FB71BB68D2
:102D9000DBB21846FEF702FA0346012B08D1FB68A6
:102DA000043BFA79114618463FF088FE034605E0D9
:102DB000FB791946F8683FF081FE03461846103744
:102DC000BD4680BD80B58CB000AFF860B9601146DB
:102DD0001A460B46FB711346BB71FB794FF47A72AE
:102DE00002FB03F3BB62BA680021F8682DF0A4FD72
:102DF0000023FB6251E007F114031A46002164200E
:102E00003AF002FABB6A643BBB62BB6A002B51D04A
:102E1000FDF712FE78627B6A002BECDB7B6A7F2B6E
:102E200002D07B6A082B17D1FB6A002B10D0082038
:102E3000FDF742FE2020FDF73FFE0820FDF73CFE97
:102E4000FB6A013BFB62FA68FB6A134400221A70BA
:102E5000FB6A013BFB621DE07B6A0D2B02D07B6AA3
:102E60000A2B09D1FB6A002B06D0BB79002B1AD0A4
:102E7000124841F01FFB16E0BB79002B04D07B6A9F
:102E8000DBB21846FDF718FEFA68FB6A13447A6A4B
:102E9000D2B21A70FB6A0133FB62BB68013BFA6A6B
:102EA0009A42B5D300E000BFFA68FB6A13440022DF
:102EB0001A7000E000BF3037BD4680BDC45A040020
:102EC00080B584B000AFF860B9601346FB71FB7940
:102ED0000022B968F868FFF775FF00BF1037BD46DC
:102EE00080BD000080B586B000AF324B1B6EFB602A
:102EF000304BDB6EFA681340FB60FB68002B00DA96
:102F0000FEE700237B6101233B614CE0FA683B69EB
:102F10001340002B41D0274A3B6993667B691B0114
:102F2000254A1344BB60BB681B68002B35D0BB68C7
:102F30009B685A1CBB689A60BB681B68BA6891683A
:102F4000BA685268786998470346002B14BF01237A
:102F50000023DBB283F00103DBB2FB71FB7903F0EA
:102F60000103FB71BB685B7B012B16D1FB79002B46
:102F700013D0124A7B695B01134403F108021379F1
:102F80006FF3410313710D4A7B695B01134403F135
:102F9000180213796FF3410313717B6901337B616D
:102FA0003B695B003B617B69172BAFD900BF1837CA
:102FB000BD4680BD0020004094040020140600207F
:102FC00080B483B000AF78603960FEE780B487B02A
:102FD00000AFF860B9607A60FB6803F10473DA004F
:102FE000BB6813449B007B617B697A681A6000BFF1
:102FF0001C37BD465DF8047B704780B485B000AFD8
:10300000786039607B6803F10473DA003B6813442D
:103010009B00FB60FB681B6818461437BD465DF8D3
:10302000047B704780B485B000AF786039607B68FE
:1030300003F1C063FB60FB683A681A6000BF143795
:10304000BD465DF8047B704780B485B000AF786002
:1030500039607B6803F18063FB60FB683A681A6043
:1030600000BF1437BD465DF8047B704780B582B061
:1030700000AF78607B681F2B04D94FF49671054828
:10308000FFF79EFF01227B6802FA03F31846083718
:10309000BD4680BDC85A040080B584B000AF7860DA
:1030A0007B68B3F5004F04D340F696310E48FFF726
:1030B00087FF7B680133B3FA83F3DBB2C3F11F03ED
:1030C000FB60F868FFF7D2FF0346013B7A689A423B
:1030D00004D040F69C310448FFF772FFFB681846A5
:1030E0001037BD4680BD00BF305B040080B400AF28
:1030F000064B1B6803F04003002B01D1012300E0C5
:1031000000231846BD465DF8047B70473C300E40F6
:1031100080B500AFFFF7EAFF034683F00103DBB29F
:10312000002B08D100BF12210448FFF766FF0346B9
:10313000002BF8D100E000BF80BD00BF04300E407E
:1031400080B500AFFFF7E4FF034B5B681B0C03F097
:103150000303DBB2184680BD00300E4080B584B05A
:1031600000AF78600123FB607B68124A934204D869
:103170000023FB600023BB6008E07B680E4A93429B
:1031800002D80123BB6001E00223BB60FA68102172
:103190000A48FFF71BFF094BD3F8003123F04072B8
:1031A000BB681B0605491343C1F8003100BF103747
:1031B000BD4680BD0048E8010090D00300400E40AD
:1031C00080B483B000AF054B1B687B607B681846FA
:1031D0000C37BD465DF8047B704700BF140000202B
:1031E00080B582B000AFFDF795F97860064BD3F853
:1031F00000311B0A03F01F0301337A6802FB03F35B
:1032000018460837BD4680BD00400E4080B582B0EC
:1032100000AF0F4801F03CFB0346FB70FB78072B27
:1032200005D0092B07D1FDF775F978600BE0FFF7A2
:10323000C7FF786007E000237B6040F61251054825
:10324000FFF7BEFE00BF7B6818460837BD4680BD4D
:1032500006000E00945B040080B584B000AF786077
:103260007B68002B02D0012B06D00BE0224801F036
:103270000FFB0346FB720CE0204801F009FB0346FC
:10328000FB7206E040F632511D48FFF799FE00231D
:103290002EE0FB7A013B072B21D801A252F823F044
:1032A000C1320000DF320000DF320000CF32000008
:1032B000DF320000DF320000C7320000D7320000EA
:1032C0000023FB6013E0FFF77BFFF8600FE0FDF7E2
:1032D0009BF9F8600BE0FFF783FFF86007E000233D
:1032E000FB6040F649510648FFF76AFE00BFFB68E5
:1032F00018461037BD4680BDB8003200B900340012
:10330000945B040080B582B000AF1C4801F0C0FAA5
:103310000346FB70FB78043B062B21D801A252F830
:1033200023F000BF49330000413300006133000047
:103330005133000061330000613300005933000055
:103340000F4B1B687B6013E0FDF75EF978600FE0C0
:10335000FFF736FF78600BE00A4B1B687B6007E0E5
:1033600000237B6040F673510748FFF729FE00BF3A
:103370007B6818460837BD4680BD00BF0A7B360013
:103380000C00002018000020945B040080B584B07D
:1033900000AF78607B68002B1AD11F4801F078FAE3
:1033A0000346FB7200BFFB7A043B062B27D801A221
:1033B00052F823F0E7330000DF330000FF33000052
:1033C000EF330000FF330000FF330000F73300004D
:1033D00040F68E511148FFF7F3FD002318E0104B23
:1033E0001B68FB6013E0FDF70FF9F8600FE0FFF7D3
:1033F000E7FEF8600BE00B4B1B68FB6007E0002367
:10340000FB6040F6A5510548FFF7DAFD00BFFB68F9
:1034100018461037BD4680BD0B7C3800945B040015
:103420000C0000201800002080B582B000AF2448B6
:1034300001F02EFA0346FB70FB78023B092B31D8D2
:1034400001A252F823F000BF953400009D34000023
:10345000793400008D340000A5340000A53400004C
:10346000A5340000A5340000713400008134000050
:10347000144B1B687B601DE0FDF7C6F8786019E00F
:10348000FDF7C2F803465B007B6013E00E4B1B6840
:103490007B600FE0FDF7ECF878600BE0FDF7D6F805
:1034A000786007E000237B6040F6FC510748FFF797
:1034B00087FD00BF7B6818460837BD4680BD00BF4A
:1034C0000C7F3A00180000200C000020945B0400E0
:1034D00080B584B000AF786039604FF080435B689E
:1034E00003F04073FB600023BB6012E01C4ABB6822
:1034F000DB0013441A793B68DBB29A4206D1184AC2
:10350000BB6852F833307A689A4206D9BB680133F7
:10351000BB60BB68062BE9D900E000BFBB68072B86
:1035200007D10323FB604FF465610E48FFF748FDA8
:1035300005E00B4ABB68DB0013445B79FB60FB686A
:103540001B06FB604FF080435B6823F040724FF036
:103550008041FB6813434B6000BF1037BD4680BD00
:10356000F85B0400945B040080B582B000AF4FF0BC
:1035700080431B6C002B14BF01230023FB714FF011
:10358000804341F671321A64FCF7BAFF034600210A
:103590001846FFF79DFFFB79002B03D04FF08043C7
:1035A00000221A6400BF0837BD4680BD80B584B0D4
:1035B00000AF786039600C4BFB603B68022B01D197
:1035C0000A4BFB607A68FB689A4204D908490948AB
:1035D000FFF728FD03E006490648FFF735FD00BF69
:1035E0001037BD4680BD00BF80D543020024F400E3
:1035F000020202000001004080B582B000AF786096
:1036000039607B680B4A934209D93B68002B06D18D
:103610004FF480514FF08040FFF704FD05E04FF478
:1036200080514FF08040FFF70FFD00BF0837BD46C7
:1036300080BD00BF80F0FA0280B584B000AF786032
:1036400039604FF080431B6C002B14BF0123002313
:10365000FB734FF0804341F671321A643968786821
:10366000FFF736FF39687868FFF7A0FF3968786898
:10367000FFF7C2FFFB7B002B03D04FF080430022FB
:103680001A6400BF1037BD4680BD000080B400AF93
:10369000044B5B6A1B0903F003031846BD465DF843
:1036A000047B704700400E4080B483B000AF786068
:1036B000074B5B6A23F030027B681B01044913430C
:1036C0004B6200BF0C37BD465DF8047B704700BFFE
:1036D00000400E4090B585B000AF78600023BB601D
:1036E0007B68474A934212D0454A934203D8454AE1
:1036F00093420CD005E0444A934208D0434A934297
:1037000005D04FF475614248FFF75AFC00E000BF56
:10371000786801F0BDF80346FB607B68384A934245
:1037200014D0374A934203D8364A934207D022E056
:10373000354A934211D0354A934215D01BE0354BA0
:10374000D3F8803003F00703FB601AE0314BD3F865
:10375000843003F00703FB6013E02E4BD3F88C306A
:1037600003F00703FB600CE02A4BD3F8883003F02A
:103770000703FB6005E040F67F712548FFF720FC5A
:1037800000BFFB68042B2ED801A252F823F000BF23
:10379000E1370000A5370000AD370000BD3700005D
:1037A000B5370000FCF752FFB86024E0FCF760FF7B
:1037B000B86020E0FCF753FFB8601CE0FCF7AAFEFD
:1037C0000446144BD3F800311B0E03F003030133FE
:1037D0001846FFF74BFC0346B4FBF3F3BB600AE06B
:1037E0000023BB6007E00023BB6040F6D7710848A8
:1037F000FFF7E6FB00BFBB6818461437BD4690BD17
:103800000300200002001E00040022000500240026
:10381000945B040000400E4080B483B000AF786039
:103820000A4BD3F8443103F00103002B08D100BF49
:10383000064BD3F840217B681340002BF8D100E001
:1038400000BF0C37BD465DF8047B704700400E405A
:1038500080B500AF0321064800F070FD0321054844
:1038600000F06CFD0321044800F068FD00BF80BD3E
:1038700040410500504107006041090080B582B019
:1038800000AFFCF747FE3860FFF75AFC0346022BF7
:103890001AD13A68224B1344224AA2FB0323DB0DC0
:1038A0007B607B68002B02D07B68013B7B60796882
:1038B0001D4800F043FD79681C4800F03FFD796821
:1038C0001B4800F03BFD27E03A681A4B13441A4AA4
:1038D000A2FB03231B0E7B607B68002B02D07B685E
:1038E000013B7B607968104800F028FD796810483A
:1038F00000F024FD3A68114B1344114AA2FB032344
:103900009B0E7B607B68002B02D07B68013B7B6059
:103910007968064800F012FD00BF0837BD4680BD3B
:10392000FF2C31016BCA5F6B40410500504107001D
:10393000604109007FF0FA02893BE655FFA14A0485
:10394000B5FA9BEE80B483B000AF78607B68304AF4
:10395000934239D02E4A934213D82E4A934227D00D
:103960002C4A934206D82C4A934221D02B4A9342A8
:103970001ED045E02A4A93421ED02A4A93421FD0C5
:103980003EE0294A93422BD0274A934206D8274A41
:1039900093421DD0264A93421ED031E0254A9342DD
:1039A00026D0254A934227D0244A93421CD027E0B0
:1039B000234BD3F8E03024E0214BD3F8EC3020E067
:1039C0001F4BD3F8F8301CE01D4BD3F8FC3018E047
:1039D0001B4BD3F8003114E0194BD3F8083110E039
:1039E000174BD3F80C310CE0154BD3F8103108E02D
:1039F000134BD3F8143104E0114BD3F8183100E025
:103A0000002318460C37BD465DF8047B704700BFA5
:103A10000024F40000093D0040420F0080841E0095
:103A2000C0CF6A00405DC6000048E801C0EA21013D
:103A300080BA8C01006CDC0280F0FA0280D543026F
:103A4000B081E00F80B400AF034B1B681846BD4641
:103A50005DF8047B704700BF1400002080B584B07F
:103A600000AF78607868FFF76DFFF860FB68002BA7
:103A700003D0FB68B3F1FF3F04D141F207111948AD
:103A8000FFF79EFA184A7B68136000BF1921174898
:103A9000FFF7B3FA0346002BF8D17B68144A934230
:103AA0000DD0144A934211D0134A934200D012E031
:103AB000FB6823F0C06343F08063FB600BE0FB68AE
:103AC00023F0C06343F00073FB6004E0FB6823F065
:103AD000C063FB6000BF094AFB68936100BF1037F9
:103AE000BD4680BD945B04001400002040410E40A0
:103AF00080841E0000093D0040420F0000400E403F
:103B000080B582B000AF7860786800F0ABFA034609
:103B1000013318460837BD4680BD80B582B000AF7E
:103B2000786039603B68013B1946786800F006FC14
:103B300000BF0837BD4680BD80B586B000AF786055
:103B40000B46FB7000233B617B681B0A03F00F03ED
:103B5000013B0E2B6AD801A252F823F0993B0000DA
:103B6000A53B00002D3C00002D3C00009F3B0000C9
:103B7000B13B0000BB3B0000C53B0000D13B000057
:103B8000273C0000DD3B0000FF3B00002D3C000017
:103B9000AB3B0000213C0000314B7B614CE0314BE2
:103BA0007B6149E0304B7B6146E0304B7B6143E019
:103BB0002F4B7B6101233B613EE02E4B7B61102349
:103BC0003B6139E02C4B7B614FF480733B6133E008
:103BD0002A4B7B614FF480333B612DE0284B7B61A6
:103BE000FB78002B14BF01230023DBB283F0010319
:103BF000DBB2FB70FB7803F00103FB701CE0214B90
:103C00007B61FB78002B14BF01230023DBB283F020
:103C10000103DBB2FB70FB7803F00103FB700BE0E8
:103C2000194B7B6108E0194B7B6105E041F2DB3108
:103C30001748FFF7C5F910E07B681B0B03F01F0363
:103C4000FB603B69002B02D03869FFF7E5FDFB788C
:103C50001A46F9687869FFF7B9F91837BD4680BD8B
:103C600000400E40B0400E40C0400E40C4400E40E8
:103C7000E0400E40E8400E40EC400E40F0400E4068
:103C800060410E4064410E40F0410E4050410E40F4
:103C9000945B040080B584B000AF78607B6803F467
:103CA0007813B3F5D01F00F04D81B3F5D01F3CD889
:103CB000B3F5402F00F0C980B3F5402F18D8B3F505
:103CC000802F77D0B3F5802F06D8002B6ED0B3F5B8
:103CD000003F00F0AB80ACE1B3F5002F00F088802E
:103CE000B3F5202F00F09380B3F5C02F71D0A0E181
:103CF000B3F5901F00F0BD80B3F5901F08D8B3F561
:103D0000602F00F06281B3F5801F00F0628190E1C6
:103D1000B3F5B01F00F0CA80B3F5C01F00F0D88023
:103D2000B3F5A01F00F0B48083E1B3F5381F00F0B5
:103D3000F580B3F5381F1CD8B3F5001F00F0FD80E7
:103D4000B3F5001F08D8B3F5E01F00F00D81B3F5FF
:103D5000F01F00F089806CE1B3F5201F00F02B818B
:103D6000B3F5281F00F0C780B3F5101F00F02881BD
:103D70005FE1B3F5501F00F03F81B3F5501F08D845
:103D8000B3F5401F00F00381B3F5481F00F0258113
:103D90004FE1B3F5601F00F04381B3F5681F00F0F9
:103DA0004481B3F5581F00F0378142E1FCF7B2FBC4
:103DB000F86046E1FCF7AEFBF860A44BD3F80C3199
:103DC0001B0AC3F308030133FA68B2FBF3F3FB6089
:103DD00037E1FCF79FFBF8609C4BD3F818311B0AC6
:103DE000C3F308030133FA68B2FBF3F3FB6028E185
:103DF000FCF790FBF860954BD3F81C311B0AC3F31A
:103E000008030133FA68B2FBF3F3FB6019E1FCF736
:103E100081FBF8608D4BD3F804311B0AC3F3080310
:103E20000133FA68B2FBF3F3FB600AE1FCF772FBC3
:103E3000F860864BD3F808311B0AC3F3080301333B
:103E4000FA68B2FBF3F3FB60FBE0FCF763FBF8609E
:103E50007E4BD3F814311B0A03F01F030133FA68B9
:103E6000B2FBF3F3FB60ECE07948FFF733FCF8605A
:103E7000E7E07748FFF72EFCF860744BD3F8203169
:103E80001B0C03F00F03FA6822FA03F3FB60D8E07F
:103E90007048FFF71FFCF8606C4BD3F8303103F02B
:103EA0000303FA6822FA03F3FB60CAE06848FFF7ED
:103EB00011FCF860654BD3F8203103F00F0318466E
:103EC000FFF7D4F80246FB68B3FBF2F3FB60B8E0FF
:103ED0005F48FFF7FFFBF8605C4BD3F820311B090C
:103EE00003F00F031846FFF7C1F80246FB68B3FB67
:103EF000F2F3FB60A5E05648FFF7ECFBF860534B8C
:103F0000D3F820311B0B03F007031846FFF7AEF878
:103F10000246FB68B3FBF2F3FB6092E04C48FFF70C
:103F2000D9FBF860494BD3F820311B0A03F0030397
:103F3000FA6822FA03F3FB6083E04748FFF7CAFB05
:103F4000F8607EE04448FFF7C5FBF8603F4BD3F8CC
:103F5000283103F003031846FFF788F80246FB6890
:103F6000B3FBF2F3FB606CE03B48FFF7B3FBF86098
:103F7000364BD3F828311B0903F003031846FFF72B
:103F800075F80246FB68B3FBF2F3FB6059E0324878
:103F9000FFF7A0FBF8602D4BD3F828311B0B03F083
:103FA000030304331846FFF761F80246FB68B3FBCE
:103FB000F2F3FB6045E02948FFF78CFBF86040E036
:103FC0002448FFF787FBF8603BE0FFF71FF9F86034
:103FD00037E0FFF7F5F8F86033E00020FFF73CF931
:103FE000F8601A4BD3F85C3103F003030133FA682D
:103FF000B2FBF3F3FB6024E00120FFF72DF9F8603A
:10400000124BD3F85C311B0C03F003030133FA6845
:10401000B2FBF3F3FB6014E0FFF774F9F86010E013
:104020000020FFF7B3F9F8600BE0FFF7FDF9F86047
:1040300007E00023FB6041F201510948FEF7C0FF91
:1040400000BFFB6818461037BD4680BD00400E40DB
:1040500002001E00050024000300200004002200CE
:10406000945B040080B584B000AF78607B681B0966
:1040700003F00F03BB60BB68013B0B2B00F23481E4
:1040800001A252F823F000BFB9400000C94000006F
:10409000D9400000E9400000F9400000094100005B
:1040A0001941000029410000F54100007142000063
:1040B00099420000D9420000924BD3F800311B0A0C
:1040C00003F01F03FB6017E18E4BD3F814311B0A7A
:1040D00003F01F03FB600FE18A4BD3F800311B0E86
:1040E00003F00303FB6007E1864BD3F80C311B0A96
:1040F000C3F30803FB60FFE0824BD3F818311B0ABF
:10410000C3F30803FB60F7E07E4BD3F81C311B0AB6
:10411000C3F30803FB60EFE07A4BD3F808311B0AC6
:10412000C3F30803FB60E7E07B68774A93422ED035
:10413000754A934206D8754A934244D0744A9342D2
:104140000AD04EE0734A93422FD0734A934210D064
:10415000724A934229D044E06A4BD3F8203103F0ED
:104160000F03FB60F868FEF781FF0346013BFB602D
:104170003FE0644BD3F820311B0A03F00303FB60DC
:10418000F868FEF773FF0346013BFB6031E05D4BCF
:10419000D3F820311B0903F00F03FB60F868FEF72A
:1041A00065FF0346013BFB6023E0564BD3F820310B
:1041B0001B0B03F00703FB60F868FEF757FF03468D
:1041C000013BFB6015E04F4BD3F820311B0C03F093
:1041D0000F03FB60F868FEF749FF0346013BFB60F5
:1041E00007E00023FB6041F274514D48FEF7E8FE02
:1041F00000BF81E07B684B4A934212D04A4A934207
:104200001DD04A4A93422AD13E4BD3F8283103F0BD
:104210000303FB60F868FEF729FF0346013BFB60E0
:1042200025E0384BD3F828311B0903F00303FB606A
:10423000F868FEF71BFF0346013BFB6017E0314BBC
:10424000D3F828311B0B03F00303FB60FB68043336
:104250001846FEF70BFF0346013BFB6007E0002317
:10426000FB6041F298512E48FEF7AAFE00BF43E0E2
:104270007B682F4A934206D1224BD3F8303103F0AA
:104280000303FB6007E00023FB6041F2A7512448D1
:10429000FEF796FE00BF2FE07B68264A934203D0CC
:1042A000254A934207D00EE0164BD3F85C3103F059
:1042B0000303FB600FE0134BD3F85C311B0C03F0DE
:1042C0000303FB6007E00023FB6041F2BF51144889
:1042D000FEF776FE00BF0FE00A4BD3F804311B0A4D
:1042E000C3F30803FB6007E00023FB6041F2CC51FD
:1042F0000B48FEF765FE00BFFB6818461037BD4649
:1043000080BD00BF00400E4080161800804612009D
:104310008006160000362C0080262E0080002A0021
:10432000945B040090171C009037300090071A002F
:10433000A0091400B8003200B900340080B584B080
:1043400000AF786039607B681B0903F00F03FB60E6
:10435000FB68013B0B2B00F2808201A252F823F094
:1043600091430000ED4300005B480000154400004D
:1043700043440000714400009F440000F9440000E1
:10438000B14600007D470000C14700002D480000F5
:104390003B681F2B04D941F2F451BA48FEF710FED6
:1043A000FFF7E2F8B848FEF7D9FEFFF751FAB74B2E
:1043B000D3F8003123F4F8523B681B02B34913438E
:1043C000C1F80031FCF77CF8B860FEF7B9FE03468F
:1043D0001946B868FFF730F9AD48FFF75BFC0346B4
:1043E0001846FEF7BBFEFFF749FA3CE23B681F2B7D
:1043F00004D941F20A61A348FEF7E2FDA34BD3F8CA
:10440000143123F4F8523B681B02A0491343C1F84E
:10441000143128E23B68B3F5007F04D341F2116107
:104420009848FEF7CDFD994BD3F80C3123F4FF33B8
:1044300023F480733A68120294491343C1F80C3193
:1044400011E23B68B3F5007F04D341F218618D4857
:10445000FEF7B6FD8D4BD3F8183123F4FF3323F468
:1044600080733A68120289491343C1F81831FAE19E
:104470003B68B3F5007F04D34FF4B1518148FEF798
:104480009FFD824BD3F81C3123F4FF3323F4807358
:104490003A6812027D491343C1F81C31E3E13B68DD
:1044A000B3F5007F04D341F227617648FEF788FD1B
:1044B000FFF75AF87448FEF751FE744BD3F80831F1
:1044C00023F4FF3323F480733A6812026F491343D5
:1044D000C1F80831FBF7F4FFB860FEF731FE034680
:1044E0001946B868FFF7A8F86948FFF7D3FB0346F9
:1044F0001846FEF733FEB6E17B68664A934266D003
:10450000644A934209D8644A93422ED0634A934244
:1045100042D0634A93420CD0ACE0624A934200F02E
:104520008D80614A93426ED0604A934200F086804B
:10453000A0E03B68B3F5004F04D941F23B6151481C
:10454000FEF73EFD3868FEF7A7FD38600420FFF750
:1045500063F94E4BD3F8203123F470223B681B04DF
:104560004A491343C1F820318AE03B68022B04D941
:1045700041F24C614348FEF723FD4FF48020FFF7E2
:104580004BF9424BD3F8303123F003023F493B68EB
:104590001343C1F8303173E03B68B3F5004F04D9E1
:1045A00041F269613748FEF70BFD3868FEF774FD8C
:1045B00038600420FFF730F9344BD3F8203123F072
:1045C0000F0232493B681343C1F8203158E03B6881
:1045D000B3F5004F04D941F278612A48FEF7F0FCA8
:1045E0003868FEF759FD38600420FFF715F9274BAE
:1045F000D3F8203123F0F0023B681B012349134319
:10460000C1F820313CE03B68082B04D941F28761B6
:104610001C48FEF7D5FC3868FEF73EFD38600420E4
:10462000FFF7FAF8194BD3F8203123F440723B68B6
:104630001B0216491343C1F8203121E03B68B3F552
:10464000004F04D941F297610E48FEF7B9FC386873
:10465000FEF722FD38600420FFF7DEF80B4BD3F89D
:10466000203123F4E0423B681B0308491343C1F89F
:10467000203105E041F2A5610248FEF7A1FC00BF30
:10468000F1E000BF945B04000148E80100400E40E7
:1046900000050A0080161800A00914008006160004
:1046A0008046120000362C0080262E0080002A0052
:1046B0007B686F4A93421FD06E4A934237D06E4A4E
:1046C000934254D13B68082B04D941F2AE616B4848
:1046D000FEF776FC3868FEF7DFFC38604020FFF715
:1046E0009BF8674BD3F8283123F0030264493B68F9
:1046F0001343C1F8283140E03B68082B04D941F24C
:10470000BD615E48FEF75CFC3868FEF7C5FC3860AA
:104710004020FFF781F85A4BD3F8283123F03002BC
:104720003B681B0156491343C1F8283125E03B681B
:104730007F2B02D83B680E2B04D841F2CC614F4846
:10474000FEF73EFC3868FEF7A7FC0346043B3B60DF
:104750004020FFF761F84A4BD3F8283123F4405248
:104760003B681B0346491343C1F8283105E041F279
:10477000DB614248FEF724FC00BF74E07B68414ADD
:10478000934216D13B68022B04D941F2E5613B48C4
:10479000FEF716FC4FF48020FFF73EF8384BD3F8B5
:1047A000303123F0030236493B681343C1F83031FE
:1047B00005E041F2F5613148FEF702FC00BF52E02E
:1047C0007B68314A934203D0304A934213D026E0AB
:1047D0003B68032B04D94FF4B8512848FEF7F0FB8F
:1047E000274BD3F85C3123F0030225493B68134380
:1047F000C1F85C3119E03B68032B04D941F2087120
:104800001E48FEF7DDFB1E4BD3F85C3123F440322B
:104810003B681B041A491343C1F85C3105E041F2BF
:104820000E711648FEF7CCFB00BF1CE03B68B3F5E9
:10483000007F04D341F216711048FEF7C1FB104B04
:10484000D3F8043123F4FF3323F480733A6812025F
:104850000B491343C1F8043105E041F21D710748CB
:10486000FEF7AEFB00BF00BF1037BD4680BD00BFE6
:1048700090171C009037300090071A00945B0400DA
:1048800000400E40A0091400B8003200B900340006
:1048900080B584B000AF78600123FB737B6803F0C0
:1048A0000F03BB60BB68013B0B2B00F2748101A2BC
:1048B00052F823F0E548000041490000714900002A
:1048C000E9490000B9490000194A0000974B00006F
:1048D0003D4A00007F4A0000C34A0000034B00002D
:1048E000434B0000B54BD3F8943003F00703023B71
:1048F000052B21D801A252F823F000BF2149000066
:104900001B490000154900002749000033490000F9
:104910002D4900000223FB7311E00323FB730EE01B
:104920000423FB730BE00D23FB7308E00E23FB73E2
:1049300005E00A23FB7302E00523FB7300BF37E1A8
:104940009E4BD3F8803003F00703022B06D0042BD4
:1049500007D0012B08D10323FB7308E00223FB736C
:1049600005E00C23FB7302E00123FB7300BF1FE192
:10497000924BD3F8843003F00703013B032B17D885
:1049800001A252F823F000BF994900009F4900009E
:10499000AB490000A54900000323FB730BE0022391
:1049A000FB7308E00C23FB7305E00623FB7302E0B6
:1049B0000123FB7300BFFBE0804BD3F8883003F08A
:1049C0000703022B06D0042B07D0012B08D10323A9
:1049D000FB7308E00223FB7305E00C23FB7302E08A
:1049E0000123FB7300BFE3E0744BD3F88C3003F07A
:1049F0000703022B06D0042B07D0012B08D1032379
:104A0000FB7308E00223FB7305E00C23FB7302E059
:104A10000123FB7300BFCBE0684B1B6F03F0030364
:104A2000002B04D0012B05D10923FB7305E00723DC
:104A3000FB7302E00123FB7300BFB9E05F4BD3F8C7
:104A40005C3103F03003102B0CD0102B02D8002B5C
:104A500005D010E0202B08D0302B09D00BE001232B
:104A6000FB730BE00723FB7308E00423FB7305E0F3
:104A70000823FB7302E00123FB7300BF98E04F4B58
:104A8000D3F85C3103F44013B3F5801F0FD0B3F5B6
:104A9000801F02D8002B07D08AE0B3F5001F09D091
:104AA000B3F5401F09D083E00123FB7308E007231F
:104AB000FB7305E00423FB7302E00823FB7300BFD4
:104AC00076E03E4BD3F8603103F00303032B6AD842
:104AD00001A252F823F000BFE94A0000EF4A0000AB
:104AE000F54A0000FB4A00000523FB7308E004239D
:104AF000FB7305E00723FB7302E00A23FB7300BF8F
:104B000051E02E4BD3F8643103F00303032B4CD850
:104B100001A252F823F000BF294B00002F4B0000E8
:104B2000354B00003B4B00000523FB7308E00423DA
:104B3000FB7305E00723FB7302E00A23FB7300BF4E
:104B400033E01E4BD3F8F03103F00703052B2ED8CA
:104B500001A252F823F000BF714B0000774B000018
:104B60007D4B0000834B0000894B00008F4B000001
:104B70000A23FB730EE00423FB730BE00B23FB7390
:104B800008E00523FB7305E00223FB7302E0032327
:104B9000FB7300BF0BE00023FB7341F628110848AC
:104BA000FEF70EFA04E000BF02E000BF00E000BF25
:104BB000FB7B18461037BD4680BD00BF00400E404D
:104BC000945B040080B58AB000AF78600B46FB7040
:104BD00003237B62032387F823300023BB61002378
:104BE0007B617B68112B19D1FB78042B03D1FBF778
:104BF0000BFD78610BE0FB78052B08D100F082FB00
:104C00000246BF4B9A4202D900F07CFB78617B6977
:104C1000002B03D00021786900F0CCFF7B6803F003
:104C20000F033B613B69013B0B2B00F2C98201A2E0
:104C300052F823F0654C0000854D0000D54D000072
:104C4000994D0000B74D00007D4E0000C15100009D
:104C5000A74E00004D4F0000CD4F00005B500000FC
:104C6000E7500000FB78023B0C2B53D801A252F80E
:104C700023F000BFA94C0000B54C0000C14C00005F
:104C8000D34C0000154D0000154D0000154D0000DF
:104C9000154D0000FD4C0000154D0000094D0000B1
:104CA000E54C0000F14C000004237B62002387F8F0
:104CB000233035E003237B62012387F823302FE084
:104CC00002237B62022387F823308E48FEF746FAE0
:104CD00026E001237B62032387F823308948FEF70F
:104CE0003DFA1DE005237B62032387F8233017E09C
:104CF00007237B62072387F8233011E006237B62BA
:104D0000052387F823300BE041F6E9117E48FEF7D2
:104D100057F95BE241F6EE117B48FEF751F955E297
:104D200097F82330072B06D097F823300122012172
:104D3000184600F0B3FBFEF717FCFEF789FD7B6910
:104D4000002B01D0FEF7E4F9704A7B6A5367704884
:104D5000FEF7A0FF03461846FEF700FAFBF7B0FB8C
:104D6000F860FEF7EDF903461946F868FEF764FCB3
:104D70007B69002B03D10121002000F01BFFFEF70F
:104D80007DFD23E2634BBB61FB78062B04D141F62A
:104D90002A215D48FEF714F9BB69002B01D0BB69DD
:104DA00000E05D4BBB61FB78062B04D141F634215A
:104DB0005548FEF705F9BB69002B01D0BB6900E03F
:104DC000564BBB61FB78062B04D141F63E214E4881
:104DD000FEF7F6F8BB69002B01D0BB6900E0504B31
:104DE000BB61FB78013B0B2B3ED801A252F823F0AC
:104DF000214E0000274E0000374E0000694E000093
:104E0000694E0000474E0000694E0000694E0000E8
:104E1000694E0000694E0000694E0000634E0000BC
:104E20000023FB6126E001220121002000F036FB77
:104E30000223FB611EE001220121012000F02EFB74
:104E40000123FB6116E0FBF73BFB03461846FEF728
:104E500085F9012200213348FEF7B8F80323FB61EE
:104E600008E00423FB6105E041F66A212648FEF7CD
:104E7000A7F8ABE1BB69FA691A60A7E1FB78072BD9
:104E800002D0092B04D007E0204B00221A6709E06A
:104E90001E4B01221A6705E041F6F4211A48FEF77D
:104EA0008FF893E192E1FB78013B072B3CD801A2FC
:104EB00052F823F0D54E0000294F0000294F000082
:104EC000EB4E0000294F0000294F0000DB4E000090
:104ED000FB4E00000023FB612CE001220121042095
:104EE00000F0DCFA0123FB6124E001220121022011
:104EF00000F0D4FA0223FB611CE00323FB6119E0FC
:104F0000002D31010148E801945B040000400E408F
:104F100000050A0080400E408C400E4088400E4044
:104F200084400E40B0400E4041F65231A948FEF791
:104F300047F84BE1A84BD3F85C3123F03002FB6912
:104F40001B01A5491343C1F85C313FE1FB78013BEC
:104F5000072B29D801A252F823F000BF7D4F000093
:104F6000A94F0000A94F0000934F0000A94F000077
:104F7000A94F0000834F0000A34F00000023FB61F6
:104F800018E001220121042000F088FA0123FB61CE
:104F900010E001220121022000F080FA0223FB61CF
:104FA00008E00323FB6105E041F675318948FEF70F
:104FB00007F80BE1884BD3F85C3123F44012FB690E
:104FC0001B0585491343C1F85C31FFE0FB78043BC6
:104FD000062B31D801A252F823F000BF095000007F
:104FE000F94F0000395000001950000039500000FE
:104FF000395000002950000001220121032000F057
:105000004DFA0023FB611DE001220121022000F086
:1050100045FA0123FB6115E001220121042000F083
:105020003DFA0223FB610DE001220121052000F081
:1050300035FA0323FB6105E041F69C316548FDF735
:10504000BFFFC3E0644BD3F8603123F00302624931
:10505000FB691343C1F86031B8E0FB78043B062BD1
:1050600030D801A252F823F095500000855000007E
:10507000C5500000A5500000C5500000C5500000FC
:10508000B550000001220121032000F007FA00239F
:10509000FB611DE001220121022000F0FFF9012344
:1050A000FB6115E001220121042000F0F7F9022341
:1050B000FB610DE001220121052000F0EFF903233F
:1050C000FB6105E041F6C3314248FDF779FF7DE021
:1050D000414BD3F8643123F003023F49FB6913438A
:1050E000C1F8643172E0FB78023B092B57D801A26A
:1050F00052F823F07F5100008F5100002D51000025
:105100006F5100009F5100009F5100009F5100000F
:105110009F5100001D5100003D510000012201215E
:10512000052000F0BBF90023FB613EE001220121D4
:10513000022000F0B3F90123FB6136E0FBF764FACB
:105140000246264B9A4204D941F6DE312148FDF74A
:1051500037FF214B5B6A204A43F008035362012268
:105160000121022000F09AF90223FB611DE00122D7
:105170000121032000F092F90323FB6115E00122D5
:105180000121002000F08AF90423FB610DE00122D7
:105190000121012000F082F90523FB6105E041F6C1
:1051A000FD310C48FDF70CFF10E00B4BD3F8F0314C
:1051B00023F007020849FB691343C1F8F03105E009
:1051C00041F629410348FDF7FBFE00BF2837BD46E5
:1051D00080BD00BF945B040000400E4040787D011C
:1051E00080B483B000AF78607B68374A934243D085
:1051F000354A934216D8354A93422DD0334A9342CA
:1052000006D8334A934227D0324A934224D053E0FF
:10521000314A934228D0314A934229D0304A9342AE
:105220001ED049E02F4A934236D02E4A934209D8E5
:105230002D4A934228D02D4A934229D02C4A93429A
:105240001ED039E02B4A93422ED02B4A93422FD0C6
:105250002A4A934224D02FE0294BD3F880302CE007
:10526000274BD3F88C3028E0254BD3F8983024E036
:10527000234BD3F89C3020E0214BD3F8A0301CE026
:105280001F4BD3F8A83018E01D4BD3F8AC3014E016
:105290001B4BD3F8B03010E0194BD3F8B4300CE00E
:1052A000174BD3F8B83008E0154BD3F8BC3004E006
:1052B000134BD3F8C03000E0002318460C37BD462E
:1052C0005DF8047B704700BFC0EA210100093D0082
:1052D00040420F0080841E00405DC6000024F400A0
:1052E000C0CF6A00006CDC020048E80180D54302B0
:1052F00080BA8C010090D00300A24A04007E5603BD
:10530000B081E00F80B400AF034B1B681846BD4668
:105310005DF8047B704700BF0C00002080B586B0AC
:1053200000AF78607868FFF75BFF78617B69002BDE
:1053300003D07B69B3F1FF3F04D141F6BB514F4825
:10534000FDF73EFE4E4B1B683B614D4A7B68136088
:105350001120FFF79DFA0346052B03D1FEF704F950
:10536000FEF776FA00BF18214648FDF746FE0346D1
:10537000002BF8D17B69B3F1FF3F04D141F6CC514A
:105380003E48FDF71DFE7B683F4A93420DD03F4AE1
:10539000934211D03E4A934200D012E07B6923F041
:1053A000C06343F080637B610BE07B6923F0C063E3
:1053B00043F000737B6104E07B6923F0C0637B6191
:1053C00000BF1120FFF764FA0346052B02D178686D
:1053D000FDF7C4FE7A683B699A4203D901217868D7
:1053E00000F0E8FB2B4A7B6913611120FFF750FAAC
:1053F0000346052B26D1FBF763F8F860FA687B6853
:105400009A4204D941F6F8511C48FDF7D9FD1C4BCE
:105410001B68FA689A4204D941F6F9511748FDF71A
:10542000CFFD174B1B687A689A4204D041F6FA51B7
:105430001248FDF7C5FDFDF783FE03461946F868DF
:10544000FEF7FAF81448FEF725FC03461846FDF768
:1054500085FE7A683B699A4203D80121002000F05A
:10546000A9FB1120FFF714FA0346052B01D1FEF723
:1054700005FA00BF1837BD4680BD00BF945B04002D
:105480000C00002040410E4080841E0000093D00B9
:1054900040420F0000400E4000050A0080B588B071
:1054A00000AF0346FB710B46BB7113467B71FB7962
:1054B000052B49D801A252F823F000BF1D5500006A
:1054C0000B550000E7540000D5540000F9540000CB
:1054D0003355000001237B6102233B610123FB6103
:1054E0000023BB6136E004237B6108233B61032377
:1054F000FB610223BB612DE010237B6120233B6114
:105500000523FB610423BB6124E040237B618023EE
:105510003B610723FB610623BB611BE04FF48073F3
:105520007B614FF400733B610923FB610823BB617E
:1055300010E04FF480637B614FF400633B610B2309
:10554000FB610A23BB6105E042F22F014248FDF7EF
:1055500037FD7DE0BB79002B5ED00023FB73FB7928
:10556000022B1AD1FEF792F80346012B15D13B4BC3
:10557000DB6B03F48063002B04D142F23E0136481A
:10558000FDF71EFD0123FB73354B5B6A03F003033C
:10559000032B02D10220FEF787F8314A7B6913669C
:1055A00000BFB9692F48FDF728FD0346002BF8D04E
:1055B0007B79002B4CD000BFF9692A48FDF71DFD0F
:1055C0000346002BF8D0FB79022B41D1FB7B002B4B
:1055D0003ED0234B5B6A03F00303032B03D000216F
:1055E000022000F021F9022000F03EF8B86001220C
:1055F00000210220FFF752FFB968022000F074F882
:10560000174A7B69136600BFF9691648FDF7F5FC78
:105610000346002BF8D01BE0114A3B69136600BF1C
:105620000F4BD3F890300121BA6901FA02F213400E
:10563000002BF5D17B79002B0AD000BF084BD3F8A3
:1056400090300121FA6901FA02F21340002BF5D1E2
:105650002037BD4680BD00BF945B040000300E4083
:1056600000400E4090400E4080B584B000AF03462D
:10567000FB71FB79013B042B24D801A252F823F0E3
:1056800095560000C5560000A1560000B95600000E
:10569000AD560000124B1B6AC3F30803FB6019E010
:1056A0000F4B1B6903F07F03FB6013E00C4B9B68FF
:1056B00003F07F03FB600DE0094B9B6903F07F0360
:1056C000FB6007E00023FB6042F2BB010548FDF7E9
:1056D00077FC00BFFB6818461037BD4680BD00BF91
:1056E00000400E40945B040080B582B000AF0346DA
:1056F0003960FB71FB79013B042B00F2848001A22D
:1057000052F823F0195700000758000059570000BD
:10571000CD570000935700003B68B3F5007F04D3DA
:1057200042F2E1013D48FDF74BFC3B68C3F308033F
:105730003B6000BF1A213A48FDF75FFC0346002B8F
:10574000F8D1384B1B6A23F4FF7323F0010335496A
:105750003A6813430B625CE03B687F2B04D942F24A
:10576000EE012E48FDF72CFC3B6803F07F033B6005
:1057700000BF18212A48FDF740FC0346002BF8D152
:10578000284B1B6923F07F0226493B6813430B61BA
:105790003FE03B687F2B04D942F2FC011F48FDF734
:1057A0000FFC3B6803F07F033B6000BF1E211C48D9
:1057B000FDF723FC0346002BF8D11A4B9B6823F01E
:1057C0007F0218493B6813438B6022E03B687F2BC4
:1057D00004D942F209111148FDF7F2FB3B6803F0CE
:1057E0007F033B6000BF19210D48FDF706FC03460F
:1057F000002BF8D10B4B9B6923F07F0209493B68D2
:1058000013438B6105E042F232110448FDF7D8FBE7
:1058100000BF00BF0837BD4680BD00BF945B0400D9
:1058200040410E4000400E4080B584B000AF0346BA
:105830000A46FB711346BB71FB79022B04D042F27E
:105840004A111448FDF7BCFBFDF720FF0346012B6E
:1058500003D14FF48003FB600EE0BB79002B03D132
:105860004FF48003FB6007E00B4BFB6042F26511D5
:105870000848FDF7A5FB00BF00BF084BD3F89020F8
:10588000FB681340FA689A42F7D101231846103793
:10589000BD4680BD945B0400FF3F473A00400E4088
:1058A00080B483B000AFEFF310833B603B687B6054
:1058B00072B67B6818460C37BD465DF8047B7047AE
:1058C00080B483B000AF78607B68002B00D162B6F3
:1058D00000BF0C37BD465DF8047B704780B483B0D1
:1058E00000AFEFF310833B603B687B6072B67B6870
:1058F00018460C37BD465DF8047B704780B483B012
:1059000000AF78607B68002B00D162B600BF0C3717
:10591000BD465DF8047B704780B400AF064B5B6802
:10592000C3F30803002B14BF01230023DBB2184686
:10593000BD465DF8047B704700ED00E0F0B482B036
:1059400000AF786039607B681A687B681E687B6886
:105950001D687B681C683B681A603B6804331E60E6
:105960003B6808331D603B680C331C6000BF083780
:10597000BD46F0BC7047000080B584B000AF7860D1
:105980000B46FB707B685B6823F01F03FB60FB78B2
:105990000E2B2FD801A252F823F000BFD9590000D6
:1059A000D9590000D9590000D9590000D95900002F
:1059B000E5590000E5590000E5590000D9590000FB
:1059C000D9590000D9590000D9590000E559000003
:1059D000E5590000E5590000FA78FB681A437B6836
:1059E0005A600CE0FA78FB68134343F010027B68BE
:1059F0005A6004E0F0210448FDF7E2FA00BF00BF5E
:105A00001037BD4680BD00BF305C040080B584B057
:105A100000AFF860B9601346FB71BB68002B04D17E
:105A200040F209110C48FDF7CBFAFB682033B96846
:105A30001846FFF783FFFB79102B08D1FB6803F1B1
:105A40002002BB68103319461046FFF777FF00BFEE
:105A50001037BD4680BD00BF305C040080B487B005
:105A600000AFF860B9607A60FB6803F10473DA0094
:105A7000BB6813449B007B617B697A681A6000BF36
:105A80001C37BD465DF8047B704780B485B000AF1D
:105A9000786039607B6803F10473DA003B68134473
:105AA0009B00FB60FB681B6818461437BD465DF819
:105AB000047B704780B400AF064B1B6803F04003C3
:105AC000002B01D1012300E000231846BD465DF8FC
:105AD000047B70473C300E4080B500AFFFF7EAFF13
