:1000000000800120D1030000FD03000057430100E0
:10001000FD030000FD030000FD030000FD030000E0
:10002000FD030000FD030000FD030000FD030000D0
:10003000FD030000FC030000FD0300007D41010002
:10004000FD030000FD030000FD030000FD030000B0
:10005000FD030000FD030000FD030000FD030000A0
:10006000FD030000FD030000FD030000C5080000C3
:10007000FD030000FD030000FD030000FD03000080
:10008000FD030000FD030000FD030000FD03000070
:10009000FD030000FD030000FD030000FD03000060
:1000A000FD030000F5420100E9420100FD030000EC
:1000B000FD030000FD030000FD030000FD03000040
:1000C000FD030000FD030000FD030000FD03000030
:1000D000FD030000FD030000FD030000FD03000020
:1000E000FD030000FD030000FD030000FD03000010
:1000F000FD030000FD030000FD030000FD03000000
:10010000FD030000FD030000FD030000FD030000EF
:10011000FD030000FD030000FD030000FD030000DF
:10012000FD030000FD030000FD030000FD030000CF
:10013000FD03000010B5054C237833B9044B13B10F
:10014000044800E000BF0123237010BD1803002005
:1001500000000000C0E70F0008B5034B1BB10349C6
:10016000034800E000BF08BD000000001C030020A1
:10017000C0E70F00154B002B08BF134B9D46A3F59E
:10018000803A00218B460F461348144A121A17F082
:100190006AFF0F4B002B00D098470E4B002B00D06E
:1001A00098470020002104000D000D48002802D0CF
:1001B0000C4800E000BF17F0CBFE2000290014F02F
:1001C0000FF817F0B1FE00BF00000800008001200A
:1001D0000000000000000000180300207CCE00207A
:1001E000000000000000000080B483B000AF786021
:1001F00039607B681A683B6822FA03F303F0010355
:1002000018460C37BD465DF8047B704780B582B058
:1002100000AF03463960FB71FB79002B10D0FB79EE
:10022000012B0BD0FB79022B06D0FB79032B01D1DC
:100230001F2306E0002304E03F2302E0032300E045
:100240007F233A68D34003F00103002B04D140F22E
:10025000F6310B4802F051FAFA7913465B00134469
:100260001B01103303F1804303F5703339681846DE
:10027000FFF7BAFF034618460837BD4680BD00BFEA
:10028000A896010080B582B000AF03463960FB71CB
:10029000FB79002B10D0FB79012B0BD0FB79022BC3
:1002A00006D0FB79032B01D11F2306E0002304E0D5
:1002B0003F2302E0032300E07F233A68D34003F0AA
:1002C0000103002B04D140F226410B4802F015FA3D
:1002D00001223B6802FA03F30849FA7918461346EB
:1002E0005B0013441B010B4403F5405310331860AB
:1002F00000BF0837BD4680BDA896010000C003407E
:1003000080B582B000AF00237B600FE00B4A7B68B2
:1003100012F83300094A7B68DB0013445968002354
:10032000042203F059FE7B6801337B607B68012B5C
:10033000ECDD002318460837BD4680BD0C97010050
:1003400080B584B000AF78604FF0FF33FB607B680E
:10035000002B15DB7B68012B12DC0C4A7B6812F842
:1003600033000A4A7B68DB0013445B681946FFF7D9
:100370004DFF0346012B0CBF01230023DBB2FB60C2
:10038000FB6818461037BD4680BD00BF0C970100C2
:1003900080B582B000AF78607B68002B10DB7B6893
:1003A000012B0DDC094A7B6812F83300074A7B6891
:1003B000DB0013445B681946FFF764FF002301E08C
:1003C0004FF0FF3318460837BD4680BD0C9701003B
:1003D000064880470649074A074B9A42BEBF51F874
:1003E000040B42F8040BF8E7FFF7C4FE0104000019
:1003F000CCE70F000000002018030020FEE700BF3C
:1004000080B400AF074B084A9A60064BD3F8883097
:10041000044A43F47003C2F8883000BFBD465DF85B
:10042000047B704700ED00E00000000080B582B062
:1004300000AF00237B600E4B1B6F03F00703022B02
:1004400004D0032B06D0012B08D00AE000F04AF8B4
:10045000786007E0074B1B687B6003E0064B7B601E
:1004600000E0FEE77B6818460837BD4680BD00BF48
:100470000080004000000020002D310180B582B0D6
:1004800000AFFFF7D3FF7860094B1B6F1B0B03F026
:1004900003033B603B6801337A68B2FBF3F37B6094
:1004A000044A7B6813607B6818460837BD4680BDE8
:1004B000008000400C00002080B400AF024B1846C2
:1004C000BD465DF8047B704700B4C40480B400AF3F
:1004D000034B1B681846BD465DF8047B704700BFA0
:1004E0000000002080B400AF034B1B681846BD46D7
:1004F0005DF8047B704700BF0800002080B483B023
:1005000000AF7860044A7B68136000BF0C37BD46BB
:100510005DF8047B704700BF0800002080B400AF86
:1005200000231846BD465DF8047B704780B400AFD9
:10053000024B1846BD465DF8047B7047002D310123
:1005400080B483B000AF00237B602C4B9B681B0CF6
:1005500003F01F030C2B48D801A252F823F000BF70
:1005600095050000EB050000EB050000EB05000021
:10057000EB050000EB050000C7050000CD050000FD
:10058000D3050000EB050000D9050000DF050000E1
:10059000E5050000194B9B6803F04073B3F1807FC1
:1005A00007D0B3F1007F07D0002B08D1144B7B603C
:1005B00008E0144B7B6005E0134B7B6002E00023F6
:1005C0007B6000BF12E0114B7B600FE0104B7B6043
:1005D0000CE0104B7B6009E00F4B7B6006E00F4B9B
:1005E0007B6003E00E4B7B6000E000BF7B68184639
:1005F0000C37BD465DF8047B704700BF0040014AE0
:1006000000093D0080841E0040420F00405DC6008E
:100610000024F400C0EA210180BA8C010048E801FE
:10062000005A620280B400AF4FF400431846BD4642
:100630005DF8047B704780B400AF4FF47A731846BE
:10064000BD465DF8047B704780B400AF034B1B6868
:100650001846BD465DF8047B704700BF04000020CB
:1006600080B483B000AF7860002318460C37BD46D5
:100670005DF8047B704780B483B000AF7860FEE71C
:1006800080B483B000AF786039603B684FF40052AB
:100690005A60002318460C37BD465DF8047B70474E
:1006A00080B483B000AF7860012318460C37BD4694
:1006B0005DF8047B704780B485B000AFF860B96026
:1006C0007A60002318461437BD465DF8047B7047F6
:1006D00080B586B000AFF860B9607A6000237B61B6
:1006E0000FE000F0A1F938613B69B3F1FF3F0ED094
:1006F000BB685A1CBA603A69D2B21A707B6901337E
:100700007B617B685A1E7A60002BEAD100E000BF53
:100710007B69002B02DC4FF0FF3300E07B69184659
:100720001837BD4680BD000080B485B000AF78604A
:100730000B4B1B68002B02D1094B0A4A1A60084B6D
:100740001B68FB60064B1A687B681344044A1360FD
:10075000FB6818461437BD465DF8047B704700BF40
:100760003403002080CE002080B586B000AFF86052
:10077000B9607A6000237B6109E0BB685A1CBA60EB
:100780001B78184600F090F97B6901337B617A6928
:100790007B689A42F1DB7B6818461837BD4680BDFE
:1007A00080B483B000AF0346FB7197F90730002B8C
:1007B0000BDBFB7903F01F02074997F907305B0950
:1007C000012000FA02F241F8232000BF0C37BD4699
:1007D0005DF8047B704700BF00E100E080B483B0A7
:1007E00000AF0346FB7197F90730002B0CDBFB7958
:1007F00003F01F02074997F907305B09012000FA4F
:1008000002F2603341F8232000BF0C37BD465DF88B
:10081000047B704700E100E080B483B000AF034682
:100820000A46FB711346BB7100BF0C37BD465DF82D
:10083000047B704780B483B000AF786039607B6818
:1008400003F5015308333A681A6000BF0C37BD4600
:100850005DF8047B704780B483B000AF7860396086
:100860007B68DA6C3B68DB431A407B68DA6400BF64
:100870000C37BD465DF8047B704780B483B000AF91
:10088000786039607B68DA6C3B681A437B68DA64AD
:1008900000BF0C37BD465DF8047B704780B500AFE4
:1008A00004210248FFF7D7FF00BF80BD008005404C
:1008B00080B500AF04210248FFF7DFFF00BF80BD15
:1008C0000080054098B500AF144B9B6903F080038E
:1008D000002B20D0124B1B68072B1ADC114B1C6815
:1008E0000E4803F03DFF03461A460F4B1A550D4BB9
:1008F0001B6801330B4A1360094B1B680133084A1C
:100900001360084B1B68082B05D1064B00221A60A8
:1009100001E0FFF7C3FF00BF98BD00BF00800540A6
:10092000400300203C0300204403002080B483B037
:1009300000AF78607B68002B03D0064B01221A7051
:1009400002E0044B00221A7000BF0C37BD465DF870
:10095000047B70474C030020B0B588B000AF012184
:100960001420FFF759FF012304220521002003F082
:1009700033FB012302220621002003F02DFB254B2F
:10098000FB61254B3C461D460FCD0FC495E8070083
:1009900084E80700012304220421032003F01CFB48
:1009A00001212020FFF738FF00233B703B4619460A
:1009B000F86903F017FD194B1422C3F8AC25174B47
:1009C0004FF4A022C3F8C425144B4FF4C022C3F83F
:1009D000BC2504210F48FFF72DFF0B20FFF7FEFE7B
:1009E00004210C48FFF749FF0B20FFF7D9FE052132
:1009F000F86903F0B7FC0A4B1B68986800230222D1
:100A0000002117F03DFC074B01221A7000BF203770
:100A1000BD46B0BD008005401C97010000C00340EA
:100A2000400100204D03002080B582B000AF4FF0A0
:100A3000FF337B60184B1B7883F00103DBB2002B84
:100A400001D0FFF789FF03F045F93860134B1B68AD
:100A5000002B18DD124B1B68124AD35CDBB27B60A3
:100A60000F4B1B6801330E4A13600D4B1B68082B9C
:100A700002D10B4B00221A60084B1B68013B074A4E
:100A80001360FFF715FF386803F034F97B681846E8
:100A90000837BD4680BD00BF4D0300204003002045
:100AA000380300204403002080B582B000AF034625
:100AB000FB710F4B1B7883F00103DBB2002B01D0DD
:100AC000FFF74AFF0B4B1B78002B06D0FB790A2B54
:100AD00003D10D21084803F057FEFB79194606485B
:100AE00003F052FEFB7918460837BD4680BD00BFB3
:100AF0004D0300204C0300200080054080B483B0EB
:100B000000AF78607B6818460C37BD465DF8047B03
:100B1000704780B584B000AF03463960FB7107F1C0
:100B20000802F9790423022000F0F8F8F8603B7A13
:100B30009AB27B7A9BB21B029BB213439AB23B6878
:100B40001A80FB6818461037BD4680BD80B584B05A
:100B500000AF03460A46FB711346BB80BB88DBB27D
:100B60003B73BB881B0A9BB2DBB27B730023BB7356
:100B70000023FB7307F10C02F9790423012000F034
:100B8000CDF8034618461037BD4680BD80B584B009
:100B900000AF03463960FB71F97904233A680220FB
:100BA00000F0BCF8F8603B681B681846FFF7A6FF2A
:100BB00002463B681A60FB6818461037BD4680BD88
:100BC00080B582B000AF03463960FB713B681846C0
:100BD000FFF794FF03463B603A46F979042301206E
:100BE00000F09CF8034618460837BD4680BD80B526
:100BF00084B000AF786039603B687A6802210220D7
:100C000000F08CF8F860FB6818461037BD4680BDD0
:100C100080B584B000AF786039603B687A680221A3
:100C2000012000F07BF8F860FB6818461037BD46DD
:100C300080BD80B586B000AFF860B9607A607B682F
:100C4000B3F5005F01D321230FE0F9680420FFF71B
:100C5000B7FF78617B69002B06D17B68BA680521F4
:100C6000012000F05BF878617B6918461837BD46B3
:100C700080BD80B584B000AF7860396079680420A9
:100C8000FFF79EFFF860FB68002B04D13968052050
:100C9000FFF796FFF860FB6818461037BD4680BD29
:100CA00080B586B000AF7860396079680420FFF7BE
:100CB00087FF386107F10C0319460020FFF766FF34
:100CC0003861FB6843F4005319460020FFF778FFB2
:100CD000386100237B6111E007F10C031946002005
:100CE000FFF754FF3861FB6803F40053002B09D071
:100CF000012016F00EFB7B6901337B617B69132BAE
:100D0000EAD900E000BF39680520FFF73FFF3861EE
:100D10003B6918461837BD4680BD000080B586B0D7
:100D200000AFBA607B600346FB730B46BB73424B5C
:100D30001B6893F8223203F00803002B1AD001201D
:100D400016F0B6FA78617B69002B68D1FB7B012B2A
:100D500005D116F0D6FA78617B69002B61D1364B4C
:100D60001B6893F82222344B1B6822F00802D2B28F
:100D700083F82222FB7B022B07D1BB7B7A68B96800
:100D8000184600F05BF878610CE0FB7B012B07D183
:100D9000BB7B7A68B968184600F09CF8786101E07E
:100DA00021237B617B69002B3DD1234B1B6893F88A
:100DB000223203F01003002B37D0FB7B022B34D1FF
:100DC000BB7B012B31D01C4B1B68B3F80632012BC7
:100DD0002BD87B68023BBA6813441B88C3F30B0310
:100DE000002B22D1B97BFB7B7A68184616F0DCFE1B
:100DF000024640F608339A4217D10F4B1B6893F80E
:100E000022220D4B1B6842F00802D2B283F8222244
:100E1000002016F04DFA78617B69002B05E000BFD9
:100E200004E000BF02E000BF00E000BF7B6918469D
:100E30001837BD4680BD00BFD819002080B58AB0E4
:100E400002AF0346B9607A60FB73FB7B9BB21B0366
:100E50009AB27B685B089BB213439BB26FEA434331
:100E60006FEA5343FB83FB8B1B0A9BB2DBB23B75E0
:100E7000FB8BDBB27B7516F0B9FF7B689BB207F189
:100E800014010093BB680222022016F0C1FF16F085
:100E9000B6FFFB7B002B18D1BB68BB61BB691B781D
:100EA000FB75BB695A78BB691A70BB690133FA7D5F
:100EB0001A70BB699B78FB75BB690233BA69D2783B
:100EC0001A70BB690333FA7D1A7000231846203765
:100ED000BD4680BD80B58AB002AF0346B9607A6076
:100EE000FB73FB7B002B18D1BB68FB61FB691B7894
:100EF000FB76FB695A78FB691A70FB690133FA7E4D
:100F00001A70FB699B78FB76FB690233FA69D27829
:100F10001A70FB690333FA7E1A70FB7B9BB21B03CA
:100F20009AB27B685B089BB213433B833B8B1B0AE3
:100F30009BB2DBB23B753B8BDBB27B7516F056FF89
:100F40007B689BB207F114010093BB680222012069
:100F500016F05EFF16F053FF002318462037BD46FB
:100F600080BD000080B582B000AF16F0CDFE786085
:100F70007B68002B2BD116F0B1F93B4619460020B7
:100F8000FFF704FE78607B68002B22D13B68002BC2
:100F900003D03B68B3F1FF3F04D101237B607B6842
:100FA000002B18D13B6823F440733B603B6843F44B
:100FB00000733B603A680B4B13433B603B68194638
:100FC0000020FFF7FDFD78607B68002B04E000BF88
:100FD00002E000BF00E000BF7B6818460837BD464E
:100FE00080BD00BF0054040480B500AF16F0F4FECD
:100FF0000346184680BD80B483B000AF0346FB8033
:10100000FB8818460C37BD465DF8047B704780B4FA
:1010100083B000AF78607B6818460C37BD465DF83A
:10102000047B704790B589B000AF78604FF40972C7
:101030000021786817F017F86B4A7B6813606A4BD9
:101040001B680022A3F80622FFF78CFFF861FB69FA
:10105000002B40F0A58000F039FFF861FB69002B00
:1010600040F0A08000F0DCFFF861FB69002B40F04D
:101070009B80E12016F05AF9F861FB69002B40F0E3
:10108000958001F01FF8F861FB69002B40F090801B
:1010900000F0FEFDF861FB69002B40F08B8000F052
:1010A00045FEF861FB69002B40F0868007F11403D0
:1010B0001A4641F28831E12016F04AF9F861FB69DD
:1010C000002B7BD17B6993F838207B6883F8002262
:1010D0007B6993F839207B6883F801227B6993F858
:1010E0003A207B6883F802227B6803F216207B6932
:1010F00026330622194616F092FF7B6803F5077027
:101100007B692C330622194616F089FF7B691B8CFC
:101110009BB21846FFF76FFF03461A46334B1A80FF
:101120007B6803F502707B690A330E22194616F0BC
:1011300076FF012016F0BCF807F11203184616F0EE
:101140006FF8F861FB69002B3AD10023FB761CE0B5
:10115000FB7E9AB207F10C031146184616F034F8DC
:10116000F861FB69002B2DD1FC68FB68184617F06D
:10117000B5F903461946204600F07EFBF861FB698D
:10118000002B21D1FB7E0133FB76FB7E9AB27B8A5A
:101190009A42DDD3144B1B68012283F8222214E00B
:1011A00000BF12E000BF10E000BF0EE000BF0CE087
:1011B00000BF0AE000BF08E000BF06E000BF04E097
:1011C00000BF02E000BF00E000BFFB69002B05D0BC
:1011D00000F085FDFFF708FF16F042F8FB6918469E
:1011E0002437BD4690BD00BFD81900205003002011
:1011F00080B58AB000AFF860B9607A607B80002368
:101200007B620023BB6100237B6100233B62B7F854
:101210004830013323F001037833FB6107F11800F4
:10122000FB690222432101F037FA78627B6A002BC6
:1012300040F08580BB690022DA70BB6904333B62F1
:10124000B868FFF7E4FE02463B6A1A607B881846DE
:10125000FFF7D1FE03461A463B6A5A853B6A97F868
:10126000302083F82C203B6A97F8342083F82D2017
:101270003B8F1846FFF7BFFE03461A463B6ADA85E6
:10128000B7F840301846FFF7B6FE03461A463B6AE9
:101290001A86B7F848301846FFF7ADFE03461A46DF
:1012A0003B6AA3F872203B6A0433BA68F9681846AF
:1012B00016F0B5FE3B6A3233B7F84020F96B18469A
:1012C00016F0ADFE3B6A7433B7F84820796C1846C7
:1012D00016F0A5FE7B68002B07D03B6A24337968A3
:1012E0000622184616F09BFE06E03B6A24330622CF
:1012F000FF21184616F0B7FEBB69FA6992B219468B
:10130000432000F0B7FB78627B6A002B19D107F10C
:1013100014031A4641F28831432016F019F8786216
:101320007B6A002B0FD17B695B681846FFF76FFE65
:1013300003464321184601F0F9F8786204E000BF43
:1013400002E000BF00E000BF7B6A072B0DD10E4B0F
:101350001B68B3F80632002B07D00B4B1B68B3F8A1
:101360000622013A92B2A3F80622BB69002B05D0EF
:10137000BB6902224321184601F0AEF97B6A184688
:101380002837BD4680BD00BFD819002080B582B087
:1013900002AF00230093002300220021442000F02C
:1013A000E9FA03461846BD4680BD000080B58AB004
:1013B00000AFB9607A601A460346FB8113467B731F
:1013C00000237B620023BB6100237B6100233B621F
:1013D000B7F84820B7F850301A44B7F84810B7F8B3
:1013E00050300B449BB203F0010313447433FB6190
:1013F00007F11800FB690222452101F04DF97862DE
:101400007B6A002B40F08A80BB690222DA70BB69DC
:1014100004333B627868FFF7FAFD02463B6A1A60C4
:101420003B6A7A7B83F824203B6A97F8302083F864
:1014300025203B6A97F8342083F826203B6A97F8EA
:10144000382083F82720FB891846FFF7D4FD034690
:101450001A463B6A1A85B7F840301846FFF7CBFDAD
:1014600003461A463B6A5A85B7F848301846FFF7D4
:10147000C2FD03461A463B6AA3F86C20B7F8503009
:101480001846FFF7B8FD03461A463B6AA3F86E20DC
:101490003B6A04337A68B968184616F0C0FD3B6AA7
:1014A0002C33B7F84020F96B184616F0B8FD3B6AAC
:1014B0007033B7F84820796C184616F0B0FD3B6AD7
:1014C00003F17002B7F848301344B7F85020F96CB4
:1014D000184616F0A4FDBB69FA6992B21946452078
:1014E00000F0C8FA78627B6A002B19D107F1140367
:1014F0001A4641F28831452015F02AFF78627B6A4E
:10150000002B0FD17B695B681846FFF780FD03460F
:101510004521184601F00AF8786204E000BF02E0B5
:1015200000BF00E000BF7B6A072B0DD10D4B1B688D
:10153000B3F80632002B07D00A4B1B68B3F806221B
:10154000013A92B2A3F80622BB69002B05D0BB6911
:1015500002224521184601F0BFF87B6A1846283759
:10156000BD4680BDD819002080B582B002AF0023EF
:101570000093012300220021472000F0FBF90346DD
:101580001846BD4680BD000080B586B000AFF8604B
:10159000B96011461A460B46FB711346BB71BB6816
:1015A000013323F001030C337B61214B1B68B3F83B
:1015B0000422013292B2A3F80422BB689BB20C331E
:1015C0009BB21846FFF717FD03461A46FB681A80C0
:1015D000FB684A229A70FB795B00DBB203F00603DA
:1015E000DAB2FB68DA70FB6808221A71FB68BA7914
:1015F0005A710F4B1B68B3F804321846FFF7FBFC17
:1016000003461A46FB68DA80B868FFF700FD024619
:10161000FB689A607B699BB21A46F9684A2000F021
:1016200029FA38613B6918461837BD4680BD00BFAE
:10163000D819002080B58CB000AFB9607B6003463C
:10164000FB811346BB810023FB620023BB610023A7
:10165000BB6200237B6200237B61B9893A8F13460A
:10166000DB0013449B00CA18B7F84030134406331C
:101670003B623B6A013323F001030C33FB6107F14A
:101680001800FB6902224B2101F006F8F862FB6AA0
:10169000002B40F08E80BB690022DA70BB690433F6
:1016A0007B62FB891846FFF7A6FC03461A467B6A55
:1016B0001A80BB891846FFF79EFC03461A467B6AD0
:1016C0005A803B8F1846FFF796FC03461A467B6A02
:1016D0009A80B7F840301846FFF78DFC03461A464B
:1016E0007B6ADA807B6A0833BB62BB89002B09D036
:1016F000BB891A46B968B86A16F091FCBB89BA6A08
:101700001344BB623B8F002B12D03A8F1346DB0091
:1017100013449B001A467968B86A16F080FC3A8F29
:101720001346DB0013449B001A46BB6A1344BB629A
:10173000B7F84030002B0BD0B7F840301A46F96BA1
:10174000B86A16F06CFCB7F84030BA6A1344BB6252
:101750007B6C002B05D00622796CB86A16F05FFC12
:1017600004E00622FF21B86A16F07DFCBB69FA6925
:1017700092B219464B2000F07DF9F862FB6A002B0B
:1017800019D107F114031A4641F288314B2015F0A4
:10179000DFFDF862FB6A002B0FD17B695B6818469E
:1017A000FFF735FC03464B21184600F0BFFEF862F8
:1017B00004E000BF02E000BF00E000BFFB6A072BAF
:1017C0000DD10E4B1B68B3F80632002B07D00B4B24
:1017D0001B68B3F80622013A92B2A3F80622BB694D
:1017E000002B05D0BB6902224B21184600F074FF84
:1017F000FB6A18463037BD4680BD00BFD8190020AF
:1018000080B586B002AF7860796807F108030622D8
:10181000184616F004FC07F1080100230093012389
:1018200006224F2000F0A6F8034618461037BD46A2
:1018300080BD80B586B002AF03460A46FB711346F1
:10184000BB80FB799BB21846FFF7D5FB0346BB81F3
:10185000BB881846FFF7CFFB0346FB8107F10C015D
:101860000023009300230422522000F083F8034653
:1018700018461037BD4680BD80B588B000AF78608F
:1018800039600023FB6100233B610023FB600023E0
:10189000BB613B68013323F0010306337B6107F131
:1018A00010007B690222092100F0F6FEF861FB6955
:1018B000002B38D13B690022DA703B690433BB61ED
:1018C0003B689BB21846FFF796FB03461A46BB6976
:1018D0001A80BB6902333A687968184616F09FFB94
:1018E0003B697A6992B21946092000F0C3F8F861A1
:1018F000FB69002B19D107F10C031A4641F288311C
:10190000092015F025FDF861FB69002B0FD1FB685C
:101910005B681846FFF77BFB03460921184600F079
:1019200005FEF86104E000BF02E000BF00E000BF78
:10193000FB69072B0DD10E4B1B68B3F80632002B49
:1019400007D00B4B1B68B3F80622013A92B2A3F8FA
:1019500006223B69002B05D03B690222092118466B
:1019600000F0BAFEFB6918462037BD4680BD00BFB7
:10197000D819002080B588B000AFB9607A601A46E7
:101980000346FB731346BB7300233B617B68013343
:1019900023F001030433BB61F97B07F11000BB693D
:1019A000022200F079FEF861FB69002B3CD1BB7B81
:1019B0005B00DAB23B6902F00602D2B2DA70BB68B1
:1019C000002B06D03B6904337A68B968184616F0D4
:1019D00026FB3969BB699AB2FB7B184600F04AF8CE
:1019E000F861FB69002B21D107F11402FB7B41F266
:1019F0008831184615F0ACFCF861FB69002B17D153
:101A0000BB6A002B03D07A69BB6A1A6011E07B695C
:101A10005B681846FFF7FBFA0246FB7B1946104647
:101A200000F084FDF86104E000BF02E000BF00E0C8
:101A300000BFFB69072B0DD10D4B1B68B3F80632B5
:101A4000002B07D00A4B1B68B3F80622013A92B26A
:101A5000A3F806223B69002B05D03B69F97B0222E3
:101A6000184600F039FEFB6918462037BD4680BD98
:101A7000D819002080B584B000AF03463960FB71EF
:101A80001346BB801A23FB6015F0C8FCF860FB68A6
:101A9000002B32D1244B1B68B3F80622234B1B8842
:101AA0009A422CD23B68FA799A70BB881846FFF7A5
:101AB000A2FA03461A463B681A80FB794A2B0AD0E1
:101AC000FB79322B07D0FB79184615F02FFCF86014
:101AD000FB68002B15D1BB881946386815F0E2FD6C
:101AE000F860FB68002B0ED10F4B1B68B3F8062281
:101AF000013292B2A3F8062206E000BF04E000BF64
:101B000002E000BF00E000BFFB681A2B04D015F014
:101B10008DFC0346002B01D00123FB60FB681846B7
:101B20001037BD4680BD00BFD819002050030020EB
:101B300090B589B000AF78600023BB600123FB76CD
:101B400015F06CFCF861FB69002B7BD17B681B886E
:101B5000C3F30B035B007B617B69002B16D17968B3
:101B60000120FEF7D6FFF861FB69002B6CD17B6882
:101B70001B88C3F30B035B007B617B69002B05D1E2
:101B800040F60533FB61FB69002B5FD17B681B8846
:101B90009B0B9BB2FB747B690233FB60FB7C032BCA
:101BA00001D1012300E00223FB76F97E07F108034F
:101BB000FA68184615F05CFBF861FB69002B47D109
:101BC000BB68FA680021184616F04DFABB68F96840
:101BD0001846FFF70CF8F861FB69002B3AD12B4B44
:101BE0001B68B3F80632002B0CD0BB689B785BB245
:101BF000002B07DB254B1B68B3F80622013A92B293
:101C0000A3F80622BA687B6913441B789AB2B968B4
:101C10007B6901330B441B789BB21B029BB21343BD
:101C20009AB27B681A80BB681B889BB2BC68184656
:101C3000FFF7E1F903462380BB68184615F0FEFB69
:101C4000F86108E000BF06E000BF04E000BF02E06A
:101C500000BF00E000BFBB68002B07D0B868BB68BE
:101C60009B781946FB7E1A4600F036FDFB691A2B5D
:101C700004D015F0DBFB0346002B01D00123FB61F0
:101C8000FB6918462437BD4690BD00BFD819002017
:101C900080B582B000AF16F02DF978607B68002B1C
:101CA00015D13B4619460020FEF770FF78607B682F
:101CB000002B0ED13B6843F480333B603B681946F0
:101CC0000020FEF77DFF78607B68002B02E000BFFC
:101CD00000E000BF7B6818460837BD4680BD80B570
:101CE00082B000AF3B4619460020FEF74FFF7860F8
:101CF0007B68002B12D13B6823F480333B603B6848
:101D000019460020FEF75CFF78607B68002B07D146
:101D100016F001F978607B68002B02E000BF00E05C
:101D200000BF7B6818460837BD4680BD80B582B0CD
:101D300000AF3B4619460020FEF728FF78607B681D
:101D4000002B0AD13B6823F4806319460020FEF77C
:101D500037FF78607B68002B00E000BF7B68184687
:101D60000837BD4680BD80B584B000AF0346FB7127
:101D700007F10A0319460120FEF7CBFEF860FB6865
:101D8000002B14D1FB79002B05D07B8943F48053C1
:101D90009BB27B8104E07B8923F480539BB27B81DF
:101DA0007B8919460120FEF7D1FEF86000E000BFF4
:101DB000FB6818461037BD4680BD000080B582B074
:101DC00000AF1E4B1B6893F8223203F01003002B68
:101DD00004D001237B607B68002B24D10020FFF717
:101DE000C2FF78607B68002B1FD1144B1B6893F8EF
:101DF0002222124B1B6842F01002D2B283F8222238
:101E0000002015F055FA78607B68002B0FD10B4B42
:101E10001B6893F82222094B1B6842F00802D2B2D9
:101E200083F8222204E000BF02E000BF00E000BF10
:101E30007B6818460837BD4680BD00BFD819002012
:101E400080B582B000AF204B1B6893F8223203F0BC
:101E50001003002B04D101237B607B68002B29D168
:101E6000194B1B6893F82222174B1B6822F01002B3
:101E7000D2B283F82222012015F01AFA78607B682A
:101E8000002B19D115F03DFA78607B68002B15D135
:101E90000D4B1B6893F822220B4B1B6822F00802A3
:101EA000D2B283F822220120FFF75DFF78607B68C1
:101EB000002B04E000BF02E000BF00E000BF7B6831
:101EC00018460837BD4680BDD819002080B584B0BB
:101ED00000AF3B1D19460020FEF758FEF860FB6876
:101EE000002B77D149490620FEF76AFEF860FB68AF
:101EF000002B71D146490620FEF762FEF860FB68B0
:101F0000002B6BD143490620FEF75AFEF860FB68B0
:101F1000002B65D140490620FEF752FEF860FB68B1
:101F2000002B5FD13D490620FEF74AFEF860FB68B2
:101F3000002B59D1BB1C19460120FEF7EAFDF860C1
:101F4000FB68002B52D17B8843F480539BB27B808B
:101F50007B8819460120FEF7F9FDF860FB68002B2D
:101F600046D10023BB6013E0BB1C19460120FEF7DD
:101F7000D0FDF860FB68002B3CD17B8803F4005354
:101F8000002B09D1012015F0C4F9BB680133BB60F7
:101F9000BB68C72BE8D900E000BF7B8803F400537F
:101FA000002B04D10723FB60FB68002B24D13B1DD1
:101FB00019460020FEF7EAFDF860FB68002B1DD1F2
:101FC0007B6803F48063002B1AD10123FB60FB685C
:101FD000002B15E000BF14E000BF12E000BF10E0CE
:101FE00000BF0EE000BF0CE000BF0AE000BF08E049
:101FF00000BF06E000BF04E000BF02E000BF00E059
:1020000000BFFB6818461037BD4680BD75872007A6
:1020100020C02E083C3C3C09442C320B9764A00C99
:1020200080B582B000AF3B4619462348FEF738FE24
:1020300078607B68002B2FD13B4619460020FEF7C5
:10204000A5FD78607B68002B28D13B6823F4A04372
:102050003B603B6819460020FEF7B2FD78607B6864
:10206000002B1DD115491648FEF703FE78607B68EA
:10207000002B17D13B4619461148FEF711FE786038
:102080007B68002B10D13B680C4A93420ED0012391
:102090007B607B68002B09E000BF08E000BF06E022
:1020A00000BF04E000BF02E000BF00E000BF7B68AB
:1020B00018460837BD4680BD10C000098EC8AB2346
:1020C0000040000980B58CB000AF00233B620023C4
:1020D000BB6015F03FF8F862FB6A002B40F06781A7
:1020E000B449B548FEF7C5FDF862FB6A002B40F025
:1020F00087810021B148FEF7BCFDF862FB6A002B26
:1021000040F080810021AE48FEF7B3FDF862FB6A23
:10211000002B40F07981AB49A748FEF7AAFDF86291
:10212000FB6A002B40F072816422A749A74800F0A7
:10213000A5F9F862FB6A002B40F06A8107F11003F1
:102140001946A348FEF7ACFDF862FB6A002B40F08D
:10215000618107F1100319469E48FEF7A1FDF86260
:10216000FB6A002B40F058813B691B0ADAB29A4B9C
:102170001A709A499048FEF77CFDF862FB6A002BC2
:1021800040F04C8164228F49904800F077F9F86262
:10219000FB6A002B40F044814FF0FF319048FEF77E
:1021A00068FDF862FB6A002B40F03C8107F10C03EC
:1021B000184614F0F9FFFB68503B19468948FEF7B2
:1021C00058FDF862FB6A002B40F02E813B1D082170
:1021D000184614F0CDFFF862FB6A002B40F0268110
:1021E0007D4B1B787A681146184600F078F9F86242
:1021F000FB6A002B40F01C813B1D4021184614F067
:10220000B7FFF862FB6A002B40F014817B68402224
:1022100019467548FEF70DFDF862FB6A002B40F089
:102220000B813B1D0821184614F0A2FFF862FB6ADF
:10223000002B40F003817B68082219466B48FEF7AB
:10224000F8FCF862FB6A002B40F0FA800121684834
:10225000FEF70FFDF862FB6A002B40F0F380654942
:102260005548FEF706FDF862FB6A002B40F0EC8053
:10227000FB68503BFB60FB68013B9B0A0133BB6181
:1022800000237B6276E007F1100319464F48FEF702
:1022900007FDF862FB6A002B40F0D8803B69554A85
:1022A000934205D00123FB62FB6A002B40F0D080F3
:1022B0000023BB6215E00023BB6007F10803194649
:1022C0003F48FEF7EDFCF862FB6A002B40F0C2804D
:1022D000BB683A6AD31AB3F5F84F06D9BB6A013323
:1022E000BB62BB6A632BE6D900E000BFBB683A6AF9
:1022F000D31AB3F5F84F06D940F60233FB62FB6AF6
:10230000002B40F0A980FA683B6AD31AFB61FB6995
:10231000B3F5806F02D94FF48063FB613B1DF9690F
:10232000184614F025FFF862FB6A002B40F09680F7
:102330003B6AC3F30E0303F1106303F580437B6133
:102340007B68FA6919467869FEF773FCF862FB6AE4
:10235000002B40F085803A6AFB6913443B62396A7E
:102360001648FEF786FCF862FB6A002B7AD17B6A7E
:1023700001337B627A6ABB699A4284D31E490E4854
:10238000FEF777FCF862FB6A002B6DD164221A49D4
:102390000E4800F073F8F862FB6A002B66D117490B
:1023A0000548FEF766FCF862FB6A002B5FE000BFA1
:1023B0005DE000BF785634120CC0000904C000096B
:1023C00008C000092143658799EF53BD10C000097B
:1023D00080C00009CCC000094E03002099BD53A75E
:1023E0000040000900C0000914C0000954C00009E1
:1023F0005CC00009BADCCDAB994AC6D482C84F177D
:1024000000BF34E000BF32E000BF30E000BF2EE08C
:1024100000BF2CE000BF2AE000BF28E000BF26E09C
:1024200000BF24E000BF22E000BF20E000BF1EE0AC
:1024300000BF1CE000BF1AE000BF18E000BF16E0BC
:1024400000BF14E000BF12E000BF10E000BF0EE0CC
:1024500000BF0CE000BF0AE000BF08E000BF06E0DC
:1024600000BF04E000BF02E000BF00E000BF14F0C6
:10247000F7FEFB6A18463037BD4680BD80B586B092
:1024800000AFF860B9607A6000237B6113E007F168
:1024900010031946F868FEF703FC78617B69002B8E
:1024A00015D13B69BA689A4209D0012014F031FF76
:1024B0007B68013B7B607B68002BE8D100E000BFBC
:1024C0003B69BA689A4204D007237B6102E000BFEF
:1024D00000E000BF7B6918461837BD4680BD80B557
:1024E00084B000AF03463960FB713B689B793B7257
:1024F0003B68DB797B720023BB7207F10803102273
:102500000021184616F002F90346FB72FA7AFB79AD
:102510009A4202D10023FB6002E040F60133FB60E7
:10252000FB6818461037BD4680BD000080B485B0FA
:1025300000AF78600B46FB70FB7803F02003002BA4
:102540003DD07B686B2B28D06B2B0FD8022B27D06C
:10255000022B04D8002B1DD0012B1ED02BE0042B06
:1025600025D0042B1FD35A2B14D024E09E2B11D03E
:102570009E2B04D87C2B10D08D2B0ED01BE041F26B
:102580003422934206D041F25622934205D0AF2B1B
:1025900003D010E00023FB6076E00123FB6073E0D2
:1025A0002123FB6070E040F60433FB606CE040F6F2
:1025B0000333FB6068E00123FB6000BF64E07B68DD
:1025C000142B5ED801A252F823F000BF2126000090
:1025D000272600002D260000352600003B2600009F
:1025E000432600004B260000532600005B26000017
:1025F000632600006B26000083260000832600006F
:102600008326000083260000832600008326000026
:102610008326000083260000732600007B2600002E
:102620000023FB6030E02123FB602DE040F61833EF
:10263000FB6029E00123FB6026E040F61933FB60D4
:1026400022E040F60433FB601EE040F61A33FB60E4
:102650001AE040F61B33FB6016E040F61C33FB60CB
:1026600012E040F61D33FB600EE040F61E33FB60C7
:102670000AE040F61F33FB6006E04FF43263FB6074
:1026800002E00123FB6000BFFB6818461437BD461B
:102690005DF8047B704700BF80B586B000AFF8607E
:1026A000B9603B601346FB71FB793A681946F868DC
:1026B00014F0DEFD78617B69002B07D1FB681B6895
:1026C0003A680021184615F0CEFC00E000BF7B6997
:1026D00018461837BD4680BD80B584B000AFF8609D
:1026E000B9601346FB71FB791946F86814F0D2FD06
:1026F000034618461037BD4680BD80B483B000AF96
:1027000078603960FEE780B500AFFDF7B7FE03469D
:10271000184680BD90B585B000AF0346FB7100231D
:10272000FB60FB79242B00F2B88001A252F823F061
:10273000C5270000CF270000D9270000EF270000A1
:10274000052800001D2800002B2800003928000063
:102750004728000055280000632800007128000069
:102760007F2800008D280000CF27000039280000B6
:102770009B2800009B28000047280000CF2700006E
:10278000EF27000005280000EF2700001D280000AB
:10279000CF27000039280000EF2700008D28000017
:1027A0002B2800002B2800002B2800002B280000DD
:1027B000EF270000EF270000EF270000552800005A
:1027C00063280000FDF732FE0346FB606BE0FDF777
:1027D00055FE0346FB6066E0FDF728FE0446022036
:1027E00000F0F2F80346B4FBF3F3FB605BE0FDF7A7
:1027F00045FE0446032000F0E7F80346B4FBF3F37C
:10280000FB6050E0FDF73AFE0446032000F0DCF8E0
:102810000346B4FBF3F35B08FB6044E007F10C03F1
:102820000021184601F054F93DE007F10C030021A6
:10283000184600F091FF36E007F10C03002118461E
:1028400000F0D8FF2FE007F10C030021184601F03B
:1028500011F828E007F10C030021184601F0EAF90D
:1028600021E007F10C030021184600F05DF81AE0A2
:1028700007F10C030021184600F022FF13E007F1D6
:102880000C030021184600F015F80CE007F10C03CA
:102890000021184601F082F905E04FF40B7104485D
:1028A000FFF72BFF00BFFB6818461437BD4690BDED
:1028B000C898010080B584B000AF7860396000230B
:1028C000FB60174BD3F8803003F00303022B02D0D8
:1028D000032B06D00BE0FDF7D1FDF8600B23FB7254
:1028E0000DE0FDF72DFEF8600523FB7207E00023E5
:1028F000FB7240F2BB210B48FFF7FFFE00BF7B6875
:10290000002B02D07B68FA681A603B68002B02D06B
:102910003B68FA7A1A7000BF1037BD4680BD00BF11
:1029200000800040C898010080B584B000AF786096
:1029300039600023FB60224BD3F8083203F0070311
:10294000013B032B24D801A252F823F05D2900009B
:10295000692900007529000081290000FDF762FE49
:10296000F8600823FB721BE0FDF76EFEF86007239A
:10297000FB7215E0FDF75FFEF8600923FB720FE0C4
:10298000FDF77CFD03469B0AFB600C23FB7207E00E
:102990000023FB7240F2EE210A48FFF7AEFE00BFB3
:1029A0007B68002B02D07B68FA681A603B68002BBA
:1029B00002D03B68FA7A1A7000BF1037BD4680BD5E
:1029C00000800040C898010080B584B000AF034685
:1029D000FB710023FB60FB79013B0D2B3CD801A26E
:1029E00052F823F01D2A00003B2A00004B2A000069
:1029F000592A0000592A0000592A0000592A0000CB
:102A0000592A0000592A0000592A0000592A0000BA
:102A1000592A0000592A00001D2A0000134B1B6F81
:102A20001B0B03F00303FB60FB68022B16D14FF472
:102A30008A610F48FFF761FE10E00C4BD3F890302D
:102A40001B0E03F01F03FB6009E0084B1B6F9B0A82
:102A500003F00103FB6002E000BF00E000BFFB6881
:102A6000013318461037BD4680BD00BF00800040CE
:102A7000C898010080B582B000AF03463960FB7191
:102A8000FB79013B0D2B73D801A252F823F000BF54
:102A9000C92A0000152B0000452B0000712B0000F7
:102AA000712B0000712B0000712B0000712B0000B6
:102AB000712B0000712B0000712B0000712B0000A6
:102AC000712B0000C92A00003B68012B0AD03B682B
:102AD000022B07D03B68042B04D040F28D412948DB
:102AE000FFF70BFE01F09AF801F038F8264B1B6F48
:102AF00023F440523B68013B1B03234913430B67FC
:102B0000FFF701FE03460021184600F0C3FD01F067
:102B10002DF833E03B68002B02D03B68202B04D912
:102B200040F2B3411748FFF7E8FD174BD3F8903058
:102B300023F0F8523B68013B1B0613491343C1F8CD
:102B400090301BE03B68012B07D03B68022B04D080
:102B500040F2B9410B48FFF7D0FD0B4B1B6F23F43C
:102B600080623B68013B9B02074913430B6705E00A
:102B700040F2BF410348FFF7C0FD00BF00BF083768
:102B8000BD4680BDC89801000080004080B584B07B
:102B900000AF0346FB710023FB73FB79242B00F28B
:102BA000B38001A252F823F03D2C0000092D000053
:102BB000092D0000092D0000092D00008B2C0000BC
:102BC000992C0000A72C0000B52C0000C32C00009D
:102BD000D12C0000DF2C0000ED2C0000FB2C0000AD
:102BE000092D0000A72C0000092D0000092D000070
:102BF000B52C0000092D0000092D0000092D000052
:102C0000092D00008B2C0000092D0000A72C0000CE
:102C1000092D0000FB2C0000992C0000992C0000CD
:102C2000992C0000992C0000092D0000092D0000AE
:102C3000092D0000C32C0000D12C0000384B1B6F65
:102C400003F00703013B032B16D801A252F823F02F
:102C5000732C0000612C0000672C00006D2C00001C
:102C60000423FB7310E00323FB730DE00623FB73C7
:102C70000AE00223FB7307E00023FB7340F2E94103
:102C80002848FFF73AFD00BF44E007F10F0319465B
:102C9000002000F01DFF3DE007F10F031946002062
:102CA00000F05AFD36E007F10F031946002000F04E
:102CB000A1FD2FE007F10F031946002000F0DAFD17
:102CC00028E007F10F031946002000F0B3FF21E0D0
:102CD00007F10F0319460020FFF726FE1AE007F15F
:102CE0000F031946002000F0EBFC13E007F10F037F
:102CF00019460020FFF7DEFD0CE007F10F0319462F
:102D0000002000F04BFF05E040F23C510548FFF782
:102D1000F4FC00BFFB7B18461037BD4680BD00BFEA
:102D200000800040C898010080B584B000AF034621
:102D30000A46FB711346BB710023FB600023FB7244
:102D4000FB79242B00F2128201A252F823F000BF7B
:102D5000E52D00006D3100006D3100006D31000087
:102D60006D3100009B2E0000DF2E0000372F000089
:102D70007B2F0000BF2F00001F3000007F300000BD
:102D8000F1300000293100006D310000372F0000C4
:102D90006D3100006D3100007B2F00006D310000AF
:102DA0006D3100006D3100006D3100009B2E000080
:102DB0006D310000372F00006D3100002931000017
:102DC000DF2E0000DF2E0000DF2E0000DF2E0000CF
:102DD0006D3100006D3100006D310000BF2F00002B
:102DE0001F300000BB79023B042B28D801A252F807
:102DF00023F000BF392E00000F2E0000092E000026
:102E00003F2E0000332E00000223FB601DE0032351
:102E1000FB60B44B9B6A03F00203002B14BF012339
:102E20000023FB72AF4B03F58153083301221A6074
:102E30000BE00423FB6008E00123FB6005E040F2A7
:102E40006D51A948FFF759FC00BF00F0E7FE00F004
:102E500085FEA64B1B6F23F00702A449FB681343B2
:102E60000B67FFF750FC03460021184600F012FCE8
:102E700000F07CFEFB7A83F00103DBB2002B0AD06A
:102E8000BB79032B00D007E0964B03F500532833A2
:102E900001221A6000E000BF6EE1BB79052B07D06C
:102EA0000D2B02D0022B06D008E00123FB600BE0C3
:102EB0000223FB6008E00323FB6005E040F2AF5112
:102EC0008948FFF71AFC00BF884BD3F8803123F004
:102ED00003028649FB681343C1F880314CE1BB799A
:102EE000023B032B16D801A252F823F00F2F00004B
:102EF000032F0000FD2E0000092F00000123FB60BE
:102F00000EE00223FB600BE00323FB6008E00423D8
:102F1000FB6005E04FF4BA617348FFF7EEFB00BFBA
:102F2000724BD3F8203123F007027049FB6813433A
:102F3000C1F8203120E1BB79082B04D0092B08D03F
:102F4000072B03D008E00123FB600BE00223FB60AA
:102F500008E00323FB6005E040F2E9516248FFF717
:102F6000CCFB00BF614BD3F8403123F003025F4933
:102F7000FB681343C1F84031FEE0BB79082B04D055
:102F8000092B08D0072B03D008E00123FB600BE0DE
:102F90000223FB6008E00323FB6005E040F20161CF
:102FA0005148FFF7AAFB00BF504BD3F8603123F024
:102FB00003024E49FB681343C1F86031DCE0BB7982
:102FC000073B052B1AD801A252F823F0EB2F000083
:102FD000E52F0000F12F0000FD2F0000FD2F000065
:102FE000F72F00000123FB600EE00223FB600BE0E3
:102FF0000323FB6008E00423FB6005E040F243612B
:103000003948FFF77AFB00BF384BD3F8003223F082
:1030100007023649FB681343C1F80032ACE0BB79C4
:10302000073B052B1AD801A252F823F04B300000C1
:1030300045300000513000005D3000005D30000080
:10304000573000000123FB600EE00223FB600BE021
:103050000323FB6008E00423FB6005E04FF4CC6130
:103060002148FFF74AFB00BF204BD3F8083223F07A
:1030700007021E49FB681343C1F808327CE0BB79A4
:10308000013B062B1CD801A252F823F0BB300000F4
:10309000C1300000A9300000C1300000C130000084
:1030A000B5300000AF3000000123FB600EE00223CA
:1030B000FB600BE00323FB6008E00023FB6005E0FE
:1030C00040F27C610848FFF718FB00BF074BD3F8BC
:1030D000003123F003020549FB681343C1F80031B6
:1030E0004AE000BF00C00040C898010000800040D6
:1030F000BB79052B04D00B2B05D10223FB6008E024
:103100000323FB6005E04FF4D2611D48FFF7F5FA99
:1031100000BF1C4BD3F8803023F003021949FB6831
:103120001343C1F8803027E0BB79082B04D0092B6A
:1031300008D0072B03D008E00123FB600BE002233B
:10314000FB6008E00323FB6005E040F2BF610C4830
:10315000FFF7D3FA00BF0B4BD3F8403223F0030242
:103160000849FB681343C1F8403205E04FF4D961C8
:103170000348FFF7C2FA00BF00BF1037BD4680BD4D
:10318000C89801000080004090B58BB000AF786017
:1031900000237B620023FB7700237B617B681B6835
:1031A000964A934204D240F2E9619548FFF7A5FAA6
:1031B0007B681B68934A934204D940F2EB619048C4
:1031C000FFF79BFA7B689B88B3F5967F04D840F2A3
:1031D000ED618B48FFF791FA7B689B88B3F5805FC0
:1031E00004D340F2EE618648FFF787FA7B68DB88FC
:1031F000B3F5805F04D340F2EF618148FFF77DFAB9
:1032000000233B6218E07B681A687F493B6A1B0118
:103210000B441B689A420CD37B681A687A493B6A54
:103220001B010B4404331B689A4202D83B6A7B6241
:1032300005E03B6A01333B623B6A182BE3D97B6AAA
:10324000192B06D140F202716D48FFF756FA0023A0
:10325000D0E06D4A7B6A1B01134408331B68BB61D5
:10326000694A7B6A1B0113440C331B68002B10D086
:10327000654A7B6A1B0113440C331B68184600F037
:1032800083FB034603F07F033B61BA693B69134349
:10329000BB617B681B681846FDF730F90020FFF71B
:1032A00075FC0346042B1BD100F0B8FC00F056FC63
:1032B0000120FFF789FB78610123FB777B69012BF4
:1032C00004D102210120FFF7D5FB09E07B69022B25
:1032D00004D104210120FFF7CDFB01E00023FB779F
:1032E0004A4B03F50053043301221A6000BF474BD9
:1032F0009B6903F00303002BF9D1444B03F5005302
:10330000103307221A607B689B881B047A68D28876
:1033100011463E4A0B43D3603D4ABB6993607B68CC
:103320001B7A19460B20FFF7FFFC7B68DB7A002B2A
:1033300001D0042200E000227B681B7B002B01D01F
:10334000402300E000231A437B685B7A5B00134351
:103350007A68927A11462D4A0B4393602B4B03F502
:103360008053043301221A6000BF284B1B6903F00D
:103370000703FB60FB68002BF7D00020FFF706FC7B
:103380000346042B30D1FB7F002B03D07969012049
:10339000FFF770FBFFF7B7F9B8607B681B68BA6886
:1033A0009A4204D940F24A711548FFF7A6F9FDF791
:1033B00099F80246BB68934204D940F24B71104819
:1033C000FFF79BF97B681C68FDF78CF803469C426D
:1033D00004D040F24C710A48FFF78FF90021B86819
:1033E00000F058F900F0C2FBFB68012B01D101236A
:1033F00000E0002318462C37BD4690BDA0BB0D0051
:10340000C898010000B4C4043897010000C001400E
:103410000000014080B582B000AF78607B681B7807
:103420000F2B04D94FF4FB619648FFF766F97B68D0
:103430005B780F2B04D940F2DB719248FFF75DF9FE
:103440007B689B780F2B04D940F2DE718D48FFF723
:1034500054F97B68DB780F2B04D940F2E17189487D
:10346000FFF74BF97B681B790F2B04D940F2E4710D
:103470008448FFF742F97B685B793F2B04D940F21F
:10348000E7718048FFF739F97B689B793F2B04D9B6
:1034900040F2EA717B48FFF730F97B68DB79032B58
:1034A00004D940F2ED717748FFF727F97B681B7A62
:1034B000032B04D94FF4FE617248FFF71EF97B68B5
:1034C0005B7B012B04D940F2F2716E48FFF715F9CE
:1034D0000020FFF75BFB0346032B00F0CF806A4B15
:1034E00045F60E02C3F88020674B03F5815308337D
:1034F00002221A60644B03F50053283301221A603C
:1035000000BF614B9B6D03F48033002BF9D17B68C6
:103510001B781A067B685B781B051A437B68DB788F
:103520001B041A437B681B791B031A437B685B7976
:103530009B0113437A6892791A43534B1A617B6853
:10354000DB799A067B681B7A1B061A437B685B7AD9
:103550001B041A437B689B7A1B0213437A68D27A56
:103560001A43494B9A61484B1B6A23F00D037A6852
:10357000527B002A01D1002200E0082213437A681E
:10358000127B920013437A68527B11463E4A0B43EA
:1035900013627B685B7B002B51D13B4B9B6A23F012
:1035A00033037A68927B520113437A68D27B12010B
:1035B0001343354A43F00103936200BF324B9A6DC7
:1035C000324B1340314A9342F8D12F4B03F58153CC
:1035D000083302221A6000BF2B4B9B6D03F080431F
:1035E000002BF9D1284B1B6923F470037A68927879
:1035F00012051146244A0B431361234B03F58053F4
:1036000018334FF000421A607B681B7C83F0010383
:10361000DBB2002B05D01C4B03F5005328330222EC
:103620001A607B685B7C83F00103DBB2002B1CD04B
:10363000154B03F50053283301221A6015E0124B95
:103640009B6A23F033037A68927B520113437A68B2
:10365000D27B120113437A68127C520013437A68BA
:10366000527C1146084A0B4393627B689B7C002B7B
:1036700005D0054B064AC3F8802000E000BF08379C
:10368000BD4680BDC898010000C000400300014055
:10369000F1A7FFFF80B582B000AF786039603B686A
:1036A000002B04DD0121786800F024F903E00021FB
:1036B000786800F01FF900BF0837BD4680BD0000E4
:1036C00080B584B000AF786039600023FB60204B88
:1036D000D3F8003103F00303032B20D801A252F8E2
:1036E00023F000BF19370000F53600000137000055
:1036F0000D370000FCF7EAFEF8600323FB7216E0CA
:10370000FCF7A2FFF8600723FB7210E0FCF706FF4E
:10371000F8600623FB720AE00123FB7207E0002336
:10372000FB7240F666110B48FEF7E7FF00BF7B68AF
:10373000002B02D07B68FA681A603B68002B02D02D
:103740003B68FA7A1A7000BF1037BD4680BD00BFD3
:1037500000800040C898010080B584B000AF786058
:1037600039600023FB60214BD3F8203103F00703BD
:10377000013B032B22D801A252F823F08D37000021
:1037800099370000A5370000B1370000FCF7AAFE0A
:10379000F8600423FB7219E0FCF798FEF86003233D
:1037A000FB7213E0FCF7CCFEF8600523FB720DE022
:1037B000FCF7BCFEF8600223FB7207E00023FB72FB
:1037C00040F69B110A48FEF798FF00BF7B68002B6C
:1037D00002D07B68FA681A603B68002B02D03B6815
:1037E000FA7A1A7000BF1037BD4680BD00800040D5
:1037F000C898010080B584B000AF786039600023BC
:10380000FB601A4BD3F8403103F00303022B09D0BD
:10381000032B0DD0012B11D1FCF704FFF860082316
:10382000FB7213E0FCF710FFF8600723FB720DE05A
:10383000FCF701FFF8600923FB7207E00023FB722D
:1038400040F6C9110A48FEF758FF00BF7B68002BFD
:1038500002D07B68FA681A603B68002B02D03B6894
:10386000FA7A1A7000BF1037BD4680BD0080004054
:10387000C898010080B584B000AF7860396000233B
:10388000FB601A4BD3F8603103F00303022B09D01D
:10389000032B0DD0012B11D1FCF7C4FEF8600823D7
:1038A000FB7213E0FCF7D0FEF8600723FB720DE01B
:1038B000FCF7C1FEF8600923FB7207E00023FB72EE
:1038C00040F6F7110A48FEF718FF00BF7B68002B8F
:1038D00002D07B68FA681A603B68002B02D03B6814
:1038E000FA7A1A7000BF1037BD4680BD00800040D4
:1038F000C898010080B485B000AF786039601E4B75
:10390000DB6903F48033B3F5803F0CBF0123002350
:10391000FB72194B41F67132DA63174B9B6823F443
:103920004013FB607B68154A934203D9FB6843F45C
:103930008013FB60104AFB689360114BD3F8183278
:1039400023F00203FB607B680E4A934203D9FB68B5
:1039500043F00203FB600A4AFB68C2F81832FB7AA4
:10396000002B02D0044B0022DA6300BF1437BD469F
:103970005DF8047B704700BF00000340C01753028E
:1039800000C0074080F0FA0280B584B000AF7860D4
:103990000023FB607B683E4A934245D03C4A9342F9
:1039A00018D83C4A93422FD03A4A934208D83A4A10
:1039B000934229D0394A934226D0002B61D05AE055
:1039C000374A934228D0374A934229D0364A934205
:1039D0001ED050E0354A934239D0344A934209D838
:1039E000334A934229D0334A93422BD0324A9342EE
:1039F0001ED040E0314A934233D0314A934235D011
:103A0000304A934228D036E02F4B9B6DFB6039E063
:103A10002D4B5B6EFB6035E02B4B1B6FFB6031E089
:103A2000294B5B6FFB602DE0274B9B6FFB6029E010
:103A3000254BD3F88030FB6024E0234BD3F884304F
:103A4000FB601FE0204BD3F88830FB601AE01E4B70
:103A5000D3F88C30FB6015E01B4BD3F89030FB6043
:103A600010E0194BD3F89430FB600BE0164BD3F801
:103A70009830FB6006E040F68D211448FEF73DFECD
:103A800000E000BFFB6818461037BD4680BD00BF90
:103A9000C0EA210100093D0040420F0080841E0061
:103AA000405DC6000024F400C0CF6A00006CDC0258
:103AB0000048E80180D5430280BA8C010090D00311
:103AC00000B4C404007E56030080E00FC8980100D3
:103AD00080B584B000AF786039600023BB601D4BB7
:103AE000D3F8803103F00303022B0CD0032B11D049
:103AF000012B16D107F1080300211846FFF72CFE11
:103B00000D23FB7315E0FCF71BFD0346BB6005238B
:103B1000FB730EE0FCF70AFD0346BB600223FB7358
:103B200007E00023FB7340F6B7210B48FEF7E5FDE5
:103B300000BF7B68002B02D0BA687B681A603B68C4
:103B4000002B02D03B68FA7B1A7000BF1037BD46CD
:103B500080BD00BF00800040C898010080B500AF64
:103B600002210320FEF786FF00BF80BD80B582B032
:103B700000AF02237B600120FEF7CCFD0246064B1E
:103B80009A4201D801237B6079680320FEF772FF17
:103B900000BF0837BD4680BD80F0FA0280B584B012
:103BA00000AF786039600023FB601A4BD3F84032D5
:103BB00003F00303022B09D0032B0DD0012B11D1ED
:103BC000FCF730FDF8600823FB7213E0FCF73CFDC6
:103BD000F8600723FB720DE0FCF72DFDF860092368
:103BE000FB7207E00023FB7240F6FE210A48FEF755
:103BF00084FD00BF7B68002B02D07B68FA681A60E6
:103C00003B68002B02D03B68FA7A1A7000BF10376D
:103C1000BD4680BD00800040C898010080B500AF5F
:103C2000FCF74AFC034600211846FFF763FE00BF7D
:103C300080BD000080B584B000AF7860396000239B
:103C4000FB60224BD3F8003203F00703013B032B48
:103C500024D801A252F823F0693C0000753C000012
:103C6000813C00008D3C0000FCF7DCFCF860082380
:103C7000FB721BE0FCF7E8FCF8600723FB7215E021
:103C8000FCF7D9FCF8600923FB720FE0FCF7F6FBA8
:103C900003469B0AFB600C23FB7207E00023FB72C8
:103CA00040F63A310A48FEF728FD00BF7B68002B3A
:103CB00002D07B68FA681A603B68002B02D03B6830
:103CC000FA7A1A7000BF1037BD4680BD00800040F0
:103CD000C898010080B483B000AFEFF310833B605D
:103CE0003B687B6072B67B6818460C37BD465DF852
:103CF000047B704780B483B000AF78607B68002B92
:103D000000D162B600BF0C37BD465DF8047B70473A
:103D100080B487B000AFF860B9607A607B68002B30
:103D200004D0FB6803F580537B6103E0FB6803F577
:103D300000537B610122BB689A407B691A6000BF17
:103D40001C37BD465DF8047B704780B485B000AF7A
:103D5000786039607B6803F58053FB60FB683A68E4
:103D60001A6000BF1437BD465DF8047B704780B40D
:103D700085B000AF786039607B6803F50053FB6065
:103D8000FB683A681A6000BF1437BD465DF8047BD3
:103D9000704780B584B000AFF860B9607A60B968E8
:103DA000F868FFF7E4FF7968F868FFF7CEFF00BF17
:103DB0001037BD4680BD000080B483B000AF78608E
:103DC000054B03F5105320337A681A6000BF0C3797
:103DD000BD465DF8047B704700C0034080B582B0EB
:103DE00000AF03463960FB71FB79002B10D0FB79E3
:103DF000012B0BD0FB79022B06D0FB79032B01D1D1
:103E00001F2306E0002304E03F2302E0032300E039
:103E10007F233A68D34003F00103002B04D14FF411
:103E200077710B48FEF769FC01223B6802FA03F345
:103E30000849FA79184613465B0013441B010B44EA
:103E400003F500531033186000BF0837BD4680BD2E
:103E50002C99010000C0034080B582B000AF03463A
:103E60003960FB71FB79002B10D0FB79012B0BD053
:103E7000FB79022B06D0FB79032B01D11F2306E02F
:103E8000002304E03F2302E0032300E07F233A689D
:103E9000D34003F00103002B04D140F20B410B4847
:103EA000FEF72BFC01223B6802FA03F30849FA797A
:103EB000184613465B0013441B010B4403F5805363
:103EC0001033186000BF0837BD4680BD2C99010033
:103ED00000C0034080B584B000AFB9607A601A4674
:103EE0000346FB731346BB73FB7B002B10D0FB7B9D
:103EF000012B0BD0FB7B022B06D0FB7B032B01D1CC
:103F00001F2306E0002304E03F2302E0032300E038
:103F10007F23BA68D34003F00103002B03D1C421EF
:103F20002748FEF7EAFB7A68BB68534023F0030397
:103F3000002B03D0C6212248FEF7DFFB7B68072B4E
:103F40000DD87B689B00032202FA03F1FA7B7B68A1
:103F50009B0002FA03F31A461A48FFF71AFF7B6820
:103F6000072B0FD87B689B00032202FA03F1BB6882
:103F700003F003027B689B0002FA03F31A4612481F
:103F8000FFF707FFBB7B1A4679681048FFF7C0FEB2
:103F90003B7E1A4679680E48FFF7BAFE01227B681D
:103FA00002FA03F31846FFF707FF3B7F1A467968CA
:103FB0000848FFF7ADFE00BF1037BD4680BD00BF0B
:103FC0009099010000C4034008C4034010C403409A
:103FD00014C4034024C4034080B584B000AFB9606A
:103FE0007B600346FB731346BB73FB7B002B10D037
:103FF000FB7B012B0BD0FB7B022B06D0FB7B032B27
:1040000001D11F2306E0002304E03F2302E0032345
:1040100000E07F23BA68D34003F00103002B04D1F2
:1040200040F21B113948FEF768FBBB7B002B0DD01B
:104030007B68002B05D0FB7BB9681846FFF70CFFA7
:1040400004E0FB7BB9681846FFF7C8FEBB68072B86
:1040500020D82F49FA7B13465B0013441B010B4405
:1040600004331A68BB689B000F2101FA03F3DB439A
:104070001340B97BBA68920001FA02F21146244853
:10408000FA7B194313465B0013441B0103440433BA
:10409000196025E01E49FA7B13465B0013441B019F
:1040A0000B440C331A68BB6803F18043083B9B0048
:1040B0000F2101FA03F3DB4302EA0301BA7BBB6879
:1040C00003F18043083B9B0002FA03F31048FA7B9C
:1040D000194313465B0013441B0103440C3319605E
:1040E000BB7B002B0DD17B68002B05D0FB7BB96817
:1040F0001846FFF7B1FE04E0FB7BB9681846FFF7EE
:104100006DFE00BF1037BD4680BD00BF9099010015
:1041100000C0034080B485B000AF78600E4B5B698F
:10412000FB60FB689B09DBB203F03F03DAB27B68FC
:104130009A70FB68DBB203F03F03DAB27B685A7017
:10414000FB681B0BDAB27B681A7000BF1437BD46E0
:104150005DF8047B704700BF00C0074080B483B0A7
:1041600000AF78600B46FB707B68124A934204D123
:10417000114AFB78C2F8843110E07B680F4A934201
:1041800004D10D4AFB78C2F8943107E07B680C4AF1
:10419000934203D1084AFB78C2F8A4317B68DB6DF7
:1041A00043F080027B68DA6500BF0C37BD465DF8DE
:1041B000047B7047008005400080034000C005403C
:1041C0000000064080B586B000AFF860B9607A6044
:1041D000FB707B68002B04D14FF495714448FEF7C7
:1041E0008CFABB68002B03D10320FEF793FAB8606A
:1041F000FB78202B16D0202B02DC002B05D03BE0D7
:10420000402B1CD0602B2AD036E0BB681B097A6893
:104210009A4204D94FF4AE713548FEF76EFA102376
:104220007B612FE0BB68DB087A689A4204D940F2D0
:1042300061112F48FEF761FA08237B6122E0BB6819
:104240002C4AA2FB03239B087A689A4204D94FF4B4
:10425000B3712748FEF751FA06237B6112E0BB6871
:104260009B087A689A4204D940F26B112048FEF705
:1042700044FA04237B6105E040F271111C48FEF70B
:104280003CFA32E0BB685A017B69796801FB03F3B1
:104290005B0813443B617B697A6802FB03F33A696C
:1042A000B2FBF3F33B613B69203B3B613B69DB00C5
:1042B0003B613B69104A934204D940F287110C4894
:1042C000FEF71BFA3A690C4B13403B61FB689B6895
:1042D00023F06002FB689A60FB689A68FB781A43D7
:1042E000FB689A60FB683A69DA611837BD4680BDA1
:1042F000F4990100ABAAAAAAF8FF7F0080B586B0A6
:1043000000AFF860B9607A607B68002B04D140F29E
:104310006E211248FEF7F1F9BB68002B03D1032090
:10432000FEF7F8F9B860BB685A1E7B685B00B2FB09
:10433000F3F37B617B691B027B617A69084B134055
:10434000002B04D040F28B210448FEF7D6F9FB681D
:104350007A69DA6100BF1837BD4680BDF499010063
:10436000070080FF80B584B000AF78600B46FB701B
:104370007B68184A93420CD07B68174A934208D056
:104380007B68164A934204D040F2A6211448FEF7F7
:10439000B4F97B6803F58053043301221A60FB787B
:1043A000DB43FB60FB6803F00503FB60FB685A001E
:1043B0007B685A61FA787B685A61FB78002B05D1DB
:1043C0007B6803F50053043301221A6000BF1037E5
:1043D000BD4680BD0080054000C00540000006408D
:1043E000F499010080B582B000AF786039607B68D5
:1043F0005B4A93420CD07B685A4A934208D07B6850
:10440000594A934204D040F2D7215848FEF775F933
:10441000786800F037F97B6803F580530433012294
:104420001A603B689B7C002B05D07B689B6843F03F
:1044300080427B689A603B68DB7C002B05D03B6840
:104440001B7D19467868FFF789FE3B685B7B1A463F
:104450003B681B8A13433A68D2891A437B68DA6047
:104460003B6859683B689A683B681B7B7868FFF734
:10447000A9FE3B685B7D002B05D07B689B6843F4FD
:1044800080327B689A603B689B7D1B0703F0E042AB
:104490003B68DB7D1B0503F4E0031A437B689A65E8
:1044A0003B681B7E022B03D03B681B7E032B1CD179
:1044B0002F4A7B682A498B420ED07B6829498B4260
:1044C00008D07B6828498B4201D1022305E04FF0D8
:1044D000FF3302E0012300E000235B01134403F5F6
:1044E000AD530C3302221A601BE0214A7B681C4941
:1044F0008B420ED07B681B498B4208D07B681A49DF
:104500008B4201D1022305E04FF0FF3302E001238B
:1045100000E000235B01134403F516532C33022201
:104520001A603B681B7E012B03D03B681B7E032B6C
:1045300006D17B6803F582531C3304221A6005E020
:104540007B6803F501531C3304221A603B681B7817
:104550001A467B685A6100BF0837BD4680BD00BF60
:104560000080054000C0054000000640F4990100AD
:1045700000C0034080B582B000AF786039607B68CE
:104580003C4A93420CD07B683B4A934208D07B68FC
:104590003A4A934204D04FF44D713948FEF7ADF8D2
:1045A000786800F06FF87B6803F5805304330122CC
:1045B0001A607B689A683B681B8A43F001039BB2D0
:1045C00019463B689B7B002B02D04FF4806300E0D0
:1045D00000230B431A437B689A607B689B683A68A8
:1045E000127D002A02D04FF0005200E000221A4350
:1045F0007B689A603B689B7C002B05D03B68DB7C2A
:1046000019467868FFF7AAFD3B681B7B43F480528C
:104610007B68DA603B6859683B689B681A46786833
:10462000FFF76CFE3B685B7B002B02D07B6810229F
:104630005A613B685B7D002B05D07B689B6843F427
:1046400080327B689A603B689B7D1B0703F0E042E9
:104650003B68DB7D1B0503F4E0031A437B689A6526
:104660003B681B781A467B685A6100BF0837BD4615
:1046700080BD00BF0080054000C00540000006402E
:10468000F499010080B582B000AF78607B682F4A52
:1046900093420CD07B682E4A934208D07B682D4A07
:1046A000934204D040F206412B48FEF726F87B687F
:1046B00003F58053043301221A607B6840F6AA6236
:1046C0005A617B6800229A607B680022DA657B6809
:1046D00041F20502DA607B6800221A617B680022E1
:1046E000DA617B680022DA647B6803F501530833E2
:1046F0001A4A1A607B6800229A657B68134A9342C3
:1047000007D07B68124A934203D07B68114A9342D8
:1047100002D17B6800221A657B680C4A934207D05D
:104720007B680B4A934203D07B680A4A934202D1CA
:104730007B6800225A657B6803F50053043301222D
:104740001A6000BF0837BD4680BD00BF008005402D
:1047500000C0054000000640F4990100FFFF010081
:1047600080B483B000AF786000BF7B689B6903F0C2
:104770008003002BF9D07B685B6ADBB218460C37EC
:10478000BD465DF8047B704780B483B000AF7860AD
:104790000B46FB7000BF7B689B6903F04003002B56
:1047A000F9D0FA787B68DA6300BF0C37BD465DF854
:1047B000047B704780B584B000AF786039607B6857
:1047C000002B02D03B68002B02D16FF00F0328E0D2
:1047D000164BFB6020E0FB685B681946386813F0F5
:1047E0006BFE0346002B14D1FB689A687B681A6045
:1047F000FB68DA687B685A60FB68DA687B689A60F5
:104800007B680022DA60FB681A7C7B681A740023DC
:1048100007E0FB681B68FB60FB68002BDBD16FF0D7
:10482000050318461037BD4680BD00BF80FD0A0055
:1048300080B483B000AF786000BF0C37BD465DF830
:10484000047B704780B483B000AF78607B685A689F
:104850007B689B68D31A18460C37BD465DF8047B0D
:10486000704780B582B000AF41F22C0003F032F9FE
:1048700078607B68002B05D041F22C02002178681B
:1048800013F0F1FB7B6818460837BD4680BD80B544
:1048900082B000AF78607B68002B02D0786802F0AD
:1048A000B3FF00BF0837BD4680BD80B582B000AF02
:1048B0007860D4220021786813F0D5FB7B6805224C
:1048C000A3F8D22000BF0837BD4680BD80B582B0B6
:1048D00000AFD42003F0FEF878607B68002B02D094
:1048E0007868FFF7E2FF7B6818460837BD4680BD51
:1048F00080B582B000AF78607B685B69002B07D021
:104900007B685B691846FFF793FF7B6800225A615A
:104910007B68DB6A002B07D07B68DB6A1846FFF7F1
:10492000B6FF7B680022DA627B681B6A002B07D027
:104930007B681B6A184604F0C7F87B6800221A627D
:1049400000BF0837BD4680BD80B582B000AF78603B
:104950007B68002B05D07868FFF7CAFF786802F003
:1049600053FF00BF0837BD4680BD000080B586B04C
:1049700000AFF860B9607A60FB707B68002B06D1ED
:104980002C4B40F219222C492C4813F01DFC7B685B
:104990001B88FB82FB8A002B01D1002345E0FB68CA
:1049A000B3F86430BB82BA8AFB8A9A4201D2BB8ACE
:1049B000FB82FB685B8E5B00BB82FA8ABB8A9A42F1
:1049C00001D9BB8AFB82FB78FA8AB968F86808F0DB
:1049D000EFFB0346FB7497F91330B3F1FF3F0FD1A0
:1049E000FB68B3F86430002B04D0FB68B3F8663082
:1049F0000F2B02D90123FB8202E0FB8A5B08FB82BA
:104A000097F91330B3F1FF3F02D1FB8A012BDAD8BB
:104A100097F91330002B03D17B68FA8A1A8002E0E1
:104A20007B6800221A8097F9133018461837BD4664
:104A300080BD00BF64020B00DC020B00EC020B0027
:104A400080B586B000AFF860B9601346FB710021F5
:104A5000F86806F045F80021F86806F053F80021E0
:104A6000F86806F091F800220021F86806F0C6F810
:104A70000021F86806F068F8BB68002B02D0B8681F
:104A8000FFF762FFFB79002B04D0F86804F094FE76
:104A900000230FE0F86804F0AFFD0346FB7597F9BB
:104AA0001730002B04D004220449F86806F0A6F859
:104AB00097F9173018461837BD4680BD376000009B
:104AC00080B582B000AF78603960002239687868BC
:104AD000FFF7B6FF034618460837BD4680BD80B5D0
:104AE00082B000AF7860396039687868FFF7E8FF16
:104AF00000BF0837BD4680BD80B586B000AF786086
:104B000039603B68002B03D03B681B78002B01D138
:104B100000234BE03B687B6100233B613FE07B6807
:104B20003A690C32796943F822107B69FB602621CF
:104B3000786913F0B4FC78617B69002B06D07B693F
:104B400000221A707B6901337B610CE02021F86838
:104B500013F0A5FC78617B69002B02D07B690022F1
:104B60001A7000237B613D21F86813F098FCF8600F
:104B7000FB68002B0AD0FB6800221A70FB68591CE6
:104B80007B683A691C3243F8221005E07B683A6979
:104B90001C32002143F822103B6901333B613B6921
:104BA0000F2B02DC7B69002BB9D13B691846183703
:104BB000BD4680BD80B586B000AF78607B68002BB5
:104BC00006D1554B4FF441725449554813F0FCFA45
:104BD0007B68DB6A3B613B69002B06D14E4B40F2A0
:104BE000063250494E4813F0EFFA4F4B1B68002B2A
:104BF0002FD04E4B1B68002B2BD04D4B1B68002B2E
:104C000027D000237B611FE03B6903F11600474B6F
:104C10001A687B699B0013441B68194613F04CFC0F
:104C20000346002B0DD1404B1B683A6902F1270166
:104C30004FF480527869984703461A463B695A8276
:104C400066E07B6901337B61394B1B687A699A4264
:104C5000DADB3B691633184613F040FC024640F697
:104C6000E6739A421BD83B691633184613F036FC9C
:104C70000346112B13D83B691633184613F02EFC4C
:104C8000024640F6E6739A4206D83B691633184648
:104C900013F024FC034603E040F6E77300E0112321
:104CA000FB603B69273312222249184613F0B7F9FB
:104CB0003B6903F139003B691633FA68194613F072
:104CC000AEF9FB68123320333A69134407330722E5
:104CD0001949184613F0A3F9FB6819333A691344CC
:104CE000002283F827203B692733184613F0F6FB90
:104CF000F860FB68B3F5803F06D3074B40F23F32C4
:104D00000E49074813F060FAFB689AB23B695A8271
:104D10001837BD4680BD00BF64020B0014030B00B2
:104D2000EC020B0020030B00940700209C070020DE
:104D3000980700202C030B0040030B0048030B00D6
:104D400080B586B000AF78603960554A7B68C3F89B
:104D5000B4207B680022C3F8B8207B680022C3F827
:104D6000BC203B68002B10D14E4A7B68C3F8B020B2
:104D70004D4A7B68C3F8C0207B680022A3F8D2208C
:104D80007B680022A3F8D02087E04849386813F0F8
:104D9000D4FB0346002B04D0424A7B68C3F8B02002
:104DA0001BE04349386813F0C8FB0346002B04D0CE
:104DB000404A7B68C3F8B0200FE03F49386813F0E1
:104DC000BCFB0346002B04D03C4A7B68C3F8B020F0
:104DD00003E03B4A7B68C3F8B0203F21386813F0FA
:104DE0005EFBB860BB68002B02D0BB6800221A7063
:104DF0000023FB602E21386813F051FB386107E077
:104E00003B690133FB602E21F86813F048FB3861E1
:104E10003B69002BF4D1FB68002B14D000237B618D
:104E20000DE0284A7B6952F83330F968184602F0E1
:104E300077F90346002B09D07B6901337B617B69DD
:104E4000132BEED903E014237B6100E000BFBB68A5
:104E5000002B02D0BB683F221A707B69132B08D845
:104E6000184A7B69DB0013445A687B68C3F8C0208A
:104E70000BE0FB68002B04D17B68134AC3F8C02009
:104E800003E07B68114AC3F8C0207B680022A3F8C6
:104E9000D2207B680022A3F8D0201837BD4680BD01
:104EA000E4FE0A00A8FD0A0024FF0A0058030B00D4
:104EB0005C030B00C8FD0A0060030B00E4FD0A0060
:104EC00094FD0A0074050B00B8000B0064030B008E
:104ED00080B584B000AF78600023FB737B68D3F8A3
:104EE000B830002B06D0274B4FF46E722649274866
:104EF00013F06AF90023FB737B68DB6A002B0CD18B
:104F00007B685B69002B08D07B685B691B7C03F0C6
:104F10000203002B01D00123FB73FB7B002B25D068
:104F20007B6803F1C4007B685B695B681A460C21EF
:104F300002F02AF97B68C433184613F0CFFAB86040
:104F4000BB68092B10D8BB68C0337A68134404339C
:104F500003220F49184613F062F87B6803F1C4027C
:104F60007B68C3F8BC2001E00023FB73FB7B002BB4
:104F700003D0084A7B68C3F8B82000BF1037BD468D
:104F800080BD00BF64020B0084030B00EC020B0029
:104F900098030B0074FE0A0080B588B000AF7860FB
:104FA000396000237B773B68D3F8B830002B02D1FF
:104FB0003868FFF78DFF7B68B3F86430FB83FB8BA9
:104FC000FB818BE03B68B3F8D2301A463B682C3249
:104FD00053F82230184613F081FA03467B837B8B0B
:104FE0003A68B2F8D0209A1AFB8B9342A8BF1346B6
:104FF0009BB2FB813B68B3F8D2301A463B682C3237
:1050000053F822303A68B2F8D02013447B61FB8910
:105010007B8200233B773B68B3F8D230032B03D16C
:105020003B7F43F001033B773B68B3F8D230032B5F
:1050300003D83B7F43F002033B773B7F07F10E022F
:1050400079697868FFF792FC03467B7497F9113011
:10505000002B06D1FB897A8A9A4202D001237B7702
:1050600005E097F91130002B01D00023FB813B684C
:10507000B3F8D020FB8913449AB23B68A3F8D02040
:10508000FB89FA8BD31AFB833B68B3F8D0307A8B59
:105090009A4223D13B68B3F8D23001339AB23B68CD
:1050A000A3F8D22007E03B68B3F8D23001339AB2BC
:1050B0003B68A3F8D2203B68B3F8D230042B09D860
:1050C0003B68B3F8D2301A463B682C3253F8223092
:1050D000002BE8D03B680022A3F8D020FB8B002BEC
:1050E00008D03B68B3F8D230042B03D8FB89002BDF
:1050F0007FF468AF3B68B3F8D230042B0FD93B681C
:105100009B69002B0BD13968786800F019F80346C9
:10511000002B02D002237B7701E003230BE03B68E6
:10512000B3F8D230042B03D93B689B69002B01D123
:10513000022300E07B7F18462037BD4680BD00007B
:1051400080B584B000AF786039603B685B69002B44
:1051500005D139687868FFF7C2FC002316E03B6888
:105160005B691846FFF76EFBF860FB68002B05DCF7
:1051700039687868FFF7B3FC002307E0054B40F27D
:105180009D420549054813F01FF8012318461037C2
:10519000BD4680BD64020B009C030B00EC020B00BB
:1051A00080B584B000AF786039600023FB733B6842
:1051B0005B6A4FF6FE72934203D83B685B6A9BB210
:1051C00001E04FF6FF73BB813B68996907F10C0260
:1051D00000237868FFF7CAFB0346BB7397F90E30CC
:1051E000002B0DD10123FB733B689B69BA891A44DC
:1051F0003B689A613B685B6ABA899A1A3B685A6253
:10520000FB7B18461037BD4680BD000080B586B0D8
:1052100000AF786039600023FB750023BB753B68E5
:10522000DB6A3B613B69002B06D18F4B40F2CB42DE
:105230008E498F4812F0C8FF7B68B3F86430FB8159
:105240003B691A683B689B699A4240F2C6823B6997
:105250001B681A463B689B69D31A4FF6FE7293424D
:1052600007DC3B691B681A463B689B69D31A9BB2F3
:1052700001E04FF6FF73FB813B68996907F10E026D
:1052800000237868FFF772FB0346FB7597F9173028
:10529000002B0DD10123BB753B689B69FA891A4429
:1052A0003B689A613B685B6AFA899A1A3B685A6262
:1052B0007B68B3F86430002B40F08F82BB7DDBE26B
:1052C000FB89002B01D1BB7DD6E23B6903F58153FD
:1052D00008331B78042B00F27F8201A252F823F0DE
:1052E000F552000053530000CD530000215500003B
:1052F0009F56000000237B751DE03B691B681A78F0
:105300007B7D5C4951F833301B789A4210D13B6960
:105310007A7D1A753B6903F58153083301221A70AF
:105320003B6901221A823B691A683B695A6005E0B1
:105330007B7D01337B757B7D012BDED93B69DB688F
:105340005A1E3B69DA603B691B685A1C3B691A604C
:1053500043E23B691B7D1A46464B53F832303A69AB
:10536000128A13441B78002B09D13B6900221A8250
:105370003B6903F58153083302221A702DE23B6921
:105380001B681A783B691B7D19463A4B53F831303C
:105390003969098A0B441B789A4206D13B691B8AFA
:1053A00001339AB23B691A8205E03B6903F58153E8
:1053B000083300221A703B69DB685A1E3B69DA60C9
:1053C0003B691B685A1C3B691A6006E23B691B8AF1
:1053D000002B1ED13B691B681B78202B0ED03B692C
:1053E0001B681B78092B09D03B691B681B780A2BAB
:1053F00004D03B691B681B780D2B0AD13B69DB6825
:105400005A1E3B69DA603B691B685A1C3B691A608B
:10541000E3E13B691B681A783B691B7D1549DB009A
:105420000B445B681B789A4213D03B691B681B785E
:10543000202B0ED03B691B681B78092B09D03B69D8
:105440001B681B780A2B04D03B691B681B780D2B4B
:1054500043D13B691B8A002B0ED13B6903F5815375
:10546000083300221A7050E064020B0020030B0086
:10547000EC020B0050060B003B6903F58153083327
:1054800003221A703B691B8AFF2B06D9964B40F208
:105490003A529649964812F097FE3B691B8ADAB257
:1054A0003B695A753B691B8A1A463B6913440022C3
:1054B0009A753B691B681A783B691B7D8D49DB0037
:1054C0000B445B681B789A4203D13B6901221A8224
:1054D0001BE03B6900221A8217E03B691B8A0F2BF5
:1054E0000DD83B691A683B691B8A591C88B2396917
:1054F0000882194612783B690B449A7505E03B69AE
:1055000003F58153083300221A703B69DB685A1E89
:105510003B69DA603B691B685A1C3B691A605CE1B5
:105520003B691B8A002B1ED13B691B681B78202B13
:105530000ED03B691B681B78092B09D03B691B689F
:105540001B780A2B04D03B691B681B780D2B0AD1F2
:105550003B69DB685A1E3B69DA603B691B685A1C71
:105560003B691A6039E13B691B681A783B691B7D0E
:105570006049DB000B445B683969098A0B441B787E
:105580009A427BD13B69DB685A1E3B69DA603B6912
:105590001B685A1C3B691A603B691B8A01339AB22B
:1055A0003B691A823B691B7D524ADB0013445B68EE
:1055B0003A69128A13441B78002B40F00E81386838
:1055C000FFF7F8FA3B6900221A823B6903F5815321
:1055D000083304221A703B691A683B699A603B6978
:1055E0005A683B691A603B699A683B689B699A42B2
:1055F00040F2F3803B695B681A463B689B69D31AAB
:105600004FF6FE72934207DC3B695B681A463B68C3
:105610009B69D31A9BB201E04FF6FF73FB813B6895
:10562000996907F10E0200237868FFF79FF9034696
:10563000FB7597F91730002B40F0CF800123BB7525
:105640003B695A683B689B699A420AD83B699B68E8
:105650001A463B695B68D31A9AB2FB8913449BB222
:10566000FB813B689B69FA891A443B689A613B68F5
:105670005B6AFA899A1A3B685A62AEE03B69DB685A
:105680005A1E3B69DA603B691B685A1C3B691A6009
:105690003B6903F58153083300221A709DE03B6992
:1056A0009A683B689B699A425FD93B695A683B6834
:1056B0009B699A4206D20C4B40F2AC520E490C4800
:1056C00012F082FD3B695B681A463B689B69D31AFE
:1056D0004FF6FE72934211DC3B695B681A463B68E9
:1056E0009B69D31A9BB20BE064020B00D4030B003E
:1056F000EC020B0050060B00EC030B004FF6FF739F
:10570000FB81FB89002B0AD03B68996907F10E02E7
:1057100000237868FFF72AF90346FB7501E00023B0
:10572000FB7597F91730002B57D10123BB753B69E7
:105730005A683B689B699A420AD83B699B681A463B
:105740003B695B68D31A9AB2FB8913449BB2FB8115
:105750003B689B69FA891A443B689A613B685B6ABB
:10576000FA899A1A3B685A6237E03B691A8A3B69A0
:105770005B8A9A4222D23B695A8A3B691B8AD31AB6
:105780009BB2FB813B691B8A20333A691344D91DC4
:1057900007F10E0201237868FFF7E8F80346FB756E
:1057A00097F91730002B18D10123BB753B691A8A72
:1057B000FB8913449AB23B691A820EE03B690022CE
:1057C0001A823B6903F58153083300221A703B6942
:1057D0009A683B691A6000E000BF3B6903F581539A
:1057E00008331B78042B03D03B69DB68002B04D003
:1057F00097F91730002B3FF463AD3B6903F58153F4
:1058000008331B78042B36D03B691A683B689B69C8
:105810009A4230D93B691B681A463B689B69D31A88
:105820004FF6FE72934207DC3B691B681A463B68E1
:105830009B69D31A9BB201E04FF6FF73FB813B6873
:10584000996907F10E0200237868FFF78FF8034685
:10585000FB7597F91730002B0DD10123BB753B6801
:105860009B69FA891A443B689A613B685B6AFA89CA
:105870009A1A3B685A62BB7D18461837BD4680BDF0
:1058800080B584B000AF786039600023FB733B685B
:10589000002B01D1002348E03B68B3F8D230042B41
:1058A00012D839687868FFF777FB0346FB73FB7BF8
:1058B000032B07D0FB7B012B06D03B68B3F8D2301B
:1058C000042B01D8FB7B30E03B685B6A002B08D1DE
:1058D00039687868FFF734FC0346002B01D10023B8
:1058E00023E03B68DB6A002B06D039687868FFF755
:1058F0008DFC0346FB7305E039687868FFF750FCC0
:105900000346FB733B685B6A002B0DD13B685B6908
:105910001846FEF797FF0346002B05DC39687868C8
:10592000FFF7DDF8002300E0FB7B18461037BD468B
:1059300080BD000080B584B000AF786039603B68FE
:105940001C4A1A607A683B681B6819461046FEF7C5
:1059500031FF0346FB7397F90F30002B24D03B68CF
:10596000154A1A607A683B681B6819461046FEF7AC
:1059700021FF0346FB7397F90F30002B14D03B68CF
:105980000E4A1A607A683B681B6819461046FEF793
:1059900011FF0346FB7397F90F30002B04D03B68CF
:1059A00000221A60002300E07B6818461037BD46CD
:1059B00080BD00BF04040B0010040B001C040B008E
:1059C00080B58EB000AFF860B9607A60FB687B622A
:1059D0007B6A002B06D1654B40F2AE726449654884
:1059E00012F0F2FBBB68002B06D1604B40F2AF72A5
:1059F0006149604812F0E8FBBB685B69002B03D18A
:105A0000BB689B69002B02D06FF00703AAE0BB685C
:105A10001B6A002B03D1BB687A6A1A6205E0BB6877
:105A20001B6A796A184603F011F9786A03F0ECF8FA
:105A3000BB681B6A1B68002B12D0BB681B6A1B89E2
:105A400040F2FF32934228BF13467B86BB68186A38
:105A50007A8E0023494903F031FA484B7B6305E015
:105A60007B6A5B687B637B6A5B897B867B8E062BAC
:105A700063D97B8E1A464249786B01F01BFB386272
:105A80003B6A002B59D00023FB6204223D49786B0E
:105A900012F02CFD0346002B17D17B6B0333FB6107
:105AA000FB6901331A467B6BD31A9BB27A8ED31AE9
:105AB0007B83FB6901337A8B3349184601F0FAFA8C
:105AC000B862BB6A002B11D106E07B6B0433002265
:105AD0001A706FF00F0345E0FB6901337A8B284998
