:10000000000008206D1003009910030099100300F0
:100010009910030099100300991003009910030030
:100020009910030099100300991003009910030020
:100030009910030098100300FF17000099100300A7
:100040009910030099100300FDE30200650C000005
:1000500099100300991003009910030099100300F0
:1000600099100300991003009910030099100300E0
:1000700099100300B90C00009910030099100300B7
:1000800099100300991003009910030099100300C0
:1000900099100300991003009910030099100300B0
:1000A00099100300991003009910030099100300A0
:1000B0009910030099100300991003001517000010
:1000C0009910030099100300991003009910030080
:1000D000991003009910030099100300890E030082
:1000E0009910030099100300991003009910030060
:1000F0009910030099100300991003009910030050
:10010000991003009910030099100300991003003F
:10011000991003009910030099100300991003002F
:1001200099100300991003007983000099100300CF
:10013000991003009910030099100300991003000F
:1001400099100300991003009910030099100300FF
:1001500010B5054C237833B9044B13B10448AFF301
:1001600000800123237010BDA004002000000000C7
:10017000987C090008B5034B1BB103490348AFF352
:10018000008008BD00000000A4040020987C090045
:10019000154B002B08BF134B9D46A3F5803A002159
:1001A0008B460F461348144A121A3EF000FC0F4BC0
:1001B000002B00D098470E4B002B00D09847002012
:1001C000002104000D000D48002802D00C48AFF3B8
:1001D00000803EF061FB2000290000F0E7FC3EF0CB
:1001E00047FB00BF000008000000082000000000DE
:1001F00000000000A00400204428022000000000AD
:100200000000000030B585B000238AB243650D467A
:100210006B461449044603F081FC9DF80030D3B9C5
:100220006B462A46104904F1300003F061FE9DF848
:1002300000302BB10D4B0E490E4833223EF076FCB8
:100240000D4AB2F8FC3001210B4400206165A2F890
:10025000FC3005B030BD054B0849064831223EF060
:1002600065FCDDE7780A0400D80A0400800A04006F
:10027000E40A0400B00A0400201A0220A40A0400C0
:1002800070B586B002AD00231A4604460E463030E3
:100290001946009503F058FF9DF808308BB90023EC
:1002A0001A4600953146204603F09CFD9DF8083023
:1002B0002BB1074B0749084856223EF037FC06B0E1
:1002C00070BD034B0549044853223EF02FFCE6E77E
:1002D000800A0400FC0A0400B00A0400F00A0400CA
:1002E000F0B587B002AE002305460F4630300096C9
:1002F00019464FF4004203F027FF9DF80840A4B9C7
:100300002846009639462346224603F06BFD9DF8A9
:10031000080008B907B0F0BD084B09490948652233
:100320003EF004FC204607B0F0BD074AB2F80031A9
:100330000133A2F800314FF0FF30EBE7800A0400F0
:10034000FC0A0400B00A0400201A02202DE9F04142
:100350008CB0054608A81746884604F051FE04AE46
:10036000002239460446CDE9002628460DF10E0349
:1003700003F04AFC9DF8101089B90746324605F192
:10038000300003F0B7FFB8F1000F01D0C8F80070DB
:1003900008A804F035FE001B0CB0BDE8F0814FF05A
:1003A000FF300CB0BDE8F081406D704730B585B0CE
:1003B0000A466B461049044603F09AFD9DF800007A
:1003C0000E4A78B9B2F8F030B2F8F21001339BB2AD
:1003D000012599426562A2F8F03038BFA2F8F230E8
:1003E00005B030BDB2F8F4300021013361624FF046
:1003F000FF30A2F8F430F3E7100B0400201A0220BB
:1004000070B58AB0054606A80E4604F0F9FD002333
:1004100002AA009204461A463146284603F094FE8A
:100420009DF808302BB906A804F0EAFD001B0AB0BD
:1004300070BD4FF0FF300AB070BD00BF10B584B082
:10044000054CB4F8F0306A46013B0121A4F8F030C5
:1004500003F0A8FD04B010BD201A022010B584B02E
:10046000094B0A490A4800246A461C7002F066FFDC
:100470009DF8003033B1074B0749084840F243125A
:100480003EF054FB04B010BDBC040020580A040028
:10049000BCE00020800A0400680A0400B00A0400DE
:1004A00030B585B06A461149044602F047FF9DF811
:1004B00000000F4A78B9B2F8F630B2F8F8100133FC
:1004C0009BB201259942E562A2F8F63038BFA2F846
:1004D000F83005B030BDB2F8FA3000210133E162E6
:1004E0004FF0FF30A2F8FA30F3E700BF040B04002E
:1004F000201A022000B587B002AA002300921946F4
:100500001A4603F081F807B05DF804FB00B585B02A
:100510006A46002103F07CF905B05DF804FB00BFDA
:100520002DE9F0418EB0224D2B78012B06460F4667
:10053000904607D91F4B204920484FF4D1723EF016
:10054000F5FA2B781E4ADFF880E0013331460AAE17
:10055000DCB208960026631ECDE9056642F6E06C23
:1005600040F6B8360CFB032C03963A46149ECDF8A1
:1005700004C00B270797142703EB43000497F6B238
:100580004FF4967743460EEB8010029700962C703E
:1005900004F07AF99DF8283033B1064B0949074831
:1005A00040F2B3123EF0C2FA28780EB0BDE8F081F6
:1005B000BC040020800A04001C0B0400B00A0400E4
:1005C000FC820020440B0400E8E0002000B587B066
:1005D00002AA0023009219461A46034803F014F8B1
:1005E000012007B05DF804FBBCE0002000B585B039
:1005F0006A460021024803F00BF905B05DF804FBE0
:10060000BCE0002000B585B0684604F0F9FC05B0F8
:100610005DF804FB2DE9F04F87B004463D4DDFF84F
:1006200024B1DFF824A1DFF824913B4E3B4F4FF07B
:10063000040810E0052B65D0012B09D10021C4E985
:100640000111E1603A46204629F0CAFF02232B70CF
:10065000FA2007F05DFC2B78DBB2022BEAD12046B2
:100660001EF04EFC0323002852D1636A9B79042BB1
:10067000EED902463146204685F8008029F0B0FFC9
:10068000274A9AF800301078264A01931178264AB2
:10069000264B127893F800C0019B9BF800E0000401
:1006A00040EA0260224A12780192224A1B0409049D
:1006B00041EA0C6143EA0E6392F800C099F800E049
:1006C0001D4A43EA0E0341EA0C0C92F800E01B4974
:1006D000019A024308781A49097843EA0E2342EA4C
:1006E00000204CEA012C00BA19BA9CFA8CFC039148
:1006F000049005AB04AA03A92046CDF814C022F04B
:10070000F1FDA5E700223146204629F069FF0023CC
:100710002B709DE7BD04002041EC0100DDE60100E7
:10072000E600002009240020E50000200824002025
:100730000D2400200B2400200C240020E7000020C2
:100740000A240020E2000020E3000020E400002052
:10075000034B10B905221A70704701221A707047B6
:10076000BD04002030B58FB00AAA0E4908920023BC
:100770003320162202254FF40074CDE90021CDE983
:100780000635CDE90433CDE90204074B074A084991
:10079000084804F079F89DF8283003B1FEE70FB05F
:1007A00030BD00BFC00400208CE50020150600000D
:1007B0005C0B0400C00C00202DE9F04188B00F460E
:1007C000002304AE1A46194680460096234802F0DC
:1007D0001BFF3B89002218334A2103A830F0C6FAD8
:1007E000002833D1039D002D30D018353C46628956
:1007F000616828463EF0B7F8638924681D44002CE0
:10080000F5D1022208F1320047F274313EF09CF833
:10081000134D039C2B683A89A260003018BF012059
:1008200020718BB16B681C603346002202210D4899
:100830006C6002F0CDFB09483246002102F0E8FF6F
:10084000002008B0BDE8F0812C60EDE70348324697
:10085000002102F0DDFF4FF0FF30F2E70C2802200C
:1008600038280220C42702202DE9F047C478184A0E
:10087000184BC18890F8058014F0060F0CBF914604
:100880009946E9B107464FF4C172002022F0A0FF5B
:100890008246A8B108F10808044600256689606808
:1008A00008EB0501324639443EF05DF824683544D2
:1008B000002CF3D1D9F8103049465046984708B972
:1008C000BDE8F0875046BDE8F04722F00DBF00BFFD
:1008D0008CE5002054E5002070B5044660B304F1B7
:1008E0003206022247F2743130463EF03CF80625CB
:1008F000154B164A6261A3610222304684F83050DB
:1009000047F274313EF020F804F12A032A4670B110
:1009100018460F493EF027F894F8313043F00E03A3
:1009200040F2DC5284F831302285002070BD184638
:1009300008493EF018F8EFE7074B08490848DA2263
:100940003EF0F4F8CBE700BFB9070000150D020038
:1009500084E400207EE40020680B0400840B040083
:10096000B00A040070B5044660B304F132060222F6
:1009700046F2701130463DF0F6FF0625154B164A3B
:100980006261A3610222304684F8305047F274312C
:100990003DF0DAFF04F12A032A4670B118460F49E8
:1009A0003DF0E1FF94F8313043F00E0340F2DC52A9
:1009B00084F831302285002070BD184608493DF08A
:1009C000D2FFEFE7074B08490848F2223EF0AEF8A5
:1009D000CBE700BFB9070000150D020084E400203A
:1009E0007EE40020680B0400840B0400B00A0400BD
:1009F00000B585B06A46002102F00AFF9DF800307C
:100A00001BB9002005B05DF804FB8321044829F0E0
:100A100059FF9DF80030002BF3D06FF01D00F1E777
:100A2000940B040000B587B002AA00230092194677
:100A30001A4602F0E9FD9DF808301BB9002007B006
:100A40005DF804FB6221054829F03CFF9DF8083061
:100A5000002BF3D06FF01D00F1E700BF940B0400F2
:100A600000B585B06A46012102F0BEFC9DF8003059
:100A70001BB15021024829F025FF05B05DF804FBA9
:100A8000940B040000B585B06A46064902F056FC96
:100A90009DF800301BB14421034829F013FF05B035
:100AA0005DF804FB180C0400940B040030B587B00B
:100AB00002A831F02BFF9DF8084004B1FEE70121A8
:100AC00036482AF071F9012134482AF06DF923469D
:100AD0000122082102202CF089FF2346012209214E
:100AE00002202CF083FF0125082211462346022014
:100AF000CDE900552CF0FAFE0922114623460220CA
:100B0000CDE900552CF0F2FE0422114623460220C6
:100B10002CF06CFF234604220C2120462CF066FFAB
:100B20002A46294620462BF0F5FD1D4B08224FF49E
:100B30000051C3F880110DEB02001960C3F8802149
:100B40001A6007F005FA9DF808300BB104F080FA3E
:100B5000144835F08BF908B104F07AFA02A807F0CE
:100B600025FA9DF808300BB104F072FA07F03AFB51
:100B700030F03EFB0122114600230B483DF0D6FF2A
:100B80003BF0B0FC3BF0B4FD3BF042FE00F09AFAC3
:100B900002A9002004F0E4F807B030BD00550A00B7
:100BA00000E100E0D4000020400C0400F0B58FB05C
:100BB00021482BF06BFB07F0CBFA04F041FA30F040
:100BC00095F9012030F08AF91C483DF0AFFF0AADDD
:100BD0001B483DF0ABFF284600F0F4FF9DF828408D
:100BE00004B1FEE7174B184A184919481BF062FF79
:100BF0001849089533201E2202274FF40076CDE9CC
:100C000000212346CDE90206CDE905440494079767
:100C1000114A1249124803F037FE9DF8283003B1FB
:100C2000FEE7284601F0C6F99DF8283003B1FEE73B
:100C300001200FB0F0BD00BF00A24A04200C040048
:100C4000240C0400F1090000250A0000610A0000DC
:100C5000850A0000000E0020AD0A00002C0C0400E4
:100C60000016002010B584B0114BD3F81C44C3F813
:100C70002444610508D50F4803F1A27303F54543E9
:100C8000026853339A420CD0E20506D4A30502D57C
:100C9000012000F0A3F904B010BD002000F09EF97F
:100CA000F4E76A464FF4007103F024FBECE700BF61
:100CB00000800840801B022010B584B0114BD3F88F
:100CC0001C44C3F82444610508D50F4803F1A273FE
:100CD00003F54543026853339A420CD0E20506D42B
:100CE000A30502D5012000F079F904B010BD002061
:100CF00000F074F9F4E76A464FF4007103F0FAFA71
:100D0000ECE700BF00800840801B0220F0B58FB0E8
:100D10000021084629F094FDFFF724FD824B1B6853
:100D2000002B67D000230593079309937F4A804BDC
:100D3000804C814812781B78804924780078804D57
:100D400009782D787F4F804EDFF888C23F7836785B
:100D50009CF800C012041B0442EA046243EA0063E8
:100D60007A4C7B48090441EA056125780478794882
:100D700039430078324343EA0C0341EA0521764DBA
:100D800043EA002342EA042209BA12BA1BBA2846EF
:100D9000069108920A932FF061FC072806461AD0A4
:100DA00010D940F6013398421FD040F602339842E2
:100DB00016D16A483DF0BAFE0AAC2146002003F085
:100DC000CFFFFAE7002849D0012809D164483DF057
:100DD000ADFE0AACF1E763483DF0A8FE0AACECE7D3
:100DE00061483DF0A3FE0AACE7E760483DF09EFE97
:100DF0000AACE2E75E4A5F4B5F4C6048604912789C
:100E00001B78247800785F4D09782D785E4F5F4E0F
:100E1000DFF8C4C13F7836789CF800C012041B0488
:100E200042EA046243EA0063594C5A48090441EA21
:100E3000056125780478584800783943324343EAFD
:100E40000C0341EA052142EA042243EA002309BADD
:100E500012BA1BBA05910792099367E74F4F504B9F
:100E600000900124CDE9013707AA09AB05A985F84F
:100E700022424C4822F0FCF80AAC4B4A019223462D
:100E800008AA06A902970096484822F0F1F84548BA
:100E900022F090FA37F0DAFCA0B936F097FAC8B928
:100EA000284637F003F8F0B935F080FF18BB284624
:100EB0003F4936F051FB40BB36F000FC00283FF4C0
:100EC0007CAF2AE03B4B3C493C48AB223DF02EFE38
:100ED00036F07CFA374B3A493848AF223DF026FECF
:100EE0001D4836F0E3FF334B36493448B3223DF01A
:100EF0001DFE35F05BFF34492E4B3048B7223DF0E4
:100F000015FE2B49144836F027FB2A4B2F492B4856
:100F1000BB223DF00BFE36F0D1FB264B2C49274877
:100F2000C0223DF003FE48E7E8000020E00000207A
:100F3000C1160020DF000020C0160020DD000020C8
:100F4000DC000020DE000020C5160020C4160020B2
:100F5000E1000020C216002068E20020A00C04007E
:100F6000040D0400D40C0400240D0400700C0400D3
:100F7000E600002009240020E500002008240020CD
:100F8000E3000020E2000020E40000200D24002007
:100F90000C240020E70000200A240020D9A602002B
:100FA000D90800008CE500206509000054E5002008
:100FB000C81B02204C0D0400640D0400B00A04009C
:100FC0007C0D0400940D0400A80D0400BC0D040069
:100FD000DC0D0400C31600200B240020012800D9DA
:100FE000704730F039B900BF08B5002208490948F8
:100FF00029F0F6FA00220849064829F0F1FA074BD1
:101000001B6803B908BD0120BDE80840FFF7A0BB7D
:10101000C13302008CE5002051340200E8000020BA
:1010200008B5094B1B6813B10020FFF791FB0022A4
:101030000649074829F0D4FA002206490448BDE8C9
:10104000084029F0CDBA00BFE8000020B534020006
:101050008CE500201934020008B50022084909482F
:1010600029F0BEFA00220849064829F0B9FA074BD0
:101070001B6803B908BDBDE8084038F0FDBC00BFDF
:10108000C133020054E5002051340200EC0000207E
:1010900008B5084B1B680BB138F0FCFC0022064970
:1010A000064829F09DFA002205490448BDE8084099
:1010B00029F096BAEC000020B534020054E5002077
:1010C0001934020030B58FB00AAA0D4908920023E6
:1010D0005020172202254FF44874CDE90021CDE9B4
:1010E0000204CDE906350748074A0849CDE904332B
:1010F00003F0CAFB9DF8280000B1FEE70FB030BD39
:10110000C8160020482300200D0D0000640C0400C8
:10111000F8B5124D2BF0B4FF2C780646CCB9104927
:10112000104A114B0C6014601C8000F05BFA012027
:1011300000F0CAFA00F008FB0C4B0D4F1860024695
:1011400023460C4840F2E7313DF0FEF901233860B8
:101150002B7030462BF098FF0020F8BD0E240020A5
:101160002024002010240020182400201C2400200B
:101170001424002018FCFFFF2DE9F84F9DF828905B
:10118000BDF82C8060B3424E1F460D469246044681
:101190002BF076FF336823B19C421CD09B68002B58
:1011A000FAD14FF0000B2BF06FFF84F8049027600A
:1011B000C4F80CA0A4F80680C4F808B0C4F810B0B5
:1011C0008DB96561BAF1000F3BD020463946D04752
:1011D0002846BDE8F88F2BF057FF0320BDE8F88FB5
:1011E0002220BDE8F88F2BF04BFF074600F03CFAB9
:1011F000D6F800C0DFF89CE0BCF1000F2AD0DEF882
:101200000030DCF81420C31A93421DD9801ACEF89E
:101210000000CCF814B065616346002000E00B4686
:101220005A69AA4200D922BB9968AD1A656118466D
:101230000029F4D19C60A160644524D038462BF08D
:1012400023FF0020BDE8F88FD31ACCF81430CEF875
:101250000000E0E765613460C4F808C0CEF8000023
:1012600003461D44022000F02FFA284600F002FA3F
:10127000E4E720B18460A360521B5A61DCE734606C
:10128000A360A446F8E76569DEF80030E9E700BF2F
:101290002024002010240020002842D0F8B5044665
:1012A0002BF0EEFE064600F0DFF905462748016800
:1012B000002938D0264F4A693B68EB1A934213D96C
:1012C000AD1A00233D604B618C4218BF0A4603D122
:1012D00036E09C420CD01A469368002BF9D1304678
:1012E0002BF0D2FE0220F8BDD31A4B613D60EBE734
:1012F000A3689360A3687BB10A465869676938445C
:1013000058618C4216D1BAB1536902201D4400F0D5
:10131000DBF9284600F0AEF930462BF0B5FE002090
:10132000F8BD222070470A4B30461D602BF0ACFE02
:101330000220D8E7002AEFD1022000F0D3F9EBE732
:10134000A2680260002ADCD01346D6E720240020E1
:101350001024002098B391B32DE9F0410E460546C4
:101360002BF08EFE074600F07FF9224B1B6843B33B
:10137000DFF884805969D8F80020821A8A422AD876
:101380008A1A5A61C8F800006C6934609D4201D124
:1013900006E0D3B15A699B6814449D423460F8D189
:1013A00000F062F9D8F80030C01AA04219D3002327
:1013B000336038462BF068FE0020BDE8F081222023
:1013C00070470D4B6A693260186038462BF05CFE3E
:1013D0000320BDE8F081401A0022C8F800005A61DD
:1013E000D2E700F041F9D8F800203368801A1B1AC0
:1013F0003360DEE7202400201024002038B52BF0D5
:101400003FFE054600F030F9044628462BF03CFE2E
:10141000204638BD014B1868704700BF1C240020CF
:101420002DE9F84FC207044600F19980A30701D4C3
:10143000BDE8F88FDFF8A881674F00F015F9D8F8FC
:1014400000500646451B2BF01BFE3C688246002CD4
:1014500000F0AB8062699542C0F0B8804FF000099F
:10146000C8F800602346294600E05A698A4209D834
:10147000187994F804C0844588BF1C469B68891A73
:10148000002BF2D150462BF0FFFDD4F814A0C4F885
:1014900014902BF0F5FD3A6842B1A24203D17AE0F4
:1014A000A3422DD01A469368002BF9D12BF0ECFD06
:1014B0002369002B32D1E36813B121682046984795
:1014C00000F0D2F85644AD1B834605442BF0D8FDFE
:1014D0003C688246002C68D06269AA425E46BFD949
:1014E000551B656102205D44C8F800B000F0ECF8BF
:1014F000284600F0BFF85046BDE8F84F2BF0C4BDB9
:10150000A3689360A1680029D0D04B696269134435
:101510004B612BF0B9FD2369002BCCD02BF0B0FD33
:101520003B68226962618646002B37D04FF0000C81
:1015300000E003465969914201D900293DD19868DC
:10154000521A62619C460028F3D19C60A06010B1E1
:1015500043699A1A426170462BF096FDABE71F4A29
:10156000138801339BB2138000F07EF81A4B1A687F
:101570004AB31B4953690D68451B9D4211D9C01AD6
:10158000002308605361C518022000F09DF828462A
:1015900000F070F84AE7A1683960B4E73C60A360E6
:1015A000D9E75B1B53610860EDE7022000F09AF871
:1015B0005046BDE8F84F2BF067BDBCF1000F07D1D6
:1015C0003C601846C2E7064B18602FE7B34687E732
:1015D00018466346B9E700BF2024002018240020E5
:1015E0001024002010B586B01B4B93E8070003AC15
:1015F0000C3303C493E803000B0C0190ADF8081002
:101600001648228001218DF80A30002429F0CCFBF5
:1016100003A88DF80C408DF810402CF0C9FB06A9EA
:10162000012001F8144D2CF08FFB0D4A536A23F46E
:10163000FF6323F0070340F2FF7153620120116240
:1016400094602CF0AFFB074B4FF00042C3F88021B1
:101650001A6006B010BD00BFF80D0400A009140008
:101660000020064000E100E0014B9868704700BF91
:1016700000200640124B9A68596D9B695B0702D4A3
:101680008B1A022B18D9831A012B98BF901C0C4B74
:10169000B0F1FF3F28BF013058655A6A42F004029A
:1016A0005A62084B1A7832B105490A6D002042F09F
:1016B00002020A65187070479142F2D1E3E700BF59
:1016C00000200640F00000208207054A00F00103D8
:1016D000516A48BF43F004030B435362704700BF95
:1016E00000200640830700F0010209D5074B084996
:1016F000012018700B6D23F0030342F004020B6508
:1017000003494B6A23EA02034B627047F000002052
:101710000020064010B52BF0B3FC0A4B9B695A071A
:10172000084A044603F0010003F0070348BF40F0F5
:1017300002001362FFF774FE2046BDE810402BF054
:10174000A3BC00BF0020064001482AF055BB00BFE3
:10175000A0091400B0FA80F0704790FAA0F0B0FA37
:1017600080F0704790FAA0F0704700BF72B64EF656
:101770002250CEF2000040F2FF01C0F200010170E1
:10178000002080F309884EF2F850C2F20000016890
:1017900081F3088800F014F94EF64410C2F20000FC
:1017A0004EF63811C2F200010A7802704EF6481067
:1017B000C2F200004EF65011C2F200010A68026047
:1017C000106880F30988EFF3148040F0020020F0E5
:1017D000040080F31488BFF36F8FBDE8F04F0FBC97
:1017E000BDE8005006BC62B6084732484FF0805151
:1017F000016070472F484FF080510160704772B60A
:101800004EF64812C2F20002116800290ED0EFF322
:1018100009801EF0100F08BF20ED108A20E9F04F5C
:101820004EF64815C2F2000529680860744600F0BB
:10183000C7F84EF64811C2F200014EF65010C2F23F
:10184000000003680B604EF64412C2F200024EF62E
:101850003811C2F200010878107044F0040E002B19
:101860000AD01868B0E8F04F1EF0100F08BFB0ECB7
:10187000108A80F309881BE04EF2F851C2F2000191
:101880000868A0F11C0080F3088840F20001C0F253
:101890000011C16141F6B901C0F20001816144F655
:1018A000BD51C0F2000141614FF6F97ECFF6FF7ED7
:1018B00062B6704704ED00E008B5AFF3008000BFEA
:1018C000FDE700BF0A4A0B4B12681B680A480B4928
:1018D00002F18042013A03EB820323F00703036025
:1018E0000B6803F04043B3F1404F00D0FEE7704770
:1018F0002C24002028240020F8E5002034EF00E00C
:10190000024B1B6803B11847704700BF40E9002035
:10191000024B1B6803B11847704700BF58E900200D
:10192000024B1B6803B11847704700BF2CE600202C
:10193000F0B4049C214E02EB840222F007024FF027
:10194000123542F8080C42F81C3C42F8201C4FF0BB
:1019500003304FF002316FF00203144642F8105C7E
:1019600042F8140C4FF011354FF0103042F8181CAB
:1019700042F8243C4FF009314FF008334FF08077A4
:1019800042F8285C42F82C0C4FF007354FF0063037
:1019900042F8301C42F8343C4FF005314FF004332C
:1019A00042E90F0542F8047C42F80C6C42F8401CF6
:1019B00044F8443D2046F0BC704700BFBD4D0000D8
:1019C0000F4B1B7863B110B50E4C2068C36E5BB132
:1019D00000F052FF0C4B1B687BB1BDE8104018476C
:1019E000094B1B6853B1184700F064FF206800F0F2
:1019F00043FF054B1B68002BEFD110BD704700BFA4
:101A000092E9002050E9002080E90020704700BFE3
:101A10002DE9F04182B02BF033FB3E4C0546277890
:101A200002F03AF84028207051D000EB4000DFF877
:101A30000081394E58F820303360402F51D0374B59
:101A40001B78B3B93368364A12689A424CD0354A8B
:101A500021781368402903F1010313603ED0FFF79A
:101A6000C4FE28462BF010FBBFF36F8F02B0BDE819
:101A7000F0812D4F3B68DB6E002BE3D001A92B4892
:101A8000FFF768FC002835D03B68D96E0029D9D112
:101A900093F8333003EB43039B0008EB030758F83C
:101AA0000320786882420BD0D2F810C0604528D05D
:101AB000CCF81410C2E90410026148F803C07A603F
:101AC000237803EB430358F823303360BBE7154A10
:101AD000114913680020013313600860AFF30080E0
:101AE000BDE7AFF30080AAE728462BF0CDFA02B09D
:101AF000BDE8F0813B68019ADA660C48FFF7CCFB41
:101B0000C2E7C2E90410C0E9042148F803007A6082
:101B1000D6E700BF38E9002050E9002092E9002014
:101B200048E900205CE900201CE6002004E60020D3
:101B300034E60020F8B51E4B1B78012B00D0F8BD11
:101B40000E462BF09DFA1B4B1B4C1B680025F566BF
:101B500093F8337007EB4701890004EB010C6358DD
:101B6000DCF80420934209D01E69B24215D0756199
:101B7000C3E9045213616650CCF804302BF084FAA8
:101B80000E4B1B78012B00D0FEE70D4B1B78002B72
:101B9000D5D1BDE8F840FFF73BBF0C2101FB07F1B1
:101BA0006618C3E90452C2E9043562507360E5E780
:101BB00092E900201CE6002034E6002031E60020F7
:101BC00028E60020F8B50446002800F0D080734DC8
:101BD0006B6883B128689A00002800F0CB807049B8
:101BE0000860704E704F31683860704F70483B60CD
:101BF0001144316002602A89DAB102EB420292009C
:101C00002346296B6B4804F065F96B4A2378106012
:101C1000002B40F09E802B896249684E0A68338011
:101C2000674F684E03EB43039B003B6013440B601C
:101C30003060654E6B6B3360FFF744FEFFF768FA68
:101C4000002840F08A803168B1F57A7F40F28280C6
:101C50004FF47A734FF0FF32B2FBF1F203FB02F361
:101C60005A4A1360FFF7D6FB336859494FF0FF32E9
:101C7000B2FBF0F203FB02F30B60FFF7CBFB336820
:101C8000984209D209225349227040F2BB12C4E99A
:101C90000112514BE360FEE7504A51485149524FFF
:101CA000524E534D00231360524A036020460B707E
:101CB00013703B7033702B7003F09AF84E49237801
:101CC0000A22B0FBF2F20A60002B42D1374A1268B6
:101CD00032B13549096819B1013A41F8043BFBD1E9
:101CE000464A474B47484849484F494E00251560EA
:101CF0001D703D60356005600D6001F0C5FE454B0F
:101D000003F540721D81C3E900550C339A42F9D1A5
:101D10002A4B4149414A1B880D601580002B36D162
:101D20003F484049404A414F414E424D00230360E5
:101D300020463B6033802B800B60138002F050FD07
:101D4000237833B900F0EAFDFFF760FE3A4B012239
:101D50001A70F8BD4FF0FF3382E701221D491E4B78
:101D6000227040F2AF12C4E90112E360F8BD03F043
:101D70006FF92CE72346296B304804F0ABF8084A8A
:101D800023781060002BE4D16B689A0029E7204685
:101D900001F0D4F92378002BC2D0F8BDF400002064
:101DA00000E6002024240020282400202C240020E9
:101DB00030240020240E0400FCE5002038240020FC
:101DC0003C2400203424002040240020442400200F
:101DD00048240020380E0400C40E040048E9002006
:101DE00050E9002038E9002031E6002028E60020F4
:101DF00044E9002092E9002078E9002080E90020F1
:101E000030E600202CE6002084E9002040E9002094
:101E100058E9002034E600208CE9002088E9002001
:101E200070E900203CE9002074E9002094E90020DA
:101E300090E900204CE9002034E90020100E040055
:101E4000704700BF704700BF054B1B78012B00D0C7
:101E5000FEE7044B1B7803B17047FFF7D9BD00BF05
:101E600031E6002028E6002070B50446D8B12BF0FA
:101E70000FF9064648B120221B49227040F20B326E
:101E8000C4E90112194BE360FEE7194B1B78012BE3
:101E90000CD002221449227040F20E32C4E9011221
:101EA000124BE360FEE703F0D3F8E0E7114D2B7827
:101EB000F92B09D91E220C49227040F21132C4E9D3
:101EC00001120A4BE36070BD2BF0DAF82B78013376
:101ED0002B702BF0D9F80449044B26704FF447724D
:101EE000C4E90112E360EEE7380E0400CC0E0400F2
:101EF00031E6002028E6002070B50446D0B12BF072
:101F0000C7F848B12022274922704FF44D72C4E926
:101F10000112254BE360FEE7244E3378012B0CD0F1
:101F200002222049227040F23732C4E901121E4BCE
:101F3000E360FEE703F08CF8E1E71D4D2B784BB929
:101F40001F221849227040F23A32C4E90112164B9E
:101F5000E36070BD2BF094F82B78013BDBB22B7063
:101F60002BB92BF091F83378012B0CD0FEE72BF036
:101F70008BF82D220B490C4B227040F24232C4E9FF
:101F80000112E360E5E72B780BB9FFF741FD002272
:101F90000449054B22704FF45372C4E90112E36007
:101FA000D7E700BF380E0400D80E040031E6002049
:101FB00028E60020F8B50446D0B1204B1E78012E4B
:101FC00009D013221E49227040F2DE32C4E9011208
:101FD0001C4BE360FEE71C4B1B8863B909221849C0
:101FE000227040F2E932C4E90112164BE360FEE7C9
:101FF00003F02EF8E1E7154D2B784BB11F22104965
:1020000022704FF47B72C4E901120E4BE360FEE7CD
:1020100001F042FD0C2303FB00F30D4A0D4FD35892
:102020000D4C0E490E4A2E70387020700B601360F4
:10203000FFF79CFBBDE8F84003F00AB834E9002044
:10204000380E0400E80E040060E9002031E60020AC
:1020500034E6002038E9002044E9002050E900205F
:1020600048E900202DE9F04C83B0614B614E93F8B4
:1020700000C03468002384F830100546174684F801
:102080003130BCF1000F3BD1002F42D1616994F88F
:102090003300022384F83230236900295ED0564A87
:1020A00000EB400002EB80000289013A02810B61E3
:1020B000002B00F08680596100233268C4E90433A4
:1020C000002D60D0AC68D562002C72D02B8A92F8BB
:1020D000330001332B82234693F8331081425DD8BD
:1020E0005B6A002BF8D1E968C2E909314A62EA600B
:1020F000E3686968C2F8BC10EB6103B0BDE8F08C1E
:102100003E4A3F481268D366FFF7C6F83468002F8E
:10211000BCD0FFF77FF93B4B1A68002312F1FF3A5E
:1021200043F1FF3BE0FB07AB504659463CF00CFA4D
:1021300000230146CDE90033334A234604F1500021
:10214000FFF71AF808B102F083FF616994F83300D1
:10215000032384F8323023690029A0D1002B3CD01E
:10216000254F00EB4000800007EB000CBCF8082076
:10217000013AACF8082059613B5000233268C4E9A9
:102180000433002D9ED192F83030D562022B20D03E
:10219000072B0AD11D4BC2F8BC30AEE7996A91B14A
:1021A000C2E909314A629A62A2E7194BC2F8BC300F
:1021B000A3E701232B82C2E90944C5E902221446A0
:1021C00096E7416078E7C2E9093114469A62AA604D
:1021D0008EE7104BC2F8BC308FE7074F00EB400290
:1021E0009200B918BB500B814B6001F07DFC63E796
:1021F00092E9002048E9002034E600201CE6002097
:1022000004E60020402400207D260000B40E0400D7
:10221000C00E0400AC0E040090F83210072901D95A
:1022200002F016BFF8B501238B4013F033064FD1EF
:10223000154613F0C00204464BD113F00C0F03D126
:10224000BDE8F84002F004BFC36A0267A0F874203A
:10225000A3B19A68526A002A7DD0D0E90902002A07
:1022600000F085805062002800F084808262188A25
:10227000002201381882C4E90922E262032906D14A
:1022800004F15000FFF708F808B102F0E1FE94F8FD
:10229000330001F011FC3C4A94F8333012789A4232
:1022A00039D003EB43039B00384AD158D01800299A
:1022B00054D00689002701360681C4E904174C6111
:1022C000D450002384F8315084F8323084F8303010
:1022D000F8BDC36A0667A0F874608BB19A68526A49
:1022E00052B3D0E90902002A32D0506200283CD013
:1022F0008262188A002201381882C4E90922E26247
:1023000007291CD00422002384F8315084F832209D
:1023100084F83030F8BD02EB420292001B49885825
:102320008B1848B31A895968013200201A81C4E910
:1023300004010C615C60C4E7C3E90222D9E704F13F
:102340005000FEF7A9FF0028DCD002F081FED9E79B
:1023500082629860CDE7C3E9022288E70126068100
:10236000C4E90411D4504460ABE7DA60C1E782628B
:1023700098607CE7DA607AE701261E81C4E90400F0
:102380008C505C609DE700BF44E9002034E60020EB
:10239000C16A8B685A6AE2B130B4D0E90924CCB181
:1023A0006262DAB194620D8A90F83340C162002211
:1023B000C0E909220D8293F83320A24210D85B6A4B
:1023C000002BF8D1CA68C0E909325062C86030BC3D
:1023D00070477047946213468A60E4E7CC60E2E796
:1023E0009A6A2AB1C0E9093230BC506298627047DB
:1023F000C0E9093298628860E9E700BF0023C0E9BC
:1024000000330381704700BFC36A7BB19A68526A88
:102410006AB1D0E909126AB1516271B18A62198A4E
:10242000002201391982C0E90922C2627047C3E95A
:102430000222F4E78A629960F1E7DA60EFE700BF11
:1024400070B50C4691F8321005294FD804294CD2AA
:1024500001294AD92267A4F8743018B3E36AABB1F2
:102460009A68526A002A00F0B480D4E90912002A5E
:1024700000F09F805162002900F0B5808A62198ABD
:10248000002201391982C4E90922E2628368584AAC
:10249000C4F8BC20002B00F08480DB68C36194F892
:1024A000321002E0524BC4F8BC30032970D094F8CB
:1024B000330001F001FB4F4A94F8333012789A420E
:1024C0004BD003EB43039B004B4AD158D018002953
:1024D00075D00589002601350581C4E904164C61D3
:1024E000D4500023238684F8323070BD072923D8C6
:1024F0002267A4F8743028B3E36A93B19A68526AE9
:10250000002A63D0D4E90912002A55D0516200296B
:102510006BD08A62198A002201391982C4E9092222
:10252000E2628368324AC4F8BC20002B3DD0DB68ED
:10253000C36194F8321008E0FF29D6D0BDE870409E
:1025400002F086BD2A4BC4F8BC30072917D0002200
:102550000423228684F8323070BD02EB42029200DE
:10256000254988588B18002836D01A8959680132B5
:1025700000201A81C4E904010C615C60B1E704F138
:102580005000FEF789FE0028E1D002F061FDDEE791
:1025900004F15000FEF780FE002888D002F058FDBC
:1025A00085E7C26194F832107FE7C26194F8321077
:1025B000CBE78A62996062E78A629960AAE701259F
:1025C0000581C4E90411D45044608AE7C3E90222BA
:1025D000A0E7C3E9022252E701251D81C4E90400F6
:1025E0008C505C607DE7DA6049E7DA6092E700BF13
:1025F000C00E040044E9002034E6002070B5044613
:1026000090F8330001F058FA1A4A94F833301278EF
:102610009A420FD003EB43039B00174AD158D018BE
:10262000C9B10589002601350581C4E904164C614C
:10263000D45070BD02EB420292000F4988588B18AB
:1026400080B11A895968013200201A81C4E9040155
:102650000C615C6070BD01250581C4E90411D45092
:10266000446070BD01251D81C4E904008C505C608C
:1026700070BD00BF44E9002034E60020F8B50C46E8
:102680002AF0FEFC94F83230013B0646062B3DD87A
:10269000DFE803F04C3C043C483C040094F8303044
:1026A000042B08BFE36A4FF0000708BF5D6A276785
:1026B000A4F87470204618BF0025FFF7A5FE94F813
:1026C0003230032B3DD0072B04BF042384F8323073
:1026D0004FF440732386CDB195F8333095F834200C
:1026E0009A4213D094F833209A420FD1284601F031
:1026F00079F995F8343095F83320834228BF0346A2
:10270000D9B28A4202D0284602F0FCF930462AF0BB
:10271000BBFC0E4B1B78012B00D0FEE70C4B1B784B
:102720005BB1F8BD042384F83230EFE7002384F86E
:1027300032302046FFF762FFE8E7BDE8F840FFF7D8
:1027400067B9FFF75BFF84F83270C1E731E600201C
:1027500028E6002070B490F833300C4A03EB4303B2
:102760009B00D418D15849B125890026013525810F
:10277000C0E90416486170BCD0507047012525811E
:10278000C0E904116060D05070BC704734E600208E
:1027900030B490F833300D4903EB43039B00CA1863
:1027A000CC5854B113895168002401331381C0E916
:1027B0000441086130BC5060704701251581C0E9B3
:1027C0000444C850506030BC704700BF34E600205D
:1027D000D0E9003293420DD019698A420BD010B46F
:1027E00000244C61C3E9044213615DF8044BC0E965
:1027F0000013704770470021C3E90412C2E9043195
:10280000C0E90023704700BF70B5044641692369E1
:1028100090F8330071B1174A00EB400002EB8000E2
:102820000289013A02810B619BB159610023C4E91D
:10283000043370BD93B10F4D00EB400080002E18A3
:102840003289013A328159612B500023C4E90433A3
:1028500070BD00234160C4E9043370BD054D00EB39
:1028600040029200A918AB500B814B6001F03CF97B
:10287000DCE700BF34E6002018B10A4B1B78012BBF
:1028800000D0704710B582B004460023C16E064ADE
:102890000648CDE900332346FEF76EFC044B1C606E
:1028A00002B010BD92E90020351B000004E60020B4
:1028B0001CE6002018B1164B1B78012B00D0704786
:1028C0002DE9F041856E04467DB1FEF7A3FD114B65
:1028D0001A680027561EE0FB05673046394600237C
:1028E0003BF032FEE066BDE8F0810B4BD3F8008090
:1028F000FEF790FD074B1A680027561EE0FB08679D
:102900002B46304639463BF01FFEE066BDE8F081BD
:1029100092E900204024002078E9002030B482B001
:10292000754B764C1B7876487649774A774DDBB203
:102930008DF805302368764CDBB28DF807300378CC
:102940007448DBB28DF805300B787349DBB28DF833
:1029500005301368714ADBB28DF807302B6A704D71
:10296000DBB28DF8073023786E4CDBB28DF8053082
:1029700003786D48DBB28DF805300B886B49DBB20C
:102980008DF8063013886A4ADBB28DF806302B7852
:10299000684DDBB28DF805302388674CDBB28DF8CB
:1029A000063003886548DBB28DF806300B88644931
:1029B000DBB28DF8063092F82830624ADBB28DF82F
:1029C00007302B78604DDBB28DF8053023885F4CE3
:1029D000DBB28DF8063003885D48DBB28DF8063037
:1029E0000B885C49DBB28DF8063013885A4ADBB29B
:1029F0008DF806302B88594DDBB28DF806302388D0
:102A0000574CDBB28DF80630438D5648DBB28DF85B
:102A100007300B785449DBB28DF805301388534AE0
:102A2000DBB28DF806302B78514DDBB28DF80630D5
:102A3000236A504CDBB28DF8073003784E48DBB286
:102A40008DF805300B884D49DBB28DF806301388C0
:102A50004B4ADBB28DF806302B684A4DDBB28DF85D
:102A600007302378484CDBB28DF8063003784748AE
:102A7000DBB28DF805300B784549DBB28DF80530B7
:102A80001378444ADBB28DF805302B78424DDBB227
:102A90008DF805302378414CDBB28DF80530037892
:102AA0003F48DBB28DF805300B883E49DBB28DF82C
:102AB000063013783C4ADBB28DF805302B88DBB248
:102AC0008DF806302388DBB28DF806300378DBB250
:102AD0008DF805300B88DBB28DF806301388DBB239
:102AE0008DF806309DF805309DF806309DF80730CA
:102AF00002B030BC704700BF34010020300100201C
:102B00002D0100202C010020380100204C24002041
:102B10003C010020702400203E01002040010020E4
:102B2000420100204801002044010020460100200D
:102B3000742400204A0100204C0100204E01002096
:102B400050010020520100205401002056010020B5
:102B5000A0240020580100205A0100206401002018
:102B6000D024002065010020660100205C010020C7
:102B70006001002069010020F42400206801002089
:102B80006C0100206D0100206E010020F524002062
:102B900070010020720100206A01002074010020F1
:102BA000F6240020F8240020760100202DE9F843C7
:102BB0000546894690461C46002B39D02AF068FA13
:102BC000064640B12022204922705522C4E9011254
:102BD0001E4BE360FEE775B32AF052FA2422314619
:102BE000074628463BF0E3FE194B2B60C5F80490DE
:102BF000C5F8208005F10800FFF700FC1549164ACA
:102C00000B686E61C5E9063203B15D61134A0D6060
:102C100013883846013313802AF036FA00220A4915
:102C20000A4B22707022C4E90112E360BDE8F88308
:102C300002F00EFAC2E70A22034922705822C4E9C0
:102C40000112024BE360FEE7F00E0400640F040083
:102C5000464C41478CE90020C00E040088E9002062
:102C60002DE9F04F83B00D9C019205460E469B4620
:102C7000D4B12AF00DFA48B12022B249227040F2B4
:102C80002F12C4E90112B04BE360FEE7AF4B1B7893
:102C9000012B0CD00222AB4922704FF49972C4E987
:102CA0000112A94BE360FEE702F0D2F9E1E7002D43
:102CB00000F0198147F6FF630BEA03035A1E012A4D
:102CC0000DD9042B0BD0082B09D008229D49227066
:102CD00040F24712C4E901129B4BE360FEE79C4BB4
:102CE0002A689A4209D00C22964922704FF4A572A4
:102CF000C4E90112944BE360FEE70C9B0BF4807A6D
:102D000013B10C9A002313602AF0BAF90BF00F08E4
:102D1000B8F1040F814600F0CD80B8F1080F44D11E
:102D20002A6A12EA060719D0BAF1000F02D022EA85
:102D300007022A62874A12684846C2F898702AF049
:102D4000A3F900227F4922704FF4C872C4E901122E
:102D50007D4BE360384603B0BDE8F08F1BF4004FB5
:102D600040F09C807C4A1378002B40F08B80794F98
:102D7000019A38680121C0F89460A0F89CB0C0F8AE
:102D800098302846FFF76EF948462AF07DF9FFF79C
:102D90005BF82AF075F93B6893F831300646032B4F
:102DA00053D8DFE803F033271B082AF06DF9694F89
:102DB00002F04EF9EBE70C9B13B10C9A0023136061
:102DC00030462AF061F922225E49227040F22B221D
:102DD000C4E901125C4BE3600027BBE72AF054F919
:102DE00031225849584B227040F23622C4E9011270
:102DF000E360F1E72AF048F921225249524B227050
:102E000040F22222C4E90112E360E5E70023DFF883
:102E100034B1237040F21723C4E901B3DFF82891DD
:102E2000C4F80C903B68D3F89870BAF1000F18D131
:102E300030462AF029F9002240F25923C4F804B0A0
:102E4000C4F80C902270A36084E72AF01DF902F008
:102E5000FFF82378002BBFD1DFF8E8B0DFF8E89067
:102E6000E0E7B8F1040F02D0B8F1080F04D12B6AE3
:102E700023EA07032B62DBE730462AF005F902F06C
:102E8000E7F8D5E72AF000F92D222E492E4B2270C3
:102E90004FF4CF72C4E90112E3605BE72AF0F4F863
:102EA0001D222849284B227040F29712C4E90112D2
:102EB000E3604FE72A6A36EA02032BD01BF4004F87
:102EC0001BD1254A1378002B3FF451AF2AF0DCF8D0
:102ED0002D221C491C4B22704FF4BA72C4E9011216
:102EE000E360002736E70A221649227040F23512C5
:102EF000C4E90112144BE360FEE72AF0C5F81D2275
:102F00001049114B227040F26D12C4E90112E360C6
:102F100000271FE7BAF1000F02D022EA06022A6258
:102F20000C4A12684846C2F898602AF0ADF80022B0
:102F30000449054B22704FF4B3723746C4E90112BD
:102F4000E36007E7F00E0400740F040031E6002090
:102F5000464C414748E9002028E6002010B590F88B
:102F60003230C0F898100022072B0446028617D88A
:102F700001229A4012F0330F0DD112F0C00F16D17A
:102F800012F00C0F0CD0032B19D02046FFF736FBA4
:102F9000002384F832302046BDE81040FFF734BAF1
:102FA00002F056F82046BDE81040FFF72DBA042382
:102FB00080F832302046BDE81040FFF725BA503087
:102FC000FEF76AF90028E0D002F042F8DDE700BF22
:102FD0002DE9F84305460E4617461C461BB3534BD6
:102FE0001B78012B09D002225149227040F2123283
:102FF000C4E901124F4BE360FEE7002D00F08B8027
:10300000012F7ED9B7F5004F52D048F201039F42FD
:103010000CD008224649227040F21B32C4E901124A
:10302000444BE360FEE702F013F8D8E7424B2A680E
:103030009A4209D00C223E49227040F21E32C4E965
:1030400001123C4BE360FEE72AF01AF880462B6A37
:1030500023EA06032B62AE68002E45D0B6F89C30FA
:10306000D6F8249003F00F03042B2CD0082B35D175
:103070002B6AD6F8941019402BD14E46002EEDD174
:1030800040462AF001F83B0401D4FEF7DDFE29F0AA
:10309000F7FF2D6A29F0F8FF00222549227040F23F
:1030A0008132C4E90112234BE3602846BDE8F8836E
:1030B000214B2A689A42BDD129F0E2FF80462B6A53
:1030C00033432B62C7E7D6F894102B6A31EA030327
:1030D000D3D130460022FFF741FFCEE7404629F02A
:1030E000D3FF01F0B5FFC8E7404629F0CDFF1049F6
:1030F000104B2D6A26704FF45072C4E90112E36040
:10310000D3E70D4B2A689A4294D129F0B9FF012FD9
:1031100080469CD0D3E70A220549227040F215323E
:10312000C4E90112034BE360FEE700BF31E6002073
:10313000F00E0400800F0400464C414770B4184B59
:10314000184A1E881568012E27D0B21E92B202EBD3
:10315000420405EB840405F10C031834002123F824
:10316000041C43E903310C33A342F8D1013202EBD2
:10317000420205EB82030C490C4C0022C3E90022F9
:103180001A810D605D230A4D8E80CA800A81C56058
:10319000C0E90143027070BC70472B46EBE700BFEB
:1031A000382400203424002064E900208C0F04001F
:1031B000001004000346408998B170B4094A1968A8
:1031C000D588948816680E60596811602D1A0444D9
:1031D0000021D5809480C3F80A10C3E9001170BCA7
:1031E0007047704764E90020002383600360018119
:1031F0004360C360704700BFF0B40446408900B329
:1032000065682A682E8968680E806260BAB1628932
:10321000013A92B2104962818E88CA880C682C608B
:103220000E4F0D60741C8C80013AD424CA80C3E90F
:10323000017400260A4A1E70DA60F0BC70472260F2
:10324000E8E7064C08800F25054A1D70B921C3E93F
:103250000141DA60F1E700BF64E900208C0F04004F
:10326000101004002DE9F04346890589089CB542F9
:1032700046D92F4DB5F804E0BEF1000F35D0D5F892
:1032800000C0B5F80690DCF80070B5F808802F6033
:1032900009F10107BFB20EF1FF3EB845A5F804E001
:1032A000EF8038BF2F81002E34D013F0100338D1B7
:1032B0000568C5F800C0C0F800C0CCF80030013681
:1032C000B3B2438185899D4238BF83811948CCF8C8
:1032D000041000254FF49871174BACF808202570A6
:1032E000C4E90101E360BDE8F08311221149124BEA
:1032F00022704FF48272C4E90112E360BDE8F083EA
:103300001E220C490C4B2270FF22C4E90112E3601B
:10331000BDE8F0830123C0E900CC4381CCF8006014
:10332000D0E74368CCF80030C0F804C0C7E700BF5E
:1033300064E900208C0F04001C1004002DE9F0410A
:10334000054688461446002A36D029F0A1FE0646D6
:1033500040B120221E4922705222C4E901121D4BA5
:10336000E360FEE75DB329F08BFE2C223146074671
:1033700028463BF01CFB184B05F10800C5E9003856
:10338000FFF73CF81549164A0B686E61C5E906322D
:1033900003B15D61134A0D60138838460133138011
:1033A00029F072FE00220A490A4B22706C22C4E9FD
:1033B0000112E360BDE8F08101F04AFEC5E70A2290
:1033C000034922705522C4E90112024BE360FEE773
:1033D00028100400A41004004D55545894E900200E
:1033E000C00E040090E900202DE9F04105460E468C
:1033F0001446CAB129F04CFE074640B120227A4952
:103400002270A422C4E90112784BE360FEE7784BF6
:103410001B78012B0BD0022273492270A722C4E92A
:103420000112724BE360FEE701F012FEE2E705B322
:10343000704B2A689A4208D00C226B492270AD2248
:10344000C4E90112694BE360FEE729F019FE8046EA
:10345000002E3FD0012E32D1D5F808C0BEB20222D4
:10346000002160460137BCF1000F0BD0FEF7D4FEFF
:10347000F2E70A225C492270AA22C4E901125B4BDE
:10348000E360FEE7D5E90523002A00F0938093610D
:10349000002B00F08D805A61C5E905CC564A686A58
:1034A0001388013B138000284AD0836B00F1380257
:1034B0009D42196A2CD003F120020B46F8E729F04F
:1034C000E3FD082248492270EF22C4E90112474B6C
:1034D000E360FEE7AB68002B7AD1D5E90523002A2B
:1034E0006FD0002B61D093615A61C5E905664249EE
:1034F0006B6A0A88013A0A80002B3ED003F1380239
:103500009B6B196A9D4237D003F120020B46F8E706
:10351000116090F8341090F833308B4210D0836BE8
:103520003F2243B19F6827B197F83370BA4228BF52
:103530003A461B6AF5E7914228BF114601F0E2FACC
:103540002E4A2F4B2A6000276B6005F10800C5E961
:10355000087785F82870FEF751FF404629F094FD62
:10356000FEF772FC2049214B2770EA22C4E90112C0
:10357000E3603046BDE8F0811160204A204B2A60AC
:1035800000266B6005F10800C5E9086685F828602B
:10359000FEF734FF404629F077FD1349134B2670A0
:1035A000BF22C4E90112E360E3E796616E619EE722
:1035B0006B6173E713490B6003B15A610023AB6180
:1035C0006CE7104A136003B15E610023AB618EE7C4
:1035D00029F05AFD2E220449044B2270C222C4E96C
:1035E0000112E360C5E700BF28100400B410040016
:1035F00031E600204D55545890E900204E4F4E457D
:103600009C10040094E900202DE9F047089C054631
:1036100089469246D4B129F03BFD48B12022764933
:10362000227040F22D12C4E90112744BE360FEE7F0
:10363000734B1F78012F0CD002226F4922704FF478
:103640009872C4E901126D4BE360FEE701F000FDE2
:10365000E1E7002D00F0B980CAF30E034BB1082258
:103660006549227040F23712C4E90112634BE360EE
:10367000FEE7644B2A689A4209D00C225E49227008
:103680004FF49D72C4E901125C4BE360FEE729F040
:10369000F7FC95F828608046002E00F083805A4F92
:1036A0006B6A3A6893426CD01AF4004F5DD1574967
:1036B0000978F1B992F8331093F833208A4202D98D
:1036C000184601F01FFA4A4604212846FEF7CAFCB4
:1036D000404629F0D9FCFEF7B7FB29F0D1FC3B6846
:1036E00093F831300546032B3CD8DFE803F031274F
:1036F0001D0F29F0C9FC2D223F49227040F275129E
:10370000C4E901123D4BE360BDE8F08722223A494B
:10371000227040F2A712C4E90112384BE360284638
:10372000BDE8F04729F0B0BC31223349334B227059
:1037300040F2B112C4E90112E360F0E721222E4900
:103740002E4B227040F29D12C4E90112E360E6E7BD
:1037500000222949294B227040F29312C4E9011238
:10376000E360DCE701F074FCD9E729F08DFC1D2251
:103770002149224B227040F26912C4E90112E36030
:10378000C2E7FF2E2BD0013685F8286029F07CFC9B
:1037900023221949194B22704FF4AE72C4E9011269
:1037A000E360B1E7184B85F828701B686B629A6B71
:1037B0002A629D6329F068FC0F49104B267040F285
:1037C0004712C4E90112E3609EE70A220A49227007
:1037D00040F23312C4E90112084BE360FEE729F01E
:1037E00053FC1E220449054B22704FF4A872C4E911
:1037F0000112E36088E700BF28100400C010040035
:1038000031E600204D55545848E9002028E60020B4
:103810002DE9F04782B0054688461446D2B129F01A
:1038200037FC48B120226949227040F24522C4E9A0
:103830000112674BE360FEE7664B1B78012B0CD04F
:103840000222624922704FF41272C4E90112604BE5
:10385000E360FEE701F0FCFBE1E795B3C8F30E037C
:103860004BB108225949227040F24F22C4E901129B
:10387000574BE360FEE7584B2A689A4209D00C2266
:103880005249227040F25222C4E90112504BE360C7
:10389000FEE7DFF84CA129F0F3FBDAF800206B6AB1
:1038A0009342814617D029F0EFFB1B224749227033
:1038B00040F25722C4E90112454BE36002B0BDE873
:1038C000F0870A224149227040F24B22C4E90112DA
:1038D0003F4BE360FEE795F82820013AD2B285F825
:1038E00028204AB99A6B03F138019542106A0FD02B
:1038F00002F120010246F8E729F0C6FB23223349F2
:10390000334B22704FF41A72C4E90112E360D5E719
:10391000AE680860002E4AD093F8330093F83470F4
:10392000B84224D09A6B3F215AB1D2F808C0BCF1FA
:10393000000F04D09CF833C0614528BF6146126A6D
:10394000F2E78F4228BF0F46B84210D21846FEF762
:103950005BFFDAF80030384683F8337000F0ACF8DB
:10396000DAF80000FEF714FF1C4BAE681F7001234D
:1039700085F82830B26B2A6200236E623146B56347
:10398000284600931A46FEF75BFD484629F07CFB6B
:1039900018F4004F01D1FEF757FA00220B490C4BE7
:1039A00022704FF42672C4E90112E36086E76E626A
:1039B00085F82860484629F067FB0449044B2670C7
:1039C00040F27522C4E90112E36077E72810040091
:1039D000CC10040031E600204D55545844E9002035
:1039E00048E90020836B3F2053B19A6822B192F8D6
:1039F0003320904228BF10461B6A002BF5D1704738
:103A0000704700BF826B002A3DD02DE9F04182B0A3
:103A1000054600F13808104682424FF001074FF08A
:103A20000006046A01D11EE01A46136A8342FBD1E4
:103A30002032D0F808C01460BCF1000F1AD080F812
:103A40002870DCF838200262002345626146CCF819
:103A500038001A460096FEF7F3FC8CB1AA6B20469C
:103A60008242046AE1D14246D0F808C01460BCF139
:103A7000000FE4D180F828C0C0F824C0002CEDD19C
:103A800002B0BDE8F0817047024B0022C3E900227A
:103A9000704700BF20E6002008B5064B186818B133
:103AA000FDF758FEC0B208BD5868FDF753FE203040
:103AB000C0B208BD20E600201F280A4A08D9516874
:103AC000C0F13F00012303FA00F008435060704743
:103AD0001168C0F11F00012303FA00F008431060D1
:103AE000704700BF20E600201F280B4909D94B680A
:103AF000C0F13F00012202FA00F023EA00034B600C
:103B000070470B68C0F11F00012202FA00F023EA9F
:103B100000030B60704700BF20E600202DE9F8434A
:103B20000546894617461C46C3B129F0B1FA064638
:103B300040B120222D4922705822C4E901122C4B99
:103B4000E360FEE7002D48D05FB9082227492270C4
:103B50005E22C4E90112264BE360FEE701F078FA29
:103B6000E3E7244B1B88BB4208D208221F4922707E
:103B70006122C4E901121E4BE360FEE729F080FADE
:103B800030223146804628463AF011FF1A4B2B600E
:103B9000394605F12000C5F80490FFF725FB05F133
:103BA0000800FEF72BFC1549154A0B686E61C5E944
:103BB000063203B15D61134A0D601388404601333C
:103BC000138029F061FA00220849094B22707822FB
:103BD000C4E90112E360BDE8F8830A2203492270B8
:103BE0005B22C4E90112024BE360FEE7D810040037
:103BF00048110400382400205155455570E9002033
:103C0000C00E04004CE900202DE9F84FDDE90A84DC
:103C100081468B4692461F46D4B129F039FA48B105
:103C200020226A49227040F25312C4E90112684B03
:103C3000E360FEE7674B1B78012B0CD0022263493F
:103C400022704FF4AB72C4E90112614BE360FEE7EE
:103C500001F0FEF9E1E7B9F1000F58D0002F4CD088
:103C6000CAF30E034BB10822584922704FF4B072C8
:103C7000C4E90112564BE360FEE7574AD9F8001039
:103C8000914209D00C225149227040F26312C4E9DA
:103C900001124F4BE360FEE7B8F1000F01D0C8F806
:103CA000003029F0EDF9234606464246394609F12F
:103CB0002000FFF7A1FA23780546002B42D01AF422
:103CC000004F66D1454B1B78002B70D15A46052119
:103CD0004846FEF7C7F9304629F0D6F9FEF7B4F8A2
:103CE00029F0CEF93E4B1B6893F831200646032A93
:103CF0004AD8DFE802F040392D160A2233492270F3
:103D00004FF4AE72C4E90112314BE360FEE70A22C0
:103D10002E49227040F25912C4E901122C4BE36083
:103D2000FEE700233B80B8F1000F01D0C8F8003057
:103D300022222649227040F2AD12C4E90112244B1E
:103D4000E3600025304629F09FF92846BDE8F88F4A
:103D500000251E493D80312340F2B91223701C4BCF
:103D6000E360C4E90112EDE70025212317493D80F6
:103D700040F2A312F2E7B3F874201D6F13493A80A2
:103D8000002340F29712E9E700253D8001F060F939
:103D9000D8E7304629F078F91D220C490C4B2270E7
:103DA00040F27712C4E90112E3600025CDE7304606
:103DB00029F06AF92D220549054B22704FF4BF7294
:103DC000C4E90112E3600025BFE700BFD81004007A
:103DD0005411040031E600205155455528E60020D5
:103DE00048E900202DE9F04F83B00C9C0546884639
:103DF00091461E460CB33A4B1B78012B09D0022288
:103E0000384922704FF41772C4E90112364BE3604F
:103E1000FEE7002D4AD026F404739BB283B9334BDE
:103E20002A689A4219D00C222E4922704FF41B7234
:103E3000C4E901122C4BE360FEE701F009F9DAE76F
:103E4000B3F5004FEBD008222649227040F26922D8
:103E5000C4E90112244BE360FEE729F011F9A968D7
:103E6000074669B306F4007A0023D1F824B0009322
:103E700042464B462846FEF7E3FABAF1000F02D05D
:103E800059460029F0D1384629F0FEF8330401D410
:103E9000FDF7DAFF00221349134B22704FF428720A
:103EA000C4E90112E36003B0BDE8F08F0A220D49B6
:103EB000227040F25F22C4E901120B4BE360FEE77F
:103EC000CDE9001405F1200006F010034A464146F2
:103ED000FFF7C8F9384603B0BDE8F04F29F0D4B871
:103EE00031E60020D81004005C11040051554555FE
:103EF0002DE9F8430546884691461C46002B38D0EC
:103F000029F0C6F8064640B12022204922705822E6
:103F1000C4E901121E4BE360FEE76DB329F0B0F86F
:103F200024223146074628463AF041FD194BC5F890
:103F30002090C5E9003805F10800FEF75FFA164940
:103F4000164A0B686E61C5E9063203B15D61144A19
:103F50000D60138838460133138029F095F800224C
:103F60000A490B4B22707322C4E90112E360BDE8D9
:103F7000F88301F06DF8C3E70A22044922705B223E
:103F8000C4E90112024BE360FEE700BF64110400C4
:103F9000E011040053454D413CE90020C00E0400EF
:103FA00074E900202DE9F04105460E461446CAB1D9
:103FB00029F06EF8074640B120225B492270A82202
:103FC000C4E90112594BE360FEE7594B1B78012B02
:103FD0000BD0022254492270AB22C4E90112534B88
:103FE000E360FEE701F034F8E2E705B3514B2A68DD
:103FF0009A4208D00C224C492270B122C4E9011225
:104000004A4BE360FEE729F03BF88046002E49D09A
:10401000012E3CD1D5F808C0BEB202220021604674
:104020000137BCF1000F0BD0FEF7F6F8F2E70A22D9
:104030003D492270AE22C4E901123C4BE360FEE729
:10404000D5E90523002A53D09361002B4ED05A6145
:10405000C5E905CC384A3949138839486860013BBD
:104060000027138005F1080029602F62FEF7C6F9CA
:10407000404629F009F8FDF7E7FE2B492B4B277046
:10408000DC22C4E90112E3603046BDE8F08128F08B
:10409000FBFF082224492270E122C4E90112234BCC
:1040A000E360FEE7AB68002B33D1D5E905234AB3C3
:1040B0002BB393615A61C5E905661F4A1F491388EE
:1040C0001F486860013B0026138005F10800296045
:1040D0002E62FEF793F9404628F0D6FF1249134BA3
:1040E0002670C022C4E90112E360CDE76B61B1E73D
:1040F00014490B6003B15A610023AB61AAE79661D2
:104100006E61DAE70F4A136003B15E610023AB61B1
:10411000D3E728F0B9FF2E220349044B2270C322B3
:10412000C4E90112E360AFE764110400EC1104007C
:1041300031E6002053454D4174E900204E4F4E4575
:10414000D81104003CE900202DE9F047089C064600
:104150008A461746D4B128F09BFF48B120225F4918
:1041600022704FF48E72C4E901125D4BE360FEE7EA
:104170005C4B1B78012B0CD002225849227040F274
:104180001F12C4E90112564BE360FEE700F060FF26
:10419000E1E7002E3FD0C7F30E08B8F1000F09D0B9
:1041A00008224E4922704FF49372C4E901124C4B1D
:1041B000E360FEE74C4B32689A4209D00C22474933
:1041C000227040F22912C4E90112454BE360FEE778
:1041D00028F056FF356A8146002D71D13B0463D427
:1041E000424B1B78002B53D1524606213046FDF737
:1041F00039FF484628F048FFFDF726FE28F040FF2B
:104200003B4B1B6893F831300546032B3BD8DFE866
:1042100003F030261C0C0A22304922704FF49172B0
:10422000C4E901122E4BE360FEE722222B492270E3
:104230004FF4BD72C4E90112294BE3602846356A88
:1042400028F022FF2846BDE8F08731222349244B7D
:1042500022704FF4C272C4E90112E360EEE721223A
:104260001E491F4B22704FF4B872C4E90112E3607B
:10427000E4E7002219491A4B22704FF4B372C4E9E3
:104280000112E360DAE728F0FFFE00F0E1FED5E777
:1042900028F0FAFE2D221149114B227040F24F12E4
:1042A000C4E90112E360CDE728F0EEFE1D220B49C0
:1042B0000B4B227040F24312C4E90112E360C1E7E4
:1042C000013D356228F0E0FE0449054B84F800808A
:1042D00040F23512C4E90112E360B3E7641104004F
:1042E000F811040031E6002053454D4128E6002036
:1042F00048E900202DE9F04F83B007468846144670
:1043000012B3414B1B78012B09D002223F49227086
:1043100040F21322C4E901123D4BE360FEE7002F97
:104320004AD047F6FF5318EA030510D1394B3A68D3
:104330009A4216D00C223549227040F21F22C4E95D
:104340000112334BE360FEE700F082FED9E708225A
:104350002E4922704FF40772C4E901122C4BE3601E
:10436000FEE728F08DFEBE6881467EB308F4007A31
:104370000023D6F824B000951A4631463846FEF799
:104380005FF8BAF1000F02D05E46002EF0D1484629
:1043900028F07AFE18F4004F01D1FDF755FD1B49B6
:1043A0001B4BE36040F24F22C4E901120025257047
:1043B000284603B0BDE8F08F0A221449227040F26B
:1043C0001622C4E90112124BE360FEE73D6A6B1C42
:1043D0000CD001353D6228F057FE0C490C4B26707D
:1043E00040F23922C4E90112E360E1E728F04CFE13
:1043F0001E220649064B227040F22E223546C4E9A1
:104400000112E360D4E700BF31E60020641104002C
:104410000412040053454D412DE9F04105468846FC
:104420001446DAB128F034FE48B120222049227027
:1044300040F27122C4E901121E4BE360FEE74DB366
:104440001D4B2A689A420CD00C221949227040F266
:104450007722C4E90112174BE360FEE700F0F8FD94
:10446000E0E7134F134E207040F27923C4E9017343
:10447000E66028F005FE2B6AB3B9AB68A3B12E2223
:1044800040F282236760E6602270A360BDE8F041DD
:1044900028F0FABD0A22064922704FF41D72C4E9C1
:1044A0000112044BE360FEE7C5F82080EEE700BF91
:1044B000641104001012040053454D412DE9F843E6
:1044C00081460E461C46D3B128F0E2FD48B12022B9
:1044D0005049227040F2DA42C4E901124E4BE360C7
:1044E000FEE74E4B1B78012B0CD00222494922706B
:1044F00040F2DD42C4E90112474BE360FEE700F001
:10450000A7FDE1E716B3B6F5004F09D008224149EF
:10451000227040F2E142C4E901123F4BE360FEE742
:1045200028F0AEFD3E4B1B685D6C0746002D40D168
:1045300028F0AAFD1D223749227040F20252C4E938
:104540000112354BE3602846BDE8F883DFF8D080E0
:1045500028F096FDD8F800305D6C07464DBB314B16
:104560001B78002B4AD14A4607213046FDF77AFDD9
:10457000384628F089FDFDF767FC28F081FDD8F862
:10458000003093F83130012B05462DD023D3032B77
:104590001ED122221F49227040F24152C4E9011269
:1045A0001D4BE360D8F8003028465D6C28F06CFDA8
:1045B000C9E7013D5D64384628F066FD00221549D3
:1045C000154B227040F2F542C4E90112E360BAE7EC
:1045D00000F03EFDE6E70F490F4B267040F22D52EA
:1045E000C4E90112E360DDE721220A490A4B227087
:1045F00040F23752C4E90112E360D3E728F044FDEA
:104600002D220449044B227040F20E52C4E90112DB
:10461000E36098E71C120400B412040031E60020A5
:1046200048E9002028E600202DE9F04782B0064640
:104630008A461446D2B1444B1B78012B09D0022282
:104640004249227040F2BB52C4E90112404BE36080
:10465000FEE7CAF30E0363B108223C49227040F220
:10466000BF52C4E901123A4BE360FEE700F0F0FCF0
:10467000E1E728F005FD07460EB9364B1E68DFF866
:10468000D080DFF8C890C4F804904FF4BA63C4E94E
:1046900002380025257096F83230052B13D8042BEC
:1046A00047D2012B45D996F83030072B30D0756CA6
:1046B0006B1C19D001357564384628F0E5FC284696
:1046C00002B0BDE8F087072BEDD9FF2B1AD1384691
:1046D00028F0DAFC1F2240F23963C4F80490C4F8D1
:1046E0000C802270A360EAE7384628F0CDFC1E2239
:1046F00040F22663C4F80490C4F80C802270A360D2
:104700000025DCE7384628F0BFFC00F0A1FCD6E726
:104710000023184600931A463146FDF791FE3846AD
:10472000756C28F0B1FC1AF4004FC8D1FDF78CFB72
:10473000C5E7756C6A1CBDD1384628F0A5FC1E2261
:1047400040F2EF53D6E700BF31E600201C12040010
:10475000C412040048E90020F8B505460F46144687
:1047600042B328F095FC48B120221A49227040F249
:104770006462C4E90112184BE360FEE728F080FC94
:104780000DB9164B1D6895F832309B0703D595F887
:104790003030072B11D06E6C6F6428F075FC00224E
:1047A0000C49227040F27562C4E901120A4BE360C1
:1047B0003046F8BD00F04CFCD3E728F065FC2E2213
:1047C0000449054B227040F26E62C4E90112E360B5
:1047D0000026EDE71C120400D412040048E9002072
:1047E00030B4084B084C0949094A436040F2FD7354
:1047F000084D836000232360C5600B80136030BCCC
:10480000037070471C12040054E9002060E9002086
:104810005CE90020E412040010B50446C022002127
:104820003AF0C5F8164BE360002104F17800FEF77A
:10483000DBFC4FF08043402123630023114A84F8BE
:10484000341084F8A83084F84830C4F8BC20C4F888
:104850009430A4F89C30C4F89830C4E92833C4E9F3
:104860002233C4F890306364E363C4E92B33A4F8C3
:104870004030E364C4E91A33A363C4E92D3310BDA7
:1048800090120400C00E04002DE9F04F89B0DDE95C
:1048900013650395BDF858500495DDE917951A9CEA
:1048A00006959DF848A0159FBDF8648005910546C2
:1048B0009346029314B328F0EBFB40B120228849C1
:1048C0002270F022C4E90112864BE360FEE7002D5E
:1048D00000F0FC80BBF1000F00F0EF80002E00F034
:1048E000E380814A1268BA420BD908227C492270BF
:1048F000FC22C4E901127B4BE360FEE700F0A8FB59
:10490000D9E7039A974208D8082275492270FF22F6
:10491000C4E90112734BE360FEE7BAF13F0F09D916
:1049200008226F4922704FF48172C4E901126D4B65
:10493000E360FEE76D4A049912888A4209D2082290
:10494000674922704FF48372C4E90112654BE3603A
:10495000FEE707902846FFF75FFF079B604A23703A
:1049600040F20B13C4E9012318F0030F5D4BE36021
:1049700040F08D80039B029923F0070306EB83032D
:10498000CDE90078324658460393FCF7D1FF8642C2
:104990000CD9534B636032224FF494735149E16058
:1049A0002270A360079000F053FB0798029B2B62D4
:1049B000059BEB60039BC5F81CB085F833A085F818
:1049C00034A02860AB60C5F86890B9F1000F46D1FB
:1049D000474B1C68FCF71EFD464B1A684FF0000B56
:1049E00002F1FF3AE0FB04AB4B465046594639F022
:1049F000ABFDE866069B6B6000240499AE6105F18F
:104A00007800EF63A5F84080C5E92244C5F89040DE
:104A1000FEF7EAFB2846FCF773FF28F031FB064659
:104A200095F83300FFF748F82846FDF7B1FE324904
:104A3000C5F8B4400B68C5F8B8300BB1C3F8B45032
:104A40002E4A2F48138800780D6001330128138007
:104A5000304615D009B0BDE8F04F28F015BBFCF783
:104A6000D9FC244B1A684FF0000B02F1FF3AE0FB2F
:104A700009AB50465946002339F066FDE866B9E7B0
:104A800028F002FB09B0BDE8F04FFDF7DDB918F0E2
:104A9000020F3FF46FAF00231A46BB423FF46AAFE8
:104AA00046F823200133F8E70A220D492270F92243
:104AB000C4E901120B4BE360FEE70A2208492270A9
:104AC000F622C4E90112074BE360FEE70A2204491B
:104AD0002270F322C4E90112024BE360FEE700BF3B
:104AE0001C120400981204000C0E0400382400204C
:104AF00078E900204024002054E9002060E90020EB
:104B000031E60020F8B590F8336004460D460127E1
:104B100094F83230052B35D8042B30D2012B2ED00F
:104B200010D82046FDF770FE284684F83350FEF773
:104B3000C3FF264B1B68A342204630D0BDE8F84097
:104B4000FDF726BE94F8303084F83350082B1DD87A
:104B500007FA03F313F4B17F33D113F0840F10D1AC
:104B6000DB0613D52046FDF713FCE36AB5425C6A09
:104B700010D394F83330B34215D01E46C8E784F8FA
:104B80003350F8BD072BDDD9FF2BFAD0BDE8F84034
:104B900000F05EBA94F83360AE42B9D8F8BDBDE813
:104BA000F840FDF7D7BD2046FEF71CFF94F83450BF
:104BB00094F83360854228BF0546EDB2AE42A7D1D6
:104BC000F8BD2046BDE8F840FDF7E2BB48E900200B
:104BD0002DE9F0470D4630B928F052FA5B4B1C68BE
:104BE00028F052FA00E0044628F04AFA94F83230ED
:104BF000DFF86491DFF86481042B824666D006D822
:104C0000012B26D016D82046FDF7FEFD5EE0072BCF
:104C100002D8062B1DD30DE0FF2B53D128F034FA18
:104C20001F2240F20523C5F80490C5F80C802A70B5
:104C3000AB604BE094F83020082A40D80123934021
:104C400013F0850F0BD094F8323003F0FB03032BE5
:104C50003CD104F15000FCF71FFBB8B334E013F46F
:104C6000B17F02D1DB062AD503E02046FDF7CCFB5D
:104C7000E9E7E36A5E6A204696F83370FDF7C4FB05
:104C800096F8333096F834209A420CD094F83320BA
:104C90009A4208D13046FEF7A5FE96F83470874256
:104CA00028BF0746FFB2002384F8303096F833302F
:104CB000BB42C8D039463046FFF724FFC3E700F0B7
:104CC000C7F9C0E728F0E0F900F0C2F9A36B13B10F
:104CD0002046FEF797FE04F17800FEF76BFA2046B7
:104CE000FCF716FED4E92D2342B919490B600BB12C
:104CF000C3F8B4200023C4F8B8300CE023B9C2F8DC
:104D0000B830C4F8B43006E00021C2F8B830C3F8B7
:104D1000B420C4E92D110F4A13882046013B1380AB
:104D2000FFF77AFDFF2384F83230504628F0ACF9C3
:104D3000002240F22D23C5F80490C5F80C802A709B
:104D4000AB60BDE8F047FDF77FB800BF48E9002041
:104D500054E9002060E900201C120400A81204009D
:104D600038B505460C46D1B128F092F948B1202259
:104D70000F49227040F2B512C4E901120D4BE360F5
:104D8000FEE70D4B1B78012B0CD002220849227044
:104D90004FF4DC72C4E90112064BE360FEE700F059
:104DA00057F9E1E721462846BDE83840FFF710BF34
:104DB0001C120400A812040031E6002000B585B0E2
:104DC000094B1868FCF7ACFD28F062F920B9074BD5
:104DD0001B78012B01D0FEE7FEE76946FFF7F8FEDE
:104DE00005B05DF804FB00BF48E9002031E6002073
:104DF00010B40649064B074A416000244121047063
:104E0000C0E902125DF8044B18687047F012040004
:104E100040240020641304002DE9F04782B00546C9
:104E20000E461446C2B128F033F940B120226A4937
:104E300022706E22C4E90112684BE360FEE7684B02
:104E40001F78012F0BD00222634922707122C4E91E
:104E50000112624BE360FEE700F0FAF8E3E7614B12
:104E600093F800A0BAF1000F3FD126F0020343B33C
:104E7000082E08D00822584922707B22C4E901126A
:104E8000564BE360FEE7002D00F09D80FCF7B6FA7C
:104E9000554B1B68A0FB0389FCF7BCFA534602463E
:104EA0004946404639F050FB504B1B6893F8482068
:104EB000002A00F08380DA6C2A44151A25EAE57589
:104EC000DA64002D4AD028F0DBF8494B1B68AB426E
:104ED000804613D21E22404922709E22C4E901124C
:104EE0003E4BE36002B0BDE8F0872D223A493B4BD0
:104EF00022707422C4E90112E360F3E7FCF78AFA36
:104F0000394BDFF8E8901A680027561EE0FB05676A
:104F100000252B463046394639F016FBD9F80030CB
:104F2000344A01950146009503F15000FCF724F93D
:104F300068BBD9F80000012380F83230FDF764FC2B
:104F4000404628F0A1F8FCF77FFF00222249234BBE
:104F50002270C522C4E90112E360C3E728F090F88B
:104F6000254A264B12780C2101FB02F15F185E588E
:104F7000796802EB42028E42054603EB820312D0AF
:104F80001846FDF725FC284628F07EF8DBE740466A
:104F900028F07AF801221049104B2270AC22C4E9A3
:104FA0000112E3609EE728F06FF800220A490B4BDC
:104FB0002270BB22C4E90112E36093E72844D8645D
:104FC00083F848707DE70449044B26707E22C4E9CB
:104FD0000112E360FEE700BFF01204007813040042
:104FE00031E6002028E600204024002048E9002087
:104FF000482400207D26000044E9002034E60020FB
:10500000F8B50446FCF7FAF90A4B0B4D1E68A0FBF5
:105010000667FCF7FFF9094B63604FF4C573A360A3
:105020000023024639463046E560237039F08CFA99
:10503000F8BD00BF4024002084130400F0120400D7
:10504000024B00221A6003F069B800BF98E9002003
:10505000FEE700BF014B1860704700BF98E90020D1
:1050600008B1FCF77ABB0820704700BF30B585B0A7
:105070000A4814466B46C288002000F02BFF9DF8BA
:105080000050206015B1002005B030BD044902F089
:1050900065FA0120C4E9015505B030BD7801002052
:1050A000A4630400054B1B68024603B1FEE720B170
:1050B000034B0068516803C37047FEE7FC240020DF
:1050C00078010020F0B587B004460021022002F0EC
:1050D0005DFC00210546032002F058FC002105403C
:1050E000042002F053FCEDB22840012808D006222B
:1050F0002A492270EB22C4E90112294BE360FEE742
:10510000284D2948A968294E23463C2200F0E2FE9A
:105110002378306007460BB107B0F0BDAA88A968B4
:1051200023482346920000F0D5FE23783863002BF5
:10513000F2D1EA88A9681E4837682346043200F095
:10514000C9FE23787863002BE6D13168688881F83E
:105150003830CB62CDE904342A88164F0397CDE965
:1051600001200423AA68144800930C2301F0F8F9E5
:1051700021780029D0D122461048356802F0C4FCBD
:105180002378A862002BC7D1204600F097FB204669
:1051900007B0BDE8F04001F095BD00BF0014040069
:1051A000C81404007801002078140400FC240020B6
:1051B0008C1404006D500000A0140400B814040006
:1051C0002DE9F04F87B0009088461446E2B1B8F15F
:1051D000000F1ED0D8F80430002B58D000980028BB
:1051E00041D002F08FF9824AD288824203461AD80F
:1051F0000822804922704FF4FA72C4E901127E4BF2
:10520000E36007B0BDE8F08FFFF722FFB8F1000FB1
:10521000E0D10A227749227040F2EB12C4E9011270
:10522000754BE360FEE7754D2868F3B1214601F048
:1052300079FA23780646F3B92B680022986A11465A
:10524000234602F00BFD2378002B5CD002AC2246F3
:105250003146286801F0F2FA9DF80830002BD0D0D2
:10526000FFF7F6FECDE7654D2868214601F05AFAB2
:1052700023780646ABB111225E495F4B227040F2A3
:10528000FF12C4E90112E36007B0BDE8F08F3422D9
:10529000584922704FF4F772C4E90112564BE3608B
:1052A000FEE7534BD6F80090DF88D8F80010B9F12C
:1052B000000F19D0C9B10B4602E030B1134642B11C
:1052C0001A4612F8010B5F28F7D15B1A9AB297427F
:1052D0000CD8082247492270474BE3604FF4037211
:1052E000C4E9011202ACB2E7FEE7FEE79FB23A461C
:1052F000484602F059F928B1002309F8073033680D
:10530000009399E7FEE72B68D3F82CA00099BAF137
:10531000000F39D0DAF8000002F094F9DAF804301E
:10532000434543D0002841D0D8F8043008F1080B99
:105330000BB32B685BF8087CDB6A0193ABB1D3F845
:105340000490D9F804202AB919E009F10809D9F81C
:1053500004209AB1D9F80010384602F073F90028F9
:10536000F3D1D9F80430002B37D10BF1080B5BF8DF
:10537000043C002BDDD1DAF808A0C7E7019B9B684D
:105380000193002BDBD1F0E7306802F0E7F82B68DF
:10539000C6F80480DA6AB260986ADE62214602F0DA
:1053A000BBFC2378002B3FF42CAF59E715221149A1
:1053B000227040F22222C4E901120F4BE3602B68F5
:1053C00002AC986A214602F0A7FC9DF80830002B39
:1053D0003FF43DAFFFF73CFE39E715220549064B88
:1053E00022704FF40B72C4E90112E360E7E700BFDB
:1053F0007801002000140400E0140400FC240020C4
:105400002DE9F04180460C4600293DD0B8F1000F4F
:105410002ED0254F3B680022986A1146234602F0A1
:105420001DFC267876BB3B68DD6A25B931E0AB68A8
:105430002E4673B31D462968404602F003F9002842
:10544000F5D13868AB6816B3B3602946224601F03F
:10545000F5F923780BB1FFF7FBFD3B682146986A0D
:1054600002F05AFC23786BB1BDE8F041FFF7F0BDC4
:105470000A220E49227040F26E22C4E901120C4B3E
:10548000E360FEE7BDE8F081FFF7E2FDBEE7C3623F
:10549000DBE70F220549064B227040F28622C4E961
:1054A0000112E360D9E700BFFC24002000140400CF
:1054B000F0140400F0B40478002C3DD000252F46F1
:1054C000AC46012604E03DBB012510F8014F84B134
:1054D000202C1AD0222CF6D0002EF6D0BA4220D999
:1054E00041F827007C1CA7B210F8014F0026002CC1
:1054F000EED100211148197040F2E521C3E9010104
:105500000F4ADA603846F0BC7047002EDDD1002D1E
:10551000DBD105700126D8E72E4680F800C00025B3
:10552000D3E711210548064A19704FF43771C3E9D2
:105530000101DA600027E5E72746DAE700140400F6
:10554000001504002DE9F04F85B082460E4617463F
:105550001C460BB3BAF1000F14D0DFF83481D8F831
:1055600000300022986A1146234602F077FB94F837
:105570000090B9F1000F12D04FF00009484605B075
:10558000BDE8F08F0A223C4922704FF4AE72C4E9A4
:1055900001123A4BE360FEE7FFF75AFDDAE7D8F86D
:1055A0000050374B296B9A8850462346FFF782FFFD
:1055B0002378824673B9D0B92F4B7A68636034215F
:1055C0002E4B21704FF4B771C4E902132D482421EA
:1055D000D146B047D8F800306946986A02F09CFB83
:1055E0009DF80030002BC9D0FFF732FDC6E7D5E9A2
:1055F0000B93D3F800B0B9F1000F29D0D9F80450BB
:105600006B6823B934E008356B68002B30D029680B
:10561000584602F017F80028F5D16D68C5B1D8F8E2
:1056200000305046196B32463B46A847B0F1FF3F69
:105630008146CFD1104B7A68636033210F4B2170C4
:105640004FF4C171C4E902130F482C21B047C1E7E0
:10565000094B7A6863600F21084B21704FF4BC71CD
:10566000C4E9021309481F21B0474FF00009B1E710
:10567000D9F80890BFE700BF00140400D414040058
:105680007801002090130400D4130400B413040024
:10569000FC2400202DE9F843154B1B68D3F82C900F
:1056A000B9F1000F22D0DFF84C800F460646D9F83A
:1056B00004406368ABB1083454F8085C284601F034
:1056C00021FF7A6881B22846B047404601F01AFFB0
:1056D000083481B27A684046B04754F8043C002B45
:1056E000EAD1D9F80890B9F1000FE0D1BDE8F8830C
:1056F000FC2400209893040038B505460C4641B3BD
:10570000184BDB88AB4209D21E22174922704FF496
:105710006672C4E90112154BE360FEE727F0B0FCA6
:10572000134B1B6893F83820B2B95D6B012283F8E4
:10573000382027F0A9FC002D14BF00231B230A49A1
:105740000A4A237040F2A133C4E90113E2602846FB
:1057500038BDFFF77DFCD3E727F096FC00251B231F
:10576000EDE700BF780100200014040010150400CC
:10577000FC24002008B527F083FC044B1B680022A2
:1057800083F83820BDE8084027F07EBCFC240020C8
:105790002DE9F04184B0022815461E460BD0013891
:1057A00001286BD819461046FFF774FF00242046E5
:1057B00004B0BDE8F0810F463A49786801F042FF35
:1057C000044600283DD0786801F09CFE043080B289
:1057D0006946FFF791FF9DF800408046002C5ED19E
:1057E000796801F0BBFE3049404601F003FF2D49C6
:1057F000404601F0FFFE6B46324629464046FFF721
:10580000A1FEFFF7B7FF9DF800300F2B01D0112B41
:10581000CDD1726825481921A8477C68204601F03F
:1058200071FE726881B22046A847214801F06AFEE5
:10583000726881B21E48A8470024204604B0BDE823
:10584000F0811C4801F05EFE726881B21948A847D9
:10585000174801F057FE726881B21548A8471648EC
:1058600001F050FE726881B21348A847104801F059
:1058700049FE726881B20E48A84798E70D4801F0CA
:1058800041FE726881B20B48A847094801F03AFE10
:10589000726881B20648A8474FF0FF3487E74FF09F
:1058A000FF3484E728150400C00E0400B01504007E
:1058B000989304002C150400681504000246024960
:1058C0000248FFF77DBC00BF8401002024150400BE
:1058D00008B54068FF2201F0E9FEB0FA80F0400907
:1058E00008BD00BF2DE9F04784B02B4D2B4E2A6830
:1058F000D0F804A017682A4BCB600F220A704FF42F
:10590000E37281460C46C1E90162F7B198465146FF
:105910007868FFF7DDFF012808D1002240F2CB13A1
:105920006660C4F80C802270A36002E03F68002F1C
:10593000EDD123780F2B08D01A4B666015214FF458
:1059400098722170C4E9022313E0286821460430CC
:1059500000F0E8FE277801465FB9C0F80490286897
:1059600002F020FB4FF49F72C4E901620D4B2770D7
:10597000E3602B686D46D86A294602F0CDF99DF8A0
:1059800000302BB123781BB995E80F0084E80F0095
:1059900004B0BDE8F08700BF002500201416040005
:1059A000DC160400C816040088B110B584B00D4B95
:1059B0001B68002204461146D86A6B4602F04EF975
:1059C0009DF8003023B1FFF743FB04B010BDFEE7A4
:1059D00069462046FFF786FF9DF80030002BF4D083
:1059E000F1E700BF002500202DE9F04385B0064611
:1059F0000C4649B170B90A2228492270A622C4E98E
:105A00000112274BE360FEE7FFF722FB002EF2D0E6
:105A1000FFF71EFB234F3B680022D86A114623463E
:105A200002F01CF92378002B35D13B68DFF8788031
:105A30001D68DFF86890C4F804900F2323704FF4BA
:105A4000E373C4E9023825B36B68FF225868314616
:105A500001F02CFED0B940F2CB136E682070C4E97F
:105A60000238C4F804903B686D46D86A294602F0B3
:105A700053F99DF800302BB123781BB995E80F003E
:105A800084E80F00304605B0BDE8F0832D68002D96
:105A9000DAD10026E7E70026F4E700BF1416040079
:105AA0009C16040000250020DC1604002DE9F043BC
:105AB00085B0044608B9FFF7CBFA2C4FDFF8C08059
:105AC0007B68DFF8C090C4F804900026C4222670DA
:105AD000C4E9022813B905B0BDE8F08331460220BD
