:100000000000082055BB010081BB010081BB01003D
:1000100081BB010081BB010081BB010081BB0100EC
:1000200081BB010081BB010081BB010081BB0100DC
:1000300081BB010080BB0100B717000081BB01003C
:1000400081BB010081BB0100299C0100590C00000B
:1000500081BB010081BB010081BB010081BB0100AC
:1000600081BB010081BB010081BB010081BB01009C
:1000700081BB01009D0C000081BB010081BB010020
:1000800081BB010081BB010081BB010081BB01007C
:1000900081BB010081BB010081BB010081BB01006C
:1000A00081BB010081BB010081BB010081BB01005C
:1000B00081BB010081BB010081BB0100CD160000A6
:1000C00081BB010081BB010081BB010081BB01003C
:1000D00081BB010081BB010081BB01009DB7010014
:1000E00081BB010081BB010081BB010081BB01001C
:1000F00081BB010081BB010081BB010081BB01000C
:1001000081BB010081BB010081BB010081BB0100FB
:1001100081BB010081BB010081BB010081BB0100EB
:1001200081BB010081BB010081BB010081BB0100DB
:1001300081BB010081BB010081BB010081BB0100CB
:1001400081BB010081BB010081BB010081BB0100BB
:1001500010B5054C237833B9044B13B10448AFF301
:1001600000800123237010BD200400200000000047
:100170009C3E070008B5034B1BB103490348AFF38E
:10018000008008BD00000000240400209C3E070001
:10019000154B002B08BF134B9D46A3F5803A002159
:1001A0008B460F461348144A121A21F010F90F4BD0
:1001B000002B00D098470E4B002B00D09847002012
:1001C000002104000D000D48002802D00C48AFF3B8
:1001D000008021F081F82000290000F0EBFC21F0E4
:1001E00067F800BF000008000000082000000000C1
:1001F00000000000200400201C0A02200000000073
:100200000000000030B585B000238AB243650D467A
:100210006B461449044603F049FB9DF80030D3B9FE
:100220006B462A46104904F1300003F029FD9DF881
:1002300000302BB10D4B0E490E48332221F0D0F87F
:100240000D4AB2F8FC3001210B4400206165A2F890
:10025000FC3005B030BD054B08490648312221F07D
:10026000BFF8DDE7A833020008340200B033020013
:1002700014340200E033020078FB0120D433020082
:1002800070B586B002AD00231A4604460E463030E3
:100290001946009503F020FE9DF808308BB9002325
:1002A0001A4600953146204603F064FC9DF808305C
:1002B0002BB1074B07490848562221F091F806B0A8
:1002C00070BD034B05490448532221F089F8E6E745
:1002D000B03302002C340200E0330200203402006C
:1002E000F0B587B002AE002305460F4630300096C9
:1002F00019464FF4004203F0EFFD9DF80840A4B901
:100300002846009639462346224603F033FC9DF8E2
:10031000080008B907B0F0BD084B09490948652233
:1003200021F05EF8204607B0F0BD074AB2F8003170
:100330000133A2F800314FF0FF30EBE7B033020099
:100340002C340200E033020078FB01202DE9F0415B
:100350008CB0054608A81746884604F019FD04AE7F
:10036000002239460446CDE9002628460DF10E0349
:1003700003F012FB9DF8101089B90746324605F1CB
:10038000300003F07FFEB8F1000F01D0C8F8007014
:1003900008A804F0FDFC001B0CB0BDE8F0814FF094
:1003A000FF300CB0BDE8F081406D704730B585B0CE
:1003B0000A466B461049044603F062FC9DF80000B3
:1003C0000E4A78B9B2F8F030B2F8F21001339BB2AD
:1003D000012599426562A2F8F03038BFA2F8F230E8
:1003E00005B030BDB2F8F4300021013361624FF046
:1003F000FF30A2F8F430F3E74034020078FB01202C
:1004000070B58AB0054606A80E4604F0C1FC00236C
:1004100002AA009204461A463146284603F05CFDC3
:100420009DF808302BB906A804F0B2FC001B0AB0F6
:1004300070BD4FF0FF300AB070BD00BF10B584B082
:10044000054CB4F8F0306A46013B0121A4F8F030C5
:1004500003F070FC04B010BD78FB012010B584B02F
:10046000094B0A490A4800246A461C7002F03EFF04
:100470009DF8003033B1074B0749084840F243125A
:1004800020F0AEFF04B010BD3C0400208833020011
:1004900060C50020B033020098330200E033020050
:1004A00030B585B06A461149044602F01FFF9DF839
:1004B00000000F4A78B9B2F8F630B2F8F8100133FC
:1004C0009BB201259942E562A2F8F63038BFA2F846
:1004D000F83005B030BDB2F8FA3000210133E162E6
:1004E0004FF0FF30A2F8FA30F3E700BF34340200D7
:1004F00078FB012000B587B002AA002300921946BC
:100500001A4602F049FF07B05DF804FB00B585B05C
:100510006A46002103F044F805B05DF804FB00BF13
:100520002DE9F0418EB0224D2B78012B06460F4667
:10053000904607D91F4B204920484FF4D17220F034
:100540004FFF2B781E4ADFF880E0013331460AAEB8
:10055000DCB208960026631ECDE9056642F6E06C23
:1005600040F6B8360CFB032C03963A46149ECDF8A1
:1005700004C00B270797142703EB43000497F6B238
:100580004FF4967743460EEB8010029700962C703E
:1005900004F042F89DF8283033B1064B094907486A
:1005A00040F2B31220F01CFF28780EB0BDE8F081B5
:1005B0003C040020B03302004C340200E03302005F
:1005C000A0670020743402008CC5002000B587B0FD
:1005D00002AA0023009219461A46034802F0DCFEE4
:1005E000012007B05DF804FB60C5002000B585B0B0
:1005F0006A460021024802F0D3FF05B05DF804FB13
:1006000060C5002000B585B0684604F0C1FB05B0A8
:100610005DF804FB2DE9F04F85B00446384DDFF856
:1006200008B1DFF808A1DFF808914FF004080026B0
:100630000EE0052B18D0012B07D1C4E90166E66056
:10064000204608F03BFD02232B70FA2006F0D2FD75
:100650002B78DBB2022BECD1204609F041F940B1F6
:100660004FF003032B70F0E7204608F0D9FF2E70FF
:10067000EBE7636A9B79042BE7D9204685F8008075
:1006800008F0CEFF1F4A204F1078204A97F800C08C
:1006900011781F4A1F4F12789AF800309BF800E03B
:1006A0000004090440EA026041EA0C611A4A97F822
:1006B00000C01278194F41EA0C0C1B04184943EA98
:1006C0000E6399F800E002430878164943EA0E03E6
:1006D00097F800E0097843EA0E2342EA00204CEA4A
:1006E000012C00BA19BA9CFA8CFC0191029003AB60
:1006F00002AA01A92046CDF80CC00DF0E3FAA4E748
:100700003D040020120000200823002009230020BF
:10071000110000200B2300200D2300200C230020BB
:10072000130000200A2300200E0000200F000020EC
:1007300010000020034B10B905221A7070470122E7
:100740001A7070473D04002030B58FB00AAA0E49D8
:10075000089200233320162202254FF40074CDE9BD
:100760000021CDE90635CDE90433CDE90204074B7C
:10077000074A0849084803F04FFF9DF8283003B1A5
:10078000FEE70FB030BD00BF4004002044C700208A
:10079000150600008C340200400C00202DE9F047C3
:1007A00088B080460C46002900F0B2800E46002238
:1007B000738936681A44002EFAD13B2A0ED9930663
:1007C0000FD10C32314603A81FF024FD002840F061
:1007D000A380DDF80CA00AF10C0913E0C2F13C067D
:1007E0003C2222F03F024C32002103A81FF012FDF0
:1007F000002840F09180DDF80CA00AF10C09002CD3
:1008000000F0888000256789616809EB05003A4699
:1008100020F0B9FD24683D44002CF4D12E44B542AB
:1008200050D205F10C000AEB00035B4203F0030316
:10083000D91C052906F1FF3238BF0521521B914210
:10084000A6EB050422D8002B60D00022012B09F86A
:10085000052005F1010708D0032B09F8072005F151
:10086000020702D109F80720EF1CE41A0022034412
:100870005344A00811460132824243F8041BFAD3C4
:1008800024F003039C4207EB03051BD06A1C0023E2
:10089000B24209F8053015D2A91C8E4209F802307F
:1008A00010D9EA1C964209F801300BD9291D8E4255
:1008B00009F8023006D90535AE4209F8013088BF83
:1008C00009F8053098F83230154D03996E60A3F1A0
:1008D0006103B3FA83F3002404AE5B0922462B7252
:1008E0002960334602210F486C7202F049FB23460F
:1008F0002246214600960C4803F0EEFA2146039862
:100900001FF0A6FC204608B0BDE8F0872F46ACE7F4
:100910003C2665E7254682E74FF0FF30F3E700BF4E
:10092000A0070220AC070220F40902202DE9F047BD
:10093000C478184A184BC18890F8058014F0060F47
:100940000CBF91469946E9B107464FF4C1720020A9
:100950000DF02EFC8246A8B108F1080804460025D7
:100960006689606808EB05013246394420F00BFDCA
:1009700024683544002CF3D1D9F81030494650464C
:10098000984708B9BDE8F0875046BDE8F0470DF03C
:100990009BBB00BF44C700200CC7002038B50446ED
:1009A00060B31A481A491B4A1B4DC4E9050147F2B6
:1009B00073436386062384F83030D2F81632C4F8C5
:1009C0002A3092F81A1294F8313084F82E1092F8E6
:1009D0001B2284F82F2043F00E0340F2DC5284F8EF
:1009E000313022850FCC0FC50FCC0FC50FCC0FC5F2
:1009F00094E8030085E80300002038BD074B084950
:100A00000848F22220F0ECFCCBE700BFF5B600006E
:100A10009D070000D007022044C700209834020040
:100A2000B4340200E033020038B5044660B31A481B
:100A30001A491B4A1B4DC4E9050147F2610363864D
:100A4000062384F83030D2F81C32C4F82A3092F8E9
:100A5000201294F8313084F82E1092F8212284F874
:100A60002F2043F00E0340F2DC5284F8313022850F
:100A70000FCC0FC50FCC0FC50FCC0FC594E80300EA
:100A800085E80300002038BD074B0849084840F2BC
:100A90000D1220F0A5FCCAE7F5B600009D07000086
:100AA000D00702200CC7002098340200B4340200A2
:100AB000E033020010B586B001213A4814F0C0FEC0
:100AC0000121384814F0BCFE002301220821022035
:100AD00018F004FA002301220921022018F0FEF97F
:100AE00001240822114600230220CDE9004418F019
:100AF00075F90922114600230220CDE9004418F0BF
:100B00006DF9042211460023022018F0E7F90023B2
:100B1000184604220C2118F0E1F9002302220821D2
:100B2000042018F0DBF922462146002017F09AF83D
:100B30001D4B08224FF40051C3F880110DEB020049
:100B40001960C3F880211A6006F074FB9DF8083024
:100B500023BB16481BF0E8FFE8B902A806F094FB97
:100B60009DF808300BB104F03BF906F0A9FC1BF02E
:100B7000B3F80122114600230D4820F031FC20F08B
:100B8000EDF91FF00FFF00F079FA02A9002003F041
:100B9000AFFF06B010BD04F023F9DEE704F020F942
:100BA000D7E700BF00550A0000E100E00000002088
:100BB000E434020030B58FB01F4816F00FFE06F087
:100BC00035FC04F005F900211C4814F0B7FF1AF0B9
:100BD00017FE01201AF00CFE194820F001FC0AACA7
:100BE000184820F0FDFB204600F0C8FF9DF8283093
:100BF00003B1FEE702221449079233201E224FF46C
:100C00000075CDE90021CDE905330493CDE9020556
:100C100008940E4A0E490F4803F0FEFC9DF8283058
:100C200003B1FEE7204601F09DF99DF8283003B19D
:100C3000FEE701200FB030BD00A24A04404105008C
:100C4000C4340200C8340200000D0020B50A0000C0
:100C5000D03402000015002010B584B00D4BD3F83D
:100C60001C44C3F8244461050CD4E20506D4A30552
:100C700002D5012000F090F904B010BD002000F072
:100C80008BF9F4E76B4600220121034802F078F962
:100C9000EBE700BF00800840AC07022010B584B02D
:100CA0000D4BD3F81C44C3F8244461050CD4E20571
:100CB00006D4A30502D5012000F06EF904B010BDE2
:100CC000002000F069F9F4E76B4600220121034897
:100CD00002F056F9EBE700BF00800840AC070220A5
:100CE000F0B58FB00021084614F09AFAFFF72CFDFA
:100CF0007D4B1B68002B67D0002305930793099356
:100D00007A4A7B4B7B4C7C4812781B787B49247851
:100D100000787B4D09782D787A4F7B4EDFF870C2D2
:100D20003F7836789CF800C012041B0442EA046243
:100D300043EA0063754C7648090441EA0561257869
:100D40000478744839430078324343EA0C0341EA9B
:100D50000521714D43EA002342EA042209BA12BA7E
:100D60001BBA2846069108920A931AF0BDF9072883
:100D700006461AD010D940F6013398421FD040F6EB
:100D80000233984216D1654820F02AFB0AAC21466E
:100D9000002003F0ADFEFAE7002849D0012809D170
:100DA0005F4820F01DFB0AACF1E75E4820F018FB1D
:100DB0000AACECE75C4820F013FB0AACE7E75B48C1
:100DC00020F00EFB0AACE2E7594A5A4B5A4C5B48FA
:100DD0005B4912781B78247800785A4D09782D7871
:100DE000594F5A4EDFF8ACC13F7836789CF800C0B6
:100DF00012041B0442EA046243EA0063544C55485F
:100E0000090441EA0561257804785348007839439C
:100E1000324343EA0C0341EA052142EA042243EA51
:100E2000002309BA12BA1BBA05910792099367E722
:100E30004A4F4B4B00900124CDE9013707AA09AB7B
:100E400005A985F8224247480CF002FE0AAC464A42
:100E50000192234608AA06A90297009643480CF07F
:100E6000F7FD40480CF096FF1EF0C4F988B91DF05C
:100E7000DDF8B0B928461DF0C5FCD8B91CF0C8FD96
:100E800000BB28463A491DF097F900283FF47FAF90
:100E900022E0384B38493948A92220F0A1FA1DF048
:100EA000C5F8344B36493548AD2220F099FA1A4836
:100EB0001DF0A8FC2F4B33493048B12220F090FAA6
:100EC0001CF0A6FD30492B4B2C48B52220F088FAA7
:100ED000274911481DF070F9264B2C492748B922A3
:100EE00020F07EFA53E700BF140000200C00002021
:100EF000C11500200B000020C015002009000020B3
:100F0000080000200A000020C5150020C41500209C
:100F10000D000020C2150020D00702204435020039
:100F2000A835020078350200C835020014350200E9
:100F300012000020092300201100002008230020B7
:100F40000F0000200E000020100000200D230020C4
:100F50000C230020130000200A230020B9500100B8
:100F60009D09000044C70020290A00000CC700208A
:100F7000D0FC0120F035020008360200E033020008
:100F800020360200383602004C360200603602007D
:100F9000C31500200B230020012800D970471AF048
:100FA000CFBE00BF08B500220849094814F008F870
:100FB00000220849064814F003F8074B1B6813B1D8
:100FC0000120FFF7B7FB002008BD00BFA1DD000036
:100FD00044C7002031DE00001400002008B5094B92
:100FE0001B6813B10020FFF7A5FB00220649074844
:100FF00013F0E6FF00220649044813F0E1FF002049
:1010000008BD00BF1400002095DE000044C700208A
:10101000F9DD000008B500220749084813F0D0FFA9
:1010200000220749054813F0CBFF064B1B680BB1A4
:101030001FF036F8002008BDA1DD00000CC700201D
:1010400031DE00001800002008B5084B1B680BB10A
:101050001FF034F800220649064813F0B1FF0022C1
:101060000549044813F0ACFF002008BD180000201B
:1010700095DE00000CC70020F9DD000030B58FB010
:101080000AAA0D49089200235020172202254FF486
:101090004874CDE90021CDE90204CDE906350748C1
:1010A000074A0849CDE9043303F0B6FA9DF8280051
:1010B00000B1FEE70FB030BDC81500204822002067
:1010C000E10C000008350200F8B5124D17F078FA6F
:1010D0002C780646CCB91049104A114B0C601460AC
:1010E0001C8000F05BFA012000F0CAFA00F008FB57
:1010F0000C4B0D4F1860024623460C4840F2E73176
:101100001FF052FF012338602B70304617F05CFA55
:101110000020F8BD0E2300202023002010230020F3
:10112000182300201C2300201423002018FCFFFF9C
:101130002DE9F84F9DF82890BDF82C8060B3424E01
:101140001F460D469246044617F03AFA336823B11B
:101150009C421CD09B68002BFAD14FF0000B17F07B
:1011600033FA84F804902760C4F80CA0A4F8068031
:10117000C4F808B0C4F810B08DB96561BAF1000FB9
:101180003BD020463946D0472846BDE8F88F17F0B7
:101190001BFA0320BDE8F88F2220BDE8F88F17F076
:1011A0000FFA074600F03CFAD6F800C0DFF89CE0E2
:1011B000BCF1000F2AD0DEF80030DCF81420C31A8E
:1011C00093421DD9801ACEF80000CCF814B06561A6
:1011D0006346002000E00B465A69AA4200D922BBB0
:1011E0009968AD1A656118460029F4D19C60A16028
:1011F000644524D0384617F0E7F90020BDE8F88FA1
:10120000D31ACCF81430CEF80000E0E76561346002
:10121000C4F808C0CEF8000003461D44022000F0C8
:101220002FFA284600F002FAE4E720B18460A360B8
:10123000521B5A61DCE73460A360A446F8E7656995
:10124000DEF80030E9E700BF202300201023002053
:10125000002842D0F8B5044617F0B2F9064600F06F
:10126000DFF9054627480168002938D0264F4A692A
:101270003B68EB1A934213D9AD1A00233D604B61D2
:101280008C4218BF0A4603D136E09C420CD01A4665
:101290009368002BF9D1304617F096F90220F8BD7B
:1012A000D31A4B613D60EBE7A3689360A3687BB101
:1012B0000A4658696769384458618C4216D1BAB1F8
:1012C000536902201D4400F0DBF9284600F0AEF916
:1012D000304617F079F90020F8BD222070470A4BFC
:1012E00030461D6017F070F90220D8E7002AEFD1D0
:1012F000022000F0D3F9EBE7A2680260002ADCD0FC
:101300001346D6E7202300201023002098B391B382
:101310002DE9F0410E46054617F052F9074600F058
:101320007FF9224B1B6843B3DFF884805969D8F8F2
:101330000020821A8A422AD88A1A5A61C8F8000004
:101340006C6934609D4201D106E0D3B15A699B6853
:1013500014449D423460F8D100F062F9D8F80030AE
:10136000C01AA04219D300233360384617F02CF975
:101370000020BDE8F081222070470D4B6A69326081
:101380001860384617F020F90320BDE8F081401AB4
:101390000022C8F800005A61D2E700F041F9D8F8FD
:1013A00000203368801A1B1A3360DEE720230020F8
:1013B0001023002038B517F003F9054600F030F986
:1013C0000446284617F000F9204638BD014B18683E
:1013D000704700BF1C2300202DE9F84FC2070446C8
:1013E00000F19980A30701D4BDE8F88FDFF8A88148
:1013F000674F00F015F9D8F800500646451B17F066
:10140000DFF83C688246002C00F0AB8062699542B0
:10141000C0F0B8804FF00009C8F8006023462946A4
:1014200000E05A698A4209D8187994F804C08445C2
:1014300088BF1C469B68891A002BF2D1504617F0D2
:10144000C3F8D4F814A0C4F8149017F0B9F83A68A7
:1014500042B1A24203D17AE0A3422DD01A4693684A
:10146000002BF9D117F0B0F82369002B32D1E368D3
:1014700013B121682046984700F0D2F85644AD1BBE
:101480008346054417F09CF83C688246002C68D0DF
:101490006269AA425E46BFD9551B656102205D4460
:1014A000C8F800B000F0ECF8284600F0BFF850464D
:1014B000BDE8F84F17F088B8A3689360A1680029C9
:1014C000D0D04B69626913444B6117F07DF82369F2
:1014D000002BCCD017F074F83B6822696261864615
:1014E000002B37D04FF0000C00E0034659699142C1
:1014F00001D900293DD19868521A62619C460028A2
:10150000F3D19C60A06010B143699A1A42617046A1
:1015100017F05AF8ABE71F4A138801339BB21380C8
:1015200000F07EF81A4B1A684AB31B4953690D68DC
:10153000451B9D4211D9C01A002308605361C5188C
:10154000022000F09DF8284600F070F84AE7A168F4
:101550003960B4E73C60A360D9E75B1B5361086066
:10156000EDE7022000F09AF85046BDE8F84F17F07A
:101570002BB8BCF1000F07D13C601846C2E7064B00
:1015800018602FE7B34687E718466346B9E700BF00
:1015900020230020182300201023002010B586B03F
:1015A0001B4B93E8070003AC0C3303C493E8030020
:1015B0000B0C0190ADF808101648228001218DF81F
:1015C0000A30002414F03CF903A88DF80C408DF883
:1015D000104017F07BFE06A9012001F8144D17F00A
:1015E00041FE0D4A536A23F4FF6323F0070340F2E0
:1015F000FF71536201201162946017F061FE074B86
:101600004FF00042C3F880211A6006B010BD00BF41
:1016100080360200A00914000020064000E100E02E
:10162000014B9868704700BF00200640124B9A6833
:10163000596D9B695B0702D48B1A022B18D9831A48
:10164000012B98BF901C0C4BB0F1FF3F28BF01301D
:1016500058655A6A42F004025A62084B1A7832B14D
:1016600005490A6D002042F002020A6518707047B1
:101670009142F2D1E3E700BF002006401C000020A9
:101680008207054A00F00103516A48BF43F0040392
:101690000B435362704700BF00200640830700F0F1
:1016A000010209D5074B0849012018700B6D23F082
:1016B000030342F004020B6503494B6A23EA020369
:1016C0004B6270471C0000200020064010B516F049
:1016D00077FF0A4B9B695A07084A044603F001004A
:1016E00003F0070348BF40F002001362FFF774FEE7
:1016F0002046BDE8104016F067BF00BF002006403E
:10170000014815F021BE00BFA0091400B0FA80F016
:10171000704790FAA0F0B0FA80F0704790FAA0F00D
:10172000704700BF72B64EF62250CEF2000040F273
:10173000FF01C0F200010170002080F309884CF223
:101740007C70C2F20000016881F3088800F014F98F
:101750004CF6C820C2F200004CF6BC21C2F20001D7
:101760000A7802704CF6CC20C2F200004CF6D4216C
:10177000C2F200010A680260106880F30988EFF382
:10178000148040F0020020F0040080F31488BFF3BE
:101790006F8FBDE8F04F0FBCBDE8005006BC62B6CD
:1017A000084732484FF08051016070472F484FF092
:1017B00080510160704772B64CF6CC22C2F2000232
:1017C000116800290ED0EFF309801EF0100F08BF3A
:1017D00020ED108A20E9F04F4CF6CC25C2F200052E
:1017E00029680860744600F0C7F84CF6CC21C2F2B4
:1017F00000014CF6D420C2F2000003680B604CF6E6
:10180000C822C2F200024CF6BC21C2F200010878E4
:10181000107044F0040E002B0AD01868B0E8F04FA6
:101820001EF0100F08BFB0EC108A80F309881BE08F
:101830004CF27C71C2F200010868A0F11C0080F338
:10184000088840F20001C0F20011C16141F6710147
:10185000C0F20001816144F64D31C0F200014161E6
:101860004FF6F97ECFF6FF7E62B6704704ED00E0DA
:1018700008B5AFF3008000BFFDE700BF0A4A0B4B7D
:1018800012681B680A480B4902F18042013A03EBD7
:10189000820323F0070303600B6803F04043B3F1B6
:1018A000404F00D0FEE770472C2300202823002063
:1018B0007CC7002034EF00E0024B1B6803B11847DF
:1018C000704700BFC4CA0020024B1B6803B1184711
:1018D000704700BFDCCA0020024B1B6803B11847E9
:1018E000704700BFB0C70020F0B4049C214E02EB4B
:1018F000840222F007024FF0123542F8080C42F839
:101900001C3C42F8201C4FF003304FF002316FF0C6
:101910000203144642F8105C42F8140C4FF01135E3
:101920004FF0103042F8181C42F8243C4FF00931B7
:101930004FF008334FF0807742F8285C42F82C0CC7
:101940004FF007354FF0063042F8301C42F8343C77
:101950004FF005314FF0043342E90F0542F8047CA3
:1019600042F80C6C42F8401C44F8443D2046F0BC60
:10197000704700BF4D4B00000F4B1B7863B110B593
:101980000E4C2068C36E5BB100F04EFF0C4B1B6821
:101990007BB1BDE810401847094B1B6853B118478D
:1019A00000F060FF206800F03FFF054B1B68002B34
:1019B000EFD110BD704700BF16CB0020D4CA002065
:1019C00004CB0020704700BF2DE9F04182B016F033
:1019D000F7FD3E4C0546277801F026FF4028207091
:1019E00051D000EB4000DFF80081394E58F820302C
:1019F0003360402F51D0374B1B78B3B93368364A28
:101A000012689A424CD0354A21781368402903F174
:101A1000010313603ED0FFF7C4FE284616F0D4FD44
:101A2000BFF36F8F02B0BDE8F0812D4F3B68DB6ED6
:101A3000002BE3D001A92B48FFF768FC002835D024
:101A40003B68D96E0029D9D193F8333003EB4303B7
:101A50009B0008EB030758F80320786882420BD0FC
:101A6000D2F810C0604528D0CCF81410C2E9041098
:101A7000026148F803C07A60237803EB430358F807
:101A800023303360BBE7154A114913680020013346
:101A900013600860AFF30080BDE7AFF30080AAE7F2
:101AA000284616F091FD02B0BDE8F0813B68019A2E
:101AB000DA660C48FFF7CCFBC2E7C2E90410C0E9C4
:101AC000042148F803007A60D6E700BFBCCA0020B2
:101AD000D4CA002016CB0020CCCA0020E0CA0020C7
:101AE000A0C7002088C70020B8C70020F8B51E4B4B
:101AF0001B78012B00D0F8BD0E4616F061FD1B4B84
:101B00001B4C1B680025F56693F8337007EB470103
:101B1000890004EB010C6358DCF80420934209D0DF
:101B20001E69B24215D07561C3E904521361665053
:101B3000CCF8043016F048FD0E4B1B78012B00D07A
:101B4000FEE70D4B1B78002BD5D1BDE8F840FFF721
:101B50003BBF0C2101FB07F16618C3E90452C2E93F
:101B6000043562507360E5E716CB0020A0C7002063
:101B7000B8C70020B5C70020ACC70020F8B50446A0
:101B8000002800F0D080734D6B6883B128689A00FC
:101B9000002800F0CB8070490860704E704F3168AB
:101BA0003860704F70483B601144316002602A8990
:101BB000DAB102EB420292002346296B6B4803F034
:101BC000E1FE6B4A23781060002B40F09E802B8949
:101BD0006249684E0A683380674F684E03EB4303DF
:101BE0009B003B6013440B603060654E6B6B336051
:101BF000FFF744FEFFF768FA002840F08A8031685A
:101C0000B1F57A7F40F282804FF47A734FF0FF3261
:101C1000B2FBF1F203FB02F35A4A1360FFF7D6FB63
:101C2000336859494FF0FF32B2FBF0F203FB02F385
:101C30000B60FFF7CBFB3368984209D20922534966
:101C4000227040F2BB12C4E90112514BE360FEE77F
:101C5000504A51485149524F524E534D0023136040
:101C6000524A036020460B7013703B7033702B7028
:101C700002F086FF4E4923780A22B0FBF2F20A6096
:101C8000002B42D1374A126832B13549096819B17F
:101C9000013A41F8043BFBD1464A474B4748484983
:101CA000484F494E002515601D703D603560056048
:101CB0000D6001F0B1FD454B03F540721D81C3E994
:101CC00000550C339A42F9D12A4B4149414A1B88AD
:101CD0000D601580002B36D13F484049404A414FA6
:101CE000414E424D0023036020463B6033802B80F1
:101CF0000B60138002F03CFC237833B900F0E6FD62
:101D0000FFF760FE3A4B01221A70F8BD4FF0FF3327
:101D100082E701221D491E4B227040F2AF12C4E936
:101D20000112E360F8BD03F05BF82CE72346296B52
:101D3000304803F027FE084A23781060002BE4D1D6
:101D40006B689A0029E7204601F0D0F92378002B30
:101D5000C2D0F8BD2000002084C70020242300202A
:101D6000282300202C23002030230020AC36020042
:101D700080C70020382300203C230020342300208B
:101D8000402300204423002048230020C0360200C6
:101D90004C370200CCCA0020D4CA0020BCCA0020A4
:101DA000B5C70020ACC70020C8CA002016CB002051
:101DB000FCCA002004CB0020B4C70020B0C700201C
:101DC00008CB0020C4CA0020DCCA0020B8C700200D
:101DD00010CB00200CCB0020F4CA0020C0CA002089
:101DE000F8CA002018CB002014CB0020D0CA002055
:101DF000B8CA002098360200054B1B78012B00D092
:101E0000FEE7044B1B7803B17047FFF7DDBD00BF51
:101E1000B5C70020ACC7002070B50446D8B116F095
:101E2000D7FB064648B120221B49227040F20B32F4
:101E3000C4E90112194BE360FEE7194B1B78012B33
:101E40000CD002221449227040F20E32C4E9011271
:101E5000124BE360FEE702F0C3FFE0E7114D2B7881
:101E6000F92B09D91E220C49227040F21132C4E923
:101E700001120A4BE36070BD16F0A2FB2B78013310
:101E80002B7016F0A1FB0449044B26704FF44772E7
:101E9000C4E90112E360EEE7C036020054370200E5
:101EA000B5C70020ACC7002070B50446D0B116F00D
:101EB0008FFB48B12022274922704FF44D72C4E9AC
:101EC0000112254BE360FEE7244E3378012B0CD042
:101ED00002222049227040F23732C4E901121E4B1F
:101EE000E360FEE702F07CFFE1E71D4D2B784BB984
:101EF0001F221849227040F23A32C4E90112164BEF
:101F0000E36070BD16F05CFB2B78013BDBB22B70FD
:101F10002BB916F059FB3378012B0CD0FEE716F0E5
:101F200053FB2D220B490C4B227040F24232C4E984
:101F30000112E360E5E72B780BB9FFF745FD0022BE
:101F40000449054B22704FF45372C4E90112E36057
:101F5000D7E700BFC036020060370200B5C70020D7
:101F6000ACC70020F8B50446D0B1204B1E78012E36
:101F700009D013221E49227040F2DE32C4E9011258
:101F80001C4BE360FEE71C4B1B8863B90922184910
:101F9000227040F2E932C4E90112164BE360FEE719
:101FA00002F01EFFE1E7154D2B784BB11F221049BF
:101FB00022704FF47B72C4E901120E4BE360FEE71E
:101FC00001F032FC0C2303FB00F30D4A0D4FD358F4
:101FD0000D4C0E490E4A2E70387020700B60136045
:101FE000FFF7A0FBBDE8F84002F0FABEB8CA002037
:101FF000C036020070370200E4CA0020B5C70020D6
:10200000B8C70020BCCA0020C8CA0020D4CA00201B
:10201000CCCA00202DE9F04C83B0614B614E93F89F
:1020200000C03468002384F830100546174684F851
:102030003130BCF1000F3BD1002F42D1616994F8DF
:102040003300022384F83230236900295ED0564AD7
:1020500000EB400002EB80000289013A02810B6133
:10206000002B00F08680596100233268C4E90433F4
:10207000002D60D0AC68D562002C72D02B8A92F80B
:10208000330001332B82234693F8331081425DD80D
:102090005B6A002BF8D1E968C2E909314A62EA605B
:1020A000E3686968C2F8BC10EB6103B0BDE8F08C6E
:1020B0003E4A3F481268D366FFF7CAF83468002FDB
:1020C000BCD0FFF783F93B4B1A68002312F1FF3AAB
:1020D00043F1FF3BE0FB07AB504659461EF064FF5F
:1020E00000230146CDE90033334A234604F1500072
:1020F000FFF71EF808B102F073FE616994F833002F
:10210000032384F8323023690029A0D1002B3CD06E
:10211000254F00EB4000800007EB000CBCF80820C6
:10212000013AACF8082059613B5000233268C4E9F9
:102130000433002D9ED192F83030D562022B20D08E
:10214000072B0AD11D4BC2F8BC30AEE7996A91B19A
:10215000C2E909314A629A62A2E7194BC2F8BC305F
:10216000A3E701232B82C2E90944C5E902221446F0
:1021700096E7416078E7C2E9093114469A62AA609D
:102180008EE7104BC2F8BC308FE7074F00EB4002E0
:102190009200B918BB500B814B6001F06DFB63E7F7
:1021A00016CB0020CCCA0020B8C70020A0C7002052
:1021B00088C70020402300202D2600003C37020065
:1021C000483702003437020090F83210072901D94D
:1021D00002F006BEF8B501238B4013F033064FD151
:1021E000154613F0C00204464BD113F00C0F03D177
:1021F000BDE8F84002F0F4BDC36A0267A0F874209D
:10220000A3B19A68526A002A7DD0D0E90902002A57
:1022100000F085805062002800F084808262188A75
:10222000002201381882C4E90922E262032906D19A
:1022300004F15000FFF70CF808B102F0D1FD94F85A
:10224000330001F001FB3C4A94F8333012789A4293
:1022500039D003EB43039B00384AD158D0180029EA
:1022600054D00689002701360681C4E904174C6161
:10227000D450002384F8315084F8323084F8303060
:10228000F8BDC36A0667A0F874608BB19A68526A99
:1022900052B3D0E90902002A32D0506200283CD063
:1022A0008262188A002201381882C4E90922E26297
:1022B00007291CD00422002384F8315084F83220EE
:1022C00084F83030F8BD02EB420292001B49885876
:1022D0008B1848B31A895968013200201A81C4E961
:1022E00004010C615C60C4E7C3E90222D9E704F190
:1022F0005000FEF7ADFF0028DCD002F071FDD9E7F9
:1023000082629860CDE7C3E9022288E70126068150
:10231000C4E90411D4504460ABE7DA60C1E78262DB
:1023200098607CE7DA607AE701261E81C4E9040040
:102330008C505C609DE700BFC8CA0020B8C7002071
:10234000C16A8B685A6AE2B130B4D0E90924CCB1D1
:102350006262DAB194620D8A90F83340C162002261
:10236000C0E909220D8293F83320A24210D85B6A9B
:10237000002BF8D1CA68C0E909325062C86030BC8D
:1023800070477047946213468A60E4E7CC60E2E7E6
:102390009A6A2AB1C0E9093230BC5062986270472B
:1023A000C0E9093298628860E9E700BF0023C0E90C
:1023B00000330381704700BFC36A7BB19A68526AD9
:1023C0006AB1D0E909126AB1516271B18A62198A9F
:1023D000002201391982C0E90922C2627047C3E9AB
:1023E0000222F4E78A629960F1E7DA60EFE700BF62
:1023F00070B50C4691F8321005294FD804294CD2FB
:1024000001294AD92267A4F8743018B3E36AABB142
:102410009A68526A002A00F0B480D4E90912002AAE
:1024200000F09F805162002900F0B5808A62198A0D
:10243000002201391982C4E90922E2628368584AFC
:10244000C4F8BC20002B00F08480DB68C36194F8E2
:10245000321002E0524BC4F8BC30032970D094F81B
:10246000330001F0F1F94F4A94F8333012789A4270
:102470004BD003EB43039B004B4AD158D0180029A3
:1024800075D00589002601350581C4E904164C6123
:10249000D4500023238684F8323070BD072923D816
:1024A0002267A4F8743028B3E36A93B19A68526A39
:1024B000002A63D0D4E90912002A55D051620029BC
:1024C0006BD08A62198A002201391982C4E9092273
:1024D000E2628368324AC4F8BC20002B3DD0DB683E
:1024E000C36194F8321008E0FF29D6D0BDE87040EF
:1024F00002F076BC2A4BC4F8BC30072917D0002262
:102500000423228684F8323070BD02EB420292002E
:10251000254988588B18002836D01A895968013205
:1025200000201A81C4E904010C615C60B1E704F188
:102530005000FEF78DFE0028E1D002F051FCDEE7EE
:1025400004F15000FEF784FE002888D002F048FC19
:1025500085E7C26194F832107FE7C26194F83210C7
:10256000CBE78A62996062E78A629960AAE70125EF
:102570000581C4E90411D45044608AE7C3E902220A
:10258000A0E7C3E9022252E701251D81C4E9040046
:102590008C505C607DE7DA6049E7DA6092E700BF63
:1025A00048370200C8CA0020B8C7002070B50446EA
:1025B00090F8330001F048F91A4A94F83330127851
:1025C0009A420FD003EB43039B00174AD158D0180F
:1025D000C9B10589002601350581C4E904164C619D
:1025E000D45070BD02EB420292000F4988588B18FC
:1025F00080B11A895968013200201A81C4E90401A6
:102600000C615C6070BD01250581C4E90411D450E2
:10261000446070BD01251D81C4E904008C505C60DC
:1026200070BD00BFC8CA0020B8C70020F8B50C466E
:1026300015F0C6FF94F83230013B0646062B3DD814
:10264000DFE803F04C3C043C483C040094F8303094
:10265000042B08BFE36A4FF0000708BF5D6A2767D5
:10266000A4F87470204618BF0025FFF7A5FE94F863
:102670003230032B3DD0072B04BF042384F83230C3
:102680004FF440732386CDB195F8333095F834205C
:102690009A4213D094F833209A420FD1284601F081
:1026A00069F895F8343095F83320834228BF034603
:1026B000D9B28A4202D0284602F0ECF8304615F032
:1026C00083FF0E4B1B78012B00D0FEE70C4B1B78D1
:1026D0005BB1F8BD042384F83230EFE7002384F8BF
:1026E00032302046FFF762FFE8E7BDE8F840FFF729
:1026F0006BB9FFF75BFF84F83270C1E7B5C7002004
:10270000ACC7002070B490F833300C4A03EB43039D
:102710009B00D418D15849B125890026013525815F
:10272000C0E90416486170BCD0507047012525816E
:10273000C0E904116060D05070BC7047B8C7002079
:1027400030B490F833300D4903EB43039B00CA18B3
:10275000CC5854B113895168002401331381C0E966
:102760000441086130BC5060704701251581C0E903
:102770000444C850506030BC704700BFB8C7002048
:10278000D0E9003293420DD019698A420BD010B4BF
:1027900000244C61C3E9044213615DF8044BC0E9B5
:1027A0000013704770470021C3E90412C2E90431E5
:1027B000C0E90023704700BF70B504464169236932
:1027C00090F8330071B1174A00EB400002EB800033
:1027D0000289013A02810B619BB159610023C4E96E
:1027E000043370BD93B10F4D00EB400080002E18F4
:1027F0003289013A328159612B500023C4E90433F4
:1028000070BD00234160C4E9043370BD054D00EB89
:1028100040029200A918AB500B814B6001F02CF8DC
:10282000DCE700BFB8C7002018B10A4B1B78012BAA
:1028300000D0704710B582B004460023C16E064A2E
:102840000648CDE900332346FEF772FC044B1C60BA
:1028500002B010BD16CB0020ED1A000088C7002082
:10286000A0C7002018B1164B1B78012B00D0704771
:102870002DE9F041856E04467DB1FEF7A7FD114BB1
:102880001A680027561EE0FB0567304639460023CC
:102890001EF08AFBE066BDE8F0810B4BD3F80080A8
:1028A000FEF794FD074B1A680027561EE0FB0867E9
:1028B0002B46304639461EF077FBE066BDE8F081D6
:1028C00016CB002040230020FCCA002030B482B088
:1028D000754B764C1B7876487649774A774DDBB254
:1028E0008DF805302368764CDBB28DF8073003781D
:1028F0007448DBB28DF805300B787349DBB28DF884
:1029000005301368714ADBB28DF807302B6A704DC1
:10291000DBB28DF8073023786E4CDBB28DF80530D2
:1029200003786D48DBB28DF805300B886B49DBB25C
:102930008DF8063013886A4ADBB28DF806302B78A2
:10294000684DDBB28DF805302388674CDBB28DF81B
:10295000063003886548DBB28DF806300B88644981
:10296000DBB28DF8063092F82830624ADBB28DF87F
:1029700007302B78604DDBB28DF8053023885F4C33
:10298000DBB28DF8063003885D48DBB28DF8063087
:102990000B885C49DBB28DF8063013885A4ADBB2EB
:1029A0008DF806302B88594DDBB28DF80630238820
:1029B000574CDBB28DF80630438D5648DBB28DF8AC
:1029C00007300B785449DBB28DF805301388534A31
:1029D000DBB28DF806302B78514DDBB28DF8063026
:1029E000236A504CDBB28DF8073003784E48DBB2D7
:1029F0008DF805300B884D49DBB28DF80630138811
:102A00004B4ADBB28DF806302B684A4DDBB28DF8AD
:102A100007302378484CDBB28DF8063003784748FE
:102A2000DBB28DF805300B784549DBB28DF8053007
:102A30001378444ADBB28DF805302B78424DDBB277
:102A40008DF805302378414CDBB28DF805300378E2
:102A50003F48DBB28DF805300B883E49DBB28DF87C
:102A6000063013783C4ADBB28DF805302B88DBB298
:102A70008DF806302388DBB28DF806300378DBB2A0
:102A80008DF805300B88DBB28DF806301388DBB289
:102A90008DF806309DF805309DF806309DF807301A
:102AA00002B030BC704700BF600000205C00002016
:102AB0005900002058000020640000204C23002012
:102AC00068000020702300206A0000206C000020B5
:102AD0006E000020740000207000002072000020B2
:102AE0007423002076000020780000207A00002067
:102AF0007C0000207E00002080000020820000205A
:102B0000A0230020840000208600002090000020E8
:102B1000D023002091000020920000208800002097
:102B20008C00002095000020F42300209400002059
:102B300098000020990000209A000020F523002032
:102B40009C0000209E00002096000020A000002095
:102B5000F6230020F8230020A20000202DE9F843EE
:102B60000546894690461C46002B39D015F030FDAD
:102B7000064640B12022204922705522C4E90112A4
:102B80001E4BE360FEE775B315F01AFD24223146B3
:102B9000074628461EF01BFC194B2B60C5F8049015
:102BA000C5F8208005F10800FFF700FC1549164A1A
:102BB0000B686E61C5E9063203B15D61134A0D60B1
:102BC000138838460133138015F0FEFC00220A49B1
:102BD0000A4B22707022C4E90112E360BDE8F88359
:102BE00002F0FEF8C2E70A22034922705822C4E923
:102BF0000112024BE360FEE778370200EC37020077
:102C0000464C414710CB0020483702000CCB002037
:102C10002DE9F04F83B00D9C019205460E469B4670
:102C2000D4B115F0D5FC48B12022B249227040F24F
:102C30002F12C4E90112B04BE360FEE7AF4B1B78E3
:102C4000012B0CD00222AB4922704FF49972C4E9D7
:102C50000112A94BE360FEE702F0C2F8E1E7002DA4
:102C600000F0198147F6FF630BEA03035A1E012A9D
:102C70000DD9042B0BD0082B09D008229D492270B6
:102C800040F24712C4E901129B4BE360FEE79C4B04
:102C90002A689A4209D00C22964922704FF4A572F4
:102CA000C4E90112944BE360FEE70C9B0BF4807ABD
:102CB00013B10C9A0023136015F082FC0BF00F087F
:102CC000B8F1040F814600F0CD80B8F1080F44D16F
:102CD0002A6A12EA060719D0BAF1000F02D022EAD6
:102CE00007022A62874A12684846C2F8987015F0AF
:102CF0006BFC00227F4922704FF4C872C4E90112B4
:102D00007D4BE360384603B0BDE8F08F1BF4004F05
:102D100040F09C807C4A1378002B40F08B80794FE8
:102D2000019A38680121C0F89460A0F89CB0C0F8FE
:102D300098302846FFF76EF9484615F045FCFFF736
:102D40005BF815F03DFC3B6893F831300646032BE9
:102D500053D8DFE803F033271B0815F035FC694F23
:102D600002F03EF8EBE70C9B13B10C9A00231360C2
:102D7000304615F029FC22225E49227040F22B22B7
:102D8000C4E901125C4BE3600027BBE715F01CFCB3
:102D900031225849584B227040F23622C4E90112C0
:102DA000E360F1E715F010FC21225249524B2270EA
:102DB00040F22222C4E90112E360E5E70023DFF8D4
:102DC00034B1237040F21723C4E901B3DFF828912E
:102DD000C4F80C903B68D3F89870BAF1000F18D182
:102DE000304615F0F1FB002240F25923C4F804B03C
:102DF000C4F80C902270A36084E715F0E5FB01F0A5
:102E0000EFFF2378002BBFD1DFF8E8B0DFF8E890C0
:102E1000E0E7B8F1040F02D0B8F1080F04D12B6A33
:102E200023EA07032B62DBE7304615F0CDFB01F008
:102E3000D7FFD5E715F0C8FB2D222E492E4B227067
:102E40004FF4CF72C4E90112E3605BE715F0BCFBFD
:102E50001D222849284B227040F29712C4E9011222
:102E6000E3604FE72A6A36EA02032BD01BF4004FD7
:102E70001BD1254A1378002B3FF451AF15F0A4FB6A
:102E80002D221C491C4B22704FF4BA72C4E9011266
:102E9000E360002736E70A221649227040F2351215
:102EA000C4E90112144BE360FEE715F08DFB1D220F
:102EB0001049114B227040F26D12C4E90112E36017
:102EC00000271FE7BAF1000F02D022EA06022A62A9
:102ED0000C4A12684846C2F8986015F075FB00224B
:102EE0000449054B22704FF4B3723746C4E901120E
:102EF000E36007E778370200FC370200B5C700201F
:102F0000464C4147CCCA0020ACC7002010B590F811
:102F10003230C0F898100022072B0446028617D8DA
:102F200001229A4012F0330F0DD112F0C00F16D1CA
:102F300012F00C0F0CD0032B19D02046FFF736FBF4
:102F4000002384F832302046BDE81040FFF734BA41
:102F500001F046FF2046BDE81040FFF72DBA0423DC
:102F600080F832302046BDE81040FFF725BA5030D7
:102F7000FEF76EF90028E0D001F032FFDDE700BF78
:102F80002DE9F84305460E4617461C461BB3534B26
:102F90001B78012B09D002225149227040F21232D3
:102FA000C4E901124F4BE360FEE7002D00F08B8077
:102FB000012F7ED9B7F5004F52D048F201039F424E
:102FC0000CD008224649227040F21B32C4E901129B
:102FD000444BE360FEE701F003FFD8E7424B2A6869
:102FE0009A4209D00C223E49227040F21E32C4E9B6
:102FF00001123C4BE360FEE715F0E2FA80462B6AD3
:1030000023EA06032B62AE68002E45D0B6F89C304A
:10301000D6F8249003F00F03042B2CD0082B35D1C5
:103020002B6AD6F8941019402BD14E46002EEDD1C4
:10303000404615F0C9FA3B0401D4FEF7DDFE15F059
:10304000BFFA2D6A15F0C0FA00222549227040F21D
:103050008132C4E90112234BE3602846BDE8F883BE
:10306000214B2A689A42BDD115F0AAFA80462B6AF4
:1030700033432B62C7E7D6F894102B6A31EA030377
:10308000D3D130460022FFF741FFCEE7404615F08E
:103090009BFA01F0A5FEC8E7404615F095FA1049E5
:1030A000104B2D6A26704FF45072C4E90112E36090
:1030B000D3E70D4B2A689A4294D115F081FA012F7B
:1030C00080469CD0D3E70A220549227040F215328F
:1030D000C4E90112034BE360FEE700BFB5C700205F
:1030E0007837020008380200464C414770B4184B4C
:1030F000184A1E881568012E27D0B21E92B202EB24
:10310000420405EB840405F10C031834002123F874
:10311000041C43E903310C33A342F8D1013202EB22
:10312000420205EB82030C490C4C0022C3E9002249
:103130001A810D605D230A4D8E80CA800A81C560A8
:10314000C0E90143027070BC70472B46EBE700BF3B
:103150003823002034230020E8CA0020143802005D
:10316000883802000346408998B170B4094A19684A
:10317000D588948816680E60596811602D1A044429
:103180000021D5809480C3F80A10C3E9001170BCF7
:1031900070477047E8CA0020002383600360018104
:1031A0004360C360704700BFF0B40446408900B379
:1031B00065682A682E8968680E806260BAB1628983
:1031C000013A92B2104962818E88CA880C682C60DC
:1031D0000E4F0D60741C8C80013AD424CA80C3E960
:1031E000017400260A4A1E70DA60F0BC7047226043
:1031F000E8E7064C08800F25054A1D70B921C3E990
:103200000141DA60F1E700BFE8CA0020143802008B
:10321000983802002DE9F04346890589089CB5429B
:1032200046D92F4DB5F804E0BEF1000F35D0D5F8E2
:1032300000C0B5F80690DCF80070B5F808802F6083
:1032400009F10107BFB20EF1FF3EB845A5F804E051
:10325000EF8038BF2F81002E34D013F0100338D107
:103260000568C5F800C0C0F800C0CCF800300136D1
:10327000B3B2438185899D4238BF83811948CCF818
:10328000041000254FF49871174BACF808202570F6
:10329000C4E90101E360BDE8F08311221149124B3A
:1032A00022704FF48272C4E90112E360BDE8F0833A
:1032B0001E220C490C4B2270FF22C4E90112E3606C
:1032C000BDE8F0830123C0E900CC4381CCF8006065
:1032D000D0E74368CCF80030C0F804C0C7E700BFAF
:1032E000E8CA002014380200A43802002DE9F04199
:1032F000054688461446002A36D015F069F9064678
:1033000040B120221E4922705222C4E901121D4BF5
:10331000E360FEE75DB315F053F92C223146074612
:1033200028461EF054F8184B05F10800C5E900388E
:10333000FFF73CF81549164A0B686E61C5E906327D
:1033400003B15D61134A0D60138838460133138061
:1033500015F03AF900220A490A4B22706C22C4E99E
:103360000112E360BDE8F08101F03AFDC5E70A22F1
:10337000034922705522C4E90112024BE360FEE7C3
:10338000B0380200243902004D55545818CB0020A3
:103390004837020014CB00202DE9F047089C054671
:1033A00089469246D4B115F013F948B120227649E6
:1033B000227040F22D12C4E90112744BE360FEE763
:1033C000734B1F78012F0CD002226F4922704FF4EB
:1033D0009872C4E901126D4BE360FEE701F000FD55
:1033E000E1E7002D00F0B980CAF30E034BB10822CB
:1033F0006549227040F23712C4E90112634BE36061
:10340000FEE7644B2A689A4209D00C225E4922707A
:103410004FF49D72C4E901125C4BE360FEE715F0C6
:10342000CFF895F828608046002E00F083805A4F30
:103430006B6A3A6893426CD01AF4004F5DD15749D9
:103440000978F1B992F8331093F833208A4202D9FF
:10345000184601F01FFA4A4604212846FEF7DAFD15
:10346000404615F0B1F8FEF7C7FC15F0A9F83B6827
:1034700093F831300546032B3CD8DFE803F03127C1
:103480001D0F15F0A1F82D223F49227040F2751250
:10349000C4E901123D4BE360BDE8F08722223A49BE
:1034A000227040F2A712C4E90112384BE3602846AB
:1034B000BDE8F04715F088B831223349334B22700C
:1034C00040F2B112C4E90112E360F0E721222E4973
:1034D0002E4B227040F29D12C4E90112E360E6E730
:1034E00000222949294B227040F29312C4E90112AB
:1034F000E360DCE701F074FCD9E715F065F81D2204
:103500002149224B227040F26912C4E90112E360A2
:10351000C2E7FF2E2BD0013685F8286015F054F84D
:1035200023221949194B22704FF4AE72C4E90112DB
:10353000E360B1E7184B85F828701B686B629A6BE3
:103540002A629D6315F040F80F49104B267040F237
:103550004712C4E90112E3609EE70A220A49227079
:1035600040F23312C4E90112084BE360FEE715F0A4
:103570002BF81E220449054B22704FF4A872C4E9AF
:103580000112E36088E700BFB0380200343902005E
:10359000B5C700204D555458CCCA0020ACC70020F8
:1035A0002DE9F04782B0054688461446D2B115F0A1
:1035B0000FF848B120226949227040F24522C4E93F
:1035C0000112674BE360FEE7664B1B78012B0CD0C2
:1035D0000222624922704FF41272C4E90112604B58
:1035E000E360FEE701F0FCFBE1E795B3C8F30E03EF
:1035F0004BB108225949227040F24F22C4E901120E
:10360000574BE360FEE7584B2A689A4209D00C22D8
:103610005249227040F25222C4E90112504BE36039
:10362000FEE7DFF84CA114F0CBFFDAF800206B6A5C
:103630009342814617D014F0C7FF1B2247492270DE
:1036400040F25722C4E90112454BE36002B0BDE8E5
:10365000F0870A224149227040F24B22C4E901124C
:103660003F4BE360FEE795F82820013AD2B285F897
:1036700028204AB99A6B03F138019542106A0FD09D
:1036800002F120010246F8E714F09EFF232233499D
:10369000334B22704FF41A72C4E90112E360D5E78C
:1036A000AE680860002E4AD093F8330093F8347067
:1036B000B84224D09A6B3F215AB1D2F808C0BCF16D
:1036C000000F04D09CF833C0614528BF6146126AE0
:1036D000F2E78F4228BF0F46B84210D21846FFF7D4
:1036E0006BF8DAF80030384683F8337000F0ACF845
:1036F000DAF80000FFF724F81C4BAE681F700123B6
:1037000085F82830B26B2A6200236E623146B563B9
:10371000284600931A46FEF76BFE484614F054FF05
:1037200018F4004F01D1FEF767FB00220B490C4B48
:1037300022704FF42672C4E90112E36086E76E62DC
:1037400085F82860484614F03FFF0449044B267072
:1037500040F27522C4E90112E36077E7B038020055
:1037600040390200B5C700204D555458C8CA002042
:10377000CCCA0020836B3F2053B19A6822B192F8E3
:103780003320904228BF10461B6A002BF5D17047AA
:10379000704700BF826B002A3DD02DE9F04182B016
:1037A000054600F13808104682424FF001074FF0FD
:1037B0000006046A01D11EE01A46136A8342FBD157
:1037C0002032D0F808C01460BCF1000F1AD080F885
:1037D0002870DCF838200262002345626146CCF88C
:1037E00038001A460096FEF703FE8CB1AA6B2046FD
:1037F0008242046AE1D14246D0F808C01460BCF1AC
:10380000000FE4D180F828C0C0F824C0002CEDD10E
:1038100002B0BDE8F0817047024B0022C3E90022EC
:10382000704700BFA4C7002008B5064B186818B140
:10383000FDF76CFFC0B208BD5868FDF767FF203088
:10384000C0B208BDA4C700201F280A4A08D9516881
:10385000C0F13F00012303FA00F0084350607047B5
:103860001168C0F11F00012303FA00F00843106043
:10387000704700BFA4C700201F280B4909D94B6817
:10388000C0F13F00012202FA00F023EA00034B607E
:1038900070470B68C0F11F00012202FA00F023EA12
:1038A00000030B60704700BFA4C700202DE9F84358
:1038B0000546894617461C46C3B114F089FE0646E4
:1038C00040B120222D4922705822C4E901122C4B0C
:1038D000E360FEE7002D48D05FB908222749227037
:1038E0005E22C4E90112264BE360FEE701F078FA9C
:1038F000E3E7244B1B88BB4208D208221F492270F1
:103900006122C4E901121E4BE360FEE714F058FE89
:1039100030223146804628461DF059FD1A4B2B6057
:10392000394605F12000C5F80490FFF735FC05F194
:103930000800FEF73BFD1549154A0B686E61C5E9A5
:10394000063203B15D61134A0D60138840460133AE
:10395000138014F039FE00220849094B22707822A6
:10396000C4E90112E360BDE8F8830A22034922702A
:103970005B22C4E90112024BE360FEE74C3902000E
:10398000BC3902003823002051554555F4CA0020A7
:1039900048370200D0CA00202DE9F84FDDE90A843B
:1039A00081468B4692461F46D4B114F011FE48B1B1
:1039B00020226A49227040F25312C4E90112684B76
:1039C000E360FEE7674B1B78012B0CD002226349B2
:1039D00022704FF4AB72C4E90112614BE360FEE761
:1039E00001F0FEF9E1E7B9F1000F58D0002F4CD0FB
:1039F000CAF30E034BB10822584922704FF4B0723B
:103A0000C4E90112564BE360FEE7574AD9F80010AB
:103A1000914209D00C225149227040F26312C4E94C
:103A200001124F4BE360FEE7B8F1000F01D0C8F878
:103A3000003014F0C5FD234606464246394609F1DA
:103A40002000FFF7B1FB23780546002B42D01AF483
:103A5000004F66D1454B1B78002B70D15A4605218B
:103A60004846FEF7D7FA304614F0AEFDFEF7C4F92B
:103A700014F0A6FD3E4B1B6893F831200646032A3E
:103A80004AD8DFE802F040392D160A223349227065
:103A90004FF4AE72C4E90112314BE360FEE70A2233
:103AA0002E49227040F25912C4E901122C4BE360F6
:103AB000FEE700233B80B8F1000F01D0C8F80030CA
:103AC00022222649227040F2AD12C4E90112244B91
:103AD000E3600025304614F077FD2846BDE8F88FF6
:103AE00000251E493D80312340F2B91223701C4B42
:103AF000E360C4E90112EDE70025212317493D8069
:103B000040F2A312F2E7B3F874201D6F13493A8014
:103B1000002340F29712E9E700253D8001F060F9AB
:103B2000D8E7304614F050FD1D220C490C4B227092
:103B300040F27712C4E90112E3600025CDE7304678
:103B400014F042FD2D220549054B22704FF4BF723F
:103B5000C4E90112E3600025BFE700BF4C39020051
:103B6000C8390200B5C7002051554555ACC70020E3
:103B7000CCCA00202DE9F04F83B00C9C0546884646
:103B800091461E460CB33A4B1B78012B09D00222FA
:103B9000384922704FF41772C4E90112364BE360C2
:103BA000FEE7002D4AD026F404739BB283B9334B51
:103BB0002A689A4219D00C222E4922704FF41B72A7
:103BC000C4E901122C4BE360FEE701F009F9DAE7E2
:103BD000B3F5004FEBD008222649227040F269224B
:103BE000C4E90112244BE360FEE714F0E9FCA96884
:103BF000074669B306F4007A0023D1F824B0009395
:103C000042464B462846FEF7F3FBBAF1000F02D0BE
:103C100059460029F0D1384614F0D6FC330401D4BB
:103C2000FEF7EAF800221349134B22704FF4287272
:103C3000C4E90112E36003B0BDE8F08F0A220D4928
:103C4000227040F25F22C4E901120B4BE360FEE7F1
:103C5000CDE9001405F1200006F010034A46414664
:103C6000FFF7D8FA384603B0BDE8F04F14F0ACBC0B
:103C7000B5C700204C390200D039020051554555D6
:103C80002DE9F8430546884691461C46002B38D05E
:103C900014F09EFC064640B1202220492270582292
:103CA000C4E901121E4BE360FEE76DB314F088FC1B
:103CB00024223146074628461DF089FB194BC5F8DA
:103CC0002090C5E9003805F10800FEF76FFB1649A2
:103CD000164A0B686E61C5E9063203B15D61144A8C
:103CE0000D60138838460133138014F06DFC0022F8
:103CF0000A490B4B22707322C4E90112E360BDE84C
:103D0000F88301F06DF8C3E70A22044922705B22B0
:103D1000C4E90112024BE360FEE700BFD83902009C
:103D2000543A020053454D41C0CA002048370200B2
:103D3000F8CA00202DE9F04105460E461446CAB1E6
:103D400014F046FC074640B120225B492270A822AD
:103D5000C4E90112594BE360FEE7594B1B78012B74
:103D60000BD0022254492270AB22C4E90112534BFA
:103D7000E360FEE701F034F8E2E705B3514B2A684F
:103D80009A4208D00C224C492270B122C4E9011297
:103D90004A4BE360FEE714F013FC8046002E49D046
:103DA000012E3CD1D5F808C0BEB2022200216046E7
:103DB0000137BCF1000F0BD0FEF706FAF2E70A223A
:103DC0003D492270AE22C4E901123C4BE360FEE79C
:103DD000D5E90523002A53D09361002B4ED05A61B8
:103DE000C5E905CC384A3949138839486860013B30
:103DF0000027138005F1080029602F62FEF7D6FA2C
:103E0000404614F0E1FBFDF7F7FF2B492B4B2770E1
:103E1000DC22C4E90112E3603046BDE8F08114F011
:103E2000D3FB082224492270E122C4E90112234B6A
:103E3000E360FEE7AB68002B33D1D5E905234AB335
:103E40002BB393615A61C5E905661F4A1F49138860
:103E50001F486860013B0026138005F108002960B7
:103E60002E62FEF7A3FA404614F0AEFB1249134B44
:103E70002670C022C4E90112E360CDE76B61B1E7AF
:103E800014490B6003B15A610023AB61AAE7966144
:103E90006E61DAE70F4A136003B15E610023AB6124
:103EA000D3E714F091FB2E220349044B2270C32266
:103EB000C4E90112E360AFE7D8390200603A0200BA
:103EC000B5C7002053454D41F8CA00204E4F4E451E
:103ED0004C3A0200C0CA00202DE9F047089C064673
:103EE0008A461746D4B114F073FB48B120225F49CB
:103EF00022704FF48E72C4E901125D4BE360FEE75D
:103F00005C4B1B78012B0CD002225849227040F2E6
:103F10001F12C4E90112564BE360FEE700F060FF98
:103F2000E1E7002E3FD0C7F30E08B8F1000F09D02B
:103F300008224E4922704FF49372C4E901124C4B8F
:103F4000E360FEE74C4B32689A4209D00C224749A5
:103F5000227040F22912C4E90112454BE360FEE7EA
:103F600014F02EFB356A8146002D71D13B0463D4D9
:103F7000424B1B78002B53D1524606213046FEF7A8
:103F800049F8484614F020FBFDF736FF14F018FB03
:103F90003B4B1B6893F831300546032B3BD8DFE8D9
:103FA00003F030261C0C0A22304922704FF4917223
:103FB000C4E901122E4BE360FEE722222B49227056
:103FC0004FF4BD72C4E90112294BE3602846356AFB
:103FD00014F0FAFA2846BDE8F08731222349244B31
:103FE00022704FF4C272C4E90112E360EEE72122AD
:103FF0001E491F4B22704FF4B872C4E90112E360EE
:10400000E4E7002219491A4B22704FF4B372C4E955
:104010000112E360DAE714F0D7FA00F0E1FED5E729
:1040200014F0D2FA2D221149114B227040F24F1296
:10403000C4E90112E360CDE714F0C6FA1D220B4972
:104040000B4B227040F24312C4E90112E360C1E756
:10405000013D356214F0B8FA0449054B84F800803C
:1040600040F23512C4E90112E360B3E7D839020027
:104070006C3A0200B5C7002053454D41ACC7002043
:10408000CCCA00202DE9F04F83B00746884614467D
:1040900012B3414B1B78012B09D002223F492270F9
:1040A00040F21322C4E901123D4BE360FEE7002F0A
:1040B0004AD047F6FF5318EA030510D1394B3A6846
:1040C0009A4216D00C223549227040F21F22C4E9D0
:1040D0000112334BE360FEE700F082FED9E70822CD
:1040E0002E4922704FF40772C4E901122C4BE36091
:1040F000FEE714F065FABE6881467EB308F4007AE4
:104100000023D6F824B000951A4631463846FEF70B
:104110006FF9BAF1000F02D05E46002EF0D148468A
:1041200014F052FA18F4004F01D1FDF765FE1B4957
:104130001B4BE36040F24F22C4E9011200252570B9
:10414000284603B0BDE8F08F0A221449227040F2DD
:104150001622C4E90112124BE360FEE73D6A6B1CB4
:104160000CD001353D6214F02FFA0C490C4B26702F
:1041700040F23922C4E90112E360E1E714F024FAC5
:104180001E220649064B227040F22E223546C4E913
:104190000112E360D4E700BFB5C70020D8390200A0
:1041A000783A020053454D412DE9F04105468846D5
:1041B0001446DAB114F00CFA48B1202220492270DA
:1041C00040F27122C4E901121E4BE360FEE74DB3D9
:1041D0001D4B2A689A420CD00C221949227040F2D9
:1041E0007722C4E90112174BE360FEE700F0F8FD07
:1041F000E0E7134F134E207040F27923C4E90173B6
:10420000E66014F0DDF92B6AB3B9AB68A3B12E22D6
:1042100040F282236760E6602270A360BDE8F0414F
:1042200014F0D2B90A22064922704FF41D72C4E973
:104230000112044BE360FEE7C5F82080EEE700BF03
:10424000D8390200843A020053454D412DE9F84324
:1042500081460E461C46D3B114F0BAF948B120226B
:104260005049227040F2DA42C4E901124E4BE36039
:10427000FEE74E4B1B78012B0CD0022249492270DD
:1042800040F2DD42C4E90112474BE360FEE700F073
:10429000A7FDE1E716B3B6F5004F09D00822414962
:1042A000227040F2E142C4E901123F4BE360FEE7B5
:1042B00014F086F93E4B1B685D6C0746002D40D11B
:1042C00014F082F91D223749227040F20252C4E9EB
:1042D0000112354BE3602846BDE8F883DFF8D08053
:1042E00014F06EF9D8F800305D6C07464DBB314BC9
:1042F0001B78002B4AD14A4607213046FDF78AFE3B
:10430000384614F061F9FDF777FD14F059F9D8F843
:10431000003093F83130012B05462DD023D3032BE9
:104320001ED122221F49227040F24152C4E90112DB
:104330001D4BE360D8F8003028465D6C14F044F95A
:10434000C9E7013D5D64384614F03EF90022154985
:10435000154B227040F2F542C4E90112E360BAE75E
:1043600000F03EFDE6E70F490F4B267040F22D525C
:10437000C4E90112E360DDE721220A490A4B2270F9
:1043800040F23752C4E90112E360D3E714F01CF99C
:104390002D220449044B227040F20E52C4E901124E
:1043A000E36098E7903A0200283B0200B5C700207E
:1043B000CCCA0020ACC700202DE9F04782B00646E9
:1043C0008A461446D2B1444B1B78012B09D00222F5
:1043D0004249227040F2BB52C4E90112404BE360F3
:1043E000FEE7CAF30E0363B108223C49227040F293
:1043F000BF52C4E901123A4BE360FEE700F0F0FC63
:10440000E1E714F0DDF807460EB9364B1E68DFF819
:10441000D080DFF8C890C4F804904FF4BA63C4E9C0
:1044200002380025257096F83230052B13D8042B5E
:1044300047D2012B45D996F83030072B30D0756C18
:104440006B1C19D001357564384614F0BDF8284648
:1044500002B0BDE8F087072BEDD9FF2B1AD1384603
:1044600014F0B2F81F2240F23963C4F80490C4F883
:104470000C802270A360EAE7384614F0A5F81E22EB
:1044800040F22663C4F80490C4F80C802270A36044
:104490000025DCE7384614F097F800F0A1FCD6E7D9
:1044A0000023184600931A463146FDF7A1FF38460F
:1044B000756C14F089F81AF4004FC8D1FDF79CFC14
:1044C000C5E7756C6A1CBDD1384614F07DF81E2214
:1044D00040F2EF53D6E700BFB5C70020903A020084
:1044E000383B0200CCCA0020F8B505460F461446FA
:1044F00042B314F06DF848B120221A49227040F2FC
:104500006462C4E90112184BE360FEE714F058F846
:104510000DB9164B1D6895F832309B0703D595F8F9
:104520003030072B11D06E6C6F6414F04DF8002200
:104530000C49227040F27562C4E901120A4BE36033
:104540003046F8BD00F04CFCD3E714F03DF82E22C5
:104550000449054B227040F26E62C4E90112E36027
:104560000026EDE7903A0200483B0200CCCA00204A
:1045700030B4084B084C0949094A436040F2FD73C6
:10458000084D836000232360C5600B80136030BC3E
:1045900003707047903A0200D8CA0020E4CA002095
:1045A000E0CA0020583B020010B50446C02200219A
:1045B0001CF00DFF164BE360002104F17800FEF7BC
:1045C000EBFD4FF08043402123630023114A84F820
:1045D000341084F8A83084F84830C4F8BC20C4F8FB
:1045E0009430A4F89C30C4F89830C4E92833C4E966
:1045F0002233C4F890306364E363C4E92B33A4F836
:104600004030E364C4E91A33A363C4E92D3310BD19
:10461000043B0200483702002DE9F04F89B0DDE984
:1046200013650395BDF858500495DDE917951A9C5C
:1046300006959DF848A0159FBDF864800591054634
:104640009346029314B313F0C3FF40B1202288496C
:104650002270F022C4E90112864BE360FEE7002DD0
:1046600000F0FC80BBF1000F00F0EF80002E00F0A6
:10467000E380814A1268BA420BD908227C49227031
:10468000FC22C4E901127B4BE360FEE700F0A8FBCB
:10469000D9E7039A974208D8082275492270FF2269
:1046A000C4E90112734BE360FEE7BAF13F0F09D989
:1046B00008226F4922704FF48172C4E901126D4BD8
:1046C000E360FEE76D4A049912888A4209D2082203
:1046D000674922704FF48372C4E90112654BE360AD
:1046E000FEE707902846FFF75FFF079B604A2370AD
:1046F00040F20B13C4E9012318F0030F5D4BE36094
:1047000040F08D80039B029923F0070306EB83039F
:10471000CDE90078324658460393FDF7E5F8864226
:104720000CD9534B636032224FF494735149E160CA
:104730002270A360079000F053FB0798029B2B6246
:10474000059BEB60039BC5F81CB085F833A085F88A
:1047500034A02860AB60C5F86890B9F1000F46D16D
:10476000474B1C68FCF732FE464B1A684FF0000BB3
:1047700002F1FF3AE0FB04AB4B46504659461CF0B1
:1047800013FCE866069B6B6000240499AE6105F19A
:104790007800EF63A5F84080C5E92244C5F8904051
:1047A000FEF7FAFC2846FDF787F813F009FF0646E6
:1047B00095F83300FFF748F82846FDF7C1FF324966
:1047C000C5F8B4400B68C5F8B8300BB1C3F8B450A5
:1047D0002E4A2F48138800780D600133012813807A
:1047E000304615D009B0BDE8F04F13F0EDBEFCF730
:1047F000EDFD244B1A684FF0000B02F1FF3AE0FB8D
:1048000009AB5046594600231CF0CEFBE866B9E7D9
:1048100013F0DAFE09B0BDE8F04FFDF7EDBA18F07D
:10482000020F3FF46FAF00231A46BB423FF46AAF5A
:1048300046F823200133F8E70A220D492270F922B5
:10484000C4E901120B4BE360FEE70A22084922701B
:10485000F622C4E90112074BE360FEE70A2204498D
:104860002270F322C4E90112024BE360FEE700BFAD
:10487000903A02000C3B02009436020038230020DC
:10488000FCCA002040230020D8CA0020E4CA00202F
:10489000B5C70020F8B590F8336004460D460127EF
:1048A00094F83230052B35D8042B30D2012B2ED082
:1048B00010D82046FDF780FF284684F83350FEF7D5
:1048C000C3FF264B1B68A342204630D0BDE8F8400A
:1048D000FDF736BF94F8303084F83350082B1DD8DC
:1048E00007FA03F313F4B17F33D113F0840F10D11F
:1048F000DB0613D52046FDF723FDE36AB5425C6A6B
:1049000010D394F83330B34215D01E46C8E784F86C
:104910003350F8BD072BDDD9FF2BFAD0BDE8F840A6
:1049200000F05EBA94F83360AE42B9D8F8BDBDE885
:10493000F840FDF7E7BE2046FEF71CFF94F8345020
:1049400094F83360854228BF0546EDB2AE42A7D148
:10495000F8BD2046BDE8F840FDF7F2BCCCCA002007
:104960002DE9F0470D4630B913F02AFE5B4B1C6869
:1049700013F02AFE00E0044613F022FE94F83230D1
:10498000DFF86491DFF86481042B824666D006D894
:10499000012B26D016D82046FDF70EFF5EE0072B30
:1049A00002D8062B1DD30DE0FF2B53D113F00CFEC4
:1049B0001F2240F20523C5F80490C5F80C802A7028
:1049C000AB604BE094F83020082A40D80123934094
:1049D00013F0850F0BD094F8323003F0FB03032B58
:1049E0003CD104F15000FCF733FCB8B334E013F4CD
:1049F000B17F02D1DB062AD503E02046FDF7DCFCBF
:104A0000E9E7E36A5E6A204696F83370FDF7D4FC66
:104A100096F8333096F834209A420CD094F833202C
:104A20009A4208D13046FEF7A5FE96F834708742C8
:104A300028BF0746FFB2002384F8303096F83330A1
:104A4000BB42C8D039463046FFF724FFC3E700F029
:104A5000C7F9C0E713F0B8FD00F0C2F9A36B13B1BA
:104A60002046FEF797FE04F17800FEF77BFB204618
:104A7000FCF72AFFD4E92D2342B919490B600BB189
:104A8000C3F8B4200023C4F8B8300CE023B9C2F84E
:104A9000B830C4F8B43006E00021C2F8B830C3F82A
:104AA000B420C4E92D110F4A13882046013B13801E
:104AB000FFF77AFDFF2384F83230504613F084FD6F
:104AC000002240F22D23C5F80490C5F80C802A700E
:104AD000AB60BDE8F047FDF78FB900BFCCCA00203E
:104AE000D8CA0020E4CA0020903A02001C3B020011
:104AF00038B505460C46D1B113F06AFD48B1202205
:104B00000F49227040F2B512C4E901120D4BE36067
:104B1000FEE70D4B1B78012B0CD0022208492270B6
:104B20004FF4DC72C4E90112064BE360FEE700F0CB
:104B300057F9E1E721462846BDE83840FFF710BFA6
:104B4000903A02001C3B0200B5C7002000B585B0BA
:104B5000094B1868FCF7C0FE13F03AFD20B9074B6B
:104B60001B78012B01D0FEE7FEE76946FFF7F8FE50
:104B700005B05DF804FB00BFCCCA0020B5C700201B
:104B800010B40649064B074A4160002441210470D5
:104B9000C0E902125DF8044B18687047643B0200DC
:104BA00040230020D83B02002DE9F04782B00546A3
:104BB0000E461446C2B113F00BFD40B120226A49E3
:104BC00022706E22C4E90112684BE360FEE7684B75
:104BD0001F78012F0BD00222634922707122C4E991
:104BE0000112624BE360FEE700F0FAF8E3E7614B85
:104BF00093F800A0BAF1000F3FD126F0020343B3AF
:104C0000082E08D00822584922707B22C4E90112DC
:104C1000564BE360FEE7002D00F09D80FCF7CAFBD9
:104C2000554B1B68A0FB0389FCF7D0FB534602469B
:104C3000494640461CF0B8F9504B1B6893F8482091
:104C4000002A00F08380DA6C2A44151A25EAE575FB
:104C5000DA64002D4AD013F0B3FC494B1B68AB4219
:104C6000804613D21E22404922709E22C4E90112BE
:104C70003E4BE36002B0BDE8F0872D223A493B4B42
:104C800022707422C4E90112E360F3E7FCF79EFB93
:104C9000394BDFF8E8901A680027561EE0FB0567DD
:104CA00000252B46304639461CF07EF9D9F80030F5
:104CB000344A01950146009503F15000FCF738FA9B
:104CC00068BBD9F80000012380F83230FDF774FD8D
:104CD000404613F079FCFDF78FF800222249234B60
:104CE0002270C522C4E90112E360C3E713F068FC37
:104CF000254A264B12780C2101FB02F15F185E5801
:104D0000796802EB42028E42054603EB820312D021
:104D10001846FDF735FD284613F056FCDBE7404604
:104D200013F052FC01221049104B2270AC22C4E94E
:104D30000112E3609EE713F047FC00220A490B4B87
:104D40002270BB22C4E90112E36093E72844D864CF
:104D500083F848707DE70449044B26707E22C4E93D
:104D60000112E360FEE700BF643B0200EC3B02007F
:104D7000B5C70020ACC7002040230020CCCA0020CB
:104D8000482300202D260000C8CA0020B8C70020F4
:104D9000F8B50446FCF70EFB0A4B0B4D1E68A0FB52
:104DA0000667FCF713FB094B63604FF4C573A36000
:104DB0000023024639463046E56023701CF0F4F8C3
:104DC000F8BD00BF40230020F83B0200643B020016
:104DD000024B00221A6002F00FBB00BF1CCB002068
:104DE000FEE700BF014B1860704700BF1CCB0020DE
:104DF00030B585B00A4814466B46C288002000F0E2
:104E0000C1FD9DF80050206015B1002005B030BDF7
:104E1000044901F049FF0120C4E9015505B030BD46
:104E2000A4000020285C0200054B1B68024603B169
:104E3000FEE720B1034B0068516803C37047FEE7EB
:104E4000FC230020A4000020F0B587B00446002118
:104E5000022002F091F800210546032002F08CF8B0
:104E600000210540042002F087F8EDB22840012817
:104E700008D006222A492270EB22C4E90112294BEC
:104E8000E360FEE7284D2948A968294E23463C22C5
:104E900000F078FD2378306007460BB107B0F0BD15
:104EA000AA88A96823482346920000F06BFD237866
:104EB0003863002BF2D1EA88A9681E483768234678
:104EC000043200F05FFD23787863002BE6D131686F
:104ED000688881F83830CB62CDE904342A88164FCF
:104EE0000397CDE901200423AA68144800930C23FA
:104EF00000F0DCFE21780029D0D122461048356828
:104F000002F042F82378A862002BC7D1204600F0B7
:104F100097FB204607B0BDE8F04001F079BA00BF2A
:104F2000743C02003C3D0200A4000020EC3C020066
:104F3000FC230020003D0200F14D0000143D020062
:104F40002C3D02002DE9F04F87B0009088461446B2
:104F5000E2B1B8F1000F1ED0D8F80430002B58D0C1
:104F60000098002841D001F073FE824AD288824224
:104F700003461AD80822804922704FF4FA72C4E915
:104F800001127E4BE36007B0BDE8F08FFFF728FF0A
:104F9000B8F1000FE0D10A227749227040F2EB12FB
:104FA000C4E90112754BE360FEE7754D2868F3B163
:104FB000214600F05DFF23780646F3B92B680022F6
:104FC000986A1146234602F089F82378002B5CD0BA
:104FD00002AC22463146286800F0D6FF9DF8083022
:104FE000002BD0D0FFF7FCFECDE7654D28682146A9
:104FF00000F03EFF23780646ABB111225E495F4BBD
:10500000227040F2FF12C4E90112E36007B0BDE86C
:10501000F08F3422584922704FF4F772C4E901121C
:10502000564BE360FEE7534BD6F80090DF88D8F884
:105030000010B9F1000F19D0C9B10B4602E030B130
:10504000134642B11A4612F8010B5F28F7D15B1ADA
:105050009AB297420CD8082247492270474BE36026
:105060004FF40372C4E9011202ACB2E7FEE7FEE7B7
:105070009FB23A46484601F03DFE28B1002309F8A8
:1050800007303368009399E7FEE72B68D3F82CA02C
:105090000099BAF1000F39D0DAF8000001F078FE7B
:1050A000DAF80430434543D0002841D0D8F8043022
:1050B00008F1080B0BB32B685BF8087CDB6A0193E3
:1050C000ABB1D3F80490D9F804202AB919E009F15A
:1050D0000809D9F804209AB1D9F80010384601F02F
:1050E00057FE0028F3D1D9F80430002B37D10BF14B
:1050F000080B5BF8043C002BDDD1DAF808A0C7E709
:10510000019B9B680193002BDBD1F0E7306801F035
:10511000CBFD2B68C6F80480DA6AB260986ADE625A
:10512000214602F039F82378002B3FF42CAF59E7E1
:1051300015221149227040F22222C4E901120F4BBC
:10514000E3602B6802AC986A214602F025F89DF8CE
:105150000830002B3FF43DAFFFF742FE39E7152240
:105160000549064B22704FF40B72C4E90112E3604B
:10517000E7E700BFA4000020743C0200543D020099
:10518000FC2300202DE9F04180460C4600293DD04B
:10519000B8F1000F2ED0254F3B680022986A1146C7
:1051A000234601F09BFF267876BB3B68DD6A25B974
:1051B00031E0AB682E4673B31D462968404601F0C6
:1051C000E7FD0028F5D13868AB6816B3B36029460F
:1051D000224600F0D9FE23780BB1FFF701FE3B68B1
:1051E0002146986A01F0D8FF23786BB1BDE8F04101
:1051F000FFF7F6BD0A220E49227040F26E22C4E982
:1052000001120C4BE360FEE7BDE8F081FFF7E8FD1B
:10521000BEE7C362DBE70F220549064B227040F26E
:105220008622C4E90112E360D9E700BFFC23002015
:10523000743C0200643D0200F0B40478002C3DD0C0
:1052400000252F46AC46012604E03DBB012510F8A1
:10525000014F84B1202C1AD0222CF6D0002EF6D08B
:10526000BA4220D941F827007C1CA7B210F8014FA0
:105270000026002CEED100211148197040F2E521E2
:10528000C3E901010F4ADA603846F0BC7047002ECE
:10529000DDD1002DDBD105700126D8E72E4680F840
:1052A00000C00025D3E711210548064A19704FF4C4
:1052B0003771C3E90101DA600027E5E72746DAE73D
:1052C000743C0200743D02002DE9F04F85B0824627
:1052D0000E4617461C460BB3BAF1000F14D0DFF888
:1052E0003481D8F800300022986A1146234601F034
:1052F000F5FE94F80090B9F1000F12D04FF00009BC
:10530000484605B0BDE8F08F0A223C4922704FF4B0
:10531000AE72C4E901123A4BE360FEE7FFF760FDAD
:10532000DAE7D8F80050374B296B9A885046234665
:10533000FFF782FF2378824673B9D0B92F4B7A6882
:10534000636034212E4B21704FF4B771C4E902130E
:105350002D482421D146B047D8F800306946986AD4
:1053600001F01AFF9DF80030002BC9D0FFF738FD7F
:10537000C6E7D5E90B93D3F800B0B9F1000F29D0F7
:10538000D9F804506B6823B934E008356B68002BFA
:1053900030D02968584601F0FBFC0028F5D16D6833
:1053A000C5B1D8F800305046196B32463B46A84785
:1053B000B0F1FF3F8146CFD1104B7A686360332153
:1053C0000F4B21704FF4C171C4E902130F482C2117
:1053D000B047C1E7094B7A6863600F21084B217021
:1053E0004FF4BC71C4E9021309481F21B0474FF0C4
:1053F0000009B1E7D9F80890BFE700BF743C02008C
:10540000483D0200A4000020043C0200483C020089
:10541000283C0200FC2300202DE9F843154B1B68B3
:10542000D3F82C90B9F1000F22D0DFF84C800F4652
:105430000646D9F804406368ABB1083454F8085CF8
:10544000284601F005FC7A6881B22846B0474046FC
:1054500001F0FEFB083481B27A684046B04754F848
:10546000043C002BEAD1D9F80890B9F1000FE0D143
:10547000BDE8F883FC2300208C83020038B5054684
:105480000C4641B3184BDB88AB4209D21E221749A8
:1054900022704FF46672C4E90112154BE360FEE717
:1054A00013F08EF8134B1B6893F83820B2B95D6B7C
:1054B000012283F8382013F087F8002D14BF002351
:1054C0001B230A490A4A237040F2A133C4E901139D
:1054D000E260284638BDFFF783FCD3E713F074F889
:1054E00000251B23EDE700BFA4000020743C020050
:1054F000843D0200FC23002008B513F061F8044B42
:105500001B68002283F83820BDE8084013F05CB81F
:10551000FC2300202DE9F04184B0022815461E46E8
:105520000BD0013801286BD819461046FFF774FFDD
:105530000024204604B0BDE8F0810F463A4978685F
:1055400001F026FC044600283DD0786801F080FB7D
:10555000043080B26946FFF791FF9DF80040804615
:10556000002C5ED1796801F09FFB3049404601F084
:10557000E7FB2D49404601F0E3FB6B4632462946E6
:105580004046FFF7A1FEFFF7B7FF9DF800300F2B55
:1055900001D0112BCDD1726825481921A8477C680C
:1055A000204601F055FB726881B22046A847214889
:1055B00001F04EFB726881B21E48A84700242046C5
:1055C00004B0BDE8F0811C4801F042FB726881B272
:1055D0001948A847174801F03BFB726881B215488B
:1055E000A847164801F034FB726881B21348A847F7
:1055F000104801F02DFB726881B20E48A84798E769
:105600000D4801F025FB726881B20B48A847094894
:1056100001F01EFB726881B20648A8474FF0FF34C4
:1056200087E74FF0FF3484E79C3D020048370200D3
:10563000243E02008C830200A03D0200DC3D0200FB
:10564000024602490248FFF77DBC00BFB0000020BF
:10565000983D02002DE9F04385B0044608B9FFF7F4
:10566000BFFB2C4FDFF8C0807B68DFF8C090C4F828
:1056700004900026C4222670C4E9022813B905B09C
:10568000BDE8F0833146022001F076FC3146054644
:10569000032001F071FC31460540042001F06CFC50
:1056A000EDB22840012808D00622CA23C4F804908D
:1056B000C4F80C802270A360FEE701F0DBFD2346F6
:1056C0000146064630221448144D00F05BF9237859
:1056D0002860002BD3D17B6802933F680394042396
:1056E000C118CDE90037324608230D4800F0F8F91B
:1056F00021780029C3D122460A482E6801F044FCD3
:105700002378F062002BBAD1286805B0BDE8F043D9
:1057100001F0B6BDC0000020483E02000024002079
:105720005C3E0200743E0200103F0200883E020010
:1057300020F02003413B192B05D9303809288CBFB4
:105740000020012070470120704700BF61381928F0
:105750008CBF002001207047303809288CBF002002
:1057600001207047202805D0093804288CBF00206C
:10577000012070470120704720385E288CBF002030
:1057800001207047A0F14103192B9CBF2030C0B20B
:10579000704700BF08B512F013FF034B01221A60D7
:1057A000BDE8084012F010BF042400202DE9F04F9E
:1057B00083B0DDE90C7A0E9C4AB908225C4922705C
:1057C0004FF4D962C4E901125A4BE360FEE7804608
:1057D0000E461D46914643B1013B2B4240F09E8050
:1057E00012F0EEFED6F804C004E012F0E9FED6F89E
:1057F00004C00425BD422B46B26838BF3B46591E43
:105800005D42114205EA020518BFED1809EB0501DA
:105810007B1E0B40C7F1000E18BF3B460EEA01018C
:105820001944C2F101039C448A1A94455BD30022B7
:10583000DFF8FCC0B369B16022704FF4E562C4E9DF
:1058400001C23D4AE26053B11A689045194603D13E
:105850002BE00A68904528D089680029F9D1DFF843
:10586000E0A0DAE9011717F0030E18BF4FF0040E9D
:1058700027F0030B0BEB0E02009201310C32019268
:10588000C91BD21B914222D3019ACAF80820009A60
:10589000C4F804C000214FF4E5672170A7604BF8FD
:1058A0000E80C2E90193B2610BE04B68234A4B447E
:1058B0004B6040F24C73C4E902320026C4F804C0C5
:1058C000267012F081FE284603B0BDE8F08F162244
:1058D00040F222732270A36012F076FE0025284663
:1058E00003B0BDE8F08FBAF1000F03D0A2EB0C02B9
:1058F000CAF800200E4D104BE36040F222721626CB
:10590000C4E90152267012F05FFE40F2D762094BE3
:105910002670C4E90152E3600025D4E70822044957
:10592000227040F2CC62C4E90112024BE360FEE750
:1059300008400200144102002C41020044410200D0
:10594000C800002010B50D4C12F03AFE21680C4A38
:1059500041B191420CD00B4601E0934208D0DB6884
:10596000002BFAD12260BDE81040D16012F02CBEAD
:1059700012F02AFEBDE81040FFF732BA20CB00201B
:10598000C80000202DE9F04F83B000900E469046ED
:105990001C46002B69D04D4B002E08BF1E46B8F1A7
:1059A000000F58D012F00CFED6E9013111F00305BA
:1059B00018BF042521F0030C654408EB050C0133E6
:1059C000ACEB010E5B1A7345024651D30021DFF8A0
:1059D00004E1B369C6F808C021704FF4E561C4E979
:1059E00001E13B49E16063B11968009F8F421846AD
:1059F00003D154E001688F4251D080680028F9D16A
:105A00000097DFF8C8A0DAE9011010F0030918BF09
:105A10004FF0040920F0030B0BEB090C0CF10C0701
:105A200001310197091A3F1AB94245D30021019863
:105A3000CAF8080021704FF4E5600099C4F804E04A
:105A4000A0604BF80910CCE90183C6F818C01046D5
:105A500012F0BAFD1FE008221E4922704FF4D962ED
:105A6000C4E901121C4BE360FEE7FFF7B9F992E7C6
:105A7000184D174BE36040F222721626C4E901521A
:105A8000267012F0A1FD40F2D762134B2670C4E9D4
:105A90000152E3600025284603B0BDE8F08F43685B
:105AA0000E4943444360002640F24C73C4F804E0BE
:105AB0002670C4E90231CAE7162140F2227310466B
:105AC0002170A36012F080FD0025E4E7C8000020EB
:105AD0002C4102000840020014410200444102002F
