:1000000000000820052002003120020031200200FB
:100010003120020031200200312002003120020094
:100020003120020031200200312002003120020084
:1000300031200200302002008B2900003120020014
:100040003120020031200200112E0200E7030000DF
:100050003120020031200200312002003120020054
:100060003120020031200200312002003120020044
:1000700031200200F3030000312002003120020091
:100080003120020031200200312002003120020024
:100090003120020031200200312002003120020014
:1000A0003120020031200200312002003120020004
:1000B00031200200312002003120020049280000D6
:1000C00031200200312002003120020031200200E4
:1000D000312002003120020031200200991A020072
:1000E00031200200312002003120020031200200C4
:1000F00031200200312002003120020031200200B4
:1001000031200200312002003120020031200200A3
:100110003120020031200200312002003120020093
:10012000312002003120020085B60000312002009B
:100130003120020031200200312002003120020073
:100140003120020031200200312002003120020063
:1001500010B5054C237833B9044B13B10448AFF301
:1001600000800123237010BD3C040020000000002B
:100170002450110008B5034B1BB103490348AFF3EA
:10018000008008BD00000000400400202450110041
:10019000154B002B08BF134B9D46A3F5803A002159
:1001A0008B460F461348144A121A2CF04AF90F4B8B
:1001B000002B00D098470E4B002B00D09847002012
:1001C000002104000D000D48002802D00C48AFF3B8
:1001D00000802CF0B3F82000290000F091F82CF0FA
:1001E00099F800BF0000080000000820000000008F
:1001F000000000003C0400200CF30120000000007F
:100200000000000080B483B000AF0346FB7197F993
:100210000730002B0BDBFB7903F01F02074997F92E
:1002200007305B09012000FA02F241F8232000BFE9
:100230000C37BD465DF8047B704700BF00E100E06D
:1002400080B483B000AF0346FB7197F90730002BF1
:100250000CDBFB7903F01F02074997F907305B09B4
:10026000012000FA02F2603341F8232000BF0C376E
:10027000BD465DF8047B704700E100E080B483B0C8
:1002800000AF7860044A7B68C2F8243400BF0C37A2
:10029000BD465DF8047B70470080084080B400AF25
:1002A000034BD3F81C341846BD465DF8047B7047F9
:1002B0000080084080B584B002AF396011461A460C
:1002C0000346FB710B46BB7113467B71BA79F87913
:1002D0003B7C01937B79009313463A6839681FF0A1
:1002E0008BFA00BF0837BD4680BD80B582B000AF35
:1002F000786078681DF0A0FF00BF0837BD4680BD5C
:1003000080B58EB00AAF2248FFF7EFFF23F026FA40
:1003100006F00CFF21F00AFC012021F0F1FB1D4842
:100320002CF040F91C482CF03DF93B46184602F0F1
:10033000ABFC3B78002B00D0FEE73B460893022342
:1003400007930023069300230593002304934FF49F
:100350000073039333230293104B01931E230093E6
:1003600000230F4A0F49104806F032F83B78002B63
:1003700000D0FEE73B46184602F0B4FF3B78002B66
:1003800000D0FEE7012318461037BD4680BD00BFF0
:1003900000A24A0438DC02003CDC020058040020C1
:1003A0008D04000044DC0200580C002080B586B0AB
:1003B00000AFFFF773FF78617869FFF75FFF7B6934
:1003C00003F48073002B02D0002022F0B9F97B697E
:1003D00003F40073002B02D0012022F0B1F900BF1A
:1003E0001837BD4680BD80B500AFFFF7DFFF00BF07
:1003F00080BD80B500AFFFF7D9FF00BF80BD000012
:1004000080B582B002AF01211F481CF00BFB002316
:100410000122082102201FF0BDFA00230122092138
:1004200002201FF0B7FA01230093012300220821C4
:100430000220FFF73FFF012300930123002209213F
:100440000220FFF737FF00230422042102201FF0BF
:10045000A1FA002304220C2100201FF09BFA0122A4
:10046000012100201DF0A4FF0D20FFF7E9FE0D2063
:10047000FFF7C8FE0320FFF7E3FE0320FFF7C2FEED
:1004800000BFBD4680BD00BF00550A0080B586B0E4
:1004900000AF786007F10803184624F07DF93B7A35
:1004A000002B00D0FEE701211C481CF0BBFAFFF72F
:1004B000A7FF07F1080318460AF008FE3B7A002B55
:1004C00001D006F039FE07F10803184606F068FE71
:1004D0003B7A002B01D006F02FFE07F108031846E7
:1004E0000AF04CFE3B7A002B01D006F025FE23F0EB
:1004F00063F922F0AFF80A482CF054F82BF05AFDBB
:100500002BF054FC01F006FC07F10803194600200B
:1005100006F00EF900BF1837BD4680BD00550A0031
:1005200058DC020080B500AF244B254A92E8030056
:1005300083E80300214B234A083392E8030083E851
:1005400003001E4B204A103392E8030083E80300A7
:100550001A4B1E4A183392E8030083E80300174B36
:100560001B4A203392E8030083E80300134B194A27
:10057000283392E8030083E80300104B164A303317
:1005800092E8030083E803000C4B144A383392E8E6
:10059000030083E80300094B114A403392E803004B
:1005A00083E80300092105481BF00AFA12220D49CD
:1005B0000D481BF0C3F900BF80BD00BF502A0020CA
:1005C000A8E30200B0E30200B8E30200C0E30200C7
:1005D000C8E30200D0E30200D8E30200E0E3020037
:1005E000E8E302001C000020510B000080B586B03B
:1005F00000AFF860B9607A603B600023FB8233E0B3
:10060000FB8A9B007A6813441B681C4918462CF02F
:1006100043F90346002B24D1FB8A9B003A6813441C
:100620001B68174918462CF037F90346002B06D1F2
:1006300014482BF0B7FF002022F082F811E0FB8A6B
:100640009B003A6813441B680F4918462CF024F9A4
:100650000346002B05D10D482BF0A4FF012022F00A
:100660006FF8FB8A0133FB82FB8ABA689A42C7DCC7
:10067000074B18461837BD4680BD00BF08DE020094
:1006800010DE020014DE020024DE020028DE02007A
:1006900038DE020080B590B008AFF860B9607A60CB
:1006A0003B600023FB610023BB61BB68032B40F070
:1006B000EA807B681B687A4918462CF0EDF80346FF
:1006C000002B17D13B681B68184600F0BDFD3B6846
:1006D0001B6818462CF0F2F80346FB61202200212B
:1006E00070482BF0AEFE3B681B68FA6919466D48EE
:1006F0002CF0FEF87B6804331B686B4918462CF01D
:10070000CBF80346002B1AD13B6804331B6818460C
:1007100000F09AFD3B6804331B6818462CF0CEF8B5
:100720000346BB614022002160482BF08AFE3B68F3
:1007300004331B68BA6919465C482CF0D9F87B6809
:1007400008331B685A4918462CF0A6F80346002BBC
:1007500038D13B6808331B68184600F075FD3B68CC
:1007600008331B68534918462CF096F80346002BB3
:1007700009D03B6808331B684F4918462CF08CF8A9
:100780000346002B03D14D4B02221A701AE03B683E
:1007900008331B684A4918462CF07EF80346002BA4
:1007A00003D1464B01221A700CE03B6808331B68EA
:1007B000444918462CF070F80346002B02D13F4BF9
:1007C00000221A70404B93F8223203F00203002BF0
:1007D00060D1F869394B1B78BA6992B20021069151
:1007E000002105910492314A0392002202920022D4
:1007F000019200930023002201462A481FF078FE50
:1008000038613B69002B07D030482BF0CBFE3049D4
:1008100030482CF04BF83DE00023FB822FE0FA8AB1
:1008200013465B0013441B019B1A2B4A13440433E9
:100830001C4918462CF030F80346002B1CD1FA8ACC
:10084000254913465B0013441B019B1A0B442833B4
:100850005B889BB2DAB2214B1A70FA8A13465B00AE
:1008600013441B019B1A20331B4A134404330622F2
:1008700019461B482BF0C1FDFB8A0133FB82FB8A22
:10088000312BCCD906E017482BF08CFE16491148C5
:100890002CF00CF8154B18462037BD4680BD00BF24
:1008A00044DE02009C0100204CDE0200BC0100205E
:1008B00050DE020058DE020060DE0200FC01002073
:1008C00064DE020068DE0200B4F0012070DE020087
:1008D0008CDE020060530020BCE60120442A002088
:1008E000482A0020A8DE0200C8DE020038DE02002E
:1008F00080B584B000AFF860B9607A603B601FF0EB
:10090000C5FE024B18461037BD4680BD38DE0200DA
:10091000F0B58FB00AAFF860B9607A603B60144BF5
:100920001B789DB213482BF0C9FF0646124B1C786A
:1009300012482BF0C3FF03469BB20022089200220C
:100940000792002206920022059204930B4B039318
:1009500000230293019400230093002332460549AB
:1009600028461FF0A3FE064B18461437BD46F0BDBF
:10097000610200200002002060020020200200200E
:1009800038DE020080B584B000AFF860B9607A60EC
:100990003B601FF069FF024B18461037BD4680BD13
:1009A00038DE020080B58AB000AFF860B9607A60C6
:1009B0003B603A233B7500233B620023FB8449E004
:1009C000FB8C9B007A6813441B68274918462BF060
:1009D00063FF0346002B3AD1FB8C9B003A6813441B
:1009E0001B6807F11402114618462BF0B1FF38625C
:1009F00010220021386A2CF00BF90346DBB23B765B
:100A0000012387F8253019E007F114031946002067
:100A10002BF09EFF386210220021386A2CF0F8F883
:100A2000024697F82530D2B207F128010B4403F8AB
:100A3000102C97F82530013387F8253097F82530AA
:100A4000052BE1D907F11803184620F059F8FB8C63
:100A50000133FB84FB8CBA689A42B1DC034B184625
:100A60002837BD4680BD00BFE4DE020038DE02004C
:100A700080B58EB004AFF860B9607A603B601F4B00
:100A800000221A7040F62E1200211D482BF0D9FCCE
:100A900007F11403012220211A4803F035FE002338
:100AA0000393002302930023019300230093002368
:100AB0000022002101201FF03DFF78627B6A002B9D
:100AC00004D07B6A40F60432934212D107F114033A
:100AD0000193002300934FF4847341F28832202164
:100AE000084803F0D5FB3B7D002B02D006482BF0D5
:100AF00059FD064B18462837BD4680BD7941002078
:100B0000BCE601206CF00120E8DE020000DF0200FC
:100B100080B485B000AFF860B9607A603B60034B89
:100B200018461437BD465DF8047B704714DF020099
:100B300080B485B000AFF860B9607A603B60034B69
:100B400018461437BD465DF8047B704728DF020065
:100B5000F0B5B7B00AAFF861B9617A610023C7F8A0
:100B6000AC30C14A07F12C0307CA03C31A70002333
:100B700087F8AB30FB69112B00F2FD8201A252F81D
:100B800023F000BFCD0B0000EB0B0000090C0000B0
:100B9000550D0000830D0000950D0000C70D0000ED
:100BA0000F0E0000C10E0000D50E0000FD0F00006A
:100BB0002B1000005D100000A5100000B710000011
:100BC000F31000004B1100005F110000002021F025
:100BD0009BFDC7F89C00D7F89C30A44A0221B86955
:100BE0002BF0EAFDC7F8AC00FBE2012021F08CFD00
:100BF000C7F89C00D7F89C309C4A0221B8692BF0BA
:100C0000DBFDC7F8AC00ECE20023C7F8A43086E0B7
:100C1000D7F8A42013465B0013441B019B1A944A87
:100C20001344043318462BF049FE0346002B0AD028
:100C3000D7F8A42013465B0013441B019B1A8C4A6F
:100C40001344191D00E08B498948D7F8A4201346A6
:100C50005B0013441B019B1A03442833B3F805308F
:100C60009BB2DC3B9BB21BB2DA0F13445B101BB28E
:100C70001C467F48D7F8A42013465B0013441B0191
:100C80009B1A034428331B79C3F38003DBB2002B88
:100C900001D0794B24E07648D7F8A42013465B00B6
:100CA00013441B019B1A034428331B79C3F34003ED
:100CB000DBB2002B01D0714B12E06D48D7F8A420B5
:100CC00013465B0013441B019B1A034428331B7912
:100CD000C3F30003DBB2002B01D0694B00E0694B8A
:100CE00007F13800019300940B46674A64212BF00A
:100CF00063FD07F13803194664482BF0B1FD644BDE
:100D00001B78013BD7F8A4209A4203D061495F4881
:100D10002BF0A6FDD7F8A4300133C7F8A4305C4B04
:100D20001B781A46D7F8A4309342FFF671AF5748A4
:100D30002BF0C4FD03460133544A1946B8692BF021
:100D40003BFDC7F8AC004FF4805200214F482BF018
:100D500078FB46E2504B93F8223203F00403002B59
:100D600007D04E4A0221B8692BF026FDC7F8AC0027
:100D700037E24B4A0221B8692BF01EFDC7F8AC00E0
:100D80002FE2484B484A2021B8692BF015FDC7F8DF
:100D9000AC0026E2454B5B68D9B2444B5B681B0A4A
:100DA000D8B2424B5B681B0CDBB2404A5268120E51
:100DB0000192009303460A463D49B8692BF030FD85
:100DC000C7F8AC000DE2344B93F81C321C46324B92
:100DD00093F81D321D46304B93F81E321A462E4BA7
:100DE00093F81F3219462C4B93F8203218462A4BA1
:100DF00093F8213203930290019100922B462246F0
:100E00002C49B8692BF00CFDC7F8AC00E9E12A4B7E
:100E10001B78002B06D11B49B8692BF001FDC7F8E0
:100E2000AC00AFE1244B1B78012B06D11449B86903
:100E30002BF0F6FCC7F8AC00A4E11F4B1B78022B8B
:100E400006D11E49B8692BF0EBFCC7F8AC0099E15C
:100E5000194B1B78042B40F095810749B8692BF09A
:100E6000DFFCC7F8AC008DE104E0020040DF0200C7
:100E7000BCE6012044DF020058DE020060DE020012
:100E800064DE020068DE02004CDF0200441A00202B
:100E90007941002074DF0200B4F0012024DE02005A
:100EA00010DE02000002002078DF0200F052002075
:100EB0007CDF020088DF020060020020A8DF020061
:100EC000B14B1B781A46B149B8692BF0A9FCC7F899
:100ED000AC0086E1002387F8A33078E007F1240214
:100EE00097F8A3301146184627F01EFF97F82430D4
:100EF000002B13D197F82530002B0FD197F826300F
:100F0000002B0BD197F82730002B07D197F828300A
:100F1000002B03D197F82930002B53D007F124037D
:100F2000184627F085FE03463B6297F8AB30002B4E
:100F300003D0974997482BF093FC97F8A3303133AF
:100F4000DBB287F833303B6ADBB23B613A6A120AA4
:100F5000D2B2396A090CC9B2386A000E054697F850
:100F60002400064697F82500F86097F82600B86038
:100F700097F82700786097F82800386097F82900DC
:100F8000034607F12C0407F1380009933B680893E6
:100F90007B680793BB680693FB68059304960395EB
:100FA000029101923B69009323467B4A64212BF016
:100FB00003FC012387F8AB3007F138031946754865
:100FC0002BF04EFC97F8A330013387F8A33097F845
:100FD000A330072B82D96F482BF070FC03460133F6
:100FE0006C4A1946B8692BF0E7FBC7F8AC004FF420
:100FF0008052002167482BF024FAF2E0674B93F807
:10100000223203F00203002B07D0654A0221B8699F
:101010002BF0D2FBC7F8AC00E3E0624A0221B869CA
:101020002BF0CAFBC7F8AC00DBE05F4B5B68D9B2C2
:101030005D4B5B681B0AD8B25B4B5B681B0CDBB279
:10104000594A5268120E0192009303460A465749C4
:10105000B8692BF0E5FBC7F8AC00C2E04F4B93F842
:1010600016321C464D4B93F817321D464B4B93F8E6
:1010700018321A46494B93F819321946474B93F8E0
:101080001A321846454B93F81B3203930290019194
:1010900000922B4622464649B8692BF0C1FBC7F89F
:1010A000AC009EE0434B444A2021B8692BF084FBFE
:1010B000C7F8AC0095E0414B1B781C463F4B5B7872
:1010C0001D463E4B9B781A463C4BDB7819463B4B02
:1010D0001B791846394B5B7903930290019100927A
:1010E0002B4622463249B8692BF09AFBC7F8AC0070
:1010F00077E0334B1B78002B06D13249B8692BF0CF
:101100008FFBC7F8AC006BE02D4B1B78012B06D191
:101110002D49B8692BF084FBC7F8AC0060E0284B80
:101120001B78022B06D12949B8692BF079FBC7F847
:10113000AC0055E0224B1B78042B51D12449B869EF
:101140002BF06EFBC7F8AC004AE0224B1B781A4626
:101150000E49B8692BF064FBC7F8AC0041E01E4AA9
:101160001549B8692BF05CFBC7F8AC001B491A485D
:101170002BF09CFB35E0BB6900221A700023C7F8F6
:10118000AC302EE000BF2CE06102002040DF020006
:1011900074DF0200441A0020B4DF0200B4F0012022
:1011A00024DE020010DE0200285300207CDF020053
:1011B00088DF02009C01002078DF0200482A00201E
:1011C000FC01002068DE020064DE0200A8DF0200ED
:1011D00058DE0200442A00206053002000E0020094
:1011E00000BFD7F8AC309BB21846B437BD46F0BD4F
:1011F00080B584B000AF0346FB712BF0C7F8024600
:10120000FB79013313441B7803F00403002B03D054
:10121000FB79303BDBB213E0FB79FB732BF0B6F8C4
:101220000246FB7B013313441B7803F00303012BBD
:1012300002D1FB7B203300E0FB7BDBB2573BDBB210
:1012400018461037BD4680BD90B595B000AF7860A8
:101250007B68FB640023BB6478682BF02FFB03469C
:10126000402B4AD9012359E0FB6C1B78252B29D14F
:10127000FB6C01331B78002B3CD0FB6C02331B78DA
:10128000002B37D0FB6C01331B781846FFF7B0FFFB
:1012900003461B015CB2FB6C02331B781846FFF758
:1012A000A7FF03465BB2234359B2BB6C5A1CBA6416
:1012B000CAB207F150010B4403F8482CFB6C02330F
:1012C000FB6417E0FB6C1B782B2B09D1BB6C5A1C01
:1012D000BA6407F150021344202203F8482C09E0B5
:1012E000BB6C5A1CBA64FA6C127807F150010B44BB
:1012F00003F8482CFB6C0133FB64FB6C1B78002B60
:10130000B2D107F10802BB6C134400221A7007F136
:101310000803194678682BF0C9FA00231846543799
:10132000BD4690BD80B584B000AFF8607A601A46C3
:101330000B46FB7213463B8125482BF033F97B6A41
:10134000244AA2FB03239B0918467A6A214BA3FB7C
:1013500002139B094FF47A7101FB03F3D31A1A4667
:1013600001461D482BF01EF93B6A1B0D18463B6ACF
:101370009B0A4FF47A7202FB03F39A0A154BA3FB04
:1013800002139B094FF47A7101FB03F3D31A1A4637
:10139000014612482BF006F9BB6A9B0A1846BB6A45
:1013A0004FF47A7202FB03F39A0A0A4BA3FB02136F
:1013B0009B094FF47A7101FB03F3D31A1A460146D5
:1013C00007482BF0EFF800BF1037BD4680BD00BFC7
:1013D00010E00200D34D62102CE0020044E0020055
:1013E00064E00200F0B58FB00AAFB4482BF0DAF831
:1013F0003B1D05220421184621F0AAFBF860FB687A
:10140000002B40F033810023FB72AD482BF0CAF86B
:101410003B1D0421184621F08BFBF860FB68002B74
:1014200002DC0123FB720CE03B1D18462AF06EFF24
:10143000F860FB68012B04D0FB68022B01D001236C
:10144000FB72FB7A002BDED100F0DCF9FB68012B8C
:1014500040F081809B482BF0A5F820219A4821F08C
:1014600067FBF860FB68002BF4DB98482BF09AF8D8
:101470004021974821F05CFBF860FB68072BF4DD06
:101480000023FB7293482BF08DF83B1D0421184676
:1014900021F04EFBF860FB68002B02DC0123FB729D
:1014A00038E03B1D01228C4918462BF00FFA034609
:1014B000002B03D1894B00221A702BE03B1D012227
:1014C000874918462BF002FA0346002B03D1834BC1
:1014D00001221A701EE03B1D0122824918462BF0A2
:1014E000F5F90346002B03D17C4B02221A7011E060
:1014F0003B1D01227C4918462BF0E8F90346002BDE
:1015000003D1764B04221A7004E078482BF04AF895
:101510000123FB72FB7A002BB2D16B482BF0CEF982
:1015200005466E4B1C786A482BF0C8F903469BB2FF
:1015300000220692002205920493654B0393002338
:1015400002930123019300940023002229465E4860
:101550001EF0CEFF86E066482BF024F82021654877
:1015600021F0E6FAF860FB68002BF4DB62482BF010
:1015700019F84021614821F0DBFAF860FB68072B7D
:10158000F4DD0023FB7253482BF00CF83B1D0421C3
:10159000184621F0CDFAF860FB68002B02DC01232D
:1015A000FB7238E03B1D01224B4918462BF08EF9A7
:1015B0000346002B03D1524B00221A702BE03B1D37
:1015C0000122474918462BF081F90346002B03D12D
:1015D0004B4B01221A701EE03B1D01224149184667
:1015E0002BF074F90346002B03D1454B02221A70ED
:1015F00011E03B1D01223C4918462BF067F90346D8
:10160000002B03D13E4B04221A7004E037482AF025
:10161000C9FF0123FB72FB7A002BB2D1394B1B7837
:101620009DB234482BF04AF90646354B1C783348B6
:101630002BF044F903469BB2002208920022079245
:10164000002206920022059204932C4B0393002360
:101650000293019400230093002332462549284633
:101660001FF024F828482AF09DFF23E0254B1B7823
:101670009DB220482BF022F90646214B1C781F48CA
:101680002BF01CF903469BB200220892002207921D
:1016900000220692002205920493184B0393002324
:1016A00002930194002300930023324611492846F7
:1016B0001EF0FCFF00BF1437BD46F0BD84E0020001
:1016C000C0E00200F8E002009C01002028E10200D6
:1016D000BC01002068E1020024DE0200FC010020C1
:1016E000BCE10200C0E10200C4E10200C8E1020066
:1016F000D8E10200000200200CE2020020020020DB
:10170000600200206102002050E2020080B586B035
:1017100000AF7860002100201AF060FB0C4821F037
:1017200029FA00F093F81AF0E9F8FEF7FBFE002121
:10173000084818F09DFA084B1B68002B01D027F0D1
:101740000BF907F108031946002004F0F1FFF8E750
:1017500010000020251300000000002080B500AF1D
:101760000022094909481AF079F900220849074876
:101770001AF074F9074B1B68002B02D0012026F0E9
:1017800089FF0023184680BDF50E01002853002074
:10179000311001000000002080B500AF094B1B682C
:1017A000002B02D0002026F075FF002206490748D2
:1017B0001AF054F90022064904481AF04FF90023A0
:1017C000184680BD00000020A11001002853002011
:1017D000CD0F010080B500AF0022074907481AF07D
:1017E0003DF90022064905481AF038F928F0F4F9C5
:1017F0000023184680BD00BFF50E0100F052002006
:101800003110010080B400AF034B01221A6000BF09
:10181000BD465DF8047B70470000002080B500AF36
:1018200028F002FA0022064906481AF017F90022A9
:10183000054904481AF012F90023184680BD00BF7C
:10184000A1100100F0520020CD0F010080B58CB036
:1018500004AF054B1B68002B08D00023BB6100239D
:101860003B610023BB60CDE000000020AA4B1B7849
:101870001A06AA4B1B781B041A43A94B1B781B02A0
:101880001343A84A127813431A06A34B1B78190670
:10189000A24B1B781B041943A14B1B781B020B4363
:1018A000A04909780B431B0203F47F031A439A4BA8
:1018B0001B781906994B1B781B041943984B1B780E
:1018C0001B020B43974909780B431B0A03F47F4320
:1018D0001A43914B1B781906904B1B781B04194334
:1018E0008F4B1B781B020B438E4909780B431B0E51
:1018F0001343BB618C4B1B781A068C4B1B781B0463
:101900001A438B4B1B781B0213438A4A12781343EA
:101910001A06854B1B781906844B1B781B04194348
:10192000834B1B781B020B43824909780B431B0234
:1019300003F47F031A437C4B1B7819067B4B1B78FF
:101940001B0419437A4B1B781B020B437949097816
:101950000B431B0A03F47F431A43734B1B7819068E
:10196000724B1B781B041943714B1B781B020B43F2
:10197000704909780B431B0E13433B616E4B1B7878
:101980001A066E4B1B781B041A436D4B1B781B0207
:1019900013436C4A127813431A06674B1B781906D7
:1019A000664B1B781B041943654B1B781B020B43CA
:1019B000644909780B431B0203F47F031A435E4B0F
:1019C0001B7819065D4B1B781B0419435C4B1B7875
:1019D0001B020B435B4909780B431B0A03F47F434B
:1019E0001A43554B1B781906544B1B781B0419439B
:1019F000534B1B781B020B43524909780B431B0EB8
:101A00001343BB60504B1B781A06504B1B781B04CA
:101A10001A434F4B1B781B0213434E4A1278134351
:101A20001A06494B1B781906484B1B781B041943AF
:101A3000474B1B781B020B43464909780B431B029B
:101A400003F47F031A43404B1B7819063F4B1B7866
:101A50001B0419433E4B1B781B020B433D4909787D
:101A60000B431B0A03F47F431A43374B1B781906B9
:101A7000364B1B781B041943354B1B781B020B4359
:101A8000344909780B431B0E13437B61324B1B789F
:101A90001A06324B1B781B041A43314B1B781B026E
:101AA0001343304A127813431A062B4B1B7819063E
:101AB0002A4B1B781B041943294B1B781B020B4331
:101AC000284909780B431B0203F47F031A43224B76
:101AD0001B781906214B1B781B041943204B1B78DC
:101AE0001B020B431F4909780B431B0A03F47F4376
:101AF0001A43194B1B781906184B1B781B04194302
:101B0000174B1B781B020B43164909780B431B0E1E
:101B10001343FB6028E000BF040000200500002004
:101B2000080D00200600002007000020080000200B
:101B300009000020090D00200A0D00200B0D0020D7
:101B40000C0D00200D0D00200A0000200B000020CD
:101B50000E0D00200C0000200D0000200E000020C3
:101B60000F0000200F0D0020574B1B781A06574B13
:101B70001B781B041A43564B1B781B021343554A10
:101B8000127813431A06504B1B7819064F4B1B78DB
:101B90001B0419434E4B1B781B020B434D4909781C
:101BA0000B431B0203F47F031A43474B1B781906B0
:101BB000464B1B781B041943454B1B781B020B43F8
:101BC000444909780B431B0A03F47F431A433E4BF5
:101BD0001B7819063D4B1B781B0419433C4B1B78A3
:101BE0001B020B433B4909780B431B0E13437B60DD
:101BF00039481EF097FBF861384939482AF0D2FC81
:101C0000FB69072B2DD0072B04D8002B0BD0012B01
:101C10002BD02EE040F6013293421AD040F6023229
:101C200093421AD025E02C4B012283F822222A4B22
:101C300093F802321946284B93F801321A46264B84
:101C400093F8003227482AF0ADFC27482AF0AAFC76
:101C500012E026482AF0A6FC0EE025482AF0A2FC55
:101C60000AE024482AF09EFC06E023482AF09AFC69
:101C700002E022482AF096FC07F1080007F1100262
:101C800007F118011E4B02931E4B01930023009392
:101C900003461D480EF064FF381D07F10C0207F1E2
:101CA0001401174B0293194B019300230093034631
:101CB00017480EF055FF14480FF00CF9FFF792FB90
:101CC00000BF2037BD4680BD100D0020110D002043
:101CD000120D0020130D0020B4F0012054E2020088
:101CE0005CE2020078E202009CE20200C0E2020034
:101CF000F0E2020024E3020054E3020074E3020075
:101D00007DBC0100B99F02002853002035A00200CD
:101D1000F052002080B58EB00AAF3B4608930223F4
:101D200007930023069300230593002304934FF4A5
:101D30004873039350230293094B01931623009396
:101D40000023084A0849094804F042FB3B78002B6D
:101D500000D0FEE7002318461037BD4680BD00BF07
:101D6000140D00200D1700009CE3020094190020C0
:101D700090B583B000AF1CF01DFD78601A4B1B7846
:101D800083F00103DBB2002B25D0184B00221A6030
:101D9000174B00221A60174B00221A8000F05EFCDD
:101DA000012000F003FD00F07DFD0246124B1A6099
:101DB000114B1B684FF000041A4623460F4840F2AF
:101DC000E7312AF023F903460C461A460C4B1A60F9
:101DD000054B01221A7078681CF0FCFC00231846A1
:101DE0000C37BD4690BD00BFA82A0020A02A0020C5
:101DF000A42A0020982A00209C2A002018FCFFFF1B
:101E0000AC2A002080B58AB004AFF860B9607A606F
:101E10003B600023FB75FB68002B01D1222318E0F7
:101E200007F117031946F86800F056F8FB7D002B00
:101E300001D003230DE0BB8C029397F8203001936F
:101E40003B6800937B680022B968F86800F08AFA62
:101E5000034618461837BD4680BD000080B586B0E1
:101E600000AF78600023FB757B68002B01D1222333
:101E70002CE01CF09FFC386100F03CFA154B1B680D
:101E80007A689A4201D10123FB75786800F0DCF989
:101E9000F860FB68002B04D038691CF09BFCFB68E1
:101EA00014E0FB7D002B06D00A4B1B68002B02D0F0
:101EB00000F008FA06E0074B1B68002B02D1022055
:101EC00000F094FC38691CF085FC00231846183794
:101ED000BD4680BDA02A002080B584B000AF7860E8
:101EE00039607B68002B02D03B68002B01D1222394
:101EF00022E03B6800221A701CF05CFCB860104BBA
:101F00001B68FB600AE0FA687B689A4203D13B6871
:101F100001221A7002E0FB689B68FB60FB68002BE3
:101F200006D03B681B7883F00103DBB2002BEAD1BB
:101F3000B8681CF04FFC002318461037BD4680BD22
:101F4000A02A002090B585B000AF786039607B682A
:101F5000002B02D03B68002B01D1222343E01CF070
:101F600029FCB86000F0C6F97B685A693B681A60C2
:101F70001F4B1B68FB6009E03B681A68FB685B69E4
:101F80001A443B681A60FB689B68FB60FA687B68D0
:101F90009A4202D0FB68002BEED1FA687B689A4225
:101FA00004D0B8681CF016FC03231CE03B681C68D6
:101FB00000F09EFB02460F4B1B68D31A9C420BD9C4
:101FC00000F096FB02460B4B1B68D31A3A68126866
:101FD000D21A3B681A6002E03B6800221A60B868B7
:101FE0001CF0F8FB002318461437BD4690BD00BF17
:101FF000A02A0020A42A002080B500AF00F078FBC2
:102000000346184680BD000080B400AF034B1B6838
:102010001846BD465DF8047B704700BF9C2A00202F
:1020200080B58AB000AF0346FB71FB7903F0010372
:10203000002B0AD0524B1B889BB201339AB2504BF3
:102040001A8000F057F900F03DF9FB7903F0020324
:10205000002B00F0918000233B6200F049FBF86107
:10206000484B1B68FA69D31A3B621CF0A3FB7862E9
:1020700060E03B6ABB61444B1B687B61424B1B6861
:102080003B61404AFB6913600FE07B691A793B6949
:102090001B799A4201D93B697B613B695B69BA69EB
:1020A000D31ABB613B699B683B613B69002B04D041
:1020B0003B695B69BA699A42E7D2786A1CF08AFB8D
:1020C0007B695B693A6AD31A3B627B6900225A6179
:1020D0001CF070FB7862786900F0B6F8786A1CF042
:1020E00079FB7B691B69002B0BD01CF063FB7862CA
:1020F0007B691B691946786900F048F8786A1CF01A
:1021000069FB7B69DB68002B06D07B69DB687A6939
:10211000126811467869984700F0EAFAF860FA68A0
:10212000FB69D31A3A6A13443B62FB68FB611CF0FB
:1021300041FB7862144B1B68002B05D0124B1B68C7
:102140005B693A6A9A4294D20F4B1B68002B0DD000
:102150000D4B1B6859690C4B1B683A6A8A1A5A6105
:10216000084AFB69136000F0ADF802E0022000F0BD
:102170003DFB786A1CF02EFB00BF2837BD4680BDB2
:10218000982A0020A42A0020A02A002080B487B02A
:1021900000AF786039603B687B617B687A695A611F
:1021A000284B1B68002B40D000233B61254B1B684C
:1021B000FB600CE0FB685B697A69D31A7B617B6822
:1021C0007A695A61FB683B61FB689B68FB60FB684E
:1021D000002B13D0FB685B697A699A42EAD2FB68EC
:1021E0005B69002BE6D0FB685B697A699A4205D18E
:1021F0007B681A79FB681B799A42DBD83B69002B14
:1022000003D03B697A689A6002E00E4A7B681360EB
:102210007B68FA689A60FB68002B0CD0FB685A69EF
:102220007B69D21AFB685A6105E0064A7B68136035
:102230007B6800229A6000BF1C37BD465DF8047BB6
:10224000704700BFA02A002080B485B000AF78603E
:102250000023FB601A4B1B68BB6004E0BB68FB609B
:10226000BB689B68BB60BB68002B03D0BA687B6807
:102270009A42F3D1BA687B689A4201D0022319E0EE
:10228000FB68002B04D07B689A68FB689A6003E0C7
:102290007B689B680A4A13607B689B68002B08D0A8
:1022A0007B689B6859697B685A697B689B680A44AC
:1022B0005A61002318461437BD465DF8047B704709
:1022C000A02A002080B582B000AF084B1B685A6975
:1022D000074B1B6813447B60022000F067FA7868A4
:1022E00000F016FA00BF0837BD4680BDA02A0020C6
:1022F000A42A002080B582B000AF00F0F9F9786020
:10230000164B1B68002B22D0154B1B687A68D31A1A
:102310003B60124B1B685B693A689A420BD80F4BC3
:102320001B6859690D4B1B683A688A1A5A610C4A36
:102330007B6813600EE0094B1B685B697A68D31AEF
:10234000074A1360054B1B6800225A6102E0044AE9
:102350007B68136000BF0837BD4680BDA02A0020FF
:10236000A42A002080B586B000AFF860B9607A601A
:102370003B60FB6897F824201A71FB683A6A1A6080
:10238000FB6800229A60FB687A681A61FB683A6809
:10239000DA60FB683A8DDA80BB68002B15D1FB68E8
:1023A00000225A61FB68DB68002B06D0FB68DB6803
:1023B000FA6812681146F86898477B68002B02D0CB
:1023C0007B68BB6001E0002313E01CF0F3F9786147
:1023D000FFF790FFB968F868FFF7D8FE074B1B6856
:1023E000FA689A4201D1FFF76DFF78691CF0F2F9A3
:1023F000002318461837BD4680BD00BFA02A002024
:1024000080B483B000AF0346FB7197F90730002B0F
:102410000BDBFB7903F01F02074997F907305B09D3
:10242000012000FA02F241F8232000BF0C37BD461C
:102430005DF8047B704700BF00E100E080B483B02A
:1024400000AF0346FB7197F90730002B0CDBFB79DB
:1024500003F01F02074997F907305B09012000FAD2
:1024600002F2603341F8232000BF0C37BD465DF80F
:10247000047B704700E100E080B582B000AF786077
:102480007B68022B04D94FF4CB71074819F0F0FC9C
:10249000064A7B6804331B01134404331B68184647
:1024A0000837BD4680BD00BFF0E3020000200640B3
:1024B00080B582B000AF786039607B68022B04D9A8
:1024C0004FF4D571074819F0D3FC074A7B680433F1
:1024D0001B01134404333A681A6000BF0837BD4635
:1024E00080BD00BFF0E302000020064080B582B04E
:1024F00000AF78607868FFF7BFFF034618460837DB
:10250000BD4680BD80B582B000AF78603960396863
:102510007868FFF7CDFF00BF0837BD4680BD0000DB
:1025200080B400AF034B9B681846BD465DF8047B42
:10253000704700BF0020064080B483B000AF7860D1
:10254000044A7B68936000BF0C37BD465DF8047B8E
:10255000704700BF0020064080B483B000AF7860B1
:10256000044A7B68136200BF0C37BD465DF8047BEC
:10257000704700BF0020064080B483B000AF786091
:10258000064B5A6A7B68DB43044913404B6200BF29
:102590000C37BD465DF8047B704700BF0020064045
:1025A00080B483B000AF7860054B5A6A04497B68F9
:1025B00013434B6200BF0C37BD465DF8047B704788
:1025C0000020064080B400AF034B9B691846BD460F
:1025D0005DF8047B704700BF0020064080B582B0E4
:1025E00000AF78607B681F2B04D94FF496710548C3
:1025F00019F03EFC01227B6802FA03F31846083703
:10260000BD4680BD54E4020080B584B000AF786060
:102610007B68B3F5004F04D340F6AF310E4819F094
:1026200027FC7B680133B3FA83F3DBB2C3F11F03EA
:10263000FB60F868FFF7D2FF0346013B7A689A42D5
:1026400004D040F6B531044819F012FCFB68184676
:102650001037BD4680BD00BFBCE4020080B586B027
:1026600000AF204A07F10C0307CA03C31A801E4AB1
:102670003B1D92E8030018600433198002330A0CF2
:102680001A70012119481AF0CDF900233B7300207C
:10269000FFF7BAFF0346DBB23B7407F10C031846A1
:1026A00020F0CEFF00233B713B1D1946012020F096
:1026B00077FF40F2FF70FFF75FFF40F2FF70FFF718
:1026C0004BFF0020FFF738FF012020F0A7FF1F205D
:1026D000FFF7B4FE1F20FFF793FE00BF1837BD467B
:1026E00080BD00BF20E502002CE50200A009140017
:1026F00080B500AFFFF714FF0346184680BD80B5D4
:1027000000AF0120FFF7F2FE0346184680BD00002F
:1027100080B586B000AF7860FFF7EAFF3861FFF759
:10272000EEFFF8607B687B61FFF74CFF034603F028
:102730000403002B0AD13969F86800F0C3F8034696
:10274000022B03D8FA683B699A4219D13969786932
:1027500000F0B8F80346012B02D83B6902337B61D5
:102760007B69B3F1FF3F2CBF0122002252429B1A2A
:102770007B6179690120FFF7C5FE022000F016F8A1
:10278000084B1B78002B08D0074B1B6D064A43F003
:1027900002031365034B00221A7000BF1837BD46B1
:1027A00080BD00BF640000200020064080B584B0DA
:1027B00000AF0346FB710023FB60FB7903F00103CC
:1027C000002B03D0FB6843F00103FB60FB7903F0AF
:1027D0000203002B03D0FB6843F00403FB60F8689E
:1027E000FFF7DEFE00BF1037BD4680BD80B584B068
:1027F00000AF0346FB710023FB60FB7903F001038C
:10280000002B03D0FB6843F00103FB60FB7903F06E
:102810000203002B0CD0FB6843F00403FB60084B61
:1028200001221A70074B1B6D064A23F00303136540
:10283000F868FFF7A1FE00BF1037BD4680BD00BF9E
:10284000640000200020064080B584B000AF002363
:10285000FB731BF0AFFFB860FFF7B4FE78607B68D6
:1028600003F00103002B03D0FB7B43F00103FB7358
:102870007B6803F00403002B03D0FB7B43F00203CF
:10288000FB737B6803F007031846FFF765FEFB7BCD
:102890001846FFF7C5FBB8681BF09CFF00BF103758
:1028A000BD4680BD98B500AF05481AF069F90446E9
:1028B0000020FFF7A9FE034624FA03F3184698BD4B
:1028C000A009140080B483B000AF786039607A68E2
:1028D0003B68D31A18460C37BD465DF8047B704739
:1028E000B0FA80F0704790FAA0F0B0FA80F070472C
:1028F00090FAA0F0704700BF72B64EF62250CEF2AA
:10290000000040F2FF01C0F200010170002080F3DE
:10291000098845F29430C2F20000016881F308880A
:1029200000F086F945F2E060C2F2000045F2D461A1
:10293000C2F200010A78027045F2E460C2F20000BF
:1029400045F2EC61C2F200010A680260106880F38F
:102950000988EFF3148040F0020020F0040080F3B7
:102960001488BFF36F8FBDE8F04F0FBCBDE8005077
:1029700006BC62B6084732484FF08051016070478C
:102980002F484FF080510160704772B645F2E46203
:10299000C2F20002116800290ED0EFF309801EF088
:1029A000100F08BF20ED108A20E9F04F45F2E465D2
:1029B000C2F2000529680860744600F039F945F252
:1029C000E461C2F2000145F2EC60C2F2000003686B
:1029D0000B6045F2E062C2F2000245F2D461C2F23D
:1029E00000010878107044F0040E002B0AD018681B
:1029F000B0E8F04F1EF0100F08BFB0EC108A80F363
:102A000009881BE045F29431C2F200010868A0F188
:102A10001C0080F3088840F20001C0F20011C1617F
:102A200042F64521C0F20001816146F6F131C0F263
:102A3000000141614FF6F97ECFF6FF7E62B6704726
:102A400004ED00E080B500AFAFF3008000BFFDE70C
:102A500080B483B000AF114B1A68114B1B6803F1AF
:102A60008043013B9B0013440E4A13600D4B1B68CF
:102A700023F007031A460B4B1A600B4B1B687B6055
:102A80007B6803F04043B3F1404F00D0FEE700BF46
:102A90000C37BD465DF8047B704700BFB02A0020AC
:102AA000B42A00209453002034EF00E080B582B0B7
:102AB00000AF7860054B1B68002B03D0034B1B68ED
:102AC0007868984700BF0837BD4680BDDC560020B7
:102AD00080B582B000AF7860054B1B68002B03D037
:102AE000034B1B687868984700BF0837BD4680BD18
:102AF000F456002080B582B000AF7860054B1B68AB
:102B0000002B03D0034B1B687868984700BF083739
:102B1000BD4680BDC853002080B487B000AFF860C8
:102B2000B9607A603B603B6A9B007A6813447B61C2
:102B30007B6923F007037B617B69043B7B617B69D5
:102B40004FF080721A607B69043B7B61FA687B6995
:102B50001A607B69043B7B61344A7B691A607B693C
:102B6000043B7B617B694FF012321A607B69043B46
:102B70007B617B694FF003321A607B69043B7B61A8
:102B80007B694FF002321A607B69043B7B613A68D3
:102B90007B691A607B69043B7B61BA687B691A6058
:102BA0007B69043B7B617B696FF002021A607B6981
:102BB000043B7B617B694FF011321A607B69043BF7
:102BC0007B617B694FF010321A607B69043B7B614B
:102BD0007B694FF009321A607B69043B7B617B693A
:102BE0004FF008321A607B69043B7B617B694FF0D0
:102BF00007321A607B69043B7B617B694FF00632C8
:102C00001A607B69043B7B617B694FF005321A6077
:102C10007B69043B7B617B694FF004321A607B69FE
:102C200018461C37BD465DF8047B7047F16B000009
:102C300080B500AF0D4B1B78002B0ED00C4B1B68E2
:102C4000DB6E002B04D10A4B1B68184601F020F8FC
:102C5000074B1B68184600F0F3FF064B1B68002B60
:102C600002D0044B1B68984700BF80BD2E57002040
:102C7000EC5600201C57002080B400AF00BFBD46BA
:102C80005DF8047B7047000080B586B000AF7860C7
:102C90007B68002B01D104F04FFA9E4B5B68002B40
:102CA0002CD09C4B1B68002B10D19A4B196B994B65
:102CB0005B689A007B68984805F046FC0246974B93
:102CC0001A607B681B78002B04D07CE1914B1B6859
:102CD000924A1360914B1B68914A13608D4B5B685D
:102CE000904A13608B4B5B689B008F4A13608F4B3D
:102CF0001A688D4B1B6813448C4A1360854B1B89E3
:102D0000002B2ED0834B196B824B1B891A4613461E
:102D10005B0013449B001A467B68854805F014FC51
:102D20000246844B1A607B681B78002B40F044817C
:102D3000804B1B68804A1360764B1A897F4B1A8040
:102D4000744B1B891A4613465B0013449B001A46BA
:102D50007B4B1A60754B1A68794B1B681344734A96
:102D600013606C4B5B6B774A1360FFF771FEFEF7E5
:102D7000FFFFF860FB68002B0DD07B6801221A7002
:102D80007B68714A5A607B6840F2AF129A607B6838
:102D90006E4ADA6017E16B4B1B68B3F57A7F04D893
:102DA0006B4B4FF0FF321A600BE0664B1B684FF025
:102DB000FF32B2FBF3F34FF47A7202FB03F3644A7F
:102DC0001360FFF721F902464FF0FF33B3FBF2F334
:102DD0005C4A126802FB03F35E4A1360FFF714F9C2
:102DE0000246584B1B689A420DD27B6809221A7022
:102DF0007B68554A5A607B6840F2BB129A607B68D8
:102E0000524ADA60FEE7544B00221A70534B0022FC
:102E10001A70534B00221A60524B00221A60524B18
:102E200000221A70514B00221A70514B00221A7066
:102E3000786803F097FF02464E4BA3FB0223DB08A2
:102E40004D4A13607B681B78002B40F0B780354BF0
:102E50001B68002B15D0324B1B687B617B69002BF4
:102E60000FD0304B1B683B6108E03B69013B3B6185
:102E70007B6900221A607B6904337B613B69002B0C
:102E8000F3D13E4B00221A603D4B00221A603D4BAD
:102E900000221A603C4B00221A603C4B00221A6050
:102EA0003B4B00221A7002F045FB00F02FFD394B1E
:102EB00000221A60384B00221A80204B1B88002BFE
:102EC00006D0786801F0D4FD7B681B78002B77D1A1
:102ED000324B00221A60324B00221A80314B002202
:102EE0001A60314B00221A80304B00221A60304B9E
:102EF00000221A80786803F0B3FD7B681B78002BF2
:102F000060D101F02BF8FFF7B7FE2A4B01221A70AF
:102F100059E000BF6800002038E502009C53002003
:102F2000B02A0020B42A0020B82A0020CC2A002091
:102F30004CE5020098530020BC2A0020C02A002043
:102F4000C42A0020C82A002060E50200ECE5020047
:102F5000D02A0020D42A0020CD530020C4530020C2
:102F6000E4560020EC560020E0560020D456002005
:102F70002E570020CDCCCCCC14570020DC5600209E
:102F8000F4560020C8530020205700201C57002072
:102F9000CC53002028570020245700203057002011
:102FA0002C5700200C570020E8560020D85600204F
:102FB00010570020D056002000BF04E000BF02E000
:102FC00000BF00E000BF1837BD4680BD80B400AF31
:102FD00000BFBD465DF8047B704780B400AF00BF02
:102FE000BD465DF8047B704780B584B000AF434BAD
:102FF0001B78012B00D0FEE7414B1B78002B78D1CA
:103000001BF0D8FBF8603F4B1B78FB7202F0ACFA68
:1030100003461A463B4B1A703A4B1B78402B52D052
:10302000384B1B781946384A0B465B000B449B0013
:1030300013441B68354A1360FB7A402B01D1AFF370
:103040000080334B1B78002B33D0324B1B68DB6E78
:10305000002B2ED03B4619462F48FEF773FF7860B1
:103060007B68002B06D12B4B1B683A68DA662A482E
:10307000FEF7F4FE274B1B68DB6E002B19D1254BA6
:103080001B6893F833301A4613465B0013449B00C9
:103090001D4A1344184600F0FFFC1A4B1B781946D2
:1030A000194A0B465B000B449B0013441B68174AEC
:1030B0001360164B1A68194B1B689A4206D1F868C0
:1030C0001BF088FB16E0114B00221A60144B1B68A2
:1030D0000133134A13600B4B1B78402B01D1AFF324
:1030E0000080FFF748FCF8681BF074FBBFF36F8F9C
:1030F00000E000BF1037BD4680BD00BFCD530020AB
:10310000C4530020D4560020D0530020EC56002099
:103110002E570020B8530020A0530020E456002072
:10312000F856002080B584B000AF78607B68002B33
:1031300001D104F001F81BF05BFB0346002B0DD01E
:103140007B6820221A707B68244A5A607B6840F2B0
:103150000B329A607B68224ADA60FEE7214B1B78CB
:10316000012B0DD07B6802221A707B681B4A5A60C3
:103170007B6840F20E329A607B68194ADA60FEE79B
:10318000194B1B78F92B0DD97B681E221A707B68AE
:10319000124A5A607B6840F211329A607B68104A8A
:1031A000DA6018E01BF006FBF8600F4B1B78013368
:1031B000DAB20D4B1A70F8681BF00CFB7B6800222A
:1031C0001A707B68054A5A607B684FF447729A60B0
:1031D0007B68034ADA601037BD4680BD60E50200B7
:1031E000F4E50200CD530020C453002080B584B024
:1031F00000AF78607B68002B01D103F09DFF1BF0CE
:10320000F7FA0346002B0DD07B6820221A707B68EA
:10321000304A5A607B684FF44D729A607B682E4A40
:10322000DA60FEE72D4B1B78012B0DD07B68022264
:103230001A707B68274A5A607B6840F237329A607E
:103240007B68254ADA60FEE7254B1B78002B0DD101
:103250007B681F221A707B681E4A5A607B6840F2A6
:103260003A329A607B681C4ADA602FE01BF0A2FABF
:10327000F8601B4B1B78013BDAB2194B1A70184BE4
:103280001B78002B10D0F8681BF0A4FA7B682D2265
:103290001A707B680F4A5A607B6840F242329A602B
:1032A0007B680D4ADA6011E0F8681BF093FAFFF7CB
:1032B0009BFE7B6800221A707B68064A5A607B6816
:1032C0004FF453729A607B68034ADA601037BD4648
:1032D00080BD00BF60E5020000E60200CD53002083
:1032E000C453002080B584B000AF78607B68002BA9
:1032F00001D103F021FF2F4B1B78012B0DD07B68F0
:1033000013221A707B682C4A5A607B6840F2DE32C6
:103310009A607B68294ADA60FEE70023FB81284B2C
:103320001B88FA899A420DD37B6809221A707B6840
:10333000214A5A607B6840F2E9329A607B681F4AF2
:10334000DA60FEE71F4B1B78002B0DD07B681F2235
:103350001A707B68184A5A607B684FF47B729A60D7
:103360007B68164ADA60FEE702F0FEF803461A466A
:10337000154B1A70144B1A78144B1A70124B1B7899
:103380001946134A0B465B000B449B0013441B6811
:10339000104A13600F4B1B680F4A1360094B012240
:1033A0001A70FFF7A9FA03F0C7FE00BF1037BD4639
:1033B00080BD00BFD056002060E5020010E602008C
:1033C000FC560020CD530020D4560020E0560020AB
:1033D000D0530020EC560020E456002080B586B083
:1033E00000AFF8600B467A60FB721D4B1B68FA7ADF
:1033F00083F830201A4B1B68002283F83120194BC8
:103400001B78002B06D0184B1B680022DA66174881
:10341000FEF724FD124B1B687968184600F0ACFCDF
:10342000FB68002B0DD0FB6808337B610C4B1B68DD
:10343000FA68DA620A4B1B681946786900F024F9C9
:1034400003E0074B1B680022DA62054B1B68194634
:10345000F86800F087F800BF1837BD4680BD00BF90
:10346000E45600202E570020B8530020A05300201F
:1034700080B586B000AFF860B9601346FB71FB6899
:1034800093F83230072B64D801A252F823F000BF22
:103490005935000059350000B1340000B134000046
:1034A000593500005935000005350000053500008C
:1034B000FB6800221A67FB680022A3F87420F868F2
:1034C00000F04EF9FB6893F83230032B0AD1FB6809
:1034D00050331846FEF7C2FC78617B69002B01D09F
:1034E00003F02AFEF86800F037FAFB68002283F840
:1034F0003220FB68FA7983F83120FB68002283F8D8
:1035000030202AE0FB6800221A67FB680022A3F83B
:103510007420F86800F024F9FB6893F83230072B28
:103520000AD1FB6850331846FEF798FC78617B6936
:10353000002B01D003F000FEFB68042283F8322048
:10354000FB68FA7983F83120FB68002283F8302089
:1035500003E003F0F1FD00E000BF00BF1837BD46F7
:1035600080BD00BF80B485B000AF786039607B68F3
:10357000002B0FD07B685A683B68C3F8AC207B688F
:103580000833FB60FB681B68BB60BB68DA687B685C
:10359000DA6116E03B6893F83030022B02D0072B3B
:1035A00005D009E03B680A4AC3F8AC2009E03B6853
:1035B000084AC3F8AC2004E03B68074AC3F8AC20D3
:1035C00000BF00BF1437BD465DF8047B704700BFE5
:1035D000D4E50200DCE50200E8E5020080B485B035
:1035E00000AF786039603B680E4AC3F8AC207B6856
:1035F000002B10D07B680833FB60FB681B68BB6046
:10360000BB68002B04D0BB68DA687B68DA6102E033
:103610007B68044ADA6100BF1437BD465DF8047B5D
:10362000704700BFE8E5020080B584B000AF786065
:103630007B68DB6AFB60FB680833BB60BB681B68A8
:103640005B6A002B09D0786800F08AF87B68FA681A
:10365000DA627968B86800F017F800BF1037BD4625
:1036600080BD80B483B000AF78607B6800221A60B0
:103670007B6800225A607B6800221A8100BF0C37E9
:10368000BD465DF8047B704780B485B000AF7860BC
:1036900039603B6893F83330FB727B681B68002B02
:1036A0000FD17B6801221A813B6800225A623B6875
:1036B00000229A627B683A681A607B683A685A60AE
:1036C00048E07B681B8901339AB27B681A817B686A
:1036D0001B68FB6008E0FB6893F83330FA7A9A4283
:1036E00006D3FB685B6AFB60FB68002BF3D100E04C
:1036F00000BFFB68002B0ED13B6800225A627B683A
:103700005A683B689A623B689B6A3A685A627B686F
:103710003A685A601EE0FB689B6A002B0CD13B683C
:10372000FA685A623B6800229A62FB683A689A62B9
:103730007B683A681A600DE03B68FA685A62FB6879
:103740009A6A3B689A623B689B6A3A685A62FB686D
:103750003A689A6200BF1437BD465DF8047B704733
:1037600080B487B000AF78607B68DB6A002B46D0FE
:103770007B68DB6A08337B617B691B685B6A002BB3
:1037800006D17B6900221A607B6900225A6027E01B
:103790007B689B6A002B09D17B685B6AFB60FB68D6
:1037A00000229A627B69FA681A6019E07B685B6A9A
:1037B000002B09D17B689B6A3B613B6900225A62FE
:1037C0007B693A695A600BE07B689B6A3B617B6866
:1037D0005B6AFB603B69FA685A62FB683A699A6205
:1037E0007B691B89013B9AB27B691A817B68002245
:1037F0005A627B6800229A627B680022DA6200BF0C
:103800001C37BD465DF8047B704780B586B000AFBD
:10381000F860B9607A607B80BB6893F83230052B22
:1038200006DC042B6BDA002B66DB012B67DD04E082
:10383000072B33DDFF2B64D05EE0BB687A681A6724
:10384000BB687A88A3F87420FB68002B02D0B868A4
:10385000FFF786FFB968F868FFF7C0FEBB6893F80A
:103860003230032B0AD1BB6850331846FEF7F6FA04
:1038700078617B69002B01D003F05EFCB86800F032
:103880006BF8BB68002283F83220BB68002283F803
:103890003120BB68002283F8302033E0BB687A68AF
:1038A0001A67BB687A88A3F87420FB68002B02D0E3
:1038B000B868FFF755FFB968F868FFF78FFEBB6877
:1038C00093F83230072B0AD1BB6850331846FEF705
:1038D000C5FA78617B69002B01D003F02DFCBB6831
:1038E000042283F83220BB68002283F83120BB68B1
:1038F000002283F8302005E003F01EFC02E000BF48
:1039000000E000BF00BF1837BD4680BD80B483B063
:1039100000AF00237B6013E07A6813465B0013441A
:103920009B000C4A13443B603B6800221A813B68B1
:1039300000221A603B6800225A607B6801337B607A
:103940007B683F2BE8D900BF0C37BD465DF8047B90
:10395000704700BFD053002080B582B000AF7860C0
:103960007B6893F83330184601F01AFE7B6893F8B1
:103970003320074B1B789A4203D1786800F04CF84B
:1039800002E0786800F006F800BF0837BD4680BD49
:10399000E056002080B485B000AF78607B6893F873
:1039A00033301A4613465B0013449B00194A1344F4
:1039B000FB60FB681B68002B0FD1FB6801221A819A
:1039C0007B6800221A617B6800225A61FB687A6872
:1039D0001A60FB687A685A6015E0FB681B8901333E
:1039E0009AB2FB681A81FB681A687B681A617B6867
:1039F00000225A61FB681B68BB60BB687A685A6129
:103A0000FB687A681A6000BF1437BD465DF8047B16
:103A1000704700BFD053002080B485B000AF7860FD
:103A20007B6893F833301A4613465B0013449B00BF
:103A3000184A1344FB60FB681B68002B0FD1FB681E
:103A400001221A817B6800221A617B6800225A6178
:103A5000FB687A681A60FB687A685A6014E0FB6851
:103A60001B8901339AB2FB681A817B6800221A61B4
:103A7000FB685B68BB607B68BA685A61BB687A6840
:103A80001A61FB687A685A6000BF1437BD465DF85A
:103A9000047B7047D053002080B487B000AF7860BB
:103AA0007B681A687B685B689A423AD07B681B68BF
:103AB0001A697B685B689A4218D17B681B687B61D6
:103AC0007B685B683B617B693A695A617B6900226C
:103AD0001A613B6900225A613B697A691A617B6805
:103AE0003A691A607B687A695A601AE07B681B68D9
:103AF0007B617B685B683B617B691B69FB60FB6882
:103B000000225A617B6900221A617B693A695A6115
:103B10003B697A691A617B68FA681A607B687A691E
:103B20005A6000BF1C37BD465DF8047B704700003B
:103B300080B586B000AF78607B6893F833301A4662
:103B400013465B0013449B00244A13447B617B684B
:103B50005B693B617B681B69FB603B69002B1FD184
:103B6000FB68002B0FD17B6900221A817B69002240
:103B70001A607B6900225A607B6893F833301846DC
:103B800001F036FD1FE07B691B89013B9AB27B691E
:103B90001A81FB6800225A617B69FA681A6012E098
:103BA0007B691B89013B9AB27B691A813B69FA6880
:103BB0001A61FB68002B03D17B693A695A6002E005
:103BC000FB683A695A617B6800225A617B6800226F
:103BD0001A6100BF1837BD4680BD00BFD05300201A
:103BE00080B584B000AF786039603B68FB60114BF2
:103BF0001B78012B19D11AF0DDFDB860FB6800229B
:103C0000DA660D4B1B6893F833301A4613465B0097
:103C100013449B00094A13441846FFF73DFFB86858
:103C20001AF0D8FDFFF7E0F900E000BF1037BD46FD
:103C300080BD00BF2E570020B8530020D053002075
:103C400080B584B002AF78607B68002B12D00C4B3B
:103C50001B78012B10D17B68D96E002301930023C0
:103C600000937B68074A0848FEF7CCF8074A7B6850
:103C7000136002E000BF00E000BF0837BD4680BD12
:103C80002E570020E13B0000A0530020B853002035
:103C9000F0B583B000AF78607B68002B5FD0334B0A
:103CA0001B78012B5DD17B689B6E002B2BD1304B99
:103CB0001B681D464FF00006FEF7A6F903464FF0BD
:103CC000000403FB06F105FB04F20A44A5FB0334E0
:103CD00022441446274A1268013A11464FF0000266
:103CE0005D1844EB020628463146224B1B684FF014
:103CF00000041A46234628F089F903460C461A4662
:103D00007B68DA662EE07B689B6E1D464FF00006EE
:103D1000FEF77AF903464FF0000403FB06F105FBBA
:103D200004F20A44A5FB033422441446114A1268E3
:103D3000013A11464FF000025D1844EB0206284696
:103D400031460C4B1B684FF000041A46234628F0FE
:103D50005DF903460C461A467B68DA6602E000BF4E
:103D600000E000BF0C37BD46F0BD00BF2E5700205D
:103D700014570020C82A0020F0B587B002AF786041
:103D800039603B68002B3FD03B681D464FF0000672
:103D9000FEF73AF903464FF0000403FB06F105FB7A
:103DA00004F20A44A5FB0356324416461C4A126824
:103DB00011464FF000026B1846EB020413F1FF307E
:103DC00044F1FF31164B1B684FF000041A4623469E
:103DD00028F01CF903460C46FB607B6803F1500099
:103DE00000230193002300937B680E4AF968FEF7D5
:103DF00009F8B860BB68002B01D003F09DF97B681F
:103E0000032283F8322003E07B68022283F8322009
:103E10007868FFF78DFE00BF1437BD46F0BD00BFC8
:103E2000C82A0020293E000080B586B000AF786027
:103E300039603B683B611AF0BDFCF8603B6993F860
:103E40003230013B062B7DD801A252F823F000BF8F
:103E50002B3F0000453F00006D3E0000453F000045
:103E60003B3F0000453F00006D3E000000237B61AA
:103E70003B6993F83030042B03D13B69DB6A5B6A02
:103E80007B613B6900221A673B690022A3F874201A
:103E90003869FFF765FC3B6993F83230032B07D193
:103EA0003869FFF759FD3B69002283F8322008E0AA
:103EB0003B6993F83230072B03D13B69042283F826
:103EC00032203B69032283F831203B69002283F8CA
:103ED00030207B69002B37D07B6993F833207B69D6
:103EE00093F834309A422FD07B6993F833203B69A2
:103EF00093F833309A4227D1786901F0B2FA034639
:103F0000FB727B6993F83430FA7A934228BF1346E8
:103F1000FB727B6993F83330FA7A9A4214D0FB7AB9
:103F20001946786902F078FE0EE03B69002283F8BA
:103F300032203869FFF710FD07E03B69042283F85F
:103F4000322002E000BF00E000BFF8681AF042FC37
:103F5000FFF74AF800BF1837BD4680BD80B483B074
:103F600000AF694B1B78DBB2FB71684B1B68DBB29F
:103F70007B71674B1B78DBB2FB71664B1B78DBB246
:103F8000FB71654B1B68DBB27B71644B1B6ADBB258
:103F90007B71634B1B78DBB2FB71624B1B78DBB22E
:103FA000FB71614B1B889BB2DBB2BB715F4B1B8803
:103FB0009BB2DBB2BB715E4B1B78DBB2FB715D4B1E
:103FC0001B889BB2DBB2BB715B4B1B889BB2DBB225
:103FD000BB715A4B1B889BB2DBB2BB71584B93F839
:103FE0002830DBB27B71574B1B78DBB2FB71564B31
:103FF0001B889BB2DBB2BB71544B1B889BB2DBB2FC
:10400000BB71534B1B889BB2DBB2BB71514B1B88FE
:104010009BB2DBB2BB71504B1B889BB2DBB2BB7156
:104020004E4B1B889BB2DBB2BB714D4B5B8D9BB281
:10403000DBB27B714B4B1B78DBB2FB714A4B1B88AD
:104040009BB2DBB2BB71494B1B78DBB2BB71484BF7
:104050001B6ADBB27B71474B1B78DBB2FB71464BB3
:104060001B889BB2DBB2BB71444B1B889BB2DBB29B
:10407000BB71434B1B68DBB27B71424B1B78DBB2DD
:10408000BB71414B1B78DBB2FB71404B1B78DBB241
:10409000FB713F4B1B78DBB2FB713E4B1B78DBB2F5
:1040A000FB713D4B1B78DBB2FB713C4B1B78DBB2E9
:1040B000FB713B4B1B889BB2DBB2BB71394B1B784E
:1040C000DBB2FB71384B1B889BB2DBB2BB71374B49
:1040D0001B889BB2DBB2BB71354B1B78DBB2FB712B
:1040E000344B1B889BB2DBB2BB71334B1B889BB23A
:1040F000DBB2BB71FB79BB797B7900BF0C37BD4666
:104100005DF8047B704700BFA0000020E4000020A1
:10411000A1000020A2000020A4000020D82A002036
:10412000A8000020FC2A0020AA000020AC000020EB
:10413000AE000020B0000020B2000020B40000203B
:10414000002B0020B6000020B8000020BA0000209C
:10415000BC000020BE000020C0000020C2000020E3
:104160002C2B0020C4000020C6000020C800002026
:104170005C2B0020C9000020CA000020CC000020D9
:10418000D0000020D4000020802B0020D50000208B
:10419000D6000020D7000020812B0020822B002099
:1041A000D8000020DA000020DC000020DE00002023
:1041B000832B0020842B0020E000002080B586B0F7
:1041C00000AFF860B9607A603B603B68002B01D1BA
:1041D00002F0B2FF1AF00CFB0346002B0CD03B6838
:1041E00020221A703B68264A5A603B6855229A6022
:1041F0003B68244ADA60FEE7FB68002B0CD13B6881
:104200000A221A703B681E4A5A603B6858229A601C
:104210003B681C4ADA60FEE71AF0CCFA7861FB686A
:10422000184624231A46002128F00BF9FB68164A89
:104230001A60FB68BA685A60FB687A681A62FB68A1
:1042400008331846FFF70DFAF86800F097FB0F4B9C
:104250001B8801339AB20D4B1A8078691AF0BAFAAA
:104260003B6800221A703B68054A5A603B6870221E
:104270009A603B68034ADA6000BF1837BD4680BDCC
:1042800018E6020098E60200464C414724570020F9
:1042900080B588B000AFF860B9607A607B80FB6A57
:1042A000002B01D102F048FF1AF0A2FA0346002BBE
:1042B0000DD0FB6A20221A70FB6A8A4A5A60FB6A98
:1042C00040F22F129A60FB6A874ADA60FEE7874B5A
:1042D0001B78012B0DD0FB6A02221A70FB6A814AFF
:1042E0005A60FB6A4FF499729A60FB6A7E4ADA6000
:1042F000FEE7FB68002B0DD1FB6A0A221A70FB6AED
:10430000784A5A60FB6A40F235129A60FB6A764A34
:10431000DA60FEE77B88012B41D07B88022B3ED000
:104320007B88042B3BD07B88082B38D07B8840F2DD
:104330000112934233D07B88B3F5817F2FD07B88E5
:10434000B3F5827F2BD07B88B3F5847F27D07B8821
:1043500048F20102934222D07B8848F20202934243
:104360001DD07B8848F20402934218D07B8848F223
:104370000802934213D07B8848F2011293420ED078
:104380007B8848F20212934209D07B8848F20412DB
:10439000934204D07B8848F20812934201D1012352
:1043A00000E00023002B0DD1FB6A08221A70FB6A83
:1043B0004C4A5A60FB6A40F247129A60FB6A4A4ACA
:1043C000DA60FEE7FB681B68494A93420DD0FB6A3E
:1043D0000C221A70FB6A434A5A60FB6A4FF4A572BA
:1043E0009A60FB6A404ADA60FEE77B8803F48073D8
:1043F000002B02D00123FB7701E00023FB77BB6A8F
:10440000002B02D0BB6A00221A607B8803F00F03E6
:10441000BB831AF0CFF9B861BB8B042B02D0082BF9
:104420006CD0CAE0FB681B6ABA6813407B617A698A
:10443000BB689A4220D1FB7F012B06D1FB681A6A28
:104440007B69DB431A40FB681A622A4B1B687A6956
:10445000C3F88820B8691AF0BDF9FB6A00221A7007
:10446000FB6A204A5A60FB6A4FF4B3729A60FB6A97
:104470001D4ADA607B693AE1B7F90230002B11DAA4
:10448000B8691AF0A7F9FB6A1D221A70FB6A154A6F
:104490005A60FB6A40F26D129A60FB6A124ADA6057
:1044A000002324E1144B1B78002B11D0B8691AF0BB
:1044B00091F9FB6A2D221A70FB6A0A4A5A60FB6A5C
:1044C0004FF4BA729A60FB6A074ADA6000230EE181
:1044D0007A887B68B968F86800F02EFAB8691AF033
:1044E00079F96FE018E60200A8E60200CD5300203B
:1044F000464C4147E4560020C4530020FB681B6A29
:10450000BA6813407B617B69002B20D0FB7F012BB5
:1045100006D1FB681A6A7B69DB431A40FB681A62A2
:10452000754B1B687A69C3F88820B8691AF052F98C
:10453000FB6A00221A70FB6A704A5A60FB6A4FF4E9
:10454000C8729A60FB6A6E4ADA607B69CFE0B7F99D
:104550000230002B11DAB8691AF03CF9FB6A1D220F
:104560001A70FB6A654A5A60FB6A40F297129A60B9
:10457000FB6A634ADA600023B9E0624B1B78002BC8
:1045800011D0B8691AF026F9FB6A2D221A70FB6A5D
:104590005A4A5A60FB6A4FF4CF729A60FB6A584AD3
:1045A000DA600023A3E07A887B68B968F86800F0D5
:1045B000C3F9B8691AF00EF904E0B8691AF00AF9FB
:1045C00002F0BAFDFEF710FD1AF0F4F8B8614A4B9C
:1045D0001B6893F83130032B51D801A252F823F015
:1045E000F14500000D4600005D4600002F4600002A
:1045F000FB6A00221A70FB6A404A5A60FB6A40F26A
:1046000017229A60FB6A3E4ADA603DE0B8691AF008
:10461000E1F8FB6A21221A70FB6A384A5A60FB6A89
:1046200040F222229A60FB6A354ADA602CE0BB6ACB
:10463000002B02D0BB6A00221A60B8691AF0CAF8CF
:10464000FB6A22221A70FB6A2C4A5A60FB6A40F20B
:104650002B229A60FB6A2A4ADA6015E0B8691AF0E0
:10466000B9F8FB6A31221A70FB6A244A5A60FB6A65
:1046700040F236229A60FB6A214ADA6004E0B869A7
:104680001AF0A8F802F058FDFB6A1B78002B01D045
:1046900000232CE0184B1B68D3F888307B61FB7F2C
:1046A000012B12D1BB8B042B01D0082B07D1FB6847
:1046B0001A6A7B69DB431A40FB681A6206E0B86934
:1046C0001AF088F802F038FD00E000BFB8691AF06F
:1046D00081F8FB6A00221A70FB6A084A5A60FB6A7A
:1046E00040F259229A60FB6A054ADA607B691846F3
:1046F0002037BD4680BD00BFE456002018E602000A
:10470000A8E60200C453002080B58CB000AFF8606A
:10471000B9603B601346FB803B68002B01D102F07F
:104720000BFD814B1B78012B0DD03B6802221A70C8
:104730003B687E4A5A603B6840F212329A603B689E
:104740007B4ADA60FEE7FB68002B0DD13B680A224A
:104750001A703B68754A5A603B6840F215329A609D
:104760003B68734ADA60FEE7FB88002B0BD0FB88BE
:10477000012B08D0FB88B3F5004F04D0FB8848F22A
:104780000102934201D1012300E00023002B0DD14F
:104790003B6808221A703B68644A5A603B6840F2E2
:1047A0001B329A603B68624ADA60FEE7FB681B686E
:1047B000604A93420DD03B680C221A703B685B4AFA
:1047C0005A603B6840F21E329A603B68584ADA6091
:1047D000FEE70023BB6219F0EDFF7862FB88012B36
:1047E00013D0012B02DC002B08D016E0B3F5004FEC
:1047F00004D048F20102934207D00EE0FB681A6A27
:10480000BB681A43FB681A620CE0FB681A6ABB6853
:10481000DB431A40FB681A6204E0786A19F0DAFF99
:1048200002F08AFCFB6808333B623B6A1B68002B82
:1048300012D1786A19F0CEFF3B6800221A703B68EB
:104840003A4A5A603B684FF450729A603B68384A63
:10485000DA60FB681B6A63E03B6A1B68FB623CE052
:10486000FB6A5B6ABB61FB6AB3F88C3003F00F0331
:10487000FB82FB8A042B02D0082B13D022E0FB68BA
:104880001A6AFB6AD3F8843013403B61FB6AD3F8A1
:1048900084303A699A421BD1BA6A3969F86A00F0E1
:1048A00095F815E0FB681A6AFB6AD3F88430134068
:1048B0003B613B69002B0DD0BA6A3969F86A00F098
:1048C00085F807E0786A19F085FF02F035FC02E010
:1048D00000BF00E000BFBB69FB62FB6A002BBFD1D9
:1048E000786A19F077FFB7F90630002B01DBFEF785
:1048F0007BFB19F05FFF7862FB681B6AFB61786ADB
:1049000019F068FF3B6800221A703B68074A5A603A
:104910003B6840F281329A603B68054ADA60FB6985
:1049200018463037BD4680BDCD53002018E6020042
:10493000B4E60200464C414780B584B000AFF86051
:10494000B9603B601346FB800B4B1B68BA68C3F829
:104950008420094B1B68FA88A3F88C20064B1B683F
:104960000022C3F888203A680121F868FEF736FD76
:1049700000BF1037BD4680BDE456002080B483B030
:1049800000AF78607B680F4ADA617B6800225A6169
:104990000D4B1B68002B03D17B6800229A6107E056
:1049A000094B1A687B689A61074B1B687A685A61E1
:1049B000054A7B68136000BF0C37BD465DF8047B79
:1049C000704700BF94E602002857002080B586B0EB
:1049D00000AFF860B9607A60FB68BA68C3F88820F5
:1049E000FB68002283F83120FB68002283F8302026
:1049F000FB6893F83230072B2FD801A252F823F02E
:104A0000614A0000614A0000214A0000214A00007A
:104A1000614A0000614A0000514A0000514A00000A
:104A2000FB6893F83230032B0AD1FB6850331846E9
:104A3000FDF714FA78617B69002B01D002F07CFB52
:104A4000F868FEF789FFFB68002283F8322008E04F
:104A5000FB68042283F8322003E002F06DFB00E0E3
:104A600000BFF868FEF77CFE00BF1837BD4680BD6A
:104A700080B487B000AF7860274B1B687B61264B02
:104A80001B683B613B690C333B61244B1B88013B3A
:104A9000BB810023FB8111E07B693A691A607B6965
:104AA00000225A607B6900221A817B690C337B618A
:104AB0003B690C333B61FB890133FB81FA89BB897C
:104AC0009A42E9D37B6900221A607B6900225A600E
:104AD0007B6900221A81104B1B68114A13600F4B2F
:104AE0001A880F4B9A800E4B0022DA800C4B002262
:104AF0001A817B6800221A707B680A4A5A607B68B8
:104B00005D229A607B68084ADA6000BF1C37BD46A8
:104B10005DF8047B704700BFBC2A0020C02A00203B
:104B200000570020C0E6020034E7020080B483B0E2
:104B300000AF78600B467B807B681A4600231360C9
:104B400053609360D3607B687A881A8100BF0C370A
:104B5000BD465DF8047B704780B487B000AFF86055
:104B6000B9607A603B60FB685B89002B10D1BB6841
:104B700000221A803B680F221A703B68274A5A604D
:104B80003B68B9229A603B68254ADA6000233EE020
:104B9000FB685B687B617B695B683B617B691A8949
:104BA000BB681A807B691A68FB685A60FB685B689F
:104BB000002B06D1FB6800221A60FB6800225A8194
:104BC00005E0FB685B89013B9AB2FB685A81154B93
:104BD0001A687B691A60134A7B691360114B9B88C2
:104BE00001339AB20F4B9A800E4BDB88013B9AB28D
:104BF0000C4BDA803B6800221A703B68074A5A6007
:104C00003B68D4229A603B68054ADA603B691846E3
:104C10001C37BD465DF8047B704700BFC0E602004C
:104C200044E702000057002080B487B000AFF8606E
:104C3000B96011461A460B46FB801346BB80FB68E1
:104C40005A89FB681B899A420CD37B6A1E221A7010
:104C50007B6A454A5A607B6AFF229A607B6A434AB4
:104C6000DA607BE0424B9B88002B0DD17B6A1122DE
:104C70001A707B6A3C4A5A607B6A4FF482729A606F
:104C80007B6A3A4ADA6069E0394B1B687B617B6971
:104C90001B68374A1360364B9B88013B9AB2344BF2
:104CA0009A80334BDB8801339AB2314BDA80304B38
:104CB0001A892F4BDB889A4203D22D4BDA882C4B72
:104CC0001A81FB685B89002B0CD1FB687A691A603A
:104CD000FB687A695A60FB6801225A817B6900226D
:104CE0001A601EE0BB8803F01003002B0CD1FB6898
:104CF0001B683B613B697A691A60FB687A691A60D4
:104D00007B6900221A6006E0FB685A687B691A60BA
:104D1000FB687A695A60FB685B8901339AB2FB6869
:104D20005A81FB689A89FB685B899A4203D2FB68C7
:104D30005A89FB689A817B69BA685A607B69FA88EC
:104D40001A817B6A00221A707B6A074A5A607B6A62
:104D50004FF498729A607B6A044ADA601C37BD4649
:104D60005DF8047B704700BFC0E6020050E7020018
:104D70000057002080B586B000AFF860B9607A6057
:104D80007B68002B01D102F0D7F919F031FD034601
:104D9000002B0CD07B6820221A707B68244A5A6052
:104DA0007B6852229A607B68224ADA60FEE7FB68E1
:104DB000002B0CD17B680A221A707B681C4A5A604F
:104DC0007B6855229A607B681A4ADA60FEE719F020
:104DD000F1FC7861FB6818462C231A46002127F065
:104DE00030FBFB68144A1A60FB68BA685A60FB68BB
:104DF00008331846FEF735FCF86800F0DBFA0F4B75
:104E00001B8801339AB20D4B1A80786919F0E2FCC5
:104E10007B6800221A707B68054A5A607B686C22A6
:104E20009A607B68034ADA6000BF1837BD4680BDD0
:104E30005CE70200DCE702004D5554582C57002077
:104E400080B586B000AFF860B9603B601346FB8068
:104E50003B6A002B01D102F06FF919F0C9FC03463F
:104E6000002B0DD03B6A20221A703B6A964A5A608A
:104E70003B6A40F22D129A603B6A944ADA60FEE780
:104E8000934B1B78012B0DD03B6A02221A703B6AB0
:104E90008D4A5A603B6A4FF498729A603B6A8B4A1B
:104EA000DA60FEE7FB68002B0DD13B6A0A221A701C
:104EB0003B6A854A5A603B6A40F233129A603B6A09
:104EC000824ADA60FEE7FB88002B03D0FB88B3F54B
:104ED000004F01D1012300E00023002B0DD13B6ADC
:104EE00008221A703B6A784A5A603B6A40F23712CD
:104EF0009A603B6A754ADA60FEE7FB681B68754A90
:104F000093420DD03B6A0C221A703B6A6E4A5A607B
:104F10003B6A4FF49D729A603B6A6C4ADA60FEE726
:104F200019F048FC7861FB6893F82830002B1ED1FB
:104F3000694B1A68FB685A62FB68012283F82820D3
:104F4000654B1B68F968184600F05CFA786919F03F
:104F500041FC3B6A00221A703B6A5B4A5A603B6A1A
:104F600040F247129A603B6A584ADA60DAE0FB681E
:104F70005A6A594B1B689A422ED1FB6893F8283025
:104F8000FF2B10D1786919F025FC3B6A1E221A709C
:104F90003B6A4D4A5A603B6A4FF4A8729A603B6A7A
:104FA0004A4ADA60BEE0FB6893F828300133DAB28F
:104FB000FB6883F82820786919F00CFC3B6A2322EF
:104FC0001A703B6A404A5A603B6A4FF4AE729A606C
:104FD0003B6A3E4ADA60A5E0B7F90630002B10DAEA
:104FE000786919F0F7FB3B6A1D221A703B6A364A52
:104FF0005A603B6A40F269129A603B6A334ADA604F
:1050000090E0364B1B78002B10D0786919F0E2FB4A
:105010003B6A2D221A703B6A2B4A5A603B6A40F267
:1050200075129A603B6A294ADA607BE0FB685B6A2A
:105030003B613B6993F83320274B1B6893F833306F
:105040009A4207D9244B1B6893F8333019463869C4
:1050500001F0E2FDBA680421F868FEF7BFF978694B
:1050600019F0B8FBFDF7C0FF19F0A4FB78611A4BEB
:105070001B6893F83130032B4ED801A252F823F06D
:1050800091500000AD500000FD500000E1500000C4
:105090003B6A00221A703B6A0B4A5A603B6A40F234
:1050A00093129A603B6A094ADA6038E03B6A21222F
:1050B0001A703B6A044A5A603B6A40F29D129A6039
:1050C0003B6A024ADA602AE05CE70200ECE7020091
:1050D000CD5300204D555458E4560020C4530020B1
:1050E0003B6A22221A703B6A104A5A603B6A40F2BD
:1050F000A7129A603B6A0E4ADA6010E03B6A3122DE
:105100001A703B6A094A5A603B6A40F2B1129A60CF
:105110003B6A074ADA6002E002F00EF800BF7869E5
:1051200019F058FB1837BD4680BD00BF5CE7020090
:10513000ECE7020080B58CB002AFF8600B467A60F5
:105140007B817B68002B01D101F0F6FF19F050FB49
:105150000346002B0DD07B6820221A707B688F4A93
:105160005A607B6840F245229A607B688C4ADA601C
:10517000FEE78C4B1B78012B0DD07B6802221A7046
:105180007B68864A5A607B684FF412729A607B682B
:10519000834ADA60FEE7FB68002B0DD17B680A22A8
:1051A0001A707B687D4A5A607B6840F24B229A6095
:1051B0007B687B4ADA60FEE77B89002B03D07B8922
:1051C000B3F5004F01D1012300E00023002B0DD1E6
:1051D0007B6808221A707B68704A5A607B6840F2CC
:1051E0004F229A607B686E4ADA60FEE7FB681B68B4
:1051F0006D4A93420DD07B680C221A707B68674A17
:105200005A607B6840F252229A607B68644ADA6096
:10521000FEE719F0CFFA7862FB685A6A634B1B68A5
:105220009A4210D0786A19F0D5FA7B681B221A705E
:105230007B685A4A5A607B6840F257229A607B68C2
:10524000574ADA60A7E000233B62FB6893F82830F6
:10525000013BDAB2FB6883F82820FB6893F828301A
:10526000002B10D0786A19F0B5FA7B6823221A70E7
:105270007B684A4A5A607B684FF41A729A607B686E
:10528000474ADA6087E0494B1B68F968184600F026
:10529000CBF8FB680833FB61FB691B68002B17D157
:1052A000FB6800225A62FB68002283F82820786A93
:1052B00019F090FA7B6800221A707B68374A5A60AE
:1052C0007B6840F275229A607B68354ADA6062E05A
:1052D000364B1B6893F83320344B1B6893F83430FB
:1052E0009A422CD0314B1B68184600F0BAF803469E
:1052F000FB762E4B1B6893F83430FA7E934228BF1E
:105300001346FB76294B1B6893F83330FA7E9A429A
:1053100015D9264B1B681846FEF70AFC234B1B6861
:10532000FA7E83F83320FB7E184600F039F91F4BD4
:105330001B681846FEF770FB1D4AFB7E1370FB6965
:105340001B687B61FB687A695A62FB68012283F8FB
:105350002820F968786900F055F83B6A009300232B
:1053600000227969F868FEF750FA786A19F032FA83
:10537000B7F90A30002B01DBFDF736FE7B6800220F
:105380001A707B68054A5A607B684FF426729A60EF
:105390007B68034ADA602837BD4680BD5CE70200BF
:1053A000F8E70200CD5300204D555458E456002034
:1053B000E056002080B483B000AF78607B680F4A6D
:1053C000DA617B6800225A610D4B1B68002B03D108
:1053D0007B6800229A6107E0094B1A687B689A6132
:1053E000074B1B687A685A61054A7B68136000BFE7
:1053F0000C37BD465DF8047B704700BFD8E702005C
:105400003057002080B483B000AF786039607B688B
:105410009A6B3B681A627B683A689A6300BF0C37E4
:10542000BD465DF8047B704780B485B000AF7860FE
:1054300039607B683833FB6003E0FB681B6820330E
:10544000FB60FB681B683A689A42F6D1FB681B68F0
:105450001A6AFB681A6000BF1437BD465DF8047B0A
:10546000704780B487B000AF78603F23FB747B68DF
:1054700038337B6114E07B691B689B68FB60FB68C9
:10548000002B09D0FB6893F83330FB72FA7AFB7C6F
:105490009A4201D2FB7AFB747B691B6820337B61E3
:1054A0007B691B68002BE6D1FB7C18461C37BD4688
:1054B0005DF8047B704780B58AB002AF78607B6886
:1054C0009B6BFB612FE0FB691B6ABB6100237B6167
:1054D000F9697868FFF7A8FFFB6908333B613B690E
:1054E0001B68002B07D1FB69002283F82820FB6989
:1054F00000225A6215E03B691B68FB60FB697A6811
:105500005A62FB69012283F82820F969F868FFF7DD
:1055100079FF7B69009300230022F968F869FEF7A0
:1055200074F9BB69FB61FB69002BCCD100BF20374C
:10553000BD4680BD80B483B000AF00237B6007E030
:10554000084A7B68002142F823107B6801337B60A6
:105550007B68012BF4D900BF0C37BD465DF8047B96
:10556000704700BFBC53002080B500AF0B4B1B68D9
:10557000002B09D1094B5B681846FDF7B1F90346CA
:10558000DBB22033DBB206E0044B1B681846FDF7A4
:10559000A7F90346DBB2184680BD00BFBC5300200C
:1055A00080B483B000AF0346FB71FB791F2B0BD88F
:1055B0000E4B1A68FB79C3F11F03012101FA03F3B3
:1055C00013430A4A13600AE0084B5A68FB79C3F197
:1055D0003F03012101FA03F31343044A536000BF60
:1055E0000C37BD465DF8047B704700BFBC530020FC
:1055F00080B483B000AF0346FB71FB791F2B0CD83E
:105600000F4B1A68FB79C3F11F03012101FA03F361
:10561000DB4313400A4A13600BE0094B5A68FB79DD
:10562000C3F13F03012101FA03F3DB431340044AB2
:10563000536000BF0C37BD465DF8047B704700BF68
:10564000BC53002080B586B000AFF860B9603B6005
:105650001346FB803B68002B01D101F06DFD19F072
:10566000C7F80346002B0CD03B6820221A703B6819
:10567000394A5A603B6858229A603B68374ADA6078
:10568000FEE7FB68002B0CD13B680A221A703B68CE
:10569000314A5A603B685B229A603B682F4ADA6065
:1056A000FEE7FB88002B0CD13B6808221A703B6890
:1056B000294A5A603B685E229A603B68274ADA6052
:1056C000FEE7274B1B88FA889A420CD93B680822D0
:1056D0001A703B68204A5A603B6861229A603B68B6
:1056E0001E4ADA60FEE719F065F87861FB68184633
:1056F00030231A46002126F0A4FEFB68194A1A60DE
:10570000FB68BA685A60FB682033FA88114618466D
:10571000FFF70CFAFB6808331846FDF7A2FFF8689C
:1057200000F05AFA104B1B8801339AB20E4B1A80C4
:10573000786919F04FF83B6800221A703B68064AF6
:105740005A603B6878229A603B68044ADA6000BF7E
:105750001837BD4680BD00BF04E802007CE80200A7
:10576000C02A002051554555E856002080B586B026
:1057700000AFF860B9603B601346FB807B6A002B8A
:1057800001D101F0D9FC19F033F80346002B0DD0FC
:105790007B6A20221A707B6A9A4A5A607B6A40F2BE
:1057A00053129A607B6A984ADA60FEE7974B1B783F
:1057B000012B0DD07B6A02221A707B6A914A5A60D3
:1057C0007B6A4FF4AB729A607B6A8F4ADA60FEE7BD
:1057D000FB68002B0DD17B6A0A221A707B6A894A0A
:1057E0005A607B6A40F259129A607B6A864ADA6094
:1057F000FEE73B68002B0DD17B6A0A221A707B6A98
:10580000804A5A607B6A4FF4AE729A607B6A7E4A25
:10581000DA60FEE7FB88002B03D0FB88B3F5004F6E
:1058200001D1012300E00023002B0DD17B6A082267
:105830001A707B6A734A5A607B6A4FF4B0729A603E
:105840007B6A714ADA60FEE7FB681B68704A934224
:105850000DD07B6A0C221A707B6A6A4A5A607B6A96
:1058600040F263129A607B6A674ADA60FEE73B6A3D
:10587000002B02D03B6A00221A6018F09BFF3861AF
:10588000FB6803F120007B6A3A6A3968FFF764F924
:1058900078617B6A1B78002B04D1386918F09AFF75
:1058A0007B69ABE0B7F90630002B11DA386918F0E4
:1058B00091FF7B6A1D221A707B6A524A5A607B6A8A
:1058C00040F277129A607B6A4F4ADA60002395E0D3
:1058D000504B1B78002B11D0386918F07BFF7B6A86
:1058E0002D221A707B6A474A5A607B6A4FF4BF7256
:1058F0009A607B6A444ADA6000237FE0BA68052137
:10590000F868FDF76BFD386918F064FFFDF76CFB74
:1059100018F050FF3861404B1B6893F83130032B6F
:1059200061D801A252F823F03959000069590000EA
:10593000C15900008F590000374B1B681B6F7B61FA
:10594000354B1B68B3F874203B681A807B6A0022D1
:105950001A707B6A2B4A5A607B6A40F297129A60EF
:105960007B6A294ADA6045E000237B613B680022BC
:105970001A807B6A21221A707B6A224A5A607B6AEB
:1059800040F2A3129A607B6A1F4ADA6032E0002379
:105990007B613B6800221A803B6A002B02D03B6A85
:1059A00000221A607B6A22221A707B6A154A5A60AA
:1059B0007B6A40F2AD129A607B6A134ADA6019E0A2
:1059C00000237B613B6800221A807B6A31221A70B7
:1059D0007B6A0C4A5A607B6A40F2B9129A607B6A11
:1059E000094ADA6006E000237B613B6800221A80E6
:1059F00001F0A2FB386918F0EDFE7B6918461837F4
:105A0000BD4680BD04E8020088E80200CD530020B6
:105A100051554555C4530020E456002080B58CB044
:105A200002AFF860B96011461A460B46FB80134678
:105A3000BB803B6B002B01D101F07EFB624B1B78DE
:105A4000012B0DD03B6B02221A703B6B5F4A5A60F0
:105A50003B6B4FF417729A603B6B5D4ADA60FEE76E
:105A6000FB68002B0DD13B6B0A221A703B6B574A27
:105A70005A603B6B40F25F229A603B6B544ADA609B
:105A8000FEE7BB88002B1CD0BB88102B19D0BB882D
:105A9000B3F5007F15D0BB88B3F5047F11D0BB8868
:105AA000B3F5004F0DD0BB8848F21002934208D0E6
:105AB000BB88B3F5024F04D0BB8848F21022934252
:105AC00001D1012300E00023002B0DD13B6B082204
:105AD0001A703B6B3D4A5A603B6B40F269229A60F8
