:1000000000000820F13901001D3A01001D3A0100ED
:100010001D3A01001D3A01001D3A01001D3A010080
:100020001D3A01001D3A01001D3A01004180010006
:100030001D3A01001C3A0100D18001003581010008
:100040001D3A01001D3A0100C15701005D03000087
:100050001D3A01001D3A01001D3A01001D3A010040
:100060001D3A01001D3A01001D3A01001D3A010030
:100070001D3A0100D50300001D3A01001D3A0100A0
:100080001D3A01001D3A01001D3A01001D3A010010
:100090001D3A01001D3A01001D3A01001D3A010000
:1000A0001D3A01001D3A01001D3A01001D3A0100F0
:1000B0001D3A01001D3A01001D3A01001D3A0100E0
:1000C0001D3A01001D3A01001D3A01001D3A0100D0
:1000D0001D3A01001D3A01001D3A01000D380100D2
:1000E0001D3A01001D3A01001D3A01001D3A0100B0
:1000F0001D3A01001D3A01001D3A01001D3A0100A0
:100100001D3A01001D3A01001D3A01001D3A01008F
:100110001D3A01001D3A01001D3A01001D3A01007F
:100120001D3A01001D3A0100215C01001D3A010049
:100130001D3A01001D3A01001D3A01001D3A01005F
:100140001D3A01001D3A01001D3A01001D3A01004F
:1001500010B5054C237833B9044B13B10448AFF301
:1001600000800123237010BD380300200000000030
:100170004CE80C0008B5034B1BB103490348AFF32F
:10018000008008BD000000003C0300204CE80C008B
:10019000154B002B08BF134B9D46A3F5803A002159
:1001A0008B460F461348144A121A1AF0D0FB0F4B15
:1001B000002B00D098470E4B002B00D09847002012
:1001C000002104000D000D48002802D00C48AFF3B8
:1001D00000801AF041FB2000290000F013F81AF00B
:1001E0009BF900BF0000080000000820000000008C
:1001F000000000003803002094530120000000009C
:100200000000000000B587B04FF080420124484B49
:100210005464D3F8B020474D474948482243C3F8B7
:10022000B020D3F8E02042F00802C3F8E0202A68AA
:1002300042F480522A60D3F8E02022F00802C3F88A
:10024000E020D3F8B02022F00102C3F8B0200B6800
:1002500043F4F8430B6010F0EBFC394B0FCB02ADCD
:1002600085E80F0028468DF8094011F0E7FA0021D3
:1002700034480FF0E9FB13F0FBFA204613F0F0FAD4
:10028000214631480FF062FA22460023082102205D
:1002900011F058FC224600230921022011F052FCE3
:1002A0000822114600230220CDE9004411F0CAFBC8
:1002B0000922114600230220CDE9004411F0C2FBBF
:1002C000042211460023022011F03CFC00231846B2
:1002D00004220C2111F036FC002302220821042004
:1002E00011F030FC22462146002010F0E5FE174BAD
:1002F0004FF4005108222020C3F880111960C3F880
:10030000802183F803031A6013F034FC10481AF0BC
:10031000CFFB10481AF0CCFB0F481AF0C9FB19F0BC
:10032000B9FE1AF0CDF819F051FA18F0EDF8FEE721
:1003300000400E4034400540A4310E4000A24A0463
:1003400054BE01004041050000550A0000E100E0F4
:1003500064BE010068BE010070BE010010B582B02D
:10036000174B00220192D3F81C44C3F824446105C2
:100370000FD4E2051BD4A3051ED4019B3BB1114B46
:100380004FF080521A60BFF34F8FBFF36F8F02B0F0
:1003900010BD0D4B01A9186816F03AF90B4B0C482B
:1003A0001968022201AB17F0E9FDE205E3D5002050
:1003B00013F05EFCA305E0D5012013F059FCDCE747
:1003C0000080084004ED00E0244A01207853012019
:1003D000AD5E010010B582B0174B00220192D3F838
:1003E0001C44C3F8244461050FD4E2051BD4A305C3
:1003F0001ED4019B3BB1114B4FF080521A60BFF3EA
:100400004F8FBFF36F8F02B010BD0D4B01A918685D
:1004100016F0FEF80B4B0C481968022201AB17F0DE
:10042000ADFDE205E3D5002013F022FCA305E0D5E5
:10043000012013F01DFCDCE70080084004ED00E023
:10044000244A012078530120AD5E010000B583B03D
:10045000F92300220092114901931A461048019B8A
:100460001AF026FB0F4B1B6898681AF019F94FF029
:10047000200383F31188BFF36F8FBFF34F8F009B6F
:1004800033B94FF47A7017F005F8009B002BF8D0C1
:10049000002383F3118803B05DF804FB90BE0100D4
:1004A000A4BE01006001002000B583B00B4600220D
:1004B000009201461A4601930F48019B1AF0F8FA80
:1004C0000E4B1B6898681AF0EBF84FF0200383F38B
:1004D0001188BFF36F8FBFF34F8F009B33B94FF479
:1004E0007A7016F0D7FF009B002BF8D0002383F31F
:1004F000118803B05DF804FBA4BE01006001002078
:1005000070B543890E2B04461BD9C37B0D461BB91E
:1005100091F834300133C373606803788689D90752
:1005200006D5012B21D1437813B983785E2B32D0C5
:10053000082E0BD0B6F5C16F03D195F831301B07EB
:100540001ED4204606F0EAFA002070BD95F831303E
:100550001A07F6D50E21204606F05EFA0028F0D1E3
:100560002946204604F0D6FBEEE706220C491AF095
:10057000BBF90028DCD1637B43F008036373D7E742
:100580000E21204606F048FA0028DAD129462046F6
:1005900002F05AFFD8E7637B43F010036373C7E7A9
:1005A000BCBE01002DE9F0470546BDF820000C4611
:1005B0001746994605F0A0FA0E218046204606F01F
:1005C000FDF918BB666849460622A6F80C8030463D
:1005D0001AF099F9B01D394606221AF094F995F8E7
:1005E0003030062B05D12146AB692846BDE8F047DF
:1005F0001847084B0849094840F233121AF058FAD4
:100600002146AB692846BDE8F04718476FF0010066
:10061000BDE8F087C4BE01003CBF010070BF01000F
:100620002DE9F8430546002800F0A98089460029F5
:1006300000F09C8017464FF49A714FF420723620D8
:10064000984606F0DFFA0646002870D04389B3F5D5
:100650009A7F74D3032F21D099F80630002B69D0EC
:100660004B4B18687468C9F800004FF49A72002167
:1006700020461AF06CF901232370637095F830302E
:10068000A370D9F8000005F03BFA042F606020D079
:10069000FB1F012B1DD9032F1DD115E099F8053043
:1006A000032BD9D074684FF49A72002120461AF0B7
:1006B0004EF901232370637095F83030A370D9F898
:1006C000000005F01DFA606099F80530043B012B2D
:1006D00001D86B68E36005F12A0304F1200293421C
:1006E00095F82A30237795F82B30637705D204F1FB
:1006F0001C0305F12E02934229D3EB6AC4F81E3085
:1007000063236FF07D0284F8EC3084F8EF3084F8D6
:10071000ED20532035210122032384F8F27084F860
:10072000EE0084F8F01084F8F120A8F8003030468C
:10073000BDE8F8831AF0D4F9154B186092E7154B11
:100740001549164840F272721AF0B2F982E795F82C
:100750002C30A37795F82D30E37795F82E3084F878
:10076000203095F82F3084F82130C9E7094B0C4927
:100770000A4840F26A724E461AF09AF9D7E7054BDA
:100780000849064840F269722E461AF091F9CEE700
:100790005C030020D4BF01008CC0010070BF0100C9
:1007A0006CC001004CC0010010B582B0002877D0A9
:1007B000416A00297DD08B6A00225C1C4A820BD0E2
:1007C000A2F177321E33A2FB03235B09B3F5803F0E
:1007D0005FD203B901238B82CB6A5A1C38D0424ABC
:1007E0001E33A2FB03235B09B3F5803F4DD2002BE0
:1007F00076D101234B810A6BCB81541C2CD03A4C0F
:100800001E32A4FB02425209B2F5803F34D2002AC4
:1008100060D101228A810A821BBBCB7933B30B6A78
:1008200000934A6A019222B9CA69134043F0807367
:1008300001934B790A2B04D000230A224A718B7151
:100840000B811C3101AB6A4605F06EFF02B010BD92
:100850000A6B4B89541CD2D18A899342DDD3002A7A
:10086000DBD000234B81CB79002BD8D10B7F1A062C
:1008700028D4FF230093D4E74FF6FF7293428A8176
:100880000A82CAD100234B81EDE74FF6FF734B81FB
:10089000B1E74FF6FF738B82CB6A5A1C9FD1D7E723
:1008A000124B1349134840F215421AF001F902B0F5
:1008B00010BD0E4B10490F4840F217421AF0F8F8DD
:1008C00002B010BDBF2B8CBF6FF07F434FF6FF739C
:1008D0000093A6E792B29A428A810A82C1D99CE724
:1008E0009BB24B8187E700BF89888888D4BF01000D
:1008F000A0BF010070BF0100BCBF010038B5184D9A
:10090000EA7800230446C0E9083312B1154BDB68CE
:1009100083622B7913B1134B1B6901E0A36A5B0857
:100920006A79E36212B10F4B5B6903E0A36AC3EB20
:10093000C303DB082363AB790A69E2613BB1094B6E
:10094000986905F0DDF801232062E37100E0E371AE
:10095000EB7923B1034BD86905F0D2F8606238BD5A
:10096000849C00208C9C00202DE9F04F87B0466AC3
:100970007379032B824604D0002303227271B37172
:1009800033810DF11603032231465046FFF748FE2E
:100990008146002800F0C281BDF81650476805F175
:1009A0000408B8F1440F05F1020B07F1F00406D971
:1009B000CB4BCC49CC4840F29A521AF079F86B1CD8
:1009C0009BB2392262551FFA8BF10222E2548B1836
:1009D000442B0391ADF816B007D9C449C04BC248A7
:1009E00040F2AE521AF064F803990222EB1C1FFA8F
:1009F00088FB62549BB20BF106024021442AE15469
:100A0000ADF8168006D9B64BB649B74840F29A52AF
:100A10001AF04EF86B1D9BB23221042204F80B1021
:100A2000E25405F106081FFA88F8F069ADF816805F
:100A300005F066F808F10403442B834606D9A84B59
:100A4000AB49A94840F2B7521AF032F8EA1D92B207
:100A50004FEA1B6005F1080304F808009BB205F19A
:100A60000A084FEA1B40A0541FFA88F805F1090153
:100A70004FEA1B22E25489B208F10503442B04F823
:100A800001B0ADF8168006D9954B9649964840F2CC
:100A90009A521AF00DF805F10B0305F10C0B3722F1
:100AA0001FFA8BFB9BB204F80820BBF1430F4FF0F9
:100AB0000302E254ADF816B000F2248105F10D08EE
:100AC0001FFA88F80123B8F1430F04F80B30ADF892
:100AD000168000F2FC8005F10E031FFA83FB0393DE
:100AE000BBF1430F4FF0030304F80830ADF816B024
:100AF00000F2E58005F10F031C2205F1100104F856
:100B00000B2089B29AB2ADF8163043294FF0FF039B
:100B1000BDF80CC0A35400F2A18001F1F0003B1815
:100B20005B4203F0030303F10308B8F1050FC5F1BD
:100B3000330E38BF4FF005081FFA8EFEC5F13402A0
:100B4000C64592B2C0F0E880002B00F0E38005F1CA
:100B5000110B4FF00008012B1FFA8BFB04F80180EA
:100B60000DD005F1120E1FFA8EFE032B04F80B8038
:100B700003BF133504F80E801FFA85FBF346D21A23
:100B800092B2034490080025012807EB030EFD50A4
:100B90003DD90228CEF8045039D00328CEF80850A9
:100BA00035D00428CEF80C5031D00528CEF810509E
:100BB0002DD00628CEF8145029D00728CEF818508A
:100BC00025D00828CEF81C5021D00928CEF8205076
:100BD0001DD00A28CEF8245019D00B28CEF8285062
:100BE00015D00C28CEF82C5011D00D28CEF830504E
:100BF0000DD00E28CEF8345009D00F28CEF838503A
:100C000005D01028CEF83C5018BFCEF8405022F046
:100C100003039BB20BEB03059A42ADB21AD06A1CD8
:100C200092B20023442A635514D0A81C80B24428F1
:100C3000A3540FD0EA1C92B2442A23540AD0281D90
:100C400080B24428A35405D00535ADB2442D2354B9
:100C500018BF6355A1EB0C01423189B2F03189B262
:100C6000484606F093F8234BCDF800A01868224AB6
:100C7000432349460BF0BAFE0446484605F04EFFB2
:100C8000B379FF2B15D00133DBB2092BB37110D828
:100C9000C3EB431203EB8203DB00184A9BB203F25F
:100CA000F313A2FB03235B092046338107B0BDE8A1
:100CB000F08F14232046338107B0BDE8F08F084B36
:100CC0000F49094840F2A65219F0F2FE12E7044B10
:100CD0000B49054840F2A65219F0EAFEFBE600BFB8
:100CE000D4BF01002CC1010070BF010070C1010020
:100CF000ACC1010054030020C8C60100D34D6210EE
:100D0000E8C10100074B0849084840F2A65219F013
:100D1000CFFED3E68B4632E70D4680E74FF0FF3437
:100D2000AEE700BFD4BF0100E8C1010070BF010001
:100D30002DE9F04182B0466A72790023062A054601
:100D4000F36103D00622B371338172714FF42072C4
:100D50004FF49A71362005F055FF0746002800F041
:100D6000B6807B89B3F59A7FC0F0D780B379002B2A
:100D700000F0CE807A4B18687C6830604FF49A722D
:100D80000021204619F0E3FD01232370637095F8DC
:100D90003030A370306804F0B3FE05F12A036060C0
:100DA00004F12002934295F82A30237795F82B30EE
:100DB000637706D204F11C0305F12E029342C0F0C2
:100DC000BC80EB6AC4F81E304FF0010C352084F86B
:100DD000F1C084F8F2C084F8F0007B68632284F8E4
:100DE000EC2084F8EF206FF07D084FF0530E39218E
:100DF000022284F8ED8084F8EEE083F8F31083F8A3
:100E0000F4202A8D83F8F620D943120A4FF01C08EB
:100E10004FF0FF0E83F8F5203724032211F0030171
:100E200083F8F9C083F8F82083F8FA2083F8FB8070
:100E300083F8FCE003F1F00C83F8F7404FF0000278
:100E400073D0012983F8FD2058D0032983F8FE20B0
:100E500040F0828083F8FF2034244FF0100E01F11F
:100E6000FD0200209850C1F137011A4488B20432C3
:100E700000213428C2E90011C2E90211C2E90411BB
:100E8000C2E90611C2E90811C2E90A110EF13402E1
:100E90000BD0352C0EF1350E0CF8021005D0362C87
:100EA0000CF80E1018BF83F833114FF49A713846BE
:100EB00005F06CFF2B4A2C4B10682C4ACDE90053EF
:100EC000394643230BF0A6FE384605F027FEB379DA
:100ED000FF2B17D00133DAB2052AB27112D84FF4C2
:100EE0007A7393409BB2224A03F2F313A2FB0323CB
:100EF0005B090020338102B0BDE8F08136244FF059
:100F00000E0EACE778230020338102B0BDE8F081FB
:100F100019F0E6FD124B18602EE7164B16491748DC
:100F200040F2727219F0C4FD20E7C3F8FD102046AC
:100F300003F201124FF00D0E9AE795F82C30A377CB
:100F400095F82D30E37795F82E3084F8203095F819
:100F50002F3084F8213037E704464FF00F0E7EE73C
:100F60005C03002054030020C4C60100C8C6010071
:100F7000D34D6210D4BF01008CC0010070BF0100CE
:100F80002DE9F04182B0002800F03E81476A064614
:100F9000002F00F043817B79012B04D00023012234
:100FA0007A71BB713B814FF420724FF49A713620F5
:100FB00005F028FE8046002800F023814389B3F520
:100FC0009A7FC0F0F5807B79032B00F0EB80D8F896
:100FD00004404FF49A720021204619F0B8FC012316
:100FE0002370637096F83030A370386804F088FD81
:100FF00060607B79043B012B9CBF7368E36006F162
:101000002E0204F11C03934296F82A30237796F8B7
:101010002B30637706D204F1200306F12A029342B3
:1010200000F2D780F36AC4F81E3035210122032371
:1010300084F8F01084F8F12084F8F230D8F80450E5
:10104000632384F8EC3084F8EF3053216FF07D0097
:101050003922022384F8ED0084F8EE1085F8F3209D
:1010600085F8F430338D85F8F63032221B0A0424DB
:1010700085F8F53085F8F72085F8F840F86904F030
:101080003FFD36234FEA106C010C020A85F8FE4042
:1010900085F8F9C085F8FA1085F8FB2085F8FD3051
:1010A00085F8FC00B86904F02BFD020E85F8FF20DE
:1010B000EA43040A4FEA104CFF235D4985F8020118
:1010C00012F003024FF01C0085F8014185F8083149
:1010D00085F800C1C5F8031105F1F00485F8070192
:1010E0004FF000036CD0012A85F8093154D0032A4F
:1010F00085F80A317CD185F80B314FF0280C02F2CB
:1011000009130021E950C2F12B022B4491B20433A0
:1011100000222829C3E90022C3E90222C3E90422EC
:10112000C3E906221A6200F128030BD0BCF1290F93
:1011300000F12900E25405D0BCF12A0F225418BF57
:1011400085F833214FF49A71404605F01FFE394A65
:10115000394B1068394ACDE90063414643230BF00F
:1011600059FD0446404605F0D9FCBB79FF2B17D04A
:101170000133DAB2052ABA7112D84FF47A73934068
:101180009BB22F4A03F2F313A2FB03235B093B81BB
:10119000204602B0BDE8F0814FF02A0C1A20AEE7DD
:1011A0007823F4E7BB793BB3264B186838600EE729
:1011B000254B2649264840F2727219F079FC02E765
:1011C0004FF02B0CC5F80921614605F20D131920CB
:1011D0009EE796F82C30A37796F82D30E37796F8B3
:1011E0002E3084F8203096F82F3084F821301CE718
:1011F0004FF0290C1B2082E719F072FC114B18608C
:10120000D4E74FF0FF34B0E70F4B1249104840F2DB
:10121000771219F04DFC6FF00F04B9E70A4B0E4935
:101220000B4840F2791219F043FC6FF00504AFE768
:101230003703010354030020C4C60100C8C60100DF
:10124000D34D62105C030020D4BF01008CC00100AC
:1012500070BF01008CC20100A8C201002DE9F04F4F
:1012600087B0B54B5E68D6F824B01446BBF1000FCA
:1012700009D09BF8043033B153892B2B03D9536821
:101280001A78022A05D0204605F048FC07B0BDE8D0
:10129000F08F96F830204AB396F82A00197F8842DA
:1012A000F1D1012A22D9587F96F82B108842EAD131
:1012B000022A1BD0987F96F82C108842E3D1032A8B
:1012C00014D0D87F96F82D108842DCD1042A0DD096
:1012D00093F8200096F82E108842D4D1052A05D024
:1012E00093F8211096F82F209142CCD1586804F041
:1012F00007FCDBF800309842C5D1082200218F4856
:1013000019F025FB62892B2ABDD90023CDE9026B98
:10131000B4F8089001934FF0F00A0094264600E0DC
:1013200072895245AAEB0201A9EB020308D836687C
:101330001FFA81FA1FFA83F9002EF1D1009CA2E76F
:10134000CA45D6F8048080F0198118F80A70FF2F7A
:10135000504600F013810AF102039BB25345EDD3CE
:101360005446611C914280F20081404490F801B0E3
:101370003B2F00F2E081DFE817F084003C00DE0143
:10138000E500DE01DE01DE01DE01DE01DE01DE015F
:10139000DE01DE01DE01DE01DE01DE01DE01DE0155
:1013A000DE01DE01DE01DE01DE01DE01DE01DE0145
:1013B000DE01DE01DE01DE01DE01DE01DE01DE0135
:1013C000DE01DE01DE01DE01DE01DE01DE01DE0125
:1013D000DE01DE01DE01DE01DE01DE01DE01DE0115
:1013E000D000B000A2009400DE01DE01DE01860024
:1013F000C200BBF1040F40F0AA814FF6F9718C4294
:101400009CD80634A4B25D4606274C49C95D00202D
:101410000590B9B92A4605A9304605F08FFEA842C5
:101420008CD1BBF1040F00F0AB81BBF1010F40F098
:101430003D829DF81400424B404A43F827000123A7
:10144000D35572899442C0F09680A41AA9EB020980
:10145000A4B21FFA89F94C45BFF470AF3668002E6C
:1014600000F08581D6F8048018F80470FF2F20461C
:1014700000F08480A31C9BB2A342FFF45FAF72898B
:101480006FE78CB2DEE7BBF1040F40F01C814FF632
:10149000F9718C423FF652AF0634A4B25D465F4606
:1014A000B3E7BBF1040F40F017814FF6F9718C429E
:1014B0003FF644AF0634A4B25D460227A5E7BBF170
:1014C000010F40F012814FF6FE7081423FF436AFBB
:1014D0000334A4B25D465F4697E7BBF1010F40F0CD
:1014E0000D81BAF1F00F40F04F814FF6FE7081424E
:1014F0003FF424AF0334A4B25D46002785E7BBF177
:10150000040F40F0D7804FF6F9718C423FF616AFCA
:101510000634A4B25D46052777E7BBF1040F40F01F
:10152000F6804FF6F9718C423FF608AF0634A4B24C
:101530005D46032769E700BFAC9C0020849C002027
:101540008C9C0020BBF1030F40F2EA800BEB0400FF
:101550004FF6FD7188423FF7F1AE02341BFA84F476
:101560000425A4B2AB4607274FE7306820B3406894
:1015700090F800B0FCE6A1453FF676AFC14B1B7872
:1015800063B1C14BBF491B680022012B0A7000F0F8
:10159000E980022B06D0032B00F0E280019B002B98
:1015A00000F0FB80002301934FF06C094FF02C0AF0
:1015B000009B5A891E46B4E63B2F00F2BA8001A375
:1015C00053F827F0831400004F1700003317000072
:1015D00021170000331700003317000033170000F5
:1015E00033170000331700003317000033170000D3
:1015F00033170000331700003317000033170000C3
:1016000033170000331700003317000033170000B2
:1016100033170000331700003317000033170000A2
:101620003317000033170000331700003317000092
:101630003317000033170000331700003317000082
:101640003317000033170000331700003317000072
:101650003317000033170000331700003317000062
:101660003317000033170000331700003317000052
:101670003317000033170000331700003317000042
:101680003317000033170000331700003317000032
:101690000F170000FD160000EB160000D916000021
:1016A000331700003317000033170000C71600007F
:1016B000B5160000754B76497648009C40F2616291
:1016C00019F0F6F9DFE5714B71497248009C40F260
:1016D0005D6219F0EDF9D6E56C4B6D496D48009CE3
:1016E00040F2596219F0E4F9CDE5684B6A4969485E
:1016F000009C40F2556219F0DBF9C4E5634B664982
:101700006448009C40F24F6219F0D2F9BBE55F4B90
:101710005F496048009C40F2416219F0C9F9B2E5A6
:101720005A4B5E495B48009C40F2336219F0C0F9A5
:10173000A9E54FF0000B0BEB04014FF6FD73994246
:101740003FF7FCAD02341BFA84F4A4B27AE64F4BA7
:101750004F495048009C40F22E6219F0A9F992E5D9
:10176000012301934FF0EC094FF06C0A20E7474B3F
:101770004B494848009C40F29D6219F099F982E576
:10178000059804F0BDF956E6404B46494148009C97
:1017900040F2516219F08CF975E53A4B009C5B7888
:1017A000DDE9026B002B3FF46EAD374A65681379B3
:1017B000052B1CD0062B2AD0022B7FF464AD9BF89E
:1017C0000530062B7FF45FAD2E4B9B78002B3FF44A
:1017D0005AAD776ABDF8043090683B8104F090F907
:1017E000B8612B69FB613046FFF7CAFB4BE59BF8FC
:1017F0000530012B26D0033B022B3FF644AD294692
:10180000706AFFF77BF83046FEF7CEFF3BE59BF8AA
:101810000530DA1E022A02D9012B7FF434AD736A37
:101820005A790C2A04D000220C2159719A711A811C
:101830001D4B30461A46194604F076FF3046FFF736
:1018400077FA20E52946706AFFF758F896F83130A4
:101850001B07D8D5756A6B79082B04D00199A9713B
:10186000082329816B713046002205F11C0102F02A
:1018700093F9AB79FF2B1CBF0133AB7101232B8193
:1018800001E500BF849C00208C9C0020D4BF010097
:1018900020C2010070BF010040C201002CC2010043
:1018A00078C201004CC20100C4C60100044B0549C6
:1018B0000548009C4FF4D26219F0FAF8E3E400BF47
:1018C000D4BF010064C2010070BF010038B5446A92
:1018D00054B163790A2B0ED8DFE803F0060D0D072B
:1018E00007070D0D0D0D070038BD0023A371BDE8DE
:1018F0003840FFF739B80C2B054606D80023A371F2
:101900002846BDE83840FFF713BA044B04490548A0
:1019100040F26D3219F0CCF8F0E700BFD4BF0100FF
:1019200018C1010070BF01002DE9F04F87B00028F9
:1019300000F01581446A054614B16379082B02D082
:1019400007B0BDE8F08F0A68E3699A42F8D1002336
:101950000C226271A371238104220DF1160321462A
:10196000FEF75EFE0390002800F0F180BDF81670CF
:10197000D0F804A007F1060B3B1DBBF1440F029306
:101980000AF1F00600F2FD807B1C9BB2322104229A
:10199000F155F25407F102081FFA88F8E069ADF832
:1019A000168004F0ADF808F10403442B814600F2E0
:1019B000E080FB1C9BB24FEA19614FEA194C06F814
:1019C0000810BDF8080006F803C07A1DFB1D92B28E
:1019D0001FFA8BF14FEA192C9BB206F800C0432B7B
:1019E0004FF0FF0006F80290ADF816B0705400F208
:1019F0009B8003F1F00C0AEB0C02524202F003024E
:101A000002F1030EBEF1050FC7F13C0038BF4FF0E5
:101A1000050E80B2C7F13D01704589B2984667D383
:101A2000B2B107F108034FF0000E012A9BB206F88D
:101A300008E00DD007F1090006F803E0034680B284
:101A4000032A03BF07F10A0306F800E09BB203462E
:101A5000891A89B262448808002701280AEB020C1F
:101A60004AF802703DD90228CCF8047039D0032816
:101A7000CCF8087035D00428CCF80C7031D005288B
:101A8000CCF810702DD00628CCF8147029D0072877
:101A9000CCF8187025D00828CCF81C7021D0092863
:101AA000CCF820701DD00A28CCF8247019D00B284F
:101AB000CCF8287015D00C28CCF82C7011D00D283B
:101AC000CCF830700DD00E28CCF8347009D00F2827
:101AD000CCF8387005D01028CCF83C7018BFCCF882
:101AE000407021F0030292B2134491429BB21AD08B
:101AF0005A1C92B20020442AF05414D0991C89B286
:101B00004429B0540FD0DA1C92B2442A70540AD03F
:101B1000191D89B24429B05405D005339BB2442B1A
:101B2000705418BFF0544423039EF03399B23046EA
:101B300005F02CF9174A184B1068184ACDE90053E4
:101B4000314643230BF066F8304604F0E7FFA379F3
:101B5000FF2B1CBF0133A37114232381F0E6104B2C
:101B60001049114840F28B3218F0A2FF07B0BDE8CF
:101B7000F08F0B4B0D490C4840F2B75218F098FF0C
:101B800017E7074B0A49084840F29A5218F090FFAD
:101B9000FAE600BF54030020C4C60100C8C6010015
:101BA000D4BF0100C4C2010070BF0100ACC101007C
:101BB0002CC101002DE9F04383B0466A7379052BEF
:101BC000054604D0002305227271B37133814FF4AE
:101BD00020724FF49A71362005F014F80746002859
:101BE00000F00A817B89B3F59A7FC0F0DD807379BC
:101BF000032B00F0D3807C684FF49A7200212046BA
:101C000018F0A5FE01232370637095F83030A3709F
:101C1000306803F075FF60607379043B012B9CBF53
:101C20006B68E36004F1200205F12A03934295F802
:101C30002A30237795F82B30637706D205F12E03EF
:101C400004F11C02934200F2BF80EB6AC4F81E301C
:101C50004FF0030C4FF0010E352084F8F2C084F8E9
:101C6000F00084F8F1E063227B6884F8EC2084F8CB
:101C7000EF206FF07D01532284F8ED1084F8EE2000
:101C80003921022283F8F31083F8F4202A8D83F897
:101C9000F620D943120A4FF01C094FF0FF083724F1
:101CA00011F0030183F8F52083F8F8C083F8FAC037
:101CB00083F8F9E083F8FB9083F8FC8003F1F00CE3
:101CC00083F8F7404FF0000276D0714583F8FD208D
:101CD0005AD0032983F8FE2040F0858083F8FF2046
:101CE00034244FF0100E01F1FD0200209850C1F194
:101CF00037011A4488B2043200213428C2E90011A5
:101D0000C2E90211C2E90411C2E90611C2E90811CF
:101D1000C2E90A110EF134020BD0352C0EF1350E4A
:101D20000CF8021005D0362C0CF80E1018BF83F8F2
:101D300033114FF49A71384605F028F8304B00956E
:101D4000186806F11802432339460AF04FFE04468C
:101D5000384604F0E3FEB379FF2B19D00133DBB230
:101D6000092BB37114D8C3EB431203EB82031B019D
:101D7000244A9BB203F2F313A2FB03235B09204620
:101D8000338103B0BDE8F08336244FF00E0EAAE78E
:101D900028232046338103B0BDE8F083B37933B301
:101DA000194B1868306026E7184B1949194840F25A
:101DB000727218F07DFE1AE7C3F8FD10204603F298
:101DC00001124FF00D0E97E795F82C30A37795F898
:101DD0002D30E37795F82E3084F8203095F82F30A9
:101DE00084F8213034E704464FF00F0E7BE718F0FB
:101DF00077FE054B1860D5E74FF0FF34ABE700BF27
:101E000054030020D34D62105C030020D4BF0100B6
:101E10008CC0010070BF01002DE9F04F87B0446A0B
:101E200034B3627922B3A36905930A2A4FF0000301
:101E30000546C4E90633C4E90833C4E90B33A36299
:101E4000C4F80E30C4F8123015D0043A012A12D961
:101E5000994B28461A46194604F066FC63791BB173
:101E600000236371A37123812379002B40F0FA8052
:101E700007B0BDE8F08F0DF1120307222146284676
:101E8000FEF7CEFB80460028E2D0BDF81270D8F8ED
:101E900004B0BB1D3A1D442B039302920BF1F006D4
:101EA00000F2F9807B1C9BB236210422F15507F128
:101EB0000209F2541FFA89F90598ADF8129003F05F
:101EC0001FFE09F10403442B824600F2DC80FA1C59
:101ED00092B24FEA1A6106F80910DDF80CE0BDF87D
:101EE00008C04FEA1A41B1547B1DF91D4FEA1A226E
:101EF0009BB21FFA8EF089B206F80C2043294FF0EE
:101F0000FF0206F803A0ADF812E0325400F2998007
:101F100001F1F00C0BEB0C035B4203F0030303F144
:101F2000030EBEF1050FC7F13C0038BF4FF0050EA0
:101F300080B2C7F13D02704592B2894665D3A3B124
:101F400007F108010020012B89B206F809000CD026
:101F500007F1090E1FFA8EFE032B705403BF07F121
:101F60000A0106F80E0089B27146D21A92B2634491
:101F70009008002701280BEB030C4BF803703DD9A8
:101F80000228CCF8047039D00328CCF8087035D07A
:101F90000428CCF80C7031D00528CCF810702DD066
:101FA0000628CCF8147029D00728CCF8187025D052
:101FB0000828CCF81C7021D00928CCF820701DD03E
:101FC0000A28CCF8247019D00B28CCF8287015D02A
:101FD0000C28CCF82C7011D00D28CCF830700DD016
:101FE0000E28CCF8347009D00F28CCF8387005D002
:101FF0001028CCF83C7018BFCCF8407022F00303D6
:102000009BB219449A4289B21AD04B1C9BB2002051
:10201000442B705414D08A1C92B2442AF0540FD02E
:10202000CB1C9BB2442BB0540AD00A1D92B2442A56
:10203000F05405D0053189B24429B05418BF70540A
:102040004421F031404689B204F0A0FE1B4B0095BC
:10205000186805AA432341460AF0C8FC404604F02C
:102060005DFDF5E6164E3578EDB1013DEDB235700A
:1020700025B9124E30680BF029F835600023237122
:1020800007B0BDE8F08F0F4B0F49104840F2B75230
:1020900018F00EFD1BE70B4B0D490C4840F29A520D
:1020A00018F006FDFEE6074B0A490848FF2218F023
:1020B000FFFC3578D9E700BFC4C6010054030020F7
:1020C00058030020D4BF0100ACC1010070BF010063
:1020D0002CC10100F4C001002DE9F041002800F0FE
:1020E000818090F83130DB07054671D5038D446A55
:1020F000B3F5107F69D3002C5CD023793E4E002BC2
:1021000040D134220021204618F021FC337803BB53
:102110003A4F3B682BB13A4B3A493B48E52218F01D
:10212000C7FC0AF0FFFF386000284ED0427A3749DA
:1021300042F02002427244220AF082FE43223349D6
:1021400038680AF00BFF3868314900220AF0ACFF0A
:1021500033780122227195F83100134410F0040005
:10216000337008D16379022B09D00223A071637107
:102170002081BDE8F0812846FEF7DAFD10BB002083
:10218000BDE8F08137786FB1013FFFB23770002FA3
:10219000B7D1DFF86880D8F800000AF097FFC8F8D8
:1021A0000070AEE7164B1B491748FF2218F080FC61
:1021B0003778E9E7342004F05FF8044628B1686214
:1021C0000D4E9EE72846FFF727FE4FF0FF30D7E77A
:1021D0000B4B11490C484FF43A7218F069FC6FF040
:1021E0000F00CDE7064B0D49074840F2E72218F0F3
:1021F0005FFC6FF00F00C3E758030020540300207A
:10220000D4BF0100CCC0010070BF0100C4C60100F2
:102210005D120000F4C0010008C30100C4C2010047
:102220002DE9F04F89B0164B1D68FDB1DFF854B0B1
:10223000DFF854A06C6AB4B16379A3B1A18A29B163
:10224000628A013292B29142628212D0228A1AB11B
:10225000511E012A218219D0E28922B1511E012A80
:10226000E18100F05D812D68002DE3D109B0BDE86A
:10227000F08F2846FFF7D0FD2846FFF72DFFF2E745
:10228000D0360120D34D62105403002003F0FB022E
:10229000012A00F057810A2B00F05481042BE2D16F
:1022A0000DF11E03032221462846FEF7B9F90590D9
:1022B000002800F01881BDF81E704368039307F1F1
:1022C0000409B9F1440F03F1F00606D9AD4BAE494C
:1022D000AE4840F29A5218F0EBFB7B1C02229BB2F4
:1022E00007EB02083921F1551FFA88F8F25408EB80
:1022F0000203442B2A8D0492ADF81E8006D9A14B0F
:10230000A349A24840F2AE5218F0D2FB1FFA89F955
:102310000498FB1C9BB209F10502010A442A06F845
:102320000810F054ADF81E9006D9964B9649974880
:1023300040F29A5218F0BCFB7B1D07F106083722C9
:102340001FFA88F89BB206F80920B8F1430F4FF046
:102350000302F254ADF81E8000F20C8107F1070968
:102360001FFA89F90123B9F1430F06F80830ADF8D7
:102370001E9000F2F78007F108081FFA88F803237F
:10238000B8F1430F06F80930ADF81E8000F2E28084
:1023900007F1090207F10A0392B21C219BB206F869
:1023A0000810432B4FF0FF01ADF81E20B15400F28E
:1023B0008980039A03F1F00C6244524202F0030256
:1023C000D01C0528C7F1390138BF052089B2C7F1F3
:1023D0003A0888421FFA88F89E4657D892B107F10A
:1023E0000B030021012A9BB206F80E100AD007F158
:1023F0000C0080B2032AF15403BF07F10D033154DE
:102400009BB20346A8EB020894441FFA88F8039A8B
:102410004FEA9801002017460129674442F80C0052
:102420002DD9022978602AD00329B86027D0042941
:10243000F86024D00529386121D0062978611ED0A2
:102440000729B8611BD00829F86118D0092938621A
:1024500015D00A29786212D00B29B8620FD00C2946
:10246000F8620CD00D29386309D00E29786306D0A4
:102470000F29B86303D01029F86318BF386428F017
:10248000030292B2134490459BB21AD0581C80B2FA
:1024900000224428F25414D0991C89B244293254A1
:1024A0000FD0D81C80B2442872540AD0191D89B2AA
:1024B0004429325405D005339BB2442B725418BFC3
:1024C000F2544423059EF03399B2304604F05EFC8A
:1024D000DAF80000009543232E4A31460AF086FAC6
:1024E000304604F01BFBA379FF2B31D00133DBB264
:1024F000092BA3712CD8C3EB431203EB8203DB003F
:102500009BB203F2F313ABFB03235B09A28A618A3C
:102510002381531A012B7FF7A6AE5B102382A2E61C
:1025200003F0FB02012A02D00A2B7FF49CAE28465E
:10253000FFF740FBA389628A9B1A012BC4BF5B1083
:10254000E38190E6002304226271A3712381A7E650
:102550001423DBE70B4B10490C4840F2A65218F04D
:10256000A7FA15E7074B0C49084840F2A65218F0A5
:102570009FFA00E7034B0849044840F2A65218F0BE
:1025800097FAEBE6D4BF01002CC1010070BF010037
:1025900070C10100C8C60100E8C10100F8B5264BB2
:1025A0001C6804B30026012703E0013B2B8124684B
:1025B000CCB1656A002DFAD02B89012BF5D8F6D164
:1025C0006B792E810C2B0FD0062B0DD0012B0FD049
:1025D000082B1AD0032BEAD1AB79012B204628D93E
:1025E000FEF7A6FBE3E7F8BD2046FEF7A1FBDEE71A
:1025F000AB79052B204602D8FEF7C2FCD7E7FFF7E0
:102600000BFC2046FFF768FDD1E7AB79012B03D91E
:102610002046FEF7C9F8CAE7002205F11C01204652
:1026200001F0BAFAAB792F81FF2B1CBF0133AB71DC
:10263000BDE7FEF799F9BAE7D03601202DE9F04F52
:1026400087B0446A34B3627922B3A36905930A2A36
:102650004FF000030546C4E90633C4E90833C4E972
:102660000B33A362C4F80E30C4F8123015D0043A0C
:10267000012A12D9994B28461A46194604F054F8F3
:1026800063791BB100236371A37123812379002B2C
:1026900040F0FA8007B0BDE8F08F0DF11203072279
:1026A00021462846FDF7BCFF80460028E2D0BDF851
:1026B0001270D8F804B0BB1D3A1D442B039302924C
:1026C0000BF1F00600F2F9807B1C9BB2362104224C
:1026D000F15507F10209F2541FFA89F90598ADF88E
:1026E000129003F00DFA09F10403442B824600F224
:1026F000DC80FA1C92B24FEA1A6106F80910DDF884
:102700000CE0BDF808C04FEA1A41B1547B1DF91D19
:102710004FEA1A229BB21FFA8EF089B206F80C20FB
:1027200043294FF0FF0206F803A0ADF812E032543F
:1027300000F2998001F1F00C0BEB0C035B4203F00B
:10274000030303F1030EBEF1050FC7F13C0038BFD0
:102750004FF0050E80B2C7F13D02704592B2894636
:1027600065D3A3B107F108010020012B89B206F857
:1027700009000CD007F1090E1FFA8EFE032B7054CE
:1027800003BF07F10A0106F80E0089B27146D21A9A
:1027900092B263449008002701280BEB030C4BF81E
:1027A00003703DD90228CCF8047039D00328CCF846
:1027B000087035D00428CCF80C7031D00528CCF83E
:1027C00010702DD00628CCF8147029D00728CCF82A
:1027D000187025D00828CCF81C7021D00928CCF816
:1027E00020701DD00A28CCF8247019D00B28CCF802
:1027F000287015D00C28CCF82C7011D00D28CCF8EE
:1028000030700DD00E28CCF8347009D00F28CCF8D9
:10281000387005D01028CCF83C7018BFCCF8407048
:1028200022F003039BB219449A4289B21AD04B1C7E
:102830009BB20020442B705414D08A1C92B2442ABC
:10284000F0540FD0CB1C9BB2442BB0540AD00A1DBD
:1028500092B2442AF05405D0053189B24429B054CB
:1028600018BF70544421F031404689B204F08EFA0A
:102870001B4B0095186805AA432341460AF0B6F899
:10288000404604F04BF9F5E6164E3578EDB1013DC2
:10289000EDB2357025B9124E30680AF017FC35607C
:1028A0000023237107B0BDE8F08F0F4B0F4910488C
:1028B00040F2B75218F0FCF81BE70B4B0D490C48DF
:1028C00040F29A5218F0F4F8FEE6074B0A4908481D
:1028D000FF2218F0EDF83578D9E700BFC4C6010033
:1028E0005403002058030020D4BF0100ACC10100F4
:1028F00070BF01002CC10100F4C0010058B1406A52
:1029000048B140790A2805D0043801288CBF00203E
:1029100001207047012070472DE9F04383B00F4636
:1029200090469946BDF834400646002854D04FF4EE
:1029300020721C210E2004F065F90546002853D0B2
:1029400043891B2B40D920466C6803F0D5F8E08002
:1029500096F83030062B06D0254B2649264840F203
:102960006A4218F0A5F84946062204F1080017F05B
:10297000CAFF06220B9904F1120017F0C4FF0422CB
:102980000A9904F10E0017F0BEFF04220C9904F11D
:10299000180017F0B8FF4FF0060E40F6060C174B64
:1029A0002360042184F804E0617143463A462946D5
:1029B000CDF800C03046FDF7F5FD284604F0AEF82E
:1029C000002003B0BDE8F083094B0D490A4840F2EE
:1029D000634218F06DF8B6E7054B0A49064840F225
:1029E000574218F065F8A2E74FF0FF30E9E700BF63
:1029F0000CC40100BCC4010070BF0100000108004C
:102A000088C40100C4C201002DE9F04784B056001B
:102A10002D4FB51807EBC50514462B7D012B8046BD
:102A2000894634D904EB4401C90001F10C05022B9D
:102A30003D4408F12A0A0BD04FF400642B4652465D
:102A4000494640460094FDF7ADFD04B0BDE8F0876F
:102A5000344407EBC404638AB3F58E7F20D8B3F502
:102A6000877FE9D3194A04313944012008F104036E
:102A7000CDE900320291039053462A465146404622
:102A8000FFF74AFF0028D7D103232375D4E7104B63
:102A90001049114840F2EF2218F00AF82B7DC1E7E7
:102AA00004310A4A0F4408F104030121CDE9003240
:102AB000039102975346094A51464046FFF72CFFBF
:102AC0000028B9D1E0E700BF6003002098BF0100F3
:102AD0000CC40100C0C3010070BF0100BCBE0100F6
:102AE0002DE9F04184B0284C284FDFF8A48004F190
:102AF000F0050026237D73B1052B0CD0628A0132CC
:102B000092B2B2F5967F62820DD2012B09D0032BCF
:102B10001AD0042B1ED01834AC42EBD104B0BDE85F
:102B2000F081042A1CD9206810B103F0F7FF266059
:102B30003A68BB8826756682E2602382C4E9016632
:102B40001834AC42D6D1E9E7042323751834AC42DB
:102B5000D0D1E3E7022323751834AC42CAD1DDE7B4
:102B6000A0680393221D00F12A0300F1040C0292D5
:102B700001971946CDF800C042461834FFF7CCFE45
:102B8000AC42B7D1CAE700BF6003002098BF010084
:102B9000BCBE01002DE9F04F85B00391064602F05E
:102BA00081F8002800F0138390F83030062B05469A
:102BB00040F09280002E00F0C1823068002800F0C2
:102BC000BD82294602F0E6FA002840F0B78232685A
:102BD00002F0F003E02B00F0B182CA4C237D002B01
:102BE00040F0828094F82C00002840F0AC804FF038
:102BF0000A0C0146834680460346E246E64694F8C0
:102C00004400002840F0B18094F85C00002840F0B7
:102C1000C48094F87400002840F0D78094F88C00A9
:102C2000002840F0EA8094F8A400002840F0FD80DD
:102C300094F8BC00002840F0118194F8D4000028DA
:102C400040F0258194F8EC00002840F039814FEAEB
:102C500043089A46434404EBC3031B7D3BB140F257
:102C60008512A94BA949AA4817F022FF326808EB40
:102C70000A0304EBC303C3E9012500215982C244BE
:102C80004FEACA0A04EB0A0805230AF10C002044A3
:102C900006220399C8F8085088F8143017F033FE5C
:102CA00054F80A604FF00009A8F81290002E00F0C6
:102CB0006D814FF40062039B0092314605F12A02B8
:102CC000284644F80A90FDF76DFC304603F026FFD5
:102CD000484605B0BDE8F08F8B4B8E498C4840F2DA
:102CE000A91217F0E5FE65E761688A4200F05F818E
:102CF000012B00F0B081042B4FF00A0E00F24A8144
:102D00004FF0000A618A94F82C00F446D046D3466E
:102D1000002800F04A81E769BA424FF00A031CD04C
:102D2000012800F0A781042805D8608D884202D3CD
:102D300001464FF0010A0A2B94F844007FF461AF7A
:102D400098B9022360E7E7694FF00A0EBA42984645
:102D50009B461946F246F446E2D1276ABD42DFD1CE
:102D60004FF0010A4FF0020889E7676BBA4200F0A2
:102D70002581012800F08981042806D8B4F8420092
:102D8000884202D301464FF0020A0A2B94F85C00F5
:102D90007FF43CAF08B903233BE7E76CBA4200F08D
:102DA0001681012800F07D81042806D8B4F85A0065
:102DB000884202D301464FF0030A0A2B94F87400AC
:102DC0007FF429AF08B9042328E7676EBA4200F000
:102DD0000781012800F07181042806D8B4F8720038
:102DE000884202D301464FF0040A0A2B94F88C0063
:102DF0007FF416AF08B9052315E7E76FBA4200F074
:102E0000F880012800F06581042806D8B4F88A000B
:102E1000884202D301464FF0050A0A2B94F8A40019
:102E20007FF403AF08B9062302E7D4F89470BA42DE
:102E300000F0E980012800F05881042806D8B4F891
:102E4000A200884202D301464FF0060A0A2B94F8EA
:102E5000BC007FF4EFAE08B90723EEE6D4F8AC70FF
:102E6000BA4200F0DA80012800F04C81042806D82C
:102E7000B4F8BA00884202D301464FF0070A0A2B81
:102E800094F8D4007FF4DBAE08B90823DAE6D4F86E
:102E9000C470BA4200F0CB80012800F040810428C1
:102EA00006D8B4F8D200884202D301464FF0080A8F
:102EB0000A2B94F8EC007FF4C7AE08B90923C6E6E4
:102EC000D4F8DC70BA4200F0BC80012826D0042877
:102ED0002FD8B4F8EA0088422BD30A2B7FF4B7AE80
:102EE0004FF0090A4FEA4A0808EB0A0354F8333056
:102EF000002B3BD0044B0849054840F26D1217F0F7
:102F0000D7FD25E0600300200CC4010068C3010068
:102F100070BF01002CC3010050C30100D4F8D810C9
:102F2000B4F8EA00002900F04D81404528BF4FF079
:102F3000090C0A2B7FF48BAEBAF10A0FD2D1BEF185
:102F40000A0F40F0F980BCF10A0F00F04381E2461D
:102F50004FEA4A0808EB0A094FEAC90954F8090080
:102F600020B103F0DBFD002344F8093008EB0A032D
:102F700004EBC303994A00211068197592885960BF
:102F80001A82D86032685982996070E6304605B07E
:102F9000BDE8F08F94F82C004FF00008F246F4469C
:102FA000C346414600287FF4B6AE012327E6A16858
:102FB0008D427FF49DAE8246804660E6A76BBD429F
:102FC0007FF4D7AE4FF0020A4FF0040857E6276DA2
:102FD000BD427FF4E6AE4FF0030A4FF006084EE61E
:102FE000A76EBD427FF4F5AE4FF0040A4FF008081B
:102FF00045E6D4F88070BD427FF403AF4FF0050A78
:103000004FF00A083BE6D4F89870BD427FF412AF47
:103010004FF0060A4FF00C0831E6D4F8B070BD420C
:103020007FF421AF4FF0070A4FF00E0827E6D4F8DF
:10303000C870BD427FF430AF4FF0080A4FF010085F
:103040001DE6D4F8E070BD427FF43FAF4FF0090AAF
:103050004FF0120813E62368B4F81280002B70D0EA
:103060004FF0000C4FF00A0EF246E346614694F82A
:103070002C004DE6A769B4F82A90002F72D0C14504
:10308000FFF459AEC846844655E6206BB4F842902A
:10309000002860D0C145FFF478AEC8464FF0020C5E
:1030A00073E6A06CB4F85A90002868D0C145FFF4CC
:1030B00084AEC8464FF0030C7FE6206EB4F87290E1
:1030C000002855D0C145FFF490AEC8464FF0040C1F
:1030D0008BE6A06FB4F88A9000285ED0C145FFF45B
:1030E0009CAEC8464FF0050C97E6D4F89000B4F8B3
:1030F000A29000284AD0C145FFF4A8AEC8464FF0C0
:10310000060CA3E6D4F8A800B4F8BA9000284BD077
:10311000C145FFF4B4AEC8464FF0070CAFE6D4F893
:10312000C000B4F8D290002845D0C145FFF4C0AE2D
:10313000C8464FF0080CBBE6F24609E76FF00F00F7
:10314000C7E54FF00A0AC3469E4619469846D4463C
:1031500094F82C00DCE5D945FFF417AECB464FF0D0
:10316000020E12E6D945FFF4E6ADCB468646E2E50F
:10317000D945FFF43AAECB464FF0040E35E6D945BB
:10318000FFF41BAECB464FF0030E16E6D945FFF415
:103190005DAECB464FF0060E58E6D945FFF43DAE86
:1031A000CB464FF0050E38E6D945FFF468AECB4666
:1031B0004FF0070E63E6D945FFF47AAECB464FF0E9
:1031C000080E75E6584528BF4FF0090EB1E66FF0BE
:1031D00003007EE54FF0FF307BE500BF98BF0100A4
:1031E00038B58D4C237D054613B1A368984257D05E
:1031F00094F82C3013B1236A9D4263D094F8443084
:1032000013B1A36B9D4270D094F85C3013B1236D61
:103210009D427ED094F874301BB1A36E9D4200F0A5
:103220008C8094F88C3023B1D4F880309D4200F02B
:10323000988094F8A43023B1D4F898309D4200F0DF
:10324000A58094F8BC3023B1D4F8B0309D4200F092
:10325000B48094F8D43023B1D4F8C8309D4200F043
:10326000C38094F8EC301BB1D4F8E030AB4200D00E
:1032700038BDD4F8D80020B103F050FC0023C4F8C6
:10328000D830664B664A18689988C4F8E400002371
:10329000918084F8EC30A4F8EA30C4E9373338BDC3
:1032A000206818B103F03AFC002323605B4B5D4AB1
:1032B00018689988E0600023918023756382C4E9CF
:1032C000013395E7A06918B103F028FC0023A3613E
:1032D000524B554A1868998860620023918084F89F
:1032E0002C306385C4E9073388E7206B18B103F0FD
:1032F00015FC00232363494B4C4A18689988E06306
:103300000023918084F84430A4F84230C4E90D339E
:103310007AE7A06C18B103F001FC0023A3643F4BD3
:10332000434A1868998860650023918084F85C306E
:10333000A4F85A30C4E913336CE7206E18B103F0D7
:10334000EDFB00232366354B3A4A18689988E066FE
:103350000023918084F87430A4F87230C4E91933E2
:103360005FE7A06F18B103F0D9FB0023A3672B4BD5
:10337000314A18689988C4F884000023918084F841
:103380008C30A4F88A30C4E91F3352E7D4F8900097
:1033900020B103F0C3FB0023C4F890301F4B274A31
:1033A00018689988C4F89C000023918084F8A430A0
:1033B000A4F8A230C4E9253343E7D4F8A80020B12B
:1033C00003F0ACFB0023C4F8A830144B1C4A186867
:1033D0009988C4F8B4000023918084F8BC30A4F824
:1033E000BA30C4E92B3334E7D4F8C00020B103F07D
:1033F00095FB0023C4F8C030084B124A186899881E
:10340000C4F8CC000023918084F8D430A4F8D230E2
:10341000C4E9313325E700BF6003002098BF0100F5
:10342000440400206C030020840300209C0300203F
:10343000B4030020CC030020E4030020FC030020A0
:10344000140400202C0400202DE9F04F8DB0002939
:1034500000F0058145682B88B3F5807F044602D1D2
:103460002B79062B05D0204603F058FB0DB0BDE8A4
:10347000F08F6F79042FF6D16B88082BF3D10E46AD
:103480003A4605F10E010AA817F03DFA3A4605F151
:1034900018010BA817F037FA736805F108020892B3
:1034A000002B00F012810B9A934200F0238200233C
:1034B00009930223079396F83030062B06D0BC4BB5
:1034C000BC49BD4840F2A91217F0F2FA0A98002848
:1034D00000F0B780314601F05DFE002840F0B18079
:1034E0000A99069101F0F003E02B00F0AA80B34F97
:1034F0003A7D002A00F0BD807B68994200F0568238
:10350000012A00F04282042A4FF00A0C00F289825C
:103510004FF000087A8A97F82C00E346C246C64668
:10352000002800F0FD810A230593FB69994200F011
:103530006682012800F05782042805D8788D9042D1
:1035400002D302464FF00108059B97F844000A2B6E
:1035500040F09E80002840F09E800223059397F85B
:103560005C00002840F0D08097F87400002840F0FC
:10357000B08097F88C00002840F0FE8097F8A400F7
:10358000002840F0DC8097F8BC00002840F08381E0
:1035900097F8D400002840F0628197F8EC000028EA
:1035A00040F01281079A012A4BD1DDF814804FEACE
:1035B000480909EB080307EBC3031B7D002B00F050
:1035C000B2817B4B7E497C4840F2851217F070FA3D
:1035D0000A9B0693194609EB080307EBC303C3E9EB
:1035E000011600225A82C8444FEAC80807EB080AAD
:1035F0009AF81430052B24D0DDF820B0CAF8086002
:10360000022308F10C005946384406228AF8143087
:1036100017F079F957F808900021AAF81210B9F1BB
:10362000000F0ED04FF40063009306F12A0247F812
:1036300008105B4649463046FCF7B4FF484603F0A5
:103640006DFAEB88B3F5807F00F04181B3F5007F20
:103650007FF409AF0AA93046FEF766F903E7544B39
:103660005849554840F28A2217F022FA0DB0BDE8B9
:10367000F08F97F82C00002840F040814FF00A0CA2
:103680000246864682460590E046E34697F84400A7
:1036900000283FF464AF7B6B994200F0B9810128A8
:1036A00000F05D81042806D8B7F84200904202D3AA
:1036B00002464FF00208059B97F85C000A2B7FF446
:1036C00050AF08BB032305934EE7099302230793EA
:1036D000F1E67B6E994200F07D81012800F06D815A
:1036E000042806D8B7F87200904202D302464FF081
:1036F0000408059B97F88C000A2B7FF43CAF002848
:103700003AD10523059339E7FB6C994200F03481E7
:10371000012800F00A81042806D8B7F85A00904220
:1037200002D302464FF00308059B97F874000A2B5A
:103730007FF41CAF0028CCD10423059319E7D7F8F8
:103740009430994200F0AD81012800F09D81042859
:1037500006D8B7F8A200904202D302464FF00608FE
:10376000059B97F8BC000A2B7FF40FAF002840F0B0
:103770009280072305930BE7FB6F994200F0598174
:10378000012800F0DF80042806D8B7F88A009042AC
:1037900002D302464FF00508059B97F8A4000A2BB8
:1037A0007FF4EEAE0028CAD106230593EBE600BFF6
:1037B0000CC401002CC3010070BF01006003002095
:1037C00068C30100C4C20100D7F8DC30994200F0A0
:1037D0008A81012800F07C81042805D8B7F8EA0026
:1037E000904228BF4FF00908079B012B7FF429AFB7
:1037F000059B0A2B7FF4D9AEB8F10A0F00F0868042
:103800004FEA480909EB080357F83330ABB1CA4B0C
:10381000CA49CB4840F26D1217F04AF94FEA4809FD
:1038200009EB080A4FEACA0A57F80A0020B103F068
:1038300075F9002347F80A300A99C24A069109EB44
:10384000080307EBC3031068B2F804C0D860002275
:10385000A3F810C01A755A82C3E90122BBE6D7F853
:10386000C430994200F00681012800F0F680042857
:1038700006D8B7F8D200904202D302464FF00808AB
:10388000059B97F8EC000A2B7FF489AE00289BD1AA
:103890000923059386E6D7F8AC30994200F0D3802F
:1038A000012800F00881042806D8B7F8BA00904231
:1038B00002D302464FF00708059B97F8D4000A2B65
:1038C0007FF468AE0028CAD10823059365E6099BFA
:1038D000002B3FF4C8AD0AAA301D06F12A030225C9
:1038E0000292089A00900192194603953046FFF71C
:1038F00013F8B8E5012309930793DCE54FF00A0CB0
:10390000924605929646E046E3460EE6BBF10A0F64
:1039100040F0F380BCF10A0F3FF493AEE0467DE740
:1039200001230593B2E6069955E6B86CB7F85A90AC
:10393000002800F00981D145FFF4F6AECA464FF0E9
:10394000030CF1E6B86FB7F88A90002800F0038105
:10395000D145FFF421AFCA464FF0050C1CE7386B88
:10396000B7F84290002800F0D780D145FFF4A3AE0D
:10397000CA464FF0020C9EE63B6D9E427FF4C8AEF5
:103980004FF003084FF006092DE63A68B7F812E049
:10399000002A00F0C8804FF0000C4FF00A08F246F1
:1039A0006246E646C34697F82C00B9E5BB689E42DE
:1039B0007FF4A6AD8046814615E6386EB7F8729062
:1039C000002800F09C80D145FFF493AECA464FF02A
:1039D000040C8EE6BB6E9E427FF47FAE4FF004086F
:1039E0004FF00809FFE5BB69B7F82A90002B00F0FB
:1039F0008D80D145FFF4A8ADCA468446A4E53B6A54
:103A00009E427FF496AD4FF001084FF00209EAE5BF
:103A1000BB6B9E427FF443AE4FF002084FF00409A7
:103A2000E1E50022E046E3469246964697F82C00F0
:103A300076E5D7F880309E427FF4A2AE4FF00508BD
:103A40004FF00A09CFE5D7F8B0309E427FF428AF97
:103A50004FF007084FF00E09C5E5D7F8C000B7F8DA
:103A6000D29000287ED0D145FFF40AAFCA464FF06D
:103A7000080C05E7D7F8C8309E427FF4F5AE4FF04A
:103A800008084FF01009AEE5D7F89000B7F8A290FB
:103A900000286ED0D145FFF463AECA464FF0060C45
:103AA0005EE6D7F898309E427FF44EAE4FF006089F
:103AB0004FF00C0997E5D7F8A800B7F8BA9000289E
:103AC0005ED0D145FFF4F8AECA464FF0070CF3E6DE
:103AD000D7F8D820B7F8EA00002A58D0504528BFB8
:103AE0004FF0090C80E6D7F8E0309E427FF471AECB
:103AF0004FF009084FF0120975E5D8468EE6F145FA
:103B0000FFF4F7ADCE464FF0040BF2E5F145FFF4BC
:103B10001BADCE46834617E5F145FFF4CCADCE464E
:103B20004FF0020BC7E54FF00A0C92469346E04671
:103B300097F82C00F4E400BF0CC4010050C301004E
:103B400070BF010098BF0100F145FFF4EDADCE4616
:103B50004FF0030BE8E5F145FFF41EAECE464FF003
:103B6000050B19E6F145FFF48BAECE464FF0080B7E
:103B700086E6F145FFF4F4ADCE464FF0060BEFE5D7
:103B8000F145FFF499AECE464FF0070B94E6704531
:103B900028BF4FF0090B27E62DE9F04F87B00491BD
:103BA000049B064601461868924601F0F3FA06F1B6
:103BB0002A030593002840F03D83049B1A6802F015
:103BC000F003E02B00F03683002A00F03383B34C7F
:103BD000237D002E00F03683002B71D194F82C3019
:103BE000002B40F096804FF00A0E184698469C46EF
:103BF0001D46F146F34694F84430002B40F0B28065
:103C000094F85C30002B40F0BF8094F87430002BA7
:103C100040F0CC8094F88C30002B40F0D98094F8A0
:103C2000A430002B40F0E68094F8BC30002B40F02C
:103C3000F48094F8D430002B40F0028194F8EC30FA
:103C4000002B40F010814FEA450808EB050304EB18
:103C5000C303A9461B7D43B1914B9249924840F260
:103C6000851216F025FF049B1A68C84404EBC808A7
:103C7000002198F81430C8F80420C8F80860A8F8A3
:103C80001210002B54D10598884A049B02930121FD
:103C9000331DCDE900320391034688F81410844A9D
:103CA00001463046FEF738FEBAF1000F05D098F80D
:103CB0001430012B44D800F0568107B0BDE8F08FD6
:103CC00061688A4200F0AF81012B00F00482042B6E
:103CD00040F22B8100204FF00A0E80468446F146C8
:103CE000F34694F82C30002B00F02C81E1698A42D5
:103CF0004FF00A0517D0012B00F0FA81042B40F297
:103D000023810A2D94F844307FF477AF53BB02250A
:103D100076E7E1694FF00A098A4280460546844603
:103D2000CE46CB46E7D1216A8E42E4D10125A94691
:103D3000BAF1000F00F08181012B4FF0FF30BAD9AA
:103D400009EB490904EBC9035A4C059A4FF4006783
:103D500000970C33514630462570FCF723FC07B022
:103D6000BDE8F08F616B8A4200F07881012B00F092
:103D7000CB81042B40F2EF800A2D94F85C307FF465
:103D800041AF0BB9032540E7E16C8A4200F06D8139
:103D9000012B00F0E581042B40F204810A2D94F8F8
:103DA00074307FF434AF0BB9042533E7616E8A4277
:103DB00000F06281012B00F0E081042B40F2FA80D8
:103DC0000A2D94F88C307FF427AF0BB9052526E730
:103DD000E16F8A4200F05781012B00F0DB81042B58
:103DE00040F2F0800A2D94F8A4307FF41AAF0BB99A
:103DF000062519E7D4F894108A4200F04C81012B73
:103E000000F0D581042B40F2E5800A2D94F8BC30F7
:103E10007FF40CAF0BB907250BE7D4F8AC108A423E
:103E200000F04181012B00F0D081042B40F2DA80B8
:103E30000A2D94F8D4307FF4FEAE0BB90825FDE6C8
:103E4000D4F8C4108A4200F03681012B00F0CB81F7
:103E5000042B40F2CF800A2D94F8EC307FF4F0AEC2
:103E60000BB90925EFE6D4F8DC108A4200F02B816B
:103E7000012B00F0D381042B1ED90A2D7FF4E3AE71
:103E8000B9F10A0F21D1BBF10A0F40F0C780BEF192
:103E90000A0F00F0C1837546F14627E06003002059
:103EA0000CC4010068C3010070BF010098BF01008D
:103EB000BCBE010050040020B4F8EA308342DCD3D9
:103EC0000A2D7FF4C0AE4FF009094FEA490808EB0C
:103ED000090354F83330002B00F0A380C94BCA49C2
:103EE000CA4840F26D1216F0E3FD4D464FEA49080C
:103EF00008EB090B4FEACB0B54F80B0020B102F092
:103F00000DFE002344F80B30C14908EB090304EB14
:103F1000C3030022086889881A755A605A829A6019
:103F2000D8601982049B1A689FE694F82C30608A46
:103F30004FF000084FF00A0EC446C146F346002B6E
:103F40007FF4D4AE012556E6638D834224BF184624
:103F50004FF00109D5E6B4F84230834224BF184639
:103F60004FF0020908E7DFF89CB2AA4DA74F56466A
:103F7000A04607E0337B5A0600F197833668002E8F
:103F800000F05B81728933899A42F3D134685B46D1
:103F900040F2F13229463846002C00F0C28016F07B
:103FA00087FDE7E7B4F85A30834224BF18464FF044
:103FB0000309F3E6B4F87230834224BF18464FF089
:103FC0000409FDE6B4F88A30834224BF18464FF056
:103FD000050907E7B4F8A230834224BF18464FF022
:103FE000060912E7B4F8BA30834224BF18464FF0EE
:103FF00007091DE7B4F8D230834224BF18464FF0BA
:10400000080928E74145FFF438AF0A2D7FF41BAEBD
:10401000B9F10A0F7FF459AF4FF0090BD9465D464D
:1040200064E74D4670E7A1688E427FF44DAE81464D
:104030000546BAF1000F7FF47FAE049B744A0293E9
:10404000331DCDE90032059B734A012103913046AF
:104050001946FEF761FC07B0BDE8F08FA16B8E42F8
:104060007FF484AE0225A94662E6216D8E427FF47C
:104070008FAE0325A9465BE6A16E8E427FF49AAE11
:104080000425A94654E6D4F880108E427FF4A4AEED
:104090000525A9464CE6D4F898108E427FF4AFAEC1
:1040A0000625A94644E6D4F8B0108E427FF4BAAE95
:1040B0000725A9463CE6D4F8C8108E427FF4C5AE69
:1040C0000825A94634E6D4F8E010B1427FF4D0AE1A
:1040D0000925A9462CE62368B4F812C0002B00F08D
:1040E000258100204FF00A0980468646CB46F8E538
:1040F000618D0F46A169002900F00B816745FFF42F
:1041000000AEBC469E46FCE5236BB4F84210002B83
:1041100000F005816145FFF42FAE8C464FF0020E92
:104120002AE6337B5B06444640F1888052464FF4D2
:1041300020710E2003F052F88246002800F06C82B5
:104140004FEA490808EB090354F8330008B102F0BC
:10415000E5FCC844002044F838A007B0BDE8F08F63
:10416000A36CB4F85A10002B00F0E8806145FFF40E
:1041700015AE8C464FF0030E10E6236EB4F87210A5
:10418000002B00F0E2806145FFF41AAE8C464FF040
:10419000040E15E6A36FB4F88A10002B00F0DC8043
:1041A0006145FFF41FAE8C464FF0050E1AE6D4F8B9
:1041B0009030B4F8A210002B00F0D5806145FFF4D8
:1041C00024AE8C464FF0060E1FE6D4F8A830B4F8A3
:1041D000BA10002B00F0CE806145FFF429AE8C466A
:1041E0004FF0070E24E6D4F8C030B4F8D210002BFC
:1041F00000F0C7806145FFF42EAE8C464FF0080EEC
:1042000029E600BF0CC4010050C3010070BF0100CB
:1042100098BF0100F0C30100BCBE0100D4F8D83043
:10422000B4F8EA10002B3FF4EDAE614528BF4FF023
:10423000090E22E66FF00F003FE54446504602F0BB
:104240000DFE7DE7002B00F0A38061688A4200F03C
:10425000DF81012B00F09E81042B4FF00A0E00F24B
:104260005681B4F8128094F82C30F3463746304625
:10427000B146002B00F049810A25E1698A423FF4EA
:1042800055AD012B00F04B81042B05D8638D4345C0
:1042900002D398464FF001090A2D94F8443040F0BB
:1042A0008680002B40F08680022594F85C30002B3D
:1042B00040F0B08094F87430002B40F0C38094F844
:1042C0008C30002B40F08E8094F8A430002B40F00E
:1042D000D18094F8BC30002B40F0E58094F8D430C5
:1042E000002B40F0F98094F8EC30002B3FF4ABAC9D
:1042F000D4F8DC108A423FF4EBAE012B00F0708161
:10430000042B3FF6BAADB4F8EA304345FFF4B5AD3F
:10431000D6E54745FFF4F5ACB8469B46F1E4414588
:10432000FFF42AAD88464FF0020B25E54FF00A0E48
:10433000E04618469C469B46F146D2E44145FFF4D0
:104340002DAD88464FF0030B28E54145FFF438AD0D
:1043500088464FF0040B33E54145FFF443AD8846F2
:104360004FF0050B3EE54145FFF44FAD88464FF059
:10437000060B4AE54145FFF45BAD88464FF0070B5D
:1043800056E54145FFF467AD88464FF0080B62E5FE
:1043900094F82C304FF00A0EF146F346B0463746FB
:1043A00030463546002B7FF468AF94F84430002B3C
:1043B0003FF47BAF616B8A423FF454AE012B00F0B7
:1043C000DC80042B06D8B4F84230434502D398462B
:1043D0004FF002090A2D94F85C307FF468AFCBB936
:1043E000032567E7E16F8A423FF452AE012B00F0EC
:1043F000AC80042B06D8B4F88A30434502D39846E3
:104400004FF005090A2D94F8A4307FF45FAF8BBB01
:1044100006255EE7E16C8A423FF42BAE012B00F0EB
:10442000A080042B06D8B4F85A30434502D39846EE
:104430004FF003090A2D94F874307FF43DAF0BB9A7
:1044400004253CE7616E8A423FF41AAE012B71D01D
:10445000042B06D8B4F87230434502D398464FF087
:1044600004090A2D94F88C307FF42BAF002BB9D1BE
:10447000052529E7D4F894108A423FF411AE012BA8
:1044800000F0B980042B06D8B4F8A230434502D31B
:1044900098464FF006090A2D94F8BC307FF41BAF04
:1044A0000BB907251AE7D4F8AC108A423FF400AEE6
:1044B000012B00F08880042B06D8B4F8BA304345AD
:1044C00002D398464FF007090A2D94F8D4307FF4B0
:1044D00007AF0BB9082506E7D4F8C4108A423FF4A9
:1044E000EFAD012B63D0042B06D8B4F8D23043458E
:1044F00002D398464FF008090A2D94F8EC307FF467
:10450000F4AE002B3FF4ADACF2E601254DE7F146E9
:10451000F34694F82C30B04637463046A9E6A169F8
:10452000B4F82AC000297BD08445FFF4B5AE6046BC
:104530009E46B1E6236EB4F87210002B7DD0814206
:104540008FD308464FF0040E8BE7A36FB4F88A10A0
:10455000002B6BD08142FFF455AF08464FF0050E9B
:1045600050E7A36CB4F85A10002B6DD08142FFF4D1
:1045700061AF08464FF0030E5CE7236BB4F84210BE
:10458000002B00F084808142FFF424AF08464FF0F6
:10459000020E1FE72368608A002B5CD04FF00A09E7
:1045A000CB4694F82C30B0463746B64661E6D4F890
:1045B000C030B4F8D210002B5ED081429CD30846A4
:1045C0004FF0080E98E7D4F8A830B4F8BA10002BD2
:1045D0004BD08142FFF478AF08464FF0070E73E7E7
:1045E000D4F8D830B4F8EA10002B4CD0814228BF60
:1045F0004FF0090E41E4D4F89030B4F8A210002B2B
:104600004CD08142FFF447AF08464FF0060E42E718
:104610003546B146FFF78CBB4FF0FF30FFF74DBB7F
:10462000BC45FFF439AE67469B4635E6B942FFF418
:10463000E9AE0F464FF0050BE4E6B942FFF411AFC7
:104640000F464FF0040B0CE7B942FFF4F3AE0F46F0
:104650004FF0030BEEE64FF00A0E0746F14694F8D2
:104660002C303046B046B34603E6B942FFF42CAFD7
:104670000F464FF0070B27E7B942FFF43DAF0F4657
:104680004FF0080B38E7B942FFF4F7ABBDE4B9428D
:10469000FFF4A0AE0F464FF0020B9BE6B942FFF4C9
:1046A000FAAE0F464FF0060BF5E644463EE500BF76
:1046B000F0B585B00E4615460446002800F0BE80D1
:1046C000002E00F0A980002D00F0B080214628685F
:1046D00000F060FD002840F09D80296801F0F003A3
:1046E000E02B7AD0D4E901324B4013420AD08AB28F
:1046F0004FF6A9639A4205D0E168002900F0F980DD
:1047000004F10C05DFF80CC27B4B9CF8002002EB97
:10471000420003EBC000077D012F03D98768A74241
:1047200000F097801A7D012A03D99868844200F02E
:10473000998093F82C20012A03D9186A844200F04A
:10474000978093F84420012A03D9986B844200F0A3
:10475000958093F85C20012A03D9186D844200F0FB
:10476000998093F87420012A03D9986E844200F04E
:10477000978093F88C20012A04D9D3F880008442D2
:1047800000F0948093F8A420012A04D9D3F898006B
:10479000844200F0918093F8BC20012A04D9D3F818
:1047A000B000844200F08F8093F8D420012A04D90D
:1047B000D3F8C800844200F08D8093F8EC20012AE1
:1047C00004D9D3F8E020A24200F08B80324629467B
:1047D0002046FFF7E1F905B0F0BD6B78A978EA78DB
:1047E0008DF80C1003F07F0301205E218DF80B3053
:1047F000ADF808008DF80A108DF80D2002AB4FF4CB
:1048000000620092314604F12A022046FBF7CAFEFC
:1048100005B0F0BD394BF2E7394B3A493A4840F21E
:104820001F3216F045F9002D7FF450AF344B374955
:1048300035484FF4487216F03BF947E7304B34499E
:10484000314840F21E3216F033F9002E7FF43BAFB0
:10485000E2E7406888427FF465AF31462046FEF7C4
:10486000D3F8D5E75A6891427FF463AF00230AE09A
:10487000DA698A427FF465AF012304E05A6B914202
:104880007FF467AF022331461A468CF80030FEF7FA
:10489000BBF8BDE7DA6C91427FF463AF0323F2E724
:1048A0005A6E91427FF465AF0423ECE7DA6F9142D0
:1048B0007FF468AF0523E6E7D3F8942091427FF4B4
:1048C0006AAF0623DFE7D3F8AC2091427FF46CAFE8
:1048D0000723D8E7D3F8C42091427FF46EAF0823B2
:1048E000D1E7D3F8DC308B427FF470AF2046092348
:1048F000C9E76FF003008BE760030020BCBE010036
:104900000CC40100B4C3010070BF010094C30100D6
:10491000C4C20100500400202DE9F04383B00546D5
:10492000884600F12A0700F10409002853D04FF40B
:1049300020721C210E2002F065F90646002852D094
:1049400043891B2B3FD90120746801F0D5F8E08022
:1049500095F83030062B06D0244B2549254840F2E7
:104960006A4216F0A5F80622394604F1080015F04F
:10497000CAFF0622204904F1120015F0C4FF49467F
:10498000042204F10E0015F0BEFF4146042204F19A
:10499000180015F0B8FF194B23604FF0060C0423E4
:1049A00040F6060184F804C063713A46144B009146
:1049B00028463146FBF7F6FD304602F0AFF80020FE
:1049C00003B0BDE8F083094B0E490A4840F2634248
:1049D00016F06EF8B7E7054B0B49064840F2574210
:1049E00016F066F8A3E74FF0FF30E9E70CC40100CA
:1049F000BCC4010070BF010098BF010000010800A5
:104A0000BCBE010088C40100C4C201002DE9F0470A
:104A100084B0504EB7683C7804F00F04A400132C07
:104A2000054613D94389032B10D943681B78082BFB
:104A30000CD1706900F0F003E02B07D08846316894
:104A400000F0A8FB10B92B89072B05D8284604B025
:104A5000BDE8F04702F062B8284601F0AFF900283F
:104A6000F4D104F10E0A514628461FFA84F901F0E8
:104A7000A5FF38B32B8903EB090189B28B42E5D836
:104A80004FF420720E2002F0BDF882460028DDD0DF
:104A9000428904F108039A424DD3394622464068C0
:104AA00015F031FF2146504601F0B6FF002846D0F0
:104AB000294B2A492A48B62215F0FAFF504602F03F
:104AC0002DF8C3E75146284601F0A6FF60BB2146FA
:104AD00028466F6801F072FF0028B7D1D6E904328A
:104AE0006C68E26023617B8838704FF6F7729342FE
:104AF0008CBF09330833002699B24FF0FF0A798042
:104B00002046494684F808A0A672E67201F014F91E
:104B1000012160815346CDE90118009632461149C2
:104B2000284600F0EFF991E70B4B0F490C48C722DC
:104B300015F0BEFF8AE7504601F0F0FF86E72946F0
:104B4000504602F049FA0028F5D1284601F0E6FF68
:104B50005546BCE7AC9C00202CC50100A4C5010053
:104B600070BF0100C09C0020DCC501002DE9F041B0
:104B700086B004460E464FF420722421222002F013
:104B800041F880B34389232B05462FD9D4F80480FC
:104B90006C68032300274146667023701C2206AE12
:104BA000676004F1080015F0AEFED8F80C3046F846
:104BB000043D304600F076F8804688B16989A770D8
:104BC000E770204601F0B8F8012360803246019377
:104BD000CDF8088000973946FF23284600F092F967
:104BE000284601F09BFF06B0BDE8F081034B044965
:104BF000044840F2691215F05BFFC7E72CC50100BD
:104C000000C5010070BF01002DE9F04186B00446E7
:104C10000E464FF420722421222001F0F3FF80B3CE
:104C20004389232B05462FD9D4F804806C680B23C5
:104C300000274146667023701C2206AE676004F1AF
:104C4000080015F060FED8F80C3046F8043D3046F8
:104C500000F028F8804688B16989A770E77020467F
:104C600001F06AF80123608032460193CDF8088094
:104C700000973946FF23284600F044F9284601F002
:104C80004DFF06B0BDE8F081034B0449044840F2F3
:104C9000691215F00DFFC7E72CC5010000C5010022
:104CA00070BF010030B4194B1B68ABB193F83120D1
:104CB000D407F9D55107F7D559680029F4D004680D
:104CC0009D686140294204D09207EDD4DA6894428D
:104CD000EAD1184630BC70470D4B1B68002BF8D04A
:104CE00093F8312002F00502052A08D15A6852B122
:104CF00002787F2A08BF0023184630BC7047002383
:104D0000184630BC70471346E3E700BFD036012099
:104D1000D43601202DE9F843466833781A09042A6D
:104D2000044605D0204601F0F9FE0020BDE8F883D6
:104D300003F00F0370889D000F4600F0DDFE23890D
:104D4000834280461FFA85F900F28A8063894B45C9
:104D5000E8D323894345E5D3B9F1130FE2D9494696
:104D6000304600F0E9FF0028DCD13369DFF890918C
:104D700097F83120C9F8143003F0F001F068C9F851
:104D80001000E02902F001026FD0002A40F08D806F
:104D9000DBB27F2B6CD0594BD3F80080B8F1000FF9
:104DA00005D165E0D8F80080B8F1000F60D0474524
:104DB000F8D098F83130DB07F4D5D8F80430002B60
:104DC000F0D0D9F8142093424146104603D000F0A9
:104DD000E1F90028E6D0D9F81000002852D1F38874
:104DE00023F0C00333B1204600F0B6FA0446002891
:104DF0009BD04668C9F80860C9E90087337803F09A
:104E00000F039B0029462046A9F80C3001F004FE50
:104E1000737A062B64D0112B5DD0012B65D04146EF
:104E2000D9F8140000F0B6F968B9D9F8143003F0D5
:104E3000F003E02B07D02946204601F01DFE022199
:104E40002046FFF793FE204601F068FE0023C9E9E3
:104E50000033C9F80830A9F80C30C9E9043364E715
:104E60000146204601F092FF70E70AB17B68D3B992
:104E7000737A112B28D0D9F8100000283FF452AFD4
:104E80004FF00008394600F085F900287FF44AAF5A
:104E9000D9F8103003F0F003E02B3FF443AFB8F142
:104EA000000F9CD13EE7B84697E77A68002A3FF4A6
:104EB0006FAF9342F7D01846394600F06BF9C8B18E
:104EC000D9F81000B84688E773195B88B3F5884FA6
:104ED000D1D1B84683E73946204607F069FBB5E7EC
:104EE0003946204604F06CFFB0E739462046FFF70C
:104EF0008DFDABE7D9F814304AE700BFD03601206A
:104F0000AC9C00202DE9F04F83B09A460546837B88
:104F10009DF830809DF834B00E9F002A64D08946F9
:104F2000164609B10A680AB907F10409012B53D1E1
:104F30001421284601F042FD00287ED16B896C685F
:104F4000132B67D984F808A084F809B0336884F873
:104F5000018045214BEA0A2A180C4FEA082210FA70
:104F600083F00A4321704FEA2A280244236148EA69
:104F70000A282889DFF8DCA012FA88F800F0BCFDC6
:104F8000002203466080A271E271BAF800009844E2
:104F900000F0B2FDBAF80030A08001334044AAF816
:104FA0000030B9F1000F3DD0D9F80030E36010FABD
:104FB00083F000EB134083B203EB104000EB104092
:104FC0003B8DC0436081E3B9324629467B69384650
:104FD000984703B0BDE8F08F194B1A491A484FF4AF
:104FE000557215F065FDA3E7012B1ED16B89132BBC
:104FF00023D96B6802AE1B6946F8043D3B8D002B3C
:10500000E2D02A899A42DFD932463946284600F052
:105010006DFCDEE70A4B0D490B4840F2893215F072
:1050200047FD8FE70A4B1B68C0E7054B054906485B
:105030004FF4557215F03CFDD8E76FF00100C8E75A
:1050400010C60100B8C6010070BF010088C601008B
:10505000C4C60100520400202DE9F04F83B08946F8
:10506000817B9DF830809DF834A00E9F0129054674
:1050700016469B4656D1002E5DD01421284601F0DD
:105080009DFC002876D16B896C68132B67D984F856
:1050900008B084F809A0336884F8018045214AEA01
:1050A0000B2A1A0C21704FEA2A204FEA082812FA1C
:1050B00083F248EA010840EA0A2A23612889DFF8D6
:1050C000D0B0904400F018FD002318FA8AF86080F0
:1050D0008246A371E371BBF8000000F00DFDBBF840
:1050E0000030A080D04401334044ABF80030B9F127
:1050F000000F3CD0D9F80030E36010FA83F000EBE9
:10510000134083B203EB104000EB10403B8DC043D3
:105110006081DBB9324629467B693846984703B03F
:10512000BDE8F08F154B164916484FF4557215F02F
:10513000BFFC002EA1D16B89132B1BD96B6802AE6B
:105140001B6946F8043D3B8D002BE3D02A899A4227
:10515000E0D932463946284600F0C8FBDFE7074B66
:105160000949084840F2893215F0A2FC8FE7074B45
:105170001B68C1E76FF00100D1E700BF10C6010056
:10518000B8C6010070BF010088C60100C4C6010096
:1051900052040020431E033314D891F8313013F029
:1051A00002030DD04B6883420AD08A684340134201
:1051B00006D1D24332EA00030CBF01200020704721
:1051C000002070470120704710B5044648B160695F
:1051D00008B101F0A3FC21460520BDE8104001F014
:1051E0006DB9044B0449054840F2CE2215F060FC2D
:1051F000EDE700BF28C80100A4C8010070BF01008E
:105200002DE9F84F8142074688466BD0B8F1000F70
:1052100009D0D8F80030BB4205D03A4B3A493B4858
:10522000AD2215F045FC7D6868688388B3B1002421
:10523000DFF8D0B0DFF8ECA0DFF8D0906B6828463C
:105240001E6801F0FFFD0444B4F5803F284638DABB
:10525000A4B201F063FCB6B13546EFE703687B60AA
:10526000142207F1080115F04EFB01212846FFF733
:10527000CBFC284601F0E6FD0446284601F04EFC32
:105280007D68002DD4D1224B1A68974227D0B8F1FF
:10529000000F2ED03B68C8F800301E4D3946042060
:1052A00001F00CF92B88A34206D2164B1A49174875
:1052B000D22215F0FDFB2B881B1B2B802046BDE85E
:1052C000F88F5B46CC225146484615F0F1FB284644
:1052D000A4B201F023FC002ED5D03546AEE73A68E3
:1052E0001A60DAE7074B0D490848AB2215F0E0FBDE
:1052F0008CE7044B0A49054840F2451215F0D8FBEB
:10530000C8E700BF28C80100B4C7010070BF010092
:10531000580400205404002004C80100A8C701005C
:10532000E8C70100C8C7010038B50A4B186880B14A
:10533000002503E0C2770546204654B1C37F0468C8
:105340005A1E002BF6D12946FFF75AFF2046002CA3
:10535000F4D138BD580400202DE9F04F85B0D0F8C5
:10536000049099F8003003F00F03052B054640F038
:105370006081B9F8060000F0BFFBC0F30C03DB004E
:10538000B9F80200019300F0B7FB99F8003003F080
:105390000F039B00834200F24C81C31A9BB2DFF8DB
:1053A000FC820293284601F04DFDB8F80030BA4E59
:1053B00003440A2B074600F3F8803468002C00F001
:1053C000A280D9F80C2003E02468002C00F09B8018
:1053D00063699342F8D1D9F81030A1699942F3D1A9
:1053E000A189B9F804309942EED1B9F8060000F06D
:1053F00083FBC0F30C00002800F02381B9F80630CD
:1054000013F0200303930BD1DDE90123D3189BB2E2
:105410009A4200F245814FF6EB72934200F24081CE
:10542000D5F804A0BAF8020000F066FB9AF80090E4
:1054300009F00F094FEA89094845C0F03181A0EB16
:105440000909BAF8060000F057FBC0F30C00C000D1
:105450001FFA89F909EB000CD5F804B01FFA8CFC8F
:1054600000236045ABF806C0ABF804008BF80030B1
:105470008BF801308BF802308BF8033000F210818A
:105480006368002B00F02A81D3F80490B9F8042057
:105490009042C0F01F8100F0CC80B9F806E0704562
:1054A000C0F0C780D9F800204FF0010AA2B15368BC
:1054B00099888842C0F0E78000F0BB80DA8890428B
:1054C000C0F0B7809946714518BF4FF0000A964664
:1054D000D9F80020002AEAD17045C0F0CC8170458F
:1054E000C9F80050039B00F0BB80002B00F0BD808A
:1054F000A37FDA0700F10281B8F800301F44A8F852
:105500000070002799E0042000F0A6FF0446D0B107
:1055100020220021204615F01AFA336823600F225A
:10552000E2774946142204F10800346015F0EBF9E3
:1055300064E710B1FFF764FE0444A74240F3E6803D
:10554000BAF1010F75DD3368002B00F0DD80D9F86A
:105550000CE05A694FF0000C724561466046E24625
:1055600011D00AF1010AE8B1C27F93F81FB0934548
:105570009CBF614618461A689C46002AD9D013463B
:105580005A697245EDD1D9F810B09A695A45E8D1F7
:10559000B3F80CB0B9F804209345ECD00AF1010A35
:1055A0000028E1D161461846E5E74FF0000A33686C
:1055B000002B35D0D9F80CE05A694FF0000C724539
:1055C0006146604664460FD00134D8B1C27F93F87B
:1055D0001FB093459CBF614618461A689C46BAB1F5
:1055E00013465A697245EFD1D9F810B09A695A45F5
:1055F000EAD1B3F80CB0B9F804209345EDD00134EA
:105600000028E3D11A68614618469C46002AE7D173
:1056100010B1FFF7F5FD8244574501DD012CC6DCD2
:10562000BAF1000F05D0B8F800303B440A2B7FF7E1
:10563000C4AE284601F072FA0027384605B0BDE82E
:10564000F08FE08900F058FAC0F30C0000283FF416
:10565000D5AE1422494604F1080015F054F9CDE600
:10566000002B42D1BAF1000F5FD1B8F800301F44CF
:10567000A8F80070DDE90121A37F0A4443F001038B
:10568000A283A377D8E77045CBF80020D1D38C450F
:105690007FF625AFCDE700BF58040020540400205A
:1056A0006768002FC5D133689C4237D0874B884943
:1056B000884840F2AB2215F0FBF933689C422DD0AC
:1056C000824B8549834840F2451215F0F1F9236871
:1056D0003B60FFDE9445CBF80030AAD8039B6560A1
:1056E000002B00F0C3804FF0010AA37FDB077FF59A
:1056F00003AFBAF1000F01D06368D3B9B8F8003036
:105700001F44A8F8007097E7A74292DC042000F03D
:10571000A3FE044600287FF4FBAE8AE723683360CB
:105720002146042000F0CAFE83E76368002B00F0E6
:1057300093805D68AB88002B40F08E80DBF80030F2
:10574000002B00F0A4805B68BBF806109A88914299
:1057500006D081E05268D988938899427CD113465B
:105760001A68002AF6D19D4200F09380B8F8003004
:105770001F44039BA8F80070002B00F09D80A78BAE
:105780006368D3F80490142204F108014846D9F85C
:10579000005015F0B8F807F1140080B200F0ACF931
:1057A0000023A9F8020089F8063089F8073089F843
:1057B0000A3089F80B304846142100F0BDFA6768BA
:1057C000A9F80A006DB1A1466C681421284601F0C1
:1057D00023F92946384601F05FFB2568002DF3D1F7
:1057E0004C463268944234D04AB113689C4211D07E
:1057F0002BB11A6894420ED01346002BF9D1334BCB
:105800003549344840F2451215F052F90023226818
:105810001A60FFDE134622681A602146042000F059
:105820004DFE384601F00EFBB8F8003083420446C6
:1058300008D2264B2949274840F29B2215F038F917
:10584000B8F800301B1B3846A8F8003005B0BDE89A
:10585000F08F23683360E0E7B8F800301F44039B03
:10586000A8F80070002B7FF4E7AE03E76368002B15
:105870007FF45FAFF9E6154B194916484FF4DB7218
:1058800015F016F9B9F806E0BBF8040027E65B4608
:1058900069E70E4B13490F4840F2E11215F008F981
:1058A0002B68002B3FF462AF084B0F49094840F2C8
:1058B000E31215F0FDF859E7DDE90121A37F0A4461
:1058C00097B243F00103A783A37759E728C80100E3
:1058D00088C7010070BF0100E8C701006CC7010064
:1058E00018C7010038C7010048C701002DE9F04F73
:1058F0008DB00B8D0A92B3F1140248BFA3F10D02D3
:10590000436804931C78079104F00F044FEA840B5A
:10591000C2F3CF03BBF1140F0546069340F0D380CA
:105920004389132B40F2D280049BD88800F0E4F81E
:10593000B5F80890C0F30C03A9F1140905931FFAF8
:1059400089FA00F400530B93BAF1000F00F0908035
:10595000069BCDF80CA0DB009BB2089300244FF40B
:10596000207214210E2001F04DF9089B039A9342F6
:1059700028BF134681460293002800F09380438994
:10598000132B40F2948014220499D9F8040014F0E7
:10599000BAFFD9F804300993029B002B30D01F4680
:1059A0006B89DFF850A1A3EB0B045B45A4B26AD36B
:1059B000BC4228BF3C46002C5CD0052000F04CFDCA
:1059C0004122804603462146002868D001946E6833
:1059D0005E440096002000F0D5FF064600285AD00D
:1059E000284601F03BFA3F1B3D4BC8F814503146A6
:1059F000C8F810304846BFB201F04EFA002F39D136
:105A0000079B059A1B8DC2F30C00039A133BA3441A
:105A100093421FFA8BFB52DC40F4005000F06CF80C
:105A2000029F099E3B461433F08098B200F064F860
:105A300000237080B372F3721421304600F07CF9B9
:105A4000B046079E0A9A7369A8F80A00494630468C
:105A50009847484601F062F8039BDB1B9AB2DDE9E8
:105A600005310B449BB203920593002A7FF477AF74
:105A7000002019E02D686B894FF0000BA3EB0B049D
:105A80005B45A4B294D2174B174840F22D325146D1
:105A900015F00EF88CE74146052000F00FFD484652
:105AA00001F03CF84FF0FF300DB0BDE8F08F0D4B2A
:105AB0000E490D4840F2253214F0FAFF63E70B9BC4
:105AC000002BABD0A8E76FF00500EDE7054B0849C8
:105AD00005484FF43F7214F0EBFF6FF00500E3E769
