:100000000000082055040000810400008104000065
:1000100081040000810400008104000081040000CC
:10002000810400008104000081040000D18D0000E3
:100030008104000080040000618E0000C58E000075
:1000400081040000810400006927000099850100F7
:10005000810400008104000081040000810400008C
:10006000810400008104000081040000810400007C
:100070008104000011860100810400008104000059
:10008000810400008104000081040000810400005C
:10009000810400008104000081040000810400004C
:1000A000810400008104000081040000810400003C
:1000B0008104000081040000810400000D6900003B
:1000C000810400008104000081040000810400001C
:1000D0008104000081040000810400005906000032
:1000E00081040000810400008104000081040000FC
:1000F00081040000810400008104000081040000EC
:1001000081040000810400008104000081040000DB
:1001100081040000810400008104000081040000CB
:1001200081040000810400008104000081040000BB
:1001300081040000810400008104000081040000AB
:10014000810400008104000081040000810400009B
:1001500010B5054C237833B9044B13B10448AFF301
:1001600000800123237010BD4C030020000000001C
:100170004C0E0D0008B5034B1BB103490348AFF308
:10018000008008BD00000000500300204C0E0D0050
:10019000154B002B08BF134B9D46A3F5803A002159
:1001A0008B460F461348144A121A1BF0D8FD0F4B0A
:1001B000002B00D098470E4B002B00D09847002012
:1001C000002104000D000D48002802D00C48AFF3B8
:1001D00000801BF049FD2000290018F023F91BF0D6
:1001E000A3FB00BF00000800000008200000000082
:1001F000000000004C030020B45301200000000068
:100200000000000008B50121164802F08DFD012113
:10021000154802F089FD012304220A21072005F078
:10022000BFFD012304220B21072005F0B9FD0123A6
:1002300004220C21072005F0B3FD012304220D2127
:10024000072005F0ADFD012304220E21072005F053
:10025000A7FD012304220F21072005F0A1FD0020A6
:1002600008BD00BF4041050000550A0001283DD8E7
:100270002DE9F04F83B0C0EBC0001E4A8300D418B4
:10028000607868B312F803B0DFF870A004EBC0091F
:10029000012700264FF6FF782579A268082D04F182
:1002A000080448FA02F340F2F63150461BD9019295
:1002B00002F06EFB019A104B05EB450502EBC515EC
:1002C0002B449B001B68003318BF01235B4508BF0C
:1002D000F619A1454FEA4707DED1301C18BF0120AF
:1002E00003B0BDE8F08FDB07E5D4E0E74FF0FF3067
:1002F000704700BFD4D201006000C41070D201006A
:10030000012800F29A802DE9F04F85B0C0EBC000C3
:100310004B4B80001E1896F801A0BAF1000F65D073
:1003200013F80090474A039606EBCA0300213746AC
:100330004FF0010801914FF6FF7B1E463C79BD68E6
:10034000082C07F108074BFA05FC40F2F63110467D
:1003500050D9029202F01CFB029A3B4904EB440480
:1003600005EBC414214489000968003118BF01213C
:10037000494502D1019B43440193BE424FEA4808DC
:10038000DCD1019B039EB3FA83F84FEA581801278A
:100390002C4BC8F100083A464FF0000B37EA080131
:1003A0000CBF0121002149453479B5684FF47771BC
:1003B000184627D04FF6FF7C082C4CFA05FC1DD9B7
:1003C000CDE9012302F0E4FADDE9012304EB440462
:1003D0001E492401214402FA05F50D600BF1010BC1
:1003E000D3454FEA470706F10806D7DB002005B0E2
:1003F000BDE8F08F1CF0010FAFD1AAE71CF0010F90
:10040000E4D1DDE74FF6FF71082C41FA05FC40F21C
:100410000B410BD81CF0010F08D004EB44040C492D
:100420002401214402FA05F50D60D7E7CDE9012347
:1004300002F0AEFADDE90123EFE74FF0FF3070473D
:10044000D4D2010070D201006000C4100C800844B6
:100450000C800846064880470649074A074B9A42DF
:10046000BEBF51F8040B42F8040BF8E7FFF790FE0B
:10047000A1050000580E0D00000000204C030020D4
:10048000FEE700BF1D4BD3F8943003F00703023B97
:10049000042B2DD8DFE803F017031A1D21004FF4B9
:1004A0000043164A1649D2F80001D2F80821C0F3D9
:1004B0000420C2F3082201320130B3FBF0F0B0FB9C
:1004C000F2F0086070470F4B1B68EAE70E4B1B68A1
:1004D000E7E70E4B1B685B08E3E7084B9B68C3F339
:1004E0000443073B072B06D8094A52F82330D8E7C4
:1004F000064B1B68D5E70023D3E700BF00400E4042
:1005000000000020040000200C0000200800002053
:100510000CD301000048704700A24A04184BD3F8DE
:10052000943003F00703023B042B24D8DFE803F0E8
:100530000E03111418004FF40040114BD3F8003192
:10054000C3F304230133B0FBF3F070470D4B18687D
:10055000F3E70D4B1868F0E70C4B18684008ECE720
:10056000074B9B68C3F30443073B072B06D8084A95
:1005700052F82300E1E7054B1868DEE70020DCE7CE
:1005800000400E40040000200C0000200800002065
:100590000CD30100014B1868704700BF0400002015
:1005A000044B054A9A60D3F8882042F47002C3F8DD
:1005B0008820704700ED00E0000000004FF400408C
:1005C000704700BF4FF47A70704700BF014B186846
:1005D000704700BF0C00002000207047FEE700BFFE
:1005E0004FF400534B600020704700BF012070475C
:1005F0000020704770B57AB10D461646002404E01D
:100600000134A64205F8010B04D000F0BFF8431CEA
:10061000F6D10CB1204670BD4FF0FF34FAE700BFB1
:10062000044A05491368002B08BF0B4618441060A4
:100630001846704768030020B853012070B5161E95
:1006400007DD0C468D1914F8010B00F0D3F8A54214
:10065000F9D1304670BD00BF104803691B0609D5AB
:1006600070B50F4C2368072B05DDC36C23F0040322
:10067000C36470BD70470B4D2E6806F08FF80A4BAF
:1006800098552B6801332B602368013323602B6856
:10069000082BEED100232B6070BD00BF001001407D
:1006A0007803002080030020700300200030024BFC
:1006B00018BF0120187070476C03002070B588B017
:1006C00001212A482A4D2B4E02F02EFB01212A48F7
:1006D00002F02AFB042211460123072005F060FBEB
:1006E000012302220521072005F05AFB0FCD01ACA2
:1006F0000FC495E80700012384E807000422194687
:10070000104605F04DFB01211C4802F00DFB08A925
:10071000002401F81C4D304605F0D6FD0323736715
:10072000B26F174B22F4E06222F0070242F48062BB
:100730000420802142F00402B267B064C3F884113F
:10074000F26C0243F26430465960052105F08AFDDF
:100750000C4B1A6821462346906802221BF00CFCC1
:10076000094B01221A7008B070BD00BF404105005E
:100770002CD301000010014000550A0000B2040013
:1007800000E100E0600100206D03002010B5144B73
:100790001B78F3B104F034FC124A1368002B1BDD04
:1007A000114B124C1968645C1968013119601968A1
:1007B000082904BF0021196013680D49013B13602B
:1007C000CB6C43F00403E4B2CB6404F01DFC204680
:1007D00010BDFFF773FFDDE74FF0FF34F5E700BF13
:1007E0006D030020780300207C03002070030020AC
:1007F0000010014010B50E4B1B78044653B10D4B51
:100800001B780BB10A2C08D021460B4805F0CCFF11
:10081000204610BDFFF752FFF1E70D21064805F015
:10082000C3FF2146044805F0BFFF204610BD00BFAE
:100830006D0300206C030020001001402DE9F04101
:10084000254D2B6893F822320E461907074690462D
:100850002CD44246314638461AF03EFD044650BB81
:100860002B6893F82222D20625D5012F2ED0B3F87B
:100870000632012B1FD8464436F8026CC6F30B062D
:10088000CEB94246394602201AF022FD40F608331E
:10089000984210D12A6892F8223243F00803304679
:1008A00082F82232BDE8F0411AF0F2B901201AF0C4
:1008B000EFF9044610B12046BDE8F0812A6892F8AD
:1008C000223223F0080382F82232C2E73288C2F3D0
:1008D0000B02002ACBD0EEE7A49C00202DE9F041CA
:1008E00082B0294D2B6893F822321A0706460F462C
:1008F00019D404220DEB020130461AF0EDFC044637
:1009000050B92A6892F82232DB0605D5012E18D09C
:10091000B2F80632012B1BD9BDF804303B802046CB
:1009200002B0BDE8F08101201AF0B2F904460028B7
:10093000F2D12A6892F8223223F0080382F8223298
:10094000D7E7BDF80430C3F30B010029E0D0E5E799
:10095000BDF80680C8F30B08B8F1000FDCD13146B2
:10096000042202201AF0B4FC40F608339842D3D196
:100970002A6892F8223243F00803404682F8223275
:100980001AF086F90446C7E7A49C002030B583B06E
:10099000134C8DF80410236893F82232090A0022C0
:1009A0001B078DF805100546ADF8062007D4042274
:1009B00028460DEB02011AF0B9FC03B030BD01204E
:1009C0001AF066F90028F8D11AF098F90028F4D145
:1009D000226892F8223223F0080382F82232E6E7F6
:1009E000A49C0020F8B5254D2B6893F822320F46C1
:1009F0001907064613D40422394630461AF06CFC17
:100A0000044650B92B6893F82222D20605D5012E50
:100A100013D0B3F80632012B15D92046F8BD0120BA
:100A20001AF036F904460028F7D12A6892F82232E3
:100A300023F0080382F82232DDE73A88C2F30B0282
:100A4000002AE6D0E9E77F88C7F30B07002FE4D13F
:100A50003146042202201AF03BFC40F6083398424B
:100A6000DBD12A6892F8223243F00803384682F834
:100A70002232BDE8F8401AF00BB900BFA49C002058
:100A800030B583B0104C0191236893F822321B07D4
:100A9000054607D4042228460DEB02011AF046FC55
:100AA00003B030BD01201AF0F3F80028F8D11AF095
:100AB00025F90028F4D1226892F8223223F00803A5
:100AC00082F82232E6E700BFA49C0020F8B5224D50
:100AD0002B6893F822320F461907064611D43A467E
:100AE000314602201AF0F8FB044640B92B6893F80F
:100AF0002222D20603D5B3F80632012B0FD92046A5
:100B0000F8BD01201AF0C4F804460028F7D12A687D
:100B100092F8223223F0080382F82232DFE73E44C3
:100B200036F8026CC6F30B06002EE8D102213A46D5
:100B300008461AF0CDFB40F608339842DFD12A6808
:100B400092F8223243F00803304682F82232BDE8A0
:100B5000F8401AF09DB800BFA49C002070B50F4C5F
:100B6000236893F822321B0705460E4606D4324608
:100B700029460220BDE870401AF0D8BB01201AF0C7
:100B800087F850B91AF0BAF838B9226892F82232C8
:100B900023F0080382F82232E9E770BDA49C00200C
:100BA000B2F5005F1DD270B582B0204E019033685F
:100BB00093F8223214461A070D4614D40422104624
:100BC0000DEB02011AF0B2FB48B9336893F82232F8
:100BD0001B0719D42246294605201AF0A7FB02B0AC
:100BE00070BD2120704701201AF052F80028F6D17C
:100BF0001AF084F80028F2D1326892F8223223F0F9
:100C0000080382F82232D9E701201AF041F80028BF
:100C1000E5D11AF073F80028E1D1326892F8223257
:100C200023F0080382F82232D4E700BFA49C0020FE
:100C300030B583B01E4C0090236893F822321A0717
:100C40000D4613D40422104669461AF06FFB58B9BA
:100C50002368019593F822321B0718D404220DEB68
:100C6000020105201AF062FB03B030BD01201AF02A
:100C70000FF80028F8D11AF041F80028F4D12268C2
:100C800092F8223223F0080382F82232DAE70120B8
:100C900019F0FEFF0028E7D11AF030F80028E3D160
:100CA000226892F8223223F0080382F82232D5E734
:100CB000A49C0020F0B585B0474D03902B6893F8B5
:100CC00022321C070E4675D40422104603A91AF0DE
:100CD0002DFB042201A90020FFF7B0FD2A68019B2B
:100CE00092F8222243F400531007029351D40422B5
:100CF00002A900201AF01AFB142417E004220DEBBD
:100D0000020100201AF0E8FA40B92B6893F8222279
:100D1000D20603D5B3F80632012B20D9019B9B04E0
:100D200016D5012019F0FCFF013C11D02B6893F877
:100D300022321907E2D5012019F0AAFF0028EDD1CF
:100D40002A6892F8223223F0080382F82232D5E78B
:100D5000314604220520FFF771FD05B0F0BDBDF856
:100D60000670C7F30B07002FD8D1042239460220A2
:100D70001AF0AEFA40F608339842CFD12A6892F8BA
:100D8000223243F00803384682F8223219F080FFFD
:100D9000C4E7012019F07CFF0028ADD119F0AEFFA7
:100DA0000028A9D12A6892F8223223F0080382F899
:100DB00022329CE7012019F06BFF002889D119F03D
:100DC0009DFF002885D12A6892F8223223F008037B
:100DD00082F8223278E700BFA49C0020F0B583B0EF
:100DE0000C4F0646642401A93846FFF763FF054609
:100DF00060B9019BB3424FF0010007D019F090FF9A
:100E0000013CF0D1019B9E4218BF0725284603B044
:100E1000F0BD00BF10C000092DE9F04F87B0BDF84C
:100E200058609DF844400294751C25F00105BDF8FA
:100E300048400394783500908846924600242A461C
:100E4000022104A89DF84090BDF850700193CDE9AF
:100E5000044419F00FFF834658B1BBF1070F55D07A
:100E6000049810B1022119F00DFF584607B0BDE8F3
:100E7000F08F01462A4604981AF071FFDDE9033429
:100E8000B9F1060F08BF02236386BDF80430E3857D
:100E90009DF8083084F83130009984F803B0424658
:100EA000C4F8048084F83090A786A4F8766004F132
:100EB00008001AF030FF3A46139904F136001AF090
:100EC0002AFF3246159904F178001AF024FF04F144
:100ED0002800BAF1000F23D0514606221AF01BFF5A
:100EE000049C19F05DFF83460028B6D1294F2A4B98
:100EF0003A681B88B2F806229A4216D319F066FFA8
:100F000083460028A9D14FF01D0BA9E7214A11689B
:100F1000B1F80622002AA3D0013AA1F806229FE7E1
:100F20000622FF211AF01BFFDAE743262580A67070
:100F3000304619F0FBFE834618BBA9B2204619F0D3
:100F400051FF8346E8B93A68B2F806320133A2F895
:100F5000063219F03BFF834600287FF47EAF30460F
:100F600005AA41F2883119F0E9FE834600287FF492
:100F700074AF059B5B68142B09D8084A52F823B05C
:100F80006BE719F023FF002818BF834665E74FF091
:100F9000010B65E7A49C00208603002048D30100D4
:100FA0002DE9F04182B002A8002340F8043D04225C
:100FB000022119F05FFE044650B1072C23D001989E
:100FC00010B1022119F05EFE204602B0BDE8F081AA
:100FD0000146042201981AF0C2FE019DEC7019F03E
:100FE000DFFE04460028E8D1274F284B3A681B88CB
:100FF000B2F806229A4210D319F0E8FE04460028FF
:10100000DBD11D24DBE7204B1A68B2F80632002B37
:10101000D5D0013BA2F80632D1E744264FF00408B0
:101020006870AE70304685F8008019F07FFE044687
:1010300008BB4146284619F0D5FE0446D8B93A689F
:10104000B2F806320133A2F8063219F0BFFE0446A8
:101050000028B2D130466A4641F2883119F06EFE5E
:1010600004460028A9D1009B5B68142B09D8084AC4
:1010700052F82340A1E719F0A9FE002818BF044642
:101080009BE701249BE700BFA49C0020860300206F
:1010900048D301002DE9F04F87B09DF84040BDF8DE
:1010A0005850BDF8606001949DF8444002949DF84A
:1010B0004840039405EB060C06F174040CF0010C97
:1010C0002C44644481464FF0000C8B46904602212C
:1010D000224604A89A46BDF85070CDE904CC19F018
:1010E000C9FD0346B0B1072B0AD0049820B10221F4
:1010F000019319F0C7FD019B184607B0BDE8F08FBA
:10110000454A1168B1F80622002AEED0013AA1F84A
:101110000622EAE70146224604981AF020FE049BC4
:101120009DF8042083F829209DF8082083F82A20C0
:1011300002209DF80C2083F82B20DF85A3F8705047
:10114000D8705946C3F8048083F828A0A3F82C90DF
:10115000A3F87260424603F1080001931AF0DBFD28
:10116000019B139903F130003A4603F174071AF01A
:10117000D2FD2A46159938461AF0CDFD3246179908
:1011800078191AF0C8FD049D19F00AFE03460028DC
:10119000A9D1214F214B3A681B88B2F806229A4206
:1011A00006D319F013FE034600289CD11D239CE7AB
:1011B00045262C80AE70304619F0B8FD804610BB35
:1011C000A1B2284619F00EFE8046E0B93A68B2F89E
:1011D00006320133A2F8063219F0F8FD0346002862
:1011E00081D1304605AA41F2883119F0A7FD0346A6
:1011F00000287FF478AF059B5B68142B0AD8084A57
:1012000052F823306FE719F0E1FD002814BF0346C0
:10121000434668E7012368E7A49C0020860300207A
:1012200048D301002DE9F04182B002A8002340F824
:10123000043D0422022119F01DFD044650B1072C83
:1012400024D0019810B1022119F01CFD204602B0F3
:10125000BDE8F0810146042201981AF080FD019D4D
:101260000223EB7019F09CFD04460028E7D1274FBC
:10127000274B3A681B88B2F806229A4210D319F01D
:10128000A5FD04460028DAD11D24DAE71F4B1A68B1
:10129000B2F80632002BD4D0013BA2F80632D0E7D8
:1012A00047264FF004086870AE70304685F800801D
:1012B00019F03CFD044608BB4146284619F092FD52
:1012C0000446D8B93A68B2F806320133A2F80632B9
:1012D00019F07CFD04460028B1D130466A4641F23F
:1012E000883119F02BFD04460028A8D1009B5B68CB
:1012F000142B09D8074A52F82340A0E719F066FDDD
:10130000002818BF04469AE701249AE7A49C00200D
:101310008603002048D301002DE9F041224FD7F881
:1013200000C0BCF8045204465200681C0E4680B24D
:1013300001F10C0502F0060208214FF04A08ACF852
:101340000402E270E0806371A6602580217184F858
:10135000028019F025FD18B105462846BDE8F08148
:101360003A68124BB2F806221B889A421AD201360A
:1013700026F001060C36B1B2268084F802802046A1
:1013800019F030FD054628B93A68B2F80632013343
:10139000A2F8063219F01AFD002818BF05462846A3
:1013A000BDE8F0811D25F5E7A49C00208603002000
:1013B0002DE9F04F97B0BDF88890BDF8807009F125
:1013C00007061644144607EBC70206EB820626F012
:1013D00001060C36002583468A463246022102A8C1
:1013E000CDE90255984619F045FC054650B1072D48
:1013F0005BD0029810B1022119F044FC284617B0C6
:10140000BDE8F08F03466BF30F03324601460298A6
:10141000CDE90033AB461AF0A2FC009B029A67F3B9
:101420000F0B64F31F4369F31F4BD5705360C2F871
:1014300008B002F10C05002C4DD1B7B1002404EB2B
:10144000C40104AB890003EB010A24224144504645
:1014500001341AF060FCE4B22846514624221AF006
:101460005AFCBC4205F12405E9D3B9F1000F26D19D
:10147000239B28460622002B36D019461AF04BFC37
:10148000029C19F08DFC05460028B0D1334D344B39
:101490002A681B88B2F806229A4229D319F096FCD2
:1014A00005460028A3D11D25A3E72C4B1A68B2F8E6
:1014B0000632002B9DD0013BA2F8063299E74A463E
:1014C000284621991AF027FC239B4D4428460622E2
:1014D000002BD2D108E02846514622461AF01BFCC8
:1014E0002544002FAAD1C0E7FF211AF038FCC7E736
:1014F0004B272680A770384619F018FC804618BB89
:10150000B1B2204619F06EFC8046E8B92A68B2F8FC
:1015100006320133A2F8063219F058FC05460028BD
:101520007FF465AF384603AA41F2883119F006FC12
:10153000054600287FF45BAF039B5B68142B0AD839
:10154000084A52F8235052E719F040FC002814BF13
:10155000054645464BE701254BE700BFA49C00200C
:101560008603002048D301002DE9F04184B00146F4
:10157000062202A81AF0CFFB04A8002340F80C3D75
:101580000A22022119F076FB044650B1072C2AD01A
:10159000019810B1022119F075FB204604B0BDE896
:1015A000F08101460A2201981AF0D9FB0198022322
:1015B000C37002A9062204301AF0ADFB019D19F098
:1015C000EFFB04460028E1D1274F284B3A681B88DF
:1015D000B2F806229A4210D319F0F8FB044600280C
:1015E000D4D11D24D4E7204B1A68B2F80632002B60
:1015F000CED0013BA2F80632CAE74F264FF00A08C8
:101600006870AE70304685F8008019F08FFB044694
:1016100008BB4146284619F0E5FB0446D8B93A68AC
:10162000B2F806320133A2F8063219F0CFFB0446B5
:101630000028ABD130466A4641F2883119F07EFB72
:1016400004460028A2D1009B5B68142B09D8084AE5
:1016500052F823409AE719F0B9FB002818BF044656
:1016600094E7012494E700BFA49C00208603002097
:1016700048D301002DE9F04184B004AB002443F8C5
:10168000044D8DF804008DF80510ADF806201846BD
:101690000822022119F0EEFA044650B1072C2AD094
:1016A000039810B1022119F0EDFA204604B0BDE80C
:1016B000F0810146082203981AF051FB0398042296
:1016C000C4700DEB020110441AF025FB039D19F0C4
:1016D00067FB04460028E1D1274F284B3A681B8856
:1016E000B2F806229A4210D319F070FB0446002883
:1016F000D4D11D24D4E7204B1A68B2F80632002B4F
:10170000CED0013BA2F80632CAE752264FF00808B5
:101710006870AE70304685F8008019F007FB04460B
:1017200010BB4146284619F05DFB0446E0B93A6813
:10173000B2F806320133A2F8063219F047FB04462C
:101740000028ABD130460DEB080241F2883119F088
:10175000F5FA04460028A1D1029B5B68142B09D836
:10176000074A52F8234099E719F030FB002818BFC8
:10177000044693E7012493E7A49C002086030020FD
:1017800048D301002DE9F04182B04C1C24F0010443
:10179000063400230D460746224602216846CDE95D
:1017A000003319F067FA0646A0B1072E08D000985A
:1017B00010B1022119F066FA304602B0BDE8F0819E
:1017C0002F4B1A68B2F80632002BF0D0013BA2F87A
:1017D0000632ECE70146224600981AF0C0FA00985B
:1017E0002A46C6708580394606301AF094FA009D64
:1017F00019F0D6FA06460028D7D1214E214B32687F
:101800001B88B2F806229A4206D319F0DFFA064680
:101810000028CAD11D26CAE709272C80AF70384698
:1018200019F084FA804608BBA1B2284619F0DAFA0A
:101830008046D8B93268B2F806320133A2F80632CF
:1018400019F0C4FA06460028AFD1384601AA41F281
:10185000883119F073FA06460028A6D1019B5B680F
:10186000142B0AD8084A52F823609EE719F0AEFA02
:10187000002814BF0646464697E7012697E700BFB3
:10188000A49C00208603002048D301002DE9F041EC
:1018900082B000230646019319F082FA20BB3388F8
:1018A000C3F30B02550012B39B0B032B05F1020788
:1018B00014BF4FF002084FF0010817F03E0F1ABF97
:1018C00027F03F0240323A46414601A819F0D2F9CA
:1018D0000446E8B1019810B1414619F0D3F919F066
:1018E00075FA002808BF204602B0BDE8F0813146F5
:1018F0000120FEF7F3FF044670BB3388C3F30B02ED
:101900005500002AD0D14FF0010840F60534E1E738
:1019100001463A4601981AF022FA39460198FFF733
:10192000D5F804460028D5D10D4B01981A68B2F8B5
:1019300006323BB190F902100029A4BF03F1FF3336
:10194000A2F806324219435D527843EA02233380FB
:1019500019F012FB0446BDE74FF00108BAE700BFDB
:10196000A49C002000B583B001A90020FFF73AF83D
:1019700020B10346184603B05DF804FB019921F439
:101980008061FFF77DF80346184603B05DF804FB5D
:101990002DE9F04786B005464FF4097200211AF090
:1019A000DEF9A44E0023A5F80632356019F0E4FCF8
:1019B00078B1044605AF39460020FFF713F8002838
:1019C0005CD019F0FFFC19F053F9204606B0BDE8D1
:1019D000F08705AF3946FFF705F804460028EAD13D
:1019E00095490620FFF74CF804460028E3D19349B7
:1019F0000620FFF745F804460028DCD19049062070
:101A0000FFF73EF804460028D5D18E490620FFF79F
:101A100037F804460028CED18B490620FFF730F86E
:101A200004460028C7D104A90120FEF757FF044649
:101A30000028C0D1BDF8103043F48053194601206E
:101A4000ADF81030FEF7A2FF04460028B3D14FF0E6
:101A5000C8080BE0BDF8103099044FF0010019D40C
:101A600019F05EF9B8F1010800F0DC8004A901204A
:101A7000FEF734FF0028EDD004469CE7059B23F4D5
:101A8000803319460593FEF7FBFF002899D119F022
:101A900091FE96E739460020FEF7A4FF0446002891
:101AA00089D1059B5B0501D4012484E73946674849
:101AB000FFF700F9044600287FF47DAF3946FEF7B2
:101AC00091FF044600287FF476AF059B23F4A043E2
:101AD00019460593FEF7D4FF044600287FF46BAF48
:101AE000DFF898815A484146FFF7A2F804460028DB
:101AF0007FF461AF39465648FFF7DCF8044600280A
:101B00007FF459AF059B4345CED1E12019F00EF982
:101B1000044600287FF44FAF049019F037F80446CC
:101B200000287FF448AF4B494B48FFF781F8044643
:101B300000287FF440AF01464848FFF779F8044693
:101B400000287FF438AF01464548FFF771F8044696
:101B500000287FF430AF43493F48FFF769F8044657
:101B600000287FF428AF4048FFF738F904460028E2
:101B70007FF421AF02A93D48FFF79CF804460028F6
:101B80007FF419AF02A93A48FFF794F804460028F9
:101B90007FF411AF029BDFF8E88036492E481B0A1C
:101BA00088F80030FFF744F8044600287FF403AFBC
:101BB0002C48FFF713F9044600287FF4FCAE4FF0E1
:101BC000FF312348FFF734F8044600287FF4F3AED2
:101BD00003A819F015F8039927485039FFF728F89A
:101BE000044600287FF4E7AE0821384618F0F8FFD5
:101BF000044600287FF4DFAE059B98F800809879B2
:101C00008DF80400DB798DF806402146102201A8EA
:101C10008DF805301AF0CCFCC0B2804532D040F6C9
:101C20000134C8E6BDF810309A043FF533AF0724FD
:101C3000C1E600BFA49C00207587200720C02E08A5
:101C40003C3C3C09442C320B9764A00C10C00009AA
:101C500000400009785634120CC0000904C0000985
:101C600008C000092143658799EF53BD80C0000972
:101C7000CCC0000999BD53A700C000098EC8AB2392
:101C8000840300204021384618F0AAFF04460028AB
:101C90007FF491AE402205998948FEF781FF044602
:101CA00000287FF488AE0821384618F099FF0446D2
:101CB00000287FF480AE082205998248FEF770FF65
:101CC000044600287FF477AE01217F48FEF7B0FF7D
:101CD000044600287FF46FAE7C497D48FEF7A8FFDC
:101CE000044600287FF467AE039BA3F15102920AD9
:101CF000503B814602F1010A039380466424049B11
:101D00007448A8EB0303B3F5F84F04A91ED90023C8
:101D10000493FEF7CFFF00287FF4AEAE013CEED176
:101D2000049BA8EB0303B3F5F84F0FD902A96A4847
:101D3000FEF7C0FF044600287FF43DAE634B029AD5
:101D400040F602349A4218BF012434E6039BA3EB09
:101D50000803B3F5806F28BF4FF4806319463846F7
:101D60001C4618F03DFF00287FF486AEC8F30E0035
:101D700000F1106000F5804022460599FEF710FF43
:101D800000287FF479AEA04441465448FEF750FF46
:101D900000287FF471AE09F10109CA45AED8504957
:101DA0004B48FEF745FF044600287FF404AE4C483C
:101DB000FFF714F8044600287FF4FDAD4949444874
:101DC000FEF736FF044600287FF4F5AD19F0CCFC91
:101DD000044600287FF4EFAD3946FEF703FE0446C3
:101DE00000287FF4E8AD059B43F480331946059342
:101DF000FEF746FE044600287FF4DDADFFF7B2FD96
:101E0000044600287FF4D7AD03AA41F28831E120CF
:101E100018F094FF044600287FF4CDAD0399324CAE
:101E200091F8383085F8003291F8393085F8013270
:101E300091F83A3085F802322631062205F2162052
:101E400019F069FF039906222C3105F5077019F086
:101E500062FF039991F8212091F8203005F5027076
:101E600043EA02230A310E22238019F054FF012095
:101E700018F00EFF02A818F0E9FE00287FF4FCAD70
:101E80000546BDF80820EBB29A4204A8194611D9BC
:101E900018F0BCFE00287FF4EFAD049C20461AF039
:101EA000DEF901462046FFF76DFC01350028E8D039
:101EB000044680E53368012283F82222002484E569
:101EC00014C0000954C000095CC00009BADCCDABE5
:101ED0000CC0000908C0000910C0000904C00009B6
:101EE000994AC6D482C84F178603002010B582B025
:101EF000194C236893F82232DB0603D501231846D8
:101F000002B010BD0DF106010120FEF7E7FC03460B
:101F10000028F4D1BDF8063023F480539BB2194653
:101F20000120ADF80630FEF731FD03460028E6D16A
:101F3000226892F8223243F0100382F8223218F01D
:101F4000A7FE03460028DAD1216891F8222242F048
:101F5000080281F82222D2E7A49C002010B582B0AA
:101F6000174C226892F82232D90602D4012002B01E
:101F700010BD23F0100382F82232012018F088FEF1
:101F80000028F4D118F0BAFE0028F0D1226892F8A7
:101F9000223223F0080382F822320DF106010120DB
:101FA000FEF79CFC0028E2D1BDF8063043F48053D4
:101FB00019460120ADF80630FEF7E8FCD7E700BF70
:101FC000A49C002070B511461A461D46064618F01E
:101FD00051FE044620B92A463068214619F0BFFE5A
:101FE000204670BD114618F04DBE00BF0F4A116863
:101FF00001EB41031B0103F1804303F50053D3F8C8
:10200000900010F8010C0D2804D1D3F894300A2167
:1020100019701168064A0123906A8B4020EA030078
:102020009062116A0B4313620020704794030020F2
:1020300000200040F8B5334D2B6803EB43031B0130
:1020400003F1804303F500531446D3F8942012F8AB
:10205000013C0D2B02F1FF3635D00A2B33D0082B73
:1020600001D07F2B36D123682749B3423CBF0023E0
:1020700006F8013C4FF0000302F8013C2B68234AAC
:1020800003EB430301EB03131068D3F8942034BF30
:1020900002270127D21BC3F89420027AD2B11C4830
:1020A000D3F89420036803EB430301EB0311C1F859
:1020B0009020D4E9003213449E4210D3154819F001
:1020C000FFFE0020F8BDA368134FABB138689847F6
:1020D00090B93E60D4E9003213449E42EED20A4ADF
:1020E0002868916A0123834021EA03019162116A01
:1020F0000B4313620020F8BD084B186816F0E8F88F
:10210000E7E700BF9C030020002000408803002078
:1021100094030020BCD30100900300208C03002016
:102120002DE9F0438BB00025384F08910A46294627
:1021300004460995079019F012FE3A68DFF8E0E0CE
:10214000DFF8E080DFF8E0C0D8F80000CCF800400D
:10215000D2E90031012607AA1C33CDE903E202953A
:102160002246CDE9006600F05BFA3B681A7A8146A8
:102170004ABBB9F1000F41D1254B4FF0FF31186830
:1021800016F078F80646D8F8000000F0CDFA214B9A
:102190000546186800F0C8FA284366BB58BB2046BD
:1021A0001AF05DF8831EE118E25C0D2A1DD00A2AA0
:1021B0001BD0431EE118E25C0D2A16D00A2A14D067
:1021C0000BB0BDE8F08313491A6808685968124BD0
:1021D000039307AF04973432CDE901650096234697
:1021E00000F09AF949EA0009C3E7002218460A708C
:1021F0000BB0BDE8F0834FF0FF30E1E749460748F8
:1022000019F05EFE4FF0FF30DAE700BF88030020D0
:102210008C03002094030020ED1F00009CD30100DC
:10222000352000009C030020900300202DE9F0479A
:102230008AB00B4600253D4F0891914629461A4623
:1022400004460995079019F08AFD3A68DFF8F0E036
:10225000DFF8F080DFF8F0C0D8F80000CCF80040DC
:10226000D2E90031012607AA1C33CDE903E2029529
:102270002246CDE9006600F0D3F93B681A7A82461F
:102280008ABBBAF1000F49D1B9F1000F26D14FF046
:10229000FF31274B186815F0EDFF0646D8F800000F
:1022A00000F042FA234B0546186800F03DFA284337
:1022B0008EBB80BB204619F0D2FF831EE118E25C82
:1022C0000D2A22D00A2A20D0431EE118E25C0D2AF2
:1022D0001BD00A2A19D00AB0BDE8F0874FF47A71F2
:1022E00001FB09F1D5E713491A6808685968124BD0
:1022F000039307AF04973432CDE901650096234676
:1023000000F00AF94AEA000ABBE7002218460A7000
:102310000AB0BDE8F0874FF0FF30DCE751460748D0
:1023200019F0CEFD4FF0FF30D5E700BF8803002045
:102330008C03002094030020ED1F00009CD30100BB
:10234000352000009C0300209003002060B3F0B50E
:1023500083B0174E044600F0AFF8164B35781C607A
:1023600015B1002003B0F0BD2946134800F02AF84B
:1023700029460746114800F025F8044602A8012125
:1023800040F8045D15F062FF0D4A10600028E8D0A7
:10239000294615F06FFF0028E3D157EA0403E0D186
:1023A0000123337003B0F0BD4FF0FF30704700BF22
:1023B00098030020880300209C0300209403002041
:1023C0008C03002038B5124B1B78C3B1C8B1054649
:1023D00002F016FE0F4900220B4602E00132182AD5
:1023E00011D01C7B1033002CF8D113012A60CA18BD
:1023F0000125CC50157302F007FE204638BD064873
:1024000038BD064838BD02F0FFFD054838BD00BFA5
:1024100020080020A0030020028000F0018000F0CE
:10242000048000F010B582B002F0EAFD0C4B03F519
:10243000C07201E0934208D01C7B1033002CF9D00D
:1024400002F0E2FD074802B010BD019003F04EFD1E
:10245000054B01981C7002F0D7FD204602B010BD5C
:10246000A0030020058000F02008002038B50D4BA7
:102470001B788BB117280DD8044602F0C1FD0A4B1A
:1024800003EB0414237B4BB10025257302F0BCFD44
:10249000284638BD054838BD054838BD02F0B4FDB2
:1024A000044838BD20080020A0030020018000F06F
:1024B000028000F0068000F010B582B0124A0023BE
:1024C000126801928DF8043002F09AFD0F4B1C78CF
:1024D000ACB901221A7002F097FD0D4B224603F5AC
:1024E000C0711A7310338B42FBD104230DEB030030
:1024F0008DF8073003F010FD002002B010BD02F08F
:1025000083FD044802B010BDDCD301002008002088
:10251000A0030020038000F02DE9F04F85B03A4C75
:102520009DF838E024789DF84060002C5FD0172893
:1025300059D8002A57D0002B55D00F9CB4F5006F06
:1025400051DCDFF8D8C007010CEB0704247B002C1A
:1025500051D02E4C4FEA40194FF0000804EB09050A
:1025600044F8098095F802B095F803A0C5F80480F6
:102570004BF0100B4AF0300AC5E9028885F802B02A
:1025800085F803A0CDE90188CDF80C80BEF1000FDD
:1025900005D15FFA8AFE4EF0030E85F803E0009144
:1025A0000F9934F809E0013961F30E1E24F809E0AF
:1025B0004C44E1786360119BA26066F38301E17093
:1025C000DBB10CEB0703119C4CF807402A46129D27
:1025D00000246946C3E901545C7303F0E1FC204622
:1025E00005B0BDE8F08F0A4805B0BDE8F08F094896
:1025F00005B0BDE8F08F0848F6E71A46A37862F305
:102600000413A370DDE700BF200800202005002090
:10261000018000F0028000F0078000F0A00300209D
:102620002DE9F04F85B03A4C9DF838E024789DF8BC
:102630004060002C5FD0172859D8002A57D0002BB3
:1026400055D00F9CB4F5006F51DCDFF8D8C00701FE
:102650000CEB0704247B002C51D02E4C4FEA401980
:102660004FF0000804EB090544F8098095F802B022
:1026700095F803A0C5F804804BF0100B4AF0030A4C
:10268000C5E9028885F802B085F803A0CDE9018884
:10269000CDF80C80BEF1000F05D15FFA8AFE4EF036
:1026A000300E85F803E000910F9934F809E0013904
:1026B00061F30E1E24F809E04C44E1786360119B3D
:1026C000A26066F38301E170DBB10CEB0703119CA0
:1026D0004CF807402A46129D00246946C3E901547C
:1026E0005C7303F05DFC204605B0BDE8F08F0A483E
:1026F00005B0BDE8F08F094805B0BDE8F08F084887
:10270000F6E71A46A37862F30413A370DDE700BF6F
:102710002008002020050020018000F0028000F049
:10272000078000F0A003002008B50A4B1A7862B1B8
:10273000172808D8084A02EB00131B7B3BB103F0B3
:10274000D3FC002008BD054808BD054808BD054864
:1027500008BD00BF20080020A0030020018000F079
:10276000028000F0078000F02DE9F8431D4B1F6E3A
:10277000DA6E174035D41C4CDFF87090984601266D
:10278000002506E00135182D4FEA460604F1100435
:1027900025D037422846F5D02368C8F86860002B5A
:1027A000F0D0D4E901210131A1609847637B012B6E
:1027B000E8D109EB451303F1080218330028E1D1F1
:1027C000117960F3410111711A79013560F3410209
:1027D000182D1A714FEA460604F11004D9D1BDE84C
:1027E000F883FEE700200040A00300202005002021
:1027F00008B5034B1B6803B19847012008BD00BF13
:102800002808002038B50F4C43680F4A0F49636011
:102810000023138005460E480B60206003F08AFCFD
:10282000C30306D4D5E9013229682160C4E9013225
:1028300038BD03F079FC6368002BF3D0042098477F
:10284000F0E700BF2C080020240800202808002002
:10285000F12700002DE9F8432B4E02F0C9FB347834
:10286000074614B902F080FD3478284DDFF8A080C7
:102870002B684FF00009CCB9727822BB13B103204A
:10288000984738B1002002F0CBFC03246B680BB1F1
:1028900020469847AB6803B32046984710F0010FD5
:1028A00081461DD034782B68002CE5D013B101206F
:1028B000984730B3D8F8103023F00403C8F810302C
:1028C00030BF0124E2E71BB1022098470028E1D085
:1028D000002002F011FC0224D8E719F0010FE1D129
:1028E000A31E012B05D9384602F086FB2046BDE821
:1028F000F88302F069FD384602F07EFB2046BDE811
:10290000F8830446C6E700BF240800202C080020F6
:1029100000ED00E038B5841EE3B2012B0FD8104D56
:102920002B5DFF2B02D001332B5538BD40F2231114
:102930000C4800F02DF82B5D01332B55F5E74FF4D3
:102940009171084800F024F8054B1B5DFF2BECD17A
:1029500040F223110348BDE8384000F019B800BF29
:1029600024080020E0D301000238C3B2012B06D8AE
:10297000054A135C13B1013B1354704770474FF481
:10298000A771024800F004B824080020E0D3010039
:10299000FEE700BF38B59A4B9842054606D019D9D4
:1029A000984B984202D0984B984216D105F00F04EC
:1029B000631E0B2B00F2E980DFE813F025003600E0
:1029C00045005200D400DD00E7009C00AA00BB00D7
:1029D000C90015008D4B9842E8D040F69A718C489A
:1029E000FFF7D6FFE2E78B4BD3F8F03103F0070394
:1029F000052B00F20281DFE813F0B300D100FA00EA
:102A0000F800F000F600834BD3F8943003F007038E
:102A1000023B052B00F2E980DFE813F0C000E5007F
:102A2000DF00ED00A200EB007A4BD3F8803003F01A
:102A30000703022B22D0042B00F0AE80012B0CBF29
:102A4000032401241AE0734BD3F8843003F0070306
:102A5000013B032B00F2D180DFE803F010BFC39EDF
:102A60006C4BD3F88C4004F00704022C06D0042CE5
:102A700000F09280012C0CBF03240124604B9D4286
:102A800000F0978040F28C805E4B9D4200F09D806C
:102A90005D4B9D4240F093805E4BD3F8884004F03C
:102AA0000704042C04D8DFE804F009211D0F0B00F3
:102AB00041F21B015648FFF76BFF0024204638BD4A
:102AC000BDE83840FDF77EBDFDF728FD514BD3F83A
:102AD0000031C3F30163013301249C40B0FBF4F4E3
:102AE000204638BDBDE83840FDF770BDBDE8384030
:102AF000FDF764BD474BD3F85C3103F03003202B66
:102B00004CD0302BBAD0102B0CBF07240124B5E7D2
:102B1000404BD3F85C3103F44013B3F5001F3DD0B4
:102B2000B3F5401F5BD0B3F5801F0CBF0724012411
:102B3000A4E7384BD3F8603103F00303022B4AD0EB
:102B4000032B9BD0012B0CBF0424052496E7314BAB
:102B5000D3F8643103F00303022B3CD0032BF1D1F3
:102B60000A248BE72B4BD3F8884004F00704022C8F
:102B70007FF47DAF82E7274B1B6F13F003032AD04E
:102B8000012B0CBF0924012478E741F68911204864
:102B9000FFF7FEFE002471E70C246FE704246DE7C5
:102BA0001A4B9D420BD11B4BD3F8804004F0070415
:102BB00077E7184BD3F8844004F0070471E740F638
:102BC000C9711348FFF7E4FE6BE7124BD3F88C4052
:102BD00004F0070465E7072450E702244EE70824C1
:102BE0004CE706244AE7032448E7052446E70B247C
:102BF00044E70E2442E70D2440E701243EE700BFEE
:102C000003002000040022000500240002001E0032
:102C10004CD5010000400E40F8B54FF0804341F61E
:102C200071321E6C1A645B6811F0FF030D46044696
:102C30003ED0022B0BD12E4B984254D92D4B9842AB
:102C400053D903F5B70303F55863984243D940F6C7
:102C50009A612948FFF79CFE4FF040724FF0804088
:102C600026494368264F23F040731343022D0CBFBF
:102C70000A463A469442436011D9224B224A2349DC
:102C800011609C420ED96DB94FF08C434FF48052C5
:102C90001A601EB14FF0804300221A64F8BD1C4B2D
:102CA0001A4A1A604FF088434FF480521A60F0E7D6
:102CB000184A904211D9184B984210D9174B984294
:102CC0000FD9174B9842C2D80322164B03EBC2030D
:102CD0005B791A06C2E70622F7E71A46F5E70122F2
:102CE000F3E70222F1E70422EFE70522EDE700BF58
:102CF000C0CF6A00809FD5004CD501000024F400AD
:102D000080D5430280F0FA02000100460202020070
:102D10000001004480A812010051250280F9370308
:102D200000A24A0414D5010030B4C0F30323013BD0
:102D30000E2B55D8DFE803F04C205454504742087E
:102D400032383C28542E2400C0F3043327484FF473
:102D50008075274AD2F84441E40704D5184480001E
:102D600030BC01607047D2F840412C42F6D0D2F816
:102D700040412C42F7D1F1E7C0F304331D48EDE7A1
:102D8000C0F304331C48E9E7C0F3043381F00101C8
:102D90001A48E3E7C0F304331948DFE7C0F304330C
:102DA0004FF480351748D4E7C0F304331648D5E70D
:102DB000C0F3043381F001011448CFE7C0F30433BA
:102DC00010251348C5E7C0F3043301251148C0E7B7
:102DD000C0F304331048C1E7C0F304330F48BDE724
:102DE00041F239410E4830BCFFF7D2BD6007F21006
:102DF00000400E400006F210800FF210200BF2107F
:102E00002006F2108007F210800AF210000BF21078
:102E10004007F2100007F2100000F2108005F210D7
:102E20004CD5010008B5C0F30313013B0B2B78D838
:102E3000DFE803F00C121822282E343A51626B0698
:102E40006D4BD3F80401C0F3082008BD6A4BD3F8DA
:102E50000001C0F3042008BD674BD3F81401C0F390
:102E6000042008BD644BD3F80001C0F30160431C8B
:102E700001209840013808BD5F4BD3F80C01C0F326
:102E8000082008BD5C4BD3F81801C0F3082008BD2A
:102E9000594BD3F81C01C0F3082008BD564BD3F89A
:102EA0000801C0F3082008BD544B984200F0898007
:102EB0003ED8A3F5BA23984200F0958003F570330D
:102EC00098423ED14C4BD3F82031012003F00F0340
:102ED0009840013808BD4A4B984257D003F5A113DA
:102EE00098423CD0474B984259D041F20161464844
:102EF000FFF74EFD002008BD444B98423FD13E4BAA
:102F0000D3F8300100F0030008BD414B984230D0A7
:102F1000404B98421CD1384BD3F85C01C0F30140C0
:102F200008BD41F235613848FFF732FD002008BD89
:102F3000394B98424ED0394B984239D0384B984251
:102F400048D041F2DD513048FFF722FD002008BD96
:102F500041F228612C48FFF71BFD002008BD264BDD
:102F6000D3F82801C0F30130031D01209840013837
:102F700008BD214BD3F85C0100F0030008BD41F20D
:102F800010612148FFF704FD002008BD1A4BD3F85B
:102F900028310120C3F301139840013808BD164BB6
:102FA000D3F82831012003F003039840013808BD0D
:102FB000114BD3F820310120C3F30123984001388D
:102FC00008BD0D4BD3F820310120C3F30313984003
:102FD000013808BD084BD3F820310120C3F3023378
:102FE0009840013808BD044BD3F820310120C3F3C9
:102FF00003439840013808BD00400E408016180079
:1030000090171C0090071A004CD50100A00914006D
:10301000B8003200B900340000362C0080262E00A3
:1030200080002A00F8B5C0F303156B1E0C460B2B6D
:1030300000F21D82DFE813F01C00BF00CC00DF00AF
:10304000C00109011901EF00E501D001F9010C00EF
:10305000B1F5007F80F02A82C44AD2F8043123F40B
:10306000FF3323F4807343EA0424C2F80441F8BD1B
:103070001F2900F21C834FF0804741F671333E6CEC
:103080003B64FDF747FABA4B7A68984240F28F8466
:10309000B84B984240F29A84B74B984240F29A84D7
:1030A000B64B984240F29A8440F69A61B448FFF7D2
:1030B0006FFC4FF040724FF080414B6823F040733B
:1030C00013434B600EB100230B64AE4BA74E01229D
:1030D0001A60D6F8003123F0407343F08073C6F8CD
:1030E000003100F075FDD6F8003123F4F85343EABF
:1030F0000424C6F80041FDF7C5F9A34B1B6806463A
:10310000580640F1C982A14A4FF0804354681F6CB1
:1031100041F671321A64C4F301445B68002C00F07C
:103120008882022C00F0348240F69A619448FFF7BE
:103130002FFC4FF040724FF0804095494368954D09
:1031400023F040731343022C0CBF0A462A469642D2
:10315000436040F29381904B904A914911609E42A6
:1031600040F28F81002C40F08C814FF08C434FF463
:1031700080521A601FB14FF0804300221A64FDF79D
:10318000CDF9884B984240F25182874B01249842F6
:103190008CBF4FF000734FF080737A49734A0C6014
:1031A000D2F8000120F040701843C2F80001BDE8D9
:1031B000F84000F099BC1F2900F28A816B4AD2F8CE
:1031C000143123F4F85343EA0424C2F81441F8BD3F
:1031D0004B1EB3F5004F80F075816449D1F8003182
:1031E000B4FA84F4C4F11F0223F0407444EA026488
:1031F000C1F80041F8BDB1F5007F80F05D815B4A08
:10320000D2F80C3123F4FF3323F4807343EA04240F
:10321000C2F80C41F8BD654B984200F0D08200F234
:103220006881634B984200F07683624B984200F0CD
:103230004783A3F57033984200F0ED8241F212719A
:103240004F48BDE8F840FFF7A3BBB1F5007F80F021
:103250002781464AD2F81C3123F4FF3323F48073CC
:1032600043EA0424C2F81C41F8BDB1F5007F80F0A8
:1032700018824FF0804641F67133356C3364FDF7A8
:1032800049F93B4B7268984240F29983394B984216
:1032900040F29E83384B984240F29E83374B9842CF
:1032A00040F29E8340F69A613548FFF771FB4FF07C
:1032B00040724FF080414B6823F0407313434B60E2
:1032C0000DB100230B64294AD2F8083123F4FF33EF
:1032D00023F4807343EA0424C2F80841FDF7D2F8CE
:1032E000294B1B685906054640F1F880274A4FF0E4
:1032F000804354681E6C41F671321A64C4F3014471
:103300005B68002C00F0A681022C00F02B8140F6B7
:103310009A611B48FFF73CFB4FF040724FF0804032
:103320001B4943681B4F23F040731343022C0CBF0F
:103330000A463A469542436040F2A980164B174A26
:10334000174911609D4240F2A580002C40F0A280F8
:103350004FF08C434FF480521A60002E3FF487AE3A
:103360004FF0804300221A64F8BD00BF00400E40B9
:1033700080A812010051250280F9370300A24A04F7
:103380004CD501004000C8433C300E4000300E4098
:103390000024F40080D5430280F0FA0200010046C8
:1033A000020202000048E8010090D00380161800D5
:1033B000A009140080061600B1F5007F80F093800C
:1033C000C14AD2F8183123F4FF3323F4807343EA5F
:1033D0000424C2F81841F8BDBC4B984240F06D81FE
:1033E000022900F21D81B84BD3F84421D10735D50D
:1033F000B54AD2F8303123F003031C43C2F8304100
:10340000F8BDB34B984200F0B18103F5A113984287
:1034100000F0D980AF4B984200F0808141F24871B2
:10342000AD48BDE8F840FFF7B3BAAC4B984200F0A6
:103430002381AB4B984240F08E80032904D941F29E
:103440007571A548FFF7A4FA9F4AD2F85C3123F4BE
:10345000403343EA0444C2F85C41F8BDD3F840214C
:103460005203C5D5D3F840215203F7D4C0E741F247
:103470008A719948BDE8F840FFF78ABA994B9A4A91
:103480001A604FF088434FF480521A6072E6954BF1
:10349000954A1A604FF088434FF480521A605CE7F7
:1034A00041F28F618C48FFF773FAD2E641F28371E3
:1034B0008948FFF76DFACFE54FF4B4518648FFF71E
:1034C00067FA9CE640F6C2218848FFF761FA84E675
:1034D00041F273618048FFF75BFA6FE6844A136834
:1034E000002BFCD102E741F287617B48FFF750FADD
:1034F00066E7804B984207D07F4B984200F0B78137
:103500007E4B98427FF49AAEB4F5004F00F2818270
:1035100000F08482651CB5FA85F5C5F11F051F2DE5
:1035200000F282820123AB40013B9C4204D040F672
:10353000B5316E48FFF72CFA634BD3F84421D4071A
:103540003CD5614AD2F8203123F4E04343EA053503
:10355000C2F82051F8BD41F27B715F48BDE8F840E8
:10356000FFF716BA664B9D4240F2B282654B9D4210
:1035700040F2B28203F5B70303F558639D423FF66C
:10358000C6AE0622604B03EBC2035B791A06C5E6A2
:103590005B4B9E4240F29A825A4B9E4240F29A8284
:1035A00003F5B70303F558639E423FF6BDAD06250C
:1035B000554B03EBC5056B791A06BCE5D3F84021E2
:1035C0005007FBD4BDE7A1F10F03702B00F2D181AE
:1035D000651CB5FA85F5C5F11F061F2E00F2BD81E9
:1035E0000123B340013B9C4204D040F6B5313F4833
:1035F000FFF7CEF9344BD3F84421D407C5F11B05AE
:1036000009D5314AD2F8283123F4405343EA05352D
:10361000C2F82851F8BDD3F840215006FBD4F0E79A
:1036200041F252712C48FFF7B3F9DCE600231C4647
:10363000B3E5364B9E4240F24182354B9E42B7D9AC
:10364000344B9E4240F23C82334B9E423FF66CAD7F
:103650000325ADE72D4B9D4240F22E822C4B9D421F
:1036600040F232822B4B9D4240F22C822A4B9D42EB
:103670003FF64DAE032285E7032904D941F26D716F
:103680001548FFF785F9104AD2F85C3123F003039F
:103690001C43C2F85C41F8BD154A1368002BFCD1ED
:1036A00031E541F296610C48FFF772F9E1E541F22C
:1036B0005D610948FFF76CF9DDE441F2627106488B
:1036C000BDE8F840FFF764B900400E40A0091400BF
:1036D00090171C0090071A004CD50100B80032006A
:1036E000B9003400000100440202020048D4010085
:1036F000C800C64300362C0080262E0080002A0019
:10370000C0CF6A00809FD50014D5010080A81201A7
:103710000051250280F9370300A24A04082900F26B
:103720003781651CB5FA85F5C5F11F051F2D00F21F
:10373000FF800123AB40013B9C4204D040F6B531F1
:10374000C848FFF725F9C84BD3F84421D10708D55D
:10375000C54AD2F8283123F003031D43C2F828518B
:10376000F8BDD3F840215206FBD4F1E7082900F256
:10377000E580651CB5FA85F5C5F11F051F2D00F222
:10378000F2800123AB40013B9C4204D040F6B531AE
:10379000B448FFF7FDF8B44BD3F84421D70709D557
:1037A000B14AD2F8283123F0300343EA0515C2F8B4
:1037B0002851F8BDD3F840215606FBD4F0E7B1F507
:1037C000004F00F2378100F03A81651CB5FA85F5AB
:1037D000C5F11F051F2D00F238810123AB40013BCD
:1037E0009C4204D040F6B5319E48FFF7D1F89E4B7D
:1037F000D3F84421D10709D59B4AD2F8203123F0D0
:10380000F00343EA0515C2F82051F8BDD3F8402172
:103810005207FBD4F0E7B1F5004F00F2428100F00F
:103820004581651CB5FA85F5C5F11F051F2D00F210
:10383000EA800123AB40013B9C4204D040F6B53105
:103840008848FFF7A5F8884BD3F84421D20709D55B
:10385000854AD2F8203123F4702343EA0545C2F8A3
:103860002051F8BDD3F840215707FBD4F0E70829D1
:1038700000F20281651CB5FA85F5C5F11F051F2D03
:1038800000F2E9800123AB40013B9C4204D040F6AA
:10389000B5317448FFF77CF8734BD3F84421D70750
:1038A00009D5714AD2F8203123F4407343EA052543
:1038B000C2F82051F8BDD3F840215607FBD4F0E7F9
:1038C000B1F5004F00F28E8000F09180651CB5FAD2
:1038D00085F5C5F11F051F2D00F2DD800123AB40EA
:1038E000013B9C4204D040F6B5315E48FFF750F8EA
:1038F0005D4BD3F84421D40708D55B4AD2F8203178
:1039000023F00F031D43C2F82051F8BDD3F8402126
:103910005007FBD4F1E702296FD8534BD3F8442169
:10392000D6073FF565ADD3F840215503FBD45FE5DD
:103930004FF496714D48FFF72BF8FAE641F22A71E1
:103940004B48FFF725F8B4F5004FFFF412AF40F6EF
:10395000AF314448FFF71CF80BE74FF4967143482A
:10396000FFF716F83CE64FF496714048FFF710F861
:1039700007E741F239713E48FFF70AF8B4F5004F06
:10398000FFF426AE40F6AF313648FFF701F81FE6E8
:1039900041F21B713648FEF7FBFFB4F5004FFFF410
:1039A000C0AE40F6AF312F48FEF7F2FFB9E6002275
:1039B000304B03EBC2035B791A06FFF77CBB002296
:1039C0002C4B03EBC2035B791A0672E42A46EFE73D
:1039D0000122F5E70222EBE70222F1E70322E7E703
:1039E0000322EDE741F2D6612148FEF7D1FF40F610
:1039F000AF311C48FEF7CCFF68E741F2B9611C48C3
:103A0000FEF7C6FF89E74FF496711848FEF7C0FF2E
:103A10000FE741F204711648FEF7BAFF40F6AF31E6
:103A20001048FEF7B5FF75E54FF496710F48FEF7A5
:103A3000AFFF77E541F2E5610D48FEF7A9FF40F6DB
:103A4000AF310848FEF7A4FFBFE64FF49671074870
:103A5000FEF79EFFC1E64FF496710448FEF798FF0B
:103A600010E700BF48D4010000400E40ACD4010074
:103A70004CD5010014D5010041F2F4611748FEF75E
:103A800087FFB4F5004FFFF4F5AE40F6AF311448B0
:103A9000FEF77EFFEEE64FF496711248FEF778FFD0
:103AA0001CE741F2A8610D48FEF772FF40F6AF3106
:103AB0000B48FEF76DFFB4E6224663E5254677E541
:103AC000022575E502225DE501225BE504256FE52F
:103AD000042257E505256BE5052253E54CD5010089
:103AE00048D40100ACD4010070B5FCF717FD2A4B97
:103AF0001B685B064AD5294B5B68C3F30143022B65
:103B00002DD0274B274A284D284ED5F80C41034489
:103B1000A2FB03231B0E1CBF03F1FF331B02344027
:103B20001C43C5F80C41D5F81C11214A214C3140E9
:103B300002440B43A4FB02121B49C5F81C31D1F807
:103B40001831920E18BF02F1FF3223F4FF3318BF71
:103B5000120223F480731A43C1F8182170BD164C69
:103B6000164B0444A3FB0434E40D18BF04F1FF34E6
:103B700021461348FFF756FA21461248FFF752FA3A
:103B800021461148BDE87040FFF74CBA0F4A136850
:103B9000002BFCD1AFE700BF3C300E4000300E40A0
:103BA0007FF0FA02893BE65500400E40FF00FEFF21
:103BB000FFA14A04B5FA9BEEFF2C31016BCA5F6B83
:103BC000404105005041070060410900C800C6435C
:103BD0000B4B0C48D3F80C11014041F44071C3F871
:103BE0000C11D3F81811014041F44071C3F81811B9
:103BF000D3F81C21024042F44072C3F81C217047E4
:103C000000400E40FF00FEFF08B500F00F00013835
:103C10000B2800F28D80DFE800F013212F3B434B8F
:103C20008B557A637106524BD3F8F03103F00703DA
:103C3000052B00F29A80DFE803F0868496908C884A
:103C40004B4BD3F8943003F00703023B052B00F2F3
:103C50008480DFE803F0767A7E867884444BD3F85C
:103C6000800000F00700022805D0042867D0012852
:103C70000CBF0320012008BD3D4BD3F8843003F076
:103C80000703013B032B70D8DFE803F05F6365593E
:103C9000374BD3F88C0000F007000228E5D108BDAF
:103CA000334BD3F8880000F007000228DDD108BDAF
:103CB0002F4B1B6F13F0030327D0012B0CBF0920E0
:103CC000012008BD2A4BD3F85C3103F03003202BD0
:103CD00037D0302B3BD0102B0CBF0720012008BD64
:103CE000234BD3F8603103F00303022B0DD0032BD9
:103CF00029D0012B0CBF0420052008BD1C4BD3F894
:103D0000643103F00303022BF1D1072008BD184BE7
:103D1000D3F85C3103F44013B3F5001F11D0B3F5B1
:103D2000401F14D0B3F5801F0CBF0720012008BD31
:103D300041F689110F48FEF72BFE002008BD0C202C
:103D400008BD042008BD0A2008BD032008BD0820C6
:103D500008BD022008BD062008BD052008BD0E20B4
:103D600008BD0D2008BD0B2008BD012008BD00BF07
:103D700000400E404CD5010038B500F47813B3F57F
:103D8000D01F00F080811CD9B3F5381F00F00981E5
:103D900036D9B3F5581F00F083815DD9B3F5681F9C
:103DA00000F0C681B3F5781F00F0CB80B3F5601F3B
:103DB00000F0FF8141F26951C548FEF7E9FD00209E
:103DC00038BDB3F5402F00F0A8812DD8B3F5802F72
:103DD00000F0DC806DD9B3F5002F00F0DA81B3F587
:103DE000202F7AD0B3F5C02FE4D1FCF797FBB94B65
:103DF000D3F81831C3F308230133B0FBF3F038BD17
:103E0000B3F5001F7ED03FD9B3F5201F00F0CC8161
:103E1000B3F5281F00F08880B3F5101FCAD1AE4853
:103E2000BDE83840FEF7B6BDB3F5901F60D037D976
:103E3000B3F5B01F00F01A81B3F5C01F67D0B3F51A
:103E4000A01FB7D1A448FEF7A5FDA24BD3F830318F
:103E500003F00303D84038BDB3F5481F00F0D98004
:103E6000B3F5501F78D0B3F5401FA3D19B48FEF7A0
:103E700091FD984BD3F82831C3F301331A1D012368
:103E80009340B0FBF3F038BDB3F5E01F00F0938032
:103E9000B3F5F01F8ED19248BDE83840FEF77ABDE9
:103EA000B3F5602F64D0B3F5801F83D18D4B1868B4
:103EB00038BD73B1B3F5003F7FF47CAFFCF72EFB48
:103EC000844BD3F80831C3F308230133B0FBF3F07C
:103ED00038BDBDE83840FCF721BBFCF71FFB7D4B2C
:103EE000D3F80431C3F308230133B0FBF3F038BD3A
:103EF0007B48FEF74FFD774BD3F82031C3F30343E4
:103F0000D84038BD7548BDE83840FEF743BD744819
:103F1000FEF740FD6F4BD3F820210123C2F30312BB
:103F20009340B0FBF3F038BD6D48FEF733FD694BAD
:103F3000D3F820210123C2F302329340B0FBF3F007
:103F400038BD0546FCF7EAFA04462846FEF76AFF44
:103F50000130B4FBF0F038BD6348FFF755FE01387F
:103F600007284FD8DFE800F0344E4E4B4E4E483E07
:103F70005E48FFF749FE072898D00928A9D040F6E7
:103F80005C515348FEF704FD002038BDFCF7C6FA2B
:103F9000504BD3F80C31C3F308230133B0FBF3F0DB
:103FA00038BD4F48FEF7F6FC4A4BD3F82031C3F337
:103FB0000123D84038BD4948FEF7ECFC454BD3F807
:103FC00028210123C2F301129340B0FBF3F038BD66
:103FD0000020404BD3F85C31C3F301430133B0FB05
:103FE000F3F038BDFCF79AFA3A4BD3F80031C3F33B
:103FF000042303FB0000ECE73A4B1868E9E7FCF701
:10400000C9FAE6E7324840F69351FEF7C1FC0020BA
:10401000DFE73748FFF7F8FD013807281FD8DFE84A
:1040200000F0041E1E1B1E1E180E0020294BD3F884
:104030005C3103F003030133B0FBF3F038BDFCF750
:104040006DFA244BD3F80031C3F3042303FB0000C3
:10405000ECE7244B1868E9E7FCF79CFAE6E71C4814
:1040600040F69351FEF794FC0020DFE71C48FEF772
:1040700091FC184BD3F82021012302F00F0293404A
:10408000B0FBF3F038BD1548FEF784FC114BD3F8B4
:104090002821012302F003029340B0FBF3F038BD66
:1040A0001448FFF7B1FD043806282FD801A353F8B0
:1040B00020F000BF05410000FF4000000D4100005E
:1040C000AD3E00000D4100000D410000F940000030
:1040D0004CD5010000400E400500240003002000E4
:1040E00002001E0010000020B900340006000E007F
:1040F000B80032000A7B36003D4B186838BD3D4B96
:10410000186838BDBDE83840FCF744BA40F6BD51E8
:104110003948FEF73DFC002038BDFCF7FFF9374B6E
:10412000D3F81431C3F304230133B0FBF3F038BDEB
:104130003348FFF769FD0238092823D801A353F853
:1041400020F000BF7D4100007541000005410000E6
:10415000FF400000854100008541000085410000CE
:1041600085410000F94000006D410000FCF712FAA3
:10417000400038BDBDE83840FCF720BABDE8384003
:10418000FCF724BA40F646611B48FEF701FC00200C
:1041900038BDFCF7C3F9194BD3F81C31C3F308231E
:1041A0000133B0FBF3F038BD1648BDE83840FEF7E8
:1041B000F1BB1548FFF728FD0438062810D801A3E5
:1041C00053F820F005410000FF400000E1410000ED
:1041D000AD3E0000E1410000E1410000F940000077
:1041E00040F6EF510448FEF7D3FB002038BD00BF76
:1041F00014000020080000204CD5010000400E40B3
:104200000C7F3A00040022000B7C38002DE9F843B3
:10421000C24B9842054600F0BD8128D9C04B984258
:1042200000F0BC8111D9BF4B984200F08D8003F59E
:10423000F40303F59053984200F0A881BA4B9842DA
:1042400026D1BA4BD3F8B86081E0B94B984200F060
:104250008280B84B984200F0B481A3F53703A3F5F0
:10426000D853984214D1B14BD3F8A8606FE0B24B49
:10427000984200F09E8140F29581B04B98426ED0FA
:10428000AF4B984200F09981AE4B984200F04181CB
:10429000002641F61A61AC48FEF77AFBDFF8E882A7
:1042A000AA4BD8F80070C8F80050D3F8943003F047
:1042B0000703023B052B00F29380A54B1C68002CE2
:1042C000FCD1721C00F0BC80A24B9D4273D09A4B73
:1042D0009D426DD0A04B9D4251D09C4BD3F8943061
:1042E00003F00703023B052B6AD8BD423DD8974B2C
:1042F0001E61D3F8943003F00703023B052B00F254
:10430000A580FCF70BF98A4B98422CD9854B0124E8
:1043100098428CBF4FF000734FF080738F498B4AE7
:104320000C60D2F8000120F040701843BD42C2F882
:1043300000011FD9854BD3F8943003F00703023BEB
:10434000052B49D8BDE8F883784BD3F8BC60731EC1
:104350000333A3D99DE7754BD3F8AC60F7E7734BF4
:10436000D3F89860F3E70023D8E70121284601F04D
:104370009BF8BCE70121002001F096F8DAE726F06F
:10438000C06646F08066714BD3F8943003F00703A3
:10439000023B052BA9D900200146704B6B4A1860DF
:1043A000D2F8003123F040730B43C2F800319CE790
:1043B00026F0C066E7E726F0C06646F00076E2E742
:1043C0005B4B9D42E7D9574901208D428CBF4FF08E
:1043D00000714FF08071E0E7BDE8F843FFF784BB60
:1043E0004FF0804941F67133D9F84040C9F8403068
:1043F000FCF790F85A4BD9F80420984240F21B8100
:10440000584B984240F22081574B984240F21A8113
:10441000564B984240F21A8140F69A614A48FEF79C
:10442000B7FA4FF040724FF080414B6823F0407371
:1044300013434B600CB100230B64FFF7C9FB3CE74F
:1044400041F62B614048FEF7A3FA3DE7FCF71AF866
:1044500085420646C0F0DA80D8F80030B342C0F09A
:10446000CD809D4204D041F659613748FEF790FA5D
:104470003F4B1B685B0640F1BC803E4A4FF08043D7
:104480005168D3F8409041F671321A64C1F3014883
:104490005B68B8F1000F00F09880B8F1020F00F0EF
:1044A000BB8040F69A612848FEF772FA4FF04072DE
:1044B0004FF0804022494368DFF878C023F0407312
:1044C0001343B8F1020F0CBF0A466246964243609E
:1044D00016D9294B294A2A4911609E4213D9B8F1AD
:1044E000000F10D14FF08C434FF480521A60B9F195
:1044F000000F3FF406AF4FF0804300221A6400E73C
:10450000204B1F4A1A604FF088434FF480521A60C4
:10451000EDE7064BD3F88C6019E700BFC0EA210134
:10452000006CDC020090D003007E5603B081E00FE7
:104530000048E80180D5430200093D00405DC60007
:104540000024F400C0CF6A004CD5010000400E40AA
:104550006028C84380841E0040420F004000C843CA
:1045600080A812010051250280F9370300A24A04F5
:104570003C300E4000300E4080F0FA020001004650
:10458000020202000001004408000020354BD3F86D
:10459000C060DCE6334BD3F8A060D8E6314BD3F8EB
:1045A000B460D4E6304B984203D0304B98427FF44D
:1045B0006FAE2C4BD3F88060C9E62A4BD3F89C60D1
:1045C000C5E6284BD3F8B060C1E6294B9E4241D9DD
:1045D000284B9E423CD9284B9E423DD9274B9E42B8
:1045E0003FF65FAF0322264B03EBC2035B791A064B
:1045F0005EE7244A1368002BFCD13EE741F6586180
:104600002148FEF7C5F9D8F800302AE741F657618E
:104610001D48FEF7BDF91FE71C4B9E4220D91C4BDD
:104620009E421BD903F5B70303F558639E423FF63C
:1046300038AF0622D7E70022114B03EBC2035B79A8
:104640001A06F0E60222F7E70122F5E70322F3E774
:104650000122C8E74246C6E70222C4E70522C2E7B4
:104660000422C0E7B081E00F40420F0080841E00AA
:1046700080A812010051250280F9370300A24A04E4
:1046800014D50100C800C6434CD50100C0CF6A0054
:10469000809FD500F0B583B005460F46052872D837
:1046A000DFE800F003182060656A4C4E4C494FF477
:1046B00000704FF480749FB94A490866D1F8903071
:1046C0002342FBD122B1474AD2F890300342FBD1BA
:1046D00003B0F0BD444E454980204024002FEBD06C
:1046E00000270BE0002976D03E4B5B6AC3F3011331
:1046F000012B50D03E4E3F4904240027394B1C6605
:104700000B68002BFCD0002AE2D03368002BFCD0D1
:10471000022DDDD1002FDBD0324B5A6A02F00302AA
:10472000032A04D05A6AD3F890205002FBD542F2F3
:104730001A113148FEF72CF92A4A08231366D2F8D9
:1047400090305907FBD4274DD5F890301B07FBD488
:1047500042F291112848FEF71BF92C663368002BB2
:10476000FCD0B5E7254E264902200124A3E7254EBB
:104770002549202010249EE7244E25494FF400604F
:104780004FF4806497E71C4842F28E0103B0BDE805
:10479000F040FEF7FDB81F4BDB6B5C0513D51148ED
:1047A000436A03F00303032B03D0114E1149042481
:1047B000A4E7436A0E4E0F4923F0300343F0200371
:1047C000436204249AE742F29D010B480192FEF7EE
:1047D000DFF8019AE3E7042408206DE72412C843B8
:1047E0002012C84300400E401C12C8431812C84390
:1047F0000C12C8430812C8434CD501000412C84328
:104800000012C8431412C8431012C8432C12C843E4
:104810002812C84300300E40F8B511280C4613D0BA
:1048200000F00F0001380B2800F2E180DFE810F003
:1048300011002F00B8008F00BA003F00DF007300A6
:104840008100490056006300042900F0DE8005293C
:1048500013D00025023C0C2C00F24683DFE814F054
:10486000BD02C002FA021303440344034403440399
:104870001B02440309031003BB029A4A9A4B1568B2
:104880009D42E6D90021284600F00EFEE2E7062907
:1048900000F06983954D013C0B2C00F2AF80DFE8FE
:1048A00004F0A49689ADAD63ADADADADAD8607297D
:1048B00000F02D83092940F0B2808D4B01221A6748
:1048C000F8BD0C1F062C00F2FA82DFE814F0DE00BF
:1048D000ED00F802D100F802F80267010C1F062C67
:1048E00000F2E682DFE814F04B013E01E4022A0107
:1048F000E402E402EF008C1E092C00F2EE82DFE8F5
:1049000014F07301BD01A901B001EC02EC02EC024C
:10491000EC029B0181014C1E072C00F2C282DFE8F1
:1049200014F05901C002C0021A01C002C0029A006C
:1049300090004C1E072C00F2C982DFE814F0C20080
:10494000C702C7024D01C702C7023D017700062911
:10495000684DA0D1684841F69621FEF719F841F656
:104960009E216548FEF714F8FBF7D8FD634B98428B
:1049700052D9634B012198428CBF4FF000704FF029
:104980008070604B5A4A1960D2F800315E4923F0BA
:10499000407303430120C2F800310323086007E09D
:1049A0005A4D78E706295A4D7FF475AFD7E70423AF
:1049B0002B60F8BD4E4B574A402119661368002BF7
:1049C000FCD0554A1368002BFCD00123F0E7484B7C
:1049D000524A4FF4807119661368002BFCD0504A7C
:1049E0001368002BFCD00223E2E70023E0E741F646
:1049F00088414148BDE8F840FDF7CABF41F6C921EA
:104A00003D48BDE8F840FDF7C3BFFBF7C3FD0546D1
:104A100000283FF41EAF35E700200146B1E741F61C
:104A200053313548BDE8F840FDF7B2BF4FF44011AF
:104A30002F4AD2F85C3123F440130B43C2F85C31A7
:104A4000F8BD30212A4AD2F85C3123F030030B4301
:104A5000C2F85C31F8BD264B324A10211966136842
:104A6000002BFCD0304A1368002BFCD01021E9E762
:104A70001F4B2C4A102119661368002BFCD02A4AC0
:104A80001368002BFCD0022105E001221146022010
:104A9000FFF700FE0121164AD2F8603123F003032C
:104AA0000B43C2F86031F8BD114B204A0121196651
:104AB0001368002BFCD01E4A1368002BFCD0002189
:104AC000E9E70021B4E70A4B1A4A4FF480611966FE
:104AD0001368002BFCD0184A1368002BFCD003216C
:104AE00053E000BF08000020002D310180400E403F
:104AF00000400E408C400E404CD501000048E801BB
:104B00000090D0034000C8430016C84384400E40C4
:104B100088400E401812C8431C12C8432012C843D4
:104B20002412C8431012C8431412C8430012C843C9
:104B30000412C8432812C8432C12C843AA4BAB4ADC
:104B4000102119661368002BFCD0A94A1368002BAA
:104B5000FCD0022119E0012211460220FFF79AFD44
:104B600020216FE7A04BA34A012119661368002B8F
:104B7000FCD0A14A1368002BFCD0002105E00122E3
:104B800011460220FFF786FD0121974AD2F86431D1
:104B900023F003030B43C2F86431F8BD924B974AEC
:104BA0004FF4806119661368002BFCD0944A136897
:104BB000002BFCD003216EE78B4B8C4A1021196629
:104BC0001368002BFCD08A4A1368002BFCD04FF4EA
:104BD00080112DE7002135E7012211460220FFF761
:104BE00059FD4FF4001123E77F4B864A4FF4807143
:104BF00019661368002BFCD0834A1368002BFCD085
:104C0000042110E0FBF7C6FC804B984200F2C481FF
:104C100075494B6A012243F008034B62022011469A
:104C2000FFF738FD0221704AD2F8F03123F0070374
:104C30000B43C2F8F031F8BD6B4B704A4FF4806102
:104C400019661368002BFCD06D4A1368002BFCD04A
:104C50000021E8E7012211460220FFF71BFD012198
:104C6000E1E7614B634A012119661368002BFCD010
:104C7000614A1368002BFCD00321D4E75A4B644AE5
:104C8000402119661368002BFCD0624A1368002B80
:104C9000FCD00521C7E70520062401221146FFF7B5
:104CA000F9FC4FF0804741F671333E6C3B64FBF7F3
:104CB00031FC594B7A68984240F26181574B9842D7
:104CC00040F26481564B984240F26281554B9842C3
:104CD00040F2608140F69A615348FDF759FE4FF06B
:104CE00040724FF080414B6823F0407313434B6098
:104CF0000EB100230B64FEF76BFF25B14B4B1B6815
:104D00005A0640F13781384B5C67FBF7BBFB064620
:104D1000FBF704FC464B984240F2F680454B0124D9
:104D200098428CBF4FF000734FF0807342492E4A77
:104D30000C60D2F800013D4920F040701843C2F8E1
:104D400000010B685B0640F1FA803C4A4FF080435B
:104D500054681F6C41F671321A64C4F301445B68F5
:104D6000002C00F0D880022C00F0EE8040F69A6112
:104D70002D48FDF70DFE4FF040724FF08040304956
:104D80004368DFF8CCC023F040731343022C0CBF00
:104D90000A4662469642436040F2AD80294B2A4A59
:104DA0002A4911609E4240F2A980002C40F0A68062
:104DB0004FF08C434FF480521A601FB14FF0804384
:104DC00000221A641DB92846012100F06DFBBDE8E0
:104DD000F840FEF789BE072463E7002004245CE75F
:104DE0000120032459E700BF00400E401012C843C1
:104DF0001412C8430012C8430412C8432812C843FF
:104E00002C12C8432012C8432412C84340787D01A5
:104E10001812C8431C12C84380A812010051250271
:104E200080F9370300A24A044CD501003C300E4003
:104E30000048E8010090D0034000C84300300E4015
:104E40000024F40080F0FA02000100460202020091
:104E500080D54302584B594A01211960D2F80031DC
:104E600023F0407343F080730220C2F800310446FF
:104E700013E741F64A215248BDE8F840FDF788BDE6
:104E80000320052409E74C4B4C4A01241C60D2F84E
:104E9000003123F0407343F08073C2F800310320E7
:104EA000FBE641F6B1314648BDE8F840FDF770BD7C
:104EB00041F622414248BDE8F840FDF769BD41F6A0
:104EC000FB313F48BDE8F840FDF762BD41F6D43103
:104ED0003B48BDE8F840FDF75BBD41F65C41384812
:104EE000BDE8F840FDF754BD41F64F213448BDE818
:104EF000F840FDF74DBD334B334A1A604FF08843FD
:104F00004FF480521A6058E700231C460EE72B4BE3
:104F100000221A67F8BD2D4B9E4243D92C4B9E426E
:104F200044D92C4B9E423FD92B4B9E423FF61EAF9D
:104F300003222A4B03EBC2035B791A061DE7284ABA
:104F40001368002BFCD100E7264B9E4232D9264B3A
:104F50009E422DD903F5B70303F558639E423FF6F1
:104F600005AF0622E5E741F68E2115481F4DFDF7F6
:104F70000FFDEFE41A4A1368002BFCD1C3E60022B0
:104F8000164B03EBC2035B791A06AAE60122F7E788
:104F90000222F5E70322F3E741F63D410848FDF719
:104FA000F7FC35E62246C4E70222C2E70122C0E749
:104FB0000522BEE70422BCE74000C84300400E4083
:104FC0004CD50100000100440202020080A8120139
:104FD0000051250280F9370300A24A0414D50100CC
:104FE000C800C643C0CF6A00809FD50080400E40F5
:104FF000EFF3108072B6704700B962B6704700BF19
:10500000EFF3108072B6704700B962B6704700BF08
:1050100070B52E4B1B685B0607D42D4B2D491A78B3
:105020001023C2F1020293400B612B4B2B4DD3F89E
:105030008041264945F60E02C3F88021286840F2D7
:10504000555202401A660B685E0604F0010426D52C
:10505000204B1B68D80617D51F4AD2F84031D9011A
:10506000FBD41F4E1F4B31781B68136105291BD0E1
:105070001120FFF7D1FB2B68DB070CD51CB1164BB9
:105080000022C3F8802170BD154E31780529EFD17B
:105090002B68DB07F2D4104B02221A66EEE7124AA5
:1050A0001368002BFCD1D3E7084B104A1B6810682B
:1050B0005A0606D5074B5968C1F30141FDF7ACFD0F
:1050C000E3E7094A1368002BFCD1F3E73C300E40BC
:1050D0004908002000300E4000400E4038080020F3
:1050E0004208002044080020C800C64308000020F1
:1050F000704700BF704700BF10B50446002841D17B
:10510000394B1A6850060FD41B68590662D5374BC5
:1051100019685A68C1F30121C2F3014291421A6829
:105120001FD822F010021A60314A136943F00403B9
:105130001361FFF7DDFF2D4B1B68DA0643D430BF48
:10514000FFF7D8FF002C36D1284B1B68DB060FD4A5
:10515000284A136823F000431360BDE81040FBF7B2
:1051600091B92549254842F010021A600860DBE732
:10517000234B1B69C3F30443082BE9D1214B224A7B
:105180001A60E5E71E4A214BD2F890201A601120E0
:10519000FEF73AFD144B1E4A1B6810705B061ED5C5
:1051A000124B1C485B6816491B4AC3F3014303704A
:1051B0000B691360A4E7FFF72BFF0E4A136823F077
:1051C0000043136010BDFFF713FF18F04DF8FFF711
:1051D00013FFB5E7114A1368002BFCD197E70F4A7C
:1051E0001368002BFCD1DBE73C300E4000300E4052
:1051F00000ED00E04C310E400001004602020200CA
:1052000000400E4008000020C0EA210138080020BC
:10521000420800204908002044080020C800C64376
:1052200010B50446002850D1414B1A6852060FD4DD
:105230001B68580671D53F4B19685A68C1F30121A4
:10524000C2F3014291421A682ED822F010021A606D
:10525000394BD3F880214FF4207145F60E00C3F886
:1052600080011966D10744BF0022C3F88021334A68
:10527000136943F004031361FFF73AFF2D4B1B68DA
:10528000DA0643D430BFFFF735FF002C36D1294B67
:105290001B68DB060FD42A4A136823F0004313600F
:1052A000BDE81040FBF7EEB82649274842F010024F
:1052B0001A600860CCE7204B1B69C3F30443082B3A
:1052C000E9D1224B224A1A60E5E71B4A214BD2F86A
:1052D00090201A601120FEF797FC154B1E4A1B68A0
:1052E000107059061ED5134B1C485B6812491C4AA6
:1052F000C3F3014303700B69136095E7FFF788FE62
:105300000F4A136823F00043136010BDFFF770FECF
:1053100017F0AAFFFFF770FEB5E7124A1368002BDB
:10532000FCD188E70F4A1368002BFCD1DBE700BFF4
:105330003C300E4000300E4000400E4000ED00E0DA
:105340004C310E400001004602020200080000201D
:10535000C0EA210138080020420800204908002046
:1053600044080020C800C64308B50F4A0F4BD2F8C6
:1053700090201A601120FEF747FC0D4B0D4A1B6868
:1053800010705B060AD50C4B0C485B6806490C4A4A
:10539000C3F3014303700B69136008BD094A136826
:1053A000002BFCD1EFE700BF00400E403808002082
:1053B0003C300E404208002000300E4049080020DA
:1053C00044080020C800C64370B52E4B1B685B061E
:1053D00007D42D4B2D491A781023C2F102029340B5
:1053E0000B612B4B2B4DD3F88041264945F60E021D
:1053F000C3F88021286840F2555202401A660B68B3
:105400005E0604F0010426D5204B1B68D80617D58C
:105410001F4AD2F84031D901FBD41F4E1F4B3178BF
:105420001B68136105291BD01120FFF7F5F92B68C4
:10543000DB070CD51CB1164B0022C3F8802170BDD0
:10544000154E31780529EFD12B68DB07F2D4104BCC
:1054500002221A66EEE7124A1368002BFCD1D3E74A
:10546000084B104A1B6810685A0606D5074B596846
:10547000C1F30141FDF7D0FBE3E7094A1368002BB4
:10548000FCD1F3E73C300E404908002000300E40CC
:1054900000400E4038080020420800204408002048
:1054A000C800C643080000203D4B1B685B0634D48F
:1054B00070B50D46002831D03A4B1B7813B13A4BEA
:1054C00098421CD9364B1A68510625D41B685A06D7
:1054D00032D5364C636813F4403F1DD0344BD3F8BB
:1054E0000031FBF71BF8402323611DB12C4B1B68D7
:1054F0005B0645D50021BDE87040FDF78DBB284B0C
:105500001A68560608D41B685C063ED5274B5B68B4
:10551000C3F30143022B14D170BD7047244BD3F861
:105520000041FAF7FBFF1F4B1B78C4F3042404FB74
:105530000000002BC3D1C5E71E4A1368002BFCD125
:10554000C7E71B4BD3F80041FAF7E8FFC4F3042484
:10555000154B04FB00049C4206461BD83046022132
:10556000FDF75AFB114B10221A61002DD4D03C33A9
:105570001B685806D0D40F4A1368002BFCD170BDAD
:105580000C4A1368002BFCD1B4E70A4A1368002BBD
:10559000FCD1BBE740F2E1510748FDF7F9F9DDE73F
:1055A0003C300E4048080020002D310100300E40F4
:1055B00000400E40C800C643B0D5010010B4244AD4
:1055C0004AF6E853546B5363936FDB07FCD4136CB8
:1055D00013F0030322D01F4A0121834211601AD025
:1055E000032B02D1431E012B1FD9194A936FDB07EE
:1055F000FCD4136C164923F00303034313648B6F2D
:1056000013F00103FBD10030124A18BF0120012C16
:10561000106000D14B635DF8044B70470028E1D166
:105620000C4B5DF8044B18607047094A4FF4002397
:10563000D362936FD907FCD4136C054923F003039D
:1056400043F0010313644B6A1A03FCD5CDE700BF96
:1056500000300E40B40AC6432DE9F04F87B0A0F5E4
:10566000E163B3F5966FCDE901213FD8C74AC84B36
:10567000D2F86851DB6CB0F5E16FC3F301790646EF
:105680004FEA092128D1C5F307234FF41672EDB272
:105690004FF496644FF0000B4BEA010140F2011009
:1056A0008142A6EB040400F0D180B1F5817F26D3BE
:1056B00040F20120814200F0C58040F28880B1F5BF
:1056C000407F00F0C78040F20130814240F0CA8044
:1056D000AE49D1F878711DE02B0E4FF49662C5F3F8
:1056E00007454FF4E1644FF0010BD5E7A94840F6B8
:1056F0003F21FDF74DF9002007B0BDE8F08F0129EB
:1057000074D0C0F0BD80B1F5807F40F0AB809F4980
:10571000D1F86C714FEA1768C7F30747A8EB070188
:1057200004FB01F103919A49D1F8EC10C1F3012A6D
:105730004BEA0A2140F20110814200F08F80B1F55E
:10574000817F60D340F20120814277D065D9B1F5E5
:10575000407F00F0A68040F20130814240F094800A
:105760008A49D1F878014FEA106CC0F30740ACEBDE
:10577000000104FB01F1B1FBF2F10144A3EB050EC2
:1057800004FB0EF4B4FBF2F425449D4232D88C4560
:1057900030D388422ED8039BB3FBF2F2174447451F
:1057A00028D8019B73B17A4BDB6D23F4FE4323F0C1
:1057B000020343EA0525B6F5E16F754B18BF45F0C6
:1057C0000205DD65029B002B77D1012094E7B1F53E
:1057D000007F47D16D49D1F87071C7F30728FFB238
:1057E000A8EB070104FB01F103919CE76749D1F89D
:1057F0007471F2E740F68D216648FDF7C9F8002084
:1058000007B0BDE8F08F012953D04ED3B1F5807FAA
:105810003AD15E49D1F86C01A5E7B1F5007F33D1EB
:105820005A49D1F87001C0F3072CC0B2ACEB0001AB
:1058300004FB01F1B1FBF2F101449FE75349D1F8B8
:105840007801F0E75149D1F87871C6E74F49D1F8AE
:1058500074715FE74D49D1F870715BE74B49D1F83E
:10586000740180E740F604114A48CDE90432FDF79F
:105870008FF80023039398461F46DDE9043252E770
:105880004249D1F86C71A8E740F604114148CDE9CE
:105890000432FDF77DF800218C460846DDE904322C
:1058A0006CE73A49D1F870015DE73849D1F86C01ED
:1058B000B9E73649D1F87401B5E7344BB9F1020FB5
:1058C000D3F880314DD0B9F1030F48D0B9F1010FB1
:1058D00014BFDBB2C3F307231B0313F4702F32D1C1
:1058E0002B482A4CC26E22F470421343C366BAF1AD
:1058F000020FD4F8803145D0BAF1030F40D0BAF18D
:10590000010F14BFDBB2C3F307231B0313F4702F83
:105910002AD11F4C0298D4F8EC2022F47042134391
:10592000C4F8EC30636E8F4238BF0F4623F4FF7328
:10593000E72F23F0010328BFE72743EA0B0343EADD
:1059400047076766D8E640F693011248FDF720F84E
:10595000104840F69C21FDF71BF80020CCE61B0EFA
:10596000BAE7C3F30743B7E740F69F010948FDF7DD
:105970000FF8084840F6A421FDF70AF80020BBE61E
:105980001B0EC2E7C3F30743BFE700BFB081E00FC0
:1059900000300E40B0D5010038B53B4B1A6FD96CC2
:1059A000CC0702F007020BD5012A55D9132850D98C
:1059B000143813288CBF4FF47F414FF4EE410CE0B4
:1059C000D96CCD073FD4012A53D9DB6C2F4840F660
:1059D000E221FCF7DDFF6FF0FF012B482C4AC36C7E
:1059E0002C4C23F47F430B43C364C16C1388C26CFB
:1059F000C1F303210131283301EB810503EB53038C
:105A0000B3FBF5F3013B072B22F0EE6228BF07231F
:105A100042F4801242EA0363B4F90020C364002A0E
:105A200010DB036D4C08283204EB410102EB5202FB
:105A300023F07004B2FBF1F3072B28BF072344EADD
:105A40000313036538BDDB6CDC07BFD5012ABDD865
:105A500008E04FF44C51C0E7DA6CD20709D5DB6C93
:105A6000DB07B3D527288CBF4FF47F414FF4EE41BD
:105A7000B3E70928EDD90A3809288CBF4FF47F41D4
:105A80004FF4EE41A9E700BF00300E40B0D5010051
:105A90003E08002040080020F8B50389C82B0446C2
:105AA00000F2C680A2889A4200F2BC80B4F90C30A1
:105AB000C82B00F3B1806378012B00F09380022B98
:105AC0006ED0E38842F21072934200F29A804A2B21
:105AD00005D9B3F5FA7F5AD24FF0805500E0002582
