:100000000000082015EB040041EB040041EB040064
:1000100041EB040041EB040041EB040041EB040020
:1000200041EB040041EB040041EB040041EB040010
:1000300041EB040040EB04007F22000041EB040090
:1000400041EB040041EB0400C5D80400E90B0000BB
:1000500041EB040041EB040041EB040041EB0400E0
:1000600041EB040041EB040041EB040041EB0400D0
:1000700041EB04003D0C000041EB040041EB0400A7
:1000800041EB040041EB040041EB040041EB0400B0
:1000900041EB040041EB040041EB040041EB0400A0
:1000A00041EB040041EB040041EB040041EB040090
:1000B00041EB040041EB040041EB040095210000FA
:1000C00041EB040041EB040041EB040041EB040070
:1000D00041EB040041EB040041EB040031E9040072
:1000E00041EB040041EB040041EB040041EB040050
:1000F00041EB040041EB040041EB040041EB040040
:1001000041EB040041EB040041EB040041EB04002F
:1001100041EB040041EB040041EB040041EB04001F
:1001200041EB040041EB040041EB040041EB04000F
:1001300041EB040041EB040041EB040041EB0400FF
:1001400041EB040041EB040041EB040041EB0400EF
:1001500010B5054C237833B9044B13B10448AFF301
:1001600000800123237010BDE80300200000000080
:100170002C0A0B0008B5034B1BB103490348AFF32E
:10018000008008BD00000000EC0300202C0A0B00DA
:10019000154B002B08BF134B9D46A3F5803A002159
:1001A0008B460F461348144A121A52F0C2FA0F4BEC
:1001B000002B00D098470E4B002B00D09847002012
:1001C000002104000D000D48002802D00C48AFF3B8
:1001D000008052F023FA2000290000F0A5FC52F024
:1001E00049F900BF000008000000082000000000DE
:1001F00000000000E8030020F403022000000000DB
:100200000000000030B585B000238AB243650D467A
:100210006B461149044604F0BDF99DF80030A3B9BE
:100220006B462A460D4904F1300004F09DFB9DF811
:1002300000302BB10A4B0B490B48332252F038FBEC
:1002400001230020636505B030BD054B0749064812
:10025000312252F02DFBE3E744480500A448050095
:100260004C480500B04805007C4805007048050072
:10027000F0B587B002AE002305460F463030009639
:1002800019464FF4004204F09BFC9DF8084094B9D5
:100290002846009639462346224604F0DFFA9DF8A8
:1002A000080030B1054B06490648652252F000FBB4
:1002B000204607B0F0BD4FF0FF30FAE74C4805008C
:1002C000C84805007C4805002DE9F0418CB0054682
:1002D00008A81746884605F023FD04AE00223946DB
:1002E0000446CDE9002628460DF10E0304F0C8F9B6
:1002F0009DF8101089B90746324605F1300004F028
:1003000035FDB8F1000F01D0C8F8007008A805F05D
:1003100007FD001B0CB0BDE8F0814FF0FF300CB0C2
:10032000BDE8F081406D704710B584B0094B0A49B3
:100330000A4800246A461C7003F03CFD9DF800301A
:1003400033B1074B0749084840F2431252F0B0FA64
:1003500004B010BD040400202448050054BE002051
:100360004C480500344805007C48050010B584B0B1
:100370006A460849044603F01DFD9DF80030002B35
:1003800015BF002301234FF0FF300020E36204B0CB
:1003900010BD00BFD048050000B587B002AA0023F9
:1003A000009219461A4603F06BFE07B05DF804FB95
:1003B00000B585B06A46002103F066FF05B05DF820
:1003C00004FB00BF2DE9F0418EB0224D2B78012BAC
:1003D00006460F46904607D91F4B204920484FF448
:1003E000D17252F065FA2B781E4ADFF880E00133B3
:1003F00031460AAEDCB208960026631ECDE90566DA
:1004000042F6E06C40F6B8360CFB032C03963A46F5
:10041000149ECDF804C00B270797142703EB430065
:100420000497F6B24FF4967743460EEB801002978E
:1004300000962C7005F0B8F89DF8283033B1064BC3
:100440000949074840F2B31252F032FA28780EB048
:10045000BDE8F081040400204C480500DC4805009C
:100460007C480500946000200449050080BE0020FF
:1004700000B587B002AA0023009219461A46034825
:1004800003F0FEFD012007B05DF804FB54BE002020
:1004900000B585B06A460021024803F0F5FE05B0BC
:1004A0005DF804FB54BE002000B585B0684605F039
:1004B00037FC05B05DF804FB2DE9F04F87B004462A
:1004C000404DDFF83081DFF830B1DFF830A13E4F2A
:1004D0004FF004090FE0052B5ED0012B08D100235B
:1004E000C4E90133E360204639F0A0FD02232B70FC
:1004F000FA2007F0DDFD2B78DBB2022BEBD1204692
:100500003AF0BCF900284DD1636A9B79042BEFD9EE
:10051000204685F800903AF051F82C4A2C4E10787D
:100520002C4A9AF800309BF800E096F800C0117849
:10053000294E2A4A1B04127843EA0E6396F800E01B
:10054000274E0004090440EA026041EA0C61254A92
:1005500096F800C01278244E41EA0C0C234902435D
:100560000878234943EA0E0396F800E0097843EA45
:100570000E2342EA00204CEA012C00BA19BA9CFA78
:100580008CFC0391049005AB04AA03A92046CDF886
:1005900014C03FF049FCABE720463AF00FF80023C7
:1005A0002B70A5E7D8F804104FF003032B700B0E47
:1005B0000093C1F30722C1F307433846C9B252F092
:1005C00077F995E7050400201C4905001900002073
:1005D000403F0020413F002017000020180000206D
:1005E000433F0020453F0020443F00201A000020E8
:1005F000423F002090C0002015000020160000207F
:10060000034B10B905221A70704701221A70704707
:100610000504002030B58FB00AAA0E4908920023C5
:100620003320162202254FF40074CDE90021CDE9D4
:100630000635CDE90433CDE90204074B074A0849E2
:10064000084804F0B1FF9DF8283003B1FEE70FB071
:1006500030BD00BF0804002090C00020B904000095
:1006600038490500080C00202DE9F04788B0804685
:100670000C46002900F0B2800E46002273893668CD
:100680001A44002EFAD13B2A0ED993060FD10C3210
:10069000314603A84EF082FD002840F0A380DDF82B
:1006A0000CA00AF10C0913E0C2F13C063C2222F036
:1006B0003F024C32002103A84EF070FD002840F0AC
:1006C0009180DDF80CA00AF10C09002C00F0888064
:1006D00000256789616809EB05003A4652F005F884
:1006E00024683D44002CF4D12E44B54250D205F18B
:1006F0000C000AEB00035B4203F00303D91C05293D
:1007000006F1FF3238BF0521521B9142A6EB0504CA
:1007100022D8002B60D00022012B09F8052005F11A
:10072000010708D0032B09F8072005F1020702D1C1
:1007300009F80720EF1CE41A002203445344A008E0
:1007400011460132824243F8041BFAD324F003031A
:100750009C4207EB03051BD06A1C0023B24209F838
:10076000053015D2A91C8E4209F8023010D9EA1CB6
:10077000964209F801300BD9291D8E4209F8023042
:1007800006D90535AE4209F8013088BF09F80530B1
:1007900098F83230154D03996E60A3F16103B3FAF6
:1007A00083F3002404AE5B0922462B722960334692
:1007B00002210F486C7203F047F923462246214676
:1007C00000960C4804F0FCF9214603984EF004FD15
:1007D000204608B0BDE8F0872F46ACE73C2665E729
:1007E000254682E74FF0FF30F3E700BF30030220D9
:1007F000C40002200C0302202DE9F047C478184AF7
:10080000184BC18890F8058014F0060F0CBF914674
:100810009946E9B107464FF4C17200203FF072FDDE
:100820008246A8B108F10808044600256689606878
:1008300008EB05013246394451F057FF246835442E
:10084000002CF3D1D9F8103049465046984708B9E2
:10085000BDE8F0875046BDE8F0473FF0DFBC00BF81
:1008600090C0002058C0002010B5044608B31448BA
:100870001449154AC4E9050147F273436386062308
:1008800084F83030D2F81632C4F82A3092F81A12AE
:1008900094F8313084F82E1092F81B2284F82F201F
:1008A00043F00E0340F2DC5284F831302285002000
:1008B00010BD064B06490748F22251F0F9FFD6E772
:1008C000E5BF030069060000E80002204449050076
:1008D000604905007C48050010B5044608B315487A
:1008E0001549164AC4E9050147F2610363860623E8
:1008F00084F83030D2F81C32C4F82A3092F8201232
:1009000094F8313084F82E1092F8212284F82F20A8
:1009100043F00E0340F2DC5284F83130228500208F
:1009200010BD074B074908484FF4867251F0C0FFCD
:10093000D5E700BFE5BF030069060000E80002201C
:1009400044490500604905007C48050000B585B0B4
:100950006A46002103F098FC9DF800301BB9002086
:1009600005B05DF804FB8321044848F05DFF9DF865
:100970000030002BF3D06FF01D00F1E78C4905002B
:1009800000B587B002AA0023009219461A4603F068
:1009900077FB9DF808301BB9002007B05DF804FB19
:1009A0006221054848F040FF9DF80830002BF3D045
:1009B0006FF01D00F1E700BF8C49050000B585B060
:1009C0006A46012103F04CFA9DF800301BB150211A
:1009D000024848F029FF05B05DF804FB8C4905008A
:1009E00000B585B06A46064903F0E4F99DF8003089
:1009F0001BB14421034848F017FF05B05DF804FB24
:100A0000104A05008C49050030B58FB001214148DE
:100A100049F0D6F801213F4849F0D2F800230122DD
:100A2000082102204BF00CFF0023012209210220A3
:100A30004BF006FF01240822114600230220CDE9D5
:100A400000444BF07DFE0922114600230220CDE92F
:100A500000444BF075FE04221146002302204BF0A7
:100A6000EFFE0023184604220C214BF0E9FE002380
:100A70000222082104204BF0E3FE224621460020FA
:100A80004AF054FD244B4FF400510822C3F8801162
:100A900003A81960C3F880211A6007F029FB9DF8AC
:100AA0000C309BBB03A805F087F99DF80C3053BBB5
:100AB00003A807F047FB9DF80C300BBB174D07F060
:100AC0005DFC4EF0E9F80FCD07AC0FC495E80700C8
:100AD00084E8070007A9124850F0A6FE08B105F007
:100AE00047F9104851F0E4FE4FF034F94EF02AFF78
:100AF00001F028F803A9002004F0C2FF0FB030BDB8
:100B000005F036F9DAE705F033F9D1E705F030F909
:100B1000C8E700BF00550A0000E100E07049050089
:100B200000C00020384A050030B58FB022484AF096
:100B3000B9FA07F0D9FB05F013F900211F4849F075
:100B4000BDF94DF027FF01204DF01CFF1C4851F06E
:100B5000AFFE0AAC1B4851F0ABFE204601F072FD1F
:100B6000194B1A4A1A491B4834F020FF9DF82830C7
:100B700003B1FEE702221849079233201E224FF4E8
:100B80000075CDE90021CDE905330493CDE90205D7
:100B90000894124A1249134804F006FD9DF82830C3
:100BA00003B1FEE7204601F041FF9DF8283003B174
:100BB000FEE701200FB030BD00A24A04404105000D
:100BC000184A05001C4A05004D0900008109000073
:100BD000BD090000E1090000C80C0020090A00005E
:100BE000244A0500C814002010B584B0104BD3F877
:100BF0001C44C3F8244461050CD4E20506D4A305C3
:100C000002D5012000F022FF04B010BD002000F04A
:100C10001DFFF4E76A464FF40071064804F0A6F899
:100C20006B4600220121044802F00EFFE5E700BFF9
:100C300000800840CCF60120C400022010B584B02A
:100C4000104BD3F81C44C3F8244461050CD4E205CE
:100C500006D4A30502D5012000F0F8FE04B010BDB3
:100C6000002000F0F3FEF4E76A464FF400710648F6
:100C700004F07CF86B4600220121044802F0E4FEF7
:100C8000E5E700BF00800840CCF60120C400022048
:100C900000B587B002AB009304220023024804F0A1
:100CA00011FA07B05DF804FBB03A002001B97047B3
:100CB000014851F0FDBD00BF40510500014851F011
:100CC000F7BD00BF1C51050011B1034851F0F0BD44
:100CD000024851F0EDBD00BF6851050054510500B8
:100CE00010B58AB0144602A8202251F0C9FF1F2C6B
:100CF00004D80AAB1C44002304F8203C02A86B462D
:100D000001AA124951F012FF022816D1019B012BB2
:100D100004D90F4851F0CCFD0AB010BD0D4968460A
:100D200051F082FF70B168460B4951F07DFF0028F9
:100D3000F2D101984DF0E4FFEEE7084851F0B8FD1C
:100D40000AB010BD01984EF085F8E5E7684A050045
:100D5000F8500500F0500500F4500500085105005A
:100D600008B5034951F0A1FF003018BF012008BDAC
:100D7000884A050000B585B05AB11146074851F0C0
:100D800097FD6A460021064804F0DEFA05B05DF8DA
:100D900004FB044851F08CFDF3E700BFDC50050074
:100DA000B03A0020C4500500F8B50C4A4FF4006179
:100DB00004464FF029F9051E0DDD094F0A2620468D
:100DC000394651F072FF044628B143780A2B02D00D
:100DD00004F8016BF3E72846F8BD00BF610D000081
:100DE00084A0050010B588B0144C154A154800239E
:100DF00021463DF003FF431D01D060B115E004AA78
:100E000000230092194618460DF10E0204F092F8E4
:100E100058B10368236009483BF042FF0949024684
:100E2000094851F045FD002005E00649074851F00A
:100E30003FFD4FF0FF3008B010BD00BFF03B002079
:100E4000910C0000703B0020944A0500AC4A05005C
:100E50002DE9F04FE1B00021B24BB34F0D9308469E
:100E60004FF008330C9348F09DFC3B68002B40F09A
:100E7000B780AE4AAE4DAF4CAF48B04BB0491278D8
:100E800095F800C01B7825780478AE48097800787A
:100E9000AD4E120442EA05621B04AC4D367843EABB
:100EA00004630904AA4C41EA0C61024395F800C0AE
:100EB000A848A94D24782D780078314341EA0421CF
:100EC00043EA0C030EAC09BA42EA052243EA0023C6
:100ED0000DF1400812BA1BBA216018A90B91C8F88D
:100EE000002018939D489E4990F800A0DFF804E385
:100EF0009C4E9D48DFF800C309789C4A9EF80090FC
:100F00009CF800C096F800E0994D06789948127850
:100F1000994B2D781B78090441EA0C6190F800C0C8
:100F20009648120442EA0562057895481B04007849
:100F300043EA0A6342EA0E0241EA09013343914E51
:100F400041EA0C2142EA052243EA002320AD09BA16
:100F500012BA1BBA30460F9114922B604DF0FAF979
:100F600089498146894851F0A3FCB9F1070F33D074
:100F700024D940F60133994544D040F602339945CF
:100F800026D1834851F094FC8248834F0B9B0297F3
:100F9000002642462146CDE9006080483EF07EFEB4
:100FA0007F480190029700962B4614AA0FA97D480E
:100FB0003EF074FE79483EF097FFFEE7B9F1000F6E
:100FC00024D0B9F1010F03D1774851F071FCDBE770
:100FD000764851F06DFCD7E7754851F069FCD3E7CE
:100FE000FFF718FB3B68002B3FF443AF18AB1A46E2
:100FF0000EAC0DF140080B9300232360C8F80030BD
:1010000013606FE76B4851F053FCBDE7012096F881
:10101000003296F8012296F8021286F822026648FB
:101020005D4E51F045FC654851F042FC594BCDF8FE
:1010300000902146CDE9013642460B9B57483EF0D1
:101040002DFE574B029614AA0FA9CDE900935548DF
:101050002B463EF023FE51483EF046FF0CA9484681
:101060003DF0B0FC48460DA93DF0ACFC3DF0A8FCBD
:1010700053484FF0EBF830B1524B534953484FF4BB
:101080007C7251F015FC03230022009311460123CA
:101090004F48504E50F02CFD0328044600F0B68017
:1010A0004D4CDFF858A1DFF84891504651F000FC54
:1010B000202148464FF02EF80028F6DBDFF840B13B
:1010C000DFF840A1DFF84091584651F0F1FB52465D
:1010D0000121484651F0ECFB404A0221484651F0BC
:1010E000E7FB3F4A0321484651F0E2FB3D4A042119
:1010F000484651F0DDFB3C4851F0DAFB042128461C
:101100004FF008F8002398422846DDDDAB7051F01F
:10111000A5F9431E032B354840F2968151F0C8FBD8
:10112000D2E700BF080804041C00002019000020BA
:101130001500002018000020403F0020413F002003
:1011400016000020453F002017000020433F0020EC
:10115000443F0020423F00201A00002028160020B3
:10116000010000202D1600202B1600200400002076
:10117000030000202C160020291600200500002066
:101180002A160020E8000220D84A0500E04A05009F
:10119000744B0500690800008D96040090C0002083
:1011A000D908000058C00020D84B0500F84B0500B6
:1011B000A84B0500444B0500FC4A0500204B0500E8
:1011C00008000020204C0500384C05007C48050034
:1011D00000C00020E801002080510500FC4C050003
:1011E000004D0500104D05001C4D0500484D050043
:1011F000EC0100200200002000000020A84C0500A7
:10120000D84C0500EC4C0500F44C0500A14AA2485E
:101210002023012150F028FC3246012302219E4860
:1012200050F022FC40239D4A9B48214650F01CFC74
:101230009B4851F03DFB97499A4851F039FB337870
:10124000002B00F0F680012B00F0F380022B00F061
:10125000F080042B00F0EC80934C944851F028FB74
:10126000042128464EF056FF2B7803F0DF03592B5C
:101270003FF417AF8E48DFF8249251F019FB8D48E8
:1012800051F016FB834851F0E1FC8246484696F83F
:1012900000B051F0DBFC002480B20126CDE90390C0
:1012A000514623462246CDF800B0CDE905440294CC
:1012B000019678484CF038FE0221009422460195B0
:1012C0004FF484737C4802F007FA2978002940F033
:1012D000B7803B6873B1794C05E04FF4FA7004F0C5
:1012E0002BFC3B6833B1204639F0C8FA2A46014648
:1012F0000028F2D04FF480720021284651F019FAEC
:101300000D240022042300941146634850F0F0FBA2
:10131000042806466A4B00F3FD80DFF8EC91694C27
:101320000993694F694E384651F0C2FA8021304620
:101330004EF0F0FE0028F6DDFFF754FD0028F2D154
:10134000DFF8C8A1DDF82CB04FF6FF760027504635
:1013500051F0AEFA4FF4807128464EF0DBFE0022C9
:10136000904259462846F2DD51F010FEDBF800307D
:1013700013B11B78002BEAD1864277EB0103E6DB41
:10138000099B534F534E18801F21384651F090FA55
:10139000202130464EF0BEFE0028F5DD4E4F4F4E68
:1013A0007F21384651F084FA802130464EF0B2FE5B
:1013B0000028F5DD4A4F4B4E7F21384651F078FA30
:1013C000802130464EF0A6FE0028F5DD464851F05B
:1013D0006FFA4FF4807128464EF09CFE2B7803F094
:1013E000DF03592B40F006820123404E89F800307C
:1013F000FF21304651F05CFA4FF4807128464EF0E0
:1014000089FEFE28F4D8294639483A4E51F016FC98
:10141000FF21304651F04CFA4FF4807128464EF0CF
:1014200079FEFE28F4D82946334851F007FCEDE157
:1014300023461D4C314854F8331051F039FA0CE76B
:101440002F4851F035FA55E704EBC3042179317088
:10145000002900F08881DFF8B890104C484651F020
:1014600027FA402120464EF055FE0728F6DD2023BE
:10147000084A0948012150F0ADFA0123214A0648E3
:10148000022150F0A7FA4023044A0348032150F0F8
:10149000A1FAEFE6EC01002000C00020A801002026
:1014A0004C4C05006C4C050080510500844C050037
:1014B000BCA10500984D0500A000022090C00020AE
:1014C000F43B0020140000207C4E0500703B0020FF
:1014D000B84E0500FC3B0020E44E0500403D0020D6
:1014E000144F0500C03D0020444F0500784F050013
:1014F000403E0020AC4F0500403C0020784C0500E9
:10150000C04D0500E80100203C3C0020A04E050035
:10151000584D05001F460993954A9648802304219B
:1015200050F0A2FA3A4602230521924850F09CFA64
:101530002023914A8F48062150F096FA80238F4A43
:101540008C48072150F090FA80238D4A8948082161
:1015500050F08AFA8B4851F0ABF93A8884498A48AE
:1015600051F0A6F98449894851F0A2F98349884885
:1015700051F09EF98249874851F09AF90A2E40F3BA
:10158000F081DFF86492844C844851F091F94FF473
:10159000807128464EF0BEFD2B7803F0DF03592BF7
:1015A0003FF4BFAEFFF71EFC7D487E4E51F080F940
:1015B00046F0D6FC99F80030306007467A486E490C
:1015C00001600A228281002B40F0BD812378002B2C
:1015D00040F09281002F00F0AE810024734FDFF8BD
:1015E0000CB2A14632E0002C5AD0A3B2704A80213E
:1015F000284651F067FA0F90284651F027FB044621
:101600003846FEF7C9FE6B493068CDF80C900122D0
:10161000CDE901910092A3B22A46584946F084F9D7
:101620003846FEF7C5FE404604F07AFBABFB0023CC
:101630009B094FF47A7202FB1300101A0023CDF8B5
:10164000008019460FAA03F075FC0446306847F085
:101650007FF882460028C6D13368F3B156483BF084
:101660001FFB0146554851F023F914AA5146504634
:1016700003F002FF3846FEF78FFE099B30681A8898
:10168000494B4D49CDE900A34D4B46F06FFC044654
:101690003846FEF78DFE002C43D04FF47A70CDE72C
:1016A000484ADFF84CA18021284651F00BFA0F90F0
:1016B0002046CDF82880DDF82C804DF081FB2346B4
:1016C0005246202140B340480090404651F0FAF97C
:1016D0000F9B3E49034440460F9351F096FA0F9BEF
:1016E0004146013328460F9351F08FFA5CB10F98B1
:1016F0003749DDF828800138284451F09FFA0F9BC4
:1017000001330F9378E7012420464DF059FB23461F
:10171000524620210028D6D12E4B0093202123466B
:10172000D3E714AB22462146204603F057FD144868
:1017300051F08CFA00283FF476AF3846FEF72CFEC5
:10174000012330680E4901932246234B009446F052
:1017500077FA3846FEF72CFE2346204A20493068A7
:1017600046F0E2FB5FE740221E4850F0E2FF7EE6D3
:10177000703B002000C00020FC3B0020403D0020CA
:10178000C03D0020D04D0500F04D0500084E05007D
:10179000184E05002C4E050014000020844C050056
:1017A000BCA10500F83B00201C3C002098F601205D
:1017B000544A0500AD0C0000F03B002088500500A5
:1017C000750D0000AC500500B8500500BC50050078
:1017D000C0500500F4500500C90C0000E10C0000E9
:1017E000BD0C0000A80100203C3C0020D34D62103D
:1017F000684A05004FF4807200217C4850F099FF40
:101800004FF4807200217A4850F093FF794851F0EC
:101810004FF84FF4807128464EF07CFC2B7803F093
:10182000DF03592B55D101237348237051F040F841
:101830007248FFF7B9FA724851F03AF87148FFF769
:10184000B3FA714851F034F87048FFF7ADFA8023CD
:101850006F4A7048042150F0BDF802236E4A6D486B
:10186000052150F0B7F820236C4A6A48062150F051
:10187000B1F880236A4A6748072150F0ABF880230B
:10188000684A6448082150F0A5F84FF48073574A1D
:1018900060480C2150F09EF84FF48073544A5D4824
:1018A0000D2150F097F84FF40063544A594809212C
:1018B00050F090F84FF40063524A56480A2150F015
:1018C00089F84FF40063514A52480B2150F082F8D6
:1018D0006AE64FF400620021484850F02AFF4FF4B6
:1018E00000620021474850F024FF4FF400620021BD
:1018F000464850F01EFFAAE74048424C51F0A6F976
:101900008146424851F0A2F98246204651F09EF9A4
:1019100000220130CDE902400AF10103CDE90022A5
:1019200009F10101394A354847F036FD3E4BD8618F
:1019300000287FF44FAE3D4B3D493E4840F2FD321A
:1019400050F0B6FF49E6DFF8A890284B43604846C0
:1019500051F07CF900283FF439AE334AC2F80890C0
:1019600034E64FF48073214A2A480C2150F07CF869
:10197000D8B1DFF8D490214A26484FF400630921FA
:1019800050F072F8F0B12C4C2C4922782C4B002AE4
:1019900008BF194699F80060294B284A2948002EAB
:1019A00008BF1A4650F084FFEEE54FF480732146DD
:1019B0000F4A1848DFF8909050F056F8012389F844
:1019C0000030D8E74FF400630E4A12481A4C0A213F
:1019D00050F04AF84FF400630B210C4A0D4850F0C8
:1019E00043F8012323701549D4E700BF403E00208F
:1019F000403C0020E04F05000C5005003016002050
:101A00003C500500301E00205C50050030260020B0
:101A1000703B002000C00020F43B0020FC3B002075
:101A2000403D0020C03D00201C3C0020204C050013
:101A3000745005007C48050014000020A0960500A5
:101A4000D04A0500444E05003C3C0020012800D946
:101A5000704710B586B004464DF050FA074B186831
:101A600050B146F075FE38B102AB00932146002319
:101A70000422034803F026FB06B010BDF83B00200B
:101A8000B03A002008B500220849094847F082FD15
:101A900000220849064847F07DFD074B1B6813B13B
:101AA0000120FEF7ADFD002008BD00BFF5FE0300DC
:101AB00090C0002085FF03001C00002008B5094BE2
:101AC0001B6813B10020FEF79BFD00220649074862
:101AD00047F060FD00220649044847F05BFD002006
:101AE00008BD00BF1C000020E9FF030090C00020DB
:101AF0004DFF030010B5064C06492046002247F072
:101B000049FD20460022044947F044FD002010BD55
:101B100058C00020F5FE030085FF030010B5064CF9
:101B200006492046002247F035FD204600220449A0
:101B300047F030FD002010BD58C00020E9FF030031
:101B40004DFF030030B58FB00AAA0D49089200235B
:101B50005020172202254FF44874CDE90021CDE929
:101B60000204CDE906350748074A0849CDE90433A0
:101B700003F01AFD9DF8280000B1FEE70FB030BD5C
:101B8000302E0020B03A0020510E0000C44A05005B
:101B9000F8B5124D4AF080F92C780646CCB91049B8
:101BA000104A114B0C6014601C8000F05BFA01209D
:101BB00000F0CAFA00F008FB0C4B0D4F186002460B
:101BC00023460C4840F2E73150F0C8FA0123386050
:101BD0002B7030464AF064F90020F8BD463F0020E3
:101BE000583F0020483F0020503F0020543F002035
:101BF0004C3F002018FCFFFF2DE9F84F9DF828907E
:101C0000BDF82C8060B3424E1F460D4692460446F6
:101C10004AF042F9336823B19C421CD09B68002BE8
:101C2000FAD14FF0000B4AF03BF984F8049027609A
:101C3000C4F80CA0A4F80680C4F808B0C4F810B02A
:101C40008DB96561BAF1000F3BD020463946D047C7
:101C50002846BDE8F88F4AF023F90320BDE8F88F45
:101C60002220BDE8F88F4AF017F9074600F03CFA49
:101C7000D6F800C0DFF89CE0BCF1000F2AD0DEF8F7
:101C80000030DCF81420C31A93421DD9801ACEF814
:101C90000000CCF814B065616346002000E00B46FC
:101CA0005A69AA4200D922BB9968AD1A65611846E3
:101CB0000029F4D19C60A160644524D038464AF0E4
:101CC000EFF80020BDE8F88FD31ACCF81430CEF826
:101CD0000000E0E765613460C4F808C0CEF8000099
:101CE00003461D44022000F02FFA284600F002FAB5
:101CF000E4E720B18460A360521B5A61DCE73460E2
:101D0000A360A446F8E76569DEF80030E9E700BFA4
:101D1000583F0020483F0020002842D0F8B5044634
:101D20004AF0BAF8064600F0DFF905462748016890
:101D3000002938D0264F4A693B68EB1A934213D9E1
:101D4000AD1A00233D604B618C4218BF0A4603D197
:101D500036E09C420CD01A469368002BF9D13046ED
:101D60004AF09EF80220F8BDD31A4B613D60EBE7C4
:101D7000A3689360A3687BB10A46586967693844D1
:101D800058618C4216D1BAB1536902201D4400F04B
:101D9000DBF9284600F0AEF930464AF081F8002021
:101DA000F8BD222070470A4B30461D604AF078F893
:101DB0000220D8E7002AEFD1022000F0D3F9EBE7A8
:101DC000A2680260002ADCD01346D6E7583F002004
:101DD000483F002098B391B32DE9F0410E460546E7
:101DE0004AF05AF8074600F07FF9224B1B6843B3CC
:101DF000DFF884805969D8F80020821A8A422AD8EC
:101E00008A1A5A61C8F800006C6934609D4201D199
:101E100006E0D3B15A699B6814449D423460F8D1FE
:101E200000F062F9D8F80030C01AA04219D300239C
:101E3000336038464AF034F80020BDE8F0812220B3
:101E400070470D4B6A693260186038464AF028F8CE
:101E50000320BDE8F081401A0022C8F800005A6152
:101E6000D2E700F041F9D8F800203368801A1B1A35
:101E70003360DEE7583F0020483F002038B54AF085
:101E80000BF8054600F030F9044628464AF008F8F9
:101E9000204638BD014B1868704700BF543F0020F2
:101EA0002DE9F84FC207044600F19980A30701D439
:101EB000BDE8F88FDFF8A881674F00F015F9D8F872
:101EC00000500646451B49F0E7FF3C688246002C5F
:101ED00000F0AB8062699542C0F0B8804FF0000915
:101EE000C8F800602346294600E05A698A4209D8AA
:101EF000187994F804C0844588BF1C469B68891AE9
:101F0000002BF2D1504649F0CBFFD4F814A0C4F80E
:101F1000149049F0C1FF3A6842B1A24203D17AE07D
:101F2000A3422DD01A469368002BF9D149F0B8FF8F
:101F30002369002B32D1E36813B12168204698470A
:101F400000F0D2F85644AD1B8346054449F0A4FF87
:101F50003C688246002C68D06269AA425E46BFD9BE
:101F6000551B656102205D44C8F800B000F0ECF834
:101F7000284600F0BFF85046BDE8F84F49F090BF42
:101F8000A3689360A1680029D0D04B6962691344AB
:101F90004B6149F085FF2369002BCCD049F07CFFD1
:101FA0003B68226962618646002B37D04FF0000CF7
:101FB00000E003465969914201D900293DD1986852
:101FC000521A62619C460028F3D19C60A06010B157
:101FD00043699A1A4261704649F062FFABE71F4AB3
:101FE000138801339BB2138000F07EF81A4B1A68F5
:101FF0004AB31B4953690D68451B9D4211D9C01A4C
:10200000002308605361C518022000F09DF828469F
:1020100000F070F84AE7A1683960B4E73C60A3605B
:10202000D9E75B1B53610860EDE7022000F09AF8E6
:102030005046BDE8F84F49F033BFBCF1000F07D15F
:102040003C601846C2E7064B18602FE7B34687E7A7
:1020500018466346B9E700BF583F0020503F0020B4
:10206000483F002010B586B01B4B93E8070003AC37
:102070000C3303C493E803000B0C0190ADF8081077
:102080001648228001218DF80A30002447F098FD7F
:1020900003A88DF80C408DF810404AF041FF06A9C6
:1020A000012001F8144D4AF007FF0D4A536A23F44A
:1020B000FF6323F0070340F2FF71536201201162B6
:1020C00094604AF027FF074B4FF00042C3F880218D
:1020D0001A6006B010BD00BFA0510500A009140091
:1020E0000020064000E100E0014B9868704700BF07
:1020F00000200640124B9A68596D9B695B0702D419
:102100008B1A022B18D9831A012B98BF901C0C4BE9
:10211000B0F1FF3F28BF013058655A6A42F004020F
:102120005A62084B1A7832B105490A6D002042F014
:1021300002020A65187070479142F2D1E3E700BFCE
:1021400000200640200000208207054A00F001031D
:10215000516A48BF43F004030B435362704700BF0A
:1021600000200640830700F0010209D5074B08490B
:10217000012018700B6D23F0030342F004020B657D
:1021800003494B6A23EA02034B6270472000002098
:102190000020064010B549F07FFE0A4B9B695A07A4
:1021A000084A044603F0010003F0070348BF40F06B
:1021B00002001362FFF774FE2046BDE8104049F0AC
:1021C0006FBE00BF00200640014848F021BD00BF9F
:1021D000A0091400B0FA80F0704790FAA0F0B0FAAD
:1021E00080F0704790FAA0F0704700BF72B64EF6CC
:1021F0002250CEF2000040F2FF01C0F20001017057
:10220000002080F309884CF2FC00C2F20000016853
:1022100081F3088800F014F94CF24840C2F2000043
:102220004CF23C41C2F200010A7802704CF24C4080
:10223000C2F200004CF25441C2F200010A6802608E
:10224000106880F30988EFF3148040F0020020F05A
:10225000040080F31488BFF36F8FBDE8F04F0FBC0C
:10226000BDE8005006BC62B6084732484FF08051C6
:10227000016070472F484FF080510160704772B67F
:102280004CF24C42C2F20002116800290ED0EFF36A
:1022900009801EF0100F08BF20ED108A20E9F04FD2
:1022A0004CF24C45C2F2000529680860744600F003
:1022B000C7F84CF24C41C2F200014CF25440C2F259
:1022C000000003680B604CF24842C2F200024CF27C
:1022D0003C41C2F200010878107044F0040E002B5B
:1022E0000AD01868B0E8F04F1EF0100F08BFB0EC2D
:1022F000108A80F309881BE04CF2FC01C2F2000155
:102300000868A0F11C0080F3088840F20001C0F2C8
:102310000011C16142F23931C0F20001816145F61C
:10232000DD21C0F2000141614FF6F97ECFF6FF7E5C
:1023300062B6704704ED00E008B5AFF3008000BF5F
:10234000FDE700BF0A4A0B4B12681B680A480B499D
:1023500002F18042013A03EB820323F0070303609A
:102360000B6803F04043B3F1404F00D0FEE77047E5
:10237000643F0020603F0020FCC0002034EF00E0FC
:10238000024B1B6803B11847704700BF44C40020CC
:10239000024B1B6803B11847704700BF5CC40020A4
:1023A000024B1B6803B11847704700BF30C10020C3
:1023B000F0B4049C214E02EB840222F007024FF09D
:1023C000123542F8080C42F81C3C42F8201C4FF031
:1023D00003304FF002316FF00203144642F8105CF4
:1023E00042F8140C4FF011354FF0103042F8181C21
:1023F00042F8243C4FF009314FF008334FF080771A
:1024000042F8285C42F82C0C4FF007354FF00630AC
:1024100042F8301C42F8343C4FF005314FF00433A1
:1024200042E90F0542F8047C42F80C6C42F8401C6B
:1024300044F8443D2046F0BC704700BFDD5A000020
:102440000F4B1B7863B110B50E4C2068C36E5BB1A7
:1024500000F04EFF0C4B1B687BB1BDE810401847E5
:10246000094B1B6853B1184700F060FF206800F06B
:102470003FFF054B1B68002BEFD110BD704700BF1D
:1024800096C4002054C4002084C40020704700BFBC
:102490002DE9F04182B049F0FFFC3E4C054627781B
:1024A00002F036F84028207051D000EB4000DFF8F1
:1024B0000081394E58F820303360402F51D0374BCF
:1024C0001B78B3B93368364A12689A424CD0354A01
:1024D00021781368402903F1010313603ED0FFF710
:1024E000C4FE284649F0DCFCBFF36F8F02B0BDE8A4
:1024F000F0812D4F3B68DB6E002BE3D001A92B4808
:10250000FFF768FC002835D03B68D96E0029D9D187
:1025100093F8333003EB43039B0008EB030758F8B1
:102520000320786882420BD0D2F810C0604528D0D2
:10253000CCF81410C2E90410026148F803C07A60B4
:10254000237803EB430358F823303360BBE7154A85
:10255000114913680020013313600860AFF3008055
:10256000BDE7AFF30080AAE7284649F099FC02B026
:10257000BDE8F0813B68019ADA660C48FFF7CCFBB6
:10258000C2E7C2E90410C0E9042148F803007A60F8
:10259000D6E700BF3CC4002054C4002096C40020ED
:1025A0004CC4002060C4002020C1002008C10020CD
:1025B00038C10020F8B51E4B1B78012B00D0F8BDA8
:1025C0000E4649F069FC1B4B1B4C1B680025F56649
:1025D00093F8337007EB4701890004EB010C635853
:1025E000DCF80420934209D01E69B24215D075610F
:1025F000C3E9045213616650CCF8043049F050FC32
:102600000E4B1B78012B00D0FEE70D4B1B78002BE7
:10261000D5D1BDE8F840FFF73BBF0C2101FB07F126
:102620006618C3E90452C2E9043562507360E5E7F5
:1026300096C4002020C1002038C1002035C10020F0
:102640002CC10020F8B50446002800F0D080734D5E
:102650006B6883B128689A00002800F0CB8070492D
:102660000860704E704F31683860704F70483B6042
:102670001144316002602A89DAB102EB4202920011
:102680002346296B6B4804F0DBF86B4A2378106013
:10269000002B40F09E802B896249684E0A68338087
:1026A000674F684E03EB43039B003B6013440B6092
:1026B0003060654E6B6B3360FFF744FEFFF768FADE
:1026C000002840F08A803168B1F57A7F40F282803C
:1026D0004FF47A734FF0FF32B2FBF1F203FB02F3D7
:1026E0005A4A1360FFF7D6FB336859494FF0FF325F
:1026F000B2FBF0F203FB02F30B60FFF7CBFB336896
:10270000984209D209225349227040F2BB12C4E90F
:102710000112514BE360FEE7504A51485149524F74
:10272000524E534D00231360524A036020460B70F3
:1027300013703B7033702B7003F0EAF94E49237825
:102740000A22B0FBF2F20A60002B42D1374A12682B
:1027500032B13549096819B1013A41F8043BFBD15E
:10276000464A474B47484849484F494E002515605F
:102770001D703D60356005600D6001F0C1FE454B88
:1027800003F540721D81C3E900550C339A42F9D11B
:102790002A4B4149414A1B880D601580002B36D1D8
:1027A0003F484049404A414F414E424D002303605B
:1027B00020463B6033802B800B60138002F0A0FE2C
:1027C000237833B900F0E6FDFFF760FE3A4B0122B3
:1027D0001A70F8BD4FF0FF3382E701221D491E4BEE
:1027E000227040F2AF12C4E90112E360F8BD03F0B9
:1027F000BFFA2CE72346296B304804F021F8084A39
:1028000023781060002BE4D16B689A0029E72046FA
:1028100001F0D0F92378002BC2D0F8BD24000020AD
:1028200004C100205C3F0020603F0020643F002086
:10283000683F0020CC51050000C10020703F0020FF
:10284000743F00206C3F0020783F00207C3F002038
:10285000803F0020E0510500685205004CC4002074
:1028600054C400203CC4002035C100202CC10020ED
:1028700048C4002096C400207CC4002084C40020EA
:1028800034C1002030C1002088C4002044C400208E
:102890005CC4002038C1002090C400208CC40020FB
:1028A00074C4002040C4002078C4002098C40020D4
:1028B00094C4002050C4002038C40020B851050042
:1028C000054B1B78012B00D0FEE7044B1B7803B1AE
:1028D0007047FFF7DDBD00BF35C100202CC10020CF
:1028E00070B50446D8B149F0DFFA064648B1202257
:1028F0001B49227040F20B32C4E90112194BE3600C
:10290000FEE7194B1B78012B0CD0022214492270D0
:1029100040F20E32C4E90112124BE360FEE703F00D
:1029200027FAE0E7114D2B78F92B09D91E220C4923
:10293000227040F21132C4E901120A4BE36070BD0B
:1029400049F0AAFA2B7801332B7049F0A9FA04490F
:10295000044B26704FF44772C4E90112E360EEE7BE
:10296000E05105007052050035C100202CC1002047
:1029700070B50446D0B149F097FA48B120222749F2
:1029800022704FF44D72C4E90112254BE360FEE75B
:10299000244E3378012B0CD002222049227040F2C1
:1029A0003732C4E901121E4BE360FEE703F0E0F9A1
:1029B000E1E71D4D2B784BB91F221849227040F2D8
:1029C0003A32C4E90112164BE36070BD49F064FA73
:1029D0002B78013BDBB22B702BB949F061FA3378CD
:1029E000012B0CD0FEE749F05BFA2D220B490C4B72
:1029F000227040F24232C4E90112E360E5E72B782D
:102A00000BB9FFF745FD00220449054B22704FF436
:102A10005372C4E90112E360D7E700BFE05105003B
:102A20007C52050035C100202CC10020F8B50446B9
:102A3000D0B1204B1E78012E09D013221E492270DE
:102A400040F2DE32C4E901121C4BE360FEE71C4B8E
:102A50001B8863B909221849227040F2E932C4E99F
:102A60000112164BE360FEE703F082F9E1E7154D32
:102A70002B784BB11F22104922704FF47B72C4E9AE
:102A800001120E4BE360FEE701F042FD0C2303FB55
:102A900000F30D4A0D4FD3580D4C0E490E4A2E70BF
:102AA000387020700B601360FFF7A0FBBDE8F840A2
:102AB00003F05EB938C40020E05105008C520500D7
:102AC00064C4002035C1002038C100203CC400206F
:102AD00048C4002054C400204CC400202DE9F04C10
:102AE00083B0614B614E93F800C03468002384F8D2
:102AF00030100546174684F83130BCF1000F3BD149
:102B0000002F42D1616994F83300022384F83230F7
:102B1000236900295ED0564A00EB400002EB80009A
:102B20000289013A02810B61002B00F08680596115
:102B300000233268C4E90433002D60D0AC68D5624C
:102B4000002C72D02B8A92F8330001332B8223465B
:102B500093F8331081425DD85B6A002BF8D1E968A5
:102B6000C2E909314A62EA60E3686968C2F8BC10E8
:102B7000EB6103B0BDE8F08C3E4A3F481268D36673
:102B8000FFF7CAF83468002FBCD0FFF783F93B4B3E
:102B90001A68002312F1FF3A43F1FF3BE0FB07AB59
:102BA000504659464FF0DAFA00230146CDE900338A
:102BB000334A234604F15000FFF71EF808B103F032
:102BC000D7F8616994F83300032384F8323023691D
:102BD0000029A0D1002B3CD0254F00EB4000800005
:102BE00007EB000CBCF80820013AACF8082059614A
:102BF0003B5000233268C4E90433002D9ED192F883
:102C00003030D562022B20D0072B0AD11D4BC2F8E1
:102C1000BC30AEE7996A91B1C2E909314A629A6261
:102C2000A2E7194BC2F8BC30A3E701232B82C2E90B
:102C30000944C5E90222144696E7416078E7C2E9F3
:102C4000093114469A62AA608EE7104BC2F8BC3074
:102C50008FE7074F00EB40029200B918BB500B8181
:102C60004B6001F07DFC63E796C400204CC400205B
:102C700038C1002020C1002008C10020783F00207A
:102C8000F53000005C520500D4EF050054520500F9
:102C900090F83210072901D903F06AB8F8B501237A
:102CA0008B4013F033064FD1154613F0C002044693
:102CB0004BD113F00C0F03D1BDE8F84003F058B826
:102CC000C36A0267A0F87420A3B19A68526A002A06
:102CD0007DD0D0E90902002A00F0858050620028EA
:102CE00000F084808262188A002201381882C4E9C8
:102CF0000922E262032906D104F15000FFF70CF823
:102D000008B103F035F894F8330001F011FC3C4AA7
:102D100094F8333012789A4239D003EB43039B0086
:102D2000384AD158D018002954D0068900270136D6
:102D30000681C4E904174C61D450002384F8315053
:102D400084F8323084F83030F8BDC36A0667A0F8E2
:102D500074608BB19A68526A52B3D0E90902002AB2
:102D600032D0506200283CD08262188A002201389A
:102D70001882C4E90922E26207291CD00422002338
:102D800084F8315084F8322084F83030F8BD02EBFA
:102D9000420292001B4988588B1848B31A89596817
:102DA000013200201A81C4E904010C615C60C4E7AF
:102DB000C3E90222D9E704F15000FEF7ADFF002875
:102DC000DCD002F0D5FFD9E782629860CDE7C3E995
:102DD000022288E701260681C4E90411D450446028
:102DE000ABE7DA60C1E7826298607CE7DA607AE795
:102DF00001261E81C4E904008C505C609DE700BF81
:102E000048C4002038C10020C16A8B685A6AE2B108
:102E100030B4D0E90924CCB16262DAB194620D8A8F
:102E200090F83340C1620022C0E909220D8293F874
:102E30003320A24210D85B6A002BF8D1CA68C0E9DF
:102E400009325062C86030BC7047704794621346C4
:102E50008A60E4E7CC60E2E79A6A2AB1C0E9093205
:102E600030BC506298627047C0E90932986288604D
:102E7000E9E700BF0023C0E900330381704700BFCA
:102E8000C36A7BB19A68526A6AB1D0E909126AB121
:102E9000516271B18A62198A002201391982C0E92E
:102EA0000922C2627047C3E90222F4E78A6299608C
:102EB000F1E7DA60EFE700BF70B50C4691F8321029
:102EC00005294FD804294CD201294AD92267A4F8F0
:102ED000743018B3E36AABB19A68526A002A00F002
:102EE000B480D4E90912002A00F09F8051620029C1
:102EF00000F0B5808A62198A002201391982C4E97A
:102F00000922E2628368584AC4F8BC20002B00F012
:102F10008480DB68C36194F8321002E0524BC4F83D
:102F2000BC30032970D094F8330001F001FB4F4A04
:102F300094F8333012789A424BD003EB43039B0052
:102F40004B4AD158D018002975D005890026013583
:102F50000581C4E904164C61D4500023238684F80B
:102F6000323070BD072923D82267A4F8743028B303
:102F7000E36A93B19A68526A002A63D0D4E90912CD
:102F8000002A55D0516200296BD08A62198A00222A
:102F900001391982C4E90922E2628368324AC4F81D
:102FA000BC20002B3DD0DB68C36194F8321008E0F0
:102FB000FF29D6D0BDE8704002F0DABE2A4BC4F833
:102FC000BC30072917D000220423228684F832302F
:102FD00070BD02EB42029200254988588B180028E8
:102FE00036D01A895968013200201A81C4E90401D7
:102FF0000C615C60B1E704F15000FEF78DFE002823
:10300000E1D002F0B5FEDEE704F15000FEF784FEE9
:10301000002888D002F0ACFE85E7C26194F8321037
:103020007FE7C26194F83210CBE78A62996062E769
:103030008A629960AAE701250581C4E90411D45088
:1030400044608AE7C3E90222A0E7C3E9022252E70B
:1030500001251D81C4E904008C505C607DE7DA60C5
:1030600049E7DA6092E700BFD4EF050048C40020CA
:1030700038C1002070B5044690F8330001F058FACA
:103080001A4A94F8333012789A420FD003EB430374
:103090009B00174AD158D018C9B1058900260135BF
:1030A0000581C4E904164C61D45070BD02EB4202A4
:1030B00092000F4988588B1880B11A8959680132DB
:1030C00000201A81C4E904010C615C6070BD012517
:1030D0000581C4E90411D450446070BD01251D81EF
:1030E000C4E904008C505C6070BD00BF48C400207F
:1030F00038C10020F8B50C4648F0CEFE94F83230C6
:10310000013B0646062B3DD8DFE803F04C3C043C6F
:10311000483C040094F83030042B08BFE36A4FF0B9
:10312000000708BF5D6A2767A4F87470204618BFBF
:103130000025FFF7A5FE94F83230032B3DD0072B76
:1031400004BF042384F832304FF440732386CDB19A
:1031500095F8333095F834209A4213D094F8332000
:103160009A420FD1284601F079F995F8343095F854
:103170003320834228BF0346D9B28A4202D0284670
:1031800002F050FB304648F08BFE0E4B1B78012BB3
:1031900000D0FEE70C4B1B785BB1F8BD042384F82C
:1031A0003230EFE7002384F832302046FFF762FF29
:1031B000E8E7BDE8F840FFF76BB9FFF75BFF84F87D
:1031C0003270C1E735C100202CC1002070B490F8E6
:1031D00033300C4A03EB43039B00D418D15849B158
:1031E0002589002601352581C0E90416486170BC97
:1031F000D050704701252581C0E904116060D0508E
:1032000070BC704738C1002030B490F833300D499D
:1032100003EB43039B00CA18CC5854B1138951687F
:10322000002401331381C0E90441086130BC5060BF
:10323000704701251581C0E90444C850506030BC76
:10324000704700BF38C10020D0E9003293420DD052
:1032500019698A420BD010B400244C61C3E90442BE
:1032600013615DF8044BC0E90013704770470021FB
:10327000C3E90412C2E90431C0E90023704700BF6A
:1032800070B504464169236990F8330071B1174A5B
:1032900000EB400002EB80000289013A02810B61E1
:1032A0009BB159610023C4E9043370BD93B10F4D44
:1032B00000EB400080002E183289013A32815961BA
:1032C0002B500023C4E9043370BD00234160C4E9DE
:1032D000043370BD054D00EB40029200A918AB50BD
:1032E0000B814B6001F03CF9DCE700BF38C10020E6
:1032F00018B10A4B1B78012B00D0704710B582B073
:1033000004460023C16E064A0648CDE90033234631
:10331000FEF772FC044B1C6002B010BD96C4002086
:10332000B525000008C1002020C1002018B1164BAF
:103330001B78012B00D070472DE9F041856E0446C3
:103340007DB1FEF7A7FD114B1A680027561EE0FB62
:1033500005673046394600234EF000FFE066BDE8C1
:10336000F0810B4BD3F80080FEF794FD074B1A68F1
:103370000027561EE0FB08672B46304639464EF0C4
:10338000EDFEE066BDE8F08196C40020783F0020A5
:103390007CC4002030B482B0754B764C1B787648E4
:1033A0007649774A774DDBB28DF805302368764C45
:1033B000DBB28DF8073003787448DBB28DF8053046
:1033C0000B787349DBB28DF805301368714ADBB2B4
:1033D0008DF807302B6A704DDBB28DF807302378FB
:1033E0006E4CDBB28DF8053003786D48DBB28DF89A
:1033F00005300B886B49DBB28DF8063013886A4ABA
:10340000DBB28DF806302B78684DDBB28DF80530D5
:103410002388674CDBB28DF8063003886548DBB241
:103420008DF806300B886449DBB28DF8063092F8CF
:103430002830624ADBB28DF807302B78604DDBB262
:103440008DF8053023885F4CDBB28DF80630038899
:103450005D48DBB28DF806300B885C49DBB28DF835
:10346000063013885A4ADBB28DF806302B88594D46
:10347000DBB28DF806302388574CDBB28DF806306E
:10348000438D5648DBB28DF807300B785449DBB2D8
:103490008DF805301388534ADBB28DF806302B784F
:1034A000514DDBB28DF80630236A504CDBB28DF8FB
:1034B000073003784E48DBB28DF805300B884D4954
:1034C000DBB28DF8063013884B4ADBB28DF806303C
:1034D0002B684A4DDBB28DF807302378484CDBB2BD
:1034E0008DF8063003784748DBB28DF805300B784D
:1034F0004549DBB28DF805301378444ADBB28DF8CC
:1035000005302B78424DDBB28DF805302378414CE5
:10351000DBB28DF8053003783F48DBB28DF805301B
:103520000B883E49DBB28DF8063013783C4ADBB29B
:103530008DF805302B88DBB28DF806302388DBB29E
:103540008DF806300378DBB28DF805300B88DBB2DE
:103550008DF806301388DBB28DF806309DF8053003
:103560009DF806309DF8073002B030BC704700BFB0
:1035700064000020600000205D0000205C0000204E
:1035800068000020843F00206C000020A83F00203D
:103590006E000020700000207200002078000020E3
:1035A0007400002076000020AC3F00207A0000204C
:1035B0007C0000207E00002080000020820000208F
:1035C0008400002086000020D83F002088000020D2
:1035D0008A00002094000020084000209500002070
:1035E000960000208C000020900000209900002010
:1035F0002C400020980000209C0000209D0000200E
:103600009E0000202D400020A0000020A2000020ED
:103610009A000020A40000202E400020304000200E
:10362000A60000202DE9F8430546894690461C4631
:10363000002B39D048F038FC064640B12022204902
:1036400022705522C4E901121E4BE360FEE775B3F8
:1036500048F022FC24223146074628464FF069F8FC
:10366000194B2B60C5F80490C5F8208005F10800BF
:10367000FFF700FC1549164A0B686E61C5E9063272
:1036800003B15D61134A0D6013883846013313801E
:1036900048F006FC00220A490A4B22707022C4E955
:1036A0000112E360BDE8F88302F062FBC2E70A2280
:1036B000034922705822C4E90112024BE360FEE77D
:1036C0009452050008530500464C414790C4002021
:1036D000D4EF05008CC400202DE9F04F83B00D9C81
:1036E000019205460E469B46D4B148F0DDFB48B139
:1036F0002022B249227040F22F12C4E90112B04BCD
:10370000E360FEE7AF4B1B78012B0CD00222AB49E4
:1037100022704FF49972C4E90112A94BE360FEE7ED
:1037200002F026FBE1E7002D00F0198147F6FF6368
:103730000BEA03035A1E012A0DD9042B0BD0082BC8
:1037400009D008229D49227040F24712C4E90112B3
:103750009B4BE360FEE79C4B2A689A4209D00C22FF
:10376000964922704FF4A572C4E90112944BE360AC
:10377000FEE70C9B0BF4807A13B10C9A00231360C4
:1037800048F08AFB0BF00F08B8F1040F814600F0F7
:10379000CD80B8F1080F44D12A6A12EA060719D081
:1037A000BAF1000F02D022EA07022A62874A1268A1
:1037B0004846C2F8987048F073FB00227F49227097
:1037C0004FF4C872C4E901127D4BE360384603B080
:1037D000BDE8F08F1BF4004F40F09C807C4A1378CA
:1037E000002B40F08B80794F019A38680121C0F896
:1037F0009460A0F89CB0C0F898302846FFF76EF9A6
:10380000484648F04DFBFFF75BF848F045FB3B6846
:1038100093F831300646032B53D8DFE803F0332703
:103820001B0848F03DFB694F02F0A2FAEBE70C9B46
:1038300013B10C9A00231360304648F031FB22226A
:103840005E49227040F22B22C4E901125C4BE36016
:103850000027BBE748F024FB31225849584B22701F
:1038600040F23622C4E90112E360F1E748F018FBA8
:1038700021225249524B227040F22222C4E9011205
:10388000E360E5E70023DFF834B1237040F217234B
:10389000C4E901B3DFF82891C4F80C903B68D3F871
:1038A0009870BAF1000F18D1304648F0F9FA0022AA
:1038B00040F25923C4F804B0C4F80C902270A360FD
:1038C00084E748F0EDFA02F053FA2378002BBFD1D9
:1038D000DFF8E8B0DFF8E890E0E7B8F1040F02D0D5
:1038E000B8F1080F04D12B6A23EA07032B62DBE748
:1038F000304648F0D5FA02F03BFAD5E748F0D0FA66
:103900002D222E492E4B22704FF4CF72C4E90112A2
:10391000E3605BE748F0C4FA1D222849284B227077
:1039200040F29712C4E90112E3604FE72A6A36EACF
:1039300002032BD01BF4004F1BD1254A1378002B18
:103940003FF451AF48F0ACFA2D221C491C4B2270B9
:103950004FF4BA72C4E90112E360002736E70A2285
:103960001649227040F23512C4E90112144BE3608B
:10397000FEE748F095FA1D221049114B227040F2E3
:103980006D12C4E90112E36000271FE7BAF1000FCE
:1039900002D022EA06022A620C4A12684846C2F89D
:1039A000986048F07DFA00220449054B22704FF4DC
:1039B000B3723746C4E90112E36007E79452050089
:1039C0001853050035C10020464C41474CC4002027
:1039D0002CC1002010B590F83230C0F898100022A9
:1039E000072B0446028617D801229A4012F0330FA3
:1039F0000DD112F0C00F16D112F00C0F0CD0032B0A
:103A000019D02046FFF736FB002384F832302046D9
:103A1000BDE81040FFF734BA02F0AAF92046BDE82D
:103A20001040FFF72DBA042380F832302046BDE85D
:103A30001040FFF725BA5030FEF76EF90028E0D0AD
:103A400002F096F9DDE700BF2DE9F84305460E4682
:103A500017461C461BB3534B1B78012B09D002227F
:103A60005149227040F21232C4E901124F4BE36017
:103A7000FEE7002D00F08B80012F7ED9B7F5004FB7
:103A800052D048F201039F420CD0082246492270CE
:103A900040F21B32C4E90112444BE360FEE702F03E
:103AA00067F9D8E7424B2A689A4209D00C223E496E
:103AB000227040F21E32C4E901123C4BE360FEE783
:103AC00048F0EAF980462B6A23EA06032B62AE68C7
:103AD000002E45D0B6F89C30D6F8249003F00F03A2
:103AE000042B2CD0082B35D12B6AD6F89410194012
:103AF0002BD14E46002EEDD1404648F0D1F93B0483
:103B000001D4FEF7DDFE48F0C7F92D6A48F0C8F988
:103B100000222549227040F28132C4E90112234B70
:103B2000E3602846BDE8F883214B2A689A42BDD15C
:103B300048F0B2F980462B6A33432B62C7E7D6F8C8
:103B400094102B6A31EA0303D3D130460022FFF7E9
:103B500041FFCEE7404648F0A3F902F009F9C8E773
:103B6000404648F09DF91049104B2D6A26704FF4DD
:103B70005072C4E90112E360D3E70D4B2A689A4200
:103B800094D148F089F9012F80469CD0D3E70A22CE
:103B90000549227040F21532C4E90112034BE3607B
:103BA000FEE700BF35C100209452050024530500F4
:103BB000464C414770B4184B184A1E881568012EB0
:103BC00027D0B21E92B202EB420405EB840405F149
:103BD0000C031834002123F8041C43E903310C338F
:103BE000A342F8D1013202EB420205EB82030C49F9
:103BF0000C4C0022C3E900221A810D605D230A4D9E
:103C00008E80CA800A81C560C0E90143027070BC21
:103C100070472B46EBE700BF703F00206C3F002051
:103C200068C4002030530500A453050003464089B2
:103C300098B170B4094A1968D588948816680E60DE
:103C4000596811602D1A04440021D5809480C3F86E
:103C50000A10C3E9001170BC7047704768C40020A7
:103C600000238360036001814360C360704700BF2D
:103C7000F0B40446408900B365682A682E896868F4
:103C80000E806260BAB16289013A92B210496281D3
:103C90008E88CA880C682C600E4F0D60741C8C8056
:103CA000013AD424CA80C3E9017400260A4A1E706E
:103CB000DA60F0BC70472260E8E7064C08800F2508
:103CC000054A1D70B921C3E90141DA60F1E700BF7F
:103CD00068C4002030530500B45305002DE9F043BB
:103CE00046890589089CB54246D92F4DB5F804E0B0
:103CF000BEF1000F35D0D5F800C0B5F80690DCF85D
:103D00000070B5F808802F6009F10107BFB20EF10D
:103D1000FF3EB845A5F804E0EF8038BF2F81002EA4
:103D200034D013F0100338D10568C5F800C0C0F8CE
:103D300000C0CCF800300136B3B2438185899D4282
:103D400038BF83811948CCF8041000254FF49871CE
:103D5000174BACF808202570C4E90101E360BDE809
:103D6000F08311221149124B22704FF48272C4E980
:103D70000112E360BDE8F0831E220C490C4B227057
:103D8000FF22C4E90112E360BDE8F0830123C0E92A
:103D900000CC4381CCF80060D0E74368CCF8003019
:103DA000C0F804C0C7E700BF68C400203053050056
:103DB000C05305002DE9F041054688461446002A07
:103DC00036D048F071F8064640B120221E492270D4
:103DD0005222C4E901121D4BE360FEE75DB348F0D7
:103DE0005BF82C223146074628464EF0A2FC184BC1
:103DF00005F10800C5E90038FFF73CF81549164AF7
:103E00000B686E61C5E9063203B15D61134A0D604E
:103E1000138838460133138048F042F800220A49DB
:103E20000A4B22706C22C4E90112E360BDE8F08104
:103E300001F09EFFC5E70A22034922705522C4E91A
:103E40000112024BE360FEE7CC5305004854050025
:103E50004D55545898C40020D4EF050094C4002058
:103E60002DE9F04105460E461446CAB148F01CF84B
:103E7000074640B120227A492270A422C4E90112E7
:103E8000784BE360FEE7784B1B78012B0BD00222C6
:103E900073492270A722C4E90112724BE360FEE766
:103EA00001F066FFE2E705B3704B2A689A4208D03A
:103EB0000C226B492270AD22C4E90112694BE36008
:103EC000FEE747F0E9FF8046002E3FD0012E32D1B9
:103ED000D5F808C0BEB20222002160460137BCF10D
:103EE000000F0BD0FEF7D4FEF2E70A225C492270E5
:103EF000AA22C4E901125B4BE360FEE7D5E9052382
:103F0000002A00F093809361002B00F08D805A61AD
:103F1000C5E905CC564A686A1388013B138000281E
:103F20004AD0836B00F138029D42196A2CD003F10C
:103F300020020B46F8E747F0B3FF082248492270F9
:103F4000EF22C4E90112474BE360FEE7AB68002BA8
:103F50007AD1D5E90523002A6FD0002B61D0936177
:103F60005A61C5E9056642496B6A0A88013A0A80C6
:103F7000002B3ED003F138029B6B196A9D4237D06B
:103F800003F120020B46F8E7116090F8341090F826
:103F900033308B4210D0836B3F2243B19F6827B1EF
:103FA00097F83370BA4228BF3A461B6AF5E7914248
:103FB00028BF114601F036FC2E4A2F4B2A600027FD
:103FC0006B6005F10800C5E9087785F82870FEF7F1
:103FD00051FF404647F064FFFEF772FC2049214B39
:103FE0002770EA22C4E90112E3603046BDE8F0819F
:103FF0001160204A204B2A6000266B6005F1080002
:10400000C5E9086685F82860FEF734FF404647F0AA
:1040100047FF1349134B2670BF22C4E90112E36026
:10402000E3E796616E619EE76B6173E713490B608E
:1040300003B15A610023AB616CE7104A136003B10E
:104040005E610023AB618EE747F02AFF2E22044910
:10405000044B2270C222C4E90112E360C5E700BF2D
:10406000CC5305005854050035C100204D55545817
:1040700094C400204E4F4E454054050098C4002083
:104080002DE9F047089C054689469246D4B147F091
:104090000BFF48B120227649227040F22D12C4E96C
:1040A0000112744BE360FEE7734B1F78012F0CD0B5
:1040B00002226F4922704FF49872C4E901126D4BCD
:1040C000E360FEE701F054FEE1E7002D00F0B98067
:1040D000CAF30E034BB108226549227040F2371231
:1040E000C4E90112634BE360FEE7644B2A689A421D
:1040F00009D00C225E4922704FF49D72C4E901126E
:104100005C4BE360FEE747F0C7FE95F82860804609
:10411000002E00F083805A4F6B6A3A6893426CD04D
:104120001AF4004F5DD157490978F1B992F833106C
:1041300093F833208A4202D9184601F073FB4A46AD
:1041400004212846FEF7CAFC404647F0A9FEFEF7C8
:10415000B7FB47F0A1FE3B6893F831300546032BCF
:104160003CD8DFE803F031271D0F47F099FE2D22E0
:104170003F49227040F27512C4E901123D4BE360E1
:10418000BDE8F08722223A49227040F2A712C4E922
:104190000112384BE3602846BDE8F04747F080BE87
:1041A00031223349334B227040F2B112C4E901127B
:1041B000E360F0E721222E492E4B227040F29D123F
:1041C000C4E90112E360E6E700222949294B227085
:1041D00040F29312C4E90112E360DCE701F0C8FD8C
:1041E000D9E747F05DFE1D222149224B227040F2A3
:1041F0006912C4E90112E360C2E7FF2E2BD0013639
:1042000085F8286047F04CFE23221949194B22708B
:104210004FF4AE72C4E90112E360B1E7184B85F8C0
:1042200028701B686B629A6B2A629D6347F038FEA8
:104230000F49104B267040F24712C4E90112E360A7
:104240009EE70A220A49227040F23312C4E90112A1
:10425000084BE360FEE747F023FE1E220449054BAE
:1042600022704FF4A872C4E90112E36088E700BF2E
:10427000CC5305006454050035C100204D555458F9
:104280004CC400202CC100202DE9F04782B0054627
:1042900088461446D2B147F007FE48B1202269494A
:1042A000227040F24522C4E90112674BE360FEE749
:1042B000664B1B78012B0CD00222624922704FF40E
:1042C0001272C4E90112604BE360FEE701F050FD99
:1042D000E1E795B3C8F30E034BB1082259492270A8
:1042E00040F24F22C4E90112574BE360FEE7584BFE
:1042F0002A689A4209D00C225249227040F2522276
:10430000C4E90112504BE360FEE7DFF84CA147F02F
:10431000C3FDDAF800206B6A9342814617D047F05C
:10432000BFFD1B224749227040F25722C4E9011207
:10433000454BE36002B0BDE8F0870A224149227094
:1043400040F24B22C4E901123F4BE360FEE795F8CF
:104350002820013AD2B285F828204AB99A6B03F195
:1043600038019542106A0FD002F120010246F8E7A9
:1043700047F096FD23223349334B22704FF41A72D3
:10438000C4E90112E360D5E7AE680860002E4AD0A8
:1043900093F8330093F83470B84224D09A6B3F21DD
:1043A0005AB1D2F808C0BCF1000F04D09CF833C059
:1043B000614528BF6146126AF2E78F4228BF0F4667
:1043C000B84210D21846FEF75BFFDAF800303846E4
:1043D00083F8337000F0ACF8DAF80000FEF714FF51
:1043E0001C4BAE681F70012385F82830B26B2A621F
:1043F00000236E623146B563284600931A46FEF7E5
:104400005BFD484647F04CFD18F4004F01D1FEF724
:1044100057FA00220B490C4B22704FF42672C4E964
:104420000112E36086E76E6285F82860484647F02F
:1044300037FD0449044B267040F27522C4E901128D
:10444000E36077E7CC5305007054050035C10020C8
:104450004D55545848C400204CC40020836B3F2065
:1044600053B19A6822B192F83320904228BF104687
:104470001B6A002BF5D17047704700BF826B002A82
:104480003DD02DE9F04182B0054600F138081046D4
:1044900082424FF001074FF00006046A01D11EE08E
:1044A0001A46136A8342FBD12032D0F808C0146048
:1044B000BCF1000F1AD080F82870DCF838200262B6
:1044C000002345626146CCF838001A460096FEF794
:1044D000F3FC8CB1AA6B20468242046AE1D14246C9
:1044E000D0F808C01460BCF1000FE4D180F828C0F7
:1044F000C0F824C0002CEDD102B0BDE8F0817047B7
:10450000024B0022C3E90022704700BF24C10020F3
:1045100008B5064B186818B1FDF75CFEC0B208BDBF
:104520005868FDF757FE2030C0B208BD24C10020F6
:104530001F280A4A08D95168C0F13F00012303FA35
:1045400000F00843506070471168C0F11F0001235C
:1045500003FA00F008431060704700BF24C1002038
:104560001F280B4909D94B68C0F13F00012202FA0C
:1045700000F023EA00034B6070470B68C0F11F0096
:10458000012202FA00F023EA00030B60704700BF2B
:1045900024C100202DE9F8430546894617461C46EC
:1045A000C3B147F081FC064640B120222D4922705C
:1045B0005822C4E901122C4BE360FEE7002D48D0DD
:1045C0005FB90822274922705E22C4E90112264BF6
:1045D000E360FEE701F0CCFBE3E7244B1B88BB4222
:1045E00008D208221F4922706122C4E901121E4B21
:1045F000E360FEE747F050FC302231468046284613
:104600004EF097F81A4B2B60394605F12000C5F89B
:104610000490FFF725FB05F10800FEF72BFC154978
:10462000154A0B686E61C5E9063203B15D61134A34
:104630000D60138840460133138047F031FC00229F
:104640000849094B22707822C4E90112E360BDE8F1
:10465000F8830A22034922705B22C4E90112024B4B
:10466000E360FEE77C540500EC540500703F002039
:104670005155455574C40020D4EF050050C40020A6
:104680002DE9F84FDDE90A8481468B4692461F46A4
:10469000D4B147F009FC48B120226A49227040F2A7
:1046A0005312C4E90112684BE360FEE7674B1B78C5
:1046B000012B0CD00222634922704FF4AB72C4E983
:1046C0000112614BE360FEE701F052FBE1E7B9F153
:1046D000000F58D0002F4CD0CAF30E034BB1082264
:1046E000584922704FF4B072C4E90112564BE3608E
:1046F000FEE7574AD9F80010914209D00C225149DF
:10470000227040F26312C4E901124F4BE360FEE7EE
:10471000B8F1000F01D0C8F8003047F0BDFB2346C8
:1047200006464246394609F12000FFF7A1FA2378F0
:104730000546002B42D01AF4004F66D1454B1B783A
:10474000002B70D15A4605214846FEF7C7F930467E
:1047500047F0A6FBFEF7B4F847F09EFB3E4B1B6804
:1047600093F831200646032A4AD8DFE802F04039A0
:104770002D160A22334922704FF4AE72C4E9011299
:10478000314BE360FEE70A222E49227040F25912B3
:10479000C4E901122C4BE360FEE700233B80B8F133
:1047A000000F01D0C8F8003022222649227040F2C2
:1047B000AD12C4E90112244BE3600025304647F0F6
:1047C0006FFB2846BDE8F88F00251E493D80312348
:1047D00040F2B91223701C4BE360C4E90112EDE70B
:1047E0000025212317493D8040F2A312F2E7B3F8D8
:1047F00074201D6F13493A80002340F29712E9E7B5
:1048000000253D8001F0B4FAD8E7304647F048FB78
:104810001D220C490C4B227040F27712C4E90112A0
:10482000E3600025CDE7304647F03AFB2D220549ED
:10483000054B22704FF4BF72C4E90112E3600025FA
:10484000BFE700BF7C540500F854050035C10020C7
:10485000515545552CC100204CC400202DE9F04F86
:1048600083B00C9C0546884691461E460CB33A4BD5
:104870001B78012B09D00222384922704FF417729D
:10488000C4E90112364BE360FEE7002D4AD026F45E
:1048900004739BB283B9334B2A689A4219D00C2215
:1048A0002E4922704FF41B72C4E901122C4BE360B5
:1048B000FEE701F05DFADAE7B3F5004FEBD008222E
:1048C0002649227040F26922C4E90112244BE360B8
:1048D000FEE747F0E1FAA968074669B306F4007AF3
:1048E0000023D1F824B0009342464B462846FEF7F9
:1048F000E3FABAF1000F02D059460029F0D1384648
:1049000047F0CEFA330401D4FDF7DAFF0022134951
:10491000134B22704FF42872C4E90112E36003B014
:10492000BDE8F08F0A220D49227040F25F22C4E9EF
:1049300001120B4BE360FEE7CDE9001405F1200006
:1049400006F010034A464146FFF7C8F9384603B05F
:10495000BDE8F04F47F0A4BA35C100207C540500F3
:1049600000550500515545552DE9F8430546884643
:1049700091461C46002B38D047F096FA064640B1C7
:104980002022204922705822C4E901121E4BE36004
:10499000FEE76DB347F080FA2422314607462846E9
:1049A0004DF0C7FE194BC5F82090C5E9003805F158
:1049B0000800FEF75FFA1649164A0B686E61C5E9F2
:1049C000063203B15D61144A0D6013883846013325
:1049D000138047F065FA00220A490B4B22707322BC
:1049E000C4E90112E360BDE8F88301F0C1F9C3E74F
:1049F0000A22044922705B22C4E90112024BE360DF
:104A0000FEE700BF085505008455050053454D419C
:104A100040C40020D4EF050078C400202DE9F04107
:104A200005460E461446CAB147F03EFA074640B165
:104A300020225B492270A822C4E90112594BE3608D
:104A4000FEE7594B1B78012B0BD0022254492270F0
:104A5000AB22C4E90112534BE360FEE701F088F991
:104A6000E2E705B3514B2A689A4208D00C224C4920
:104A70002270B122C4E901124A4BE360FEE747F01D
:104A80000BFA8046002E49D0012E3CD1D5F808C043
:104A9000BEB20222002160460137BCF1000F0BD0EC
:104AA000FEF7F6F8F2E70A223D492270AE22C4E989
:104AB00001123C4BE360FEE7D5E90523002A53D001
:104AC0009361002B4ED05A61C5E905CC384A39496B
:104AD000138839486860013B0027138005F10800FE
:104AE00029602F62FEF7C6F9404647F0D9F9FDF775
:104AF000E7FE2B492B4B2770DC22C4E90112E3604F
:104B00003046BDE8F08147F0CBF9082224492270F5
:104B1000E122C4E90112234BE360FEE7AB68002BFE
:104B200033D1D5E905234AB32BB393615A61C5E963
:104B300005661F4A1F4913881F486860013B00260D
:104B4000138005F1080029602E62FEF793F94046B4
:104B500047F0A6F91249134B2670C022C4E901128E
:104B6000E360CDE76B61B1E714490B6003B15A61B3
:104B70000023AB61AAE796616E61DAE70F4A136022
:104B800003B15E610023AB61D3E747F089F92E22C0
:104B90000349044B2270C322C4E90112E360AFE76A
:104BA000085505009055050035C1002053454D417D
:104BB00078C400204E4F4E457C55050040C400206F
:104BC0002DE9F047089C06468A461746D4B147F0BF
:104BD0006BF948B120225F4922704FF48E72C4E90C
:104BE00001125D4BE360FEE75C4B1B78012B0CD0A0
:104BF00002225849227040F21F12C4E90112564B9A
:104C0000E360FEE701F0B4F8E1E7002E3FD0C7F320
:104C10000E08B8F1000F09D008224E4922704FF457
:104C20009372C4E901124C4BE360FEE74C4B3268CF
:104C30009A4209D00C224749227040F22912C4E955
:104C40000112454BE360FEE747F026F9356A8146DD
:104C5000002D71D13B0463D4424B1B78002B53D100
:104C6000524606213046FDF739FF484647F018F90D
:104C7000FDF726FE47F010F93B4B1B6893F83130E7
:104C80000546032B3BD8DFE803F030261C0C0A2234
:104C9000304922704FF49172C4E901122E4BE36047
:104CA000FEE722222B4922704FF4BD72C4E90112A3
:104CB000294BE3602846356A47F0F2F82846BDE8FC
:104CC000F08731222349244B22704FF4C272C4E989
:104CD0000112E360EEE721221E491F4B22704FF4C0
:104CE000B872C4E90112E360E4E7002219491A4BE3
:104CF00022704FF4B372C4E90112E360DAE747F0BF
:104D0000CFF801F035F8D5E747F0CAF82D22114960
:104D1000114B227040F24F12C4E90112E360CDE75B
:104D200047F0BEF81D220B490B4B227040F2431294
:104D3000C4E90112E360C1E7013D356247F0B0F814
:104D40000449054B84F8008040F23512C4E9011291
:104D5000E360B3E7085505009C55050035C1002008
:104D600053454D412CC100204CC400202DE9F04F8B
:104D700083B007468846144612B3414B1B78012B7B
:104D800009D002223F49227040F21322C4E90112E5
:104D90003D4BE360FEE7002F4AD047F6FF5318EA89
:104DA000030510D1394B3A689A4216D00C22354986
:104DB000227040F21F22C4E90112334BE360FEE788
:104DC00000F0D6FFD9E708222E4922704FF407726F
:104DD000C4E901122C4BE360FEE747F05DF8BE68C2
:104DE00081467EB308F4007A0023D6F824B00095FB
:104DF0001A4631463846FEF75FF8BAF1000F02D086
:104E00005E46002EF0D1484647F04AF818F4004FAD
:104E100001D1FDF755FD1B491B4BE36040F24F22CA
:104E2000C4E9011200252570284603B0BDE8F08FC3
:104E30000A221449227040F21622C4E90112124BD0
:104E4000E360FEE73D6A6B1C0CD001353D6247F024
:104E500027F80C490C4B267040F23922C4E90112A4
:104E6000E360E1E747F01CF81E220649064B22707A
:104E700040F22E223546C4E90112E360D4E700BFB8
:104E800035C1002008550500A855050053454D4182
:104E90002DE9F041054688461446DAB147F004F89A
:104EA00048B120222049227040F27122C4E9011247
:104EB0001E4BE360FEE74DB31D4B2A689A420CD0AF
:104EC0000C221949227040F27722C4E90112174BD3
:104ED000E360FEE700F04CFFE0E7134F134E207055
:104EE00040F27923C4E90173E66046F0D5FF2B6AEE
:104EF000B3B9AB68A3B12E2240F282236760E660AB
:104F00002270A360BDE8F04146F0CABF0A220649FC
:104F100022704FF41D72C4E90112044BE360FEE7F6
:104F2000C5F82080EEE700BF08550500B455050020
:104F300053454D412DE9F84F0A9C83460D461746CF
:104F40009846D4B146F0B0FF48B1202258492270AB
:104F50004FF42572C4E90112564BE360FEE7564B4D
:104F60001B78012B0CD002225149227040F297226B
:104F7000C4E901124F4BE360FEE700F0F9FEE1E700
:104F8000002F4ED0C5F30E034BB1082248492270C2
:104F900040F29E22C4E90112464BE360FEE7B8F1FD
:104FA000000F01D0C8F8003046F076FFDFF810A1FE
:104FB0008146DAF800002346783042463946FEF74B
:104FC00057FE2378064633B32B0463D43B4B1D783E
:104FD000002D51D15A4602212846FDF77FFD484653
:104FE00046F05EFFFDF76CFC46F056FFDAF8003045
:104FF00093F83120012A81462DD01FD3032A1AD1DC
:105000002B493D8040F2F9222223C4E9011223708A
:10501000284BE3602E46484646F042FF3046BDE846
:10502000F88F0A222249227040F29A22C4E9011222
:10503000204BE360FEE700F09BFEECE7B3F8742042
:105040001B491E6F3A801B4B257040F2E322C4E9D6
:105050000112E360DFE73D80B8F1000F01D0C8F82E
:10506000005021221249134B227040F2ED22C4E974
:105070000112E3600026CEE7484646F011FF2D22DC
:105080000B490C4B22704FF43172C4E90112E360FA
:105090000026C3E71D220649064B22704FF42F72EB
:1050A0004846C4E90112E36046F0FAFE0026B5E77F
:1050B000C05505005856050035C100202CC1002000
:1050C0004CC400202DE9F04F83B00C9C0546884667
:1050D00093461F46DCB13D4B1B78012B09D00222C1
:1050E0003B4922704FF45F72C4E90112394BE3600F
:1050F000FEE747F6EF733B400CD00822344922709C
:1051000040F28232C4E90112324BE360FEE700F064
:105110002FFEE0E7DFF8B8A02370DFF8B890C4F8FE
:105120000C904FF46373C4E901A346F0B5FE064644
:105130000DB9294B1D6895F83230052B19D8042B71
:1051400005D2012B03D995F83030022B24D04FF033
:10515000000C05F1780001943B465A464146CDF8D3
:1051600000C0FEF7BBFD304603B0BDE8F04F46F08F
:1051700097BE072BE7D9FF2B1FD1304646F090FE94
:105180001F2240F2BE33C4F804A0C4F80C90227071
:10519000A36003B0BDE8F08F00205B46424629467D
:1051A0000090FDF789FE304646F07AFE3B04F0D4CD
:1051B00003B0BDE8F04FFDF783BB304646F070FE0C
:1051C00003B0BDE8F04F00F0D3BD00BF35C10020F3
:1051D000C0550500645605004CC400202DE9F84375
:1051E00081460E461C46D3B146F05EFE48B12022F1
:1051F0005049227040F2DA42C4E901124E4BE3609A
:10520000FEE74E4B1B78012B0CD00222494922703D
:1052100040F2DD42C4E90112474BE360FEE700F0D3
:10522000A7FDE1E716B3B6F5004F09D008224149C2
:10523000227040F2E142C4E901123F4BE360FEE715
:1052400046F02AFE3E4B1B685D6C0746002D40D1A0
:1052500046F026FE1D223749227040F20252C4E970
:105260000112354BE3602846BDE8F883DFF8D080B3
:1052700046F012FED8F800305D6C07464DBB314B4E
:105280001B78002B4AD14A4607213046FDF726FC01
:10529000384646F005FEFDF713FB46F0FDFDD8F855
:1052A000003093F83130012B05462DD023D3032B4A
:1052B0001ED122221F49227040F24152C4E901123C
:1052C0001D4BE360D8F8003028465D6C46F0E8FDE1
:1052D000C9E7013D5D64384646F0E2FD002215490C
:1052E000154B227040F2F542C4E90112E360BAE7BF
:1052F00000F03EFDE6E70F490F4B267040F22D52BD
:10530000C4E90112E360DDE721220A490A4B227059
:1053100040F23752C4E90112E360D3E746F0C0FD22
:105320002D220449044B227040F20E52C4E90112AE
:10533000E36098E7C05505007056050035C10020B0
:105340004CC400202CC100202DE9F04782B0064655
:105350008A461446D2B1444B1B78012B09D0022255
:105360004249227040F2BB52C4E90112404BE36053
:10537000FEE7CAF30E0363B108223C49227040F2F3
:10538000BF52C4E901123A4BE360FEE700F0F0FCC3
:10539000E1E746F081FD07460EB9364B1E68DFF89F
:1053A000D080DFF8C890C4F804904FF4BA63C4E921
:1053B00002380025257096F83230052B13D8042BBF
:1053C00047D2012B45D996F83030072B30D0756C79
:1053D0006B1C19D001357564384646F061FD2846CE
:1053E00002B0BDE8F087072BEDD9FF2B1AD1384664
:1053F00046F056FD1F2240F23963C4F80490C4F809
:105400000C802270A360EAE7384646F049FD1E2270
:1054100040F22663C4F80490C4F80C802270A360A4
:105420000025DCE7384646F03BFD00F0A1FCD6E75E
:105430000023184600931A463146FDF73DFD3846D5
:10544000756C46F02DFD1AF4004FC8D1FDF738FAFF
:10545000C5E7756C6A1CBDD1384646F021FD1E2299
:1054600040F2EF53D6E700BF35C10020C05505001C
:10547000805605004CC40020F8B505460F4614467A
:1054800042B346F011FD48B120221A49227040F281
:105490006462C4E90112184BE360FEE746F0FCFCCD
:1054A0000DB9164B1D6895F832309B0703D595F85A
:1054B0003030072B11D06E6C6F6446F0F1FC002287
:1054C0000C49227040F27562C4E901120A4BE36094
:1054D0003046F8BD00F04CFCD3E746F0E1FC2E224C
:1054E0000449054B227040F26E62C4E90112E36088
:1054F0000026EDE7C0550500905605004CC400207D
:1055000030B4084B084C0949094A436040F2FD7326
:10551000084D836000232360C5600B80136030BC9E
:1055200003707047C055050058C4002064C40020B3
:1055300060C40020A056050010B50446C02200211A
:105540004DF0F7F8164BE360002104F17800FEF708
:1055500087FB4FF08043402123630023114A84F8E6
:10556000341084F8A83084F84830C4F8BC20C4F85B
:105570009430A4F89C30C4F89830C4E92833C4E9C6
:105580002233C4F890306364E363C4E92B33A4F896
:105590004030E364C4E91A33A363C4E92D3310BD7A
:1055A00034560500D4EF05002DE9F04F89B0DDE950
:1055B00013650395BDF858500495DDE917951A9CBD
:1055C00006959DF848A0159FBDF864800591054695
:1055D0009346029314B346F067FC40B120228849F9
:1055E0002270F022C4E90112864BE360FEE7002D31
:1055F00000F0FC80BBF1000F00F0EF80002E00F007
:10560000E380814A1268BA420BD908227C49227091
:10561000FC22C4E901127B4BE360FEE700F0A8FB2B
:10562000D9E7039A974208D8082275492270FF22C9
:10563000C4E90112734BE360FEE7BAF13F0F09D9E9
:1056400008226F4922704FF48172C4E901126D4B38
:10565000E360FEE76D4A049912888A4209D2082263
:10566000674922704FF48372C4E90112654BE3600D
:10567000FEE707902846FFF75FFF079B604A23700D
:1056800040F20B13C4E9012318F0030F5D4BE360F4
:1056900040F08D80039B029923F0070306EB830300
:1056A000CDE90078324658460393FCF781FE8642E6
:1056B0000CD9534B636032224FF494735149E1602B
:1056C0002270A360079000F053FB0798029B2B62A7
:1056D000059BEB60039BC5F81CB085F833A085F8EB
:1056E00034A02860AB60C5F86890B9F1000F46D1CE
:1056F000474B1C68FCF7CEFB464B1A684FF0000B7B
:1057000002F1FF3AE0FB04AB4B46504659464CF0E1
:1057100025FDE866069B6B6000240499AE6105F1E7
:105720007800EF63A5F84080C5E92244C5F89040B1
:10573000FEF796FA2846FCF723FE46F0ADFB064638
:1057400095F83300FEF7F4FE2846FDF75DFD32497B
:10575000C5F8B4400B68C5F8B8300BB1C3F8B45005
:105760002E4A2F48138800780D60013301281380DA
:10577000304615D009B0BDE8F04F46F091BBFCF7BC
:1057800089FB244B1A684FF0000B02F1FF3AE0FB53
:1057900009AB5046594600234CF0E0FCE866B9E7F7
:1057A00046F07EFB09B0BDE8F04FFDF789B818F070
:1057B000020F3FF46FAF00231A46BB423FF46AAFBB
:1057C00046F823200133F8E70A220D492270F92216
:1057D000C4E901120B4BE360FEE70A22084922707C
:1057E000F622C4E90112074BE360FEE70A220449EE
:1057F0002270F322C4E90112024BE360FEE700BF0E
:10580000C05505003C560500B4510500703F00200E
:105810007CC40020783F002058C4002064C40020CD
:1058200035C10020F8B590F8336004460D460127D5
:1058300094F83230052B35D8042B30D2012B2ED0E2
:1058400010D82046FDF71CFD284684F83350FEF79B
:105850006FFE264B1B68A342204630D0BDE8F840BF
:10586000FDF7D2BC94F8303084F83350082B1DD8A3
:1058700007FA03F313F4B17F33D113F0840F10D17F
:10588000DB0613D52046FDF7BFFAE36AB5425C6A32
:1058900010D394F83330B34215D01E46C8E784F8CD
:1058A0003350F8BD072BDDD9FF2BFAD0BDE8F84007
:1058B00000F05EBA94F83360AE42B9D8F8BDBDE8E6
:1058C000F840FDF783BC2046FEF7C8FD94F834503D
:1058D00094F83360854228BF0546EDB2AE42A7D1A9
:1058E000F8BD2046BDE8F840FDF78EBA4CC4002054
:1058F0002DE9F0470D4630B946F0CEFA5B4B1C68F7
:1059000046F0CEFA00E0044646F0C6FA94F832308B
:10591000DFF86491DFF86481042B824666D006D8F4
:10592000012B26D016D82046FDF7AAFC5EE0072BF7
:1059300002D8062B1DD30DE0FF2B53D146F0B0FA51
:105940001F2240F20523C5F80490C5F80C802A7088
:10595000AB604BE094F83020082A40D801239340F4
:1059600013F0850F0BD094F8323003F0FB03032BB8
:105970003CD104F15000FCF7CFF9B8B334E013F494
:10598000B17F02D1DB062AD503E02046FDF778FA85
:10599000E9E7E36A5E6A204696F83370FDF770FA2D
:1059A00096F8333096F834209A420CD094F833208D
:1059B0009A4208D13046FEF751FD96F8347087427E
:1059C00028BF0746FFB2002384F8303096F8333002
:1059D000BB42C8D039463046FFF724FFC3E700F08A
:1059E000C7F9C0E746F05CFA00F0C2F9A36B13B147
:1059F0002046FEF743FD04F17800FEF717F9204634
:105A0000FCF7C6FCD4E92D2342B919490B600BB150
:105A1000C3F8B4200023C4F8B8300CE023B9C2F8AE
:105A2000B830C4F8B43006E00021C2F8B830C3F88A
:105A3000B420C4E92D110F4A13882046013B13807E
:105A4000FFF77AFDFF2384F83230504646F028FAFB
:105A5000002240F22D23C5F80490C5F80C802A706E
:105A6000AB60BDE8F047FCF72BBF00BF4CC4002083
:105A700058C4002064C40020C05505004C560500E1
:105A800038B505460C46D1B146F00EFA48B1202291
:105A90000F49227040F2B512C4E901120D4BE360C8
:105AA000FEE70D4B1B78012B0CD002220849227017
:105AB0004FF4DC72C4E90112064BE360FEE700F02C
:105AC00057F9E1E721462846BDE83840FFF710BF07
:105AD000C05505004C56050035C1002000B585B005
