:1000000000000820ED0200001903000019030000A1
:100010001903000019030000190300001903000070
:100020001903000019030000190300001903000060
:100030001903000018030000AB430300190300007C
:100040001903000019030000D12E0000E54E030043
:100050001903000019030000FD040000190300004B
:100060001903000019030000190300001903000020
:1000700019030000394F03001903000019030000A1
:100080001903000019030000190300001903000000
:1000900019030000190300001903000019030000F0
:1000A00019030000190300001903000019030000E0
:1000B000190300001903000019030000BD4B0300E1
:1000C00019030000190300001903000019030000C0
:1000D00019030000190300001903000019030000B0
:1000E00019030000190300001903000019030000A0
:1000F0001903000019030000190300001903000090
:10010000190300001903000019030000190300007F
:10011000190300001903000019030000190300006F
:100120001903000019030000C99F02001903000011
:10013000190300001903000019030000190300004F
:10014000190300001903000019030000190300003F
:1001500010B5054C237833B9044B13B10448AFF301
:1001600000800123237010BD7004002000000000F7
:10017000FC690F0008B5034B1BB103490348AFF3FB
:10018000008008BD0000000074040020FC690F001E
:10019000154B002B08BF134B9D46A3F5803A002159
:1001A0008B460F461348144A121A3CF022FA0F4BA2
:1001B000002B00D098470E4B002B00D09847002012
:1001C000002104000D000D48002802D00C48AFF3B8
:1001D00000803CF083F92000290034F027FE3CF039
:1001E00069F900BF000008000000082000000000BE
:1001F0000000000070040020E00D0220000000005C
:100200000000000008B501210A4803F017F9012198
:10021000094803F013F9002304221846114605F09B
:100220002FFF002318460422052105F029FF002096
:1002300008BD00BF4041050000550A00012821D833
:1002400038B5124B13F8304003EBC002082C556848
:1002500012D84FF6FF732B41DB070DD504EB440496
:100260000B4B05EBC41423449B001868A0F101005C
:10027000B0FA80F0400938BD40F2F631054802F08E
:100280006BFEEBE74FF0FF30704700BFF0DE03007E
:100290006000C4108CDE030001281FD838B5114B54
:1002A00013F8304003EBC002082C556810D84FF605
:1002B000FF722A41D3070BD504EB4404240104F157
:1002C000804404F508240123AB40A361002038BD1D
:1002D00040F22641044802F03FFEEDE74FF0FF30C8
:1002E000704700BFF0DE03008CDE03000648804745
:1002F0000649074A074B9A42BEBF51F8040B42F821
:10030000040BF8E7FFF744FF39040000086A0F0008
:100310000000002070040020FEE700BF1D4BD3F852
:10032000943003F00703023B042B2DD8DFE803F0E1
:1003300017031A1D21004FF40043164A1649D2F83C
:100340000001D2F80821C0F30420C2F308220132D0
:100350000130B3FBF0F0B0FBF2F0086070470F4BD8
:100360001B68EAE70E4B1B68E7E70E4B1B685B0850
:10037000E3E7084B9B68C3F30443073B072B06D80E
:10038000094A52F82330D8E7064B1B68D5E700230B
:10039000D3E700BF00400E40000000200400002012
:1003A0000C0000200800002000DF03000048704718
:1003B00000A24A04184BD3F8943003F00703023B21
:1003C000042B24D8DFE803F00E03111418004FF4B7
:1003D0000040114BD3F80031C3F304230133B0FBC9
:1003E000F3F070470D4B1868F3E70D4B1868F0E712
:1003F0000C4B18684008ECE7074B9B68C3F30443B9
:10040000073B072B06D8084A52F82300E1E7054BC3
:100410001868DEE70020DCE700400E400400002002
:100420000C0000200800002000DF0300014B1868CA
:10043000704700BF04000020044B054A9A60D3F8BF
:10044000882042F47002C3F88820704700ED00E075
:10045000000000004FF40040704700BF4FF47A7076
:10046000704700BF014B1868704700BF0C000020A8
:1004700000207047FEE700BF4FF400534B600020A0
:10048000704700BF01207047012070474FF0FF30D8
:10049000704700BF0020704770B57AB10D46164610
:1004A000002404E00134A64205F8010B04D000F05A
:1004B000B9F8431CF6D10CB1204670BD4FF0FF34A3
:1004C000FAE700BF044A05491368002B08BF0B4632
:1004D00018441060184670478C040020E00D02207C
:1004E00070B5161E07DD0C468D1914F8010B00F0CF
:1004F000CDF8A542F9D1304670BD00BF1048036960
:100500001B0609D570B50F4C2368072B05DDC36C9E
:1005100023F00403C36470BD70470B4D2E6806F0D2
:1005200023F90A4B98552B6801332B60236801335C
:1005300023602B68082BEED100232B6070BD00BF19
:10054000000001409C040020A4040020940400202A
:100550000030024B18BF0120187070479004002033
:1005600070B588B001212748274D284E02F066FF5C
:100570000121274802F062FF0422104601230721CF
:1005800005F07EFD012302220621042005F078FDFE
:100590000FCD01AC0FC495E8070084E807000121E6
:1005A0001C4802F04BFF08A9002401F81C4D3046FE
:1005B00005F0AEFF03237367B26F174B22F4E062BE
:1005C00022F0070242F480720420402142F001022E
:1005D000B267B064C3F88011F26C0243F264304633
:1005E0001960052105F062FF0C4B1A68214623466D
:1005F000906802223CF018F9094B01221A7008B0E9
:1006000070BD00BF4041050020DF03000000014035
:1006100000550A000072040000E100E0980200208A
:100620009104002010B5144B1B78F3B105F072F85B
:10063000124A1368002B1BDD114B124C1968645CC5
:100640001968013119601968082904BF002119606F
:1006500013680D49013B1360CB6C43F00403E4B213
:10066000CB6405F05BF8204610BDFFF779FFDDE7AE
:100670004FF0FF34F5E700BF910400209C040020F8
:10068000A0040020940400200000014010B50E4B8F
:100690001B78044653B10D4B1B780BB10A2C08D0C4
:1006A00021460B4806F066F8204610BDFFF758FFBC
:1006B000F1E70D21064806F05DF82146044806F0F2
:1006C00059F8204610BD00BF91040020900400207E
:1006D000000001402DE9F041254D2B6893F82232AE
:1006E0000E461907074690462CD4424631463846F6
:1006F00039F0A4FA044650BB2B6893F82222D206A4
:1007000025D5012F2ED0B3F80632012B1FD8464431
:1007100036F8026CC6F30B06CEB9424639460220C3
:1007200039F088FA40F60833984210D12A6892F8D6
:10073000223243F00803304682F82232BDE8F0410D
:1007400038F004BF012038F001FF044610B1204604
:10075000BDE8F0812A6892F8223223F0080382F87B
:100760002232C2E73288C2F30B02002ACBD0EEE776
:10077000646B00202DE9F04182B0294D2B6893F87D
:1007800022321A0706460F4619D404220DEB020145
:10079000304639F053FA044650B92A6892F82232AA
:1007A000DB0605D5012E18D0B2F80632012B1BD975
:1007B000BDF804303B80204602B0BDE8F081012046
:1007C00038F0C4FE04460028F2D12A6892F822329A
:1007D00023F0080382F82232D7E7BDF80430C3F3D0
:1007E0000B010029E0D0E5E7BDF80680C8F30B084F
:1007F000B8F1000FDCD131460422022039F01AFA98
:1008000040F608339842D3D12A6892F8223243F056
:100810000803404682F8223238F098FE0446C7E7C3
:10082000646B002030B583B0134C8DF8041023683E
:1008300093F82232090A00221B078DF8051005469D
:10084000ADF8062007D4042228460DEB020139F04A
:1008500053FA03B030BD012038F078FE0028F8D1FB
:1008600038F0AAFE0028F4D1226892F8223223F050
:10087000080382F82232E6E7646B0020F8B5254DC4
:100880002B6893F822320F461907064613D4042228
:100890003946304639F0D2F9044650B92B6893F8FE
:1008A0002222D20605D5012E13D0B3F80632012B31
:1008B00015D92046F8BD012038F048FE044600282E
:1008C000F7D12A6892F8223223F0080382F8223204
:1008D000DDE73A88C2F30B02002AE6D0E9E77F8819
:1008E000C7F30B07002FE4D131460422022039F070
:1008F000A1F940F608339842DBD12A6892F82232F7
:1009000043F00803384682F82232BDE8F84038F058
:100910001DBE00BF646B002030B583B0104C019148
:10092000236893F822321B07054607D40422284681
:100930000DEB020139F0E0F903B030BD012038F0D1
:1009400005FE0028F8D138F037FE0028F4D12268DF
:1009500092F8223223F0080382F82232E6E700BF41
:10096000646B0020F8B5224D2B6893F822320F46B5
:100970001907064611D43A463146022039F05EF98D
:10098000044640B92B6893F82222D20603D5B3F867
:100990000632012B0FD92046F8BD012038F0D6FDD4
:1009A00004460028F7D12A6892F8223223F008037F
:1009B00082F82232DFE73E4436F8026CC6F30B06BB
:1009C000002EE8D102213A46084639F033F940F6C4
:1009D00008339842DFD12A6892F8223243F00803A4
:1009E000304682F82232BDE8F84038F0AFBD00BF93
:1009F000646B002070B50F4C236893F822321B07FC
:100A000005460E4606D4324629460220BDE870400F
:100A100039F072B9012038F099FD50B938F0CCFDA9
:100A200038B9226892F8223223F0080382F8223281
:100A3000E9E770BD646B0020B2F5005F1DD270B5B0
:100A400082B0204E0190336893F8223214461A0780
:100A50000D4614D4042210460DEB020139F04CF976
:100A600048B9336893F822321B0719D42246294625
:100A7000052039F041F902B070BD212070470120F6
:100A800038F064FD0028F6D138F096FD0028F2D148
:100A9000326892F8223223F0080382F82232D9E732
:100AA000012038F053FD0028E5D138F085FD0028FD
:100AB000E1D1326892F8223223F0080382F8223220
:100AC000D4E700BF646B002030B583B01E4C0090AB
:100AD000236893F822321A070D4613D404221046D5
:100AE000694639F009F958B92368019593F822321B
:100AF0001B0718D404220DEB0201052039F0FCF885
:100B000003B030BD012038F021FD0028F8D138F0C5
:100B100053FD0028F4D1226892F8223223F0080312
:100B200082F82232DAE7012038F010FD0028E7D100
:100B300038F042FD0028E3D1226892F8223223F0F7
:100B4000080382F82232D5E7646B0020F0B585B047
:100B5000474D03902B6893F822321C070E4675D43C
:100B60000422104603A939F0C7F8042201A9002085
:100B7000FFF7B0FD2A68019B92F8222243F400534C
:100B80001007029351D4042202A9002039F0B4F8CE
:100B9000142417E004220DEB0201002039F04EF876
:100BA00040B92B6893F82222D20603D5B3F8063257
:100BB000012B20D9019B9B0416D5012038F012FD92
:100BC000013C11D02B6893F822321907E2D501209D
:100BD00038F0BCFC0028EDD12A6892F8223223F0CC
:100BE000080382F82232D5E7314604220520FFF7B8
:100BF00071FD05B0F0BDBDF80670C7F30B07002FFF
:100C0000D8D104223946022039F014F840F60833CE
:100C10009842CFD12A6892F8223243F0080338462E
:100C200082F8223238F092FCC4E7012038F08EFCC2
:100C30000028ADD138F0C0FC0028A9D12A6892F86C
:100C4000223223F0080382F822329CE7012038F098
:100C50007DFC002889D138F0AFFC002885D12A68B6
:100C600092F8223223F0080382F8223278E700BF9C
:100C7000646B0020074B1B6803EBD00300F00700F8
:100C800093F85022012303FA00F0024214BF1846E1
:100C900000207047646B002030B58DB00CAC00258F
:100CA00004F8241D202201460DF10D0002953BF0B1
:100CB0007CFC02AA009221462B462122272001F02B
:100CC000DFF820B9029B2721586801F0F5FC0DB030
:100CD00030BD00BFF0B58BB0444D2868022480F8C9
:100CE00080426822002100F281203BF082FC2246F3
:100CF0006823002428216846CDE900442E6801F0CD
:100D000001FD044608B30098B0B10222282101F089
:100D10002DFD8CB9E52038F06FFC044660B92B68D6
:100D2000B3F88122002A41D003F28123019358684D
:100D30009E2846D040F6143439F0CCF92B680022B6
:100D4000204683F880220BB0F0BD009B01221F1DBE
:100D500058719871D87106F223211A71384639F00A
:100D6000AFF804460028CED1391D202202A83BF05E
:100D70001CFC68220099282001F038F8044600285D
:100D8000C1D101AA41F28831282038F03FFC044645
:100D90000028B8D1019B2821586801F08DFC044639
:100DA00000980028B1D1002CB4D0C5E701AA41F2C7
:100DB0008831E52038F02AFC04460028BCD1019B8C
:100DC000B5E7E52101F078FC04460028B4D1296894
:100DD0000198C1F84442C1F84842C1F84C4202AA05
:100DE00001F2232139F0D2F80446A5E7646B002014
:100DF00030B58DB00D4600240146202203A8029490
:100E00003BF0D3FB02AA0092234603A92422292007
:100E10000B9501F035F818B1044620460DB030BDF1
:100E2000029B4E21586801F047FC044668B10299C4
:100E300003A8083120223BF0A9FB40F60433002828
:100E400018BF1C4620460DB030BD054B02991868EE
:100E50000831202200F514703BF0A7FBE7E700BF44
:100E6000646B0020F0B585B0264CD4F800C09CF827
:100E70008032022B41D00CEBD003012500F007009B
:100E800093F8503205FA00F0184034D013880868FF
:100E90000D3323F00F0316460233DCF84C22039285
:100EA0009BB20F463380991E0CF51C7201AB4FF0BC
:100EB000000CCDE901CC39F075F9E0B924683A6845
:100EC000D4F84C3222F8043CC3F30D412B4441F4D6
:100ED0008041B3F1005F22F8021CA2F10402C4F8C1
:100EE0004C3204D994F880320BB984F8805233889C
:100EF000143333803A6005B0F0BD2828BBD0012000
:100F000005B0F0BD646B0020F8B50468E3789B0978
:100F100010D0022B0CD1284DB4F802C02A68274B00
:100F20002788D2F8486203EA0C433B439E4212D022
:100F30000120F8BD204AA378126802EBD30203F027
:100F4000070392F85012012202FA03F3194214BF68
:100F500010460020F8BD064602F51C721839A01D87
:100F600039F0CAF80028E4D12B68D3F848220132BE
:100F700022F04042B2F1005FC3F8482204D8D3F80F
:100F80004422B2F1005F05D993F8802212B9012200
:100F900083F880223268111D3160927903EBD2030D
:100FA00002F0070293F85012012303FA02F21142F1
:100FB0000CBF18460020F8BD646B00200000FF3F06
:100FC000064B1B6893F88022012A01D0002070474D
:100FD000022283F8802239F013B900BF646B00202D
:100FE0002022FF213BF005BB10B4CC080122035D99
:100FF00001F0070102FA01F123EA010101555DF850
:10100000044B7047F0B583B00C4F0646642401A929
:101010003846FFF79BFD054660B9019BB3424FF090
:10102000010007D038F0DEFA013CF0D1019B9E426E
:1010300018BF0725284603B0F0BD00BF10C0000947
:101040002DE9F04F89B09DF84C4002940090BDF816
:101050005040BDF8605003944FF0000C43209DF8C1
:101060004890BDF85870019388469246CDE905CC6A
:10107000FFF700FE6C1C24F00104012804F178063F
:101080002DD104F1760313F00F0318BFC3F1100341
:101090008C341C442246022105A838F02BFA8346E2
:1010A000002874D0BBF1070F0FD0059C4CB1432032
:1010B000FFF7E0FD01280CBF201F2046022138F079
:1010C0002FFA584609B0BDE8F08F584A1168B1F8B8
:1010D0000622002AE9D0013AA1F80622E5E73246C5
:1010E000022105A838F006FA83460028DAD1014625
:1010F000324605983BF07DFA059C039B0099C4F8A5
:101100000480B9F1060F08BF02236386BDF80430DE
:10111000E38500209DF8083084F831304246E070C5
:1011200084F83090A786A4F8765004F108003BF0CC
:101130003CFA3A46159904F136003BF036FA2A4655
:10114000179904F178003BF030FA04F12800BAF165
:10115000000F25D0514606223BF027FA059BADF83B
:101160001260079338F094FA834600289AD12F4CE6
:101170002F4B22681B88B2F806229A4215D338F00A
:101180009BFA834600288DD14FF01D0B8DE7224638
:10119000014605983BF02DFA059C04340594ACE714
:1011A0000622FF213BF025FAD8E708AA079B32F870
:1011B0000E1D198043259D70284607A9FFF752FE92
:1011C000834648BB284638F017FA834620BBBDF853
:1011D0001210079838F082FA8346E8B92268B2F80C
:1011E00006320133A2F8063238F066FA8346002848
:1011F0007FF458AF284606AA41F2883138F006FA43
:10120000834600287FF44EAF069B5B68142B09D8F9
:10121000084A52F823B045E738F04EFA002818BFC4
:1012200083463FE74FF0010B3FE700BF646B0020B0
:10123000AA0400203CDF030070B584B000234420E2
:101240000293FFF717FD012822D12622022102A8CE
:1012500038F050F90446002842D0072C0ED0029DE9
:101260004DB14420FFF706FD01280CBF281F28467A
:10127000022138F055F9204604B070BD3B4B1A6886
:10128000B2F80632002BEAD0013BA2F80632E6E7BC
:101290000422022102A838F02DF904460028DCD1EE
:1012A0000146042202983BF0A4F9029B0022DA7066
:1012B00004220393ADF8022038F0EAF9044600282E
:1012C000CBD12A4D2A4B2A681B88B2F806229A42B3
:1012D0000FD338F0F1F904460028BED11D24BEE733
:1012E0000146262202983BF084F9029B04330293C4
:1012F000DCE704AA039B32F80E1D198044269E7079
:10130000304603A9FFF7AEFD044638BB304638F03F
:1013100073F9044610BBBDF80210039838F0DEF9EB
:101320000446D8B92A68B2F806320133A2F8063268
:1013300038F0C2F9044600288FD1304601AA41F2A4
:10134000883138F063F90446002886D1019B5B6838
:10135000142B09D8074A52F823407EE738F0ACF93D
:10136000002818BF044678E7012478E7646B002062
:10137000AA0400203CDF03002DE9F04F8BB09DF85C
:10138000504003949DF85440BDF86850BDF870601B
:1013900004944FF0000C9DF8584005948346452076
:1013A000BDF86080019191460293CDE907CCFFF72B
:1013B00061FCAC1904F001073C44012804F17407F6
:1013C0002DD104F1720313F00F0318BFC3F1100302
:1013D00088341C442246022107A838F08BF8824644
:1013E000002876D0BAF1070F0FD0079C4CB14520EA
:1013F000FFF740FC01280CBF201F2046022138F0D7
:101400008FF850460BB0BDE8F08F564A1168B1F81E
:101410000622002AE9D0013AA1F80622E5E73A4679
:10142000022107A838F066F882460028DAD1014682
:101430003A4607983BF0DDF8079C9DF8082084F8B1
:1014400028209DF80C2084F829209DF8102084F88D
:101450002A2002239DF81420E37084F82B20C4F87E
:101460000490A4F82CB0A4F82E80A4F87050A4F82E
:1014700072604A46019904F108003BF096F8424632
:10148000179904F1300074343BF08FF82A4619990B
:1014900020463BF08AF832461B9960193BF085F8EC
:1014A000079BADF81A70099338F0F2F882460028CD
:1014B00098D12C4C2C4B22681B88B2F806229A42F9
:1014C00010D338F0F9F8824600288BD14FF01D0A6E
:1014D0008BE72246014607983BF08BF8079C0434C3
:1014E0000794AAE70AAA099B32F80E1D1980452520
:1014F0009D70284609A9FFF7B5FC824648BB2846DF
:1015000038F07AF8824620BBBDF81A10099838F0F6
:10151000E5F88246E8B92268B2F806320133A2F84B
:10152000063238F0C9F8824600287FF45BAF2846BF
:1015300008AA41F2883138F069F8824600287FF421
:1015400051AF089B5B68142B09D8084A52F823A0B6
:1015500048E738F0B1F8002818BF824642E74FF05C
:10156000010A42E7646B0020AA0400203CDF03006C
:1015700070B584B0002347200293FFF77BFB01285E
:1015800022D12622022102A837F0B4FF0446002807
:1015900042D0072C0ED0029D4DB14720FFF76AFBC9
:1015A00001280CBF281F2846022137F0B9FF20462A
:1015B00004B070BD3B4B1A68B2F80632002BEAD07B
:1015C000013BA2F80632E6E70422022102A837F026
:1015D00091FF04460028DCD10146042202983BF02A
:1015E00008F8029B0222DA7004220393ADF802206D
:1015F00038F04EF804460028CBD12A4D2A4B2A68F1
:101600001B88B2F806229A420FD338F055F80446E8
:101610000028BED11D24BEE70146262202983AF0DA
:10162000E8FF029B04330293DCE704AA039B32F831
:101630000E1D198047269E70304603A9FFF712FC45
:10164000044638BB304637F0D7FF044610BBBDF820
:101650000210039838F042F80446D8B92A68B2F864
:1016600006320133A2F8063238F026F80446002884
:101670008FD1304601AA41F2883137F0C7FF0446C6
:10168000002886D1019B5B68142B09D8074A52F8C1
:1016900023407EE738F010F8002818BF044678E7AA
:1016A000012478E7646B0020AA0400203CDF0300DB
:1016B000F0B583B0284E01903768B7F80442520065
:1016C000013402F00602A4B24D1CA7F8044225F032
:1016D000010501F10C0CC2704A2708220C35C480A8
:1016E00043718160A0F800C002718770ADF80250AC
:1016F00037F0CEFF78B93268184BB2F806221B8853
:101700009A420CD31D2437F0D7FF002818BF044697
:10171000204603B0F0BD0446204603B0F0BD02AA47
:10172000019B32F8061D19809F70384601A9FFF70A
:1017300099FB04460028E6D1BDF80210019837F065
:10174000CDFF04460028DED13268B2F806320133FC
:10175000A2F80632D7E700BF646B0020AA0400207D
:101760002DE9F04F99B0BDF89080BDF8886008F180
:1017700007041444924606EBC60204EB82040546B5
:1017800000224B208B461F46CDE90322FFF772FA59
:1017900024F00104012804F10C092ED104F10A03FC
:1017A00013F00F0318BFC3F11003203423441A466B
:1017B000022103A8019337F09DFE019B04460028F7
:1017C00077D0072C0FD0039D4DB14B20FFF752FA75
:1017D00001280CBF281F2846022137F0A1FE204611
:1017E00019B0BDE8F08F624B1A68B2F80632002BD0
:1017F000E9D0013BA2F80632E5E74A46022103A8F8
:1018000037F078FE04460028DBD101464A460398AB
:101810003AF0EFFE039B00200246014665F30F02FB
:1018200066F30F016AF31F4268F31F41D8705A60D4
:10183000996003F10C05BAF1000F43D1B6B1002451
:1018400004EBC40106AB890003EB010A24223944EE
:10185000504601343AF0A9FEE4B22846514624220B
:101860003AF0A3FEB44205F12405E9D3B8F1000F24
:101870002FD1259B28460622002B35D019463AF059
:1018800094FE039BADF80A90059337F001FF0446E0
:10189000002896D1364D374B2A681B88B2F80622AD
:1018A0009A4225D337F008FF0446002889D11D2429
:1018B00089E71A46014603983AF09BFE039B0433DE
:1018C0000393A8E72846594652463AF06EFE55441F
:1018D000B4E74246284623993AF067FE259B4544E3
:1018E00028460622002BC9D1FF213AF082FEC8E724
:1018F00018AA059B32F8561D19804B269E7030465B
:1019000005A9FFF7AFFA044648BB304637F074FE2E
:10191000044620BBBDF80A10059837F0DFFE0446E8
:10192000E8B92A68B2F806320133A2F8063237F075
:10193000C3FE044600287FF444AF304604AA41F2B7
:10194000883137F063FE044600287FF43AAF049BE9
:101950005B68142B09D8084A52F8234031E737F066
:10196000ABFE002818BF04462BE701242BE700BF7D
:10197000646B0020AA0400203CDF030070B586B031
:101980000146062204A83AF010FE00234F200293DD
:10199000FFF770F9012822D12622022102A837F090
:1019A000A9FD0446002848D0072C0ED0029D4DB159
:1019B0004F20FFF75FF901280CBF281F284602219E
:1019C00037F0AEFD204606B070BD3F4B1A68B2F846
:1019D0000632002BEAD0013BA2F80632E6E70A22E3
:1019E000022102A837F086FD04460028DCD101461A
:1019F0000A2202983AF0FDFD02980223C37004A95E
:101A0000062204303AF0D1FD029B03930A23ADF87D
:101A1000023037F03DFE04460028C5D12A4D2B4B3D
:101A20002A681B88B2F806229A420FD337F044FE88
:101A300004460028B8D11D24B8E7014626220298A2
:101A40003AF0D7FD029804300290D6E706AA039B2D
:101A500032F8161D19804F269E70304603A9FFF7F5
:101A600001FA044638BB304637F0C6FD044610BBC9
:101A7000BDF80210039837F031FE0446D8B92A6841
:101A8000B2F806320133A2F8063237F015FE0446EA
:101A9000002889D1304601AA41F2883137F0B6FDDD
:101AA0000446002880D1019B5B68142B09D8084AA2
:101AB00052F8234078E737F0FFFD002818BF0446AE
:101AC00072E7012472E700BF646B0020AA040020C3
:101AD0003CDF03002DE9F04385B0804600236420FD
:101AE0004C1C0E469146CDE90133FFF7C3F824F0B4
:101AF0000104012804F108072BD1A31D13F00F03E3
:101B000018BFC3F110031C341C442246022102A852
:101B100037F0F0FC0546002850D0072D0FD0029C6E
:101B20004CB16420FFF7A6F801280CBF201F204607
:101B3000022137F0F5FC284605B0BDE8F0834C4B98
:101B40001A68B2F80632002BE9D0013BA2F806323F
:101B5000E5E73A46022102A837F0CCFC054600280A
:101B6000DBD101463A4602983AF043FD02983A46E4
:101B700000213AF03EFD02980023C3704946A0F8C8
:101B80000480C680324608303AF00FFD029BADF863
:101B90000270039337F07CFD05460028BDD1344C1C
:101BA000344B22681B88B2F806229A420FD337F0D2
:101BB00083FD05460028B0D11D25B0E70146224629
:101BC00002983AF016FD029804300290CFE704AA7A
:101BD000039B32F80E1D198064269E70304603A9BF
:101BE000FFF740F9054658BB304637F005FD05467E
:101BF00030BBBDF80210039837F070FD0546F8B908
:101C00002268B2F806320133A2F8063237F054FDEA
:101C10000546002881D1304601AA41F2883137F0CB
:101C2000F5FC054600287FF478AF019B5B68042B28
:101C30001BD00BD8022B16D012D87BB101256EE732
:101C400037F03AFD002818BF054666E79E2B05D001
:101C500041F23422934201D05A2BEFD100255EE7A6
:101C600040F604355BE7212559E740F6033556E792
:101C7000646B0020AA0400202DE9F04184B00746DF
:101C8000002309204C1C0E46CDE90133FEF7F2FF7C
:101C900024F00104012804F106082BD1231D13F0C0
:101CA0000F0318BFC3F110031A341C44224602214B
:101CB00001A837F01FFC0546002849D0072D0FD09A
:101CC000019C4CB10920FEF7D5FF01280CBF201F55
:101CD0002046022137F024FC284604B0BDE8F081FC
:101CE0003F4B1A68B2F80632002BE9D0013BA2F84C
:101CF0000632E5E74246022101A837F0FBFB054624
:101D00000028DBD10146424601983AF072FC019866
:101D100086800023C3703246394606303AF045FCCF
:101D2000019BADF80280039337F0B2FC0546002812
:101D3000C4D12B4C2B4B22681B88B2F806229A4246
:101D40000FD337F0B9FC05460028B7D11D25B7E7FA
:101D50000146224601983AF04CFC0198043001906B
:101D6000D6E704AA039B32F80E1D198009269E703F
:101D7000304603A9FFF776F8054640BB304637F0FA
:101D80003BFC054618BBBDF80210039837F0A6FCD3
:101D90000546E0B92268B2F806320133A2F80632ED
:101DA00037F08AFC0546002888D1304602AA41F265
:101DB000883137F02BFC054600287FF47FAF029B6B
:101DC0005B68142B09D8084A52F8235076E737F09D
:101DD00073FC002818BF054670E7012570E700BFB7
:101DE000646B0020AA0400203CDF030070B582B0C1
:101DF00005460191ADF8022037F04AFC80B91E4E2D
:101E00001E4B32681B88B2F806229A420CD31D245E
:101E100037F052FC002818BF0446204602B070BDBF
:101E20000446204602B070BD02AA019B32F8061D8E
:101E300019809D7001A92846FFF714F80446002870
:101E4000E6D14A2D01D0322D0ED1BDF802100198F5
:101E500037F044FC04460028DAD13268B2F8063282
:101E60000133A2F80632D3E7284637F0C5FB044613
:101E70000028CDD1E9E700BF646B0020AA04002050
:101E80002DE9F04782B0541C904600228A461E4637
:101E900001928146FEF7EEFE24F00104012804F1D0
:101EA00004072BD1A31C13F00F0318BFC3F11003B9
:101EB00018341C442246022101A837F01BFB0546BA
:101EC00000284CD0072D0FD0019C4CB14846FEF79E
:101ED000D1FE01280CBF201F2046022137F020FB35
:101EE000284602B0BDE8F087344B1A68B2F80632D3
:101EF000002BE9D0013BA2F80632E5E73A46022181
:101F000001A837F0F7FA05460028DBD101463A462A
:101F100001983AF06EFB0198760006F00606C6704E
:101F2000BAF1000F05D04246514604303AF03DFB6D
:101F300001980146BAB24846FFF758FF0546002807
:101F4000C0D16A4641F28831484637F05FFB05460A
:101F50000028B7D10A9A009B52B11360B4E701463A
:101F6000224601983AF045FB019804300190D3E7EE
:101F700019F0200F5B6808D0042B19D00ED8022B63
:101F800019D008D940F604359EE7142B04D80C4A22
:101F900052F8235096E74BB1012595E79E2B05D0CB
:101FA00041F23422934201D05A2BF5D100258BE720
:101FB00040F6033588E7212586E700BF646B0020E3
:101FC0003CDF0300F0B583B000230546019337F0F2
:101FD0005FFB58BB2B88C3F30B02540042B39B0B2F
:101FE000032B04F1020614BF0227012716F03E0F4F
:101FF0001ABF26F03F024032324601A8394637F078
:1020000079FA10B3019C4CB1A078FEF733FE012899
:1020100039460CBF201F204637F082FAFEF7D0FF6A
:10202000044637F049FB002808BF204603B0F0BD46
:1020300029460120FEF79EFB28B92B88C3F30B022B
:102040005400002ACBD10127DCE701463246019833
:102050003AF0CFFA31460198FEF784FC0028D1D13E
:102060000E4A019B1168B1F806223AB193F90200B9
:102070000028A4BF02F1FF32A1F806221A191B5D45
:10208000527843EA0223314601A82B80FEF73CFF39
:102090000028B7D1019837F0F5FBB3E7646B002057
:1020A00000B583B001A90020FEF7E8FB20B103468C
:1020B000184603B05DF804FB019921F48061FEF736
:1020C0002BFC0346184603B05DF804FB2DE9F047EE
:1020D00086B005464FF43B7200213AF08AFAA44ECE
:1020E0000023A5F80632356037F02AFE78B10446A1
:1020F00005AF39460020FEF7C1FB00285CD037F061
:10210000C5FE37F0F5F9204606B0BDE8F08705AF0B
:102110003946FEF7B3FB04460028EAD1954906206C
:10212000FEF7FAFB04460028E3D193490620FEF7A8
:10213000F3FB04460028DCD190490620FEF7ECFBB7
:1021400004460028D5D18E490620FEF7E5FB04465B
:102150000028CED18B490620FEF7DEFB044600287E
:10216000C7D104A90120FEF705FB04460028C0D111
:10217000BDF8103043F4805319460120ADF81030FB
:10218000FEF750FB04460028B3D14FF0C8080BE01F
:10219000BDF8103099044FF0010019D437F022FA3D
:1021A000B8F1010800F0DC8004A90120FEF7E2FA92
:1021B0000028EDD004469CE7059B23F480331946A4
:1021C0000593FEF7A9FB002899D137F0F9F896E7B7
:1021D00039460020FEF752FB0446002889D1059BB2
:1021E0005B0501D4012484E739466748FEF7AEFC5D
:1021F000044600287FF47DAF3946FEF73FFB0446D6
:1022000000287FF476AF059B23F4A043194605937D
:10221000FEF782FB044600287FF46BAFDFF898815D
:102220005A484146FEF750FC044600287FF461AF4F
:1022300039465648FEF78AFC044600287FF459AF19
:10224000059B4345CED1E12037F0D6F9044600285E
:102250007FF44FAF049037F0EBF8044600287FF48A
:1022600048AF4B494B48FEF72FFC044600287FF44B
:1022700040AF01464848FEF727FC044600287FF49B
:1022800038AF01464548FEF71FFC044600287FF49E
:1022900030AF43493F48FEF717FC044600287FF45F
:1022A00028AF4048FEF7AEFE044600287FF421AF79
:1022B00002A93D48FEF74AFC044600287FF419AF06
:1022C00002A93A48FEF742FC044600287FF411AF09
:1022D000029BDFF8E88036492E481B0A88F8003058
:1022E000FEF7F2FB044600287FF403AF2C48FEF70C
:1022F00089FE044600287FF4FCAE4FF0FF312348EE
:10230000FEF7E2FB044600287FF4F3AE03A837F0A3
:10231000DDF8039927485039FEF7D6FB044600281C
:102320007FF4E7AE0821384637F0C0F804460028AD
:102330007FF4DFAE059B98F8008098798DF8040053
:10234000DB798DF806402146102201A88DF8053072
:102350003AF088FDC0B2804532D040F60134C8E67C
:10236000BDF810309A043FF533AF0724C1E600BF33
:10237000646B00207587200720C02E083C3C3C0978
:10238000442C320B9764A00C10C0000900400009D7
:10239000785634120CC0000904C0000908C00009B6
:1023A0002143658799EF53BD80C00009CCC0000967
:1023B00099BD53A700C000098EC8AB23A804002014
:1023C0004021384637F072F8044600287FF491AE79
:1023D00040220599AD48FEF72FFB044600287FF404
:1023E00088AE0821384637F061F8044600287FF4AB
:1023F00080AE08220599A648FEF71EFB0446002879
:102400007FF477AE0121A348FEF75EFB0446002867
:102410007FF46FAEA049A148FEF756FB04460028A2
:102420007FF467AE039BA3F15102920A503B8146B1
:1024300002F1010A039380466424049B9848A8EBA8
:102440000303B3F5F84F04A91ED900230493FEF744
:102450007DFB00287FF4AEAE013CEED1049BA8EBDF
:102460000303B3F5F84F0FD902A98E48FEF76EFBB0
:10247000044600287FF43DAE874B029A40F60234B2
:102480009A4218BF012434E6039BA3EB0803B3F57B
:10249000806F28BF4FF48063194638461C4637F0DA
:1024A00005F800287FF486AEC8F30E0000F1106036
:1024B00000F5804022460599FEF7BEFA00287FF419
:1024C00079AEA04441467848FEF7FEFA00287FF432
:1024D00071AE09F10109CA45AED874496F48FEF7DB
:1024E000F3FA044600287FF404AE7048FEF78AFD34
:1024F000044600287FF4FDAD6D496848FEF7E4FA14
:10250000044600287FF4F5AD36F038FF0446002875
:102510007FF4EFAD3946FEF7B1F9044600287FF4A9
:10252000E8AD059B43F4803319460593FEF7F4F9B3
:10253000044600287FF4DDADFFF7B2FD0446002815
:102540007FF4D7AD03AA41F28831E12037F05EF87D
:10255000044600287FF4CDAD0399564C91F83830ED
:1025600085F8003291F8393085F8013291F83A3027
:1025700085F802322631062205F216203AF015F8C7
:10258000039906222C3105F507703AF00EF80399ED
:1025900091F8212091F8203005F5027043EA0223DA
:1025A0000A310E2223803AF000F8012036F0CEFFE7
:1025B0003068039B00F2232093F8345037F068FC16
:1025C00005F00305044670BB032D3FF69CADDFE824
:1025D00005F02A2A02503068872100F22320FEF7F6
:1025E0005BFB044600287FF484ADFEF773FB0446D2
:1025F00000287FF47EAD306800F51470FEF7F0FC23
:102600003068292100F51470FEF7EEFC30680021D7
:1026100000F51470FEF7ECFB044620B140F60433DD
:1026200098427FF466AD02A836F05EFF00287FF482
:10263000C1AD0546BDF80820EBB29A4204A8194680
:1026400011D936F049FF00287FF4B4AD049C204630
:102650003AF05EFA01462046FFF70EFB01350028EE
:10266000E8D0044645E53368012283F8222200249D
:1026700049E5FEF72FFB044600287FF43AAD3068A9
:1026800000F51470FEF7ACFCC0E700BF14C00009F1
:1026900054C000095CC00009BADCCDAB0CC0000915
:1026A00008C0000910C0000904C00009994AC6D436
:1026B00082C84F17AA0400208B0608D5042818D01A
:1026C0000BD8022813D017D940F6043070471428CD
:1026D0000BD80B4B53F8200070479E280ED041F2C8
:1026E000342398420AD05A2808D00120704721206C
:1026F000704740F6033070470028F6D1002070473D
:102700003CDF030070B50646C8B215461C46FEF70E
:10271000B1FA012810D1A31E13F00F0318BFC3F1A3
:10272000100314341C4429462246304636F0E2FE9B
:10273000054680B1284670BD29462246304636F00F
:10274000D9FE05460028F5D122463068294639F0E1
:1027500050FF284670BD01462246306839F049FFD7
:10276000336804333360284670BD00BF38B5044673
:10277000C8B21546FEF77EFA0128294604D0204645
:10278000BDE8384036F0CCBE201FBDE8384036F0FA
:10279000C7BE00BF0F4A116801EB41031B0103F1E3
:1027A000804303F50053D3F8900010F8010C0D2876
:1027B00004D1D3F894300A2119701168064A012314
:1027C000906A8B4020EA03009062116A0B43136207
:1027D00000207047D804002000200040F0B585B0EC
:1027E000344D2B6803EB43031B0103F1804303F5D6
:1027F00000531446D3F8942012F8013C0D2B02F13B
:10280000FF3636D00A2B34D0082B01D07F2B37D19E
:1028100023682949B3423CBF002306F8013C4FF02E
:10282000000302F8013C2B68244A03EB430301EB4D
:1028300003131068D3F8942034BF02270127D21B5A
:10284000C3F89420027ADAB11D48D3F894200368C3
:1028500003EB430301EB0311C1F89020D4E90032EC
:1028600013449E4211D3174839F082FF002005B06F
:10287000F0BDA368144FB3B13868984798B93E606B
:10288000D4E9003213449E42EDD20B4A2868916A83
:102890000123834021EA03019162116A00200B4366
:1028A000136205B0F0BD6A464FF40071074830F07E
:1028B0000FFFE4E7E004002000200040AC0400200B
:1028C000D8040020BCDF0300D4040020B0040020A2
:1028D0002DE9F0438FB00026DFF81C8108910A46ED
:1028E000314604460996079039F083FED8F8002057
:1028F0003D4DDFF808C1DFF80891D2E9003101272A
:1029000007AACDE903C202961C33CDE9007722461F
:102910002C60D9F8000000F037FAD8F800301A7AA5
:10292000054692BB002D4CD10AAE324629462F48AF
:1029300030F060FF2B4600962A4629462B4830F09F
:10294000F1FD9DF82830002B42D1D9F8000000F0AD
:102950009FFA274B0546186800F09AFA55EA0003DB
:102960002CD120463AF0D4F8831EE118E25C0D2AFF
:102970001ED00A2A1CD0431EE118E25C0D2A17D093
:102980000A2A15D00FB0BDE8F08319491A68086803
:10299000DFF870C05968009707AB04933432CDE973
:1029A0000176CDF80CC0234600F06AF90543B9E77B
:1029B000002218460A700FB0BDE8F0834FF0FF30D8
:1029C000E0E729460B4839F0D3FE4FF0FF30D9E756
:1029D000D9F8000000F05CFA054B186800F058FACE
:1029E0004FF0FF30CEE700BFD4040020B004002039
:1029F000D804002090DF0300AC040020DD27000095
:102A0000E0040020952700002DE9F0478EB00B462A
:102A10000026DFF82C810891914631461A4604467B
:102A20000996079039F0E5FDD8F800203F4DDFF812
:102A300014C1DFF814A1D2E90031012707AACDE9BA
:102A400003C202961C33CDE9007722462C60DAF8E7
:102A5000000000F099F9D8F800301A7A0546002AEB
:102A600035D1002D4FD10AAE32462946304830F0DC
:102A7000C1FE304B009619682D482B4601FB09F129
:102A80002A4630F04FFD9DF82830002B42D1DAF86D
:102A9000000000F0FDF9284B0546186800F0F8F931
:102AA00055EA00032CD120463AF032F8831EE11893
:102AB000E25C0D2A1ED00A2A1CD0431EE118E25CFB
:102AC0000D2A17D00A2A15D00EB0BDE8F0871A4992
:102AD0001A680868DFF874C05968009707AB049358
:102AE0003432CDE90176CDF80CC0234600F0C8F8A9
:102AF0000543B6E7002218460A700EB0BDE8F0871D
:102B00004FF0FF30E0E729460C4839F031FE4FF036
:102B1000FF30D9E7DAF8000000F0BAF9064B186880
:102B200000F0B6F94FF0FF30CEE700BFD40400202C
:102B3000B004002088100020D804002090DF03009B
:102B4000AC040020DD270000E004002095270000F1
:102B500038B3F0B585B0144E054600F061F8134B5C
:102B600034781D6014B1002005B0F0BD2146104836
:102B700000F026F8214607460E4800F021F86B4683
:102B8000054622460C490D4830F0A0FB9DF8003068
:102B9000002BE8D157EA0500E5D10123337005B0D9
:102BA000F0BD4FF0FF307047DC040020AC04002083
:102BB000E0040020D8040020B0DF0300B0040020AF
:102BC00038B5124B1B78C3B1C8B1054602F0A2FD5F
:102BD0000F4900220B4602E00132182A11D01C7B5B
:102BE0001033002CF8D113012A60CA180125CC50EB
:102BF000157302F093FD204638BD064838BD0648DF
:102C000038BD02F08BFD054838BD00BF64090020C7
:102C1000E4040020028000F0018000F0048000F055
:102C200010B582B0124A0023126801928DF8043068
:102C300002F070FD0F4B1C78ACB901221A7002F043
:102C40006DFD0D4B224603F5C0711A7310338B4294
:102C5000FBD104230DEB03008DF8073003F0B6FA27
:102C6000002002B010BD02F059FD044802B010BDB2
:102C7000DCDF030064090020E4040020038000F08E
:102C80002DE9F04F85B03A4C9DF838E024789DF856
:102C90004060002C5FD0172859D8002A57D0002B4D
:102CA00055D00F9CB4F5006F51DCDFF8D8C0070198
:102CB0000CEB0704247B002C51D02E4C4FEA40191A
:102CC0004FF0000804EB090544F8098095F802B0BC
:102CD00095F803A0C5F804804BF0100B4AF0300AB9
:102CE000C5E9028885F802B085F803A0CDE901881E
:102CF000CDF80C80BEF1000F05D15FFA8AFE4EF0D0
:102D0000030E85F803E000910F9934F809E00139CA
:102D100061F30E1E24F809E04C44E1786360119BD6
:102D2000A26066F38301E170DBB10CEB0703119C39
:102D30004CF807402A46129D00246946C3E9015415
:102D40005C7303F087FA204605B0BDE8F08F0A48AF
:102D500005B0BDE8F08F094805B0BDE8F08F084820
:102D6000F6E71A46A37862F30413A370DDE700BF09
:102D70006409002064060020018000F0028000F059
:102D8000078000F0E40400202DE9F04F85B03A4CB4
:102D90009DF838E024789DF84060002C5FD017281B
:102DA00059D8002A57D0002B55D00F9CB4F5006F8E
:102DB00051DCDFF8D8C007010CEB0704247B002CA2
:102DC00051D02E4C4FEA40194FF0000804EB090592
:102DD00044F8098095F802B095F803A0C5F804807E
:102DE0004BF0100B4AF0030AC5E9028885F802B0DF
:102DF00085F803A0CDE90188CDF80C80BEF1000F65
:102E000005D15FFA8AFE4EF0300E85F803E000919E
:102E10000F9934F809E0013961F30E1E24F809E036
:102E20004C44E1786360119BA26066F38301E1701A
:102E3000DBB10CEB0703119C4CF807402A46129DAE
:102E400000246946C3E901545C7303F003FA204689
:102E500005B0BDE8F08F0A4805B0BDE8F08F09481D
:102E600005B0BDE8F08F0848F6E71A46A37862F38C
:102E70000413A370DDE700BF64090020640600208E
:102E8000018000F0028000F0078000F0E4040020E0
:102E900008B50A4B1A7862B1172808D8084A02EB1D
:102EA00000131B7B3BB103F079FA002008BD0548F5
:102EB00008BD054808BD054808BD00BF64090020DD
:102EC000E4040020018000F0028000F0078000F0A0
:102ED0002DE9F8431D4B1F6EDA6E174035D41C4C9C
:102EE000DFF8709098460126002506E00135182D80
:102EF0004FEA460604F1100425D037422846F5D0A3
:102F00002368C8F86860002BF0D0D4E901210131B2
:102F1000A1609847637B012BE8D109EB451303F1CE
:102F2000080218330028E1D1117960F341011171D1
:102F30001A79013560F34102182D1A714FEA4606DD
:102F400004F11004D9D1BDE8F883FEE70020004069
:102F5000E404002064060020FEE700BF38B59A4B69
:102F60009842054606D019D9984B984202D0984B02
:102F7000984216D105F00F04631E0B2B00F2E98076
:102F8000DFE813F02500360045005200D400DD00D4
:102F9000E7009C00AA00BB00C90015008D4B9842B9
:102FA000E8D040F69A718C48FFF7D6FFE2E78B4BEA
:102FB000D3F8F03103F00703052B00F20281DFE8BC
:102FC00013F0B300D100FA00F800F000F600834BD4
:102FD000D3F8943003F00703023B052B00F2E9809D
:102FE000DFE813F0C000E500DF00ED00A200EB0019
:102FF0007A4BD3F8803003F00703022B22D0042B46
:1030000000F0AE80012B0CBF032401241AE0734BA7
:10301000D3F8843003F00703013B032B00F2D18087
:10302000DFE803F010BFC39E6C4BD3F88C4004F074
:103030000704022C06D0042C00F09280012C0CBF57
:1030400003240124604B9D4200F0978040F28C8065
:103050005E4B9D4200F09D805D4B9D4240F0938011
:103060005E4BD3F8884004F00704042C04D8DFE852
:1030700004F009211D0F0B0041F21B015648FFF718
:103080006BFF0024204638BDBDE83840FDF7E6B9A7
:10309000FDF790F9514BD3F80031C3F301630133CD
:1030A00001249C40B0FBF4F4204638BDBDE8384014
:1030B000FDF7D8B9BDE83840FDF7CCB9474BD3F898
:1030C0005C3103F03003202B4CD0302BBAD0102BC6
:1030D0000CBF07240124B5E7404BD3F85C3103F45F
:1030E0004013B3F5001F3DD0B3F5401F5BD0B3F5DF
:1030F000801F0CBF07240124A4E7384BD3F86031AC
:1031000003F00303022B4AD0032B9BD0012B0CBFEF
:103110000424052496E7314BD3F8643103F003030C
:10312000022B3CD0032BF1D10A248BE72B4BD3F895
:10313000884004F00704022C7FF47DAF82E7274B20
:103140001B6F13F003032AD0012B0CBF09240124A9
:1031500078E741F689112048FFF7FEFE002471E769
:103160000C246FE704246DE71A4B9D420BD11B4BD7
:10317000D3F8804004F0070477E7184BD3F8844075
:1031800004F0070471E740F6C9711348FFF7E4FE45
:103190006BE7124BD3F88C4004F0070465E7072473
:1031A00050E702244EE708244CE706244AE70324AC
:1031B00048E7052446E70B2444E70E2442E70D24A4
:1031C00040E701243EE700BF030020000400220086
:1031D0000500240002001E00E4E0030000400E4051
:1031E000F8B54FF0804341F671321E6C1A645B688B
:1031F00011F0FF030D4604463ED0022B0BD12E4B9F
:10320000984254D92D4B984253D903F5B70303F58F
:103210005863984243D940F69A612948FFF79CFECB
:103220004FF040724FF0804026494368264F23F00C
:1032300040731343022D0CBF0A463A469442436042
:1032400011D9224B224A234911609C420ED96DB9F3
:103250004FF08C434FF480521A601EB14FF0804300
:1032600000221A64F8BD1C4B1A4A1A604FF08843BA
:103270004FF480521A60F0E7184A904211D9184B67
:10328000984210D9174B98420FD9174B9842C2D881
:103290000322164B03EBC2035B791A06C2E7062230
:1032A000F7E71A46F5E70122F3E70222F1E70422E5
:1032B000EFE70522EDE700BFC0CF6A00809FD50091
:1032C000E4E003000024F40080D5430280F0FA0219
:1032D00000010046020202000001004480A8120121
:1032E0000051250280F9370300A24A04ACE0030034
:1032F000014B1868704700BF1000002038B5404BE4
:103300009842044678D020D93E4B984270D012D9CA
:103310003D4B984268D003F5F41303F5906398424F
:1033200044D03A4B984251D0002541F24B113848D5
:10333000FFF712FE1CE0374B984233D0364B9842D1
:10334000F2D1364BD3F808510FE0354B984247D0B5
:1033500040D9344B984221D003F5B70303F55863A5
:103360009842E1D12D4BD3F8F8506B1E0333DCD8D3
:103370002D4B2E4A1C601368002BFCD12C4B9C4219
:103380001DD0274B9C4215D02A4B9C4203D125F0DF
:10339000C06545F08065284B9D6138BD1F4BD3F853
:1033A000EC50E2E71D4BD3F80051DEE71B4BD3F89E
:1033B0001851DAE7204B25F0C0659D6138BD25F036
:1033C000C0651D4B45F000759D6138BD134BD3F8AA
:1033D0001051CAE7174B984202D0154B9842A3D11F
:1033E0000E4BD3F8E050C0E70C4BD3F81451BCE7B8
:1033F0000A4BD3F80C51B8E7084BD3F8FC50B4E7AC
:103400000024F4000048E801006CDC0280D543028F
:10341000E4E00300C0EA210180BA8C01B081E00F32
:1034200000093D00C0CF6A00100000206428C84396
:1034300080841E0040420F0000400E4030B4C0F3B4
:103440000323013B0E2B55D8DFE803F04C205454E6
:103450005047420832383C28542E2400C0F304332D
:1034600027484FF48075274AD2F84441E40704D531
:103470001844800030BC01607047D2F840412C42B3
:10348000F6D0D2F840412C42F7D1F1E7C0F3043333
:103490001D48EDE7C0F304331C48E9E7C0F30433EB
:1034A00081F001011A48E3E7C0F304331948DFE76C
:1034B000C0F304334FF480351748D4E7C0F3043326
:1034C0001648D5E7C0F3043381F001011448CFE773
:1034D000C0F3043310251348C5E7C0F304330125B6
:1034E0001148C0E7C0F304331048C1E7C0F3043308
:1034F0000F48BDE741F239410E4830BCFFF72CBD03
:103500006007F21000400E400006F210800FF2102B
:10351000200BF2102006F2108007F210800AF21041
:10352000000BF2104007F2100007F2100000F2103A
:103530008005F210E4E0030008B5C0F30313013B7B
:103540000B2B78D8DFE803F00C121822282E343A1F
:1035500051626B066D4BD3F80401C0F3082008BD1F
:103560006A4BD3F80001C0F3042008BD674BD3F8C1
:103570001401C0F3042008BD644BD3F80001C0F36C
:103580000160431C01209840013808BD5F4BD3F80F
:103590000C01C0F3082008BD5C4BD3F81801C0F340
:1035A000082008BD594BD3F81C01C0F3082008BD02
:1035B000564BD3F80801C0F3082008BD544B98427D
:1035C00000F089803ED8A3F5BA23984200F0958098
:1035D00003F5703398423ED14C4BD3F82031012093
:1035E00003F00F039840013808BD4A4B984257D06A
:1035F00003F5A11398423CD0474B984259D041F271
:1036000001614648FFF7A8FC002008BD444B9842E2
:103610003FD13E4BD3F8300100F0030008BD414BD1
:10362000984230D0404B98421CD1384BD3F85C01C3
:10363000C0F3014008BD41F235613848FFF78CFC0A
:10364000002008BD394B98424ED0394B984239D0B2
:10365000384B984248D041F2DD513048FFF77CFCAE
:10366000002008BD41F228612C48FFF775FC0020BE
:1036700008BD264BD3F82801C0F30130031D0120FB
:103680009840013808BD214BD3F85C0100F00300DD
:1036900008BD41F210612148FFF75EFC002008BD23
:1036A0001A4BD3F828310120C3F301139840013895
:1036B00008BD164BD3F82831012003F003039840CE
:1036C000013808BD114BD3F820310120C3F3012389
:1036D0009840013808BD0D4BD3F820310120C3F3C9
:1036E00003139840013808BD084BD3F8203101205E
:1036F000C3F302339840013808BD044BD3F820319E
:103700000120C3F303439840013808BD00400E4038
:103710008016180090171C0090071A00E4E00300C0
:10372000A0091400B8003200B900340000362C00A3
:1037300080262E0080002A00F8B5C0F303156B1E0A
:103740000C460B2B00F21D82DFE813F01C00BF00BB
:10375000CC00DF00C00109011901EF00E501D00133
:10376000F9010C00B1F5007F80F02A82C44AD2F83A
:10377000043123F4FF3323F4807343EA0424C2F8B2
:103780000441F8BD1F2900F21C834FF0804741F629
:1037900071333E6C3B64FCF709FEBA4B7A68984281
:1037A00040F28F84B84B984240F29A84B74B9842CB
:1037B00040F29A84B64B984240F29A8440F69A615D
:1037C000B448FFF7C9FB4FF040724FF080414B689F
:1037D00023F0407313434B600EB100230B64AE4BD8
:1037E000A74E01221A60D6F8003123F0407343F04F
:1037F0008073C6F8003100F075FDD6F8003123F46F
:10380000F85343EA0424C6F80041FCF787FDA34BB4
:103810001B680646580640F1C982A14A4FF0804312
:1038200054681F6C41F671321A64C4F301445B683A
:10383000002C00F08882022C00F0348240F69A615D
:103840009448FFF789FB4FF040724FF08040954954
:103850004368954D23F040731343022C0CBF0A4676
:103860002A469642436040F29381904B904A914998
:1038700011609E4240F28F81002C40F08C814FF00D
:103880008C434FF480521A601FB14FF080430022E6
:103890001A64FCF78FFD884B984240F25182874BA7
:1038A000012498428CBF4FF000734FF080737A4927
:1038B000734A0C60D2F8000120F040701843C2F83F
:1038C0000001BDE8F84000F099BC1F2900F28A8190
:1038D0006B4AD2F8143123F4F85343EA0424C2F8B3
:1038E0001441F8BD4B1EB3F5004F80F0758164495B
:1038F000D1F80031B4FA84F4C4F11F0223F040740B
:1039000044EA0264C1F80041F8BDB1F5007F80F0DF
:103910005D815B4AD2F80C3123F4FF3323F48073CA
:1039200043EA0424C2F80C41F8BD654B984200F00C
:10393000D08200F26881634B984200F07683624B3C
:10394000984200F04783A3F57033984200F0ED826F
:1039500041F212714F48BDE8F840FFF7FDBAB1F5EA
:10396000007F80F02781464AD2F81C3123F4FF33D0
:1039700023F4807343EA0424C2F81C41F8BDB1F576
:10398000007F80F018824FF0804641F67133356C2D
:103990003364FCF70BFD3B4B7268984240F299830D
:1039A000394B984240F29E83384B984240F29E83B6
:1039B000374B984240F29E8340F69A613548FFF7B4
:1039C000CBFA4FF040724FF080414B6823F04073C8
:1039D00013434B600DB100230B64294AD2F8083120
:1039E00023F4FF3323F4807343EA0424C2F808412C
:1039F000FCF794FC294B1B685906054640F1F880FA
:103A0000274A4FF0804354681E6C41F671321A64A5
:103A1000C4F301445B68002C00F0A681022C00F086
:103A20002B8140F69A611B48FFF796FA4FF04072DF
:103A30004FF080401B4943681B4F23F040731343F2
:103A4000022C0CBF0A463A469542436040F2A980D8
:103A5000164B174A174911609D4240F2A580002C71
:103A600040F0A2804FF08C434FF480521A60002E39
:103A70003FF487AE4FF0804300221A64F8BD00BFC8
:103A800000400E4080A812010051250280F9370342
:103A900000A24A04E4E003004000C8433C300E406A
:103AA00000300E400024F40080D5430280F0FA027A
:103AB00000010046020202000048E8010090D00325
:103AC00080161800A009140080061600B1F5007FCA
:103AD00080F09380C14AD2F8183123F4FF3323F4E5
:103AE000807343EA0424C2F81841F8BDBC4B9842E5
:103AF00040F06D81022900F21D81B84BD3F84421BA
:103B0000D10735D5B54AD2F8303123F003031C4331
:103B1000C2F83041F8BDB34B984200F0B18103F5D3
:103B2000A113984200F0D980AF4B984200F08081F9
:103B300041F24871AD48BDE8F840FFF70DBAAC4B13
:103B4000984200F02381AB4B984240F08E800329CD
:103B500004D941F27571A548FFF7FEF99F4AD2F8E2
:103B60005C3123F4403343EA0444C2F85C41F8BDBD
:103B7000D3F840215203C5D5D3F840215203F7D4DE
:103B8000C0E741F28A719948BDE8F840FFF7E4B90F
:103B9000994B9A4A1A604FF088434FF480521A604A
:103BA00072E6954B954A1A604FF088434FF4805265
:103BB0001A605CE741F28F618C48FFF7CDF9D2E6DD
:103BC00041F283718948FFF7C7F9CFE54FF4B4514B
:103BD0008648FFF7C1F99CE640F6C2218848FFF706
:103BE000BBF984E641F273618048FFF7B5F96FE6EF
:103BF000844A1368002BFCD102E741F287617B48BD
:103C0000FFF7AAF966E7804B984207D07F4B9842AE
:103C100000F0B7817E4B98427FF49AAEB4F5004F26
:103C200000F2818200F08482651CB5FA85F5C5F149
:103C30001F051F2D00F282820123AB40013B9C42F5
:103C400004D040F6B5316E48FFF786F9634BD3F8E0
:103C50004421D4073CD5614AD2F8203123F4E04313
:103C600043EA0535C2F82051F8BD41F27B715F4847
:103C7000BDE8F840FFF770B9664B9D4240F2B28252
:103C8000654B9D4240F2B28203F5B70303F55863DA
:103C90009D423FF6C6AE0622604B03EBC2035B7942
:103CA0001A06C5E65B4B9E4240F29A825A4B9E42F0
:103CB00040F29A8203F5B70303F558639E423FF63C
:103CC000BDAD0625554B03EBC5056B791A06BCE562
:103CD000D3F840215007FBD4BDE7A1F10F03702BAF
:103CE00000F2D181651CB5FA85F5C5F11F061F2EBE
:103CF00000F2BD810123B340013B9C4204D040F659
:103D0000B5313F48FFF728F9344BD3F84421D407A5
:103D1000C5F11B0509D5314AD2F8283123F44053A7
:103D200043EA0535C2F82851F8BDD3F840215006C2
:103D3000FBD4F0E741F252712C48FFF70DF9DCE6B5
:103D400000231C46B3E5364B9E4240F24182354B80
:103D50009E42B7D9344B9E4240F23C82334B9E4246
:103D60003FF66CAD0325ADE72D4B9D4240F22E8210
:103D70002C4B9D4240F232822B4B9D4240F22C82D2
:103D80002A4B9D423FF64DAE032285E7032904D915
:103D900041F26D711548FFF7DFF8104AD2F85C3137
:103DA00023F003031C43C2F85C41F8BD154A1368B5
:103DB000002BFCD131E541F296610C48FFF7CCF8BD
:103DC000E1E541F25D610948FFF7C6F8DDE441F243
:103DD00062710648BDE8F840FFF7BEB800400E40EB
:103DE000A009140090171C0090071A00E4E00300DB
:103DF000B8003200B90034000001004402020200A1
:103E0000E0DF0300C800C64300362C0080262E00E9
:103E100080002A00C0CF6A00809FD500ACE003007C
:103E200080A812010051250280F9370300A24A043C
:103E3000082900F23781651CB5FA85F5C5F11F0523
:103E40001F2D00F2FF800123AB40013B9C4204D0B8
:103E500040F6B531C848FFF77FF8C84BD3F8442186
:103E6000D10708D5C54AD2F8283123F003031D43F2
:103E7000C2F82851F8BDD3F840215206FBD4F1E72F
:103E8000082900F2E580651CB5FA85F5C5F11F0526
:103E90001F2D00F2F2800123AB40013B9C4204D075
:103EA00040F6B531B448FFF757F8B44BD3F8442186
:103EB000D70709D5B14AD2F8283123F0300343EAB5
:103EC0000515C2F82851F8BDD3F840215606FBD499
:103ED000F0E7B1F5004F00F2378100F03A81651C40
:103EE000B5FA85F5C5F11F051F2D00F238810123B4
:103EF000AB40013B9C4204D040F6B5319E48FFF7F1
:103F00002BF89E4BD3F84421D10709D59B4AD2F810
:103F1000203123F0F00343EA0515C2F82051F8BD23
:103F2000D3F840215207FBD4F0E7B1F5004F00F27F
:103F3000428100F04581651CB5FA85F5C5F11F0584
:103F40001F2D00F2EA800123AB40013B9C4204D0CC
:103F500040F6B5318848FEF7FFFF884BD3F844217F
:103F6000D20709D5854AD2F8203123F4702343EAD9
:103F70000545C2F82051F8BDD3F840215707FBD4BE
:103F8000F0E7082900F20281651CB5FA85F5C5F154
:103F90001F051F2D00F2E9800123AB40013B9C422D
:103FA00004D040F6B5317448FEF7D6FF734BD3F812
:103FB0004421D70709D5714AD2F8203123F4407340
:103FC00043EA0525C2F82051F8BDD3F84021560731
:103FD000FBD4F0E7B1F5004F00F28E8000F0918045
:103FE000651CB5FA85F5C5F11F051F2D00F2DD80B2
:103FF0000123AB40013B9C4204D040F6B5315E4802
:10400000FEF7AAFF5D4BD3F84421D40708D55B4ADD
:10401000D2F8203123F00F031D43C2F82051F8BD20
:10402000D3F840215007FBD4F1E702296FD8534B56
:10403000D3F84421D6073FF565ADD3F840215503A9
:10404000FBD45FE54FF496714D48FEF785FFFAE625
:1040500041F22A714B48FEF77FFFB4F5004FFFF4A1
:1040600012AF40F6AF314448FEF776FF0BE74FF44E
:1040700096714348FEF770FF3CE64FF49671404856
:10408000FEF76AFF07E741F239713E48FEF764FF29
:10409000B4F5004FFFF426AE40F6AF313648FEF7D8
:1040A0005BFF1FE641F21B713648FEF755FFB4F582
:1040B000004FFFF4C0AE40F6AF312F48FEF74CFF83
:1040C000B9E60022304B03EBC2035B791A06FFF717
:1040D0007CBB00222C4B03EBC2035B791A0672E413
:1040E0002A46EFE70122F5E70222EBE70222F1E799
:1040F0000322E7E70322EDE741F2D6612148FEF70C
:104100002BFF40F6AF311C48FEF726FF68E741F26F
:10411000B9611C48FEF720FF89E74FF496711848F3
:10412000FEF71AFF0FE741F204711648FEF714FF7D
:1041300040F6AF311048FEF70FFF75E54FF496716A
:104140000F48FEF709FF77E541F2E5610D48FEF7FC
:1041500003FF40F6AF310848FEF7FEFEBFE64FF41E
:1041600096710748FEF7F8FEC1E64FF496710448D1
:10417000FEF7F2FE10E700BFE0DF030000400E4054
:1041800044E00300E4E00300ACE0030041F2F4612A
:104190001748FEF7E1FEB4F5004FFFF4F5AE40F628
:1041A000AF311448FEF7D8FEEEE64FF49671124890
:1041B000FEF7D2FE1CE741F2A8610D48FEF7CCFEE7
:1041C00040F6AF310B48FEF7C7FEB4E6224663E582
:1041D000254677E5022575E502225DE501225BE5CE
:1041E00004256FE5042257E505256BE5052253E517
:1041F000E4E00300E0DF030044E0030070B5FCF7F7
:10420000D9F82A4B1B685B064AD5294B5B68C3F378
:104210000143022B2DD0274B274A284D284ED5F895
:104220000C410344A2FB03231B0E1CBF03F1FF330D
:104230001B0234401C43C5F80C41D5F81C11214A1F
:10424000214C314002440B43A4FB02121B49C5F828
:104250001C31D1F81831920E18BF02F1FF3223F44D
:10426000FF3318BF120223F480731A43C1F81821D8
:1042700070BD164C164B0444A3FB0434E40D18BF68
:1042800004F1FF3421461348FFF756FA214612483D
:10429000FFF752FA21461148BDE87040FFF74CBACB
:1042A0000F4A1368002BFCD1AFE700BF3C300E4033
:1042B00000300E407FF0FA02893BE65500400E4088
:1042C000FF00FEFFFFA14A04B5FA9BEEFF2C31016F
:1042D0006BCA5F6B40410500504107006041090017
:1042E000C800C6430B4B0C48D3F80C11014041F4F5
:1042F0004071C3F80C11D3F81811014041F440711A
:10430000C3F81811D3F81C21024042F44072C3F8DC
:104310001C21704700400E40FF00FEFF08B500F072
:104320000F0001380B2800F28D80DFE800F0132128
:104330002F3B434B8B557A637106524BD3F8F031C8
:1043400003F00703052B00F29A80DFE803F0868470
:1043500096908C884B4BD3F8943003F00703023BC4
:10436000052B00F28480DFE803F0767A7E8678847D
:10437000444BD3F8800000F00700022805D0042841
:1043800067D001280CBF0320012008BD3D4BD3F8A6
:10439000843003F00703013B032B70D8DFE803F000
:1043A0005F636559374BD3F88C0000F00700022893
:1043B000E5D108BD334BD3F8880000F00700022890
:1043C000DDD108BD2F4B1B6F13F0030327D0012B4A
:1043D0000CBF0920012008BD2A4BD3F85C3103F043
:1043E0003003202B37D0302B3BD0102B0CBF0720B5
:1043F000012008BD234BD3F8603103F00303022BE7
:104400000DD0032B29D0012B0CBF0420052008BDA3
:104410001C4BD3F8643103F00303022BF1D10720C6
:1044200008BD184BD3F85C3103F44013B3F5001FFB
:1044300011D0B3F5401F14D0B3F5801F0CBF072077
:10444000012008BD41F689110F48FEF785FD0020C7
:1044500008BD0C2008BD042008BD0A2008BD0320AB
:1044600008BD082008BD022008BD062008BD0520A3
:1044700008BD0E2008BD0D2008BD0B2008BD012081
:1044800008BD00BF00400E40E4E0030038B500F472
:104490007813B3F5D01F00F080811CD9B3F5381F15
:1044A00000F0098136D9B3F5581F00F083815DD93A
:1044B000B3F5681F00F0C681B3F5781F00F0CB801C
:1044C000B3F5601F00F0FF8141F26951C548FEF766
:1044D00043FD002038BDB3F5402F00F0A8812DD852
:1044E000B3F5802F00F0DC806DD9B3F5002F00F01C
:1044F000DA81B3F5202F7AD0B3F5C02FE4D1FBF7E2
:1045000059FFB94BD3F81831C3F308230133B0FB7B
:10451000F3F038BDB3F5001F7ED03FD9B3F5201FAF
:1045200000F0CC81B3F5281F00F08880B3F5101F90
:10453000CAD1AE48BDE83840FEF710BDB3F5901FB4
:1045400060D037D9B3F5B01F00F01A81B3F5C01FA2
:1045500067D0B3F5A01FB7D1A448FEF7FFFCA24B6C
:10456000D3F8303103F00303D84038BDB3F5481F0A
:1045700000F0D980B3F5501F78D0B3F5401FA3D118
:104580009B48FEF7EBFC984BD3F82831C3F301337B
:104590001A1D01239340B0FBF3F038BDB3F5E01FC3
:1045A00000F09380B3F5F01F8ED19248BDE83840FB
:1045B000FEF7D4BCB3F5602F64D0B3F5801F83D170
:1045C0008D4B186838BD73B1B3F5003F7FF47CAFF5
:1045D000FBF7F0FE844BD3F80831C3F30823013313
:1045E000B0FBF3F038BDBDE83840FBF7E3BEFBF7A6
:1045F000E1FE7D4BD3F80431C3F308230133B0FB54
:10460000F3F038BD7B48FEF7A9FC774BD3F8203197
:10461000C3F30343D84038BD7548BDE83840FEF7C2
:104620009DBC7448FEF79AFC6F4BD3F82021012300
:10463000C2F303129340B0FBF3F038BD6D48FEF7B0
:104640008DFC694BD3F820210123C2F30232934041
:10465000B0FBF3F038BD0546FBF7ACFE0446284638
:10466000FEF76AFF0130B4FBF0F038BD6348FFF796
:1046700055FE013807284FD8DFE800F0344E4E4B86
:104680004E4E483E5E48FFF749FE072898D009285D
:10469000A9D040F65C515348FEF75EFC002038BDBF
:1046A000FBF788FE504BD3F80C31C3F308230133DA
:1046B000B0FBF3F038BD4F48FEF750FC4A4BD3F83F
:1046C0002031C3F30123D84038BD4948FEF746FCEA
:1046D000454BD3F828210123C2F301129340B0FBCC
:1046E000F3F038BD0020404BD3F85C31C3F30143F5
:1046F0000133B0FBF3F038BDFBF75CFE3A4BD3F867
:104700000031C3F3042303FB0000ECE73A4B1868C5
:10471000E9E7FBF78BFEE6E7324840F69351FEF7F8
:104720001BFC0020DFE73748FFF7F8FD01380728BA
:104730001FD8DFE800F0041E1E1B1E1E180E0020EE
:10474000294BD3F85C3103F003030133B0FBF3F0E2
:1047500038BDFBF72FFE244BD3F80031C3F30423FD
:1047600003FB0000ECE7244B1868E9E7FBF75EFE6B
:10477000E6E71C4840F69351FEF7EEFB0020DFE72A
:104780001C48FEF7EBFB184BD3F82021012302F065
:104790000F029340B0FBF3F038BD1548FEF7DEFB87
:1047A000114BD3F82821012302F003029340B0FB00
:1047B000F3F038BD1448FFF7B1FD043806282FD8B0
:1047C00001A353F820F000BF19480000134800006F
:1047D00021480000C1450000214800002148000098
:1047E0000D480000E4E0030000400E4005002400F6
:1047F0000300200002001E0010000020B900340059
:1048000006000E00B80032000A7B36003D4B1868E7
:1048100038BD3D4B186838BDBDE83840FBF706BED3
:1048200040F6BD513948FEF797FB002038BDFBF735
:10483000C1FD374BD3F81431C3F304230133B0FB6C
:10484000F3F038BD3348FFF769FD0238092823D853
:1048500001A353F820F000BF9148000089480000F0
:1048600019480000134800009948000099480000CA
:1048700099480000994800000D4800008148000058
:10488000FBF7D4FD400038BDBDE83840FBF7E2BD82
:10489000BDE83840FBF7E6BD40F646611B48FEF731
:1048A0005BFB002038BDFBF785FD194BD3F81C31AD
:1048B000C3F308230133B0FBF3F038BD1648BDE85D
:1048C0003840FEF74BBB1548FFF728FD0438062893
:1048D00010D801A353F820F0194800001348000035
:1048E000F5480000C1450000F5480000F54800000B
:1048F0000D48000040F6EF510448FEF72DFB002064
:1049000038BD00BF1400002008000020E4E00300D0
:1049100000400E400C7F3A00040022000B7C38005F
:104920002DE9F843C24B9842054600F0BD8128D9D5
:10493000C04B984200F0BC8111D9BF4B984200F0A7
:104940008D8003F5F40303F59053984200F0A8819D
:10495000BA4B984226D1BA4BD3F8B86081E0B94B34
:10496000984200F08280B84B984200F0B481A3F5E1
:104970003703A3F5D853984214D1B14BD3F8A860AC
:104980006FE0B24B984200F09E8140F29581B04BAF
:1049900098426ED0AF4B984200F09981AE4B98424E
:1049A00000F04181002641F61A61AC48FEF7D4FAC6
:1049B000DFF8E882AA4BD8F80070C8F80050D3F8A6
:1049C000943003F00703023B052B00F29380A54BC4
:1049D0001C68002CFCD1721C00F0BC80A24B9D42D4
:1049E00073D09A4B9D426DD0A04B9D4251D09C4BB1
:1049F000D3F8943003F00703023B052B6AD8BD427D
:104A00003DD8974B1E61D3F8943003F00703023B67
:104A1000052B00F2A580FBF7CDFC8A4B98422CD9E0
:104A2000854B012498428CBF4FF000734FF0807388
:104A30008F498B4A0C60D2F8000120F04070184377
:104A4000BD42C2F800011FD9854BD3F8943003F062
:104A50000703023B052B49D8BDE8F883784BD3F810
:104A6000BC60731E0333A3D99DE7754BD3F8AC60CC
:104A7000F7E7734BD3F89860F3E70023D8E70121F9
:104A8000284600F09FFEBCE70121002000F09AFEBE
:104A9000DAE726F0C06646F08066714BD3F89430B2
:104AA00003F00703023B052BA9D900200146704BF8
:104AB0006B4A1860D2F8003123F040730B43C2F800
:104AC00000319CE726F0C066E7E726F0C06646F0B6
:104AD0000076E2E75B4B9D42E7D9574901208D42C2
:104AE0008CBF4FF000714FF08071E0E7BDE8F843F4
:104AF000FFF784BB4FF0804941F67133D9F840404D
:104B0000C9F84030FBF752FC5A4BD9F804209842C0
:104B100040F21B81584B984240F22081574B9842FB
:104B200040F21A81564B984240F21A8140F69A613F
:104B30004A48FEF711FA4FF040724FF080414B683F
:104B400023F0407313434B600CB100230B64FFF759
:104B5000C9FB3CE741F62B614048FEF7FDF93DE714
:104B6000FBF7DCFB85420646C0F0DA80D8F800305F
:104B7000B342C0F0CD809D4204D041F65961374820
:104B8000FEF7EAF93F4B1B685B0640F1BC803E4AEA
:104B90004FF080435168D3F8409041F671321A6467
:104BA000C1F301485B68B8F1000F00F09880B8F1DC
:104BB000020F00F0BB8040F69A612848FEF7CCF95E
:104BC0004FF040724FF0804022494368DFF878C0D0
:104BD00023F040731343B8F1020F0CBF0A4662463C
:104BE0009642436016D9294B294A2A4911609E42B0
:104BF00013D9B8F1000F10D14FF08C434FF480520D
:104C00001A60B9F1000F3FF406AF4FF08043002265
:104C10001A6400E7204B1F4A1A604FF088434FF494
:104C200080521A60EDE7064BD3F88C6019E700BF9D
:104C3000C0EA2101006CDC020090D003007E560324
:104C4000B081E00F0048E80180D5430200093D0033
:104C5000405DC6000024F400C0CF6A00E4E0030019
:104C600000400E406028C84380841E0040420F0070
:104C70004000C84380A812010051250280F9370383
:104C800000A24A043C300E4000300E4080F0FA0290
:104C9000000100460202020000010044080000205A
:104CA000354BD3F8C060DCE6334BD3F8A060D8E6D0
:104CB000314BD3F8B460D4E6304B984203D0304B3C
:104CC00098427FF46FAE2C4BD3F88060C9E62A4B34
:104CD000D3F89C60C5E6284BD3F8B060C1E6294BF9
:104CE0009E4241D9284B9E423CD9284B9E423DD9F9
:104CF000274B9E423FF65FAF0322264B03EBC203D6
:104D00005B791A065EE7244A1368002BFCD13EE764
:104D100041F658612148FEF71FF9D8F800302AE71C
:104D200041F657611D48FEF717F91FE71C4B9E42DD
:104D300020D91C4B9E421BD903F5B70303F55863DA
:104D40009E423FF638AF0622D7E70022114B03EB15
:104D5000C2035B791A06F0E60222F7E70122F5E7C3
:104D60000322F3E70122C8E74246C6E70222C4E76E
:104D70000522C2E70422C0E7B081E00F40420F00E5
:104D800080841E0080A812010051250280F937039B
:104D900000A24A04ACE00300C800C643E4E00300FC
:104DA000C0CF6A00809FD500F0B583B005460F469E
:104DB000052872D8DFE800F003182060656A4C4EC1
:104DC0004C494FF400704FF480749FB94A4908660B
:104DD000D1F890302342FBD122B1474AD2F890302B
:104DE0000342FBD103B0F0BD444E4549802040242E
:104DF000002FEBD000270BE0002976D03E4B5B6AFA
:104E0000C3F30113012B50D03E4E3F490424002729
:104E1000394B1C660B68002BFCD0002AE2D03368AB
:104E2000002BFCD0022DDDD1002FDBD0324B5A6A93
:104E300002F00302032A04D05A6AD3F890205002E9
:104E4000FBD542F21A113148FEF786F82A4A0823A8
:104E50001366D2F890305907FBD4274DD5F890301F
:104E60001B07FBD442F291112848FEF775F82C6617
:104E70003368002BFCD0B5E7254E264902200124DB
:104E8000A3E7254E2549202010249EE7244E2549DE
:104E90004FF400604FF4806497E71C4842F28E01A3
:104EA00003B0BDE8F040FEF757B81F4BDB6B5C0565
:104EB00013D51148436A03F00303032B03D0114EAB
:104EC00011490424A4E7436A0E4E0F4923F030032E
:104ED00043F02003436204249AE742F29D010B4809
:104EE0000192FEF739F8019AE3E7042408206DE700
:104EF0002412C8432012C84300400E401C12C8436D
:104F00001812C8430C12C8430812C843E4E0030057
:104F10000412C8430012C8431412C8431012C843F5
:104F20002C12C8432812C84300300E40F8B511288F
:104F30000C4613D000F00F0001380B2800F2E1807E
:104F4000DFE810F011002F00B8008F00BA003F001A
:104F5000DF0073008100490056006300042900F05F
:104F6000DE80052913D00025023C0C2C00F246837C
:104F7000DFE814F0BD02C002FA0213034403440345
:104F8000440344031B02440309031003BB029A4A6F
:104F90009A4B15689D42E6D90021284600F012FC84
:104FA000E2E7062900F06983954D013C0B2C00F2E5
:104FB000AF80DFE804F0A49689ADAD63ADADADADD3
:104FC000AD86072900F02D83092940F0B2808D4B72
:104FD00001221A67F8BD0C1F062C00F2FA82DFE8E6
:104FE00014F0DE00ED00F802D100F802F8026701CB
:104FF0000C1F062C00F2E682DFE814F04B013E01A4
:10500000E4022A01E402E402EF008C1E092C00F203
:10501000EE82DFE814F07301BD01A901B001EC02DA
:10502000EC02EC02EC029B0181014C1E072C00F209
:10503000C282DFE814F05901C002C0021A01C002A6
:10504000C0029A0090004C1E072C00F2C982DFE8D3
:1050500014F0C200C702C7024D01C702C7023D01DA
:1050600077000629684DA0D1684841F69621FDF7E2
:1050700073FF41F69E216548FDF76EFFFBF79AF935
:10508000634B984252D9634B012198428CBF4FF039
:1050900000704FF08070604B5A4A1960D2F80031AE
:1050A0005E4923F0407303430120C2F8003103231B
:1050B000086007E05A4D78E706295A4D7FF475AF2E
:1050C000D7E704232B60F8BD4E4B574A40211966A1
:1050D0001368002BFCD0554A1368002BFCD0012329
:1050E000F0E7484B524A4FF4807119661368002B61
:1050F000FCD0504A1368002BFCD00223E2E70023C7
:10510000E0E741F688414148BDE8F840FDF724BF9B
:1051100041F6C9213D48BDE8F840FDF71DBFFBF74A
:1051200085F9054600283FF41EAF35E7002001460B
:10513000B1E741F653313548BDE8F840FDF70CBF03
:105140004FF440112F4AD2F85C3123F440130B4343
:10515000C2F85C31F8BD30212A4AD2F85C3123F024
:1051600030030B43C2F85C31F8BD264B324A1021A4
:1051700019661368002BFCD0304A1368002BFCD052
:105180001021E9E71F4B2C4A102119661368002BE8
:10519000FCD02A4A1368002BFCD0022105E0012232
:1051A00011460220FFF700FE0121164AD2F86031B5
:1051B00023F003030B43C2F86031F8BD114B204AC2
:1051C000012119661368002BFCD01E4A1368002BBE
:1051D000FCD00021E9E70021B4E70A4B1A4A4FF45A
:1051E000806119661368002BFCD0184A1368002BE5
:1051F000FCD0032153E000BF08000020002D310146
:1052000080400E4000400E408C400E40E4E0030021
:105210000048E8010090D0034000C8430016C8438E
:1052200084400E4088400E401812C8431C12C843E8
:105230002012C8432412C8431012C8431412C84392
:105240000012C8430412C8432812C8432C12C84392
:10525000AA4BAB4A102119661368002BFCD0A94A4F
:105260001368002BFCD0022119E001221146022014
:10527000FFF79AFD20216FE7A04BA34A0121196691
:105280001368002BFCD0A14A1368002BFCD000212E
:1052900005E0012211460220FFF786FD0121974A11
:1052A000D2F8643123F003030B43C2F86431F8BD34
:1052B000924B974A4FF4806119661368002BFCD01B
:1052C000944A1368002BFCD003216EE78B4B8C4A69
:1052D000102119661368002BFCD08A4A1368002B32
:1052E000FCD04FF480112DE7002135E70122114653
:1052F0000220FFF759FD4FF4001123E77F4B864A48
:105300004FF4807119661368002BFCD0834A136830
:10531000002BFCD0042110E0FBF788F8804B98426A
:1053200000F2C48175494B6A012243F008034B62C5
:1053300002201146FFF738FD0221704AD2F8F03101
:1053400023F007030B43C2F8F031F8BD6B4B704AF2
:105350004FF4806119661368002BFCD06D4A136806
:10536000002BFCD00021E8E7012211460220FFF7C4
:105370001BFD0121E1E7614B634A012119661368B6
:10538000002BFCD0614A1368002BFCD00321D4E72A
:105390005A4B644A402119661368002BFCD0624ABC
:1053A0001368002BFCD00521C7E705200624012245
:1053B0001146FFF7F9FC4FF0804741F671333E6C20
:1053C0003B64FAF7F3FF594B7A68984240F26181E7
:1053D000574B984240F26481564B984240F26281AA
:1053E000554B984240F2608140F69A615348FDF770
:1053F000B3FD4FF040724FF080414B6823F0407393
:1054000013434B600EB100230B64FEF76BFF25B115
:105410004B4B1B685A0640F13781384B5C67FAF7F3
:105420007DFF0646FAF7C6FF464B984240F2F680EB
:10543000454B012498428CBF4FF000734FF08073AE
:1054400042492E4A0C60D2F800013D4920F04070DC
:105450001843C2F800010B685B0640F1FA803C4A31
:105460004FF0804354681F6C41F671321A64C4F3E4
:1054700001445B68002C00F0D880022C00F0EE8024
:1054800040F69A612D48FDF767FD4FF040724FF0EE
:10549000804030494368DFF8CCC023F040731343A9
:1054A000022C0CBF0A4662469642436040F2AD8031
:1054B000294B2A4A2A4911609E4240F2A980002CB9
:1054C00040F0A6804FF08C434FF480521A601FB119
:1054D0004FF0804300221A641DB92846012100F0D4
:1054E00071F9BDE8F840FEF789BE072463E70020A4
:1054F00004245CE70120032459E700BF00400E406C
:105500001012C8431412C8430012C8430412C843FF
:105510002812C8432C12C8432012C8432412C8437F
:1055200040787D011812C8431C12C84380A812019C
:105530000051250280F9370300A24A04E4E0030089
:105540003C300E400048E8010090D0034000C843C2
:1055500000300E400024F40080F0FA020001004602
:105560000202020080D54302584B594A01211960BA
:10557000D2F8003123F0407343F080730220C2F868
:105580000031044613E741F64A215248BDE8F8408D
:10559000FDF7E2BC0320052409E74C4B4C4A0124EB
:1055A0001C60D2F8003123F0407343F08073C2F8DE
:1055B00000310320FBE641F6B1314648BDE8F84032
:1055C000FDF7CABC41F622414248BDE8F840FDF76C
:1055D000C3BC41F6FB313F48BDE8F840FDF7BCBC19
:1055E00041F6D4313B48BDE8F840FDF7B5BC41F683
:1055F0005C413848BDE8F840FDF7AEBC41F64F21AC
:105600003448BDE8F840FDF7A7BC334B334A1A6075
:105610004FF088434FF480521A6058E700231C462D
:105620000EE72B4B00221A67F8BD2D4B9E4243D943
:105630002C4B9E4244D92C4B9E423FD92B4B9E4231
:105640003FF61EAF03222A4B03EBC2035B791A0617
:105650001DE7284A1368002BFCD100E7264B9E4229
:1056600032D9264B9E422DD903F5B70303F5586373
:105670009E423FF605AF0622E5E741F68E2115482A
:105680001F4DFDF769FCEFE41A4A1368002BFCD1AB
:10569000C3E60022164B03EBC2035B791A06AAE6A7
:1056A0000122F7E70222F5E70322F3E741F63D4145
:1056B0000848FDF751FC35E62246C4E70222C2E75E
:1056C0000122C0E70522BEE70422BCE74000C84330
:1056D00000400E40E4E0030000010044020202002A
:1056E00080A812010051250280F9370300A24A0464
:1056F000ACE00300C800C643C0CF6A00809FD5005D
:1057000080400E40EFF3108072B6704700B962B669
:10571000704700BFEFF3108072B6704700B962B6F1
:10572000704700BF034B5868C0F30800003018BF33
:105730000120704700ED00E00E29436803D9F021F5
:105740000E48FDF709BC10B401228A4047F2E0047C
:10575000224223F01F0309D140F61F74224207D1D1
:10576000F02106485DF8044BFDF7F6BB41F010014F
:10577000194341605DF8044B704700BF48E10300E6
:1057800070B582B005460C4689B1286A296A2B6A31
:105790002E6A102A84E84B0007D1296A2A6A2B6AEC
:1057A000286AE061C4E90412A36102B070BD40F24E
:1057B000091103480192FDF7CFFB019AE5E700BF0D
:1057C00048E103003D4B1B685B0634D470B50D46C1
:1057D000002831D03A4B1B7813B13A4B98421CD970
:1057E000364B1A68510625D41B685A0632D5364CFA
:1057F000636813F4403F1DD0344BD3F80031FAF7FF
:10580000D9FD402323611DB12C4B1B685B0645D598
:105810000021BDE87040FDF7E3BC284B1A6856062E
:1058200008D41B685C063ED5274B5B68C3F3014375
:10583000022B14D170BD7047244BD3F80041FAF706
:10584000B9FD1F4B1B78C4F3042404FB0000002B9C
:10585000C3D1C5E71E4A1368002BFCD1C7E71B4B19
:10586000D3F80041FAF7A6FDC4F30424154B04FB5A
:1058700000049C4206461BD830460221FDF7B0FCCE
:10588000114B10221A61002DD4D03C331B685806EE
:10589000D0D40F4A1368002BFCD170BD0C4A13689A
:1058A000002BFCD1B4E70A4A1368002BFCD1BBE7FC
:1058B00040F2E1510748FDF74FFBDDE73C300E4079
:1058C0006C090020002D310100300E4000400E40D8
:1058D000C800C643B0E1030010B4244A4AF6E853B6
:1058E000546B5363936FDB07FCD4136C13F0030307
:1058F00022D01F4A0121834211601AD0032B02D10A
:10590000431E012B1FD9194A936FDB07FCD4136C7C
:10591000164923F00303034313648B6F13F0010351
:10592000FBD10030124A18BF0120012C106000D1B9
:105930004B635DF8044B70470028E1D10C4B5DF8D8
:10594000044B18607047094A4FF40023D362936FE9
:10595000D907FCD4136C054923F0030343F001037A
:1059600013644B6A1A03FCD5CDE700BF00300E402C
:10597000B40AC6432DE9F04F87B0A0F5E163B3F553
:10598000966FCDE901213FD8C74AC84BD2F868517C
:10599000DB6CB0F5E16FC3F3017906464FEA0921EC
:1059A00028D1C5F307234FF41672EDB24FF4966475
:1059B0004FF0000B4BEA010140F201108142A6EBCF
:1059C000040400F0D180B1F5817F26D340F201209C
:1059D000814200F0C58040F28880B1F5407F00F040
:1059E000C78040F20130814240F0CA80AE49D1F810
:1059F00078711DE02B0E4FF49662C5F307454FF406
:105A0000E1644FF0010BD5E7A94840F63F21FDF7CF
:105A1000A3FA002007B0BDE8F08F012974D0C0F0D0
:105A2000BD80B1F5807F40F0AB809F49D1F86C71AB
:105A30004FEA1768C7F30747A8EB070104FB01F11A
:105A400003919A49D1F8EC10C1F3012A4BEA0A21DB
:105A500040F20110814200F08F80B1F5817F60D368
:105A600040F20120814277D065D9B1F5407F00F046
:105A7000A68040F20130814240F094808A49D1F8FA
:105A800078014FEA106CC0F30740ACEB000104FB57
:105A900001F1B1FBF2F10144A3EB050E04FB0EF49E
:105AA000B4FBF2F425449D4232D88C4530D3884271
:105AB0002ED8039BB3FBF2F21744474528D8019B2D
:105AC00073B17A4BDB6D23F4FE4323F0020343EA08
:105AD0000525B6F5E16F754B18BF45F00205DD658C
