:1000000000000820290800005508000055080000DD
:10001000550800005508000055080000550800006C
:10002000550800005508000055080000550800005C
:100030005508000055080000B7C3050049C6050073
:100040005508000055080000D1270000A9DC050074
:10005000550800005508000055080000550800002C
:10006000550800005508000055080000550800001C
:1000700055080000B5DC05005508000055080000D3
:1000800055080000550800005508000055080000FC
:1000900055080000550800005508000055080000EC
:1000A00055080000550800005508000055080000DC
:1000B000550800005508000055080000112C0000EC
:1000C00055080000550800005508000055080000BC
:1000D000550800005508000055080000E10B00001D
:1000E000550800005508000055080000550800009C
:1000F000550800005508000055080000550800008C
:10010000550800005508000055080000550800007B
:10011000550800005508000055080000550800006B
:10012000550800005508000055080000550800005B
:10013000550800005508000055080000550800004B
:10014000550800005508000055080000550800003B
:1001500010B5054C237833B9044B13B10448AFF301
:1001600000800123237010BD200400200000000047
:100170008CEA0B0008B5034B1BB103490348AFF3EE
:10018000008008BD00000000240400208CEA0B0061
:10019000154B002B08BF134B9D46A3F5803A002159
:1001A0008B460F461348144A121A61F07AF80F4B27
:1001B000002B00D098470E4B002B00D09847002012
:1001C000002104000D000D48002802D00C48AFF3B8
:1001D000008060F0DBFF200029005DF0DBFC60F0B8
:1001E00001FF00BF00000800000008200000000020
:1001F000000000002004002094E301200000000023
:100200000000000080B400AF4FF0804301225A6428
:10021000154BD3F8B030144A43F00103C2F8B030A4
:10022000114BD3F8E030104A43F00803C2F8E03035
:100230000E4B1B680D4A43F4805313600A4BD3F8EE
:10024000E030094A23F00803C2F8E030064BD3F847
:10025000B030054A23F00103C2F8B03000BFBD46FC
:100260005DF8047B704700BF00400E4034400540FD
:1002700080B582B000AF11237B60FFF7C3FF084851
:1002800005F040FF0521786804F044FC00220121BC
:10029000012005F0ABF800BF0837BD4680BD00BFA8
:1002A0001432060080B500AF00F042FA00BF80BDF6
:1002B00080B582B000AF00F0CFFA786053F0A4FCB4
:1002C00002467B68B3FBF2F33B6038685CF0D0F920
:1002D00000BF0837BD4680BD80B485B000AF7860F0
:1002E00039607B6803F10473DA003B6813449B00B8
:1002F000FB60FB681B6818461437BD465DF8047B3D
:10030000704780B485B000AF786039607B6803F1D6
:10031000C063FB60FB683A681A6000BF1437BD46D3
:100320005DF8047B704780B485B000AF78603960B9
:100330007B6803F18063FB60FB683A681A6000BF6A
:100340001437BD465DF8047B7047000080B582B06D
:1003500000AF03463960FB71FB79002B31D0FB798C
:10036000012B2BD0FB79022B25D0FB79032B1FD03F
:10037000FB79042B19D0FB79052B13D0FB79062BC5
:100380000DD0FB79072B07D0FB79082B02D14FF654
:10039000FF7318E0002316E04FF6FF7313E04FF6EB
:1003A000FF7310E04FF6FF730DE04FF6FF730AE0A6
:1003B0004FF6FF7307E04FF6FF7304E04FF6FF734D
:1003C00001E04FF6FF733A68134103F00103002B7D
:1003D00004D140F2DD310C4802F094FEFA79134664
:1003E0005B0013441B010C3303F1804303F5082326
:1003F00001213A6801FA02F211461846FFF793FF0D
:1004000000BF0837BD4680BD2432060080B582B0EB
:1004100000AF03463960FB71FB79002B31D0FB79CB
:10042000012B2BD0FB79022B25D0FB79032B1FD07E
:10043000FB79042B19D0FB79052B13D0FB79062B04
:100440000DD0FB79072B07D0FB79082B02D14FF693
:10045000FF7318E0002316E04FF6FF7313E04FF62A
:10046000FF7310E04FF6FF730DE04FF6FF730AE0E5
:100470004FF6FF7307E04FF6FF7304E04FF6FF738C
:1004800001E04FF6FF733A68134103F00103002BBC
:1004900004D140F2F7310B4802F034FEFA791346EA
:1004A0005B0013441B010C3303F1804303F5082365
:1004B00039681846FFF710FF034618460837BD464F
:1004C00080BD00BF2432060080B582B000AF034675
:1004D0003960FB71FB79002B31D0FB79012B2BD0DC
:1004E000FB79022B25D0FB79032B1FD0FB79042B42
:1004F00019D0FB79052B13D0FB79062B0DD0FB7996
:10050000072B07D0FB79082B02D14FF6FF7318E0B9
:10051000002316E04FF6FF7313E04FF6FF7310E071
:100520004FF6FF730DE04FF6FF730AE04FF6FF73CF
:1005300007E04FF6FF7304E04FF6FF7301E04FF65C
:10054000FF733A68134103F00103002B04D140F21A
:100550000C410C4802F0D6FDFA7913465B001344B7
:100560001B010C3303F1804303F5082301213A6892
:1005700001FA02F211461846FFF7C3FE00BF083722
:10058000BD4680BD2432060090B587B000AF7860CC
:1005900000237B6101233B617B68002B4BDB7B6885
:1005A000012B48DC0023FB6038E02548FB687A68B3
:1005B000D9001346DB009B1A9B000B440344043311
:1005C0001C781F48FB687A68D9001346DB009B1A29
:1005D0009B000B44034408331B6819462046FFF771
:1005E00015FF0346002B14BF01230023FB7214499F
:1005F0007A681346DB009B1A9B000B441B78FA7A3F
:100600009A4201D13B6900E000237A6913447B617F
:100610003B695B003B61FB680133FB6008497A681A
:100620001346DB009B1A9B000B4401331B781A46D0
:10063000FB689342B9DB7B6918461C37BD4690BD09
:100640007832060090B585B000AF7860396001233C
:10065000BB607B68002B65DB7B68012B62DC0023C1
:10066000FB6052E03A68BB681340BA689A420CBF1C
:1006700001230023DBB218462C497A681346DB00BD
:100680009B1A9B000B441B7898421CD12748FB689F
:100690007A68D9001346DB009B1A9B000B44034485
:1006A00004331C782148FB687A68D9001346DB00C4
:1006B0009B1A9B000B44034408331B6819462046D1
:1006C000FFF702FF1BE01948FB687A68D900134660
:1006D000DB009B1A9B000B44034404331C78134833
:1006E000FB687A68D9001346DB009B1A9B000B4419
:1006F000034408331B6819462046FFF727FEBB68F2
:100700005B00BB60FB680133FB6008497A681346F5
:10071000DB009B1A9B000B4401331B781A46FB68D5
:1007200093429FDB00BF1437BD4690BD7832060070
:1007300090B583B000AF0121274803F0A5F901214E
:10074000264803F0A1F900237B603DE000233B60D5
:100750002AE023483B687A68D9001346DB009B1ADD
:100760009B000B44034404331C781D483B687A68A3
:10077000D9001346DB009B1A9B000B44034408334B
:10078000186817497A681346DB009B1A9B000B44D4
:100790001B7883F00103DBB204220146204606F0F9
:1007A000C3F93B6801333B600D497A681346DB00AF
:1007B0009B1A9B000B4401331B781A463B689342FB
:1007C000C7DB7B6801337B607B68012BBEDD0023C8
:1007D00018460C37BD4690BD4041050000550A0043
:1007E0007832060080B584B000AF78607B68002B5B
:1007F00013DB7B68012B10DC7868FFF7C5FEF8601F
:10080000FB68002B02D14FF0FF3300E000231946B4
:100810007868FFF717FF002301E04FF0FF33184619
:100820001037BD4680BD0000064880470649074A8C
:10083000074B9A42BEBF51F8040B42F8040BF8E78D
:10084000FFF7A6FC3509000098EA0B000000002025
:1008500020040020FEE700BF80B582B000AF00F0AA
:1008600025F878600A4BD3F808311B0AC3F3080354
:100870003B603B6801337A68B2FBF3F37B60054A67
:100880007B6813607B6818460837BD4680BD00BF93
:1008900000400E400800002080B400AF024B184614
:1008A000BD465DF8047B704700A24A0480B483B063
:1008B00000AF164BD3F8943003F00703032B08D096
:1008C000042B02D0022B08D00BE0114B1B687B607D
:1008D0000BE04FF400437B6007E00E4B1B687B602E
:1008E00003E00D4B1B687B6000BF084BD3F8003161
:1008F0001B0A03F01F0301337A68B2FBF3F31846B7
:100900000C37BD465DF8047B704700BF00400E40C9
:1009100004000020000000200C00002080B400AF84
:10092000034B1B681846BD465DF8047B704700BF4B
:100930000000002080B400AF074B084A9A60064BC5
:10094000D3F88830044A43F47003C2F8883000BFFB
:10095000BD465DF8047B704700ED00E0000000003C
:1009600080B400AF4FF400431846BD465DF8047BE9
:10097000704780B400AF4FF47A731846BD465DF8F7
:10098000047B704780B400AF034B1B681846BD461C
:100990005DF8047B704700BF0400002080B483B082
:1009A00000AF7860002318460C37BD465DF8047B25
:1009B000704780B483B000AF7860FEE780B483B046
:1009C00000AF786039603B684FF400525A600023F2
:1009D00018460C37BD465DF8047B704780B483B081
:1009E00000AF7860012318460C37BD465DF8047BE4
:1009F000704780B485B000AFF860B9607A600023BA
:100A000018461437BD465DF8047B704780B586B044
:100A100000AFF860B9607A6000237B610FE000F0FE
:100A20009BF938613B69B3F1FF3F0ED0BB685A1C9C
:100A3000BA603A69D2B21A707B6901337B617B6814
:100A40005A1E7A60002BEAD100E000BF7B69002BC0
:100A500002DC4FF0FF3300E07B6918461837BD46D3
:100A600080BD000080B485B000AF78600B4B1B6880
:100A7000002B02D1094B0A4A1A60084B1B68FB6025
:100A8000064B1A687B681344044A1360FB681846D7
:100A90001437BD465DF8047B704700BF3C0400205E
:100AA00098E3012080B586B000AFF860B9607A6045
:100AB00000237B6109E0BB685A1CBA601B781846AA
:100AC00000F08AF97B6901337B617A697B689A421D
:100AD000F1DB7B6818461837BD4680BD80B483B013
:100AE00000AF0346FB7197F90730002B0BDBFB7956
:100AF00003F01F02074997F907305B09012000FA4C
:100B000002F241F8232000BF0C37BD465DF8047B9C
:100B1000704700BF00E100E080B483B000AF03463F
:100B2000FB7197F90730002B0CDBFB7903F01F02F8
:100B3000074997F907305B09012000FA02F2603398
:100B400041F8232000BF0C37BD465DF8047B704799
:100B500000E100E080B483B000AF786039607B686A
:100B60003A689A6400BF0C37BD465DF8047B704755
:100B700080B483B000AF786039607B68DA6C3B6822
:100B8000DB431A407B68DA6400BF0C37BD465DF872
:100B9000047B704780B483B000AF786039607B68B5
:100BA000DA6C3B681A437B68DA6400BF0C37BD46D9
:100BB0005DF8047B7047000080B500AF0421024857
:100BC000FFF7D6FF00BF80BD0010014080B500AF29
:100BD00004210248FFF7DEFF00BF80BD0010014086
:100BE00098B500AF144B1B6903F08003002B20D095
:100BF000124B1B68072B1ADC114B1C680E4806F0C1
:100C00003DFE03461A460F4B1A550D4B1B68013328
:100C10000B4A1360094B1B680133084A1360084BE9
:100C20001B68082B05D1064B00221A6001E0FFF774
:100C3000C3FF00BF98BD00BF001001404804002062
:100C4000440400204C04002080B483B000AF7860DE
:100C50007B68002B03D0064B01221A7002E0044B84
:100C600000221A7000BF0C37BD465DF8047B704748
:100C700054040020B0B588B000AF01212F4802F025
:100C800003FF01212E4802F0FFFE0123042204216C
:100C9000072005F049FF002301220521072005F068
:100CA00043FF284BFB61284B3C461D460FCD0FC42C
:100CB00095E8070084E807000123042201210420AD
:100CC00005F032FF0121214802F0DEFE00233B70D7
:100CD0003B461946F86906F027FCFB6903225A6770
:100CE000FB699B6F23F4E06323F0070343F4806305
:100CF00043F00403FA69936704211248FFF72AFFBF
:100D00002720FFF709FF04210E48FFF743FF2720A4
:100D1000FFF7E4FE0521F86906F0B6FB0C4B1B68F3
:100D2000986800230222002160F0D6FB094B0122C3
:100D30001A7000BF2037BD46B0BD00BF404105005E
:100D400000550A0000100140B032060000B2040055
:100D5000480200205504002080B582B000AF4FF05B
:100D6000FF337B60184B1B7883F00103DBB2002B51
:100D700001D0FFF77FFF04F059FD3860134B1B686B
:100D8000002B18DD124B1B68124AD35CDBB27B6070
:100D90000F4B1B6801330E4A13600D4B1B68082B69
:100DA00002D10B4B00221A60084B1B68013B074A1B
:100DB0001360FFF70BFF386804F048FD7B681846A6
:100DC0000837BD4680BD00BF550400204804002000
:100DD000400400204C04002080B582B000AF0346E0
:100DE000FB710F4B1B7883F00103DBB2002B01D0AA
:100DF000FFF740FF0B4B1B78002B06D0FB790A2B2B
:100E000003D10D21084806F04DFDFB79194606482F
:100E100006F048FDFB7918460837BD4680BD00BF87
:100E200055040020540400200010014080B483B019
:100E300000AF0346FB7197F90730002B0CDBFB7901
:100E400003F01F02074997F907305B09012000FAF8
:100E500002F2603341F8232000BF0C37BD465DF835
:100E6000047B704700E100E080B400AF034B9B6857
:100E70001846BD465DF8047B704700BF0020064061
:100E800080B58AB000AF002387F82730002387F8A9
:100E90002630002387F82530002387F824300023EC
:100EA00087F82330534A3B4607CA03C31A800023FE
:100EB000FB610023BB61504BD3F8B03003F001035A
:100EC000002B06D101214D4802F0DEFD012387F8F9
:100ED00027304B4803F084FC0346FB75FB7D032B56
:100EE00002D0012387F82530434BD3F8903003F02C
:100EF0004003002B02D1012387F82430032140480E
:100F000003F008FE3F4802F0A3FD38613A4BD3F8E6
:100F1000F03003F00103002B06D10121394802F023
:100F2000B3FD012387F8263004F080FCF860364BCF
:100F30001B6803F00103002B15D0334B1B68FB61CA
:100F4000314B5B6ABB61304B00221A602E4B002292
:100F50005A622D4B40F2FF721A621F20FFF766FFA4
:100F6000012387F823300023BB700023FB70082384
:100F70003B713B46184606F033F900F065F8F86817
:100F800004F064FC97F82330002B0AD039691D481F
:100F900002F06BFD1C4AFB6913601B4ABB6953627C
:100FA00002E0002006F00AF997F82630002B03D063
:100FB0000021144802F068FD97F82530002B04D07A
:100FC000FB7D19460E4803F0A5FD97F82430002B51
:100FD00004D000220021012004F008FA97F82730FD
:100FE000002B03D00021054802F04EFD00BF28373A
:100FF000BD4680BDCC32060000400E4000050A0010
:1010000005002400A00914000020064080B483B02D
:1010100000AF78607B680B49002B0CD0013B882225
:101020001202003253430A68D80AD20A5043800998
:1010300001D00138FDD800BF0C37BD465DF8047BF8
:10104000704700BF1000002080B584B000AF0823B7
:10105000BB60334B4FF480521A601AE000F062F824
:10106000786000BF00F05EF802467B689342F9D0DA
:1010700000F058F878602A4B1B68184600F059F8C1
:1010800000F050F802467B68D31A7B607B68002B27
:1010900007D1234B1B685B00214A1360002BDDD175
:1010A00000E000BF1E4B1B685B081D4A13601C4B11
:1010B0001B68FB6024E01A4B1A68FB681343184A4C
:1010C000136000F02FF8786000BF00F02BF80246A4
:1010D0007B689342F9D000F025F87860104B1B68CC
:1010E000184600F026F800F01DF802467B6893428F
:1010F00006D0FB68DA430A4B1B681340084A1360AA
:10110000BB685A1EBA60002B05D0FB685B08FB6009
:10111000FB68002BCFD100BF1037BD4680BD00BF9C
:101120001000002080B500AFFFF79EFE0346184672
:1011300080BD80B483B000AF78607B68013BFDD890
:1011400000BF0C37BD465DF8047B704780B483B0A8
:1011500000AF78607B6818460C37BD465DF8047BAD
:10116000704780B584B000AF03463960FB7107F16A
:101170000802F9790423022000F0F8F8F8603B7ABD
:101180009AB27B7A9BB21B029BB213439AB23B6822
:101190001A80FB6818461037BD4680BD80B584B004
:1011A00000AF03460A46FB711346BB80BB88DBB227
:1011B0003B73BB881B0A9BB2DBB27B730023BB7300
:1011C0000023FB7307F10C02F9790423012000F0DE
:1011D000CDF8034618461037BD4680BD80B584B0B3
:1011E00000AF03463960FB71F97904233A680220A5
:1011F00000F0BCF8F8603B681B681846FFF7A6FFD4
:1012000002463B681A60FB6818461037BD4680BD31
:1012100080B582B000AF03463960FB713B68184669
:10122000FFF794FF03463B603A46F9790423012017
:1012300000F09CF8034618460837BD4680BD80B5CF
:1012400084B000AF786039603B687A680221022080
:1012500000F08CF8F860FB6818461037BD4680BD7A
:1012600080B584B000AF786039603B687A6802214D
:10127000012000F07BF8F860FB6818461037BD4687
:1012800080BD80B586B000AFF860B9607A607B68D9
:10129000B3F5005F01D321230FE0F9680420FFF7C5
:1012A000B7FF78617B69002B06D17B68BA6805219E
:1012B000012000F05BF878617B6918461837BD465D
:1012C00080BD80B584B000AF786039607968042053
:1012D000FFF79EFFF860FB68002B04D139680520FA
:1012E000FFF796FFF860FB6818461037BD4680BDD3
:1012F00080B586B000AF7860396079680420FFF768
:1013000087FF386107F10C0319460020FFF766FFDD
:101310003861FB6843F4005319460020FFF778FF5B
:10132000386100237B6111E007F10C0319460020AE
:10133000FFF754FF3861FB6803F40053002B09D01A
:1013400001205EF0A5FB7B6901337B617B69132B78
:10135000EAD900E000BF39680520FFF73FFF386198
:101360003B6918461837BD4680BD000080B586B081
:1013700000AFBA607B600346FB730B46BB73424B06
:101380001B6893F8223203F00803002B1AD00120C7
:101390005EF028FB78617B69002B68D1FB7B012B19
:1013A00005D15EF05DFB78617B69002B61D1364B26
:1013B0001B6893F82222344B1B6822F00802D2B239
:1013C00083F82222FB7B022B07D1BB7B7A68B968AA
:1013D00018465EF065FF78610CE0FB7B012B07D1BE
:1013E000BB7B7A68B96818465EF0A6FF786101E0B9
:1013F00021237B617B69002B3DD1234B1B6893F834
:10140000223203F01003002B37D0FB7B022B34D1A8
:10141000BB7B012B31D01C4B1B68B3F80632012B70
:101420002BD87B68023BBA6813441B88C3F30B03B9
:10143000002B22D1B97BFB7B7A6818465EF020FF37
:10144000024640F608339A4217D10F4B1B6893F8B7
:1014500022220D4B1B6842F00802D2B283F82222EE
:1014600000205EF0BFFA78617B69002B05E000BFC9
:1014700004E000BF02E000BF00E000BF7B69184647
:101480001837BD4680BD00BFE43F002080B483B064
:1014900000AF0346FB80FB8818460C37BD465DF85D
:1014A000047B704780B483B000AF78607B681846D7
:1014B0000C37BD465DF8047B7047000090B589B0DD
:1014C00000AF78604FF40972002178685FF0E9FEA0
:1014D0006B4A7B6813606A4B1B680022A3F80622E4
:1014E0005EF072FFF861FB69002B40F0A58000F010
:1014F000D9FBF861FB69002B40F0A08000F07CFC78
:10150000F861FB69002B40F09B80E1205EF0D0FA8F
:10151000F861FB69002B40F0958000F0BFFCF8619A
:10152000FB69002B40F0908000F050FBF861FB69F4
:10153000002B40F08B8000F097FBF861FB69002BDB
:1015400040F0868007F114031A4641F28831E12009
:101550005EF0C4FAF861FB69002B7BD17B6993F8DC
:1015600038207B6883F800227B6993F839207B68F8
:1015700083F801227B6993F83A207B6883F8022282
:101580007B6803F216207B692633062219465FF03A
:1015900064FE7B6803F507707B692C3306221946CD
:1015A0005FF05BFE7B691B8C9BB21846FFF76EFFFA
:1015B00003461A46334B1A807B6803F502707B6939
:1015C0000A330E2219465FF048FE01205EF00AFA47
:1015D00007F1120318465EF067F9F861FB69002B0A
:1015E0003AD10023FB761CE0FB7E9AB207F10C0394
:1015F000114618465EF02CF9F861FB69002B2DD1DD
:10160000FC68FB68184660F0C0F80346194620469F
:1016100000F05EF9F861FB69002B21D1FB7E0133FC
:10162000FB76FB7E9AB27B8A9A42DDD3144B1B6811
:10163000012283F8222214E000BF12E000BF10E074
:1016400000BF0EE000BF0CE000BF0AE000BF08E0F2
:1016500000BF06E000BF04E000BF02E000BF00E002
:1016600000BFFB69002B05D000F0D7FA5EF0EEFE5C
:101670005EF03AF9FB6918462437BD4690BD00BFBD
:10168000E43F00205804002080B58AB000AFF86025
:10169000B9607A607B8000237B620023BB610023FA
:1016A0007B6100233B62B7F84830013323F001032C
:1016B0007833FB6107F11800FB690222432100F037
:1016C000D7FE78627B6A002B40F08580BB690022E0
:1016D000DA70BB6904333B62B868FFF7E3FE024689
:1016E0003B6A1A607B881846FFF7D0FE03461A460D
:1016F0003B6A5A853B6A97F8302083F82C203B6A76
:1017000097F8342083F82D203B8F1846FFF7BEFE54
:1017100003461A463B6ADA85B7F840301846FFF7A9
:10172000B5FE03461A463B6A1A86B7F84830184693
:10173000FFF7ACFE03461A463B6AA3F872203B6AE9
:101740000433BA68F96818465FF087FD3B6A3233A4
:10175000B7F84020F96B18465FF07FFD3B6A7433A1
:10176000B7F84820796C18465FF077FD7B68002B4E
:1017700007D03B6A24337968062218465FF06DFD76
:1017800006E03B6A24330622FF2118465FF089FDFC
:10179000BB69FA6992B21946432000F017F97862E2
:1017A0007B6A002B19D107F114031A4641F28831E4
:1017B00043205EF093F978627B6A002B0FD17B693E
:1017C0005B681846FFF76EFE03464321184600F09B
:1017D00099FD786204E000BF02E000BF00E000BFB6
:1017E0007B6A072B0DD10E4B1B68B3F80632002B1A
:1017F00007D00B4B1B68B3F80622013A92B2A3F84C
:101800000622BB69002B05D0BB6902224321184682
:1018100000F04EFE7B6A18462837BD4680BD00BFEB
:10182000E43F002080B586B000AFF860B960114693
:101830001A460B46FB711346BB71BB68013323F09C
:1018400001030C337B61214B1B68B3F80422013286
:1018500092B2A3F80422BB689BB20C339BB2184629
:10186000FFF714FE03461A46FB681A80FB684A22FB
:101870009A70FB795B00DBB203F00603DAB2FB6817
:10188000DA70FB6808221A71FB68BA795A710F4B3B
:101890001B68B3F804321846FFF7F8FD03461A46F2
:1018A000FB68DA80B868FFF7FDFD0246FB689A60C6
:1018B0007B699BB21A46F9684A2000F087F83861C4
:1018C0003B6918461837BD4680BD00BFE43F002085
:1018D00080B588B000AF786039600023FB610023D9
:1018E0003B610023FB600023BB613B68013323F0B5
:1018F000010306337B6107F110007B690222092195
:1019000000F0B6FDF861FB69002B38D13B6900227D
:10191000DA703B690433BB613B689BB21846FFF742
:10192000B5FD03461A46BB691A80BB6902333A68A3
:10193000796818465FF091FC3B697A6992B2194662
:10194000092000F043F8F861FB69002B19D107F179
:101950000C031A4641F2883109205EF0BFF8F861A5
:10196000FB69002B0FD1FB685B681846FFF79AFDF7
:1019700003460921184600F0C5FCF86104E000BFE9
:1019800002E000BF00E000BFFB69072B0DD10E4B4A
:101990001B68B3F80632002B07D00B4B1B68B3F85B
:1019A0000622013A92B2A3F806223B69002B05D029
:1019B0003B6902220921184600F07AFDFB691846AE
:1019C0002037BD4680BD00BFE43F002080B584B015
:1019D00000AF03463960FB711346BB801A23FB60DE
:1019E0005EF0BAF8F860FB68002B2CD11F4B1B6827
:1019F000B3F806221E4B1B889A4226D23B68FA791E
:101A00009A70BB881846FFF741FD03461A463B68AB
:101A10001A80FB7918465EF04BF8F860FB68002BE3
:101A200015D1BB88194638685EF0AAF9F860FB68E2
:101A3000002B0ED10D4B1B68B3F80622013292B277
:101A4000A3F8062206E000BF04E000BF02E000BFEA
:101A500000E000BF5EF098F80346002B01D00123A0
:101A6000FB60FB6818461037BD4680BDE43F002090
:101A70005804002090B589B000AF78600023BB60A7
:101A80000123FB765EF068F8F861FB69002B7BD1DF
:101A90007B681B88C3F30B035B007B617B69002BB6
:101AA00016D179680120FFF75CFBF861FB69002B18
:101AB0006CD17B681B88C3F30B035B007B617B6984
:101AC000002B05D140F60533FB61FB69002B5FD18C
:101AD0007B681B889B0B9BB2FB747B690233FB60AA
:101AE000FB7C032B01D1012300E00223FB76F97E6E
:101AF00007F10803FA6818465DF0FEFEF861FB691D
:101B0000002B47D1BB68FA68002118465FF0C9FB7B
:101B1000BB68F9681846FFF792FBF861FB69002B78
:101B20003AD1294B1B68B3F80632002B0CD0BB68A6
:101B30009B785BB2002B07DB234B1B68B3F80622B4
:101B4000013A92B2A3F80622BA687B6913441B7863
:101B50009AB2B9687B6901330B441B789BB21B02B4
:101B60009BB213439AB27B681A80BB681B889BB2F6
:101B7000BC681846FFF78AFC03462380BB681846FA
:101B80005EF018F8F86108E000BF06E000BF04E06E
:101B900000BF02E000BF00E000BFBB68002B07D021
:101BA000B868BB689B781946FB7E1A4600F080FC3B
:101BB0005DF0EAFF0346002B01D00123FB61FB69C6
:101BC00018462437BD4690BDE43F002080B582B062
:101BD00000AF5EF071FF78607B68002B15D13B464B
:101BE00019460020FFF7FAFA78607B68002B0ED1C7
:101BF0003B6843F480333B603B6819460020FFF7A5
:101C000007FB78607B68002B02E000BF00E000BFAC
:101C10007B6818460837BD4680BD80B582B000AFEE
:101C20003B4619460020FFF7D9FA78607B68002B05
:101C300012D13B6823F480333B603B681946002097
:101C4000FFF7E6FA78607B68002B07D15EF045FF6E
:101C500078607B68002B02E000BF00E000BF7B687B
:101C600018460837BD4680BD80B582B000AF3B4600
:101C700019460020FFF7B2FA78607B68002B0AD182
:101C80003B6823F4806319460020FFF7C1FA7860AF
:101C90007B68002B00E000BF7B6818460837BD4614
:101CA00080BD000080B584B000AF3B1D1946002008
:101CB000FFF794FAF860FB68002B77D149490620BA
:101CC000FFF7A6FAF860FB68002B71D146490620A1
:101CD000FFF79EFAF860FB68002B6BD143490620A2
:101CE000FFF796FAF860FB68002B65D140490620A3
:101CF000FFF78EFAF860FB68002B5FD13D490620A4
:101D0000FFF786FAF860FB68002B59D1BB1C194617
:101D10000120FFF726FAF860FB68002B52D17B8880
:101D200043F480539BB27B807B8819460120FFF7E8
:101D300035FAF860FB68002B46D10023BB6013E046
:101D4000BB1C19460120FFF70CFAF860FB68002B5A
:101D50003CD17B8803F40053002B09D101205DF0B6
:101D600097FEBB680133BB60BB68C72BE8D900E0B6
:101D700000BF7B8803F40053002B04D10723FB60D2
:101D8000FB68002B24D13B1D19460020FFF726FAE3
:101D9000F860FB68002B1DD17B6803F48063002B87
:101DA0001AD10123FB60FB68002B15E000BF14E093
:101DB00000BF12E000BF10E000BF0EE000BF0CE06B
:101DC00000BF0AE000BF08E000BF06E000BF04E07B
:101DD00000BF02E000BF00E000BFFB6818461037FC
:101DE000BD4680BD7587200720C02E083C3C3C09BD
:101DF000442C320B9764A00C80B582B000AF3B46F8
:101E000019462348FFF774FA78607B68002B2FD1BE
:101E10003B4619460020FFF7E1F978607B68002B0C
:101E200028D13B6823F4A0433B603B68194600205F
:101E3000FFF7EEF978607B68002B1DD11549164835
:101E4000FFF73FFA78607B68002B17D13B461946B5
:101E50001148FFF74DFA78607B68002B10D13B6882
:101E60000C4A93420ED001237B607B68002B09E073
:101E700000BF08E000BF06E000BF04E000BF02E0D2
:101E800000BF00E000BF7B6818460837BD4680BD34
:101E900010C000098EC8AB230040000980B58CB08B
:101EA00000AF00233B620023BB605DF067FCF8627B
:101EB000FB6A002B40F06781B449B548FFF701FA8F
:101EC000F862FB6A002B40F087810021B148FFF7E0
:101ED000F8F9F862FB6A002B40F080810021AE48DF
:101EE000FFF7EFF9F862FB6A002B40F07981AB490C
:101EF000A748FFF7E6F9F862FB6A002B40F0728111
:101F00006422A749A74800F0A5F9F862FB6A002BF4
:101F100040F06A8107F110031946A348FFF7E8F97A
:101F2000F862FB6A002B40F0618107F1100319464B
:101F30009E48FFF7DDF9F862FB6A002B40F05881FC
:101F40003B691B0ADAB29A4B1A709A499048FFF71C
:101F5000B8F9F862FB6A002B40F04C8164228F498B
:101F6000904800F077F9F862FB6A002B40F044815A
:101F70004FF0FF319048FFF7A4F9F862FB6A002B9D
:101F800040F03C8107F10C0318465DF051FCFB6802
:101F9000503B19468948FFF794F9F862FB6A002B19
:101FA00040F02E813B1D082118465DF025FCF862AB
:101FB000FB6A002B40F026817D4B1B787A68114626
:101FC000184600F078F9F862FB6A002B40F01C819B
:101FD0003B1D402118465DF00FFCF862FB6A002BA8
:101FE00040F014817B68402219467548FFF749F993
:101FF000F862FB6A002B40F00B813B1D082118465C
:102000005DF0FAFBF862FB6A002B40F003817B680D
:10201000082219466B48FFF734F9F862FB6A002B77
:1020200040F0FA8001216848FFF74BF9F862FB6A3B
:10203000002B40F0F38065495548FFF742F9F862FC
:10204000FB6A002B40F0EC80FB68503BFB60FB68B8
:10205000013B9B0A0133BB6100237B6276E007F101
:10206000100319464F48FFF743F9F862FB6A002B4B
:1020700040F0D8803B69554A934205D00123FB626A
:10208000FB6A002B40F0D0800023BB6215E00023E8
:10209000BB6007F1080319463F48FFF729F9F862CA
:1020A000FB6A002B40F0C280BB683A6AD31AB3F5D2
:1020B000F84F06D9BB6A0133BB62BB6A632BE6D912
:1020C00000E000BFBB683A6AD31AB3F5F84F06D9EF
:1020D00040F60233FB62FB6A002B40F0A980FA68ED
:1020E0003B6AD31AFB61FB69B3F5806F02D94FF4E9
:1020F0008063FB613B1DF96918465DF07DFBF8626A
:10210000FB6A002B40F096803B6AC3F30E0303F199
:10211000106303F580437B617B68FA69194678692F
:10212000FFF7AFF8F862FB6A002B40F085803A6A4F
:10213000FB6913443B62396A1648FFF7C2F8F8623C
:10214000FB6A002B7AD17B6A01337B627A6ABB69B6
:102150009A4284D31E490E48FFF7B3F8F862FB6A2F
:10216000002B6DD164221A490E4800F073F8F86212
:10217000FB6A002B66D117490548FFF7A2F8F86201
:10218000FB6A002B5FE000BF5DE000BF78563412B1
:102190000CC0000904C0000908C00009214365877C
:1021A00099EF53BD10C0000980C00009CCC00009E0
:1021B0005604002099BD53A70040000900C0000943
:1021C00014C0000954C000095CC00009BADCCDABE2
:1021D000994AC6D482C84F1700BF34E000BF32E02E
:1021E00000BF30E000BF2EE000BF2CE000BF2AE0BF
:1021F00000BF28E000BF26E000BF24E000BF22E0CF
:1022000000BF20E000BF1EE000BF1CE000BF1AE0DE
:1022100000BF18E000BF16E000BF14E000BF12E0EE
:1022200000BF10E000BF0EE000BF0CE000BF0AE0FE
:1022300000BF08E000BF06E000BF04E000BF02E00E
:1022400000BF00E000BF5DF04FFBFB6A184630376F
:10225000BD4680BD80B586B000AFF860B9607A60D9
:1022600000237B6113E007F110031946F868FFF7BC
:102270003FF878617B69002B15D13B69BA689A42B7
:1022800009D001205DF004FC7B68013B7B607B682A
:10229000002BE8D100E000BF3B69BA689A4204D045
:1022A00007237B6102E000BF00E000BF7B691846A6
:1022B0001837BD4680BD80B584B000AF0346396095
:1022C000FB713B689B793B723B68DB797B72002337
:1022D000BB7207F108031022002118465FF0A2FB31
:1022E0000346FB72FA7AFB799A4202D10023FB6023
:1022F00002E040F60133FB60FB6818461037BD462C
:1023000080BD000080B485B000AF78600B46FB70E4
:10231000FB7803F02003002B3DD07B686B2B28D08B
:102320006B2B0FD8022B27D0022B04D8002B1DD0EB
:10233000012B1ED02BE0042B25D0042B1FD35A2BAE
:1023400014D024E09E2B11D09E2B04D87C2B10D0CF
:102350008D2B0ED01BE041F23422934206D041F285
:102360005622934205D0AF2B03D010E00023FB6030
:1023700076E00123FB6073E02123FB6070E040F610
:102380000433FB606CE040F60333FB6068E001233C
:10239000FB6000BF64E07B68142B5ED801A252F89A
:1023A00023F000BFF9230000FF23000005240000F4
:1023B0000D240000132400001B240000232400002F
:1023C0002B240000332400003B24000043240000A1
:1023D0005B2400005B2400005B2400005B24000001
:1023E0005B2400005B2400005B2400005B240000F1
:1023F0004B240000532400000023FB6030E0212325
:10240000FB602DE040F61833FB6029E00123FB6000
:1024100026E040F61933FB6022E040F60433FB600F
:102420001EE040F61A33FB601AE040F61B33FB60F7
:1024300016E040F61C33FB6012E040F61D33FB60F3
:102440000EE040F61E33FB600AE040F61F33FB60EF
:1024500006E04FF43263FB6002E00123FB6000BF43
:10246000FB6818461437BD465DF8047B704700BF13
:1024700080B586B000AFF860B9603B601346FB7171
:10248000FB793A681946F8685DF036FA78617B693D
:10249000002B07D1FB681B683A68002118465EF0E4
:1024A00000FF00E000BF7B6918461837BD4680BDBD
:1024B00080B584B000AFF860B9601346FB71FB795A
:1024C0001946F8685DF062FA034618461037BD46B3
:1024D00080BD000080B584B000AF78603960214BCA
:1024E0001B7883F00103DBB2002B01D01E4B34E0DC
:1024F0007B68002B01D11D4B2FE003F097F9B860EA
:102500000023FB6022E01A4AFB681B0113440C33D2
:102510001B7883F00103DBB2002B14D0FA687B68D0
:102520001A60134AFB681B0113440C3301221A7012
:102530000F4AFB681B01134400221A60B86803F0BD
:1025400085F9002309E0FB680133FB60FB68172B6A
:10255000D9DDB86803F07AF9064B18461037BD4646
:1025600080BD00BF5A040020028000F0018000F00E
:102570005C040020048000F080B584B000AF00232C
:10258000FB7203F053F978600023FB600DE0144AFE
:10259000FB681B0113440C331B78002B02D0012372
:1025A000FB7205E0FB680133FB60FB68172BEEDD77
:1025B000FB7A83F00103DBB2002B09D004F00EFCA0
:1025C000084B00221A70786803F040F9002303E0FA
:1025D000786803F03BF9044B18461037BD4680BDC0
:1025E0005C0400205A040020058000F080B584B00F
:1025F00000AF7860164B1B7883F00103DBB2002B31
:1026000001D0144B1FE07B68172B01D9124B1AE045
:1026100003F00CF9F860114A7B681B0113440C337A
:102620001B78002B0BD00D4A7B681B0113440C3325
:1026300000221A70F86803F009F9002303E0F86833
:1026400003F004F9064B18461037BD4680BD00BFA5
:102650005A040020028000F0018000F05C04002099
:10266000068000F080B584B000AF194B1B687B601A
:1026700000233B7103F0DAF8B860164B1B78002B8F
:1026800004D0B86803F0E2F8134B1CE0114B0122B0
:102690001A70B86803F0DAF80023FB6009E00F4A0B
:1026A000FB681B0113440C3300221A70FB680133D2
:1026B000FB60FB68172BF2DD0423FB713B1D184602
:1026C00004F0A2FB002318461037BD4680BD00BFB2
:1026D000D83206005A040020038000F05C04002079
:1026E00080B58CB008AFF860B9607A603B60BB6AB7
:1026F00007937B6A069397F820300593FB69049350
:102700003B7E0393002302933B6801937B68009315
:10271000BB68FA680021002000F0C8F8034618469C
:102720001037BD4680BD80B58CB008AFF860B96089
:102730007A603B60BB6A07937B6A069397F8203008
:102740000593FB6904933B7E0393002302933B684C
:1027500001937B680093BB68FA680121002000F0B8
:10276000A5F8034618461037BD4680BD80B582B037
:1027700000AF7860114B1B7883F00103DBB2002BB4
:1027800001D00F4B16E07B68172B01D90D4B11E0E0
:102790000D4A7B681B0113440C331B7883F0010343
:1027A000DBB2002B01D0094B04E07B68184604F033
:1027B000BFFC002318460837BD4680BD5A040020E0
:1027C000028000F0018000F05C040020078000F02F
:1027D00080B586B000AF324B1B6EFB60304BDB6EBA
:1027E000FA681340FB60FB68002B00DAFEE7002369
:1027F0007B6101233B614CE0FA683B691340002B8D
:1028000041D0274A3B6993667B691B01254A1344E3
:10281000BB60BB681B68002B35D0BB689B685A1C2B
:10282000BB689A60BB681B68BA689168BA685268EE
:10283000786998470346002B14BF01230023DBB2BD
:1028400083F00103DBB2FB71FB7903F00103FB7141
:10285000BB685B7B012B16D1FB79002B13D0124A8E
:102860007B695B01134403F1080213796FF34103A1
:1028700013710D4A7B695B01134403F1180213794C
:102880006FF3410313717B6901337B613B695B002B
:102890003B617B69172BAFD900BF1837BD4680BDA0
:1028A000002000405C040020DC05002090B58BB0C7
:1028B00000AFBA607B600346FB730B46BB737A4B79
:1028C0001B7883F00103DBB2002B01D0774BE7E0EC
:1028D000BB68172B0FD8BB6B002B0CD0FB6B002BEE
:1028E00009D0BB6CB3F5006F05DCFB7B012B04D179
:1028F0003B6C002B01D16E4BD2E0BB681B016D4AD3
:1029000013447B627B6A1B7B83F00103DBB2002BE9
:1029100001D0694BC4E007F1100300221A605A602D
:102920009A60DA60BB685B01644A13443B62BB7B1C
:10293000002B1DD13B6A1A4600231360536093603D
:10294000D3603A6A937843F0100393703A6AD3786D
:1029500043F03003D37097F8443083F00103DBB2C7
:10296000002B22D03A6AD37843F00303D3701CE0E3
:102970003B6A1A460023136053609360D3603A6A3F
:10298000937843F0100393703A6AD37843F00303CB
:10299000D37097F8443083F00103DBB2002B04D0EE
:1029A0003A6AD37843F03003D3707B683B61BB6CE9
:1029B0009BB2013B9BB2C3F30A0399B23A6A1388F4
:1029C00061F30E131380BA6B3B6A9A60FA6B3B6A31
:1029D0005A6097F84C3003F00303D9B23A6AD378BF
:1029E00061F38303D370FB7B012B3AD13A6A137BEB
:1029F00043F0010313733A6A137B43F0020313732A
:102A00003A6AD368042161F39F03D3602B4ABB6801
:102A10005B01134403F110023B6A14460FCB84E8B8
:102A20000F00264ABB685B01134403F11802536888
:102A30006FF0030161F39F0353603A6C1F49BB6859
:102A40005B010B4414331A60BB7B012B09D1FA6B79
:102A50001A49BB685B010B4418331A603A6C3B6A35
:102A60005A603B6D002B07D1FB7B002B04D13A6AE7
:102A700093786FF3041393707B6A3A6D1A607B6AE4
:102A80007A6D5A607B6A00229A607B6AFA7B5A737D
:102A9000BB6807F110013A6A184604F025FA0023D2
:102AA00018462C37BD4690BD5A040020028000F025
:102AB000018000F05C040020078000F0DC050020AD
:102AC00080B582B000AF78607B68022B04D940F2F9
:102AD0009711074800F016FB064A7B6804331B0178
:102AE000134404331B6818460837BD4680BD00BF39
:102AF000303306000020064080B582B000AF786019
:102B000039607B68022B04D940F2AB11074800F012
:102B1000F9FA074A7B6804331B01134404333A680B
:102B20001A6000BF0837BD4680BD00BF30330600C5
:102B30000020064080B582B000AF78607868FFF76B
:102B4000BFFF034618460837BD4680BD80B582B03A
:102B500000AF7860396039687868FFF7CDFF00BF53
:102B60000837BD4680BD000080B400AF034B9B68B2
:102B70001846BD465DF8047B704700BF0020064044
:102B800080B483B000AF7860044A7B68136200BFF2
:102B90000C37BD465DF8047B704700BF002006403F
:102BA00080B483B000AF7860064B5A6A7B68DB4321
:102BB000044913404B6200BF0C37BD465DF8047BEF
:102BC000704700BF0020064080B483B000AF78603B
:102BD000054B5A6A04497B6813434B6200BF0C37AC
:102BE000BD465DF8047B70470020064080B483B08A
:102BF00000AF064B5B6A7B60044B9A697B681340AD
:102C000018460C37BD465DF8047B7047002006402F
:102C100080B586B000AF02F009FE3861FFF7E6FF2D
:102C2000F860FB6823F005031846FFF7A9FFFB686F
:102C300003F00403002B30D01C4B01221A70FFF765
:102C400093FF78610420FFF7ABFF194B1B687A698B
:102C5000D31ABB60B86800F02FF800F095F97869D6
:102C600000F0C4F9FFF780FF7861114B1B687A69A7
:102C7000D31ABB600120FFF75DFF02460C4B1B68B7
:102C8000D31A7B600B4B1B78002B03D0BA687B6890
:102C90009A42D7D2054B00221A7000F01DFA38690B
:102CA00002F0D4FD00BF1837BD4680BD0C090020DE
:102CB000080900200D090020F0B587B000AF78604A
:102CC00000237B6156E1AF497A6913469B001344A8
:102CD000DB000B441D3300221A70AA497A6913469F
:102CE0009B001344DB000B441C331B78002B00F0CB
:102CF0003E81A4497A6913469B001344DB000B44D0
:102D0000D3E900347A6811464FF00002A24208BFAE
:102D100099421AD29B497A6913469B001344DB00FF
:102D20000B44D3E900567B684FF000042946324635
:102D3000C91A62EB0402934C786903469B00034472
:102D4000DB002344C3E9001211E18E497A6913467E
:102D50009B001344DB000B441F331B78002B0AD16C
:102D600088497A6913469B001344DB000B441C33EB
:102D700000221A70E6E07B6819464FF00002814C91
:102D8000786903469B000344DB002344D3E90056E3
:102D90000B4614465B1B64EB0604C7E90234794911
:102DA0007A6913469B001344DB000B440833D3E9D4
:102DB000004574497A6913469B001344DB000B44B9
:102DC0000833D3E90023D7E902015DF083FFA41A99
:102DD00065EB030521462A466A4C786903469B0049
:102DE0000344DB002344C3E9001266497A691346B1
:102DF0009B001344DB000B4410331B68002B50DD99
:102E000060497A6913469B001344DB000B4414337A
:102E100019685C487A6913469B001344DB0003443D
:102E200010331B68194457487A6913469B001344B2
:102E3000DB0003441433196052497A6913469B003E
:102E40001344DB000B4414331B681D2B7AD94D4906
:102E50007A6913469B001344DB000B44D3E900342A
:102E6000591C44F10002474C786903469B00034417
:102E7000DB002344C3E9001242497A6913469B00F0
:102E80001344DB000B4414331B68A3F11E013D48BF
:102E90007A6913469B001344DB0003441433196022
:102EA00050E038497A6913469B001344DB000B4419
:102EB0001433196833487A6913469B001344DB00C6
:102EC000034410331B68C91A2E487A6913469B00C5
:102ED0001344DB000344143319602A497A6913460A
:102EE0009B001344DB000B4414331B681D2B29D9B2
:102EF00024497A6913469B001344DB000B44D3E951
:102F0000003413F1FF3144F1FF321E4C786903465F
:102F10009B000344DB002344C3E9001219497A698A
:102F200013469B001344DB000B4414331B68A3F1CE
:102F30001E0114487A6913469B001344DB000344C6
:102F4000143319600F497A6913469B001344DB0060
:102F50000B4418331B68002B09D00A497A691346C1
:102F60009B001344DB000B441D3301221A707B6964
:102F700001337B617B69002B7FF7A5AE00BF1C3757
:102F8000BD46F0BDE008002090B583B000AF00233F
:102F90007B6022E014497A6813469B001344DB00EF
:102FA0000B441D331B78002B14D00F497A6813464D
:102FB0009B001344DB000B4418331C6878680A49F3
:102FC0007A6813469B001344DB000B4420331B68D4
:102FD0001946A0477B6801337B607B68002BD9DDF5
:102FE00000BF0C37BD4690BDE008002090B58BB007
:102FF00000AF78604FF0FF334FF0FF34C7E906347D
:1030000000237B6227E031497A6A13469B00134410
:10301000DB000B441C331B78002B19D02B497A6A38
:1030200013469B001344DB000B44D3E90012D7E99D
:103030000634A24208BF99420AD224497A6A13464A
:103040009B001344DB000B44D3E90034C7E906348A
:103050007B6A01337B627B6A002BD4DD1C4B002230
:103060001A70D7E90634B4F1FF3F08BFB3F1FF3F50
:1030700027D0D7E90634C7E904346FF06403FB6056
:10308000FB6819464FF00002D7E90434A24208BF9A
:10309000994201D20B461446C7E906340D4A7B68B3
:1030A00013600420FFF76CFDBA697B68134419466E
:1030B0000120FFF74BFD064B01221A700420FFF799
:1030C00083FD00BF2C37BD4690BD00BFE008002047
:1030D0000D0900200809002080B500AFFFF786FD2C
:1030E000034603F00103002B07D00120FFF748FD42
:1030F000034B1B680133024A136000BF80BD00BF51
:103100001009002080B483B000AF78603960FEE71A
:1031100080B487B000AFF860B9607A60FB6803F1F3
:103120000473DA00BB6813449B007B617B697A6897
:103130001A6000BF1C37BD465DF8047B704780B441
:1031400085B000AF786039607B6803F10473DA0002
:103150003B6813449B00FB60FB681B6818461437F0
:10316000BD465DF8047B704780B485B000AF7860E1
:1031700039607B6803F1C063FB60FB683A681A60E2
:1031800000BF1437BD465DF8047B704780B485B03E
:1031900000AF786039607B6803F18063FB60FB6897
:1031A0003A681A6000BF1437BD465DF8047B70476B
:1031B00080B582B000AF78607B681F2B04D94FF4D4
:1031C00096710548FFF79EFF01227B6802FA03F320
:1031D00018460837BD4680BD8433060080B584B0EC
:1031E00000AF78607B68B3F5004F04D340F68631BA
:1031F0000E48FFF787FF7B680133B3FA83F3DBB236
:10320000C3F11F03FB60F868FFF7D2FF0346013BE1
:103210007A689A4204D040F68C310448FFF772FF76
:10322000FB6818461037BD4680BD00BFDC33060082
:1032300080B500AF00BF12210348FFF780FF0346AF
:10324000002BF8D100BF80BD04300E4080B500AF28
:10325000FFF7EEFF034B5B681B0C03F00303DBB2CD
:10326000184680BD00300E4080B584B000AF786055
:103270000123FB607B68124A934204D80023FB6061
:103280000023BB6008E07B680E4A934202D801230A
:10329000BB6001E00223BB60FA6810210A48FFF717
:1032A00037FF094BD3F8003123F04072BB681B068F
:1032B00005491343C1F8003100BF1037BD4680BD3A
:1032C0000048E8010090D00300400E4080B483B075
:1032D00000AF054B1B687B607B6818460C37BD460A
:1032E0005DF8047B704700BF1400002080B582B0F9
:1032F00000AFFDF7DBFA7860064BD3F800311B0A0C
:1033000003F01F0301337A6802FB03F31846083702
:10331000BD4680BD00400E4080B582B000AF0F4872
:1033200001F05EFA0346FB70FB78072B05D0092BF2
:1033300007D1FDF7BBFA78600BE0FFF7C7FF7860B5
:1033400007E000237B6040F6D8410548FFF7DAFE2E
:1033500000BF7B6818460837BD4680BD06000E00DA
:103360003034060080B584B000AF78607B68002BF5
:1033700002D0012B06D00BE0224801F031FA0346BF
:10338000FB720CE0204801F02BFA0346FB7206E0CA
:1033900040F6F8411D48FFF7B5FE00232EE0FB7A0A
:1033A000013B072B21D801A252F823F0CD330000B6
:1033B000EB330000EB330000DB330000EB330000A5
:1033C000EB330000D3330000E33300000023FB6045
:1033D00013E0FFF77BFFF8600FE0FDF79FFAF8605E
:1033E0000BE0FFF783FFF86007E00023FB6040F687
:1033F0000F510648FFF786FE00BFFB6818461037DE
:10340000BD4680BDB8003200B9003400303406003B
:1034100080B582B000AF1C4801F0E2F90346FB70B2
:10342000FB78043B062B21D801A252F823F000BF01
:10343000553400004D3400006D3400005D34000050
:103440006D3400006D340000653400000F4B1B68C4
:103450007B6013E0FDF762FA78600FE0FFF736FF5C
:1034600078600BE00A4B1B687B6007E000237B6001
:1034700040F639510748FFF745FE00BF7B68184604
:103480000837BD4680BD00BF0A7B36000C00002017
:10349000180000203034060080B584B000AF78609A
:1034A0007B68002B1AD11F4801F09AF90346FB7282
:1034B00000BFFB7A043B062B27D801A252F823F069
:1034C000F3340000EB3400000B350000FB34000047
:1034D0000B3500000B3500000335000040F6545159
:1034E0001148FFF70FFE002318E0104B1B68FB602C
:1034F00013E0FDF713FAF8600FE0FFF7E7FEF8605E
:103500000BE00B4B1B68FB6007E00023FB6040F601
:103510006B510548FFF7F6FD00BFFB6818461037F2
:10352000BD4680BD0B7C3800303406000C00002006
:103530001800002080B582B000AF244801F050F997
:103540000346FB70FB78023B092B31D801A252F8ED
:1035500023F000BFA1350000A9350000853500002B
:1035600099350000B1350000B1350000B1350000DB
:10357000B13500007D3500008D350000144B1B680F
:103580007B601DE0FDF7CAF9786019E0FDF7C6F928
:1035900003465B007B6013E00E4B1B687B600FE013
:1035A000FDF7F0F978600BE0FDF7DAF9786007E0F5
:1035B00000237B6040F6C2510748FFF7A3FD00BF20
:1035C0007B6818460837BD4680BD00BF0C7F3A00B7
:1035D000180000200C0000203034060080B584B0B4
:1035E00000AF786039604FF080435B6803F0407350
:1035F000FB600023BB6012E01C4ABB68DB00134485
:103600001A793B68DBB29A4206D1184ABB6852F875
:1036100033307A689A4206D9BB680133BB60BB6815
:10362000062BE9D900E000BFBB68072B07D10323B5
:10363000FB6040F616610E48FFF764FD05E00B4A9B
:10364000BB68DB0013445B79FB60FB681B06FB6017
:103650004FF080435B6823F040724FF08041FB687D
:1036600013434B6000BF1037BD4680BD8434060055
:103670003034060080B582B000AF4FF080431B6C41
:10368000002B14BF01230023FB714FF0804341F650
:1036900071321A64FDF700F9034600211846FFF75E
:1036A0009DFFFB79002B03D04FF0804300221A646A
:1036B00000BF0837BD4680BD80B584B000AF7860DC
:1036C00039600C4BFB603B68022B01D10A4BFB605D
:1036D0007A68FB689A4204D908490948FFF744FD13
:1036E00003E006490648FFF751FD00BF1037BD460D
:1036F00080BD00BF80D543020024F4000202020016
:103700000001004080B582B000AF786039607B680E
:103710000B4A934209D93B68002B06D14FF48051E4
:103720004FF08040FFF720FD05E04FF480514FF04F
:103730008040FFF72BFD00BF0837BD4680BD00BFAE
:1037400080F0FA0280B584B000AF786039604FF045
:1037500080431B6C002B14BF01230023FB734FF02D
:10376000804341F671321A6439687868FFF736FF92
:1037700039687868FFF7A0FF39687868FFF7C2FFFB
:10378000FB7B002B03D04FF0804300221A6400BF64
:103790001037BD4680BD000080B400AF044B5B6AAB
:1037A0001B0903F003031846BD465DF8047B704710
:1037B00000400E4080B483B000AF7860074B5B6A76
:1037C00023F030027B681B01044913434B6200BFA6
:1037D0000C37BD465DF8047B704700BF00400E40CB
:1037E00090B585B000AF78600023BB607B68474A26
:1037F000934212D0454A934203D8454A93420CD093
:1038000005E0444A934208D0434A934205D040F62B
:1038100016714248FFF776FC00E000BF786800F0C0
:10382000DFFF0346FB607B68384A934214D0374A77
:10383000934203D8364A934207D022E0354A934256
:1038400011D0354A934215D01BE0354BD3F8803068
:1038500003F00703FB601AE0314BD3F8843003F028
:103860000703FB6013E02E4BD3F88C3003F0070303
:10387000FB600CE02A4BD3F8883003F00703FB60B1
:1038800005E040F645712548FFF73CFC00BFFB68AA
:10389000042B2ED801A252F823F000BFED3800000F
:1038A000B1380000B9380000C9380000C138000044
:1038B000FDF756F8B86024E0FDF764F8B86020E042
:1038C000FDF757F8B8601CE0FCF7C6FF0446144B40
:1038D000D3F800311B0E03F0030301331846FFF742
:1038E00067FC0346B4FBF3F3BB600AE00023BB6054
:1038F00007E00023BB6040F69D710848FFF702FC1B
:1039000000BFBB6818461437BD4690BD03002000B9
:1039100002001E00040022000500240030340600CE
:1039200000400E4080B483B000AF78600A4BD3F8FB
:10393000443103F00103002B08D100BF064BD3F83C
:1039400040217B681340002BF8D100E000BF0C370A
:10395000BD465DF8047B704700400E4080B500AF67
:103960000321064800F092FC0321054800F08EFC7C
:103970000321044800F08AFC00BF80BD40410500DF
:10398000504107006041090080B582B000AFFCF7EC
:103990008DFF3860FFF75AFC0346022B1AD13A68B4
:1039A000224B1344224AA2FB0323DB0D7B607B687E
:1039B000002B02D07B68013B7B6079681D4800F0DA
:1039C00065FC79681C4800F061FC79681B4800F0D0
:1039D0005DFC27E03A681A4B13441A4AA2FB032302
:1039E0001B0E7B607B68002B02D07B68013B7B60F9
:1039F0007968104800F04AFC7968104800F046FCED
:103A00003A68114B1344114AA2FB03239B0E7B60BF
:103A10007B68002B02D07B68013B7B60796806489D
:103A200000F034FC00BF0837BD4680BDFF2C3101DB
:103A30006BCA5F6B404105005041070060410900BF
:103A40007FF0FA02893BE655FFA14A04B5FA9BEEE6
:103A500080B582B000AF7860786800F0ABFA0346BA
:103A6000013318460837BD4680BD80B582B000AF2F
:103A7000786039603B68013B1946786800F006FCC5
:103A800000BF0837BD4680BD80B586B000AF786006
:103A90000B46FB7000233B617B681B0A03F00F039E
:103AA000013B0E2B6AD801A252F823F0E93A00003C
:103AB000F53A00007D3B00007D3B0000EF3A00003E
:103AC000013B00000B3B0000153B0000213B0000C8
:103AD000773B00002D3B00004F3B00007D3B00008A
:103AE000FB3A0000713B0000314B7B614CE0314BF5
:103AF0007B6149E0304B7B6146E0304B7B6143E0CA
:103B00002F4B7B6101233B613EE02E4B7B611023F9
:103B10003B6139E02C4B7B614FF480733B6133E0B8
:103B20002A4B7B614FF480333B612DE0284B7B6156
:103B3000FB78002B14BF01230023DBB283F00103C9
:103B4000DBB2FB70FB7803F00103FB701CE0214B40
:103B50007B61FB78002B14BF01230023DBB283F0D1
:103B60000103DBB2FB70FB7803F00103FB700BE099
:103B7000194B7B6108E0194B7B6105E041F2A131F3
:103B80001748FFF7BFFA10E07B681B0B03F01F0319
:103B9000FB603B69002B02D03869FFF7C3FEFB785E
:103BA0001A46F9687869FFF7B3FA1837BD4680BD41
:103BB00000400E40B0400E40C0400E40C4400E4099
:103BC000E0400E40E8400E40EC400E40F0400E4019
:103BD00060410E4064410E40F0410E4050410E40A5
:103BE0003034060080B584B000AF78607B6803F4A1
:103BF0007813B3F5D01F00F04D81B3F5D01F3CD83A
:103C0000B3F5402F00F0C980B3F5402F18D8B3F5B5
:103C1000802F77D0B3F5802F06D8002B6ED0B3F568
:103C2000003F00F0AB80ACE1B3F5002F00F08880DE
:103C3000B3F5202F00F09380B3F5C02F71D0A0E131
:103C4000B3F5901F00F0BD80B3F5901F08D8B3F511
:103C5000602F00F06281B3F5801F00F0628190E177
:103C6000B3F5B01F00F0CA80B3F5C01F00F0D880D4
:103C7000B3F5A01F00F0B48083E1B3F5381F00F066
:103C8000F580B3F5381F1CD8B3F5001F00F0FD8098
:103C9000B3F5001F08D8B3F5E01F00F00D81B3F5B0
:103CA000F01F00F089806CE1B3F5201F00F02B813C
:103CB000B3F5281F00F0C780B3F5101F00F028816E
:103CC0005FE1B3F5501F00F03F81B3F5501F08D8F6
:103CD000B3F5401F00F00381B3F5481F00F02581C4
:103CE0004FE1B3F5601F00F04381B3F5681F00F0AA
:103CF0004481B3F5581F00F0378142E1FCF7D6FD4F
:103D0000F86046E1FCF7D2FDF860A44BD3F80C3123
:103D10001B0AC3F308030133FA68B2FBF3F3FB6039
:103D200037E1FCF7C3FDF8609C4BD3F818311B0A50
:103D3000C3F308030133FA68B2FBF3F3FB6028E135
:103D4000FCF7B4FDF860954BD3F81C311B0AC3F3A4
:103D500008030133FA68B2FBF3F3FB6019E1FCF7E7
:103D6000A5FDF8608D4BD3F804311B0AC3F308039B
:103D70000133FA68B2FBF3F3FB600AE1FCF796FD4E
:103D8000F860864BD3F808311B0AC3F308030133EC
:103D9000FA68B2FBF3F3FB60FBE0FCF787FDF86029
:103DA0007E4BD3F814311B0A03F01F030133FA686A
:103DB000B2FBF3F3FB60ECE07948FFF711FDF8602C
:103DC000E7E07748FFF70CFDF860744BD3F820313B
:103DD0001B0C03F00F03FA6822FA03F3FB60D8E030
:103DE0007048FFF7FDFCF8606C4BD3F8303103F0FE
:103DF0000303FA6822FA03F3FB60CAE06848FFF79E
:103E0000EFFCF860654BD3F8203103F00F03184640
:103E1000FFF7CEF90246FB68B3FBF2F3FB60B8E0B4
:103E20005F48FFF7DDFCF8605C4BD3F820311B09DD
:103E300003F00F031846FFF7BBF90246FB68B3FB1C
:103E4000F2F3FB60A5E05648FFF7CAFCF860534B5D
:103E5000D3F820311B0B03F007031846FFF7A8F92E
:103E60000246FB68B3FBF2F3FB6092E04C48FFF7BD
:103E7000B7FCF860494BD3F820311B0A03F0030369
:103E8000FA6822FA03F3FB6083E04748FFF7A8FCD7
:103E9000F8607EE04448FFF7A3FCF8603F4BD3F89E
:103EA000283103F003031846FFF782F90246FB6846
:103EB000B3FBF2F3FB606CE03B48FFF791FCF8606A
:103EC000364BD3F828311B0903F003031846FFF7DC
:103ED0006FF90246FB68B3FBF2F3FB6059E032482E
:103EE000FFF77EFCF8602D4BD3F828311B0B03F055
:103EF000030304331846FFF75BF90246FB68B3FB84
:103F0000F2F3FB6045E02948FFF76AFCF86040E007
:103F10002448FFF765FCF8603BE0FFF7FDF9F86027
:103F200037E0FFF7D3F9F86033E00020FFF71AFA23
:103F3000F8601A4BD3F85C3103F003030133FA68DD
:103F4000B2FBF3F3FB6024E00120FFF70BFAF8600B
:103F5000124BD3F85C311B0C03F003030133FA68F6
:103F6000B2FBF3F3FB6014E0FFF752FAF86010E0E5
:103F70000020FFF791FAF8600BE0FFF7DBFAF8603A
:103F800007E00023FB6041F2C7410948FFF7BAF898
:103F900000BFFB6818461037BD4680BD00400E408C
:103FA00002001E000500240003002000040022007F
:103FB0003034060080B584B000AF78607B681B09A0
:103FC00003F00F03BB60BB68013B0B2B00F2348195
:103FD00001A252F823F000BF094000001940000080
:103FE00029400000394000004940000059400000CD
:103FF000694000007940000045410000C1410000D7
:10400000E941000029420000924BD3F800311B0A1D
:1040100003F01F03FB6017E18E4BD3F814311B0A2A
:1040200003F01F03FB600FE18A4BD3F800311B0E36
:1040300003F00303FB6007E1864BD3F80C311B0A46
:10404000C3F30803FB60FFE0824BD3F818311B0A6F
:10405000C3F30803FB60F7E07E4BD3F81C311B0A67
:10406000C3F30803FB60EFE07A4BD3F808311B0A77
:10407000C3F30803FB60E7E07B68774A93422ED0E6
:10408000754A934206D8754A934244D0744A934283
:104090000AD04EE0734A93422FD0734A934210D015
:1040A000724A934229D044E06A4BD3F8203103F09E
:1040B0000F03FB60F868FFF77BF80346013BFB60EA
:1040C0003FE0644BD3F820311B0A03F00303FB608D
:1040D000F868FFF76DF80346013BFB6031E05D4B8C
:1040E000D3F820311B0903F00F03FB60F868FFF7DA
:1040F0005FF80346013BFB6023E0564BD3F82031C9
:104100001B0B03F00703FB60F868FFF751F8034649
:10411000013BFB6015E04F4BD3F820311B0C03F043
:104120000F03FB60F868FFF743F80346013BFB60B1
:1041300007E00023FB6041F23A514D48FEF7E2FFF1
:1041400000BF81E07B684B4A934212D04A4A9342B7
:104150001DD04A4A93422AD13E4BD3F8283103F06E
:104160000303FB60F868FFF723F80346013BFB609D
:1041700025E0384BD3F828311B0903F00303FB601B
:10418000F868FFF715F80346013BFB6017E0314B79
:10419000D3F828311B0B03F00303FB60FB680433E7
:1041A0001846FFF705F80346013BFB6007E00023D4
:1041B000FB6041F25E512E48FEF7A4FF00BF43E0D2
:1041C0007B682F4A934206D1224BD3F8303103F05B
:1041D0000303FB6007E00023FB6041F26D512448BC
:1041E000FEF790FF00BF2FE07B68264A934203D082
:1041F000254A934207D00EE0164BD3F85C3103F00A
:104200000303FB600FE0134BD3F85C311B0C03F08E
:104210000303FB6007E00023FB6041F28551144873
:10422000FEF770FF00BF0FE00A4BD3F804311B0A02
:10423000C3F30803FB6007E00023FB6041F29251E7
:104240000B48FEF75FFF00BFFB6818461037BD46FE
:1042500080BD00BF00400E4080161800804612004E
:104260008006160000362C0080262E0080002A00D2
:104270003034060090171C009037300090071A0069
:10428000A0091400B8003200B900340080B584B031
:1042900000AF786039607B681B0903F00F03FB6097
:1042A000FB68013B0B2B00F2808201A252F823F045
:1042B000E14200003D430000AB47000065430000C1
:1042C00093430000C1430000EF4300004944000055
:1042D00001460000CD460000114700007D47000068
:1042E0003B681F2B04D941F2BA51BA48FEF70AFFC6
:1042F000FFF7C0F9B848FEF7B7FFFFF72FFBB74B42
:10430000D3F8003123F4F8523B681B02B34913433E
:10431000C1F80031FCF7A0FAB860FEF797FF03463A
:104320001946B868FFF70EFAAD48FFF75BFC034685
:104330001846FEF799FFFFF727FB3CE23B681F2B6F
:1043400004D941F2D051A348FEF7DCFEA34BD3F8C9
:10435000143123F4F8523B681B02A0491343C1F8FF
:10436000143128E23B68B3F5007F04D341F2D75102
:104370009848FEF7C7FE994BD3F80C3123F4FF336E
:1043800023F480733A68120294491343C1F80C3144
:1043900011E23B68B3F5007F04D341F2DE518D4852
:1043A000FEF7B0FE8D4BD3F8183123F4FF3323F41E
:1043B00080733A68120289491343C1F81831FAE14F
:1043C0003B68B3F5007F04D341F2E6518148FEF724
:1043D00099FE824BD3F81C3123F4FF3323F480730E
:1043E0003A6812027D491343C1F81C31E3E13B688E
:1043F000B3F5007F04D341F2ED517648FEF782FE1B
:10440000FFF738F97448FEF72FFF744BD3F80831E3
:1044100023F4FF3323F480733A6812026F49134385
:10442000C1F80831FCF718FAB860FEF70FFF034631
:104430001946B868FFF786F96948FFF7D3FB0346CA
:104440001846FEF711FFB6E17B68664A934266D0D4
:10445000644A934209D8644A93422ED0634A9342F5
:1044600042D0634A93420CD0ACE0624A934200F0DF
:104470008D80614A93426ED0604A934200F08680FC
:10448000A0E03B68B3F5004F04D941F20161514807
:10449000FEF738FE3868FEF7A1FE38600420FFF70B
:1044A00041FA4E4BD3F8203123F470223B681B04B1
:1044B0004A491343C1F820318AE03B68022B04D9F2
:1044C00041F212614348FEF71DFE4FF48020FFF7D2
:1044D00029FA424BD3F8303123F003023F493B68BD
:1044E0001343C1F8303173E03B68B3F5004F04D992
:1044F00041F22F613748FEF705FE3868FEF76EFE81
:1045000038600420FFF70EFA344BD3F8203123F043
:104510000F0232493B681343C1F8203158E03B6831
:10452000B3F5004F04D941F23E612A48FEF7EAFD97
:104530003868FEF753FE38600420FFF7F3F9274B85
:10454000D3F8203123F0F0023B681B0123491343C9
:10455000C1F820313CE03B68082B04D941F24D61A1
:104560001C48FEF7CFFD3868FEF738FE386004209F
:10457000FFF7D8F9194BD3F8203123F440723B6888
:104580001B0216491343C1F8203121E03B68B3F503
:10459000004F04D941F25D610E48FEF7B3FD386863
:1045A000FEF71CFE38600420FFF7BCF90B4BD3F874
:1045B000203123F4E0423B681B0308491343C1F850
:1045C000203105E041F26B610248FEF79BFD00BF20
:1045D000F1E000BF303406000148E80100400E4021
:1045E00000050A0080161800A009140080061600B5
:1045F0008046120000362C0080262E0080002A0003
:104600007B686F4A93421FD06E4A934237D06E4AFE
:10461000934254D13B68082B04D941F274616B4832
:10462000FEF770FD3868FEF7D9FD38604020FFF7CF
:1046300079F9674BD3F8283123F0030264493B68CA
:104640001343C1F8283140E03B68082B04D941F2FC
:1046500083615E48FEF756FD3868FEF7BFFD38609F
:104660004020FFF75FF95A4BD3F8283123F030028E
:104670003B681B0156491343C1F8283125E03B68CC
:104680007F2B02D83B680E2B04D841F292614F4831
:10469000FEF738FD3868FEF7A1FD0346043B3B609A
:1046A0004020FFF73FF94A4BD3F8283123F440521A
:1046B0003B681B0346491343C1F8283105E041F22A
:1046C000A1614248FEF71EFD00BF74E07B68414ACD
:1046D000934216D13B68022B04D941F2AB613B48AF
:1046E000FEF710FD4FF48020FFF71CF9384BD3F88C
:1046F000303123F0030236493B681343C1F83031AF
:1047000005E041F2BB613148FEF7FCFC00BF52E01E
:104710007B68314A934203D0304A934213D026E05B
:104720003B68032B04D941F2C6612848FEF7EAFC36
:10473000274BD3F85C3123F0030225493B68134330
:10474000C1F85C3119E03B68032B04D941F2CE611A
:104750001E48FEF7D7FC1E4BD3F85C3123F44032E1
:104760003B681B041A491343C1F85C3105E041F270
:10477000D4611648FEF7C6FC00BF1CE03B68B3F5E9
:10478000007F04D341F2DC611048FEF7BBFC104B04
:10479000D3F8043123F4FF3323F480733A68120210
:1047A0000B491343C1F8043105E041F2E3610748C6
:1047B000FEF7A8FC00BF00BF1037BD4680BD00BF9C
:1047C00090171C009037300090071A003034060014
:1047D00000400E40A0091400B8003200B9003400B7
:1047E00080B584B000AF78600123FB737B6803F071
:1047F0000F03BB60BB68013B0B2B00F2748101A26D
:1048000052F823F03548000091480000C1480000EC
:10481000394900000949000069490000E74A0000E1
:104820008D490000CF490000134A0000534A0000A0
:10483000934A0000B54BD3F8943003F00703023BD2
:10484000052B21D801A252F823F000BF71480000C7
:104850006B4800006548000077480000834800006E
:104860007D4800000223FB7311E00323FB730EE07D
:104870000423FB730BE00D23FB7308E00E23FB7393
:1048800005E00A23FB7302E00523FB7300BF37E159
:104890009E4BD3F8803003F00703022B06D0042B85
:1048A00007D0012B08D10323FB7308E00223FB731D
:1048B00005E00C23FB7302E00123FB7300BF1FE143
:1048C000924BD3F8843003F00703013B032B17D836
:1048D00001A252F823F000BFE9480000EF480000B1
:1048E000FB480000F54800000323FB730BE00223A4
:1048F000FB7308E00C23FB7305E00623FB7302E067
:104900000123FB7300BFFBE0804BD3F8883003F03A
:104910000703022B06D0042B07D0012B08D1032359
:10492000FB7308E00223FB7305E00C23FB7302E03A
:104930000123FB7300BFE3E0744BD3F88C3003F02A
:104940000703022B06D0042B07D0012B08D1032329
:10495000FB7308E00223FB7305E00C23FB7302E00A
:104960000123FB7300BFCBE0684B1B6F03F0030315
:10497000002B04D0012B05D10923FB7305E007238D
:10498000FB7302E00123FB7300BFB9E05F4BD3F878
:104990005C3103F03003102B0CD0102B02D8002B0D
:1049A00005D010E0202B08D0302B09D00BE00123DC
:1049B000FB730BE00723FB7308E00423FB7305E0A4
:1049C0000823FB7302E00123FB7300BF98E04F4B09
:1049D000D3F85C3103F44013B3F5801F0FD0B3F567
:1049E000801F02D8002B07D08AE0B3F5001F09D042
:1049F000B3F5401F09D083E00123FB7308E00723D0
:104A0000FB7305E00423FB7302E00823FB7300BF84
:104A100076E03E4BD3F8603103F00303032B6AD8F2
:104A200001A252F823F000BF394A00003F4A0000BB
:104A3000454A00004B4A00000523FB7308E00423AD
:104A4000FB7305E00723FB7302E00A23FB7300BF3F
:104A500051E02E4BD3F8643103F00303032B4CD801
:104A600001A252F823F000BF794A00007F4A0000FB
:104A7000854A00008B4A00000523FB7308E00423ED
:104A8000FB7305E00723FB7302E00A23FB7300BFFF
:104A900033E01E4BD3F8F03103F00703052B2ED87B
:104AA00001A252F823F000BFC14A0000C74A00002B
:104AB000CD4A0000D34A0000D94A0000DF4A000076
:104AC0000A23FB730EE00423FB730BE00B23FB7341
:104AD00008E00523FB7305E00223FB7302E00323D8
:104AE000FB7300BF0BE00023FB7341F6EE010848A7
:104AF000FEF708FB04E000BF02E000BF00E000BFDB
:104B0000FB7B18461037BD4680BD00BF00400E40FD
:104B10003034060080B58AB000AF78600B46FB7079
:104B200003237B62032387F823300023BB61002328
:104B30007B617B68112B19D1FB78042B03D1FBF728
:104B4000EDFE78610BE0FB78052B08D100F082FBCD
:104B50000246BF4B9A4202D900F07CFB78617B6928
:104B6000002B03D00021786900F09EFF7B6803F0E2
:104B70000F033B613B69013B0B2B00F2C98201A291
:104B800052F823F0B54B0000D54C0000254D000035
:104B9000E94C0000074D0000CD4D00001151000010
:104BA000F74D00009D4E00001D4F0000AB4F000070
:104BB00037500000FB78023B0C2B53D801A252F86F
:104BC00023F000BFF94B0000054C0000114C000021
:104BD000234C0000654C0000654C0000654C000053
:104BE000654C00004D4C0000654C0000594C000025
:104BF000354C0000414C000004237B62002387F801
:104C0000233035E003237B62012387F823302FE034
:104C100002237B62022387F823308E48FEF724FBB1
:104C200026E001237B62032387F823308948FEF7BF
:104C30001BFB1DE005237B62032387F8233017E06D
:104C400007237B62072387F8233011E006237B626A
:104C5000052387F823300BE041F6AF117E48FEF7BD
:104C600051FA5BE241F6B4117B48FEF74BFA55E28C
:104C700097F82330072B06D097F823300122012123
:104C8000184600F0B3FBFEF7F5FCFEF767FE7B6904
:104C9000002B01D0FEF7CCFA704A7B6A536770484C
:104CA000FEF7A0FF03461846FEF7DEFAFBF7D4FD39
:104CB000F860FEF7CBFA03461946F868FEF742FDA6
:104CC0007B69002B03D10121002000F0EDFEFEF7EF
:104CD0005BFE23E2634BBB61FB78062B04D141F6FC
:104CE000F0115D48FEF70EFABB69002B01D0BB69DD
:104CF00000E05D4BBB61FB78062B04D141F6FA1155
:104D00005548FEF7FFF9BB69002B01D0BB6900E0F5
:104D1000564BBB61FB78062B04D141F604214E486B
:104D2000FEF7F0F9BB69002B01D0BB6900E0504BE6
:104D3000BB61FB78013B0B2B3ED801A252F823F05C
:104D4000714D0000774D0000874D0000B94D000007
:104D5000B94D0000974D0000B94D0000B94D00005D
:104D6000B94D0000B94D0000B94D0000B34D000031
:104D70000023FB6126E001220121002000F036FB28
:104D80000223FB611EE001220121012000F02EFB25
:104D90000123FB6116E0FBF75FFD03461846FEF7B3
:104DA00063FA012200213348FEF7B2F90323FB61C5
:104DB00008E00423FB6105E041F630212648FEF7B8
:104DC000A1F9ABE1BB69FA691A60A7E1FB78072B8F
:104DD00002D0092B04D007E0204B00221A6709E01B
:104DE0001E4B01221A6705E041F6BA211A48FEF768
:104DF00089F993E192E1FB78013B072B3CD801A2B2
:104E000052F823F0254E0000794E0000794E000044
:104E10003B4E0000794E0000794E00002B4E000002
:104E20004B4E00000023FB612CE0012201210420F5
:104E300000F0DCFA0123FB6124E0012201210220C1
:104E400000F0D4FA0223FB611CE00323FB6119E0AC
:104E5000002D31010148E8013034060000400E40C9
:104E600000050A0080400E408C400E4088400E40F5
:104E700084400E40B0400E4041F61831A948FEF77C
:104E800041F94BE1A84BD3F85C3123F03002FB69C8
:104E90001B01A5491343C1F85C313FE1FB78013B9D
:104EA000072B29D801A252F823F000BFCD4E0000F5
:104EB000F94E0000F94E0000E34E0000F94E0000EC
:104EC000F94E0000D34E0000F34E00000023FB61BA
:104ED00018E001220121042000F088FA0123FB617F
:104EE00010E001220121022000F080FA0223FB6180
:104EF00008E00323FB6105E041F63B318948FEF7FA
:104F000001F90BE1884BD3F85C3123F44012FB69C3
:104F10001B0585491343C1F85C31FFE0FB78043B76
:104F2000062B31D801A252F823F000BF594F0000E0
:104F3000494F0000894F0000694F0000894F000071
:104F4000894F0000794F000001220121032000F069
:104F50004DFA0023FB611DE001220121022000F037
:104F600045FA0123FB6115E001220121042000F034
:104F70003DFA0223FB610DE001220121052000F032
:104F800035FA0323FB6105E041F662316548FEF71F
:104F9000B9F8C3E0644BD3F8603123F003026249EF
:104FA000FB691343C1F86031B8E0FB78043B062B82
:104FB00030D801A252F823F0E54F0000D54F000091
:104FC00015500000F54F000015500000155000006E
:104FD0000550000001220121032000F007FA002300
:104FE000FB611DE001220121022000F0FFF90123F5
:104FF000FB6115E001220121042000F0F7F90223F2
:10500000FB610DE001220121052000F0EFF90323EF
:10501000FB6105E041F689314248FEF773F87DE017
:10502000414BD3F8643123F003023F49FB6913433A
:10503000C1F8643172E0FB78023B092B57D801A21A
:1050400052F823F0CF500000DF5000007D500000E8
:10505000BF500000EF500000EF500000EF50000084
:10506000EF5000006D5000008D5000000122012122
:10507000052000F0BBF90023FB613EE00122012185
:10508000022000F0B3F90123FB6136E0FBF746FC98
:105090000246264B9A4204D941F6A4312148FEF734
:1050A00031F8214B5B6A204A43F008035362012226
:1050B0000121022000F09AF90223FB611DE0012288
:1050C0000121032000F092F90323FB6115E0012286
:1050D0000121002000F08AF90423FB610DE0012288
:1050E0000121012000F082F90523FB6105E041F672
:1050F000C3310C48FEF706F810E00B4BD3F8F03143
:1051000023F007020849FB691343C1F8F03105E0B9
:1051100041F6EF310348FDF7F5FF00BF2837BD46E4
:1051200080BD00BF3034060000400E4040787D0155
:1051300080B483B000AF78607B68374A934243D035
:10514000354A934216D8354A93422DD0334A93427A
:1051500006D8334A934227D0324A934224D053E0B0
:10516000314A934228D0314A934229D0304A93425F
:105170001ED049E02F4A934236D02E4A934209D896
:105180002D4A934228D02D4A934229D02C4A93424B
:105190001ED039E02B4A93422ED02B4A93422FD077
:1051A0002A4A934224D02FE0294BD3F880302CE0B8
:1051B000274BD3F88C3028E0254BD3F8983024E0E7
:1051C000234BD3F89C3020E0214BD3F8A0301CE0D7
:1051D0001F4BD3F8A83018E01D4BD3F8AC3014E0C7
:1051E0001B4BD3F8B03010E0194BD3F8B4300CE0BF
:1051F000174BD3F8B83008E0154BD3F8BC3004E0B7
:10520000134BD3F8C03000E0002318460C37BD46DE
:105210005DF8047B704700BFC0EA210100093D0032
:1052200040420F0080841E00405DC6000024F40050
:10523000C0CF6A00006CDC020048E80180D5430260
:1052400080BA8C010090D00300A24A04007E56036D
:10525000B081E00F80B400AF034B1B681846BD4619
:105260005DF8047B704700BF0C00002080B586B05D
:1052700000AF78607868FFF75BFF78617B69002B8F
:1052800003D07B69B3F1FF3F04D141F681514F4810
:10529000FDF738FF4E4B1B683B614D4A7B6813603E
:1052A0001120FFF79DFA0346052B03D1FEF7E2F923
:1052B000FEF754FB00BF18214648FDF740FF0346A8
:1052C000002BF8D17B69B3F1FF3F04D141F6925135
:1052D0003E48FDF717FF7B683F4A93420DD03F4A97
:1052E000934211D03E4A934200D012E07B6923F0F2
:1052F000C06343F080637B610BE07B6923F0C06394
:1053000043F000737B6104E07B6923F0C0637B6141
:1053100000BF1120FFF764FA0346052B02D178681D
:10532000FDF7A2FF7A683B699A4203D901217868A8
:1053300000F0BAFB2B4A7B6913611120FFF750FA8A
:105340000346052B26D1FBF787FAF860FA687B68DD
:105350009A4204D941F6BE511C48FDF7D3FE1C4BBE
:105360001B68FA689A4204D941F6BF511748FDF705
:10537000C9FE174B1B687A689A4204D04FF4EE516D
:105380001248FDF7BFFEFDF761FF03461946F868B6
:10539000FEF7D8F91448FEF725FC03461846FDF73A
:1053A00063FF7A683B699A4203D80121002000F02C
:1053B0007BFB1120FFF714FA0346052B01D1FEF702
:1053C000E3FA00BF1837BD4680BD00BF3034060089
:1053D0000C00002040410E4080841E0000093D006A
:1053E00040420F0000400E4000050A0080B588B022
:1053F00000AF0346FB710B46BB7113467B71FB7913
:10540000052B49D801A252F823F000BF6D540000CB
:105410005B5400003754000025540000495400003C
:105420008354000001237B6102233B610123FB6164
:105430000023BB6136E004237B6108233B61032327
:10544000FB610223BB612DE010237B6120233B61C4
:105450000523FB610423BB6124E040237B6180239F
:105460003B610723FB610623BB611BE04FF48073A4
:105470007B614FF400733B610923FB610823BB612F
:1054800010E04FF480637B614FF400633B610B23BA
:10549000FB610A23BB6105E041F6F5714248FDF767
:1054A00031FE7DE0BB79002B5ED00023FB73FB79DE
:1054B000022B1AD1FEF770F90346012B15D13B4B95
:1054C000DB6B03F48063002B04D142F20401364805
:1054D000FDF718FE0123FB73354B5B6A03F00303F2
:1054E000032B02D10220FEF765F9314A7B6913666E
:1054F00000BFB9692F48FDF722FE0346002BF8D004
:105500007B79002B4CD000BFF9692A48FDF717FEC4
:105510000346002BF8D0FB79022B41D1FB7B002BFB
:105520003ED0234B5B6A03F00303032B03D000211F
:10553000022000F021F9022000F03EF8B8600122BC
:1055400000210220FFF752FFB968022000F074F832
:10555000174A7B69136600BFF9691648FDF7EFFD2E
:105560000346002BF8D01BE0114A3B69136600BFCD
:105570000F4BD3F890300121BA6901FA02F21340BF
:10558000002BF5D17B79002B0AD000BF084BD3F854
:1055900090300121FA6901FA02F21340002BF5D193
:1055A0002037BD4680BD00BF3034060000300E40BD
:1055B00000400E4090400E4080B584B000AF0346DE
:1055C000FB71FB79013B042B24D801A252F823F094
:1055D000E555000015560000F15500000956000081
:1055E000FD550000124B1B6AC3F30803FB6019E072
:1055F0000F4B1B6903F07F03FB6013E00C4B9B68B0
:1056000003F07F03FB600DE0094B9B6903F07F0310
:10561000FB6007E00023FB6042F281010548FDF7D3
:1056200071FD00BFFB6818461037BD4680BD00BF46
:1056300000400E403034060080B582B000AF034613
:105640003960FB71FB79013B042B00F2848001A2DD
:1056500052F823F06956000057570000A956000081
:105660001D570000E35600003B68B3F5007F04D3EC
:1056700042F2A7013D48FDF745FD3B68C3F308032F
:105680003B6000BF1A213A48FDF759FD0346002B45
:10569000F8D1384B1B6A23F4FF7323F0010335491B
:1056A0003A6813430B625CE03B687F2B04D942F2FB
:1056B000B4012E48FDF726FD3B6803F07F033B60F5
:1056C00000BF18212A48FDF73AFD0346002BF8D108
:1056D000284B1B6923F07F0226493B6813430B616B
:1056E0003FE03B687F2B04D942F2C2011F48FDF71F
:1056F00009FD3B6803F07F033B6000BF1E211C488F
:10570000FDF71DFD0346002BF8D11A4B9B6823F0D3
:105710007F0218493B6813438B6022E03B687F2B74
:1057200004D942F2CF011148FDF7ECFC3B6803F0CD
:105730007F033B6000BF19210D48FDF700FD0346C4
:10574000002BF8D10B4B9B6923F07F0209493B6882
:1057500013438B6105E042F2F8010448FDF7D2FCE7
:1057600000BF00BF0837BD4680BD00BF3034060013
:1057700040410E4000400E4080B584B000AF03466B
:105780000A46FB711346BB71FB79022B04D042F22F
:1057900010111448FDF7B6FCFDF7FEFF0346012B80
:1057A00003D14FF48003FB600EE0BB79002B03D1E3
:1057B0004FF48003FB6007E00B4BFB6042F22B11C0
:1057C0000848FDF79FFC00BF00BF084BD3F89020AE
:1057D000FB681340FA689A42F7D101231846103744
:1057E000BD4680BD30340600FF3F473A00400E40C2
:1057F00080B483B000AFEFF310833B603B687B6005
:1058000072B67B6818460C37BD465DF8047B70475E
:1058100080B483B000AF78607B68002B00D162B6A3
:1058200000BF0C37BD465DF8047B704780B483B081
:1058300000AFEFF310833B603B687B6072B67B6820
:1058400018460C37BD465DF8047B704780B483B0C2
:1058500000AF78607B68002B00D162B600BF0C37C8
:10586000BD465DF8047B7047F0B482B000AF78604D
:1058700039607B681A687B681E687B681D687B6876
:105880001C683B681A603B6804331E603B68083341
:105890001D603B680C331C6000BF0837BD46F0BC80
:1058A0007047000080B584B000AF78600B46FB7095
:1058B0007B685B6823F01F03FB60FB780E2B2FD8FF
:1058C00001A252F823F000BF05590000055900005D
:1058D0000559000005590000055900001159000044
:1058E0001159000011590000055900000559000028
:1058F0000559000005590000115900001159000018
:1059000011590000FA78FB681A437B685A600CE072
:10591000FA78FB68134343F010027B685A6004E096
:10592000F1210448FDF7EEFB00BF00BF1037BD4674
:1059300080BD00BFBC34060080B584B000AFF86005
:10594000B9601346FB71BB68002B04D14FF485711D
:105950000C48FDF7D7FBFB682033B9681846FFF702
:1059600083FFFB79102B08D1FB6803F12002BB6891
:10597000103319461046FFF777FF00BF1037BD46BA
:1059800080BD00BFBC34060080B487B000AFF860B3
:10599000B9607A60FB6803F10473DA00BB681344F2
:1059A0009B007B617B697A681A6000BF1C37BD462B
:1059B0005DF8047B704780B485B000AF78603960D3
:1059C0007B6803F10473DA003B6813449B00FB60BF
:1059D000FB681B6818461437BD465DF8047B7047AA
:1059E00080B500AF00BF12210348FFF7E4FF034674
:1059F000002BF8D100BF80BD04300E4080B500AF51
:105A0000FFF7EEFF034B5B681B0C03F00303DBB2F5
:105A1000184680BD00300E4080B483B000AF78607F
:105A2000044A7B68D36200BF0C37BD465DF8047B37
:105A3000704700BF00300E4080B400AF034B5B6A7C
:105A40001846BD465DF8047B704700BF00300E402D
:105A500080B400AF034B00225A6300BFBD465DF81F
:105A6000047B704700300E4080B400AF044B4AF610
:105A7000E8525A6300BFBD465DF8047B704700BF23
:105A800000300E4080B483B000AF0346FB71FB7959
:105A9000C3F10203102202FA03F318460C37BD4685
:105AA0005DF8047B7047000080B584B000AF78607B
:105AB0000B46FB70154BD3F800311B0A03F01F0394
:105AC0000133BB607B68002B07D1FAF7EFFE02467B
:105AD000BB6802FB03F3FB6001E07B68FB600C4BDF
