:100000000000082079570100A5570100FD050000F8
:10001000A5570100A5570100A5570100A5570100EC
:10002000A5570100A5570100A5570100A5570100DC
:10003000A5570100A4570100A557010005040000C1
:10004000A5570100A5570100A55701004D05000067
:10005000A5570100A5570100A5570100A5570100AC
:10006000A5570100A5570100A5570100A55701009C
:10007000A557010059050000A5570100A55701002B
:10008000A5570100A5570100A5570100A55701007C
:10009000A5570100A5570100A5570100A55701006C
:1000A000A5570100A5570100A5570100A55701005C
:1000B000A5570100A5570100A5570100A55701004C
:1000C000A5570100A5570100A5570100A55701003C
:1000D000A5570100A5570100A55701002D550100A6
:1000E000A5570100A5570100A5570100A55701001C
:1000F000A5570100A5570100A5570100A55701000C
:10010000A5570100A5570100A5570100A5570100FB
:10011000A5570100A5570100A5570100A5570100EB
:10012000A5570100A5570100A5570100A5570100DB
:10013000A5570100A5570100A5570100A5570100CB
:10014000A5570100A5570100A5570100A5570100BB
:1001500010B5054C237833B9044B13B10448AFF301
:1001600000800123237010BD200300200000000048
:100170005C05100008B5034B1BB103490348AFF3FE
:10018000008008BD00000000240300205C05100072
:10019000154B002B08BF134B9D46A3F5803A002159
:1001A0008B460F461348144A121A19F0ECFD0F4BF8
:1001B000002B00D098470E4B002B00D09847002012
:1001C000002104000D000D48002802D00C48AFF3B8
:1001D000008019F04DFD2000290000F045F919F0CC
:1001E00033FD00BF000008000000082000000000F0
:1001F00000000000200300207CFA00200000000026
:100200000000000080B483B000AF0346FB7197F993
:100210000730002B0BDBFB7903F01F02074997F92E
:1002200007305B09012000FA02F241F8232000BFE9
:100230000C37BD465DF8047B704700BF00E100E06D
:1002400080B483B000AF0346FB7197F90730002BF1
:100250000CDBFB7903F01F02074997F907305B09B4
:10026000012000FA02F2603341F8232000BF0C376E
:10027000BD465DF8047B704700E100E080B483B0C8
:1002800000AF03463960FB7197F90730002B0ADB9A
:100290003B68DAB20C4997F907305201D2B20B44ED
:1002A00083F800230AE03B68DAB20849FB7903F0DF
:1002B0000F03043B5201D2B20B441A7600BF0C3735
:1002C000BD465DF8047B704700E100E000ED00E012
:1002D00080B582B000AF78607B68013BB3F1807F6E
:1002E00001D301230FE00A4A7B68013B53600721D9
:1002F0004FF0FF30FFF7C2FF054B00229A60044B1E
:1003000007221A60002318460837BD4680BD00BF8B
:1003100010E000E080B483B000AF7860044A7B68EE
:10032000C2F8243400BF0C37BD465DF8047B70472B
:100330000080084080B400AF034BD3F81C3418464B
:10034000BD465DF8047B70470080084080B584B0EE
:1003500002AF396011461A460346FB710B46BB716A
:1003600013467B71BA79F8793B7C01937B790093D2
:1003700013463A68396812F0B3FE00BF0837BD462D
:1003800080BD80B582B000AF7860786811F09AFBCC
:1003900000BF0837BD4680BD80B400AF4FF080433A
:1003A00001225A64154BD3F8B030144A43F00103CC
:1003B000C2F8B030114BD3F8E030104A43F00803D4
:1003C000C2F8E0300E4B1B680D4A43F480531360B3
:1003D0000A4BD3F8E030094A23F00803C2F8E030B2
:1003E000064BD3F8B030054A23F00103C2F8B03011
:1003F00000BFBD465DF8047B704700BF00400E4063
:100400003440054080B400AF044B1B680133034AFD
:10041000136000BFBD465DF8047B70473C030020BD
:1004200080B485B000AF7860084B1B68FB6000BFEC
:10043000064B1A68FB68D31A7A689A42F8D800BF4C
:100440001437BD465DF8047B704700BF3C030020B5
:1004500080B400AF034B1B681846BD465DF8047BB3
:10046000704700BF3C03002090B585B000AF1C4B27
:100470003C460FCB84E80F00FFF78EFF1948FFF7CB
:1004800080FF01237B703B46184612F0E5F90021FE
:10049000154810F03FFE154810F0D0FA0246144BF4
:1004A000A3FB02239B091846FFF712FF4FF0FF3012
:1004B000FFF7A8FE15F088FC15F082F8012015F072
:1004C00069F80C4819F010FD0B4819F00DFD00F00B
:1004D00049F816F05DFC18F005FD16F065FFFAE727
:1004E00064B4010000A24A0440410500700002000B
:1004F000D34D621058B401005CB4010080B582B0E5
:1005000000AFFFF717FF78607868FFF703FF7B689D
:1005100003F48063002B02D00B4B01221A707B681E
:1005200003F48073002B02D0002015F0C3FC7B681D
:1005300003F40073002B02D0012015F0BBFC00BFB8
:100540000837BD4680BD00BFD619002080B500AF7A
:10055000FFF7D4FF00BF80BD80B500AFFFF7CEFF2F
:1005600000BF80BD80B582B002AF0121224810F0EB
:10057000B7F9002301220821022012F07FFE002398
:1005800001220921022012F079FE012300930123A8
:10059000002208210220FFF7D9FE01230093012346
:1005A000002209210220FFF7D1FE002304220421AA
:1005B000022012F063FE002304220C21002012F01E
:1005C0005DFE002302220821042012F057FE0122C2
:1005D0000121002011F032FB0D20FFF731FE0D202C
:1005E000FFF710FE0320FFF72BFE0320FFF70AFEA4
:1005F00000BFBD4680BD00BF00550A001EF0040FBD
:100600000CBFEFF30880EFF30980714600F002B8E9
:1006100000BF000080B58EB000AF786039603D4B00
:100620009B6B7B633B4B5B6B3B633A4B9B6AFB6215
:100630007B681B68BB627B685B687B627B689B68CE
:100640003B627B68DB68FB617B681B69BB617B6825
:100650005B697B617B689B693B617B68DB69FB60F5
:100660002D4819F041FC2D4819F03EFCB96A2C4880
:1006700019F03AFC796A2B4819F036FC396A2A4895
:1006800019F032FCF969294819F02EFCB96928489B
:1006900019F02AFC7969274819F026FC396926489F
:1006A00019F022FCF968254819F01EFC244819F0BD
:1006B0001BFCF96A234819F017FC164BDB6A194634
:1006C000214819F011FC134B1B6B19461F4819F0F8
:1006D0000BFC104BDB6B19461D4819F005FCFB6A3F
:1006E00003F08003002B03D0396B1A4819F0FCFB90
:1006F000FB6A03F40043002B03D0796B164819F012
:10070000F3FB164819F0F0FB3968154819F0ECFBBB
:10071000FEE700BF00ED00E074B4010084B4010006
:1007200094B40100A4B40100B4B40100C4B4010045
:10073000D4B40100E4B40100F4B4010004B5010034
:1007400014B5010020B5010030B5010040B501002D
:1007500050B5010060B5010070B5010080B5010021
:1007600088B5010080B586B000AF786039600E238F
:10077000FB827B685B890E2B6ED97B68DB7B002B51
:1007800006D13B6893F834300133DAB27B68DA7310
:100790007B685B683B613B691A7B5B7B1B02134395
:1007A000FB813B691B7803F00103002B23D03B69DD
:1007B0001B78012B0FD13B695B78002B1BD13B6968
:1007C0009B785E2B17D17B685B7B43F01003DAB21A
:1007D0007B685A730FE03B6906222849184619F0D6
:1007E0009FFA0346002B06D17B685B7B43F008032E
:1007F000DAB27B685A73FB89082B03D0B3F5C16F5B
:1008000014D032E03B6893F8313003F00803002B3A
:1008100024D0FB8A1946786805F0E2FE0346002BD7
:100820001ED13968786803F015F913E03B6893F836
:10083000313003F00803002B14D0FB8A1946786886
:1008400005F0CEFE0346002B0ED13968786802F021
:1008500075FA00BF00230CE000BF06E000BF04E013
:1008600000BF02E000BF00E000BF786805F03EFF77
:10087000002318461837BD4680BD00BFA0B5010053
:1008800080B586B000AFF860B9607A603B603B8CA1
:10089000184604F0EFF90346FB820E21B86805F014
:1008A0008FFE0346002B25D1BB685B683B613B692B
:1008B000FA8A9A813B6906223968184619F03FFA8C
:1008C0003B69063306227968184619F038FAFB6846
:1008D00093F83030062B06D00A4B40F233120A4907
:1008E0000A4819F001FBFB689B69B968F8689847EA
:1008F000034602E000BF6FF0010318461837BD46FB
:1009000080BD00BFB0B5010028B601005CB6010093
:1009100080B500AF204B1B78002B33D11F4B1B68D9
:10092000002B05D01E4BE5221E491F4819F0DCFAAA
:100930000CF04EFE0246194B1A60184B1B68002B38
:1009400002D14FF0FF3324E0144B1B685A7A134B4B
:100950001B6842F02002D2B25A72104B1B6844222C
:10096000124918460CF0B4FC0C4B1B6843220F498B
:1009700018460CF035FD094B1B6800220C4918463F
:100980000CF0C4FD044B1B780133DAB2024B1A7031
:100990000023184680BD00BF440300204003002010
:1009A00084B60100FCB6010024B7010034BF010089
:1009B0008122000080B500AF0E4B1B78002B05D1C3
:1009C0000D4BFF220D490E4819F08EFA094B1B788A
:1009D000013BDAB2074B1A70064B1B78002B07D18C
:1009E000084B1B6818460CF0B1FD064B00221A603C
:1009F00000BF80BD4403002084B601004CB7010055
:100A000024B701004003002080B584B000AF7860B7
:100A10007B685B6AFB600C21F86801F072F8064B9A
:100A2000054A0549786805F0BFF9786800F05AFC76
:100A300000BF1037BD4680BD34BF010080B584B013
:100A400000AF78607B685B6AFB600821F86801F0A2
:100A500058F8FB681C3300221946786802F0A2FBA4
:100A60000346FB72FB689B79FF2B05D0FB689B79E3
:100A70000133DAB2FB689A714FF4FA733B813B8918
:100A800003F2F313064A82FB03125211DB17D31A47
:100A90009AB2FB681A8100BF1037BD4680BD00BF07
:100AA000D34D621080B584B000AF786039607B6848
:100AB0005B6AFB600C4B9B78002B11D0FB6800221B
:100AC0001A810A4B9B68184604F0E9F80246FB6855
:100AD0009A613B681A69FB68DA61786800F008F887
:100AE00000BF1037BD4680BDE4190020EC1900207E
:100AF000B0B58AB002AF78607B68002B09D1714B2A
:100B000040F277127049714819F0EEF96FF00F0357
:100B1000D3E07B685B6ABB61BB69002B09D1694B81
:100B200040F279126A49694819F0DEF96FF005035D
:100B3000C3E00121B86900F0E4FF07F10C030322D0
:100B4000B969786801F068FC78617B69002B00F076
:100B500085807B695B683B61B8893B6903F1F00183
:100B60000223392200F0E8FF0346BB81B8893B69C4
:100B700003F1F0017B681B8D1A4601F037F803463C
:100B8000BB81B8893B6903F1F0010423322200F0F4
:100B9000D3FF0346BB81BC893B6903F1F005BB6908
:100BA000DB69184604F07BF803461A4629462046BE
:100BB00001F04EF80346BB81B8893B6903F1F001AF
:100BC0000423362200F0B8FF0346BB81BC893B6991
:100BD00003F1F005BB699B69184604F060F8034611
:100BE0001A462946204601F033F80346BB81B889EE
:100BF0003B6903F1F0010323372200F09DFF034618
:100C0000BB810023BB770EE0B8893B6903F1F0019B
:100C1000BB7F304AD35C1A4600F0C2FF0346BB815B
:100C2000BB7F0133BB77BB7F022BEDD9B8893B6912
:100C3000F0337A69194601F0C5FC274B1868274B39
:100C400001937B6800934323254A79690CF040FAAD
:100C50000346FB77786905F049FD01E0FF23FB7748
:100C6000BB699B79FF2B05D0BB699B790133DAB255
:100C7000BB699A71BB699B79052B0DD8BB699B79C0
:100C80001A46012393409BB21A465201D21A92008F
:100C90001344DB009BB201E04EF66023FB81FB892D
:100CA00003F2F3130F4A82FB03125211DB17D31A1C
:100CB0009AB2BB691A8197F91F3018462037BD4692
:100CC000B0BD00BF84B6010070B7010024B70100B9
:100CD0008CB70100000000204003002034BF010059
:100CE00038BF0100D34D621080B582B000AF274BF2
:100CF0001B687B6042E07B685B6A3B603B68002B63
:100D000039D03B685B79002B35D03B689B8A002B40
:100D100012D03B685B8A01339AB23B685A823B68C7
:100D20005A8A3B689B8A9A4206D1786800F044FE52
:100D3000786800F069F91EE03B681B8A002B0BD035
:100D40003B681B8A5A1E91B23A681182012B03D16B
:100D5000786800F0C6F80EE03B68DB89002B0AD00B
:100D60003B68DB895A1E91B23A68D181012B02D1CE
:100D7000786800F088F87B681B687B607B68002BD4
:100D8000B9D100BF0837BD4680BD00BF4CEE002082
:100D900080B582B000AF164B1B687B6020E07B689B
:100DA0005B6A3B603B68002B17D03B681B89012BBB
:100DB00006D93B681B89013B9AB23B681A810CE05B
:100DC0003B681B89012B08D13B681B89013B9AB208
:100DD0003B681A81786800F00DF87B681B687B60BF
:100DE0007B68002BDBD100BF0837BD4680BD00BF4C
:100DF0004CEE002080B584B000AF78607B685B6A01
:100E0000FB60FB685B790C2B03D0FB685B79062BDE
:100E100003D1786800F066FA31E0FB685B79012B5A
:100E20000ED1FB689B79052B03D87868FFF760FE2D
:100E300025E0786800F0C0FD786800F0E5F81EE075
:100E4000FB685B79082B0BD1FB689B79012B03D8DE
:100E50007868FFF7F3FD12E0786800F0E5FA0EE03D
:100E6000FB685B79032B0AD1FB689B79012B03D8C4
:100E7000786800F0EBFC02E0786800F033FA00BF1D
:100E80001037BD4680BD80B584B000AF78607B6808
:100E90005B6AFB60FB685B79012B07D0FB685B79C1
:100EA0000A2B03D0FB685B79052B16D1786800F01C
:100EB00095FBFB689B891A46FB685B8AD31A012B5A
:100EC0000BDDFB689B891A46FB685B8AD31ADA0F35
:100ED00013445B109AB2FB68DA8100BF1037BD463D
:100EE00080BD80B584B000AF78607B685B6AFB60D2
:100EF000FB685B79012B0BD0FB685B790A2B07D071
:100F0000FB685B79052B03D0FB685B79042B16D15A
:100F1000786800F0FFFBFB689B8A1A46FB685B8AD7
:100F2000D31A012B0BDDFB689B8A1A46FB685B8A90
:100F3000D31ADA0F13445B109AB2FB681A8200BF0F
:100F40001037BD4680BD000080B584B000AF78602A
:100F500039607B685B6AFB60FB6800221A62FB6891
:100F600000225A62264BDB78002B03D0254BDA682F
:100F7000FB689A62224B1B79002B04D0214B1A6923
:100F8000FB68DA6204E0FB689B6A5A08FB68DA6275
:100F90001B4B5B79002B04D01A4B5A69FB681A6310
:100FA00007E0FB689A6A1346DB009B1ADA08FB68C5
:100FB0001A633B681A69FB68DA61114B9B79002B55
:100FC0000BD0104B9B69184603F069FE0246FB6884
:100FD0001A62FB680122DA7102E0FB680022DA7112
:100FE000074BDB79002B07D0064BDB69184603F073
:100FF00056FE0246FB685A6200BF1037BD4680BDF0
:10100000E4190020EC19002080B584B000AF7860AE
:101010007B68002B09D1374B40F2E722364937482D
:1010200018F062FF6FF00F0360E07B6893F83130D7
:1010300003F00103002B09D12E4B4FF43A723049D3
:101040002E4818F051FF6FF00F034FE07B685B6A8A
:10105000FB607B681B8DB3F5107F02D24FF0FF332E
:1010600044E0FB68002B0DD1342004F041FBF86014
:10107000FB68002B02D14FF0FF3337E07B68FA6842
:101080005A6205E0FB681B79002B01D0FFF792FC48
:1010900034220021F86818F076FEFFF739FC034689
:1010A000002B02D04FF0FF3320E0FB6801221A71C1
:1010B0007B6893F8313003F00403002B05D1022143
:1010C000F86800F01EFD002310E0786800F00AF9CF
:1010D0000346FB7297F90B30002B05D0786800F0BF
:1010E0006BFC4FF0FF3301E097F90B3018461037D7
:1010F000BD4680BD84B60100A8B7010024B7010039
:10110000ECB7010080B584B000AF78607B685B6AA3
:10111000FB60FB68002B37D0FB685B790A2B20D87B
:1011200001A252F823F000BF8D11000063110000EE
:101130006311000055110000551100005511000009
:1011400063110000631100006311000063110000CF
:1011500055110000FB6800229A71786800F076FB58
:1011600015E0FB685B790C2B06D90A4B40F26D3217
:1011700009490A4818F0B8FEFB6800229A7178689D
:1011800000F0B0F800BF02E000BF00E000BF103781
:10119000BD4680BD84B6010010B8010024B701002F
:1011A00080B584B000AF786039607B68002B07D1D0
:1011B0000E4B40F28B320E490E4818F095FE12E0AD
:1011C0007B685B6AFB60FB68002B0CD0FB685B797B
:1011D000082B08D13B681A68FB68DB699A4202D188
:1011E000786800F009F81037BD4680BD84B601006C
:1011F000A8B7010024B70100B0B58AB002AF78608B
:101200007B685B6ABB610C21B86900F07AFC07F16E
:101210000C030422B969786801F0FEF878617B69F3
:10122000002B35D07B695B683B61B8893B6903F172
:10123000F0010423322200F07FFC0346BB81BC890D
:101240003B6903F1F005BB69DB69184603F027FD34
:1012500003461A462946204600F0FAFC0346BB81A5
:10126000B8893B69F0337A69194601F0ABF9194B3B
:101270001868194B01937B6800934323174A7969D7
:101280000BF026FF0346FB77786905F02FFA01E0A3
:10129000FF23FB77BB699B79FF2B05D0BB699B794B
:1012A0000133DAB2BB699A7142F21073FB81FB8998
:1012B00003F2F3130A4A82FB03125211DB17D31A0B
:1012C0009AB2BB691A8197F91F3018462037BD467C
:1012D000B0BD00BF4003002034BF010038BF010093
:1012E000D34D621080B58AB002AF78607B685B6ACC
:1012F000BB610023FB75BB690022DA610621B86976
:1013000000F0FFFB07F108030122B969786801F0DA
:1013100083F838613B69002B4BD03B695B68FB600D
:101320003889FB6803F1F0010223392200F004FC44
:1013300003463B813889FB6803F1F0017B681B8D14
:101340001A4600F053FC03463B813889FB6803F1E1
:10135000F0010323372200F0EFFB03463B8100231B
:10136000FB770EE03889FB6803F1F001FB7F294A27
:10137000D35C1A4600F014FC03463B81FB7F01332B
:10138000FB77FB7F022BEDD93889FB68F0333A6994
:10139000194601F017F9204B1868204B01937B6820
:1013A000009343231E4A39690BF092FE386905F019
:1013B0009DF9BB699B79FF2B05D0BB699B790133F4
:1013C000DAB2BB699A71BB699B79052B0DD8BB69F1
:1013D0009B791A46012393409BB21A465201D21AB6
:1013E00092001344DB009BB201E04EF660237B8148
:1013F0007B8903F2F3130B4A82FB03125211DB17B2
:10140000D31A9AB2BB691A8197F917301846203758
:10141000BD4680BD000000204003002034BF010015
:1014200038BF0100D34D621080B588B000AF78603E
:101430007B68002B07D1644B40F215426349644836
:1014400018F052FDBCE07B685B6ABB61BB69002B96
:1014500007D15D4B40F217425E495D4818F044FDEC
:10146000AEE0BB6900225A82BB699B6AB3F1FF3FC1
:1014700019D0BB699B6A1E33574AA2FB03235B0941
:10148000FB61FB69B3F5803F02D34FF6FF73FB614D
:10149000FB699AB2BB699A82BB699B8A002B02D115
:1014A000BB6901229A82BB69DB6AB3F1FF3F1DD0A1
:1014B000BB69DB6A1E33484AA2FB03235B09FB615D
:1014C000FB69B3F5803F02D34FF6FF73FB61FB6905
:1014D0009AB2BB695A81BB695B89002B02D1BB6997
:1014E00001225A81BB695A89BB69DA81BB691B6BCE
:1014F000B3F1FF3F1DD0BB691B6B1E33364AA2FB05
:1015000003235B09FB61FB69B3F5803F02D34FF610
:10151000FF73FB61FB699AB2BB699A81BB699B89C6
:10152000002B02D1BB6901229A81BB699A89BB69F0
:101530001A82BB695A89BB699B899A4206D3BB69E7
:101540009B89002B02D0BB6900225A81BB69DB79E1
:10155000002B03D0BB691B6A3B6114E0BB691C33E1
:101560001B78FB7597F91730002B02DBFF233B61DB
:1015700009E0FB7DBF2B03D96FF07F433B6102E0A5
:101580004FF6FF733B61BB695B6AFB60FB68002B36
:1015900008D1BB69DA693B691340FB60FB6843F023
:1015A0008073FB600A21B86900F0ABFABB6903F1F4
:1015B0001C0107F10C0307F11002786804F0F4FB3A
:1015C0002037BD4680BD00BF84B6010024B80100AD
:1015D00024B7010040B801008988888880B58AB0A6
:1015E00002AF78607B685B6ABB610521B86900F077
:1015F00088FA07F10C030322B969786800F00CFF40
:1016000078617B69002B4ED07B695B683B61B88950
:101610003B6903F1F0010223392200F08DFA034601
:10162000BB81B8893B6903F1F0017B681B8D1A46C9
:1016300000F0DCFA0346BB81B8893B6903F1F00195
:101640000323372200F078FA0346BB810023BB77DF
:101650000EE0B8893B6903F1F001BB7F2A4AD35CF5
:101660001A4600F09DFA0346BB81BB7F0133BB776E
:10167000BB7F022BEDD9B8893B69F0337A691946F3
:1016800000F0A0FF214B1868BB6903F118027B68CA
:101690000093432379690BF0A7FC0346FB77786935
:1016A00005F024F801E0FF23FB77BB699B79FF2B52
:1016B00005D0BB699B790133DAB2BB699A71BB690A
:1016C0009B79092B0AD8BB699B799BB21A465201B8
:1016D000D21A920013441B019BB201E044F620632E
:1016E000FB81FB8903F2F313094A82FB03125211B7
:1016F000DB17D31A9AB2BB691A8197F91F301846C3
:101700002037BD4680BD00BF000000204003002000
:10171000D34D621080B58AB002AF78607B685B6A97
:10172000BB610421B86900F0ECF907F10C03032256
:10173000B969786800F070FE78617B69002B4CD045
:101740007B695B683B61B8893B6903F1F001022367
:10175000392200F0F1F90346BB81B8893B6903F1F6
:10176000F0017B681B8D1A4600F040FA0346BB81EE
:10177000B8893B6903F1F0010323372200F0DCF95B
:101780000346BB810023BB770EE0B8893B6903F1B8
:10179000F001BB7F294AD35C1A4600F001FA0346E8
:1017A000BB81BB7F0133BB77BB7F022BEDD9B889EF
:1017B0003B69F0337A69194600F004FF204B186842
:1017C0007B68009343231F4A79690BF00DFC0346A5
:1017D000FB77786904F08AFF01E0FF23FB77BB69A0
:1017E0009B79FF2B05D0BB699B790133DAB2BB69CA
:1017F0009A71BB699B79092B0AD8BB699B799BB20B
:101800001A465201D21A92001344DB009BB201E047
:1018100042F21073FB81FB8903F2F3130A4A82FB45
:1018200003125211DB17D31A9AB2BB691A8197F9C6
:101830001F3018462037BD4680BD00BF0000002085
:101840004003002038BF0100D34D6210B0B58AB00C
:1018500002AF78607B685B6ABB610321B86900F006
:1018600050F907F10C030322B969786800F0D4FD40
:1018700078617B69002B66D07B695B683B61B889C6
:101880003B6903F1F0010223392200F055F90346C8
:10189000BB81B8893B69F0334FF41072194600F0F0
:1018A000A5F90346BB81B8893B6903F1F001042324
:1018B000322200F041F90346BB81BC893B6903F148
:1018C000F005BB69DB69184603F0E9F903461A46DF
:1018D0002946204600F0BCF90346BB81B8893B6924
:1018E00003F1F0010323372200F026F90346BB8100
:1018F0000023BB770EE0B8893B6903F1F001BB7FA1
:10190000294AD35C1A4600F04BF90346BB81BB7FE2
:101910000133BB77BB7F022BEDD9B8893B69F0332C
:101920007A69194600F04EFE204B18687B680093D8
:1019300043231F4A79690BF057FB0346FB7778690D
:1019400004F0D4FE01E0FF23FB77BB699B79FF2BFA
:1019500005D0BB699B790133DAB2BB699A71BB6967
:101960009B79092B0AD8BB699B799BB21A46520115
:10197000D21A92001344DB009BB201E042F21073D2
:10198000FB81FB8903F2F3130A4A82FB0312521113
:10199000DB17D31A9AB2BB691A8197F91F30184620
:1019A0002037BD46B0BD00BF00000020400300202E
:1019B00038BF0100D34D6210B0B58AB002AF786075
:1019C0007B685B6AFB61FB69002B00F08480FB692C
:1019D0005B79002B00F08180FB699B693B61FB69AF
:1019E00000229A61FB690022DA61FB6900221A6217
:1019F000FB6900225A62FB6900221A63FB691A6BB9
:101A0000FB69DA62FB69DA6AFB699A62FB690022A8
:101A10009A82FB699A8AFB695A82FB695A8AFB6936
:101A20001A82FB691A8AFB69DA81786800F0F8FD8E
:101A30000346002B3BD007F10E030722F9697868B3
:101A400000F0EAFCB861BB69002B30D0BB695B6871
:101A50007B61F8897B6903F1F0010423362200F0F1
:101A60006BF80346FB81FC897B6903F1F0053B6958
:101A7000184603F014F903461A462946204600F09A
:101A8000E7F80346FB81F8897B69F033BA691946A8
:101A900000F098FD134B186807F110027B68009363
:101AA0004323B9690BF0A0FAB86904F01FFE0E4B8E
:101AB0000D4A0D49786804F077F90021F86900F0C3
:101AC00020F8FB691B79002B08D0FEF773FFFB6938
:101AD00000221A7102E000BF00E000BF2037BD46BF
:101AE000B0BD00BF4003002034BF010080B582B00C
:101AF00000AF78607868FFF75FFF00BF0837BD462A
:101B000080BD80B483B000AF78600B46FB707B680B
:101B10005B79FA789A4208D07B68FA785A717B68C8
:101B200000229A717B6800221A8100BF0C37BD46E3
:101B30005DF8047B7047000080B582B000AF39606B
:101B400011461A460346FB800B467B7113463B71D8
:101B5000FA883B7913440233442B06D90D4B40F2EB
:101B60009A520D490D4818F0BFF9FB885A1CFA80AB
:101B70001A463B6813447A791A70FB885A1CFA801B
:101B80001A463B6813443A791A70FB88184608379E
:101B9000BD4680BD84B6010058B8010024B70100DD
:101BA00080B582B000AF03463960FB8013467B717D
:101BB000FB88432B06D90A4B40F2A65209490A4832
:101BC00018F092F9FB885A1CFA801A463B681344B5
:101BD0007A791A70FB8818460837BD4680BD00BF69
:101BE00084B601009CB8010024B7010080B582B022
:101BF00000AF03463960FB801346BB80FB8802338D
:101C0000442B06D90F4B40F2AE520F490F4818F043
:101C10006BF9BB881B0A9AB2FB88591CF9801946DC
:101C20003B680B44D2B21A70FB885A1CFA801A46E1
:101C30003B681344BA88D2B21A70FB88184608373A
:101C4000BD4680BD84B60100D4B8010024B70100B0
:101C500080B584B000AF0346B9607A60FB81FB8930
:101C60000433442B06D9194B40F2B752184919488E
:101C700018F03AF97B681A0EFB89591CF98119464C
:101C8000BB680B44D2B21A707B681A0CFB89591CD2
:101C9000F9811946BB680B44D2B21A707B681A0AE4
:101CA000FB89591CF9811946BB680B44D2B21A70E2
:101CB000FB895A1CFA811A46BB6813447A68D2B26F
:101CC0001A70FB8918461037BD4680BD84B60100E6
:101CD00010B9010024B7010080B590B000AF786062
:101CE00039600023FB620023BB6208220021BE484A
:101CF00018F049F87B685B892B2B02D86FF0010341
:101D0000A8E27B685B68BB61F023FB867B681B896C
:101D1000BB867B683B630CE03B6B5B89FA8ED31A16
:101D2000FB863B6B5B89BA8ED31ABB863B6B1B6809
:101D30003B633B6B002B04D03B6B5B89FA8E9A4272
:101D4000EAD23B6B002B02D16FF0010382E2FB8EE3
:101D50007B87BB8E3B873B6B5B68FB633AE27B8F89
:101D6000FA6B13441B78FB75002387F826304FF07D
:101D7000FF333B627B8F0233FB83FA8B7B8F9A426C
:101D800002D26FF0010365E27B8F01333A6B528917
:101D9000934207DA7B8F0133FA6B13441B7887F881
:101DA00027300BE03B6B1B68002B04D03B6B1B68A0
:101DB0005B681B7800E0002387F8273097F827300E
:101DC00087F82630FB7D3B2B00F22D8101A252F8D3
:101DD00023F000BFC51E0000D51E00002720000014
:101DE000F71E000027200000272000002720000009
:101DF00027200000272000002720000027200000C7
:101E000027200000272000002720000027200000B6
:101E100027200000272000002720000027200000A6
:101E20002720000027200000272000002720000096
:101E30002720000027200000272000002720000086
:101E40002720000027200000272000002720000076
:101E50002720000027200000272000002720000066
:101E60002720000027200000272000002720000056
:101E70002720000027200000272000002720000046
:101E80002720000027200000272000002720000036
:101E90002720000027200000272000002720000026
:101EA000231F0000451F0000811F0000A31F00002A
:101EB000272000002720000027200000C51F000069
:101EC00005200000002387F8273097F8273087F88F
:101ED0002630ACE097F82730042B09D0434B40F272
:101EE0002E624349434817F0FFFF6FF00503B1E14D
:101EF00006233B629BE0042387F8263097F82720CF
:101F000097F826309A4209D2384B40F233623A4968
:101F1000384817F0E9FF6FF005039BE107233B62A8
:101F200085E097F82730042B09D0304B40F241620E
:101F30002F49304817F0D8FF6FF005038AE10323DB
:101F40003B6274E097F82730012B09D0274B40F211
:101F50004F622A49274817F0C7FF6FF0050379E160
:101F6000FB8EF02B09D0214B40F2516224492148CD
:101F700017F0BAFF6FF005036CE100233B6256E0F7
:101F800097F82730012B09D0184B40F255621B49B6
:101F9000184817F0A9FF6FF005035BE101233B62CE
:101FA00045E097F82730042B09D0104B40F25962D6
:101FB0000F49104817F098FF6FF005034AE102231C
:101FC0003B6234E097F82730042B09D0074B40F2EE
:101FD0005D620749074817F087FF6FF0050339E195
:101FE00004233B6223E000BFE419002084B6010013
:101FF0004CB9010024B7010058B901006CB90100C7
:1020000078B9010097F82730042B09D0934B40F2A0
:1020100061629349934817F067FF6FF0050319E178
:1020200005233B6203E0002387F8263000BFFB7DD9
:10203000002B03D17B8F01337B87A1E07A8F97F848
:10204000273013440233B3F5803F02DB6FF0010306
:1020500000E197F827309AB27B8F13449BB202338A
:102060007B8797F82630002B00F08A800023BB6026
:102070003B6A002B02DB3B6A072B06DD774B4FF4F4
:10208000CF627949774817F02FFF784A3B6A1344AB
:102090001B78002B74D197F82630042B28BF04231B
:1020A000DBB2BB82FB8BBA8A07F10801386B04F004
:1020B00017FD03461A46BB8A934202D06FF0010314
:1020C000C8E097F82630042B33D997F8263003F070
:1020D0000303DBB2002B09D0604B40F281626449FC
:1020E000604817F001FF6FF00503B3E05F4A3B6AF9
:1020F000134401221A70BB68184602F0D0FD014655
:102100005C4A3B6A42F8231097F82630043B87F874
:102110002630FB8B04337B827A8AFB8B9A4202D275
:102120006FF0010396E07B8AFB833B6A01333B62DD
:102130009EE797F82630042B06D1BB68184602F0BC
:10214000AEFD0346BB6011E097F82630012B09D0A5
:10215000424B4FF4D2624849424817F0C5FE6FF037
:10216000050377E007F108031B78BB603F4A3B6A31
:10217000134401221A70BA683E493B6A41F8232091
:102180003B6B5B897A8F9A4224D33B6B5B897A8F56
:10219000D31A7B873B6B5B893A8FD31A3B877A8F45
:1021A0003B8F9A4213D23B6B1B683B633B6B002B0C
:1021B00009D12A4B40F29D6230492A4817F094FE1B
:1021C0006FF0050346E03B6B5B68FB6302E06FF07A
:1021D00001033FE03B6B002B0AD07A8F3B8F9A4282
:1021E00006D27B8FFA6B13441B78FF2B7FF4B7ADBD
:1021F0001E4B1B78002B18D01E4B1B68FB601B4B23
:1022000000221A70FB68012B02D10123FB620CE053
:10221000FB68022B02D10123BB6206E0FB68032BA3
:1022200003D10123BB620123FB62FB6A002B06D0B2
:102230000023FB626C23FB86EC23BB8669E5BB6A4B
:10224000002B06D00023BB622C23FB866C23BB86AD
:102250005FE5002318464037BD4680BD84B60100C7
:102260004CB9010024B7010090B90100E419002025
:10227000A4B90100EC190020BCB90100D0B90100DB
:1022800080B58AB000AFF860B9607A603B605F4BA0
:102290005B683B623B6A5B6AFB617B685B68BB6156
:1022A000FB69002B00F09D80FB691B79002B00F07F
:1022B00098807B685B892B2B40F29580BB691B78EB
:1022C000022B40F09280002387F8273012E097F825
:1022D00027303A6A134493F82A2097F82730B969CF
:1022E0000B441B7F9A4240F0828097F827300133DD
:1022F00087F827303B6A93F8303097F827209A42C6
:1023000003D297F82730052BE1D9BB695B681846E3
:1023100002F0C5FC0246FB691B689A4269D1F96963
:102320007868FFF7D9FC0346002B64D1384B5B7803
:10233000002B62D07B685B687B61364B5B68FB740B
:10234000FB7C052B2AD1FB695B79012B12D17969C2
:10235000386AFEF7F9FD3B6A93F8313003F0080361
:10236000002B03D0386AFEF769FB47E0386AFFF7B5
:102370005BF843E0FB695B79032B07D0FB695B7972
:10238000042B03D0FB695B79052B37D17969386A57
:10239000FEF7DAFD386AFFF747F82FE0FB7C062BE3
:1023A00013D1FB695B79032B0BD0FB695B79012BA4
:1023B00007D0FB695B79042B03D0FB695B79052BA4
:1023C00003D1386AFEF720FB18E0FB7C022B08D112
:1023D000FB695B79062B04D17969386AFEF762FBE9
:1023E0000CE000BF0AE000BF08E000BF06E000BF4D
:1023F00004E000BF02E000BF00E000BF786804F026
:1024000075F900BF2837BD4680BD00BF0C1A0020FB
:10241000E4190020EC19002080B588B000AFF86006
:10242000B9603B601346FB71FB68002B08D15F4B22
:1024300040F269725E495F4817F056FD0023B1E033
:10244000BB68002B08D1594B40F26A725A4959486F
:1024500017F04AFD0023A5E04FF420724FF49A7163
:10246000362003F05FFEB861BB69002B01D1002369
:1024700098E0BB695B89B3F59A7F06D24B4B40F27B
:1024800072724E494B4817F02FFDFB79032B03D195
:10249000BB685B79032B0DD1BB689B79002B05D101
:1024A00017F03AFD03461A46454B1A60444B1A682A
:1024B000BB681A60BB695B687B614FF49A7200214C
:1024C000786917F060FC7B6901221A707B69012230
:1024D0005A70FB6893F830207B699A70BB681B6860
:1024E000184602F0DCFB02467B695A60FB79082B38
:1024F00010D0FB79042B0DD0FB79072B0AD0FB7988
:10250000032B0CD1BB685B79052B03D0BB685B79CF
:10251000042B04D1FB6804331A687B69DA6000235A
:10252000FB830CE0FA8BFB8BF9680A4492F82A10C3
:102530007A6913440A461A77FB8B0133FB83FB8BC2
:10254000052BEFD97B69002242F0630283F8EC206F
:10255000002262F07D0283F8ED20002242F0530257
:1025600083F8EE20002242F0630283F8EF207B69BB
:1025700003F1F001012335220020FFF7DDFA0346C5
:102580007B827B6903F1F001FA797B8A1846FFF7B9
:1025900007FB03467B823B68002B02D03B687A8AAC
:1025A0001A80BB6918462037BD4680BD84B601003D
:1025B000E4B9010024B7010004BA010024BA010003
:1025C0004803002080B584B000AF0346B9607A604C
:1025D000FB81FB895A1CFA811A46BB681344FF220F
:1025E0001A7007E0FB895A1CFA811A46BB6813442B
:1025F00000221A70FB89432B04D9FB8903F00303E3
:10260000002B02D0FB89432BECD9FB89F0339BB222
:102610001946786803F0E4FE00BF1037BD4680BD60
:1026200080B485B000AF78607B68002B17D07B68E2
:102630005B6A002B13D07B685B6AFB60FB685B798D
:102640000A2B07D0FB685B79052B03D0FB685B790D
:10265000042B01D1012300E00023DBB200E00023C2
:1026600018461437BD465DF8047B704780B582B0CC
:1026700000AF786015497A6813465B001344DB00AD
:102680000B441B68002B13D010497A6813465B007B
:102690001344DB000B441B68184604F027F80B4971
:1026A0007A6813465B001344DB000B4400221A6077
:1026B00006497A6813465B001344DB000B4414336D
:1026C00000221A7000BF0837BD4680BD4C030020B1
:1026D00080B582B000AF00237B609AE051497A68F0
:1026E00013465B001344DB000B4414331B78FB7070
:1026F000FB78002B00F08A80FB78052B00F08680A9
:1027000048497A6813465B001344DB000B441233DC
:102710001B88013398B243497A6813465B0013441F
:10272000DB000B44123302461A803E497A68134696
:102730005B001344DB000B4412331B88B3F5967F18
:1027400015D238497A6813465B001344DB000B440A
:1027500014331B78012B0ED132497A6813465B0083
:102760001344DB000B4412331B88042B03D9786815
:10277000FFF77CFF4AE02B497A6813465B0013445D
:10278000DB000B4414331B78032B0AD125497A68EC
:1027900013465B001344DB000B44143304221A700D
:1027A00034E020497A6813465B001344DB000B4495
:1027B00014331B78042B0AD11A497A6813465B003C
:1027C0001344DB000B44143302221A701EE0154937
:1027D0007A6813465B001344DB000B4414331B7808
:1027E000012B13D10F497A6813465B001344DB00B9
:1027F0000B44083318687A6813465B001344DB0007
:10280000084A13440433194600F0BCFE7B680133C8
:102810007B607B68092B7FF761AF00BF0837BD463F
:1028200080BD00BF4C03002080B58AB000AFF860C7
:102830000B467A60FB720A23FB840A23BB840A23BB
:102840007B8400233B840A23FB830023BB83002378
:102850007B8300233B8300233B84B1E0B7F9202036
:10286000A74913465B001344DB000B4414331B7869
:10287000FB75B7F922300A2B05D1FB7D002B02D165
:102880003B8C7B8498E0FB7D002B00F09580FB7DEA
:10289000012B09D0FB7D012B06D89A4B4FF4927285
:1028A00099499A4817F020FBFB68002B20D0FB6861
:1028B0001968B7F92020924813465B001344DB00E7
:1028C000034404331B68994212D17B68002B0CD05F
:1028D000B7F920208A4913465B001344DB000B4400
:1028E00008331B687A689A4202D1B7F9203003E1B5
:1028F000FB7D012B40D1B7F92020814913465B00B5
:102900001344DB000B441B68002B1AD0B7F92020BE
:102910007B4913465B001344DB000B4412331B88D6
:10292000BA8B9A4248D83B8CFB83B7F92020744974
:1029300013465B001344DB000B4412331B88BB833C
:102940003AE0B7F920206E4913465B001344DB00E0
:102950000B4412331B887A8B9A422DD83B8CFB8414
:10296000B7F92020664913465B001344DB000B4493
:1029700012331B887B831FE0FB7D012B1CD9FB7D61
:10298000042B19D8B7F920205D4913465B00134486
:10299000DB000B4412331B883A8B9A420CD83B8CD9
:1029A000BB84B7F92020564913465B001344DB0073
:1029B0000B4412331B883B833B8C01339BB23B841B
:1029C000B7F92030092B7FF749AFFB7A03F00203F8
:1029D000002B08D1B7F922300A2B07D1FB7A03F07C
:1029E0000103002B02D14FF0FF3385E0B7F922300D
:1029F000092B02DC7B8C3B8439E0B7F92430092BAE
:102A000014DCBB8C3B84B7F920203D4913465B00A6
:102A10001344DB000B441B68002B18D0394B40F2E9
:102A20006D123B49394817F05FFA10E0B7F92630CC
:102A3000092B02DCFB8C3B8409E0B7F91E30092B23
:102A400002DCFB8B3B8402E04FF0FF3354E0B7F92C
:102A50002030092B06DD2B4B40F27F122D492B48ED
:102A600017F042FAB7F920301846FFF7FFFDB7F923
:102A70002030092B06DD234B40F2831225492348E1
:102A800017F032FAB7F920201D4913465B001344B2
:102A9000DB000B4414331B78002B06D0194B40F29B
:102AA00085121D49194817F01FFAFB68002B0BD03F
:102AB000B7F92020FB681968114813465B001344DE
:102AC000DB00034404331960B7F920200C49134696
:102AD0005B001344DB000B44123300221A80B7F969
:102AE0002020074913465B001344DB000B440833E6
:102AF0007A681A60B7F9203018462837BD4680BD7D
:102B00004C03002064BA0100E0BA010020BB0100C0
:102B100048BB010060BB010074BB010080B588B0F8
:102B200002AFF860B9607A60FB70FB6893F83030F0
:102B3000062B06D0584B40F2A9125849584817F0B6
:102B4000D3F9BB68002B12D0BB681B68002B0ED0DA
:102B5000BB681B68F968184601F006FA0346002BAB
:102B600005D1BB681B6803F0F003E02B02D16FF0C6
:102B70000F038CE0FB78FA681946B868FFF754FE3B
:102B80000346FB82B7F91630002B02DAFB8A5BB2F0
:102B90007DE0FB7803F00403002B0BD0B7F916207F
:102BA000404913465B001344DB000B4414330522F9
:102BB0001A7019E0B7F916203A4913465B0013441E
:102BC000DB000B4414331B78052B02D16FF0050397
:102BD0005DE0B7F91620334913465B001344DB0070
:102BE0000B44143302221A70B7F916202D491346EC
:102BF0005B001344DB000B440833FA681A60B7F932
:102C0000162013465B001344DB000833254A1344A7
:102C1000043306227968184617F091F8B7F91620A0
:102C2000204913465B001344DB000B44123300229F
:102C30001A80B7F916201B4913465B001344DB00CA
:102C40000B441B68002B21D0B7F9162015491346F9
:102C50005B001344DB000B441B683B61B7F9162093
:102C6000104913465B001344DB000B4400221A603A
:102C7000FB6803F12A024FF4006300937B68396913
:102C8000F868FDF7FDFD386903F030FD00231846B4
:102C90001837BD4680BD00BF64BA0100A0BB01006B
:102CA00020BB01004C03002080B584B000AF7860E9
:102CB0003960786800F034FEF860FB68002B02D1C0
:102CC0006FF0030306E005233A687968F868FFF7B8
:102CD00025FF034618461037BD4680BD80B584B039
:102CE00000AF78600023FB601EE01349FA681346CA
:102CF0005B001344DB000B4414331B78FB72FB7A3C
:102D0000002B0ED00C49FA6813465B001344DB001D
:102D10000B4408331B687A689A4202D1F868FFF7BF
:102D2000A5FCFB680133FB60FB68092BDDDD00BF00
:102D30001037BD4680BD00BF4C030020B0B58AB03F
:102D400004AF786039603B68002B07D1444B40F2F8
:102D50008A224449444817F0C7F87EE07B685B68E4
:102D60003B613B691B889BB2B3F5807F0CD13B690B
:102D70001B79062B08D13B695B79042B04D13B6995
:102D80005B889BB2082B03D0786803F0AFFC64E04B
:102D90003B6903F10E0107F10C030422184616F0FB
:102DA000CEFF3B6903F1180107F10803042218461E
:102DB00016F0C5FF3B6804331B68002B02D10023CB
:102DC000FB7509E0BA683B6804331B689A420CBF84
:102DD00001230023DBB2FB753B6903F10802FB7D95
:102DE000002B01D0012300E0022307F10C01386819
:102DF000FFF794FE3B69DB889BB2B3F5807F03D07D
:102E0000B3F5007F1ED025E0FB7D002B21D03B6871
:102E100003F12A003B6903F108043B6803F12A052A
:102E20003B6804333A6908320221039107F10C012F
:102E30000291019200932B4622460146386800F029
:102E4000EFFA06E007F10C0319463868FEF7A8F917
:102E500000E000BF786803F049FC1837BD46B0BDFC
:102E600064BA0100F8BB010020BB010080B586B048
:102E700002AFF860B9601346FB71FA794449134612
:102E80005B001344DB000B4414331B78012B06D882
:102E9000404B40F2EF224049404817F025F8FA79BC
:102EA0003B4913465B001344DB000B4414331B788F
:102EB000022B53D1FA79364913465B001344DB00E9
:102EC0000B4412331B88B3F58E7F19D9FA79134658
:102ED0005B001344DB002E4A134404331946F868A0
:102EE00000F050FB0346002B38D1FA7928491346ED
:102EF0005B001344DB000B44143303221A702DE0F3
:102F0000FA79234913465B001344DB000B44123368
:102F10001B88B3F5877F21D3FA7913465B001344EE
:102F2000DB001B4A1344191DFA7913465B00134456
:102F3000DB000833164A134404331A46F86800F0DD
:102F4000FFFA0346002B09D1FA79114913465B00B9
:102F50001344DB000B44143303221A70FB6803F1A3
:102F60002A01FA7913465B001344DB000833084A50
:102F700013441A1D4FF40063009313460A46B968C0
:102F8000F868FDF77DFC034618461037BD4680BD46
:102F90004C03002064BA010018BC010020BB0100F2
:102FA00080B58AB002AFF860B9607A607B68BB61B7
:102FB000FB68002B06D1734B40F21E3272497348F6
:102FC00016F092FFBB68002B06D16E4B40F21F3209
:102FD0006F496E4816F088FF7B68002B06D1694B5D
:102FE0004FF448726B49694816F07EFF7B681B6896
:102FF000F968184600F0B8FF0346002B02D0664B74
:10300000FB61AFE07B681B6803F0F003E02B18D195
:1030100001233B7400237B745E23BB747B68013304
:103020001B7803F07F03DBB2FB747B6802331B78F1
:103030003B757B6803331B787B7507F11003FB61DD
:1030400090E07B681A68FB6804331B685A40FB6891
:1030500008331B681340002B12D07B681B689BB29F
:103060004FF6A96293420BD0FB680C331B68002B10
:1030700003D0FB680C33BB6102E06FF003037DE01B
:10308000464B1B781946464A0B465B000B44DB0057
:10309000134414331B78012B25D9404B1B78194658
:1030A0003F4A0B465B000B44DB00134408331B68AC
:1030B000FA689A4217D1BB691A68384B1B781846D0
:1030C000374903465B000344DB000B4404331B68B1
:1030D0009A4208D1314B1B781A46B968F868FFF755
:1030E000C5FE03464AE00023FB7531E0FA7D2C491A
:1030F00013465B001344DB000B4414331B78012B95
:1031000023D9FA7D264913465B001344DB000B44A8
:1031100008331B68FA689A4217D1BB691968FA7DAF
:103120001F4813465B001344DB00034404331B6851
:1031300099420AD1194AFB7D1370FB7D1A46B96882
:10314000F868FFF793FE034618E0FB7D0133FB753B
:10315000FB7D092BCAD9BA68B969F86800F022F872
:1031600003460BE0FB6803F12A024FF4006300936F
:10317000FB69B968F868FDF783FB034618462037FA
:10318000BD4680BD64BA0100F8BB010020BB010050
:1031900048BC0100E8BB0100A0B501003C040020D0
:1031A0004C03002080B58CB002AFF860B9607A6043
:1031B000FB682A337B61FF2387F8273000233B62BB
:1031C000BB681B68F968184600F0CEFE0346002B6A
:1031D0000CD1BB681B6803F0F003E02B06D0BB6882
:1031E000002B03D0BB681B68002B02D16FF00F03CC
:1031F00002E1FA680121B868FFF716FB03467B82FB
:10320000B7F91230002B02DA7B8A5BB2F4E07B8ADA
:103210007E2B06D97A4B40F2C1327A497A4816F0B1
:1032200063FE7B8A7B747A7C784913465B00134487
:10323000DB000B4414331B78002B15D101233B62B8
:103240007A7C724913465B001344DB000B44143351
:1032500001221A707A7C6D4913465B001344DB002F
:103260000B440833FA681A607A7C684913465B009D
:103270001344DB000B4414331B78012B11D07A7CF0
:10328000624913465B001344DB000B4414331B7884
:10329000012B06D85A4B40F2CF325D495A4816F0FE
:1032A00023FE3B6A002B02D17B68002B0CD1B9684E
:1032B000F86800F067F9034687F827307B68002B31
:1032C00002D197F9273097E07B68002B06D14C4B51
:1032D00040F2E1324F494C4816F006FE7A7C4B49E9
:1032E00013465B001344DB000B4414331B78012BA3
:1032F00018D9494A7B7C13707A7C13465B001344CF
:10330000DB000833414A13441A1D4FF40063009355
:1033100013467A697968F868FDF7B2FA034687F8C8
:10332000273067E07A7C394913465B001344DB00A1
:103330000B4414331B78012B5CD10023BB617B68E9
:10334000FB611CE0FB695A89FB691B899A420AD11F
:10335000FB691B68002B06D0294B40F2F1322F4944
:10336000294816F0C1FDFB691B7B03F04003002BCD
:1033700002D00123BB6105E0FB691B68FB61FB69AF
:10338000002BDFD1BB69002B07D07A684FF4207186
:103390000E2003F053FCF86104E07B68FB61F869E0
:1033A00003F044FAFB69002B21D07A7C17491346BD
:1033B0005B001344DB000B441B68002B0AD07A7CB3
:1033C000124913465B001344DB000B441B6818468C
:1033D00003F08CF97A7C0D4913465B001344DB0043
:1033E0000B44FA691A60002387F8273002E0FF23B4
:1033F00087F8273097F9273018462837BD4680BD13
:1034000064BA010054BC010020BB01004C03002041
:1034100064BC010048BC01003C0400208CBC0100DD
:1034200080B58AB002AFF860B9607A603B60002373
:10343000FB77FB68002B06D13C4B40F257423C49DE
:103440003C4816F051FD4FF420721C210E2002F072
:1034500069FEB861BB69002B02D14FF0FF3361E018
:10346000BB695B891B2B06D8304B40F26342324963
:10347000304816F039FDBB695B687B61BB8E18462E
:1034800001F0F8FB03461A467B69DA80FB6893F883
:103490003030062B06D0254B40F26A42274925489A
:1034A00016F022FD7B69083306223968184616F0AB
:1034B00046FC7B6912330622F96A184616F03FFC77
:1034C0007B690E330422B96A184616F038FC7B6912
:1034D00018330422396B184616F031FC7B69002240
:1034E0001A70002242F001025A707B69002242F0F9
:1034F00008029A700022DA707B6906221A717B69D1
:1035000004225A7140F6060300937B68BA68B969D1
:10351000F868FDF7B5F9B86903F0E8F80023BB6176
:1035200097F91F3018462037BD4680BD64BA0100A8
:10353000F8BB010020BB0100A8BC0100DCBC0100FD
:1035400080B588B004AFF860B9607A60FB6803F1B9
:103550002A01FB6803F12A00FB680433012203926D
:10356000BA680292064A0192009303467A68F868A4
:10357000FFF756FF034618461037BD4680BD00BF13
:10358000A8B5010080B582B000AF78603960054A07
:1035900039687868FFF7D4FF034618460837BD46F8
:1035A00080BD00BFA0B5010080B58EB004AF7860CB
:1035B00039608B4B9B687B627B6A1B7803F00F033F
:1035C000DBB29B00DBB27B847B8C132B40F2F1805F
:1035D0007B685B89032B40F2EE807B685B681B781D
:1035E00087F8213097F82130002B00F0DB80082B82
:1035F00040F0DB807B4BFB61794B5B6903F0F003B0
:10360000E02B00F0DF80764B5A69754B1B6819463A
:10361000104600F0A9FC0346002B40F0D5807B68E3
:103620001B89072B40F2C980786801F05BFD0346D7
:10363000002B03D0786803F059F8CEE07B8C0E3372
:103640001946786802F0BCFF0346002B4BD07B681C
:103650001A897B8C13447B837B681B897A8B9A4203
:10366000C0F0B4807B8B4FF4207219460E2002F01C
:1036700059FD78617B69002B00F0AA807B695B892A
:103680001A467B8C08339A4203D2786903F02EF8ED
:103690009FE07B695B687A8C796A184616F04FFB6D
:1036A0007B8C1946786902F09BFF0346002B09D0FA
:1036B0004D4BB6224D494E4816F016FC786903F082
:1036C00015F886E07968786903F038F90346002B2D
:1036D00003D0786903F00AF87BE0786803F006F815
:1036E0007B697B600FE07B8C0E331946786802F0B3
:1036F00077FF0346002B06D03B4BC7223D493C4891
:1037000016F0F2FB65E07B685B683B617B8C1946D9
:10371000786802F055FF0346002B45D17B685B6853
:10372000FB60FB691A68FB68DA602D4B1A69FB685D
:103730001A613B6900221A703B695B889BB24FF6A5
:10374000F772934207D93B695B889BB209339AB2FF
:103750003B695A8006E03B695B889BB208339AB2AA
:103760003B695A80FB68FF221A72FB6800229A723A
:103770000022DA727B8C1946F86801F0A1FC03463E
:103780001A46FB685A813B68029301230193002388
:103790000093FF230022F969786800F0A7FA034636
:1037A000FB7201E000BF00E000BF786802F09EFFFE
:1037B00013E000BF02E000BF00E000BF786802F045
:1037C00095FF0AE000BF04E000BF02E000BF00E098
:1037D00000BF786802F08AFF00BF2837BD4680BD71
:1037E0000C1A0020201A002020BD010098BD010005
:1037F000D0BD0100F8BD010080B582B000AF786097
:103800000B46FB70FB781A460321786800F014F829
:1038100000BF0837BD4680BD80B582B000AF78607C
:103820000B46FB70FB781A460B21786800F004F811
:1038300000BF0837BD4680BD80B58CB004AF78604E
:103840000B46FB701346BB704FF4207224212220DC
:1038500002F068FCF861FB69002B56D0FB695B89BC
:10386000232B06D82B4B40F269122B492B4816F01C
:103870003BFB7B685B68BB61FB695B687B617B6969
:10388000FA781A707B69BA785A707B6900221A71CB
:1038900000225A717B6900229A710022DA71FB6959
:1038A0005B6803F108007B685B681C22194616F010
:1038B00046FABB69DB68FB6007F10C03184600F0B1
:1038C0002FF838613B69002B1BD07B6900229A706E
:1038D0000022DA70FB695B891946786901F0F0FB18
:1038E00003461A467B695A8007F10C023B69029332
:1038F0000123019300230093FF230021F86900F0C6
:10390000F5F9F86902F0F2FE00E000BF2037BD468D
:1039100080BD00BF20BD01002CBE0100D0BD010054
:1039200080B485B000AF7860334B1B68FB6036E035
:10393000FB6893F8313003F00103DBB2002B2BD08E
:10394000FB6893F831309B0803F00103DBB2002BD6
:1039500022D0FB6804331B68002B1DD07B681A68DB
:10396000FB6804331B685A40FB6808331B6813402C
:10397000002B01D1FB6838E0FB6893F8313003F08D
:103980000203002B08D17B681A68FB680C331B68A4
:103990009A4201D1FB6828E0FB681B68FB60FB686A
:1039A000002BC5D1154B1B68002B1AD0134B1B687D
:1039B00093F8313003F00103002B12D00F4B1B683A
:1039C00093F8313003F00403002B0AD00B4B1B6833
:1039D00004331B68002B04D07B681B68DBB27F2B91
:1039E00001D1002301E0054B1B6818461437BD4682
:1039F0005DF8047B704700BF4CEE002050EE0020C5
:103A000080B582B000AF78607B6893F8313003F006
:103A10000103DBB2002B16D07B6804331B68002B3C
:103A200011D00B4B5A697B6804331B689A4208D04B
:103A3000074B5B697968184600F096FA0346002B3D
:103A400001D0012300E0002318460837BD4680BDA1
:103A50000C1A002080B588B000AF7860396001236F
:103A60007B617B685B68FB61FB691B781B09DBB2D0
:103A7000042B04D0786802F039FE00232EE1FB69A4
:103A80001B7803F00F03DBB29B00DBB27B82FB6988
:103A90005B889BB2184601F0EDF803463B827B68D9
:103AA0001B893A8A9A4204D23B8A1946786802F006
:103AB00097FC7B685B897A8A9A4207D87B681B8966
:103AC0003A8A9A4202D87B8A132B04D8786802F08B
:103AD0000DFE002302E17B8A1946F86901F0F0FA35
:103AE0000346002B04D0786802F000FE0023F5E0C6
:103AF000FB691B697B4A5361FB69DB68794A136187
:103B0000784B5B6903F0F003E02B12D13B6893F82C
:103B1000313003F00103DBB2002B07D03B680433E4
:103B20001B68002B02D03B68BB612AE00023BB610D
:103B300027E03868FFF764FF0346002B02D03B689C
:103B4000BB611EE00023BB61664B5B69DBB27F2B70
:103B500017D0654B1B68BB610EE0BA693B689A429F
:103B600006D0B869FFF74CFF0346002B08D100E0F0
:103B700000BFBB691B68BB61BB69002BEDD100E0D6
:103B800000BFBB69002B11D1FB695B7A112B0DD1F2
:103B90007B8AFA691344FB60FB685B889BB2B3F5D0
:103BA000884F03D13B68BB6100237B617B69002B9D
:103BB00017D04C4B1B69002B13D04A4B1B6939683B
:103BC000184600F0D1F90346002B05D1454B1B697F
:103BD00003F0F003E02B04D1786802F087FD0023A6
:103BE0007CE0BB69002B04D1786802F07FFD0023E4
:103BF00074E0FB69DB889BB21A464FF63F731340B3
:103C0000002B0BD0786800F0F5FC78607B68002B07
:103C100001D1002362E07B685B68FB61314ABB69CC
:103C20001360304A3B6853602E4AFB699360FB691E
:103C30001B7803F00F03DBB29B00DBB29AB2294B77
:103C40009A817B8A1946786802F0CAFCFB695B7A24
:103C5000062B09D0112B02D0012B0AD00EE03968B7
:103C6000786809F039F826E03968786804F0A8FF28
:103C700021E039687868FFF797FC1CE0194B5B6915
:103C8000B969184600F070F90346002B0FD1154BA7
:103C90005B6903F0F003E02B09D0B7F91230194645
:103CA000786802F010FD02217868FFF7A5FD7868BA
:103CB00002F01CFD00BF0B4B00221A60094B0022D2
:103CC0005A60084B00229A60064B00229A81054BED
:103CD00000221A61034B00225A6100231846203744
:103CE000BD4680BD0C1A00204CEE002080B58AB085
:103CF00004AFF860B9607A60FB70BB687B617B6879
:103D0000002B09D0BB68002B03D0BB681B68002BBD
:103D100002D1BB6A04337B61FA78BB6A029397F8DD
:103D20002430019397F82030009313467A6879691C
:103D3000F86800F005F8034618461837BD4680BD00
:103D400080B588B000AFF860B9607A60FB7000237E
:103D5000FB61FB689B7B012B06D07D4B4FF45572BA
:103D60007C497D4816F0C0F87B68002B00F0C480C9
:103D70001423FB821421F86802F022FC0346002B76
:103D800002D06FF00103DFE0FB685B68BB61FB689A
:103D90005B89132B06D86E4B40F289326F496E480F
:103DA00016F0A2F8BB69FA781A72BB6997F82C2052
:103DB0005A7297F82C20FB781B0213431B021AB28D
:103DC00097F82C10FB781B020B431B121BB2DBB2C3
:103DD0001BB213431BB29BB21A46FB691344FB612F
:103DE0007B681A68BB691A61BB691B699BB2FA6977
:103DF0001344FB61BB691B691B0CFA691344FB612B
:103E0000FB8A9B089BB2DBB243F04003DAB2BB698A
:103E10001A70BB6997F828205A7097F82820BB6958
:103E20001B781B0213431B021AB297F82810BB69B8
:103E30001B781B020B431B121BB2DBB21BB21343DA
:103E40001BB29BB21A46FB691344FB61FB681B89DA
:103E5000184600F00FFF03461A46BB695A80BB693B
:103E60005B889BB21A46FB691344FB61BB69002265
:103E70009A710022DA713A4B1B88184600F0FAFE5C
:103E800003461A46BB699A80BB699B889BB21A4657
:103E9000FB691344FB61324B1B8801339AB2304BF0
:103EA0001A80BB68002B04D12E4B1A68BB69DA60FC
:103EB00003E0BB681A68BB69DA60BB69DB689BB268
:103EC000FA691344FB61BB69DB681B0CFA69134494
:103ED000FB61FB691A0CFB699BB21344FB61FB6934
:103EE0001B0CFA691344FB61FB69DB43FB61FB6953
:103EF0009AB2BB695A810FE0FB685B89132B02D829
:103F00006FF0010320E0FB685B68BB61BB691B6964
:103F10003B6107F110037B603B6B1B8D002B0CD0CA
:103F2000FB681A893B6B1B8D9A4206D97A68396BFC
:103F3000F86800F053FD034606E03B6B5B697A6866
:103F4000F968386B9847034618462037BD4680BD50
:103F500058BE0100D0BE0100DCBE010004BF01005C
:103F60003E04002034BF010080B485B000AF78600B
:103F700039607B68FB607B68B3F1FF3F02D07B68F0
:103F8000002B01D101232AE03B6893F8313003F084
:103F90000203002B01D1002321E03B6804331B689E
:103FA0007A689A4201D1002319E0FA683B68043329
:103FB0001B685A403B6808331B681340002B0DD127
:103FC0003B6808331B68DA437B681A403B68083358
:103FD0001B68DB439A4201D1012300E0002318460D
:103FE0001437BD465DF8047B7047000080B584B08F
:103FF00000AF0023BB60124B1B68FB6018E0FB683E
:10400000DB7F002B0BD0FB68DB7F013BDAB2FB6868
:10401000DA77FB68BB60FB681B68FB6008E0FB6845
:104020007B60FB681B68FB60B968786800F00AF881
:10403000FB68002BE3D100BF1037BD4680BD00BF39
:104040004004002080B588B000AF7860396000235C
:10405000FB833A687B689A4205D1454BAB224549C0
:10406000454815F041FF3B68002B0AD03B681B68B0
:104070007A689A4205D03E4BAD2240493E4815F041
:1040800033FF7B685B685B687B617B699B889BB265
:10409000002B2AD17B685B68BB617B691A687B68EF
:1040A0005A60BB6958687B6808331422194615F0BA
:1040B00046FE0121B869FFF7AFFBB86902F09EFB2D
:1040C00003467B82FA8B7B8A1344B3F5803F05DB82
:1040D000274BBC222A49284815F006FFFA8B7B8A19
:1040E0001344FB83B86902F001FB7B685B68BB612A
:1040F0001FE0BB695B687B61BB69FB607B691B6818
:10410000BB61F86802F07AFB03467B82FA8B7B8AFC
:104110001344B3F5803F05DB154BCC2218491648F4
:1041200015F0E2FEFA8B7B8A1344FB83F86802F0F9
:10413000DDFABB69002BDCD13968786800F0C2F881
:10414000104B1B88FA8B9A4205D9094BD2220E4993
:10415000094815F0C9FE0B4B1A88FB8BD31A9AB28B
:10416000084B1A80FB8B18462037BD4680BD00BF28
:104170003CBF0100B8BF0100C4BF0100ECBF01009B
:1041800000C001004404002020C0010080B58AB0B6
:1041900000AF7860396000237B6100233B6200231D
:1041A000FB610023BB6100233B61284B1B687B62E2
:1041B00030E07B6A5A697B68DB689A420CD17B6A83
:1041C0009A697B681B699A4206D17B6A9A897B68E7
:1041D0009B889BB29A4214D03B6901333B613B6A96
:1041E000002B04D17B6A3B62FB69BB6109E07B6AFF
:1041F000DA7F3B6ADB7F9A4203D87B6A3B62FB69CA
:10420000BB617B6A1B68002B01D07B6AFB617B6A08
:104210001B687B627B6A002BCBD13B6A002B08D0EA
:10422000B969386AFFF70EFFF8607A69FB681344D2
:104230007B617A693B689A4202DA3B69012BACDC0C
:104240007B6918462837BD4680BD00BF400400206A
:1042500080B584B000AF78603960042001F0B6FB0F
:10426000F860FB68002B10D139687868FFF78EFF83
:1042700002463B68934203DC042001F0A7FBF86090
:10428000FB68002B01D1002316E020220021F868F2
:1042900015F079FDFB680F22DA77094B1A68FB6885
:1042A0001A60074AFB681360FB68083314227968B8
:1042B000184615F044FDFB6818461037BD4680BD12
:1042C0004004002080B582B000AF78603960104BA8
:1042D0001B687A689A4204D17B681B680C4A136099
:1042E0000DE03B68002B06D10A4B40F245120A490B
:1042F0000A4815F0F9FD7B681A683B681A6079680E
:10430000042001F0AFFB00BF0837BD4680BD00BFF1
:10431000400400203CBF010044C00100C4BF0100B4
:1043200080B58CB000AFF860B9607A600023BB62E2
:1043300001233B62BB685B68FB61FB695B889BB2E6
:10434000184600F097FC03467B83FB691B7803F05B
:104350000F03DBB29B007B767B7E9BB27A8B9A420B
:1043600002D24FF0FF3335E17B7E9BB27A8BD31ABA
:104370007B83FB69DB889BB2184600F07BFC03461D
:10438000C3F30C039BB2DB00FB82BB685B68FB6280
:10439000FB6A00221A7000225A7000229A700022D2
:1043A000DA70FB6AFA8A9A80FA8A7B8B13449AB293
:1043B000FB6ADA80FB6ADB889BB2FA8A9A4202D9EE
:1043C0004FF0FF3306E1FB685B687B6268E07B6A65
:1043D0005B683B61FB6A9B889AB23B699B889BB296
:1043E0009A4235D2FB6A7A6A1A60BB6A002B20D0E7
:1043F000FB6A9B889AB2BB6ADB889BB29A4207D35E
:10440000FB6ADB889AB23B699B889BB29A4202D9CD
:104410004FF0FF33DEE0BB6ABA681A60BB6ADB8824
:104420009AB2FB6A9B889BB29A423DD000233B62C2
:104430003AE0FB6ADB889AB23B699B889BB29A425E
:1044400002D94FF0FF33C5E0FB68BA685A602BE031
:10445000FB6A9B889AB23B699B889BB29A4202D1C5
:104460004FF0FF33B6E0FB6A9B889AB23B69DB886A
:104470009BB29A4202D24FF0FF33ABE0BB6A002BF3
:1044800009D0BB6ADB889AB23B699B889BB29A428F
:1044900001D000233B623B691B687B623B69BB62C6
:1044A0007B6A002B93D100E000BF7B6A002B2DD1EB
:1044B000BB6A002B1CD0BB6ADB889AB2FB6A9B8864
:1044C0009BB29A4206D9454B4FF4DB7244494548AA
:1044D00015F00AFDBB6ABA681A60BB6ADB889AB23B
:1044E000FB6A9B889BB29A4210D000233B620DE08E
:1044F000FB685B68002B06D0384B40F2BF123A498C
:10450000384815F0F1FCFB68BA685A607B68002BEC
:1045100005D1FB689B7F03F00103002B59D03B6A58
:10452000002B4FD0FB685B68002B06D0FB685B68F4
:104530005B689B889BB2002B02D000233B6241E06A
:10454000FB6ABB62FB6A1B687B6212E07B6A5B688A
:10455000FB62BB6ADB889AB2FB6A9B889BB29A4279
:1045600002D000233B6207E0FB6ABB62FB6A1B6868
:104570007B627B6A002BE9D13B6A002B22D0FB686F
:104580005B68002B06D1154B40F2DF121749154826
:1045900015F0AAFCFB685B685B68FA6A9A4206D170
:1045A0000E4B40F2E11211490E4815F09DFCFB6ADA
:1045B0001B68002B06D0094B40F2E3120C49094856
:1045C00015F092FC3B6A002B14BF01230023DBB2E1
:1045D00000E0002318463037BD4680BD3CBF0100D7
:1045E00060C00100C4BF010080C00100B8C001006C
:1045F000C8C0010080B58EB000AF78607B685B6892
:10460000BB62BB6A1B7803F00F03DBB29B00DBB21B
:10461000142B40F06F81BB6ADB889BB2184600F018
:1046200029FB0346C3F30C039BB2DB00FB84BB6A8C
:104630005B889BB2184600F01DFB0346BB84BB6A37
:104640001B7803F00F03DBB29B0087F8233097F849
:1046500023309BB2BA8C9A42C0F04E8197F8233037
:104660009BB2BA8CD31ABB84786802F0C7F80346B1
:104670003B84A24B1B881A463B8C13440A2B10DD4B
:104680003B8C1946B86AFFF781FD0346002B00F00A
:1046900043819A4B1B881A463B8C13440A2B00F328
:1046A0003B81974B1B683B6315E03B6B5A69BB6AC8
:1046B000DB689A420CD13B6B9A69BB6A1B699A42D0
:1046C00006D13B6B9A89BB6A9B889BB29A4206D003
:1046D0003B6B1B683B633B6B002BE6D100E000BFEC
:1046E0003B6B002B09D13B8C1946B86AFFF7B0FD34
:1046F00038633B6B002B1CD10FE1BB6ADB889BB29C
:10470000184600F0B7FA0346C3F30C03002B10D190
:104710003B6BDB89184600F0ADFA0346C3F30C038C
:10472000002B06D03B6B08331422B96A184615F0EB
:1047300006FBBB6ADB889BB203F02003002B0CBF97
:1047400001230023DBB2FB61FB69002B0ED0FA8C46
:10475000BB8C13447B837A8BFB8C9A42C0F0A8807D
:104760007B8B4FF6EB72934200F2A280FA69796874
:10477000386BFFF7D5FD78617B69B3F1FF3F00F03F
:1047800099805E4B1A883B8C13449AB25B4B1A801B
:10479000FB69002B0DD0FA8CBB8C13447B823B6BE6
:1047A0007A8A9A833B6B9B7F43F00103DAB23B6BBF
:1047B0009A777B69012B79D13B6B9B8B14333B82BE
:1047C0003B6B5B685B681B687B633B6B5B685B6830
:1047D000BB623B6B083314221946B86A15F0AFFA76
:1047E0003B8A184600F046FA03461A46BB6A5A80CE
:1047F000BB6A00229A710022DA71BB6A00229A72A7
:104800000022DA721421B86A00F05AFC03461A46F4
:10481000BB6A5A813B6B5B687B600DE07B6B5B68BE
:10482000FB601421786B01F0DBFE796B786802F095
:104830001FF8FB681B687B637B6B002BEED1304B52
:104840001B683A6B9A4202D10023FB6210E02C4BAA
:104850001B68FB6207E0FB6A1B683A6B9A4206D052
:10486000FB6A1B68FB62FB6A002BF4D100E000BF0F
:10487000F96A386BFFF726FD786801F0BFFF034641
:104880003B841E4B1B883A8C9A4206D91D4B40F242
:104890009B221D491D4815F027FB184B1A883B8C9D
:1048A000D31A9AB2154B1A807B683AE0002338E09D
:1048B00000BF00E000BF3B6B002B06D1114B4FF453
:1048C0002A721349114815F00FFB3B6B5B68002BF4
:1048D00022D10B4B1B683A6B9A4206D0094B40F22F
:1048E000AB220C49094815F0FFFA0021386BFFF79D
:1048F000E9FC12E000BF10E000BF0EE0440400201D
:10490000400400203CBF0100ECC00100C4BF010016
:1049100008C1010014C1010000BF786801F0E6FE83
:10492000002318463837BD4680BD00BF80B500AFB4
:10493000052001F04BF80346184680BD80B582B0D3
:1049400000AF78607B68002B06D1074B4FF43172C3
:104950000649074815F0C8FA7968052001F082F881
:1049600000BF0837BD4680BD3CBF010034C1010017
:10497000C4BF010080B584B000AF78607B68FB6085
:10498000FB68002B06D1114B40F2CE221049114892
:1049900015F0AAFAFA687B689A4206D00B4B40F2EF
:1049A000CF220D490B4815F09FFAFB685B69002B7D
:1049B00004D0FB685B69184601F098FEF868FFF7C1
:1049C000BDFF00BF1037BD4680BD00BF3CBF01002A
:1049D00040C10100C4BF01004CC1010080B594B0CA
:1049E00002AFF860B9607A600023A7F84630BB6870
:1049F0001B8D143B002B00DA0733DB107B8714235D
:104A0000FB87FB685B687B637B6B3B633B6B1B7863
:104A100003F00F03DBB29B00DBB2142B02D06FF06C
:104A2000050317E1FB685B89132B09D88B4B4FF407
:104A30003F728B498B4815F057FA6FF0050309E177
:104A40003B6BDB889BB2184600F014F90346BB872A
:104A5000BB8FC3F30C03A7F84030BB8F03F40053A4
:104A6000FB62FB681B89143BA7F84230E8E07B8FB0
:104A7000DB009BB2B7F84220934228BF13467B85E8
:104A80004FF4207214210E2001F04CFB78627B6AF7
:104A9000002B00F0DC807B6A5B89132B06D86F4B00
:104AA00040F2253270496F4815F01EFA7B6A5B6848
:104AB0001422796B184615F042F97B6A5B683B63F8
:104AC0007B8DA7F8443064E0FB685A89FB8FD31ACA
:104AD000FB83FB685B89FA8F9A4206D95F4B40F2F1
:104AE0002D3262495F4815F0FFF9FA8BB7F8443070
:104AF000934228BF1346A7F84630B7F84630002B3C
:104B000005D10023FB87FB681B68FB6041E0FFF7D2
:104B10000DFFB861BB69002B03D1786A01F0E6FD97
:104B200096E0B869FB685A68FB8F1344B7F84610E3
:104B3000B7F846200192009303464122002001F07D
:104B40001BFC78617B69002B06D1B869FFF7F6FE84
:104B5000786A01F0CBFD7BE0F86801F067FEBB6985
:104B6000FA685A61BB69424A1A617969786A01F048
:104B70007FFEB7F84420B7F84630D31AA7F8443080
:104B8000B7F84430002B04D00023FB87FB681B6878
:104B9000FB60B7F84430002B96D1FA8FB7F8463057
:104BA0001344FB87B7F84220BB681B8D143B9A4225
:104BB000D4BF01230023DBB23B62B7F84030C3F31C
:104BC0000C03BB873B6A002B02D0FB6A002B03D08F
:104BD000BB8F43F40053BB87BB8F184600F04AF8E5
:104BE00003461A463B6BDA807B8D14339BB2184622
:104BF00000F040F803461A463B6B5A803B6B00229C
:104C00009A720022DA721421386B00F059FA0346C6
:104C10001A463B6B5A81BB685B697A68796AB868E7
:104C20009847786A01F062FDB7F842207B8DD31A6D
:104C3000A7F84230B7F840207B8F1344A7F84030E4
:104C4000B7F84230002B7FF412AF002302E000BF20
:104C50004FF0FF3318464837BD4680BD3CBF0100CA
:104C600058C10100C4BF010074C1010094C101001A
:104C70007549000080B483B000AF0346FB80FB8819
:104C80001B021AB2FB881B0A9BB21BB213431BB256
:104C90009BB218460C37BD465DF8047B704780B464
:104CA00083B000AF78607B681A067B681B0203F450
:104CB0007F031A437B681B0A03F47F431A437B6814
:104CC0001B0E134318460C37BD465DF8047B704736
:104CD00080B586B000AFF860B9607A60B86815F04A
:104CE0008FFA38613B69002B01D1FB6822E0FB6839
:104CF0007B6112E07B691A78BB681B789A4209D104
:104D00003A69B968786915F083FA0346002B01D136
:104D10007B690FE07B6901337B617B691B78002B2A
:104D200007D07A693B691A44F9687B680B449A4258
:104D3000E0D9002318461837BD4680BD80B485B041
:104D400000AF786039607B685A1C7A601B78FB730F
:104D50003B685A1C3A601B78BB73FA7BBB7B9A4258
:104D600016D0FB7B43F020037B737B7B602B0CD93D
:104D70007B7B7A2B09D8BB7B43F020033B737A7B88
:104D80003B7B9A4203D0012306E0012304E000BFED
:104D9000FB7B002BD7D1002318461437BD465DF8A6
:104DA000047B704780B588B000AFF860B9607A6066
:104DB000FB68FB61BB68013BFA681344BB617B681D
:104DC000002BB8BF5B427B61BB68012B06D8BB6878
:104DD000012B55D1FB6800221A7051E07B68002B33
:104DE00004DAFB695A1CFA612D221A70BB69002291
:104DF0001A701CE07A69244B83FB02139910D317B5
:104E0000C91A0B469B000B445B00D11ACBB230335E
:104E1000FB74BB69013BBB61BB69FA7C1A707B699F
:104E2000194A82FB03129210DB17D31A7B617B694C
:104E3000002B03D0BA69FB699A42DBD87B69002B4F
:104E400003D0FB6800221A701BE0BB691B78002BA3
:104E50000AD1FB695A1CFA6130221A70FB695A1C8C
:104E6000FA6100221A700CE0FA68BB6813441A4613
:104E7000BB69D31A1A46B969F86914F06BFF00E0F0
:104E800000BF2037BD4680BD6766666680B489B0C6
:104E900000AF786039607B68FB610023FB810023F1
:104EA0007B61FB6903F001033B613B69002B0DD083
:104EB0003B68002B0ADDFA69531CFB6107F10E0306
:104EC000013312781A703B68013B3B60FB69BB61A0
:104ED0000AE0BB699A1CBA611B881A467B691344B5
:104EE0007B613B68023B3B603B68012BF1DC3B682C
:104EF000002B04DD07F10E03BA6912781A70FB89E2
:104F00001A467B6913447B617B691A0C7B699BB2EF
:104F100013447B617B691A0C7B699BB213447B61F0
:104F20003B69002B07D07B691B029AB27B691B0A85
:104F3000DBB213437B617B699BB218462437BD46C5
:104F40005DF8047B704780B586B000AFF8607B6089
:104F50000B46FB7213463B8100233B61FB687B6180
:104F60002BE07B695A687B695B8919461046FFF71D
:104F70008DFF03461A467B6813447B607B681A0CDE
:104F80007B689BB213447B607B695B8903F0010300
:104F90009BB2002B0ED03B69002B0CBF01230023DA
:104FA000DBB23B617B681B029AB27B681B0ADBB2F7
:104FB00013437B607B691B687B617B69002BD0D1CD
:104FC0003B69002B07D07B681B029AB27B681B0AE7
:104FD000DBB213437B60FB7A9BB21846FFF74AFEB5
:104FE00003461A467B6813447B603B891846FFF7EB
:104FF00041FE03461A467B6813447B607B681A0CAB
:105000007B689BB213447B607B681A0C7B689BB205
:1050100013447B607B689BB2DB439BB21846183716
:10502000BD4680BD80B586B000AFF8607B600B46A2
:10503000FB7213463B817B681B687B617B699BB27B
:105040003B617B691B0C3A6913443B613B6A1B68FB
:105050007B617B699BB23A6913443B617B691B0CA2
:105060003A6913443B613B691A0C3B699BB2134498
:105070003B613B691A0C3B699BB213443B613A8923
:10508000F97A3B69F868FFF75EFF03461846183760
:10509000BD4680BD80B586B002AFF8607B600B4630
:1050A000FB7213463B813A89F97ABB6900937B68AE
:1050B000F868FFF7B7FF034618461037BD4680BDB6
:1050C00080B582B000AF78600B467B807B88194644
:1050D0007868FFF7DBFE0346DB439BB218460837D0
:1050E000BD4680BD80B586B000AF78600023FB6010
:1050F00000237B617B683B612BE03B695A683B691D
:105100005B8919461046FFF7C1FE03461A467B69C4
:1051100013447B617B691A0C7B699BB213447B61EE
:105120003B695B8903F001039BB2002B0ED0FB6847
:10513000002B0CBF01230023DBB2FB607B691B0249
:105140009AB27B691B0ADBB213437B613B691B6824
:105150003B613B69002BD0D1FB68002B07D07B69FA
:105160001B029AB27B691B0ADBB213437B617B692A
:105170009BB2DB439BB218461837BD4680BD80B555
:1051800082B000AF00237B6000F0D4F800F0DAFBBF
:1051900000F092FC07F0F2FC01F036FE07F06EFC26
:1051A00000BF0837BD4680BD80B483B000AF034662
:1051B000FB80054B1A68FB88134418460C37BD4624
:1051C0005DF8047B704700BF4804002080B483B0C2
:1051D00000AF78607B68054A12689B1A9BB218463C
:1051E0000C37BD465DF8047B704700BF48040020C3
:1051F00090B585B000AF7860454B1B687A689A42DD
:1052000006D2444B40F2DF124349444814F06CFE8E
:10521000434B1B687A689A4206D33E4B4FF4F072B8
:1052200040493E4814F060FE7B681B79002B06D095
:10523000384B40F2E1123C49384814F055FE7B6887
:105240001B88B3F5A04F06D9324B4FF4F2723749A1
:10525000324814F049FE7B681B881846FFF7A4FF0C
:10526000F8607A68FB689A4224D0FB681B79002BAF
:1052700020D12B4B1B68FA689A421BD02C4B1B6821
:10528000FA689A4202D12A4A7B681360FB681A883E
:105290007B681A80FB681B88B3F5A04F0AD0FB68B7
:1052A0001B881846FFF780FF04467868FFF78EFFDB
:1052B000034663807B685B881846FFF775FFB8601C
:1052C000BA687B689A421FD0BB681B79002B1BD140
:1052D000174B1B687A689A4202D1154ABB68136063
:1052E0007B681A88BB681A807B681B88B3F5A04F5F
:1052F0000AD07B681B881846FFF756FF0446B8683B
:10530000FFF764FF0346638000BF1437BD4690BDBE
:1053100048040020A4C1010018C2010030C20100ED
:105320004C04002058C2010074C2010090C2010068
:105330005004002080B582B000AF184B033323F037
:1053400003031A46164B1A60154B1B687B607B687B
:105350004FF4A0421A807B6800225A807B680022AA
:105360001A714FF4A040FFF71FFF02460D4B1A6061
:105370000C4B1B6801221A710A4B1B684FF4A042A8
:105380001A80084B1B684FF4A0425A80044B1B68DC
:10539000054A136000BF0837BD4680BD241A0020AF
:1053A000480400204C0400205004002080B586B042
:1053B00000AF78607868FFF709FF0346FB827B68DF
:1053C0001B881846FFF7F0FE38617B685B8818463B
:1053D000FFF7EAFEF8607B681B88B3F5A04F18D88A
:1053E0007B685B88B3F5A04F13D87B685B88FA8A2B
:1053F0009A4204D0FB681B88FA8A9A4209D1084B6A
:105400001B683A699A4206D03B695B88FA8A9A42DD
:1054100001D0002300E0012318461837BD4680BDA7
:105420004C04002080B584B000AF78607B68002B0E
:105430004CD07B6803F00303002B07D0254B40F2D0
:1054400073222549254814F04FFD40E07B68083B56
:10545000FB60234B1B68FA689A4206D37B6803F112
:105460000C02204B1B689A4207D91A4B40F27F224C
:105470001D491A4814F038FD29E0FB681B79002B00
:1054800007D1144B4FF423721849144814F02CFD23
:105490001DE0F868FFF78AFF0346002B07D10D4B8C
:1054A00040F2952212490D4814F01EFD0FE0FB68F2
:1054B00000221A710F4B1B68FA689A4202D20D4AF9
:1054C000FB681360F868FFF793FE00E000BF103739
:1054D000BD4680BDA4C10100BCC2010030C20100B4
:1054E000480400204C040020E0C20100FCC201007E
:1054F00024C301005004002080B588B000AF78605C
:105500000B467B807B8803339BB223F00303FB8332
:10551000FB8B0B2B01D80C23FB83FB8BB3F5A04F2C
:1055200003D8FA8B7B889A4201D20023CCE0684BE7
:105530001B687A689A4204D3664B1B687A689A4261
:1055400006D3654B40F2D2226449654814F0CCFC86
:105550005F4B1B687A689A4204D35E4B1B687A687B
:105560009A4201D37B68AFE07B68083BBB61B869B6
:10557000FFF72CFE0346FB82BB691A88FB8AD31A0D
:105580009BB2083BBB82FA8BBB8A9A4206D9524B2C
:105590004FF439725349524814F0A6FCFA8BBB8A77
:1055A0009A4201D900238FE0FA8BBB8A9A4201D13B
:1055B0007B6889E0BB691B881846FFF7F5FD3861F9
:1055C0003B691B79002B3FD1BB691B88B3F5A04F0A
:1055D00006D1414B40F2F5224349414814F084FC86
:1055E0003B691B88BB81FA8AFB8B13449BB208334F
:1055F000FB813E4B1B683A699A4206D1FB891846EB
:10560000FFF7D2FD0246394B1A60FB891846FFF7B7
:10561000CBFD38613B6900221A713B69BA891A8057
:105620003B69FA8A5A80BB69FA891A803B691B88F0
:10563000B3F5A04F47D03B691B881846FFF7B4FD70
:105640000246FB8953803EE0FB8B03F11402BB8AC8
:105650009A4238D8FA8AFB8B13449BB20833FB81F9
:10566000BB691B88B3F5A04F06D11B4B40F2163225
:105670001D491B4814F038FCFB891846FFF794FDC0
:1056800038611A4B1B683A699A4202D2174A3B6941
:1056900013603B6900221A71BB691A883B691A8042
:1056A0003B69FA8A5A80BB69FA891A803B691B8870
:1056B000B3F5A04F07D03B691B881846FFF774FD70
:1056C0000246FB8953807B6818462037BD4680BD63
:1056D000480400204C040020A4C1010058C301006C
:1056E00030C2010070C3010090C3010050040020CB
:1056F00080B588B000AF0346FB80FB88002B01D14A
:105700000023D9E0FB8803339BB223F00303BB8360
:10571000BB8B0B2B01D80C23BB83BB8BB3F5A04FEA
:1057200003D8BA8BFB889A4201D20023C4E0644BB1
:105730001B681846FFF74AFD0346FB83B4E0FB8B6A
:105740001846FFF731FD78617B691B79002B40F02B
:10575000A4807B691B881A46FB8BD31AA3F108022D
:10576000BB8B9A42C0F099807B691B881A46FB8BE1
:10577000D31AA3F10802BB8B14339A4233D3FA8BAA
:10578000BB8B13449BB208337B827B8AB3F5A04F5B
:1057900006D14C4B40F287324B494C4814F0A4FBE5
:1057A0007B8A1846FFF700FDF860FB6800221A713B
:1057B0007B691A88FB681A80FB68FA8B5A807B69C0
:1057C0007A8A1A807B6901221A71FB681B88B3F5FB
:1057D000A04F0BD0FB681B881846FFF7E5FC02467C
:1057E0007B8A538002E07B6901221A71344B1B686B
:1057F0007A699A4227D1324B1B68BB6105E0BB69CD
:105800001B881846FFF7D0FCB861BB691B79002BD9
:1058100004D02F4B1B68BA699A42F0D1284ABB6961
:105820001360274B1A682A4B1B689A420BD0244BF3
:105830001B681B79002B06D0224B40F2B53225495C
:10584000224814F051FBBA8B7B6913440833204A79
:105850001268934206D91B4B40F2BA321E491B48CC
:1058600014F042FB7B6903F00303002B06D0154BB9
:105870004FF46F721949154814F036FB7B6903F039
:105880000303002B06D00F4B40F2BE3214490F48E1
:1058900014F02AFB7B6908330EE0FB8B1846FFF7F8
:1058A00083FC03461B88FB83FA8BBB8BC3F5A043A9
:1058B0009A42FFF444AF002318462037BD4680BD0E
:1058C00050040020A4C1010090C3010030C20100B7
:1058D0004C040020A4C30100C0C30100F0C30100B8
:1058E00020C4010080B485B000AF78607B689B68FD
:1058F00000221A607B685B68033323F00303BB60FC
:105900000023FB6011E07B689B681A68BB681A6023
:105910007B689B68BA681A607B681B881A46BB68FC
:105920001344BB60FB680133FB607B685B881A46ED
:10593000FB689342E7DB00BF1437BD465DF8047B8C
:105940007047000080B582B000AF0023FB8009E003
:10595000FB88084A52F823301846FFF7C3FFFB883C
:105960000133FB80FB88082BF2D900BF0837BD4606
:1059700080BD00BFB0C4010080B584B000AF7860C6
:105980007B689B681B68FB60FB68002B12D07B6800
:105990009B68FA6812681A60FB6803F00303002B27
:1059A00006D0074B40F219120649074814F09CFA3A
:1059B000FB6800E0002318461037BD4680BD00BFDD
:1059C000D4C4010048C501006CC5010080B584B095
:1059D00000AF0346FB71FB79082B08D90A4B40F254
:1059E00057120A490A4814F07FFA002308E0FB79AD
:1059F000084A52F823301846FFF7BEFFF860FB68EC
:105A000018461037BD4680BDD4C40100A8C50100AA
:105A10006CC50100B0C4010080B584B000AF7860EF
:105A200039603B6803F00303002B06D00A4B40F2B9
:105A30006D120A490A4814F057FA3B68FB607B680C
:105A40009B681A68FB681A607B689B68FA681A6032
:105A500000BF1037BD4680BDD4C40100C8C50100D9
:105A60006CC5010080B582B000AF03463960FB71A0
:105A7000FB79082B07D90C4B4FF4D5720B490C4816
:105A800014F032FA0CE03B68002B08D0FB79094A8D
:105A900052F8233039681846FFF7BEFF00E000BF18
:105AA0000837BD4680BD00BFD4C40100E8C5010071
:105AB0006CC50100B0C4010080B400AF00BFBD469A
:105AC0005DF8047B7047000080B586B000AFF860D9
:105AD000B9607A603B60FB68002B08D15B4B40F2F9
