:100000000000082055040000810400007135010043
:1000100081040000810400008104000081040000CC
:1000200081040000810400008104000081040000BC
:1000300081040000800400008104000049330100B5
:10004000810400008104000081040000F9340100F3
:10005000810400008104000081040000810400008C
:10006000810400008104000081040000810400007C
:100070008104000035350100810400008104000086
:10008000810400008104000081040000810400005C
:10009000810400008104000081040000810400004C
:1000A000810400008104000081040000810400003C
:1000B000810400008104000081040000810400002C
:1000C000810400008104000081040000810400001C
:1000D0008104000081040000810400005906000032
:1000E00081040000810400008104000081040000FC
:1000F00081040000810400008104000081040000EC
:1001000081040000810400008104000081040000DB
:1001100081040000810400008104000081040000CB
:1001200081040000810400008104000081040000BB
:1001300081040000810400008104000081040000AB
:10014000810400008104000081040000810400009B
:1001500010B5054C237833B9044B13B10448AFF301
:1001600000800123237010BD1C030020000000004C
:1001700090980C0008B5034B1BB103490348AFF33B
:10018000008008BD000000002003002090980C00B3
:10019000154B002B08BF134B9D46A3F5803A002159
:1001A0008B460F461348144A121A15F04EFF0F4B98
:1001B000002B00D098470E4B002B00D09847002012
:1001C000002104000D000D48002802D00C48AFF3B8
:1001D000008015F0AFFE2000290013F0CDF815F0D7
:1001E00095FE00BF0000080000000820000000008D
:1001F000000000001C03002080FA00200000000026
:100200000000000008B50121164802F099F801210C
:10021000154802F095F8012304220A21072004F072
:100220008BFA012304220B21072004F085FA012315
:1002300004220C21072004F07FFA012304220D215F
:10024000072004F079FA012304220E21072004F08C
:1002500073FA012304220F21072004F06DFA002015
:1002600008BD00BF4041050000550A0001283DD8E7
:100270002DE9F04F83B0C0EBC0001E4A8300D418B4
:10028000607868B312F803B0DFF870A004EBC0091F
:10029000012700264FF6FF782579A268082D04F182
:1002A000080448FA02F340F2F63150461BD9019295
:1002B00001F07AFE019A104B05EB450502EBC515DE
:1002C0002B449B001B68003318BF01235B4508BF0C
:1002D000F619A1454FEA4707DED1301C18BF0120AF
:1002E00003B0BDE8F08FDB07E5D4E0E74FF0FF3067
:1002F000704700BF7C7701006000C41018770100D0
:10030000012800F29A802DE9F04F85B0C0EBC000C3
:100310004B4B80001E1896F801A0BAF1000F65D073
:1003200013F80090474A039606EBCA0300213746AC
:100330004FF0010801914FF6FF7B1E463C79BD68E6
:10034000082C07F108074BFA05FC40F2F63110467D
:1003500050D9029201F028FE029A3B4904EB440472
:1003600005EBC414214489000968003118BF01213C
:10037000494502D1019B43440193BE424FEA4808DC
:10038000DCD1019B039EB3FA83F84FEA581801278A
:100390002C4BC8F100083A464FF0000B37EA080131
:1003A0000CBF0121002149453479B5684FF47771BC
:1003B000184627D04FF6FF7C082C4CFA05FC1DD9B7
:1003C000CDE9012301F0F0FDDDE9012304EB440454
:1003D0001E492401214402FA05F50D600BF1010BC1
:1003E000D3454FEA470706F10806D7DB002005B0E2
:1003F000BDE8F08F1CF0010FAFD1AAE71CF0010F90
:10040000E4D1DDE74FF6FF71082C41FA05FC40F21C
:100410000B410BD81CF0010F08D004EB44040C492D
:100420002401214402FA05F50D60D7E7CDE9012347
:1004300001F0BAFDDDE90123EFE74FF0FF3070472F
:100440007C770100187701006000C4100C8008441C
:100450000C800846064880470649074A074B9A42DF
:10046000BEBF51F8040B42F8040BF8E7FFF790FE0B
:10047000A10500009C980C00000000201C03002037
:10048000FEE700BF1D4BD3F8943003F00703023B97
:10049000042B2DD8DFE803F017031A1D21004FF4B9
:1004A0000043164A1649D2F80001D2F80821C0F3D9
:1004B0000420C2F3082201320130B3FBF0F0B0FB9C
:1004C000F2F0086070470F4B1B68EAE70E4B1B68A1
:1004D000E7E70E4B1B685B08E3E7084B9B68C3F339
:1004E0000443073B072B06D8094A52F82330D8E7C4
:1004F000064B1B68D5E70023D3E700BF00400E4042
:1005000000000020040000200C0000200800002053
:10051000B47701000048704700A24A04184BD3F892
:10052000943003F00703023B042B24D8DFE803F0E8
:100530000E03111418004FF40040114BD3F8003192
:10054000C3F304230133B0FBF3F070470D4B18687D
:10055000F3E70D4B1868F0E70C4B18684008ECE720
:10056000074B9B68C3F30443073B072B06D8084A95
:1005700052F82300E1E7054B1868DEE70020DCE7CE
:1005800000400E40040000200C0000200800002065
:10059000B4770100014B1868704700BF04000020C9
:1005A000044B054A9A60D3F8882042F47002C3F8DD
:1005B0008820704700ED00E0000000004FF400408C
:1005C000704700BF4FF47A70704700BF014B186846
:1005D000704700BF0C00002000207047FEE700BFFE
:1005E0004FF400534B600020704700BF012070475C
:1005F0000020704770B57AB10D461646002404E01D
:100600000134A64205F8010B04D000F0BFF8431CEA
:10061000F6D10CB1204670BD4FF0FF34FAE700BFB1
:10062000044A05491368002B08BF0B4618441060A4
:10063000184670473803002080FA002070B5161E57
:1006400007DD0C468D1914F8010B00F0D3F8A54214
:10065000F9D1304670BD00BF104803691B0609D5AB
:1006600070B50F4C2368072B05DDC36C23F0040322
:10067000C36470BD70470B4D2E6804F09FFB0A4B9E
:1006800098552B6801332B602368013323602B6856
:10069000082BEED100232B6070BD00BF001001407D
:1006A0004803002050030020400300200030024B8C
:1006B00018BF0120187070473C03002070B588B047
:1006C00001212A482A4D2B4E01F03AFE01212A48E9
:1006D00001F036FE042211460123072004F02CF815
:1006E000012302220521072004F026F80FCD01ACDA
:1006F0000FC495E80700012384E807000422194687
:10070000104604F019F801211C4801F019FE08A94F
:10071000002401F81C4D304604F0E6F8032373670B
:10072000B26F174B22F4E06222F0070242F48062BB
:100730000420802142F00402B267B064C3F884113F
:10074000F26C0243F26430465960052104F09AF8D5
:100750000C4B1A68214623469068022215F082FD50
:10076000094B01221A7008B070BD00BF404105005E
:10077000D47701000010014000550A0000B20400C7
:1007800000E100E0440100203D03002010B5144BBF
:100790001B78F3B103F04CFB124A1368002B1BDDEE
:1007A000114B124C1968645C1968013119601968A1
:1007B000082904BF0021196013680D49013B13602B
:1007C000CB6C43F00403E4B2CB6403F035FB20466A
:1007D00010BDFFF773FFDDE74FF0FF34F5E700BF13
:1007E0003D030020480300204C030020400300206C
:1007F0000010014010B50E4B1B78044653B10D4B51
:100800001B780BB10A2C08D021460B4804F0DCFA07
:10081000204610BDFFF752FFF1E70D21064804F016
:10082000D3FA2146044804F0CFFA204610BD00BF99
:100830003D0300203C030020001001402DE9F04161
:10084000254D2B6893F822320E461907074690462D
:100850002CD442463146384615F01AFA044650BBAD
:100860002B6893F82222D20625D5012F2ED0B3F87B
:100870000632012B1FD8464436F8026CC6F30B062D
:10088000CEB942463946022015F0FEF940F608334B
:10089000984210D12A6892F8223243F00803304679
:1008A00082F82232BDE8F04114F020BF012014F09C
:1008B0001DFF044610B12046BDE8F0812A6892F879
:1008C000223223F0080382F82232C2E73288C2F3D0
:1008D0000B02002ACBD0EEE7E81900202DE9F04109
:1008E00082B0294D2B6893F822321A0706460F462C
:1008F00019D404220DEB0201304615F0C9F9044663
:1009000050B92A6892F82232DB0605D5012E18D09C
:10091000B2F80632012B1BD9BDF804303B802046CB
:1009200002B0BDE8F081012014F0E0FE044600288A
:10093000F2D12A6892F8223223F0080382F8223298
:10094000D7E7BDF80430C3F30B010029E0D0E5E799
:10095000BDF80680C8F30B08B8F1000FDCD13146B2
:100960000422022015F090F940F608339842D3D1C2
:100970002A6892F8223243F00803404682F8223275
:1009800014F0B4FE0446C7E7E819002030B583B080
:10099000134C8DF80410236893F82232090A0022C0
:1009A0001B078DF805100546ADF8062007D4042274
:1009B00028460DEB020115F095F903B030BD01207A
:1009C00014F094FE0028F8D114F0B4FE0028F4D1FD
:1009D000226892F8223223F0080382F82232E6E7F6
:1009E000E8190020F8B5254D2B6893F822320F4600
:1009F0001907064613D404223946304615F048F943
:100A0000044650B92B6893F82222D20605D5012E50
:100A100013D0B3F80632012B15D92046F8BD0120BA
:100A200014F064FE04460028F7D12A6892F82232B6
:100A300023F0080382F82232DDE73A88C2F30B0282
:100A4000002AE6D0E9E77F88C7F30B07002FE4D13F
:100A500031460422022015F017F940F60833984277
:100A6000DBD12A6892F8223243F00803384682F834
:100A70002232BDE8F84014F039BE00BFE81900206A
:100A800030B583B0104C0191236893F822321B07D4
:100A9000054607D4042228460DEB020115F022F981
:100AA00003B030BD012014F021FE0028F8D114F06D
:100AB00041FE0028F4D1226892F8223223F0080384
:100AC00082F82232E6E700BFE8190020F8B5224D8F
:100AD0002B6893F822320F461907064611D43A467E
:100AE0003146022015F0D4F8044640B92B6893F83B
:100AF0002222D20603D5B3F80632012B0FD92046A5
:100B0000F8BD012014F0F2FD04460028F7D12A6850
:100B100092F8223223F0080382F82232DFE73E44C3
:100B200036F8026CC6F30B06002EE8D102213A46D5
:100B3000084615F0A9F840F608339842DFD12A6834
:100B400092F8223243F00803304682F82232BDE8A0
:100B5000F84014F0CBBD00BFE819002070B50F4C71
:100B6000236893F822321B0705460E4606D4324608
:100B700029460220BDE8704015F0B4B8012014F0F9
:100B8000B5FD50B914F0D6FD38B9226892F822327A
:100B900023F0080382F82232E9E770BDE81900204B
:100BA000B2F5005F1DD270B582B0204E019033685F
:100BB00093F8223214461A070D4614D40422104624
:100BC0000DEB020115F08EF848B9336893F8223224
:100BD0001B0719D422462946052015F083F802B0D8
:100BE00070BD21207047012014F080FD0028F6D14F
:100BF00014F0A0FD0028F2D1326892F8223223F0DE
:100C0000080382F82232D9E7012014F06FFD002892
:100C1000E5D114F08FFD0028E1D1326892F822323C
:100C200023F0080382F82232D4E700BFE81900203D
:100C300030B583B01E4C0090236893F822321A0717
:100C40000D4613D404221046694615F04BF858B9E6
:100C50002368019593F822321B0718D404220DEB68
:100C60000201052015F03EF803B030BD012014F05C
:100C70003DFD0028F8D114F05DFD0028F4D1226874
:100C800092F8223223F0080382F82232DAE70120B8
:100C900014F02CFD0028E7D114F04CFD0028E3D11E
:100CA000226892F8223223F0080382F82232D5E734
:100CB000E8190020F0B585B0474D03902B6893F8F4
:100CC00022321C070E4675D40422104603A915F0E3
:100CD00009F8042201A90020FFF7B0FD2A68019B52
:100CE00092F8222243F400531007029351D40422B5
:100CF00002A9002014F0F6FF142417E004220DEBE3
:100D00000201002014F0C4FF40B92B6893F822229E
:100D1000D20603D5B3F80632012B20D9019B9B04E0
:100D200016D5012014F00CFD013C11D02B6893F86E
:100D300022321907E2D5012014F0D8FC0028EDD1A9
:100D40002A6892F8223223F0080382F82232D5E78B
:100D5000314604220520FFF771FD05B0F0BDBDF856
:100D60000670C7F30B07002FD8D1042239460220A2
:100D700014F08AFF40F608339842CFD12A6892F8DF
:100D8000223243F00803384682F8223214F0AEFCD7
:100D9000C4E7012014F0AAFC0028ADD114F0CAFC6D
:100DA0000028A9D12A6892F8223223F0080382F899
:100DB00022329CE7012014F099FC002889D114F01C
:100DC000B9FC002885D12A6892F8223223F0080362
:100DD00082F8223278E700BFE8190020F0B583B02E
:100DE0000C4F0646642401A93846FFF763FF054609
:100DF00060B9019BB3424FF0010007D014F0A0FC92
:100E0000013CF0D1019B9E4218BF0725284603B044
:100E1000F0BD00BF10C000092DE9F04F87B0BDF84C
:100E200058609DF844400294751C25F00105BDF8FA
:100E300048400394783500908846924600242A461C
:100E4000022104A89DF84090BDF850700193CDE9AF
:100E5000044414F03DFC834658B1BBF1070F55D054
:100E6000049810B1022114F03BFC584607B0BDE8CD
:100E7000F08F01462A46049815F0E7F8DDE90334BF
:100E8000B9F1060F08BF02236386BDF80430E3857D
:100E90009DF8083084F83130009984F803B0424658
:100EA000C4F8048084F83090A786A4F8766004F132
:100EB000080015F0A6F83A46139904F1360015F02B
:100EC000A0F83246159904F1780015F09AF804F16B
:100ED0002800BAF1000F23D05146062215F091F8F0
:100EE000049C14F08FFC83460028B6D1294F2A4B6E
:100EF0003A681B88B2F806229A4216D314F084FC92
:100F000083460028A9D14FF01D0BA9E7214A11689B
:100F1000B1F80622002AA3D0013AA1F806229FE7E1
:100F20000622FF2115F091F8DAE743262580A67006
:100F3000304614F00BFC834618BBA9B2204614F0CF
:100F400065FC8346E8B93A68B2F806320133A2F884
:100F5000063214F059FC834600287FF47EAF3046F9
:100F600005AA41F2883114F0F7FB834600287FF48C
:100F700074AF059B5B68142B09D8084A52F823B05C
:100F80006BE714F041FC002818BF834665E74FF07B
:100F9000010B65E7E819002056030020F0770100F7
:100FA0002DE9F04182B002A8002340F8043D04225C
:100FB000022114F08DFB044650B1072C23D0019878
:100FC00010B1022114F08CFB204602B0BDE8F08184
:100FD00001460422019815F038F8019DEC7014F0D8
:100FE00011FC04460028E8D1274F284B3A681B889B
:100FF000B2F806229A4210D314F006FC04460028E8
:10100000DBD11D24DBE7204B1A68B2F80632002B37
:10101000D5D0013BA2F80632D1E744264FF00408B0
:101020006870AE70304685F8008014F08FFB04467F
:1010300008BB4146284614F0E9FB0446D8B93A6893
:10104000B2F806320133A2F8063214F0DDFB044692
:101050000028B2D130466A4641F2883114F07CFB58
:1010600004460028A9D1009B5B68142B09D8084AC4
:1010700052F82340A1E714F0C7FB002818BF04462C
:101080009BE701249BE700BFE819002056030020DE
:10109000F07701002DE9F04F87B09DF84040BDF892
:1010A0005850BDF8606001949DF8444002949DF84A
:1010B0004840039405EB060C06F174040CF0010C97
:1010C0002C44644481464FF0000C8B46904602212C
:1010D000224604A89A46BDF85070CDE904CC14F01D
:1010E000F7FA0346B0B1072B0AD0049820B10221C9
:1010F000019314F0F5FA019B184607B0BDE8F08F94
:10110000454A1168B1F80622002AEED0013AA1F84A
:101110000622EAE701462246049814F096FF049B53
:101120009DF8042083F829209DF8082083F82A20C0
:1011300002209DF80C2083F82B20DF85A3F8705047
:10114000D8705946C3F8048083F828A0A3F82C90DF
:10115000A3F87260424603F10800019314F051FFB6
:10116000019B139903F130003A4603F1740714F020
:1011700048FF2A461599384614F043FF324617991E
:10118000781914F03EFF049D14F03CFB0346002840
:10119000A9D1214F214B3A681B88B2F806229A4206
:1011A00006D314F031FB034600289CD11D239CE795
:1011B00045262C80AE70304614F0C8FA804610BB2D
:1011C000A1B2284614F022FB8046E0B93A68B2F892
:1011D00006320133A2F8063214F016FB034600284B
:1011E00081D1304605AA41F2883114F0B5FA0346A0
:1011F00000287FF478AF059B5B68142B0AD8084A57
:1012000052F823306FE714F0FFFA002814BF0346AA
:10121000434668E7012368E7E819002056030020E9
:10122000F07701002DE9F04182B002A8002340F8D8
:10123000043D0422022114F04BFA044650B1072C5D
:1012400024D0019810B1022114F04AFA204602B0CD
:10125000BDE8F08101460422019814F0F6FE019DDC
:101260000223EB7014F0CEFA04460028E7D1274F92
:10127000274B3A681B88B2F806229A4210D314F022
:10128000C3FA04460028DAD11D24DAE71F4B1A6896
:10129000B2F80632002BD4D0013BA2F80632D0E7D8
:1012A00047264FF004086870AE70304685F800801D
:1012B00014F04CFA044608BB4146284614F0A6FA3E
:1012C0000446D8B93A68B2F806320133A2F80632B9
:1012D00014F09AFA04460028B1D130466A4641F229
:1012E000883114F039FA04460028A8D1009B5B68C5
:1012F000142B09D8074A52F82340A0E714F084FAC7
:10130000002818BF04469AE701249AE7E81900204C
:1013100056030020F07701002DE9F041224FD7F865
:1013200000C0BCF8045204465200681C0E4680B24D
:1013300001F10C0502F0060208214FF04A08ACF852
:101340000402E270E0806371A6602580217184F858
:10135000028014F057FA18B105462846BDE8F0811E
:101360003A68124BB2F806221B889A421AD201360A
:1013700026F001060C36B1B2268084F802802046A1
:1013800014F044FA054628B93A68B2F80632013337
:10139000A2F8063214F038FA002818BF054628468D
:1013A000BDE8F0811D25F5E7E8190020560300206F
:1013B0002DE9F04F87B0BDF84070BDF8488001932B
:1013C00007EBC70608F107041444B600344424F0C0
:1013D00001040C340025914682468B4622460221A8
:1013E00004A8CDE9045514F073F9054650B1072D52
:1013F00046D0049810B1022114F072F9284607B0C3
:10140000BDE8F08F03466AF30F03014622460498B5
:10141000CDE90233AA4614F018FE029B049867F344
:101420000F0A69F31F4368F31F4AC5704360C0F891
:1014300008A000F10C05B9F1000F2BD1002F31D11C
:10144000B8F1000F37D1139B28460622002B3DD060
:10145000194614F0D6FD049E14F0D4F90546002870
:10146000C5D1374D374B2A681B88B2F806229A42FD
:1014700030D314F0C9F905460028B8D11D25B8E7C6
:101480002F4B1A68B2F80632002BB2D0013BA2F8FB
:101490000632AEE7284659464A4614F0B2FD4D449E
:1014A000002FCDD028460199324614F0AAFD3544CC
:1014B000B8F1000FC7D042462846119914F0A1FD9B
:1014C000139B454428460622002BC1D1FF2114F06E
:1014D000BCFDC0E74B273480B770384614F036F9AE
:1014E000804618BBA1B2304614F090F98046E8B9A6
:1014F0002A68B2F806320133A2F8063214F084F9F1
:10150000054600287FF473AF384605AA41F28831BA
:1015100014F022F9054600287FF469AF059B5B684B
:10152000142B0AD8084A52F8235060E714F06CF9DB
:10153000002814BF0546454659E7012559E700BF75
:10154000E819002056030020F07701002DE9F04152
:1015500084B00146062202A814F053FD04A800231B
:1015600040F80C3D0A22022114F0B2F8044650B1B2
:10157000072C2AD0019810B1022114F0B1F82046AE
:1015800004B0BDE8F08101460A22019814F05DFD27
:1015900001980223C37002A90622043014F031FD21
:1015A000019D14F02FF904460028E1D1274F284B64
:1015B0003A681B88B2F806229A4210D314F024F934
:1015C00004460028D4D11D24D4E7204B1A68B2F871
:1015D0000632002BCED0013BA2F80632CAE74F26D6
:1015E0004FF00A086870AE70304685F8008014F03D
:1015F000ADF8044608BB4146284614F007F90446F6
:10160000D8B93A68B2F806320133A2F8063214F0BB
:10161000FBF804460028ABD130466A4641F28831D7
:1016200014F09AF804460028A2D1009B5B68142BA2
:1016300009D8084A52F823409AE714F0E5F8002840
:1016400018BF044694E7012494E700BFE81900207E
:1016500056030020F07701002DE9F04184B004AB7F
:10166000002443F8044D8DF804008DF80510ADF802
:10167000062018460822022114F02AF8044650B128
:10168000072C2AD0039810B1022114F029F8204623
:1016900004B0BDE8F08101460822039814F0D5FC9F
:1016A00003980422C4700DEB0201104414F0A9FC4D
:1016B000039D14F0A7F804460028E1D1274F284BDA
:1016C0003A681B88B2F806229A4210D314F09CF8AC
:1016D00004460028D4D11D24D4E7204B1A68B2F860
:1016E0000632002BCED0013BA2F80632CAE75226C2
:1016F0004FF008086870AE70304685F8008014F02E
:1017000025F8044610BB4146284614F07FF80446ED
:10171000E0B93A68B2F806320133A2F8063214F0A2
:1017200073F804460028ABD130460DEB080241F2B5
:10173000883114F011F804460028A1D1029B5B689F
:10174000142B09D8074A52F8234099E714F05CF8A3
:10175000002818BF044693E7012493E7E819002006
:1017600056030020F07701002DE9F04182B04C1CB7
:1017700024F00104063400230D46074622460221C8
:101780006846CDE9003313F0A3FF0646A0B1072E4B
:1017900008D0009810B1022113F0A2FF304602B029
:1017A000BDE8F0812F4B1A68B2F80632002BF0D05A
:1017B000013BA2F80632ECE701462246009814F0FD
:1017C00044FC00982A46C67085803946063014F0DD
:1017D00018FC009D14F016F806460028D7D1214EBB
:1017E000214B32681B88B2F806229A4206D314F0C5
:1017F0000BF806460028CAD11D26CAE709272C8007
:10180000AF70384613F0A2FF804608BBA1B228464D
:1018100013F0FCFF8046D8B93268B2F806320133C3
:10182000A2F8063213F0F0FF06460028AFD1384682
:1018300001AA41F2883113F08FFF06460028A6D195
:10184000019B5B68142B0AD8084A52F823609EE774
:1018500013F0DAFF002814BF0646464697E7012634
:1018600097E700BFE819002056030020F077010039
:101870002DE9F04182B000230646019313F0C2FF28
:1018800020BB3388C3F30B02550012B39B0B032B11
:1018900005F1020714BF4FF002084FF0010817F0DE
:1018A0003E0F1ABF27F03F0240323A46414601A898
:1018B00013F00EFF0446E8B1019810B1414613F051
:1018C0000FFF13F0A1FF002808BF204602B0BDE8BB
:1018D000F08131460120FFF701F8044670BB3388E0
:1018E000C3F30B025500002AD0D14FF0010840F697
:1018F0000534E1E701463A46019814F0A6FB394663
:101900000198FFF7E3F804460028D5D10D4B019864
:101910001A68B2F806323BB190F902100029A4BF50
:1019200003F1FF33A2F806324219435D527843EACD
:101930000223338014F02EF80446BDE74FF001086F
:10194000BAE700BFE819002000B583B001A9002064
:10195000FFF748F820B10346184603B05DF804FBD2
:10196000019921F48061FFF78BF80346184603B014
:101970005DF804FB2DE9F04786B005464FF4097287
:10198000002114F062FB9F4E0023A5F8063235605B
:1019900014F0CEF978B1044605AF39460020FFF7C0
:1019A00021F800285CD014F0E9F913F08FFE2046EE
:1019B00006B0BDE8F08705AF3946FFF713F80446D7
:1019C0000028EAD190490620FFF75AF8044600287B
:1019D000E3D18E490620FFF753F804460028DCD1F6
:1019E0008B490620FFF74CF804460028D5D18949D9
:1019F0000620FFF745F804460028CED18649062088
:101A0000FFF73EF804460028C7D104A90120FEF7DD
:101A100065FF04460028C0D1BDF8103043F4805360
:101A200019460120ADF81030FEF7B0FF044600283B
:101A3000B3D14FF0C8080BE0BDF8103099044FF057
:101A4000010019D413F07CFEB8F1010800F0D38036
:101A500004A90120FEF742FF0028EDD004469CE7D0
:101A6000059B23F4803319460593FFF709F80028F6
:101A700099D114F03FFA96E739460020FEF7B2FFFD
:101A80000446002889D1059B5B0501D4012484E725
:101A900039466248FFF70EF9044600287FF47DAF0F
:101AA0003946FEF79FFF044600287FF476AF059B7A
:101AB00023F4A04319460593FEF7E2FF04460028ED
:101AC0007FF46BAFDFF8848155484146FFF7B0F8EB
:101AD000044600287FF461AF39465148FFF7EAF821
:101AE000044600287FF459AF059B4345CED1E12041
:101AF00013F02CFE044600287FF44FAF049013F03F
:101B000097FD044610B113F0E1FD46E7454946480C
:101B1000FFF78EF804460028F5D101464348FFF749
:101B200087F804460028EED101464148FFF780F8C7
:101B300004460028E7D13F493B48FFF779F80446BF
:101B40000028E0D13C48FFF749F904460028DAD1E3
:101B500002A93A48FFF7AEF804460028D3D102A9FB
:101B60003748FFF7A7F804460028CCD1029BDFF8DE
:101B7000E08034492C481B0A88F80030FFF758F8F9
:101B800004460028BFD12B48FFF728F90446002857
:101B9000B9D14FF0FF312248FFF74AF80446002838
:101BA000B1D103A813F05AFD039927485039FFF724
:101BB0003FF804460028A6D10821384613F03EFD20
:101BC000044600289FD1059B98F8008098798DF8ED
:101BD0000400DB798DF806402146102201A88DF81B
:101BE000053014F087FDC0B2804533D013F06EFD90
:101BF00040F60134D1E6BDF810309A043FF53CAF11
:101C00000724CAE6E81900207587200720C02E089F
:101C10003C3C3C09442C320B9764A00C10C00009DA
:101C200000400009785634120CC0000904C00009B5
:101C300008C000092143658799EF53BD80C00009A2
:101C4000CCC0000999BD53A700C000098EC8AB23C2
:101C5000540300204021384613F0F0FC04460028CD
:101C60007FF451AF402205998E48FEF799FF044654
:101C700000287FF448AF0821384613F0DFFC044603
:101C800000287FF440AF082205998748FEF788FFB7
:101C9000044600287FF437AF01218448FEF7C8FFCF
:101CA000044600287FF42FAF81498248FEF7C0FF29
:101CB000044600287FF427AF039BA3F15102920A48
:101CC000503B814602F1010A039380466424049B41
:101CD0007948A8EB0303B3F5F84F04A91ED90023F4
:101CE0000493FEF7E7FF002840F0CE80013CEED1E0
:101CF000049BA8EB0303B3F5F84F0FD902A96F4873
:101D0000FEF7D8FF044600287FF4FDAE684B029A28
:101D10009A4200F0C18013F0D9FCB7E6039BA3EB15
:101D20000803B3F5806F28BF4FF480631946384627
:101D30001C4613F083FC002840F0A680C8F30E0078
:101D400000F1106000F5804022460599FEF728FF5B
:101D5000002840F09980A04441465948FEF768FFAA
:101D6000002840F0918009F10109CA45AED85549D3
:101D70005048FEF75DFF044600287FF4C4AE51488A
:101D8000FFF72CF8044600287FF4BDAE4E494948C1
:101D9000FEF74EFF044613F099FC002C7FF4FDADD6
:101DA00014F09AF8044600287FF4F7AD3946FEF7A0
:101DB00019FE044600287FF4F0AD059B43F4803300
:101DC00019460593FEF75CFE044600287FF4E5AD56
:101DD000FFF7BAFD044600287FF4DFAD03AA41F205
:101DE0008831E12013F0B8FC044600287FF4D5AD1B
:101DF0000399364C91F8383085F8003291F8393033
:101E000085F8013291F83A3085F8023226310622FF
:101E100005F2162014F0F5F8039906222C3105F589
:101E2000077014F0EEF8039991F8212091F8203012
:101E300005F5027043EA02230A310E22238014F0D2
:101E4000E0F8012013F052FC02A813F02DFC00284A
:101E50007FF404AE0546BDF80820EBB29A4204A810
:101E6000194613D913F000FC00287FF4F7AD049C49
:101E7000204614F027FB01462046FFF775FC01358C
:101E80000028E8D0044688E504463CE63368012291
:101E900083F8222200248AE513F018FC40F602346D
:101EA0007BE500BF14C0000954C000095CC00009F4
:101EB000BADCCDAB0CC0000908C0000910C0000995
:101EC00004C00009994AC6D482C84F17560300209F
:101ED00010B582B0194C236893F82232DB0603D583
:101EE0000123184602B010BD0DF106010120FEF7D6
:101EF000F5FC03460028F4D1BDF8063023F48053E6
:101F00009BB219460120ADF80630FEF73FFD0346AF
:101F10000028E6D1226892F8223243F0100382F8BA
:101F2000223213F0E3FB03460028DAD1216891F84E
:101F3000222242F0080281F82222D2E7E81900208A
:101F400010B582B0174C226892F82232D90602D41A
:101F5000012002B010BD23F0100382F822320120CC
:101F600013F0C4FB0028F4D113F0E4FB0028F0D1F7
:101F7000226892F8223223F0080382F822320DF10F
:101F800006010120FEF7AAFC0028E2D1BDF80630C8
:101F900043F4805319460120ADF80630FEF7F6FCF5
:101FA000D7E700BFE8190020FEE700BF38B59A4B1D
:101FB0009842054606D019D9984B984202D0984BC2
:101FC000984216D105F00F04631E0B2B00F2E98036
:101FD000DFE813F02500360045005200D400DD0094
:101FE000E7009C00AA00BB00C90015008D4B984279
:101FF000E8D040F69A718C48FFF7D6FFE2E78B4BAA
:10200000D3F8F03103F00703052B00F20281DFE87B
:1020100013F0B300D100FA00F800F000F600834B93
:10202000D3F8943003F00703023B052B00F2E9805C
:10203000DFE813F0C000E500DF00ED00A200EB00D8
:102040007A4BD3F8803003F00703022B22D0042B05
:1020500000F0AE80012B0CBF032401241AE0734B67
:10206000D3F8843003F00703013B032B00F2D18047
:10207000DFE803F010BFC39E6C4BD3F88C4004F034
:102080000704022C06D0042C00F09280012C0CBF17
:1020900003240124604B9D4200F0978040F28C8025
:1020A0005E4B9D4200F09D805D4B9D4240F09380D1
:1020B0005E4BD3F8884004F00704042C04D8DFE812
:1020C00004F009211D0F0B0041F21B015648FFF7D8
:1020D0006BFF0024204638BDBDE83840FEF772BAD9
:1020E000FEF71CFA514BD3F80031C3F301630133FF
:1020F00001249C40B0FBF4F4204638BDBDE83840D4
:10210000FEF764BABDE83840FEF758BA474BD3F83B
:102110005C3103F03003202B4CD0302BBAD0102B85
:102120000CBF07240124B5E7404BD3F85C3103F41E
:102130004013B3F5001F3DD0B3F5401F5BD0B3F59E
:10214000801F0CBF07240124A4E7384BD3F860316B
:1021500003F00303022B4AD0032B9BD0012B0CBFAF
:102160000424052496E7314BD3F8643103F00303CC
:10217000022B3CD0032BF1D10A248BE72B4BD3F855
:10218000884004F00704022C7FF47DAF82E7274BE0
:102190001B6F13F003032AD0012B0CBF0924012469
:1021A00078E741F689112048FFF7FEFE002471E729
:1021B0000C246FE704246DE71A4B9D420BD11B4B97
:1021C000D3F8804004F0070477E7184BD3F8844035
:1021D00004F0070471E740F6C9711348FFF7E4FE05
:1021E0006BE7124BD3F88C4004F0070465E7072433
:1021F00050E702244EE708244CE706244AE703246C
:1022000048E7052446E70B2444E70E2442E70D2463
:1022100040E701243EE700BF030020000400220045
:102220000500240002001E004879010000400E4015
:10223000F8B54FF0804341F671321E6C1A645B684A
:1022400011F0FF030D4604463ED0022B0BD12E4B5E
:10225000984254D92D4B984253D903F5B70303F54F
:102260005863984243D940F69A612948FFF79CFE8B
:102270004FF040724FF0804026494368264F23F0CC
:1022800040731343022D0CBF0A463A469442436002
:1022900011D9224B224A234911609C420ED96DB9B3
:1022A0004FF08C434FF480521A601EB14FF08043C0
:1022B00000221A64F8BD1C4B1A4A1A604FF088437A
:1022C0004FF480521A60F0E7184A904211D9184B27
:1022D000984210D9174B98420FD9174B9842C2D841
:1022E0000322164B03EBC2035B791A06C2E70622F0
:1022F000F7E71A46F5E70122F3E70222F1E70422A5
:10230000EFE70522EDE700BFC0CF6A00809FD50050
:10231000487901000024F40080D5430280F0FA02DD
:1023200000010046020202000001004480A81201E0
:102330000051250280F9370300A24A0410790100F8
:1023400030B4C0F30323013B0E2B55D8DFE803F074
:102350004C2054545047420832383C28542E240014
:10236000C0F3043327484FF48075274AD2F844411C
:10237000E40704D51844800030BC01607047D2F8EF
:1023800040412C42F6D0D2F840412C42F7D1F1E73F
:10239000C0F304331D48EDE7C0F304331C48E9E7FC
:1023A000C0F3043381F001011A48E3E7C0F30433BA
:1023B0001948DFE7C0F304334FF480351748D4E7FA
:1023C000C0F304331648D5E7C0F3043381F00101AC
:1023D0001448CFE7C0F3043310251348C5E7C0F312
:1023E000043301251148C0E7C0F304331048C1E7A6
:1023F000C0F304330F48BDE741F239410E4830BC09
:10240000FFF7D2BD6007F21000400E400006F21048
:10241000800FF210200BF2102006F2108007F2104D
:10242000800AF210000BF2104007F2100007F210C1
:102430000000F2108005F2104879010008B5C0F3E1
:102440000313013B0B2B78D8DFE803F00C121822A2
:10245000282E343A51626B066D4BD3F80401C0F359
:10246000082008BD6A4BD3F80001C0F3042008BD62
:10247000674BD3F81401C0F3042008BD644BD3F8B4
:102480000001C0F30160431C01209840013808BDE1
:102490005F4BD3F80C01C0F3082008BD5C4BD3F8A8
:1024A0001801C0F3082008BD594BD3F81C01C0F334
:1024B000082008BD564BD3F80801C0F3082008BD1A
:1024C000544B984200F089803ED8A3F5BA23984235
:1024D00000F0958003F5703398423ED14C4BD3F811
:1024E0002031012003F00F039840013808BD4A4B0A
:1024F000984257D003F5A11398423CD0474B9842DD
:1025000059D041F201614648FFF74EFD002008BD59
:10251000444B98423FD13E4BD3F8300100F00300CA
:1025200008BD414B984230D0404B98421CD1384BAB
:10253000D3F85C01C0F3014008BD41F23561384871
:10254000FFF732FD002008BD394B98424ED0394B81
:10255000984239D0384B984248D041F2DD5130484A
:10256000FFF722FD002008BD41F228612C48FFF74B
:102570001BFD002008BD264BD3F82801C0F3013015
:10258000031D01209840013808BD214BD3F85C01A0
:1025900000F0030008BD41F210612148FFF704FD7F
:1025A000002008BD1A4BD3F828310120C3F30113D2
:1025B0009840013808BD164BD3F82831012003F0AC
:1025C00003039840013808BD114BD3F82031012096
:1025D000C3F301239840013808BD0D4BD3F82031D7
:1025E0000120C3F303139840013808BD084BD3F80A
:1025F00020310120C3F302339840013808BD044B59
:10260000D3F820310120C3F303439840013808BDBB
:1026100000400E408016180090171C0090071A000A
:1026200048790100A0091400B8003200B900340054
:1026300000362C0080262E0080002A00F8B5C0F35A
:1026400003156B1E0C460B2B00F21D82DFE813F006
:102650001C00BF00CC00DF00C00109011901EF0020
:10266000E501D001F9010C00B1F5007F80F02A826C
:10267000C44AD2F8043123F4FF3323F4807343EACD
:102680000424C2F80441F8BD1F2900F21C834FF056
:10269000804741F671333E6C3B64FDF73BFFBA4B1C
:1026A0007A68984240F28F84B84B984240F29A84FC
:1026B000B74B984240F29A84B64B984240F29A84C3
:1026C00040F69A61B448FFF76FFC4FF040724FF04C
:1026D00080414B6823F0407313434B600EB10023DD
:1026E0000B64AE4BA74E01221A60D6F8003123F0DE
:1026F000407343F08073C6F8003100F075FDD6F8E2
:10270000003123F4F85343EA0424C6F80041FDF7EE
:10271000B9FEA34B1B680646580640F1C982A14A80
:102720004FF0804354681F6C41F671321A64C4F351
:1027300001445B68002C00F08882022C00F0348297
:1027400040F69A619448FFF72FFC4FF040724FF02B
:10275000804095494368954D23F040731343022C04
:102760000CBF0A462A469642436040F29381904B42
:10277000904A914911609E4240F28F81002C40F0B6
:102780008C814FF08C434FF480521A601FB14FF090
:10279000804300221A64FDF7C1FE884B984240F244
:1027A0005182874B012498428CBF4FF000734FF049
:1027B00080737A49734A0C60D2F8000120F04070AF
:1027C0001843C2F80001BDE8F84000F099BC1F2989
:1027D00000F28A816B4AD2F8143123F4F85343EAA9
:1027E0000424C2F81441F8BD4B1EB3F5004F80F02D
:1027F00075816449D1F80031B4FA84F4C4F11F0240
:1028000023F0407444EA0264C1F80041F8BDB1F518
:10281000007F80F05D815B4AD2F80C3123F4FF33F6
:1028200023F4807343EA0424C2F80C41F8BD654BDD
:10283000984200F0D08200F26881634B984200F029
:102840007683624B984200F04783A3F57033984239
:1028500000F0ED8241F212714F48BDE8F840FFF7F9
:10286000A3BBB1F5007F80F02781464AD2F81C3126
:1028700023F4FF3323F4807343EA0424C2F81C4199
:10288000F8BDB1F5007F80F018824FF0804641F628
:102890007133356C3364FDF73DFE3B4B72689842F3
:1028A00040F29983394B984240F29E83384B9842CC
:1028B00040F29E83374B984240F29E8340F69A61E5
:1028C0003548FFF771FB4FF040724FF080414B6885
:1028D00023F0407313434B600DB100230B64294A6E
:1028E000D2F8083123F4FF3323F4807343EA04243D
:1028F000C2F80841FDF7C6FD294B1B68590605467D
:1029000040F1F880274A4FF0804354681E6C41F62E
:1029100071321A64C4F301445B68002C00F0A68194
:10292000022C00F02B8140F69A611B48FFF73CFB1C
:102930004FF040724FF080401B4943681B4F23F01B
:1029400040731343022C0CBF0A463A46954243603B
:1029500040F2A980164B174A174911609D4240F278
:10296000A580002C40F0A2804FF08C434FF48052A1
:102970001A60002E3FF487AE4FF0804300221A64A5
:10298000F8BD00BF00400E4080A812010051250292
:1029900080F9370300A24A04487901004000C84387
:1029A0003C300E4000300E400024F40080D543023D
:1029B00080F0FA0200010046020202000048E8012D
:1029C0000090D00380161800A0091400800616009D
:1029D000B1F5007F80F09380C14AD2F8183123F41A
:1029E000FF3323F4807343EA0424C2F81841F8BD8E
:1029F000BC4B984240F06D81022900F21D81B84B1A
:102A0000D3F84421D10735D5B54AD2F8303123F077
:102A100003031C43C2F83041F8BDB34B984200F0A9
:102A2000B18103F5A113984200F0D980AF4B9842D1
:102A300000F0808141F24871AD48BDE8F840FFF7F1
:102A4000B3BAAC4B984200F02381AB4B984240F0B4
:102A50008E80032904D941F27571A548FFF7A4FAC5
:102A60009F4AD2F85C3123F4403343EA0444C2F86D
:102A70005C41F8BDD3F840215203C5D5D3F84021BD
:102A80005203F7D4C0E741F28A719948BDE8F84093
:102A9000FFF78ABA994B9A4A1A604FF088434FF46D
:102AA00080521A6072E6954B954A1A604FF088433F
:102AB0004FF480521A605CE741F28F618C48FFF757
:102AC00073FAD2E641F283718948FFF76DFACFE5D8
:102AD0004FF4B4518648FFF767FA9CE640F6C221EE
:102AE0008848FFF761FA84E641F273618048FFF796
:102AF0005BFA6FE6844A1368002BFCD102E741F2CF
:102B000087617B48FFF750FA66E7804B984207D011
:102B10007F4B984200F0B7817E4B98427FF49AAE8B
:102B2000B4F5004F00F2818200F08482651CB5FA92
:102B300085F5C5F11F051F2D00F282820123AB40F0
:102B4000013B9C4204D040F6B5316E48FFF72CFAA9
:102B5000634BD3F84421D4073CD5614AD2F82031E5
:102B600023F4E04343EA0535C2F82051F8BD41F2B1
:102B70007B715F48BDE8F840FFF716BA664B9D428F
:102B800040F2B282654B9D4240F2B28203F5B70338
:102B900003F558639D423FF6C6AE0622604B03EB39
:102BA000C2035B791A06C5E65B4B9E4240F29A82ED
:102BB0005A4B9E4240F29A8203F5B70303F55863DD
:102BC0009E423FF6BDAD0625554B03EBC5056B791F
:102BD0001A06BCE5D3F840215007FBD4BDE7A1F1AC
:102BE0000F03702B00F2D181651CB5FA85F5C5F194
:102BF0001F061F2E00F2BD810123B340013B9C4202
:102C000004D040F6B5313F48FFF7CEF9344BD3F846
:102C10004421D407C5F11B0509D5314AD2F8283122
:102C200023F4405343EA0535C2F82851F8BDD3F8E0
:102C300040215006FBD4F0E741F252712C48FFF7D7
:102C4000B3F9DCE600231C46B3E5364B9E4240F266
:102C50004182354B9E42B7D9344B9E4240F23C8272
:102C6000334B9E423FF66CAD0325ADE72D4B9D42A5
:102C700040F22E822C4B9D4240F232822B4B9D42E1
:102C800040F22C822A4B9D423FF64DAE032285E74F
:102C9000032904D941F26D711548FFF785F9104AEF
:102CA000D2F85C3123F003031C43C2F85C41F8BD49
:102CB000154A1368002BFCD131E541F296610C48AE
:102CC000FFF772F9E1E541F25D610948FFF76CF940
:102CD000DDE441F262710648BDE8F840FFF764B9EF
:102CE00000400E40A009140090171C0090071A0025
:102CF00048790100B8003200B900340000010044F6
:102D00000202020044780100C800C64300362C00CD
:102D100080262E0080002A00C0CF6A00809FD50048
:102D20001079010080A812010051250280F93703B3
:102D300000A24A04082900F23781651CB5FA85F51E
:102D4000C5F11F051F2D00F2FF800123AB40013BA1
:102D50009C4204D040F6B531C848FFF725F9C84B6E
:102D6000D3F84421D10708D5C54AD2F8283123F039
:102D700003031D43C2F82851F8BDD3F84021520681
:102D8000FBD4F1E7082900F2E580651CB5FA85F56A
:102D9000C5F11F051F2D00F2F2800123AB40013B5E
:102DA0009C4204D040F6B531B448FFF7FDF8B44B6F
:102DB000D3F84421D70709D5B14AD2F8283123F0F6
:102DC000300343EA0515C2F82851F8BDD3F8402175
:102DD0005606FBD4F0E7B1F5004F00F2378100F062
:102DE0003A81651CB5FA85F5C5F11F051F2D00F266
:102DF00038810123AB40013B9C4204D040F6B53101
:102E00009E48FFF7D1F89E4BD3F84421D10709D54E
:102E10009B4AD2F8203123F0F00343EA0515C2F8AB
:102E20002051F8BDD3F840215207FBD4F0E7B1F5AB
:102E3000004F00F2428100F04581651CB5FA85F52E
:102E4000C5F11F051F2D00F2EA800123AB40013BB5
:102E50009C4204D040F6B5318848FFF7A5F8884B6E
:102E6000D3F84421D20709D5854AD2F8203123F47A
:102E7000702343EA0545C2F82051F8BDD3F840213C
:102E80005707FBD4F0E7082900F20281651CB5FA68
:102E900085F5C5F11F051F2D00F2E9800123AB4028
:102EA000013B9C4204D040F6B5317448FFF77CF8F2
:102EB000734BD3F84421D70709D5714AD2F8203192
:102EC00023F4407343EA0525C2F82051F8BDD3F836
:102ED00040215607FBD4F0E7B1F5004F00F28E8099
:102EE00000F09180651CB5FA85F5C5F11F051F2D11
:102EF00000F2DD800123AB40013B9C4204D040F650
:102F0000B5315E48FFF750F85D4BD3F84421D40744
:102F100008D55B4AD2F8203123F00F031D43C2F8D5
:102F20002051F8BDD3F840215007FBD4F1E7022926
:102F30006FD8534BD3F84421D6073FF565ADD3F88E
:102F400040215503FBD45FE54FF496714D48FFF7E0
:102F50002BF8FAE641F22A714B48FFF725F8B4F551
:102F6000004FFFF412AF40F6AF314448FFF71CF8B2
:102F70000BE74FF496714348FFF716F83CE64FF421
:102F800096714048FFF710F807E741F239713E4863
:102F9000FFF70AF8B4F5004FFFF426AE40F6AF3164
:102FA0003648FFF701F81FE641F21B713648FEF77D
:102FB000FBFFB4F5004FFFF4C0AE40F6AF312F4831
:102FC000FEF7F2FFB9E60022304B03EBC2035B7958
:102FD0001A06FFF77CBB00222C4B03EBC2035B7984
:102FE0001A0672E42A46EFE70122F5E70222EBE730
:102FF0000222F1E70322E7E70322EDE741F2D6617F
:103000002148FEF7D1FF40F6AF311C48FEF7CCFF58
:1030100068E741F2B9611C48FEF7C6FF89E74FF443
:1030200096711848FEF7C0FF0FE741F20471164889
:10303000FEF7BAFF40F6AF311048FEF7B5FF75E571
:103040004FF496710F48FEF7AFFF77E541F2E56167
:103050000D48FEF7A9FF40F6AF310848FEF7A4FF80
:10306000BFE64FF496710748FEF79EFFC1E64FF4A6
:1030700096710448FEF798FF10E700BF44780100FE
:1030800000400E40A8780100487901001079010045
:1030900041F2F4611748FEF787FFB4F5004FFFF4E3
:1030A000F5AE40F6AF311448FEF77EFFEEE64FF482
:1030B00096711248FEF778FF1CE741F2A8610D48AF
:1030C000FEF772FF40F6AF310B48FEF76DFFB4E636
:1030D000224663E5254677E5022575E502225DE592
:1030E00001225BE504256FE5042257E505256BE524
:1030F000052253E54879010044780100A8780100D1
:1031000070B5FDF70BFA2A4B1B685B064AD5294BB5
:103110005B68C3F30143022B2DD0274B274A284D70
:10312000284ED5F80C410344A2FB03231B0E1CBF01
:1031300003F1FF331B0234401C43C5F80C41D5F8A2
:103140001C11214A214C314002440B43A4FB0212C2
:103150001B49C5F81C31D1F81831920E18BF02F185
:10316000FF3223F4FF3318BF120223F480731A4393
:10317000C1F8182170BD164C164B0444A3FB04344F
:10318000E40D18BF04F1FF3421461348FFF756FA47
:1031900021461248FFF752FA21461148BDE8704017
:1031A000FFF74CBA0F4A1368002BFCD1AFE700BF02
:1031B0003C300E4000300E407FF0FA02893BE6556D
:1031C00000400E40FF00FEFFFFA14A04B5FA9BEE4F
:1031D000FF2C31016BCA5F6B404105005041070075
:1031E00060410900C800C6430B4B0C48D3F80C11D2
:1031F000014041F44071C3F80C11D3F8181101409B
:1032000041F44071C3F81811D3F81C21024042F474
:103210004072C3F81C21704700400E40FF00FEFFC3
:1032200008B500F00F0001380B2800F28D80DFE8B0
:1032300000F013212F3B434B8B557A637106524BA1
:10324000D3F8F03103F00703052B00F29A80DFE892
:1032500003F0868496908C884B4BD3F8943003F01F
:103260000703023B052B00F28480DFE803F0767A47
:103270007E867884444BD3F8800000F00700022853
:1032800005D0042867D001280CBF0320012008BD09
:103290003D4BD3F8843003F00703013B032B70D878
:1032A000DFE803F05F636559374BD3F88C0000F01B
:1032B00007000228E5D108BD334BD3F8880000F0A1
:1032C00007000228DDD108BD2F4B1B6F13F003034D
:1032D00027D0012B0CBF0920012008BD2A4BD3F8B1
:1032E0005C3103F03003202B37D0302B3BD0102B38
:1032F0000CBF0720012008BD234BD3F8603103F039
:103300000303022B0DD0032B29D0012B0CBF04206B
:10331000052008BD1C4BD3F8643103F00303022BD6
:10332000F1D1072008BD184BD3F85C3103F44013EA
:10333000B3F5001F11D0B3F5401F14D0B3F5801FB3
:103340000CBF0720012008BD41F689110F48FEF788
:103350002BFE002008BD0C2008BD042008BD0A205B
:1033600008BD032008BD082008BD022008BD0620B6
:1033700008BD052008BD0E2008BD0D2008BD0B208E
:1033800008BD012008BD00BF00400E404879010083
:1033900038B500F47813B3F5D01F00F080811CD944
:1033A000B3F5381F00F0098136D9B3F5581F00F086
:1033B00083815DD9B3F5681F00F0C681B3F5781F2E
:1033C00000F0CB80B3F5601F00F0FF8141F269513E
:1033D000C548FEF7E9FD002038BDB3F5402F00F0E9
:1033E000A8812DD8B3F5802F00F0DC806DD9B3F51E
:1033F000002F00F0DA81B3F5202F7AD0B3F5C02F7B
:10340000E4D1FDF78BF8B94BD3F81831C3F3082397
:103410000133B0FBF3F038BDB3F5001F7ED03FD9C8
:10342000B3F5201F00F0CC81B3F5281F00F0888091
:10343000B3F5101FCAD1AE48BDE83840FEF7B6BD9F
:10344000B3F5901F60D037D9B3F5B01F00F01A81E3
:10345000B3F5C01F67D0B3F5A01FB7D1A448FEF7DE
:10346000A5FDA24BD3F8303103F00303D84038BD9B
:10347000B3F5481F00F0D980B3F5501F78D0B3F5ED
:10348000401FA3D19B48FEF791FD984BD3F82831FC
:10349000C3F301331A1D01239340B0FBF3F038BD91
:1034A000B3F5E01F00F09380B3F5F01F8ED1924882
:1034B000BDE83840FEF77ABDB3F5602F64D0B3F5B0
:1034C000801F83D18D4B186838BD73B1B3F5003FB1
:1034D0007FF47CAFFDF722F8844BD3F80831C3F3B7
:1034E00008230133B0FBF3F038BDBDE83840FDF7E9
:1034F00015B8FDF713F87D4BD3F80431C3F3082357
:103500000133B0FBF3F038BD7B48FEF74FFD774B3E
:10351000D3F82031C3F30343D84038BD7548BDE824
:103520003840FEF743BD7448FEF740FD6F4BD3F8BB
:1035300020210123C2F303129340B0FBF3F038BD06
:103540006D48FEF733FD694BD3F820210123C2F308
:1035500002329340B0FBF3F038BD0546FCF7DEFFC6
:1035600004462846FEF76AFF0130B4FBF0F038BD90
:103570006348FFF755FE013807284FD8DFE800F011
:10358000344E4E4B4E4E483E5E48FFF749FE0728EC
:1035900098D00928A9D040F65C515348FEF704FDA5
:1035A000002038BDFCF7BAFF504BD3F80C31C3F301
:1035B00008230133B0FBF3F038BD4F48FEF7F6FCAB
:1035C0004A4BD3F82031C3F30123D84038BD4948D2
:1035D000FEF7ECFC454BD3F828210123C2F301127E
:1035E0009340B0FBF3F038BD0020404BD3F85C3182
:1035F000C3F301430133B0FBF3F038BDFCF78EFF9A
:103600003A4BD3F80031C3F3042303FB0000ECE78B
:103610003A4B1868E9E7FCF7BDFFE6E7324840F6A9
:103620009351FEF7C1FC0020DFE73748FFF7F8FDB4
:10363000013807281FD8DFE800F0041E1E1B1E1EDD
:10364000180E0020294BD3F85C3103F0030301333B
:10365000B0FBF3F038BDFCF761FF244BD3F8003129
:10366000C3F3042303FB0000ECE7244B1868E9E7ED
:10367000FCF790FFE6E71C4840F69351FEF794FCF8
:103680000020DFE71C48FEF791FC184BD3F82021FF
:10369000012302F00F029340B0FBF3F038BD154850
:1036A000FEF784FC114BD3F82821012302F003021A
:1036B0009340B0FBF3F038BD1448FFF7B1FD043878
:1036C00006282FD801A353F820F000BF1D370000B3
:1036D0001737000025370000C534000025370000EB
:1036E00025370000113700004879010000400E40E6
:1036F000050024000300200002001E00100000202E
:10370000B900340006000E00B80032000A7B360013
:103710003D4B186838BD3D4B186838BDBDE8384092
:10372000FCF738BF40F6BD513948FEF73DFC00209C
:1037300038BDFCF7F3FE374BD3F81431C3F3042341
:103740000133B0FBF3F038BD3348FFF769FD0238B1
:10375000092823D801A353F820F000BF95370000B3
:103760008D3700001D370000173700009D3700001F
:103770009D3700009D3700009D3700001137000085
:1037800085370000FCF706FF400038BDBDE8384033
:10379000FCF714BFBDE83840FCF718BF40F646619F
:1037A0001B48FEF701FC002038BDFCF7B7FE194BA3
:1037B000D3F81C31C3F308230133B0FBF3F038BD59
:1037C0001648BDE83840FEF7F1BB1548FFF728FD65
:1037D0000438062810D801A353F820F01D37000044
:1037E00017370000F9370000C5340000F937000032
:1037F000F93700001137000040F6EF510448FEF79A
:10380000D3FB002038BD00BF1400002008000020BA
:103810004879010000400E400C7F3A00040022006D
:103820000B7C38002DE9F843C24B9842054600F066
:10383000BD8128D9C04B984200F0BC8111D9BF4B43
:10384000984200F08D8003F5F40303F590539842FD
:1038500000F0A881BA4B984226D1BA4BD3F8B86091
:1038600081E0B94B984200F08280B84B984200F05A
:10387000B481A3F53703A3F5D853984214D1B14BC3
:10388000D3F8A8606FE0B24B984200F09E8140F2FE
:103890009581B04B98426ED0AF4B984200F0998121
:1038A000AE4B984200F04181002641F61A61AC48C7
:1038B000FEF77AFBDFF8E882AA4BD8F80070C8F868
:1038C0000050D3F8943003F00703023B052B00F2BD
:1038D0009380A54B1C68002CFCD1721C00F0BC80AE
:1038E000A24B9D4273D09A4B9D426DD0A04B9D42FE
:1038F00051D09C4BD3F8943003F00703023B052BC7
:103900006AD8BD423DD8974B1E61D3F8943003F07E
:103910000703023B052B00F2A580FCF7FFFD8A4B55
:1039200098422CD9854B012498428CBF4FF00073EC
:103930004FF080738F498B4A0C60D2F8000120F061
:1039400040701843BD42C2F800011FD9854BD3F81F
:10395000943003F00703023B052B49D8BDE8F883F8
:10396000784BD3F8BC60731E0333A3D99DE7754B26
:10397000D3F8AC60F7E7734BD3F89860F3E7002314
:10398000D8E70121284600F05BFABCE701210020BE
:1039900000F056FADAE726F0C06646F08066714B12
:1039A000D3F8943003F00703023B052BA9D900207C
:1039B0000146704B6B4A1860D2F8003123F0407317
:1039C0000B43C2F800319CE726F0C066E7E726F01B
:1039D000C06646F00076E2E75B4B9D42E7D9574967
:1039E00001208D428CBF4FF000714FF08071E0E7F5
:1039F000BDE8F843FFF784BB4FF0804941F67133CF
:103A0000D9F84040C9F84030FCF784FD5A4BD9F84A
:103A10000420984240F21B81584B984240F220818A
:103A2000574B984240F21A81564B984240F21A8105
:103A300040F69A614A48FEF7B7FA4FF040724FF0ED
:103A400080414B6823F0407313434B600CB100235B
:103A50000B64FFF7C9FB3CE741F62B614048FEF7DA
:103A6000A3FA3DE7FCF70EFD85420646C0F0DA807A
:103A7000D8F80030B342C0F0CD809D4204D041F66A
:103A800059613748FEF790FA3F4B1B685B0640F1DF
:103A9000BC803E4A4FF080435168D3F8409041F6D5
:103AA00071321A64C1F301485B68B8F1000F00F08D
:103AB0009880B8F1020F00F0BB8040F69A61284868
:103AC000FEF772FA4FF040724FF08040224943688F
:103AD000DFF878C023F040731343B8F1020F0CBF36
:103AE0000A4662469642436016D9294B294A2A491A
:103AF00011609E4213D9B8F1000F10D14FF08C43E2
:103B00004FF480521A60B9F1000F3FF406AF4FF046
:103B1000804300221A6400E7204B1F4A1A604FF0CE
:103B200088434FF480521A60EDE7064BD3F88C605F
:103B300019E700BFC0EA2101006CDC020090D0034D
:103B4000007E5603B081E00F0048E80180D54302B3
:103B500000093D00405DC6000024F400C0CF6A00AB
:103B60004879010000400E406028C84380841E0050
:103B700040420F004000C84380A8120100512502B6
:103B800080F9370300A24A043C300E4000300E405A
:103B900080F0FA0200010046020202000001004427
:103BA00008000020354BD3F8C060DCE6334BD3F877
:103BB000A060D8E6314BD3F8B460D4E6304B9842DD
:103BC00003D0304B98427FF46FAE2C4BD3F880601B
:103BD000C9E62A4BD3F89C60C5E6284BD3F8B06001
:103BE000C1E6294B9E4241D9284B9E423CD9284BE5
:103BF0009E423DD9274B9E423FF65FAF0322264BA4
:103C000003EBC2035B791A065EE7244A1368002BB4
:103C1000FCD13EE741F658612148FEF7C5F9D8F8D6
:103C200000302AE741F657611D48FEF7BDF91FE74E
:103C30001C4B9E4220D91C4B9E421BD903F5B70357
:103C400003F558639E423FF638AF0622D7E70022BD
:103C5000114B03EBC2035B791A06F0E60222F7E789
:103C60000122F5E70322F3E70122C8E74246C6E74F
:103C70000222C4E70522C2E70422C0E7B081E00FB8
:103C800040420F0080841E0080A8120100512502CE
:103C900080F9370300A24A0410790100C800C64326
:103CA00048790100C0CF6A00809FD500F0B583B08D
:103CB00005460F46052872D8DFE800F0031820609B
:103CC000656A4C4E4C494FF400704FF480749FB9B4
:103CD0004A490866D1F890302342FBD122B1474AC5
:103CE000D2F890300342FBD103B0F0BD444E4549B9
:103CF00080204024002FEBD000270BE0002976D055
:103D00003E4B5B6AC3F30113012B50D03E4E3F493B
:103D100004240027394B1C660B68002BFCD0002ABA
:103D2000E2D03368002BFCD0022DDDD1002FDBD098
:103D3000324B5A6A02F00302032A04D05A6AD3F8BB
:103D400090205002FBD542F21A113148FEF72CF9AF
:103D50002A4A08231366D2F890305907FBD4274D1E
:103D6000D5F890301B07FBD442F291112848FEF79A
:103D70001BF92C663368002BFCD0B5E7254E26498D
:103D800002200124A3E7254E2549202010249EE788
:103D9000244E25494FF400604FF4806497E71C4897
:103DA00042F28E0103B0BDE8F040FEF7FDB81F4BB4
:103DB000DB6B5C0513D51148436A03F00303032B47
:103DC00003D0114E11490424A4E7436A0E4E0F4953
:103DD00023F0300343F02003436204249AE742F2C5
:103DE0009D010B480192FEF7DFF8019AE3E70424F6
:103DF00008206DE72412C8432012C84300400E403B
:103E00001C12C8431812C8430C12C8430812C843F6
:103E1000487901000412C8430012C8431412C84371
:103E20001012C8432C12C8432812C84300300E4059
:103E3000EFF3108072B6704700B962B6704700BFEA
:103E40003D4B1B685B0634D470B50D46002831D05D
:103E50003A4B1B7813B13A4B98421CD9364B1A682F
:103E6000510625D41B685A0632D5364C636813F4C4
:103E7000403F1DD0344BD3F80031FCF74FFB4023BB
:103E800023611DB12C4B1B685B0645D50021BDE8A5
:103E90007040FEF7CDB9284B1A68560608D41B6847
:103EA0005C063ED5274B5B68C3F30143022B14D15C
:103EB00070BD7047244BD3F80041FCF72FFB1F4B1C
:103EC0001B78C4F3042404FB0000002BC3D1C5E716
:103ED0001E4A1368002BFCD1C7E71B4BD3F80041E7
:103EE000FCF71CFBC4F30424154B04FB00049C42A8
:103EF00006461BD830460221FEF79AF9114B1022D4
:103F00001A61002DD4D03C331B685806D0D40F4A18
:103F10001368002BFCD170BD0C4A1368002BFCD138
:103F2000B4E70A4A1368002BFCD1BBE740F2E15129
:103F30000748FEF739F8DDE73C300E40600300200B
:103F4000002D310100300E4000400E40C800C64335
:103F5000AC79010010B4244A4AF6E853546B536319
:103F6000936FDB07FCD4136C13F0030322D01F4ABA
:103F70000121834211601AD0032B02D1431E012B71
:103F80001FD9194A936FDB07FCD4136C164923F031
:103F90000303034313648B6F13F00103FBD1003061
:103FA000124A18BF0120012C106000D14B635DF84C
:103FB000044B70470028E1D10C4B5DF8044B1860AE
:103FC0007047094A4FF40023D362936FD907FCD49A
:103FD000136C054923F0030343F0010313644B6A98
:103FE0001A03FCD5CDE700BF00300E40B40AC6432B
:103FF0002DE9F04F87B0A0F5E163B3F5966FCDE9F9
:1040000001213FD8C74AC84BD2F86851DB6CB0F5E4
:10401000E16FC3F3017906464FEA092128D1C5F3C0
:1040200007234FF41672EDB24FF496644FF0000B75
:104030004BEA010140F201108142A6EB040400F0BA
:10404000D180B1F5817F26D340F20120814200F07A
:10405000C58040F28880B1F5407F00F0C78040F213
:104060000130814240F0CA80AE49D1F878711DE03C
:104070002B0E4FF49662C5F307454FF4E1644FF001
:10408000010BD5E7A94840F63F21FDF78DFF002041
:1040900007B0BDE8F08F012974D0C0F0BD80B1F544
:1040A000807F40F0AB809F49D1F86C714FEA176870
:1040B000C7F30747A8EB070104FB01F103919A49F5
:1040C000D1F8EC10C1F3012A4BEA0A2140F20110A9
:1040D000814200F08F80B1F5817F60D340F20120F2
:1040E000814277D065D9B1F5407F00F0A68040F2DB
:1040F0000130814240F094808A49D1F878014FEA3A
:10410000106CC0F30740ACEB000104FB01F1B1FB04
:10411000F2F10144A3EB050E04FB0EF4B4FBF2F440
:1041200025449D4232D88C4530D388422ED8039BFB
:10413000B3FBF2F21744474528D8019B73B17A4B81
:10414000DB6D23F4FE4323F0020343EA0525B6F5B5
:10415000E16F754B18BF45F00205DD65029B002B32
:1041600077D1012094E7B1F5007F47D16D49D1F8AF
:104170007071C7F30728FFB2A8EB070104FB01F138
:1041800003919CE76749D1F87471F2E740F68D21FD
:104190006648FDF709FF002007B0BDE8F08F012950
:1041A00053D04ED3B1F5807F3AD15E49D1F86C013E
:1041B000A5E7B1F5007F33D15A49D1F87001C0F3BA
:1041C000072CC0B2ACEB000104FB01F1B1FBF2F132
:1041D00001449FE75349D1F87801F0E75149D1F8FC
:1041E0007871C6E74F49D1F874715FE74D49D1F84E
:1041F00070715BE74B49D1F8740180E740F6041118
:104200004A48CDE90432FDF7CFFE002303939846D8
:104210001F46DDE9043252E74249D1F86C71A8E744
:1042200040F604114148CDE90432FDF7BDFE0021FE
:104230008C460846DDE904326CE73A49D1F8700152
:104240005DE73849D1F86C01B9E73649D1F8740116
:10425000B5E7344BB9F1020FD3F880314DD0B9F145
:10426000030F48D0B9F1010F14BFDBB2C3F307232A
:104270001B0313F4702F32D12B482A4CC26E22F448
:1042800070421343C366BAF1020FD4F8803145D0AF
:10429000BAF1030F40D0BAF1010F14BFDBB2C3F380
:1042A00007231B0313F4702F2AD11F4C0298D4F854
:1042B000EC2022F470421343C4F8EC30636E8F425A
:1042C00038BF0F4623F4FF73E72F23F0010328BF05
:1042D000E72743EA0B0343EA47076766D8E640F659
:1042E00093011248FDF760FE104840F69C21FDF74F
:1042F0005BFE0020CCE61B0EBAE7C3F30743B7E72B
:1043000040F69F010948FDF74FFE084840F6A421FA
:10431000FDF74AFE0020BBE61B0EC2E7C3F30743CE
:10432000BFE700BFB081E00F00300E40AC79010064
:1043300038B53B4B1A6FD96CCC0702F007020BD58E
:10434000012A55D9132850D9143813288CBF4FF49B
:104350007F414FF4EE410CE0D96CCD073FD4012AE8
:1043600053D9DB6C2F4840F6E221FDF71DFE6FF0BC
:10437000FF012B482C4AC36C2C4C23F47F430B4386
:10438000C364C16C1388C26CC1F3032101312833AB
:1043900001EB810503EB5303B3FBF5F3013B072B63
:1043A00022F0EE6228BF072342F4801242EA036340
:1043B000B4F90020C364002A10DB036D4C082832D6
:1043C00004EB410102EB520223F07004B2FBF1F363
:1043D000072B28BF072344EA0313036538BDDB6CB2
:1043E000DC07BFD5012ABDD808E04FF44C51C0E727
:1043F000DA6CD20709D5DB6CDB07B3D527288CBF75
:104400004FF47F414FF4EE41B3E70928EDD90A3864
:1044100009288CBF4FF47F414FF4EE41A9E700BF5C
:1044200000300E40AC7901005A0300205C030020EC
:10443000F8B50389C82B044600F2C680A2889A42C8
:1044400000F2BC80B4F90C30C82B00F3B180637863
:10445000012B00F09380022B6ED0E38842F21072A1
:10446000934200F29A804A2B05D9B3F5FA7F5AD2CB
:104470004FF0805500E000255749B4F90C70CB6C23
:10448000A088564E564A23F0405323F00103002FD4
:10449000A8BF43F001032B43CB64D1F8EC3043F4C5
:1044A0004073C1F8EC30CB6E308043F08073CB6644
:1044B0001368002B50D113680B6F23F007030B67B1
:1044C000FFF736FF474B48492589B4F90C20A088EF
:1044D0001A800D80FFF72CFFA37B002B64D0012BEB
:1044E0001DD040F644014148FDF75EFD0122114612
:1044F0006088FFF77DFD054638B3374A6078D36B97
:1045000043F48063D363FFF725FDA37A384AA3F110
:104510002003B3FA83F35B0913602846F8BD2E4BE2
:10452000344A9A65E2E740F6C315AB428CBF4FF0C0
:1045300040554FF000559FE7A3880A2B8DD940F6D0
:10454000BB112A48FDF730FD87E740F6FA112748EE
:10455000FDF72AFD2846F8BD13682BB9234840F61D
:104560000131FDF721FD30881B4A136F23F007034B
:1045700043F004031367FFF7DBFEA3E7A388C82B10
:104580007FF66BAF40F6B6111848FDF70DFDE388D6
:1045900042F2107293427FF666AF40F6C3111348A1
:1045A000FDF702FDE3885EE70B4B134A9A659DE732
:1045B00040F6B2110D48FDF7F7FC48E740F6B1119F
:1045C0000A48FDF7F1FC3DE74FF41B610748FDF792
:1045D000EBFC238932E700BF00300E405803002077
:1045E0008009C6435C0300205A030020AC79010017
:1045F0009407C643372110B77740205738B50828AD
:1046000004460D4602D831F0011303D08221094837
:10461000FDF7CAFC04EB4400000100F1804000F506
:10462000082000F1806300F1C0604FF001121A60B1
:10463000056038BD107A01002DE9F0470828814651
:104640000C46154698469DF820709DF8246031D997
:10465000C4212E48FDF7A8FC84EA050333F00303C8
:1046600032D1072D04F0030436D8AB000F22DFF857
:10467000B4E0DFF8B4C0264826499A40CEF80020BE
:10468000032209FA03F99C4002FA03F3CCF80090E4
:1046900003600C602049214B294489000120A84077
:1046A000C1F80080C1F88070C3F82404C1F8006329
:1046B000BDE8F0874FF6FF730B41DB07C8D584EAEE
:1046C000050333F00303CCD0C6211048FDF76CFC82
:1046D000072D04F00304C8D9A5F108039B000F229D
:1046E000DFF848A0DFF848E0DFF848C00C499A40FE
:1046F000CAF80020032209FA03F09C4002FA03F3EF
:10470000CEF80000CCF800300C60C3E7107A01004E
:1047100008840844088408468020C41000800840AB
:104720000C84084600840844008408460484084435
:10473000048408460C8408442DE9F0410828044606
:104740000D46174698462ED940F21B114948FDF7F1
:104750002BFC7FBB072D4FEA44063FD833191B01C2
:1047600003F1804303F50823A9005A680F2088400D
:1047700022EA000207FA01F10A435A608FB9B8F140
:10478000000F4AD1082C52D94FF477713A48FDF7FF
:104790000BFC3A4B344424012344012202FA05F570
:1047A0001D60BDE8F0814FF6FF730B41DE07CBD5EE
:1047B000002FCFD0B8F1000F24D0082C42D940F2FE
:1047C0000B412D48FDF7F0FB66002D4B321912010D
:1047D00013440122AA40072D1A60BFD931190901DB
:1047E00001F1804101F5082105F1804008388B680E
:1047F00080000F22824023EA020307FA00F01843E8
:104800008860BBE7082C23D94FF477711A486600FB
:10481000FDF7CAFB3219194BD9E7082C21D940F210
:104820000B411548FDF7C0FB3444154BB3E74FF679
:10483000FF732B41DB07ACD44FF477710E48FDF7C3
:10484000B3FBA6E74FF6FF732B41D807BCD4B6E7FE
:104850004FF6FF732B41D907D6D566003219074BA7
:10486000B5E74FF6FF732B41DA07D8D53444044B34
:1048700091E700BF107A0100187701000C8008440E
:104880000C80084638B5164B984204460D4620D099
:1048900003F5806398421CD003F58063984218D0DA
:1048A00003F58063984214D003F58063984210D0DA
:1048B00003F5806398420CD003F53053984208D03A
:1048C00003F58063984204D040F2A6210548FDF725
:1048D0006BFBEB435B0003F00A03E360E56038BD6C
:1048E00000000140747A01002DE9F8438B4B984297
:1048F00004460D4600F0998003F58063984235D058
:1049000003F58063984200F0908003F5806398423D
:104910002CD003F58063984228D003F58063984239
:1049200024D003F53053984220D003F58063984299
:104930001CD040F2D7217A48FDF736FB40F2064101
:104940007748FDF731FB002340F6AA6041F20501EC
:10495000744AE06023606160A3606361E364A26401
:1049600023666367A367E367A3651FE0002340F640
:10497000AA6041F205016B4AE06023606160A360B8
:104980006361E364A26423666367A367E367664BBE
:1049900000229C42A26507D003F500639C4203D02D
:1049A00003F580639C4201D10023E365AB7C1BB11E
:1049B000236843F080432360EB7C1BB12B7D43F0E5
:1049C0008003A3656B7B298AEA89D5F80890D5F81E
:1049D00004802F7B0B4313436360B9F1000F16D0A3
:1049E000B8F1000F07D1514B9C420CBF50485148C1
:1049F000FEF7CEFC8046202F52D02AD9402F0CD073
:104A0000602F2CD1B9EB980F65D804264CE04FF4F9
:104A100095714348FDF7C8FAE2E7474BA3FB08232B
:104A2000B9EB930F6CD806263EE0002340F6AA604F
:104A300041F205013B4AE06023606160A36063616D
:104A4000E364A26423666367A367E36700232365C7
:104A50009DE727B9B9EB181F44D8102624E040F28F
:104A600071112F48FDF7A0FA6B7D1BB1236843F449
:104A700080332360AB7DEA7D297E28781B071205F1
:104A800003F0E04302F4E00213432366636F23F074
:104A900030036367636F0B436367E060BDE8F883CF
:104AA000B9EBD80F25D8082606FB09F35E0806EBFC
:104AB0004816224AB6FBF3F6203EF600964226D868
:104AC00022681E4B22F060022260226833401743A6
:104AD00027606361C8E740F26B111148FDF764FA83
:104AE0000426E1E74FF4AE710D48FDF75DFA10269C
:104AF000DAE740F261110A48FDF756FA0826D3E7D3
:104B00004FF4B3710648FDF74FFA0626CCE740F2A2
:104B100087110348FDF748FAD2E700BF00000140C3
:104B2000747A0100F9FF010000040140000801400F
:104B30005041070040410500ABAAAAAAF8FF7F0038
:104B4000F8B5644B984204460D4600F0AF8003F57B
:104B50008063984234D003F58063984200F0A680C9
:104B600003F5806398422BD003F58063984227D0E9
:104B700003F58063984223D04FF44D715648FDF7FA
:104B800013FA564B9C4208D003F580639C4204D034
:104B900040F206415048FDF707FA002340F6AA60AC
:104BA00041F205014E4AE06023606160A3606361E9
:104BB000E364A26423666367A367E367A3651DE0FC
:104BC000002340F6AA6041F20501454AE0602360F7
:104BD0006160A3606361E364A26423666367A367A3
:104BE000E367404B00229C42A2655CD003F5006362
:104BF0009C4258D003F580639C4254D02A8AA87BFB
:104C00002368297D42F00102002843EA02030CBF19
:104C100000224FF4806213432360236809B143F0FC
:104C20000053AA7C23601AB1EB7C43F08003A36598
:104C30002B7BD5E9016743F4805363606FB33EB9C2
:104C4000294B9C420CBF29482948FEF7A1FB064688
:104C5000013E7F00B6FBF7F63602F30DDB0523B10C
:104C600040F28B211C48FDF79FF96B7B66610BB10D
:104C70001023E3606B7D1BB1236843F48033236012
:104C8000AB7DEA7D29781B07120503F0E04302F4AF
:104C9000E00213432366E160F8BD40F26E210E4846
:104CA000FDF782F9CBE70023E365A7E7002340F691
:104CB000AA6041F205010A4AE06023606160A360D6
:104CC0006361E364A26423666367A367E367002309
:104CD000236586E700000140747A0100004001402E
:104CE000F9FF0100000401400008014050410700A5
:104CF0004041050010B52D4B9842044642D003F5C3
:104D0000806398421CD003F5806398423AD003F543
:104D10008063984214D003F58063984210D003F565
:104D2000806398420CD003F53053984208D003F5C5
:104D30008063984204D040F206411D48FDF734F9E3
:104D4000002340F6AA6041F205011A4AE0602360A0
:104D50006160A3606361E364A26423666367A36721
:104D6000E367154B00229C42A26508D003F500635F
:104D70009C4204D003F580639C4200D010BD002308
:104D8000E36510BD002340F6AA6041F20501094A1F
:104D9000E06023606160A3606361E364A2642366F2
:104DA0006367A367E36700232365DAE70000014038
:104DB000747A0100F9FF01000004014003691B0639
:104DC000FCD5C069C0B2704703695B06FCD541637E
:104DD000704700BFD0B1C9B170B50D4606460D4948
:104DE0000D4C00E06168284611F05AFB28B1246898
:104DF000002CF7D16FF0050070BDD4E90223C6E99D
:104E00000023C6E90230237C337470BD6FF00F00BD
:104E1000704700BF38DF0100CCAA0700704700BF11
:104E2000D0E90120101A704772BB69B370B50C4607
:104E300020460121154603F00FFED42002F0D2FADD
:104E40000646F0B1D422294611F0FFF80523A6F852
:104E5000D23031462046F46103F00EFE20460C4964
:104E600003F00EFE20460B4903F040FE04222046CC
:104E7000094903F05DFE2046084903F01DFE28465F
:104E800070BD4FF0FF3070BD6FF00500704700BF80
:104E9000B95A0000194F0000355A0000195A000095
:104EA00038B504460D46002103F0E6FD20460021FA
:104EB00003F0E6FD2046002103F018FE0022204604
:104EC000114603F035FE2046002103F0F5FDA5B1A3
:104ED000686918B1FFF7A2FF00236B61E86A18B197
:104EE00002F014F90023EB62286A18B102F090FE78
:104EF00000232B62284602F009F9204605F0D8F875
:104F0000054620B120460422024903F011FE28463E
:104F100038BD00BF355A0000C0B110B50446406925
:104F200018B1FFF77BFF00236361E06A18B102F05C
:104F3000EDF80023E362206A18B102F069FE002355
:104F400023622046BDE8104002F0E0B8704700BF81
:104F50002DE9F04F87B0002900F03C81B1F8D23044
:104F6000042B0C46064675D9636A002B00F0CC80F2
:104F7000E56AD4F81880002D00F0C4812F68B6F8D7
:104F800064B0474500F29081002301939A4641F2B4
:104F9000280305F5815215F803E002F10803A14644
:104FA00002935C46B346BEF1040F33D1BAF1000F51
:104FB00040F0D081002C00F0CD81D9F81870029E0D
:104FC000AB68BB4240F230826B689F4200F2FB82CA
:104FD000DC1B4FF6FE72944200F38582A4B2002CD3
:104FE00040F0838296F800E0BB4203D8AA68D31A47
:104FF0001C44A4B2D9F824301B1B2744C9F8243020
:10500000BEF1040F4FF00103C9F818704FF0000A09
:105010000193CFD0EB68002B00F0D881BAF1000FDC
:1050200040F0CE8305F581530833D046002C00F0C4
:105030009181BEF1040FF9D801A252F82EF000BF01
:10504000895200006152000015520000E551000035
:10505000BB4F0000D1F8B820002A00F0F582B6F866
:1050600064A0BAF1000F4CD04FF0050B2C3354F86C
:10507000230011F027FAB4F8D020B4F8D23085B26A
:10508000AD1A5545A8BF5546032B87B2A9B200F00B
:105090009F8040F2A4804FF00008002953D0708E0A
:1050A000B6F864C0400085B22C33654528BF65461C
:1050B00054F823308D4203EB020928BF0D462A46DF
:1050C00043464946304606F0D3FB421C2DD0B4F887
:1050D000D020B4F8D230B0BB05EB02091FFA89F931
:1050E000AAEB050A4F45A4F8D0901FFA8AFA30D0EF
:1050F000BAF1000F00F04B83042B00F2C982002D9F
:10510000B4D10223019366E06069002800F0F080CA
:10511000FFF786FE002840F3EB80994B99499A48A7
:1051200040F29D4211F042F822E7B6F864306D0873
:105130002BB1B6F866300F2B01D8012DBFD8B4F8CB
:10514000D020B4F8D230A4F8D02097424FF0000518
:10515000D2D15A1C92B2042AA4F8D22000F2BE8303
:1051600002F12C0154F82110002940F0B7839A1C59
:1051700092B2052A25D002F12C0154F82110002901
:1051800040F02C83DA1C92B2052A1AD002F12C01CD
:1051900054F82110002940F021831A1D92B2052AEB
:1051A0000FD002F12C0154F82110002940F0168391
:1051B0004FF6FF72934204D1D4F8C030002B40F078
:1051C0000C83A4F8D2B005230022A4F8D0208FE7E6
:1051D000984662E70191019807B0BDE8F08F4FF063
:1051E00002085AE72968EA68288A11F801CB013ACF
:1051F000002840F0B380ACF10906F6B2172E00F299
:10520000AD80624F27FA06F6F60740F1A780EA6004
:105210002960FFE62A68288A1678002840F0BA80BC
:10522000A6F10901C9B2172940F21681E968039174
:1052300002F1010C0139CDE9041C297D544F07EB23
:10524000C10149680978B14200F01881431C2B82E2
:10525000284413788375049BEB60059B2B60D9E68B
:105260002A7D4B48298A50F83220525C002A40F0AF
:10527000E780E9682A824FF002021A70002900F0E4
:10528000A5804FF0020ED1E62B681A783C2A00F078
:1052900019822F2A08BF012200F01582EA68013323
:1052A000013A2B60EA60B5E6A7EB08074FF6FE73FC
:1052B0009F4200F31382BFB2002F40F01182636A55
:1052C00008EB0702DB1BA26163625A460123BB465F
:1052D0004FF0000A0193002A7FF459AE636A002B55
:1052E0007FF479AF6069FFF79BFD00283FF773AF4C
:1052F00021463046FFF7D4FD00230193019807B003
:10530000BDE8F08F636A4FF6FE72934200F2158299
:105310009AB2002B40F013821D4608EB05025B1B7E
:10532000A261012263620192D9E7BBF86430C4F341
:105330004F0433B1BBF866300F2B02D8012C00F2BA
:105340005E8196F800E0BEF1040F82464FF0000443
:105350007FF460AE4C465E46636AC0E70C4F2E7D1C
:1053600007EBC60677683E5C664500F0EC80EA60B5
:10537000296083F800804AB34FF0000E56E600BF64
:105380000CAE070084AE0700BCAE0700130080001F
:10539000B8AF0700A44F297D07EBC10149680F781A
:1053A000B7427BD0093EF6B2172E72D9E968561C77
:1053B00001390F28059604917FF648AF83F80080E5
:1053C0000A46E96005992960002AD5D15E464C4617
:1053D0002B68A769BB4281D9DB1B4FF6FE72934253
:1053E00040F3F5814FF6FF75738EB6F864205B00CD
:1053F0009BB2934228BF13469D4228BF1D462A46B2
:1054000000233946304606F033FA421C00F057823A
:10541000636A00287FF463AFA7692F445B1B0122F6
:105420006362A76101925AE72F8A6A8A9742C0F0A5
:10543000D58000222A829246327096462B60E9E59A
:105440002B681878904200F0BB8041F228024FF0A0
:10545000000E05F802E021E7EF680397734F27FA83
:1054600001F1039F02F1010C013FC907CDE9047C62
:105470007FF5E3AEEF60C5F800C0CBE5039A83F893
:105480000080571EEF60C5F800C0002F7FF474AF96
:105490009CE7664F27FA06F6F70787D541F22807FB
:1054A0000323FF28EB5505EB070600F27A816875A8
:1054B00028444FF0000C80F816C00B781178994200
:1054C00002F10102EB6800F0668115F807E0A5F82B
:1054D00010C0013BBEF1040FEB602A607FF49AAD6F
:1054E000D9F818706CE54FF6FF74BBF83220BBF8A2
:1054F0006410520093B28B4228BF0B469C4228BFD7
:105500001C46A4B2002322463946584606F0B0F99C
:10551000431C09D0824696F800E0002840F07482CF
:105520006B68D9F818705FE5BBF86430C4F34F04BA
:10553000002B3FF406AFBBF866300F2B3FF601AFF0
:10554000012CDFD8FDE6013080B22882EA602960B4
:105550003B5C002B7FF45EADD9F82C60002E00F090
:10556000A681334B1B6806F11607002B00F03A8129
:10557000304B1968002900F035812F4A1368002B41
:1055800040F330814FF0000807E0136808F101088C
:10559000984580F22781274B196851F8281003920B
:1055A000384610F07DFF039A0028EED1204B40468C
:1055B0001F684FF4805206F12701B847708241E11D
:1055C000013129826AE61D4B1D491E4840F2AC524A
:1055D00010F0ECFD6B68D9F81870F9E4BBF83230C4
:1055E000BBF864105B009CB28C42A2EB070292B243
:1055F00028BF0C46273794422F4428BF144639460B
:1056000001232246584606F033F9411C3FF48DAE83
:10561000824696F800E0002840F0F6812B8A234469
:105620002B8201230193BEE4B8AF07001300800072
:10563000B0070020B4070020AC0300200CAE070028
:1056400034AF0700BCAE0700CA6A002A7FF407AD7A
:105650004A69002A3FF403AD117C89077FF5FFAC4E
:1056600004F1C405526828460C2101F0A1FB28462C
:1056700010F028FF092840F23681B4F8D230B6F88D
:1056800064A0BAF1000F00F08280042B7FF6ECAC2E
:10569000A369002B7FF468AC6069002800F07F816B
:1056A000FFF7BEFB002840F37A81C64BC649C748C6
:1056B00040F29D4210F07AFDB4F8D230042B3FF650
:1056C00053AC1EE5002241F228014FF0010E05F80F
:1056D00001E02A756B60A5F810E0DFE54FF6FF7773
:1056E000738E5B009BB25B4528BF5B469BB29F42BB
:1056F00028BF1F4600233A464146304606F0B8F818
:10570000431C08D08246B6F864B0002840F073818C
:10571000D4F81880D3E5B6F864107F08002900F0AB
:10572000DF80B6F866300F2B01D8012FE2D84FF09A
:10573000000B8246CDF804B029E44FF6FF72738E59
:10574000B6F864105B009DB28D4228BF0D469542AD
:1057500028BF154600232A464146304606F088F801
:10576000431C06D0636A002840F04281D4F81880B8
:10577000D3E5B6F864306D082BB1B6F866300F2B60
:1057800001D8012DE6D80022636A0192A7E5042B17
:105790003FF67EAFB5E4012115F807E02982013B11
:1057A00098E6884B8A49894840F23A5210F0FEFC4C
:1057B00088492B7D288A2A6801EBC303596876E65D
:1057C000BEF1040F5E464C467FF402AE86E59DB204
:1057D000002D7FF409AE636A1FE60422A4F8D220EC
:1057E0001346F1E4384610F06DFE40F6E678404589
:1057F00040F285802A234A20CDE90330112306F1A7
:105800002708122274490593404610F0FAFB059BC5
:1058100039461A4606F1390010F0F3FB049B6F4934
:1058200033441846072210F0ECFB039B334400225C
:10583000404683F8272010F045FEB0F5803F07462C
:1058400071D27782D9F8183029686A68A96041F264
:1058500028084FF0040E0020994205F808E005EBF7
:1058600008061F4628822A607FF6AAABD41A4FF694
:10587000FE718C425FDCA4B2002C5ED1934203D354
:10588000A9688A1A1444A4B2D9F824202344121B0C
:10589000C9F81830BEF1040F4FF00103C9F82420F5
:1058A00001937FF4B7AB002C7FF487AB52E5454BF7
:1058B0004B49464840F2063210F078FC51E6B6F803
:1058C00064306D08002B3FF409ADB6F866300F2B3D
:1058D0003FF604AD012D3FF692ADFFE4134673E4AD
:1058E0000191636AFBE4C430032220443D4910F077
:1058F00088FB3D4AB4F8D230C4E92E25BFE63846CD
:1059000010F0E0FD11283FF675AF384610F0DAFDD3
:1059100040454BD94FF480534FF48151CDE90331C9
:1059200040F6E7736BE7274B3049284840F23F3297
:1059300010F03CFC85E74FF6FF74BBF83230BBF843
:1059400064205B009BB2934228BF13469C4228BF51
:105950001C46A4B2224600233946584605F088FF6B
:10596000421C07D015F808E0002850D16A68D9F821
:10597000183083E7BBF86430C4F34F042BB1BBF895
:1059800066300F2B01D8012CE4D815F808E0BEF1E1
:10599000040F3FF4DFAC82460024FFF73BBB2146F7
:1059A0003046FFF77DFA0323019314E4384610F0E4
:1059B00089FD00F11902039200F1390203460492B5
:1059C0001DE700BF0CAE070084AE0700BCAE0700A9
:1059D000E4AE0700B8AF070008AF07001CAF070030
:1059E000FCAE07009CB20700F8AD070024AF07002B
:1059F0000022019273E45A464FF0000BCDF804B038
:105A0000002A7FF4C4AA69E40024FFF7CCBA8246D6
:105A10000024FFF7C8BA00BF50B108B50346002202
:105A2000084683F828201946FFF792FA002008BD9F
:105A30000020704738B50D460446A8B190F82830CC
:105A40000133DBB2042B80F828302DD0436923B119
:105A500001462846FFF77CFA08B9002038BD2846E1
:105A600006F012FF002038BD0146284603F004F876
:105A70002146284603F004F82146284603F036F86C
:105A800022462146284603F053F82846214603F0D3
:105A900013F8284604F00CFB0028DED02846042228
:105AA000044903F045F8D8E701462846FFF7F8F91E
:105AB000002038BD355A00002DE9F04F87B005466B
:105AC0000C4616467BB9B2B1118970B1204602F07E
:105AD0004DFE6B69002B46D0304602F099F800204D
