:1000000000000820253701005137010009040000D5
:1000100051370100513701005137010051370100BC
:1000200051370100513701005137010051370100AC
:10003000513701005037010051370100050200001F
:10004000513701005137010051370100B103000061
:10005000513701005137010051370100513701007C
:10006000513701005137010051370100513701006C
:1000700051370100DD030000513701005137010005
:10008000513701005137010051370100513701004C
:10009000513701005137010051370100513701003C
:1000A000513701005137010051370100513701002C
:1000B000513701005137010051370100513701001C
:1000C000513701005137010051370100513701000C
:1000D000513701005137010051370100413501000E
:1000E00051370100513701005137010051370100EC
:1000F00051370100513701005137010051370100DC
:1001000051370100513701005137010051370100CB
:1001100051370100513701005137010051370100BB
:1001200051370100513701006D4601005137010080
:10013000513701005137010051370100513701009B
:10014000513701005137010051370100513701008B
:1001500010B5054C237833B9044B13B10448AFF301
:1001600000800123237010BD300300200000000038
:1001700058AB0C0008B5034B1BB103490348AFF360
:10018000008008BD000000003403002058AB0C00C4
:10019000154B002B08BF134B9D46A3F5803A002159
:1001A0008B460F461348144A121A17F088F80F4B63
:1001B000002B00D098470E4B002B00D09847002012
:1001C000002104000D000D48002802D00C48AFF3B8
:1001D000008016F0E9FF2000290000F02BF816F04F
:1001E000CFFF00BF00000800000008200000000052
:1001F0000000000030030020F8FA0020000000009A
:1002000000000000024A136801331360704700BF0A
:100210004C030020034A116813685B1A8342FBD326
:10022000704700BF4C030020014B1868704700BFA7
:100230004C03002000B587B04F4B504C0FCB02ADA4
:1002400085E80F004FF0804301265E64D4F8B0309B
:100250004B494C4A4C483343C4F8B030D4F8E030F2
:1002600043F00803C4F8E0300B6843F480530B609C
:10027000D4F8E03023F00803C4F8E030D4F8B0300C
:1002800023F00103C4F8B030136843F4F84313605B
:1002900010F0ECF828468DF8096011F0D9FA3B48C7
:1002A0000EF0D2FD32463146042010F023FB3848D0
:1002B0000FF092FE374AA2FB00239B09013BB3F1EA
:1002C000807F09D2344A35485360E0240021072357
:1002D00080F823409160136013F0E6FA13F062F99E
:1002E000012013F057F92E4817F09AF82D4817F00F
:1002F00097F801212C480EF047FE00230122082127
:10030000022011F00BFC002301220921022011F030
:1003100005FC01240822114600230220CDE90044F7
:1003200011F07CFB0922114600230220CDE9004494
:1003300011F074FB042211460023022011F0EEFBA1
:100340000023184604220C2111F0E8FB2246214626
:10035000002010F0CFFA154B4FF400510822C3F8DB
:1003600080111960C3F880211A6014F075FE16F030
:100370007BFA15F087F8FAE78889010000400E4003
:1003800034400540A4310E4000A24A04006CDC0257
:1003900070000200D34D621010E000E000ED00E0BC
:1003A000C48A0100C88A010000550A0000E100E08B
:1003B00010B5094BD3F81C44C3F82444E20507D414
:1003C000A30500D410BD0120BDE8104013F0EABA27
:1003D000002013F0E7FAF3E70080084010B5094B5E
:1003E000D3F81C44C3F82444E20507D4A30500D481
:1003F00010BD0120BDE8104013F0D4BA002013F066
:10040000D1FAF3E7008008401EF0040F0CBFEFF3B1
:100410000880EFF30980714600F000B82DE9F04F35
:1004200087B0324C0646A36B0193636B02937368EB
:100430000493D6E9067332682D48A56A0592D6E979
:1004400002BAD6E9049803930E4616F0E9FF29484C
:1004500016F0E6FF059A2848114616F0E1FF049BC6
:100460002648194616F0DCFF5946254816F0D8FFF5
:100470005146244816F0D4FF4946234816F0D0FFD1
:100480004146224816F0CCFF3946214816F0C8FFF5
:100490000399204816F0C4FF1F4816F0C1FF2946F3
:1004A0001E4816F0BDFFE16A1D4816F0B9FF216B2A
:1004B0001C4816F0B5FFE16B1B4816F0B1FF2A0689
:1004C0000ED42B0407D4194816F0AAFF3146184859
:1004D00016F0A6FFFEE70199164816F0A1FFF2E715
:1004E0000299154816F09CFFEBE700BF00ED00E015
:1004F00098890100A8890100B8890100C889010014
:10050000D8890100E8890100F8890100088A010002
:10051000188A0100288A0100388A0100448A0100F3
:10052000548A0100648A0100748A0100A48A0100CF
:10053000AC8A0100948A0100848A010070B5438965
:100540000E2B04461BD9C37B0D461BB991F83430E2
:100550000133C373606803788689D90706D5012BF8
:1005600021D1437813B983785E2B32D0082E0BD07B
:10057000B6F5C16F03D195F831301B071ED4204664
:1005800006F0A4F9002070BD95F831301A07F6D5B1
:100590000E21204606F018F90028F0D12946204601
:1005A00004F020FBEEE706220C4916F055FE002869
:1005B000DCD1637B43F008036373D7E70E21204649
:1005C00006F002F90028DAD12946204602F0BAFEE8
:1005D000D8E7637B43F010036373C7E7D08A010059
:1005E0002DE9F0470546BDF820000C461746994610
:1005F00005F0EAF90E218046204606F0B7F818BB50
:10060000666849460622A6F80C80304616F033FE8E
:10061000B01D3946062216F02EFE95F83030062B16
:1006200005D12146AB692846BDE8F0471847084B7D
:100630000849094840F2331216F0F2FE2146AB6930
:100640002846BDE8F04718476FF00100BDE8F08785
:10065000D88A0100508B0100848B01002DE9F843FA
:100660000546002800F0A9808946002900F09C80FA
:1006700017464FF49A714FF420723620984606F0D0
:1006800093F90646002870D04389B3F59A7F74D356
:10069000032F21D099F80630002B69D04B4B1868F6
:1006A0007468C9F800004FF49A720021204616F0D1
:1006B00006FE01232370637095F83030A370D9F8DB
:1006C000000005F085F9042F606020D0FB1F012B8E
:1006D0001DD9032F1DD115E099F80530032BD9D072
:1006E00074684FF49A720021204616F0E8FD012349
:1006F0002370637095F83030A370D9F8000005F0CE
:1007000067F9606099F80530043B012B01D86B68EC
:10071000E36005F12A0304F12002934295F82A30A0
:10072000237795F82B30637705D204F11C0305F18C
:100730002E02934229D3EB6AC4F81E3063236FF074
:100740007D0284F8EC3084F8EF3084F8ED205320FB
:1007500035210122032384F8F27084F8EE0084F836
:10076000F01084F8F120A8F800303046BDE8F88396
:1007700016F06EFE154B186092E7154B154916489A
:1007800040F2727216F04CFE82E795F82C30A37797
:1007900095F82D30E37795F82E3084F8203095F8D1
:1007A0002F3084F82130C9E7094B0C490A4840F240
:1007B0006A724E4616F034FED7E7054B08490648E4
:1007C00040F269722E4616F02BFECEE75803002049
:1007D000E88B0100A08C0100848B0100808C01005B
:1007E000608C010010B582B0002877D0416A0029E2
:1007F0007DD08B6A00225C1C4A820BD0A2F177323A
:100800001E33A2FB03235B09B3F5803F5FD203B91C
:1008100001238B82CB6A5A1C38D0424A1E33A2FB7A
:1008200003235B09B3F5803F4DD2002B76D1012322
:100830004B810A6BCB81541C2CD03A4C1E32A4FB4A
:1008400002425209B2F5803F34D2002A60D101221F
:100850008A810A821BBBCB7933B30B6A00934A6A45
:10086000019222B9CA69134043F0807301934B7916
:100870000A2B04D000230A224A718B710B811C3190
:1008800001AB6A4605F042FE02B010BD0A6B4B890F
:10089000541CD2D18A899342DDD3002ADBD00023B5
:1008A0004B81CB79002BD8D10B7F1A0628D4FF239C
:1008B0000093D4E74FF6FF7293428A810A82CAD12D
:1008C00000234B81EDE74FF6FF734B81B1E74FF605
:1008D000FF738B82CB6A5A1C9FD1D7E7124B134907
:1008E000134840F2154216F09BFD02B010BD0E4BAE
:1008F00010490F4840F2174216F092FD02B010BDA9
:10090000BF2B8CBF6FF07F434FF6FF730093A6E7BA
:1009100092B29A428A810A82C1D99CE79BB24B81EA
:1009200087E700BF89888888E88B0100B48B0100C5
:10093000848B0100D08B010038B5184DEA78002374
:100940000446C0E9083312B1154BDB6883622B798A
:1009500013B1134B1B6901E0A36A5B086A79E36278
:1009600012B10F4B5B6903E0A36AC3EBC303DB085F
:100970002363AB790A69E2613BB1094B986905F0E1
:1009800027F801232062E37100E0E371EB7923B1E2
:10099000034BD86905F01CF8606238BD601A00206E
:1009A000681A00202DE9F04F87B0466A7379032B4F
:1009B000824604D0002303227271B37133810DF19A
:1009C0001603032231465046FFF748FE81460028B1
:1009D00000F0C281BDF81650476805F10408B8F16F
:1009E000440F05F1020B07F1F00406D9CB4BCC49BB
:1009F000CC4840F29A5216F013FD6B1C9BB2392280
:100A000062551FFA8BF10222E2548B18442B03919A
:100A1000ADF816B007D9C449C04BC24840F2AE5237
:100A200016F0FEFC03990222EB1C1FFA88FB6254AD
:100A30009BB20BF106024021442AE154ADF8168026
:100A400006D9B64BB649B74840F29A5216F0E8FCC0
:100A50006B1D9BB23221042204F80B10E25405F105
:100A600006081FFA88F8F069ADF8168004F0B0FFA8
:100A700008F10403442B834606D9A84BAB49A94887
:100A800040F2B75216F0CCFCEA1D92B24FEA1B605E
:100A900005F1080304F808009BB205F10A084FEAC3
:100AA0001B40A0541FFA88F805F109014FEA1B22E8
:100AB000E25489B208F10503442B04F801B0ADF803
:100AC000168006D9954B9649964840F29A5216F0F0
:100AD000A7FC05F10B0305F10C0B37221FFA8BFB6A
:100AE0009BB204F80820BBF1430F4FF00302E2541D
:100AF000ADF816B000F2248105F10D081FFA88F850
:100B00000123B8F1430F04F80B30ADF8168000F262
:100B1000FC8005F10E031FFA83FB0393BBF1430F27
:100B20004FF0030304F80830ADF816B000F2E5808A
:100B300005F10F031C2205F1100104F80B2089B206
:100B40009AB2ADF8163043294FF0FF03BDF80CC040
:100B5000A35400F2A18001F1F0003B185B4203F0C6
:100B6000030303F10308B8F1050FC5F1330E38BFD5
:100B70004FF005081FFA8EFEC5F13402C64592B249
:100B8000C0F0E880002B00F0E38005F1110B4FF07E
:100B90000008012B1FFA8BFB04F801800DD005F132
:100BA000120E1FFA8EFE032B04F80B8003BF1335C1
:100BB00004F80E801FFA85FBF346D21A92B2034462
:100BC00090080025012807EB030EFD503DD90228AF
:100BD000CEF8045039D00328CEF8085035D0042878
:100BE000CEF80C5031D00528CEF810502DD0062864
:100BF000CEF8145029D00728CEF8185025D0082850
:100C0000CEF81C5021D00928CEF820501DD00A283B
:100C1000CEF8245019D00B28CEF8285015D00C2827
:100C2000CEF82C5011D00D28CEF830500DD00E2813
:100C3000CEF8345009D00F28CEF8385005D01028FF
:100C4000CEF83C5018BFCEF8405022F003039BB2C0
:100C50000BEB03059A42ADB21AD06A1C92B2002384
:100C6000442A635514D0A81C80B24428A3540FD042
:100C7000EA1C92B2442A23540AD0281D80B2442888
:100C8000A35405D00535ADB2442D235418BF635588
:100C9000A1EB0C01423189B2F03189B2484605F02E
:100CA00033FF234BCDF800A01868224A432349465E
:100CB0000BF0A2FB0446484605F008FEB379FF2B73
:100CC00015D00133DBB2092BB37110D8C3EB43123B
:100CD00003EB8203DB00184A9BB203F2F313A2FB7F
:100CE00003235B092046338107B0BDE8F08F14234E
:100CF0002046338107B0BDE8F08F084B0F49094803
:100D000040F2A65216F08CFB12E7044B0B49054843
:100D100040F2A65216F084FBFBE600BFE88B010010
:100D2000408D0100848B0100848D0100C08D010085
:100D300050030020DC920100D34D6210FC8D0100B5
:100D4000074B0849084840F2A65216F069FBD3E663
:100D50008B4632E70D4680E74FF0FF34AEE700BF29
:100D6000E88B0100FC8D0100848B01002DE9F0412E
:100D700082B0466A72790023062A0546F36103D0E1
:100D80000622B371338172714FF420724FF49A715D
:100D9000362005F009FE0746002800F0B6807B8962
:100DA000B3F59A7FC0F0D780B379002B00F0CE80E6
:100DB0007A4B18687C6830604FF49A7200212046A4
:100DC00016F07DFA01232370637095F83030A3701C
:100DD000306804F0FDFD05F12A03606004F1200293
:100DE000934295F82A30237795F82B30637706D213
:100DF00004F11C0305F12E029342C0F0BC80EB6AA3
:100E0000C4F81E304FF0010C352084F8F1C084F88E
:100E1000F2C084F8F0007B68632284F8EC2084F848
:100E2000EF206FF07D084FF0530E3921022284F835
:100E3000ED8084F8EEE083F8F31083F8F4202A8D37
:100E400083F8F620D943120A4FF01C084FF0FF0E2A
:100E500083F8F5203724032211F0030183F8F9C049
:100E600083F8F82083F8FA2083F8FB8083F8FCE00D
:100E700003F1F00C83F8F7404FF0000273D0012922
:100E800083F8FD2058D0032983F8FE2040F08280AB
:100E900083F8FF2034244FF0100E01F1FD020020F2
:100EA0009850C1F137011A4488B204320021342825
:100EB000C2E90011C2E90211C2E90411C2E9061136
:100EC000C2E90811C2E90A110EF134020BD0352C27
:100ED0000EF1350E0CF8021005D0362C0CF80E1061
:100EE00018BF83F833114FF49A71384605F00CFEA1
:100EF0002B4A2C4B10682C4ACDE90053394643232A
:100F00000BF08EFB384605F0E1FCB379FF2B17D0D0
:100F10000133DAB2052AB27112D84FF47A739340D2
:100F20009BB2224A03F2F313A2FB03235B090020C6
:100F3000338102B0BDE8F08136244FF00E0EACE7ED
:100F400078230020338102B0BDE8F08116F080FAEA
:100F5000124B18602EE7164B1649174840F2727272
:100F600016F05EFA20E7C3F8FD10204603F20112E6
:100F70004FF00D0E9AE795F82C30A37795F82D30A9
:100F8000E37795F82E3084F8203095F82F3084F8E8
:100F9000213037E704464FF00F0E7EE7580300205C
:100FA00050030020D8920100DC920100D34D621062
:100FB000E88B0100A08C0100848B01002DE9F04139
:100FC00082B0002800F03E81476A0646002F00F0FC
:100FD00043817B79012B04D0002301227A71BB71FC
:100FE0003B814FF420724FF49A71362005F0DCFCFF
:100FF0008046002800F023814389B3F59A7FC0F032
:10100000F5807B79032B00F0EB80D8F804404FF497
:101010009A720021204616F052F901232370637062
:1010200096F83030A370386804F0D2FC60607B79A9
:10103000043B012B9CBF7368E36006F12E0204F1B0
:101040001C03934296F82A30237796F82B30637767
:1010500006D204F1200306F12A02934200F2D7805F
:10106000F36AC4F81E3035210122032384F8F010FE
:1010700084F8F12084F8F230D8F80450632384F81F
:10108000EC3084F8EF3053216FF07D0039220223D9
:1010900084F8ED0084F8EE1085F8F32085F8F4303C
:1010A000338D85F8F63032221B0A042485F8F5309A
:1010B00085F8F72085F8F840F86904F089FC3623B4
:1010C0004FEA106C010C020A85F8FE4085F8F9C061
:1010D00085F8FA1085F8FB2085F8FD3085F8FC00CE
:1010E000B86904F075FC020E85F8FF20EA43040A93
:1010F0004FEA104CFF235D4985F8020112F003020C
:101100004FF01C0085F8014185F8083185F800C1D1
:10111000C5F8031105F1F00485F807014FF000034D
:101120006CD0012A85F8093154D0032A85F80A3198
:101130007CD185F80B314FF0280C02F20913002105
:10114000E950C2F12B022B4491B20433002228292A
:10115000C3E90022C3E90222C3E90422C3E906224B
:101160001A6200F128030BD0BCF1290F00F129000D
:10117000E25405D0BCF12A0F225418BF85F8332160
:101180004FF49A71404605F0BFFC394A394B10685C
:10119000394ACDE90063414643230BF041FA044646
:1011A000404605F093FBBB79FF2B17D00133DAB231
:1011B000052ABA7112D84FF47A7393409BB22F4A22
:1011C00003F2F313A2FB03235B093B81204602B029
:1011D000BDE8F0814FF02A0C1A20AEE77823F4E73F
:1011E000BB793BB3264B186838600EE7254B264980
:1011F000264840F2727216F013F902E74FF02B0CFA
:10120000C5F80921614605F20D1319209EE796F8ED
:101210002C30A37796F82D30E37796F82E3084F8AB
:10122000203096F82F3084F821301CE74FF0290C3D
:101230001B2082E716F00CF9114B1860D4E74FF031
:10124000FF34B0E70F4B1249104840F2771216F006
:10125000E7F86FF00F04B9E70A4B0E490B4840F26C
:10126000791216F0DDF86FF00504AFE737030103DC
:1012700050030020D8920100DC920100D34D62108F
:1012800058030020E88B0100A08C0100848B010032
:10129000A08E0100BC8E01002DE9F04F87B0B54B48
:1012A0005E68D6F824B01446BBF1000F09D09BF855
:1012B000043033B153892B2B03D953681A78022A8F
:1012C00005D0204605F002FB07B0BDE8F08F96F888
:1012D00030204AB396F82A00197F8842F1D1012ABA
:1012E00022D9587F96F82B108842EAD1022A1BD0C7
:1012F000987F96F82C108842E3D1032A14D0D87F27
:1013000096F82D108842DCD1042A0DD093F82000E5
:1013100096F82E108842D4D1052A05D093F82110D2
:1013200096F82F209142CCD1586804F051FBDBF89D
:1013300000309842C5D1082200218F4815F0BFFF28
:1013400062892B2ABDD90023CDE9026BB4F808903D
:1013500001934FF0F00A0094264600E0728952454E
:10136000AAEB0201A9EB020308D836681FFA81FA3A
:101370001FFA83F9002EF1D1009CA2E7CA45D6F8E6
:10138000048080F0198118F80A70FF2F504600F091
:1013900013810AF102039BB25345EDD35446611CFD
:1013A000914280F20081404490F801B03B2F00F25E
:1013B000E081DFE817F084003C00DE01E500DE019B
:1013C000DE01DE01DE01DE01DE01DE01DE01DE0125
:1013D000DE01DE01DE01DE01DE01DE01DE01DE0115
:1013E000DE01DE01DE01DE01DE01DE01DE01DE0105
:1013F000DE01DE01DE01DE01DE01DE01DE01DE01F5
:10140000DE01DE01DE01DE01DE01DE01DE01DE01E4
:10141000DE01DE01DE01DE01DE01DE01D000B00012
:10142000A2009400DE01DE01DE018600C200BBF1F5
:10143000040F40F0AA814FF6F9718C429CD8063413
:10144000A4B25D4606274C49C95D00200590B9B994
:101450002A4605A9304605F021FDA8428CD1BBF1F2
:10146000040F00F0AB81BBF1010F40F03D829DF80D
:101470001400424B404A43F827000123D355728998
:101480009442C0F09680A41AA9EB0209A4B21FFAF4
:1014900089F94C45BFF470AF3668002E00F08581A5
:1014A000D6F8048018F80470FF2F204600F08480DE
:1014B000A31C9BB2A342FFF45FAF72896FE78CB2AB
:1014C000DEE7BBF1040F40F01C814FF6F9718C424E
:1014D0003FF652AF0634A4B25D465F46B3E7BBF1B8
:1014E000040F40F017814FF6F9718C423FF644AF7C
:1014F0000634A4B25D460227A5E7BBF1010F40F018
:1015000012814FF6FE7081423FF436AF0334A4B22D
:101510005D465F4697E7BBF1010F40F00D81BAF1E0
:10152000F00F40F04F814FF6FE7081423FF424AF40
:101530000334A4B25D46002785E7BBF1040F40F0F9
:10154000D7804FF6F9718C423FF616AF0634A4B23D
:101550005D46052777E7BBF1040F40F0F6804FF6B4
:10156000F9718C423FF608AF0634A4B25D460327FA
:1015700069E700BF881A0020601A0020681A00205E
:10158000BBF1030F40F2EA800BEB04004FF6FD7154
:1015900088423FF7F1AE02341BFA84F40425A4B26A
:1015A000AB4607274FE7306820B3406890F800B09B
:1015B000FCE6A1453FF676AFC14B1B7863B1C14B4A
:1015C000BF491B680022012B0A7000F0E980022B42
:1015D00006D0032B00F0E280019B002B00F0FB8083
:1015E000002301934FF06C094FF02C0A009B5A899D
:1015F0001E46B4E63B2F00F2BA8001A353F827F051
:10160000BF1400008B1700006F1700005D1700006B
:101610006F1700006F1700006F1700006F170000B2
:101620006F1700006F1700006F1700006F170000A2
:101630006F1700006F1700006F1700006F17000092
:101640006F1700006F1700006F1700006F17000082
:101650006F1700006F1700006F1700006F17000072
:101660006F1700006F1700006F1700006F17000062
:101670006F1700006F1700006F1700006F17000052
:101680006F1700006F1700006F1700006F17000042
:101690006F1700006F1700006F1700006F17000032
:1016A0006F1700006F1700006F1700006F17000022
:1016B0006F1700006F1700006F1700006F17000012
:1016C0006F1700006F1700006F1700004B17000026
:1016D0003917000027170000151700006F170000CA
:1016E0006F1700006F17000003170000F1160000CD
:1016F000754B76497648009C40F2616215F090FE89
:10170000DFE5714B71497248009C40F25D6215F053
:1017100087FED6E56C4B6D496D48009C40F25962DE
:1017200015F07EFECDE5684B6A496948009C40F2A1
:10173000556215F075FEC4E5634B66496448009C2C
:1017400040F24F6215F06CFEBBE55F4B5F496048AD
:10175000009C40F2416215F063FEB2E55A4B5E49CF
:101760005B48009C40F2336215F05AFEA9E54FF049
:10177000000B0BEB04014FF6FD7399423FF7FCADF4
:1017800002341BFA84F4A4B27AE64F4B4F49504816
:10179000009C40F22E6215F043FE92E50123019376
:1017A0004FF0EC094FF06C0A20E7474B4B49484893
:1017B000009C40F29D6215F033FE82E5059804F02E
:1017C00007F956E6404B46494148009C40F25162B9
:1017D00015F026FE75E53A4B009C5B78DDE9026B5F
:1017E000002B3FF46EAD374A65681379052B1CD08A
:1017F000062B2AD0022B7FF464AD9BF80530062B14
:101800007FF45FAD2E4B9B78002B3FF45AAD776A87
:10181000BDF8043090683B8104F0DAF8B8612B69B8
:10182000FB613046FFF7CAFB4BE59BF80530012B07
:1018300026D0033B022B3FF644AD2946706AFFF7E2
:101840007BF83046FEF7CEFF3BE59BF80530DA1E0D
:10185000022A02D9012B7FF434AD736A5A790C2A1B
:1018600004D000220C2159719A711A811D4B304607
:101870001A46194604F04AFE3046FFF777FA20E58B
:101880002946706AFFF758F896F831301B07D8D50B
:10189000756A6B79082B04D00199A97108232981F5
:1018A0006B713046002205F11C0102F0E5F8AB79BE
:1018B000FF2B1CBF0133AB7101232B8101E500BF5E
:1018C000601A0020681A0020E88B0100348E0100A5
:1018D000848B0100548E0100408E01008C8E01002B
:1018E000608E0100D8920100044B05490548009C18
:1018F0004FF4D26215F094FDE3E400BFE88B0100E1
:10190000788E0100848B010038B5446A54B1637944
:101910000A2B0ED8DFE803F0060D0D0707070D0DA3
:101920000D0D070038BD0023A371BDE83840FFF757
:1019300039B80C2B054606D80023A3712846BDE80C
:101940003840FFF713BA044B0449054840F26D32A2
:1019500015F066FDF0E700BFE88B01002C8D01005B
:10196000848B01002DE9F04F87B0002800F015812D
:10197000446A054614B16379082B02D007B0BDE86C
:10198000F08F0A68E3699A42F8D100230C22627151
:10199000A371238104220DF116032146FEF75EFE9A
:1019A0000390002800F0F180BDF81670D0F804A074
:1019B00007F1060B3B1DBBF1440F02930AF1F00641
:1019C00000F2FD807B1C9BB232210422F155F254BF
:1019D00007F102081FFA88F8E069ADF8168003F0F5
:1019E000F7FF08F10403442B814600F2E080FB1C62
:1019F0009BB24FEA19614FEA194C06F80810BDF87E
:101A0000080006F803C07A1DFB1D92B21FFA8BF185
:101A10004FEA192C9BB206F800C0432B4FF0FF0091
:101A200006F80290ADF816B0705400F29B8003F1F6
:101A3000F00C0AEB0C02524202F0030202F1030E18
:101A4000BEF1050FC7F13C0038BF4FF0050E80B264
:101A5000C7F13D01704589B2984667D3B2B107F12D
:101A600008034FF0000E012A9BB206F808E00DD0E3
:101A700007F1090006F803E0034680B2032A03BF1A
:101A800007F10A0306F800E09BB20346891A89B2FF
:101A900062448808002701280AEB020C4AF8027009
:101AA0003DD90228CCF8047039D00328CCF808704E
:101AB00035D00428CCF80C7031D00528CCF8107043
:101AC0002DD00628CCF8147029D00728CCF818702F
:101AD00025D00828CCF81C7021D00928CCF820701B
:101AE0001DD00A28CCF8247019D00B28CCF8287007
:101AF00015D00C28CCF82C7011D00D28CCF83070F3
:101B00000DD00E28CCF8347009D00F28CCF83870DE
:101B100005D01028CCF83C7018BFCCF8407021F0EC
:101B2000030292B2134491429BB21AD05A1C92B251
:101B30000020442AF05414D0991C89B24429B0548E
:101B40000FD0DA1C92B2442A70540AD0191D89B2FF
:101B50004429B05405D005339BB2442B705418BFB0
:101B6000F0544423039EF03399B2304604F0CCFF86
:101B7000174A184B1068184ACDE9005331464323E1
:101B80000AF04EFD304604F0A1FEA379FF2B1CBFE6
:101B90000133A37114232381F0E6104B104911483F
:101BA00040F28B3215F03CFC07B0BDE8F08F0B4BD8
:101BB0000D490C4840F2B75215F032FC17E7074BBD
:101BC0000A49084840F29A5215F02AFCFAE600BF8A
:101BD00050030020D8920100DC920100E88B010044
:101BE000D88E0100848B0100C08D0100408D010062
:101BF0002DE9F04383B0466A7379052B054604D07E
:101C0000002305227271B37133814FF420724FF4B7
:101C10009A71362004F0C8FE0746002800F00A81B9
:101C20007B89B3F59A7FC0F0DD807379032B00F0D8
:101C3000D3807C684FF49A720021204615F03FFB58
:101C400001232370637095F83030A370306803F07F
:101C5000BFFE60607379043B012B9CBF6B68E3603F
:101C600004F1200205F12A03934295F82A302377E4
:101C700095F82B30637706D205F12E0304F11C0290
:101C8000934200F2BF80EB6AC4F81E304FF0030CA1
:101C90004FF0010E352084F8F2C084F8F00084F88B
:101CA000F1E063227B6884F8EC2084F8EF206FF089
:101CB0007D01532284F8ED1084F8EE2039210222B0
:101CC00083F8F31083F8F4202A8D83F8F620D943A3
:101CD000120A4FF01C094FF0FF08372411F00301DE
:101CE00083F8F52083F8F8C083F8FAC083F8F9E0A8
:101CF00083F8FB9083F8FC8003F1F00C83F8F74045
:101D00004FF0000276D0714583F8FD205AD00329A8
:101D100083F8FE2040F0858083F8FF2034244FF0C4
:101D2000100E01F1FD0200209850C1F137011A4454
:101D300088B2043200213428C2E90011C2E902113C
:101D4000C2E90411C2E90611C2E90811C2E90A1187
:101D50000EF134020BD0352C0EF1350E0CF80210BA
:101D600005D0362C0CF80E1018BF83F833114FF441
:101D70009A71384604F0C8FE304B0095186806F199
:101D80001802432339460AF037FB0446384604F06C
:101D90009DFDB379FF2B19D00133DBB2092BB37151
:101DA00014D8C3EB431203EB82031B01244A9BB2FA
:101DB00003F2F313A2FB03235B092046338103B034
:101DC000BDE8F08336244FF00E0EAAE72823204604
:101DD000338103B0BDE8F083B37933B3194B18688E
:101DE000306026E7184B1949194840F2727215F015
:101DF00017FB1AE7C3F8FD10204603F201124FF05B
:101E00000D0E97E795F82C30A37795F82D30E377F2
:101E100095F82E3084F8203095F82F3084F8213052
:101E200034E704464FF00F0E7BE715F011FB054B2E
:101E30001860D5E74FF0FF34ABE700BF5003002038
:101E4000D34D621058030020E88B0100A08C0100E4
:101E5000848B01002DE9F04F87B0446A34B3627976
:101E600022B3A36905930A2A4FF000030546C4E98B
:101E70000633C4E90833C4E90B33A362C4F80E3057
:101E8000C4F8123015D0043A012A12D9994B2846C9
:101E90001A46194604F03AFB63791BB100236371BB
:101EA000A37123812379002B40F0FA8007B0BDE8AD
:101EB000F08F0DF11203072221462846FEF7CEFBD4
:101EC00080460028E2D0BDF81270D8F804B0BB1DDF
:101ED0003A1D442B039302920BF1F00600F2F980B5
:101EE0007B1C9BB236210422F15507F10209F25402
:101EF0001FFA89F90598ADF8129003F069FD09F110
:101F00000403442B824600F2DC80FA1C92B24FEAB2
:101F10001A6106F80910DDF80CE0BDF808C04FEAB8
:101F20001A41B1547B1DF91D4FEA1A229BB21FFAC8
:101F30008EF089B206F80C2043294FF0FF0206F814
:101F400003A0ADF812E0325400F2998001F1F00CD8
:101F50000BEB0C035B4203F0030303F1030EBEF132
:101F6000050FC7F13C0038BF4FF0050E80B2C7F136
:101F70003D02704592B2894665D3A3B107F10801CD
:101F80000020012B89B206F809000CD007F1090ED8
:101F90001FFA8EFE032B705403BF07F10A0106F8E7
:101FA0000E0089B27146D21A92B26344900800279B
:101FB00001280BEB030C4BF803703DD90228CCF839
:101FC000047039D00328CCF8087035D00428CCF838
:101FD0000C7031D00528CCF810702DD00628CCF824
:101FE000147029D00728CCF8187025D00828CCF810
:101FF0001C7021D00928CCF820701DD00A28CCF8FC
:10200000247019D00B28CCF8287015D00C28CCF8E7
:102010002C7011D00D28CCF830700DD00E28CCF8D3
:10202000347009D00F28CCF8387005D01028CCF8BF
:102030003C7018BFCCF8407022F003039BB21944E7
:102040009A4289B21AD04B1C9BB20020442B705488
:1020500014D08A1C92B2442AF0540FD0CB1C9BB2ED
:10206000442BB0540AD00A1D92B2442AF05405D031
:10207000053189B24429B05418BF70544421F0315D
:10208000404689B204F040FD1B4B0095186805AA34
:10209000432341460AF0B0F9404604F017FCF5E648
:1020A000164E3578EDB1013DEDB2357025B9124EC1
:1020B00030680AF009FD35600023237107B0BDE8E0
:1020C000F08F0F4B0F49104840F2B75215F0A8F9A6
:1020D0001BE70B4B0D490C4840F29A5215F0A0F942
:1020E000FEE6074B0A490848FF2215F099F93578B2
:1020F000D9E700BFD892010050030020540300200C
:10210000E88B0100C08D0100848B0100408D01002F
:10211000088D01002DE9F041002800F0818090F841
:102120003130DB07054671D5038D446AB3F5107F66
:1021300069D3002C5CD023793E4E002B40D1342251
:102140000021204615F0BBF8337803BB3A4F3B68BB
:102150002BB13A4B3A493B48E52215F061F90AF0B8
:10216000DFFC386000284ED0427A374942F0200226
:10217000427244220AF06AFB4322334938680AF06B
:10218000EBFB3868314900220AF08CFC33780122DD
:10219000227195F83100134410F00400337008D117
:1021A0006379022B09D00223A07163712081BDE8FD
:1021B000F0812846FEF7DAFD10BB0020BDE8F08173
:1021C00037786FB1013FFFB23770002FB7D1DFF81A
:1021D0006880D8F800000AF077FCC8F80070AEE715
:1021E000164B1B491748FF2215F01AF93778E9E713
:1021F000342003F055FF044628B168620D4E9EE777
:102200002846FFF727FE4FF0FF30D7E70B4B114969
:102210000C484FF43A7215F003F96FF00F00CDE758
:10222000064B0D49074840F2E72215F0F9F86FF028
:102230000F00C3E75403002050030020E88B010087
:10224000E08C0100848B0100D892010099120000FB
:10225000088D01001C8F0100D88E01002DE9F04F80
:1022600089B0164B1D68FDB1DFF854B0DFF854A0FB
:102270006C6AB4B16379A3B1A18A29B1628A0132CF
:1022800092B29142628212D0228A1AB1511E012A60
:10229000218219D0E28922B1511E012AE18100F088
:1022A0005D812D68002DE3D109B0BDE8F08F28468F
:1022B000FFF7D0FD2846FFF72DFFF2E7C8EE00201C
:1022C000D34D62105003002003F0FB02012A00F0FE
:1022D00057810A2B00F05481042BE2D10DF11E032B
:1022E000032221462846FEF7B9F90590002800F0A0
:1022F0001881BDF81E704368039307F10409B9F112
:10230000440F03F1F00606D9AD4BAE49AE4840F29A
:102310009A5215F085F87B1C02229BB207EB02084B
:102320003921F1551FFA88F8F25408EB0203442BC7
:102330002A8D0492ADF81E8006D9A14BA349A2486C
:1023400040F2AE5215F06CF81FFA89F90498FB1CA4
:102350009BB209F10502010A442A06F80810F0545C
:10236000ADF81E9006D9964B9649974840F29A527E
:1023700015F056F87B1D07F1060837221FFA88F87A
:102380009BB206F80920B8F1430F4FF00302F25454
:10239000ADF81E8000F20C8107F107091FFA89F9D8
:1023A0000123B9F1430F06F80830ADF81E9000F292
:1023B000F78007F108081FFA88F80323B8F1430FE4
:1023C00006F80930ADF81E8000F2E28007F109023C
:1023D00007F10A0392B21C219BB206F80810432BA6
:1023E0004FF0FF01ADF81E20B15400F28980039A2E
:1023F00003F1F00C6244524202F00302D01C0528A3
:10240000C7F1390138BF052089B2C7F13A088842BF
:102410001FFA88F89E4657D892B107F10B030021A6
:10242000012A9BB206F80E100AD007F10C0080B208
:10243000032AF15403BF07F10D0331549BB2034645
:10244000A8EB020894441FFA88F8039A4FEA98010F
:10245000002017460129674442F80C002DD90229B3
:1024600078602AD00329B86027D00429F86024D0E6
:102470000529386121D0062978611ED00729B86165
:102480001BD00829F86118D00929386215D00A290B
:10249000786212D00B29B8620FD00C29F8620CD0E8
:1024A0000D29386309D00E29786306D00F29B86347
:1024B00003D01029F86318BF386428F0030292B2E1
:1024C000134490459BB21AD0581C80B20022442875
:1024D000F25414D0991C89B2442932540FD0D81C1C
:1024E00080B2442872540AD0191D89B2442932544A
:1024F00005D005339BB2442B725418BFF2544423C9
:10250000059EF03399B2304604F0FEFADAF8000086
:10251000009543232E4A314609F06EFF304604F001
:10252000D5F9A379FF2B31D00133DBB2092BA3718D
:102530002CD8C3EB431203EB8203DB009BB203F204
:10254000F313ABFB03235B09A28A618A2381531A2D
:10255000012B7FF7A6AE5B102382A2E603F0FB02FD
:10256000012A02D00A2B7FF49CAE2846FFF740FBDD
:10257000A389628A9B1A012BC4BF5B10E38190E69A
:10258000002304226271A3712381A7E61423DBE7F1
:102590000B4B10490C4840F2A65214F041FF15E7CE
:1025A000074B0C49084840F2A65214F039FF00E7E7
:1025B000034B0849044840F2A65214F031FFEBE601
:1025C000E88B0100408D0100848B0100848D0100A7
:1025D000DC920100FC8D0100F8B5264B1C6804B3A9
:1025E0000026012703E0013B2B812468CCB1656AFA
:1025F000002DFAD02B89012BF5D8F6D16B792E81DD
:102600000C2B0FD0062B0DD0012B0FD0082B1AD07E
:10261000032BEAD1AB79012B204628D9FEF7A6FB84
:10262000E3E7F8BD2046FEF7A1FBDEE7AB79052B1B
:10263000204602D8FEF7C2FCD7E7FFF70BFC204686
:10264000FFF768FDD1E7AB79012B03D92046FEF7F0
:10265000C9F8CAE7002205F11C01204601F00CFA76
:10266000AB792F81FF2B1CBF0133AB71BDE7FEF7A8
:1026700099F9BAE7C8EE00202DE9F04F87B0446A17
:1026800034B3627922B3A36905930A2A4FF0000399
:102690000546C4E90633C4E90833C4E90B33A36231
:1026A000C4F80E30C4F8123015D0043A012A12D9F9
:1026B000994B28461A46194603F028FF63791BB147
:1026C00000236371A37123812379002B40F0FA80EA
:1026D00007B0BDE8F08F0DF112030722214628460E
:1026E000FDF7BCFF80460028E2D0BDF81270D8F894
:1026F00004B0BB1D3A1D442B039302920BF1F0066C
:1027000000F2F9807B1C9BB236210422F15507F1BF
:102710000209F2541FFA89F90598ADF8129003F0F6
:1027200057F909F10403442B824600F2DC80FA1CBD
:1027300092B24FEA1A6106F80910DDF80CE0BDF814
:1027400008C04FEA1A41B1547B1DF91D4FEA1A2205
:102750009BB21FFA8EF089B206F80C2043294FF085
:10276000FF0206F803A0ADF812E0325400F299809F
:1027700001F1F00C0BEB0C035B4203F0030303F1DC
:10278000030EBEF1050FC7F13C0038BF4FF0050E38
:1027900080B2C7F13D02704592B2894665D3A3B1BC
:1027A00007F108010020012B89B206F809000CD0BE
:1027B00007F1090E1FFA8EFE032B705403BF07F1B9
:1027C0000A0106F80E0089B27146D21A92B2634429
:1027D0009008002701280BEB030C4BF803703DD940
:1027E0000228CCF8047039D00328CCF8087035D012
:1027F0000428CCF80C7031D00528CCF810702DD0FE
:102800000628CCF8147029D00728CCF8187025D0E9
:102810000828CCF81C7021D00928CCF820701DD0D5
:102820000A28CCF8247019D00B28CCF8287015D0C1
:102830000C28CCF82C7011D00D28CCF830700DD0AD
:102840000E28CCF8347009D00F28CCF8387005D099
:102850001028CCF83C7018BFCCF8407022F003036D
:102860009BB219449A4289B21AD04B1C9BB20020E9
:10287000442B705414D08A1C92B2442AF0540FD0C6
:10288000CB1C9BB2442BB0540AD00A1D92B2442AEE
:10289000F05405D0053189B24429B05418BF7054A2
:1028A0004421F031404689B204F02EF91B4B0095CB
:1028B000186805AA4323414609F09EFD404604F0EE
:1028C00005F8F5E6164E3578EDB1013DEDB23570FF
:1028D00025B9124E30680AF0F7F8356000232371ED
:1028E00007B0BDE8F08F0F4B0F49104840F2B752C8
:1028F00014F096FD1BE70B4B0D490C4840F29A5221
:1029000014F08EFDFEE6074B0A490848FF2214F03A
:1029100087FD3578D9E700BFD89201005003002029
:1029200054030020E88B0100C08D0100848B01005E
:10293000408D0100088D01002DE9F04383B00F4662
:1029400090469946BDF834400646002854D04FF4CE
:1029500020721C210E2004F027F80546002853D0D1
:1029600043891B2B40D920466C6803F02DF8E0808A
:1029700096F83030062B06D0254B2649264840F2E3
:102980006A4214F04DFD4946062204F1080014F095
:1029900072FC06220B9904F1120014F06CFC042264
:1029A0000A9904F10E0014F066FC04220C9904F15B
:1029B000180014F060FC4FF0060E40F6060C174BA2
:1029C0002360042184F804E0617143463A462946B5
:1029D000CDF800C03046FDF703FE284603F076FF31
:1029E000002003B0BDE8F083094B0D490A4840F2CE
:1029F000634214F015FDB6E7054B0A49064840F25C
:102A0000574214F00DFDA2E74FF0FF30E9E700BF99
:102A100020900100D0900100848B0100000108008B
:102A20009C900100D88E01002DE9F04784B056003B
:102A30002D4FB51807EBC50514462B7D012B80469D
:102A4000894634D904EB4401C90001F10C05022B7D
:102A50003D4408F12A0A0BD04FF400642B4652463D
:102A6000494640460094FDF7BBFD04B0BDE8F08741
:102A7000344407EBC404638AB3F58E7F20D8B3F5E2
:102A8000877FE9D3194A04313944012008F104034E
:102A9000CDE900320291039053462A465146404602
:102AA000FFF74AFF0028D7D103232375D4E7104B43
:102AB0001049114840F2EF2214F0B2FC2B7DC1E71F
:102AC00004310A4A0F4408F104030121CDE9003220
:102AD000039102975346094A51464046FFF72CFF9F
:102AE0000028B9D1E0E700BF5C030020AC8B0100F7
:102AF00020900100D48F0100848B0100D08A010056
:102B00002DE9F04184B0254CDFF89880244F04F182
:102B1000F0050026237D73B1052B0CD0628A0132AB
:102B200092B2B2F5967F62820DD2012B09D0032BAF
:102B300019D0042B11D01834AC42EBD104B0BDE84D
:102B4000F081042A15D9206810B103F0BFFE266079
:102B500026751834AC42DDD1F0E702232375183412
:102B6000AC42D7D1EAE7042323751834AC42D1D163
:102B7000E4E7A0680393221D00F12A0300F1040C8E
:102B80000292CDF804801946CDF800C03A461834B8
:102B9000FFF7D2FEAC42BDD1D0E700BF5C030020FE
:102BA000D08A0100AC8B01002DE9F04F85B0039174
:102BB000064601F0DFFF002800F00B8390F830306C
:102BC000062B054640F09280002E00F0B982306856
:102BD000002800F0B582294602F044FA002840F0AF
:102BE000AF82326802F0F003E02B00F0A982CA4CF9
:102BF000237D002B40F0828094F82C00002840F0C8
:102C0000AC804FF00A0C0146834680460346E246FC
:102C1000E64694F84400002840F0B18094F85C0047
:102C2000002840F0C48094F87400002840F0D78059
:102C300094F88C00002840F0EA8094F8A400002862
:102C400040F0FD8094F8BC00002840F0118194F819
:102C5000D400002840F0258194F8EC00002840F0D2
:102C600039814FEA43089A46434404EBC3031B7D72
:102C70003BB140F28512A94BA949AA4814F0D0FBF8
:102C8000326808EB0A0304EBC303C3E90125002102
:102C90005982C2444FEACA0A04EB0A0805230AF122
:102CA0000C00204406220399C8F8085088F8143014
:102CB00014F0E1FA54F80A604FF00009A8F81290F5
:102CC000002E00F065814FF40062039B00923146B4
:102CD00005F12A02284644F80A90FDF781FC3046A7
:102CE00003F0F4FD484605B0BDE8F08F8B4B8E49EC
:102CF0008C4840F2A91214F093FB65E761688A42A0
:102D000000F05781012B00F0A881042B4FF00A0E30
:102D100000F242814FF0000A618A94F82C00F446D8
:102D2000D046D346002800F04281E769BA424FF00E
:102D30000A031CD0012800F09F81042805D8608D6B
:102D4000884202D301464FF0010A0A2B94F844004E
:102D50007FF461AF98B9022360E7E7694FF00A0E8C
:102D6000BA4298469B461946F246F446E2D1276A93
:102D7000BD42DFD14FF0010A4FF0020889E7676BCF
:102D8000BA4200F01D81012800F08181042806D894
:102D9000B4F84200884202D301464FF0020A0A2BDF
:102DA00094F85C007FF43CAF08B903233BE7E76C81
:102DB000BA4200F00E81012800F07581042806D87F
:102DC000B4F85A00884202D301464FF0030A0A2B96
:102DD00094F874007FF429AF08B9042328E7676EDC
:102DE000BA4200F0FF80012800F06981042806D86B
:102DF000B4F87200884202D301464FF0040A0A2B4D
:102E000094F88C007FF416AF08B9052315E7E76F37
:102E1000BA4200F0F080012800F05D81042806D855
:102E2000B4F88A00884202D301464FF0050A0A2B03
:102E300094F8A4007FF403AF08B9062302E7D4F89E
:102E40009470BA4200F0E180012800F0508104281B
:102E500006D8B4F8A200884202D301464FF0060A11
:102E60000A2B94F8BC007FF4EFAE08B90723EEE616
:102E7000D4F8AC70BA4200F0D280012800F044814E
:102E8000042806D8B4F8BA00884202D301464FF0AD
:102E9000070A0A2B94F8D4007FF4DBAE08B90823A4
:102EA000DAE6D4F8C470BA4200F0C380012800F01A
:102EB0003881042806D8B4F8D200884202D30146EB
:102EC0004FF0080A0A2B94F8EC007FF4C7AE08B95B
:102ED0000923C6E6D4F8DC70BA4200F0B4800128B9
:102EE00026D004282FD8B4F8EA0088422BD30A2B26
:102EF0007FF4B7AE4FF0090A4FEA4A0808EB0A031D
:102F000054F83330002B3BD0044B0849054840F2BD
:102F10006D1214F085FA25E05C030020209001007A
:102F20007C8F0100848B0100408F0100648F0100C1
:102F3000D4F8D810B4F8EA00002900F045814045E3
:102F400028BF4FF0090C0A2B7FF48BAEBAF10A0FA1
:102F5000D2D1BEF10A0F40F0F180BCF10A0F00F0AF
:102F60003B81E2464FEA4A0808EB0A094FEAC909E1
:102F700054F8090020B103F0A9FC002344F80930FB
:102F800008EB0A0304EBC30300221A75326878E6E3
:102F9000304605B0BDE8F08F94F82C004FF00008E3
:102FA000F246F446C346414600287FF4BEAE0123F4
:102FB0002FE6A1688D427FF4A5AE8246804668E682
:102FC000A76BBD427FF4DFAE4FF0020A4FF004085A
:102FD0005FE6276DBD427FF4EEAE4FF0030A4FF07F
:102FE000060856E6A76EBD427FF4FDAE4FF0040A18
:102FF0004FF008084DE6D4F88070BD427FF40BAF67
:103000004FF0050A4FF00A0843E6D4F89870BD4225
:103010007FF41AAF4FF0060A4FF00C0839E6D4F8E7
:10302000B070BD427FF429AF4FF0070A4FF00E0891
:103030002FE6D4F8C870BD427FF438AF4FF0080ACD
:103040004FF0100825E6D4F8E070BD427FF447AF9A
:103050004FF0090A4FF012081BE62368B4F81280FB
:10306000002B70D04FF0000C4FF00A0EF246E346F2
:10307000614694F82C0055E6A769B4F82A90002F11
:1030800072D0C145FFF461AEC84684465DE6206B50
:10309000B4F84290002860D0C145FFF480AEC84625
:1030A0004FF0020C7BE6A06CB4F85A90002868D070
:1030B000C145FFF48CAEC8464FF0030C87E6206E86
:1030C000B4F87290002855D0C145FFF498AEC846B8
:1030D0004FF0040C93E6A06FB4F88A9000285ED0FD
:1030E000C145FFF4A4AEC8464FF0050C9FE6D4F8E6
:1030F0009000B4F8A29000284AD0C145FFF4B0AEC9
:10310000C8464FF0060CABE6D4F8A800B4F8BA9065
:1031100000284BD0C145FFF4BCAEC8464FF0070CA9
:10312000B7E6D4F8C000B4F8D290002845D0C14525
:10313000FFF4C8AEC8464FF0080CC3E6F24611E7EC
:103140006FF00F00CFE54FF00A0AC3469E461946BE
:103150009846D44694F82C00E4E5D945FFF41FAE18
:10316000CB464FF0020E1AE6D945FFF4EEADCB4642
:103170008646EAE5D945FFF442AECB464FF0040E51
:103180003DE6D945FFF423AECB464FF0030E1EE6D5
:10319000D945FFF465AECB464FF0060E60E6D94543
:1031A000FFF445AECB464FF0050E40E6D945FFF49F
:1031B00070AECB464FF0070E6BE6D945FFF482AEFA
:1031C000CB464FF0080E7DE6584528BF4FF0090E5C
:1031D000B9E66FF0030086E54FF0FF3083E500BFEE
:1031E00038B5574C237D054613B1A368984247D0A4
:1031F00094F82C3013B1236A9D424AD094F844309D
:1032000013B1A36B9D424ED094F85C3013B1236D83
:103210009D4252D094F8743013B1A36E9D4256D0A3
:1032200094F88C301BB1D4F880309D4259D094F87A
:10323000A4301BB1D4F898309D425CD094F8BC30D7
:103240001BB1D4F8B0309D4261D094F8D4301BB19A
:10325000D4F8C8309D4266D094F8EC301BB1D4F855
:10326000E030AB4200D038BDD4F8D80020B103F034
:103270002DFB0023C4F8D830002384F8EC3038BD8F
:10328000206818B103F022FB00232360002323757C
:10329000AEE7A06918B103F019FB0023A361002376
:1032A00084F82C30AAE7206B18B103F00FFB002341
:1032B0002363002384F84430A6E7A06C18B103F020
:1032C00005FB0023A364002384F85C30A2E7206E92
:1032D00018B103F0FBFA00232366002384F874304E
:1032E0009EE7A06F18B103F0F1FA0023A367002353
:1032F00084F88C309BE7D4F8900020B103F0E6FA14
:103300000023C4F89030002384F8A43096E7D4F862
:10331000A80020B103F0DAFA0023C4F8A830002393
:1033200084F8BC3091E7D4F8C00020B103F0CEFAA5
:103330000023C4F8C030002384F8D4308CE700BFE9
:103340005C0300202DE9F04F8DB0002900F00581CD
:1033500045682B88B3F5807F044602D12B79062B74
:1033600005D0204603F0B2FA0DB0BDE8F08F6F79BA
:10337000042FF6D16B88082BF3D10E463A4605F19F
:103380000E010AA813F077FF3A4605F118010BA8C1
:1033900013F071FF736805F108020892002B00F02A
:1033A00012810B9A934200F01882002309930223A2
:1033B000079396F83030062B06D0BC4BBC49BD486D
:1033C00040F2A91214F02CF80A98002800F0B780F7
:1033D000314601F047FE002840F0B1800A9906917D
:1033E00001F0F003E02B00F0AA80B34F3A7D002AF1
:1033F00000F0BD807B68994200F04B82012A00F00A
:103400003782042A4FF00A0C00F27E824FF0000847
:103410007A8A97F82C00E346C246C646002800F098
:10342000F2810A230593FB69994200F05B8201282F
:1034300000F04C82042805D8788D904202D30246D1
:103440004FF00108059B97F844000A2B40F09E803E
:10345000002840F09E800223059397F85C00002826
:1034600040F0D08097F87400002840F0B08097F8C2
:103470008C00002840F0FE8097F8A400002840F05F
:10348000DC8097F8BC00002840F0788197F8D400E1
:10349000002840F0578197F8EC00002840F0128196
:1034A000079A012A4BD1DDF814804FEA480909EB4D
:1034B000080307EBC3031B7D002B00F0A7817B4BA8
:1034C0007E497C4840F2851213F0AAFF0A9B0693BE
:1034D000194609EB080307EBC303C3E901160022F1
:1034E0005A82C8444FEAC80807EB080A9AF8143011
:1034F000052B24D0DDF820B0CAF80860022308F1BB
:103500000C005946384406228AF8143013F0B3FEF2
:1035100057F808900021AAF81210B9F1000F0ED048
:103520004FF40063009306F12A0247F808105B4647
:1035300049463046FDF754F8484603F0C7F9EB8892
:10354000B3F5807F00F03681B3F5007F7FF409AFDB
:103550000AA93046FEF706FA03E7544B5849554886
:1035600040F28A2213F05CFF0DB0BDE8F08F97F8AF
:103570002C00002840F035814FF00A0C02468646A8
:1035800082460590E046E34697F8440000283FF461
:1035900064AF7B6B994200F0AE81012800F052814C
:1035A000042806D8B7F84200904202D302464FF0F2
:1035B0000208059B97F85C000A2B7FF450AF08BB0C
:1035C000032305934EE7099302230793F1E67B6EED
:1035D000994200F07281012800F06281042806D827
:1035E000B7F87200904202D302464FF00408059BE0
:1035F00097F88C000A2B7FF43CAF00283AD10523C2
:10360000059339E7FB6C994200F02981012800F00D
:10361000FF80042806D8B7F85A00904202D3024629
:103620004FF00308059B97F874000A2B7FF41CAF3A
:103630000028CCD10423059319E7D7F89430994298
:1036400000F0A281012800F09281042806D8B7F882
:10365000A200904202D302464FF00608059B97F85D
:10366000BC000A2B7FF40FAF002840F087800723AF
:1036700005930BE7FB6F994200F04E81012800F0A3
:10368000D480042806D8B7F88A00904202D30246B4
:103690004FF00508059B97F8A4000A2B7FF4EEAEC7
:1036A0000028CAD106230593EBE600BF2090010055
:1036B000408F0100848B01005C0300207C8F01009F
:1036C000D88E0100D7F8DC30994200F07F810128C4
:1036D00000F07181042805D8B7F8EA00904228BFAD
:1036E0004FF00908079B012B7FF429AF059B0A2B9C
:1036F0007FF4D9AEB8F10A0F7BD04FEA480909EB45
:10370000080357F83330ABB1CB4BCC49CC4840F22F
:103710006D1213F085FE4FEA480909EB080A4FEADB
:10372000CA0A57F80A0020B103F0D0F8002347F87E
:103730000A300A99069109EB080307EBC30300223C
:103740001A75C6E6D7F8C430994200F00681012800
:1037500000F0F680042806D8B7F8D200904202D3D1
:1037600002464FF00808059B97F8EC000A2B7FF4FF
:1037700094AE0028A6D10923059391E6D7F8AC3082
:10378000994200F0D380012800F00881042806D86F
:10379000B7F8BA00904202D302464FF00708059BE3
:1037A00097F8D4000A2B7FF473AE0028CAD10823FF
:1037B000059370E6099B002B3FF4D3AD0AAA301D98
:1037C00006F12A0302250292089A009001921946F6
:1037D00003953046FFF7B0F8C3E50123099307933B
:1037E000E7E54FF00A0C924605929646E046E3461E
:1037F00019E6BBF10A0F40F0F380BCF10A0F3FF469
:103800009EAEE04687E701230593BDE6069960E694
:10381000B86CB7F85A90002800F00081D145FFF449
:1038200001AFCA464FF0030CFCE6B86FB7F88A90B8
:10383000002800F0FA80D145FFF42CAFCA464FF0C3
:10384000050C27E7386BB7F84290002800F0D780C6
:10385000D145FFF4AEAECA464FF0020CA9E63B6D6F
:103860009E427FF4D3AE4FF003084FF0060938E6CE
:103870003A68B7F812E0002A00F0C8804FF0000C58
:103880004FF00A08F2466246E646C34697F82C0017
:10389000C4E5BB689E427FF4B1AD8046814620E618
:1038A000386EB7F87290002800F09C80D145FFF484
:1038B0009EAECA464FF0040C99E6BB6E9E427FF462
:1038C0008AAE4FF004084FF008090AE6BB69B7F862
:1038D0002A90002B00F08D80D145FFF4B3ADCA468D
:1038E0008446AFE53B6A9E427FF4A1AD4FF00108EC
:1038F0004FF00209F5E5BB6B9E427FF44EAE4FF0F0
:1039000002084FF00409ECE50022E046E346924647
:10391000964697F82C0081E5D7F880309E427FF4D8
:10392000ADAE4FF005084FF00A09DAE5D7F8B03030
:103930009E427FF428AF4FF007084FF00E09D0E504
:10394000D7F8C000B7F8D29000287BD0D145FFF45B
:103950000AAFCA464FF0080C05E7D7F8C8309E42B8
:103960007FF4F5AE4FF008084FF01009B9E5D7F82D
:103970009000B7F8A29000286BD0D145FFF46EAE4E
:10398000CA464FF0060C69E6D7F898309E427FF49D
:1039900059AE4FF006084FF00C09A2E5D7F8A80081
:1039A000B7F8BA9000285BD0D145FFF4F8AECA460C
:1039B0004FF0070CF3E6D7F8D820B7F8EA00002A52
:1039C00055D0504528BF4FF0090C8BE6D7F8E030B2
:1039D0009E427FF47CAE4FF009084FF0120980E55B
:1039E000D84698E6F145FFF402AECE464FF0040B00
:1039F000FDE5F145FFF426ADCE46834622E5F145CF
:103A0000FFF4D7ADCE464FF0020BD2E54FF00A0CD3
:103A100092469346E04697F82C00FFE4F145FFF408
:103A200001AECE464FF0030BFCE5F145FFF432AE9C
:103A3000CE464FF0050B2DE620900100648F01006B
:103A4000848B0100F145FFF48EAECE464FF0080B9B
:103A500089E6F145FFF402AECE464FF0060BFDE5D8
:103A6000F145FFF49CAECE464FF0070B97E670454C
:103A700028BF4FF0090B35E62DE9F04F87B00491D0
:103A8000049B064601461868924601F0EBFA06F1DF
:103A90002A030593002840F02A83049B1A6802F049
:103AA000F003E02B00F02383002A00F02083CC4CAD
:103AB000237D002E00F02E83002B71D194F82C3042
:103AC000002B40F096804FF00A0E184698469C4610
:103AD0001D46F146F34694F84430002B40F0B28086
:103AE00094F85C30002B40F0BF8094F87430002BC9
:103AF00040F0CC8094F88C30002B40F0D98094F8C2
:103B0000A430002B40F0E68094F8BC30002B40F04D
:103B1000F48094F8D430002B40F0028194F8EC301B
:103B2000002B40F010814FEA450808EB050304EB39
:103B3000C303A9461B7D43B1AA4BAB49AB4840F236
:103B4000851213F06DFC049B1A68C84404EBC80886
:103B5000002198F81430C8F80420C8F80860A8F8C4
:103B60001210002B54D10598A14A049B0293012105
:103B7000331DCDE900320391034688F814109D4AA5
:103B800001463046FEF7D8FEBAF1000F05D098F88E
:103B90001430012B44D800F0518107B0BDE8F08FFC
:103BA00061688A4200F0AA81012B00F0FF81042B9A
:103BB00040F2268100204FF00A0E80468446F146EE
:103BC000F34694F82C30002B00F02781E1698A42FB
:103BD0004FF00A0517D0012B00F0F581042B40F2BD
:103BE0001E810A2D94F844307FF477AF53BB022531
:103BF00076E7E1694FF00A098A4280460546844625
:103C0000CE46CB46E7D1216A8E42E4D10125A946B2
:103C1000BAF1000F00F07C81012B4FF0FF30BAD9D0
:103C200009EB490904EBC903734C059A4FF400678B
:103C300000970C33514630462570FCF7D1FC07B095
:103C4000BDE8F08F616B8A4200F07381012B00F0B8
:103C5000C681042B40F2EA800A2D94F85C307FF490
:103C600041AF0BB9032540E7E16C8A4200F068815F
:103C7000012B00F0DF81042B40F2FF800A2D94F825
:103C800074307FF434AF0BB9042533E7616E8A4298
:103C900000F05D81012B00F0DA81042B40F2F58009
:103CA0000A2D94F88C307FF427AF0BB9052526E751
:103CB000E16F8A4200F05281012B00F0D581042B84
:103CC00040F2EB800A2D94F8A4307FF41AAF0BB9C0
:103CD000062519E7D4F894108A4200F04781012B99
:103CE00000F0CF81042B40F2E0800A2D94F8BC3024
:103CF0007FF40CAF0BB907250BE7D4F8AC108A4260
:103D000000F03C81012B00F0CA81042B40F2D580E9
:103D10000A2D94F8D4307FF4FEAE0BB90825FDE6E9
:103D2000D4F8C4108A4200F03181012B00F0C58123
:103D3000042B40F2CA800A2D94F8EC307FF4F0AEE8
:103D40000BB90925EFE6D4F8DC108A4200F0268191
:103D5000012B00F0C081042B10D90A2D7FF4E3AEB3
:103D6000B9F10A0F13D1BBF10A0F40F0C280BEF1C6
:103D70000A0F00F0B9837546F14619E0B4F8EA304D
:103D80008342EAD30A2D7FF4CEAE4FF009094FEA01
:103D9000490808EB090354F83330002B00F0AC80DD
:103DA000104B1649114840F26D1213F039FB4D4685
:103DB0004FEA490808EB090B4FEACB0B54F80B000C
:103DC00020B102F083FD002344F80B3008EB090317
:103DD00004EBC30300221A75049B1A68B5E600BF02
:103DE0005C030020209001007C8F0100848B010087
:103DF000AC8B0100D08A01004C040020648F0100CC
:103E000094F82C30608A4FF000084FF00A0EC44638
:103E1000C146F346002B7FF4D9AE01255BE6638DE6
:103E2000834224BF18464FF00109DAE6B4F8423065
:103E3000834224BF18464FF002090DE7DFF8D0B2E5
:103E4000AF4DB04F5646A04607E0337B5A0600F10F
:103E500094833668002E00F04D81728933899A422E
:103E6000F3D134685B4640F2F13229463846002CE3
:103E700000F0C28013F0D4FAE7E7B4F85A30834276
:103E800024BF18464FF00309F8E6B4F872308342B5
:103E900024BF18464FF0040902E7B4F88A30834281
:103EA00024BF18464FF005090CE7B4F8A23083424E
:103EB00024BF18464FF0060917E7B4F8BA3083421A
:103EC00024BF18464FF0070922E7B4F8D2308342E6
:103ED00024BF18464FF008092DE74145FFF43DAFD8
:103EE0000A2D7FF420AEB9F10A0F7FF450AF4FF0E6
:103EF000090BD9465D465BE74D4667E7A1688E42F0
:103F00007FF452AE81460546BAF1000F7FF484AECD
:103F1000049B7D4A0293331DCDE90032059B7B4A09
:103F20000121039130461946FEF706FD07B0BDE8B2
:103F3000F08FA16B8E427FF489AE0225A94667E619
:103F4000216D8E427FF494AE0325A94660E6A16EF2
:103F50008E427FF49FAE0425A94659E6D4F880101E
:103F60008E427FF4A9AE0525A94651E6D4F89810F3
:103F70008E427FF4B4AE0625A94649E6D4F8B010C7
:103F80008E427FF4BFAE0725A94641E6D4F8C8109B
:103F90008E427FF4CAAE0825A94639E6D4F8E0106F
:103FA000B1427FF4D5AE0925A94631E62368B4F8BD
:103FB00012C0002B00F0228100204FF00A09804639
:103FC0008646CB46FDE5618D0F46A169002900F0CC
:103FD00008816745FFF405AEBC469E4601E6236BAB
:103FE000B4F84210002B00F002816145FFF434AEBA
:103FF0008C464FF0020E2FE6337B5B0644467AD5A3
:1040000052464FF420710E2002F098FF824600289D
:1040100000F06A824FEA490808EB090354F83300BC
:1040200008B102F053FCC844002044F838A007B09F
:10403000BDE8F08FA36CB4F85A10002B00F0E680B6
:104040006145FFF41BAE8C464FF0030E16E6236E5F
:10405000B4F87210002B00F0E0806145FFF420AE50
:104060008C464FF0040E1BE6A36FB4F88A10002BA9
:1040700000F0DA806145FFF425AE8C464FF0050E66
:1040800020E6D4F89030B4F8A210002B00F0D380D2
:104090006145FFF42AAE8C464FF0060E25E6D4F8B3
:1040A000A830B4F8BA10002B00F0CC806145FFF4C2
:1040B0002FAE8C464FF0070E2AE6D4F8C030B4F885
:1040C000D210002B00F0C5806145FFF434AE8C4661
:1040D0004FF0080E2FE6D4F8D830B4F8EA10002BD1
:1040E0003FF4FBAE614528BF4FF0090E35E66FF097
:1040F0000F0052E54446504602F06EFD8AE700BFCD
:1041000004900100848B0100AC8B0100D08A010077
:1041100020900100002B00F0A38061688A4200F02B
:10412000DF81012B00F09E81042B4FF00A0E00F27C
:104130005681B4F8128094F82C30F3463746304656
:10414000B146002B00F049810A25E1698A423FF41B
:104150005DAD012B00F04B81042B05D8638D4345E9
:1041600002D398464FF001090A2D94F8443040F0EC
:104170008680002B40F08680022594F85C30002B6E
:1041800040F0B08094F87430002B40F0C38094F875
:104190008C30002B40F08E8094F8A430002B40F03F
:1041A000D18094F8BC30002B40F0E58094F8D430F6
:1041B000002B40F0F98094F8EC30002B3FF4B3ACC6
:1041C000D4F8DC108A423FF4EEAE012B00F070818F
:1041D000042B3FF6C2ADB4F8EA304345FFF4BDAD61
:1041E000D0E54745FFF4FDACB8469B46F9E44145B0
:1041F000FFF432AD88464FF0020B2DE54FF00A0E6A
:10420000E04618469C469B46F146DAE44145FFF4F9
:1042100035AD88464FF0030B30E54145FFF440AD26
:1042200088464FF0040B3BE54145FFF44BAD884613
:104230004FF0050B46E54145FFF457AD88464FF07A
:10424000060B52E54145FFF463AD88464FF0070B7E
:104250005EE54145FFF46FAD88464FF0080B6AE517
:1042600094F82C304FF00A0EF146F346B04637462C
:1042700030463546002B7FF468AF94F84430002B6D
:104280003FF47BAF616B8A423FF457AE012B00F0E5
:10429000DC80042B06D8B4F84230434502D398465C
:1042A0004FF002090A2D94F85C307FF468AFCBB967
:1042B000032567E7E16F8A423FF455AE012B00F01A
:1042C000AC80042B06D8B4F88A30434502D3984614
:1042D0004FF005090A2D94F8A4307FF45FAF8BBB33
:1042E00006255EE7E16C8A423FF42EAE012B00F01A
:1042F000A080042B06D8B4F85A30434502D3984620
:104300004FF003090A2D94F874307FF43DAF0BB9D8
:1043100004253CE7616E8A423FF41DAE012B71D04B
:10432000042B06D8B4F87230434502D398464FF0B8
:1043300004090A2D94F88C307FF42BAF002BB9D1EF
:10434000052529E7D4F894108A423FF414AE012BD6
:1043500000F0B980042B06D8B4F8A230434502D34C
:1043600098464FF006090A2D94F8BC307FF41BAF35
:104370000BB907251AE7D4F8AC108A423FF403AE14
:10438000012B00F08880042B06D8B4F8BA304345DE
:1043900002D398464FF007090A2D94F8D4307FF4E1
:1043A00007AF0BB9082506E7D4F8C4108A423FF4DA
:1043B000F2AD012B63D0042B06D8B4F8D2304345BC
:1043C00002D398464FF008090A2D94F8EC307FF498
:1043D000F4AE002B3FF4B5ACF2E601254DE7F14613
:1043E000F34694F82C30B04637463046A9E6A1692A
:1043F000B4F82AC000297BD08445FFF4B5AE6046EE
:104400009E46B1E6236EB4F87210002B7DD0814237
:104410008FD308464FF0040E8BE7A36FB4F88A10D1
:10442000002B6BD08142FFF455AF08464FF0050ECC
:1044300050E7A36CB4F85A10002B6DD08142FFF402
:1044400061AF08464FF0030E5CE7236BB4F84210EF
:10445000002B00F084808142FFF424AF08464FF027
:10446000020E1FE72368608A002B5CD04FF00A0918
:10447000CB4694F82C30B0463746B64661E6D4F8C1
:10448000C030B4F8D210002B5ED081429CD30846D5
:104490004FF0080E98E7D4F8A830B4F8BA10002B03
:1044A0004BD08142FFF478AF08464FF0070E73E718
:1044B000D4F8D830B4F8EA10002B4CD0814228BF91
:1044C0004FF0090E49E4D4F89030B4F8A210002B54
:1044D0004CD08142FFF447AF08464FF0060E42E74A
:1044E0003546B146FFF794BB4FF0FF30FFF755BBA1
:1044F000BC45FFF439AE67469B4635E6B942FFF44A
:10450000E9AE0F464FF0050BE4E6B942FFF411AFF8
:104510000F464FF0040B0CE7B942FFF4F3AE0F4621
:104520004FF0030BEEE64FF00A0E0746F14694F803
:104530002C303046B046B34603E6B942FFF42CAF08
:104540000F464FF0070B27E7B942FFF43DAF0F4688
:104550004FF0080B38E7B942FFF4FFABC0E4B942B3
:10456000FFF4A0AE0F464FF0020B9BE6B942FFF4FA
:10457000FAAE0F464FF0060BF5E6444640E500BFA5
:10458000F0B585B00E4615460446002800F0BE8002
:10459000002E00F0A980002D00F0B0802146286890
:1045A00000F060FD002840F09D80296801F0F003D4
:1045B000E02B7AD0D4E901324B4013420AD08AB2C0
:1045C0004FF6A9639A4205D0E168002900F0F9800E
:1045D00004F10C05DFF80CC27B4B9CF8002002EBC9
:1045E000420003EBC000077D012F03D98768A74273
:1045F00000F097801A7D012A03D99868844200F060
:10460000998093F82C20012A03D9186A844200F07B
:10461000978093F84420012A03D9986B844200F0D4
:10462000958093F85C20012A03D9186D844200F02C
:10463000998093F87420012A03D9986E844200F07F
:10464000978093F88C20012A04D9D3F88000844203
:1046500000F0948093F8A420012A04D9D3F898009C
:10466000844200F0918093F8BC20012A04D9D3F849
:10467000B000844200F08F8093F8D420012A04D93E
:10468000D3F8C800844200F08D8093F8EC20012A12
:1046900004D9D3F8E020A24200F08B8032462946AC
:1046A0002046FFF7E9F905B0F0BD6B78A978EA7804
:1046B0008DF80C1003F07F0301205E218DF80B3084
:1046C000ADF808008DF80A108DF80D2002AB4FF4FC
:1046D00000620092314604F12A022046FBF780FF77
:1046E00005B0F0BD394BF2E7394B3A493A4840F250
:1046F0001F3212F095FE002D7FF450AF344B374936
:1047000035484FF4487212F08BFE47E7304B34497E
:10471000314840F21E3212F083FE002E7FF43BAF90
:10472000E2E7406888427FF465AF31462046FEF7F5
:104730007BF9D5E75A6891427FF463AF00230AE022
:10474000DA698A427FF465AF012304E05A6B914233
:104750007FF467AF022331461A468CF80030FEF72B
:1047600063F9BDE7DA6C91427FF463AF0323F2E7AC
:104770005A6E91427FF465AF0423ECE7DA6F914201
:104780007FF468AF0523E6E7D3F8942091427FF4E5
:104790006AAF0623DFE7D3F8AC2091427FF46CAF19
:1047A0000723D8E7D3F8C42091427FF46EAF0823E3
:1047B000D1E7D3F8DC308B427FF470AF2046092379
:1047C000C9E76FF003008BE75C030020D08A01008B
:1047D00020900100C88F0100848B0100A88F010088
:1047E000D88E01004C0400202DE9F04383B005462B
:1047F000884600F12A0700F10409002853D04FF43D
:1048000020721C210E2002F0CFF80646002852D05C
:1048100043891B2B3FD90120746801F0D5F8E08053
:1048200095F83030062B06D0244B2549254840F218
:104830006A4212F0F5FD0622394604F1080012F032
:104840001AFD0622204904F1120012F014FD494617
:10485000042204F10E0012F00EFD4146042204F180
:10486000180012F008FD194B23604FF0060C0423CA
:1048700040F6060184F804C063713A46144B009177
:1048800028463146FBF7ACFE304602F01FF8002008
:1048900003B0BDE8F083094B0E490A4840F2634279
:1048A00012F0BEFDB7E7054B0B49064840F25742F0
:1048B00012F0B6FDA3E74FF0FF30E9E720900100CA
:1048C000D0900100848B0100AC8B01000001080036
:1048D000D08A01009C900100D88E01002DE9F0479C
:1048E00084B0504EB7683C7804F00F04A400132C39
:1048F000054613D94389032B10D943681B78082B2D
:104900000CD1706900F0F003E02B07D088463168C5
:1049100000F0A8FB10B92B89072B05D8284604B056
:10492000BDE8F04701F0D2BF284601F0AFF90028FA
:10493000F4D104F10E0A514628461FFA84F901F019
:1049400015FF38B32B8903EB090189B28B42E5D8F7
:104950004FF420720E2002F027F882460028DDD0A6
:10496000428904F108039A424DD3394622464068F1
:1049700012F081FC2146504601F026FF002846D067
:10498000294B2A492A48B62212F04AFD504601F026
:104990009DFFC3E75146284601F016FF60BB214644
:1049A00028466F6801F0E2FE0028B7D1D6E904324C
:1049B0006C68E26023617B8838704FF6F77293422F
:1049C0008CBF09330833002699B24FF0FF0A798073
:1049D0002046494684F808A0A672E67201F014F950
:1049E000012160815346CDE90118009632461149F4
:1049F000284600F0EFF991E70B4B0F490C48C7220E
:104A000012F00EFD8AE7504601F060FF86E7294666
:104A1000504602F091F90028F5D1284601F056FFE2
:104A20005546BCE7881A002040910100B89101006A
:104A3000848B01009C1A0020F09101002DE9F041C7
:104A400086B004460E464FF420722421222001F045
:104A5000ABFF80B34389232B05462FD9D4F80480BC
:104A60006C68032300274146667023701C2206AE43
:104A7000676004F1080012F0FEFBD8F80C3046F82D
:104A8000043D304600F076F8804688B16989A77009
:104A9000E770204601F0B8F80123608032460193A8
:104AA000CDF8088000973946FF23284600F092F998
:104AB000284601F00BFF06B0BDE8F081034B044926
:104AC000044840F2691212F0ABFCC7E740910100C4
:104AD00014910100848B01002DE9F04186B0044659
:104AE0000E464FF420722421222001F05DFF80B396
:104AF0004389232B05462FD9D4F804806C680B23F7
:104B000000274146667023701C2206AE676004F1E0
:104B1000080012F0B0FBD8F80C3046F8043D3046DF
:104B200000F028F8804688B16989A770E7702046B0
:104B300001F06AF80123608032460193CDF80880C5
:104B400000973946FF23284600F044F9284601F033
:104B5000BDFE06B0BDE8F081034B0449044840F2B5
:104B6000691212F05DFCC7E7409101001491010049
:104B7000848B010030B4194B1B68ABB193F8312022
:104B8000D407F9D55107F7D559680029F4D004683E
:104B90009D686140294204D09207EDD4DA689442BE
:104BA000EAD1184630BC70470D4B1B68002BF8D07B
:104BB00093F8312002F00502052A08D15A6852B153
:104BC00002787F2A08BF0023184630BC70470023B4
:104BD000184630BC70471346E3E700BFC8EE00201C
:104BE000CCEE00202DE9F843466833781A09042AF0
:104BF000044605D0204601F069FE0020BDE8F88398
:104C000003F00F0370889D000F4600F0DDFE23893E
:104C1000834280461FFA85F900F28A8063894B45FA
:104C2000E8D323894345E5D3B9F1130FE2D94946C7
:104C3000304600F0E9FF0028DCD13369DFF89091BD
:104C400097F83120C9F8143003F0F001F068C9F882
:104C50001000E02902F001026FD0002A40F08D80A0
:104C6000DBB27F2B6CD0594BD3F80080B8F1000F2A
:104C700005D165E0D8F80080B8F1000F60D0474555
:104C8000F8D098F83130DB07F4D5D8F80430002B91
:104C9000F0D0D9F8142093424146104603D000F0DA
:104CA000E1F90028E6D0D9F81000002852D1F388A5
:104CB00023F0C00333B1204600F0B6FA04460028C2
:104CC0009BD04668C9F80860C9E90087337803F0CB
:104CD0000F039B0029462046A9F80C3001F074FD13
:104CE000737A062B64D0112B5DD0012B65D0414621
:104CF000D9F8140000F0B6F968B9D9F8143003F007
:104D0000F003E02B07D02946204601F08DFD02215B
:104D10002046FFF793FE204601F0D8FD0023C9E9A5
:104D20000033C9F80830A9F80C30C9E9043364E746
:104D30000146204601F0E8FE70E70AB17B68D3B96E
:104D4000737A112B28D0D9F8100000283FF452AF05
:104D50004FF00008394600F085F900287FF44AAF8B
:104D6000D9F8103003F0F003E02B3FF443AFB8F173
:104D7000000F9CD13EE7B84697E77A68002A3FF4D7
:104D80006FAF9342F7D01846394600F06BF9C8B1BF
:104D9000D9F81000B84688E773195B88B3F5884FD7
:104DA000D1D1B84683E73946204607F007F9B5E781
:104DB0003946204604F064FDB0E739462046FFF747
:104DC0008DFDABE7D9F814304AE700BFC8EE0020EC
:104DD000881A00202DE9F04F83B09A460546837B60
:104DE0009DF830809DF834B00E9F002A64D089462B
:104DF000164609B10A680AB907F10409012B53D113
:104E00001421284601F0B2FC00287ED16B896C6821
:104E1000132B67D984F808A084F809B0336884F8A4
:104E2000018045214BEA0A2A180C4FEA082210FAA1
:104E300083F00A4321704FEA2A280244236148EA9A
:104E40000A282889DFF8DCA012FA88F800F0BCFDF7
:104E5000002203466080A271E271BAF80000984413
:104E600000F0B2FDBAF80030A08001334044AAF847
:104E70000030B9F1000F3DD0D9F80030E36010FAEE
:104E800083F000EB134083B203EB104000EB1040C3
:104E90003B8DC0436081E3B9324629467B69384681
:104EA000984703B0BDE8F08F194B1A491A484FF4E0
:104EB000557212F0B5FAA3E7012B1ED16B89132BA3
:104EC00023D96B6802AE1B6946F8043D3B8D002B6D
:104ED000E2D02A899A42DFD932463946284600F084
:104EE0006DFCDEE70A4B0D490B4840F2893212F0A7
:104EF00097FA8FE70A4B1B68C0E7054B0549064840
:104F00004FF4557212F08CFAD8E76FF00100C8E741
:104F100024920100CC920100848B01009C9201003C
:104F2000D89201004E0400202DE9F04F83B089464D
:104F3000817B9DF830809DF834A00E9F01290546A5
:104F400016469B4656D1002E5DD01421284601F00E
:104F50000DFC002876D16B896C68132B67D984F817
:104F600008B084F809A0336884F8018045214AEA32
:104F70000B2A1A0C21704FEA2A204FEA082812FA4D
:104F800083F248EA010840EA0A2A23612889DFF807
:104F9000D0B0904400F018FD002318FA8AF8608021
:104FA0008246A371E371BBF8000000F00DFDBBF871
:104FB0000030A080D04401334044ABF80030B9F158
:104FC000000F3CD0D9F80030E36010FA83F000EB1A
:104FD000134083B203EB104000EB10403B8DC04305
:104FE0006081DBB9324629467B693846984703B071
:104FF000BDE8F08F154B164916484FF4557212F064
:105000000FFA002EA1D16B89132B1BD96B6802AE4E
:105010001B6946F8043D3B8D002BE3D02A899A4258
:10502000E0D932463946284600F0C8FBDFE7074B97
:105030000949084840F2893212F0F2F98FE7074B2C
:105040001B68C1E76FF00100D1E700BF24920100A7
:10505000CC920100848B01009C920100D892010047
:105060004E040020431E033314D891F8313013F05E
:1050700002030DD04B6883420AD08A684340134232
:1050800006D1D24332EA00030CBF01200020704752
:10509000002070470120704710B5044648B1606990
:1050A00008B101F013FC21460520BDE8104001F0D5
:1050B000FDB8044B0449054840F2CE2212F0B0F985
:1050C000EDE700BF3C940100B8940100848B01001F
:1050D0002DE9F84F8142074688466BD0B8F1000FA2
:1050E00009D0D8F80030BB4205D03A4B3A493B488A
:1050F000AD2212F095F97D6868688388B3B1002409
:10510000DFF8D0B0DFF8ECA0DFF8D0906B6828466D
:105110001E6801F055FD0444B4F5803F284638DA96
:10512000A4B201F0D3FBB6B13546EFE703687B606C
:10513000142207F1080112F09EF801212846FFF71A
:10514000CBFC284601F03CFD0446284601F0BEFB9E
:105150007D68002DD4D1224B1A68974227D0B8F130
:10516000000F2ED03B68C8F800301E4D3946042091
:1051700001F09CF82B88A34206D2164B1A49174817
:10518000D22212F04DF92B881B1B2B802046BDE844
:10519000F88F5B46CC225146484612F041F928462A
:1051A000A4B201F093FB002ED5D03546AEE73A68A5
:1051B0001A60DAE7074B0D490848AB2212F030F9C4
:1051C0008CE7044B0A49054840F2451212F028F9D1
:1051D000C8E700BF3C940100C8930100848B010024
:1051E000540400205004002018940100BC930100D6
:1051F000FC930100DC93010038B50A4B186880B1BC
:10520000002503E0C2770546204654B1C37F0468F9
:105210005A1E002BF6D12946FFF75AFF2046002CD4
:10522000F4D138BD540400202DE9F04F85B0D0F8FA
:10523000049099F8003003F00F03052B054640F069
:105240006081B9F8060000F0BFFBC0F30C03DB007F
:10525000B9F80200019300F0B7FB99F8003003F0B1
:105260000F039B00834200F24C81C31A9BB2DFF80C
:10527000FC820293284601F0A3FCB8F80030BA4E35
:1052800003440A2B074600F3F8803468002C00F032
:10529000A280D9F80C2003E02468002C00F09B8049
:1052A00063699342F8D1D9F81030A1699942F3D1DA
:1052B000A189B9F804309942EED1B9F8060000F09E
:1052C00083FBC0F30C00002800F02381B9F80630FE
:1052D00013F0200303930BD1DDE90123D3189BB214
:1052E0009A4200F245814FF6EB72934200F2408100
:1052F000D5F804A0BAF8020000F066FB9AF8009016
:1053000009F00F094FEA89094845C0F03181A0EB47
:105310000909BAF8060000F057FBC0F30C00C00002
:105320001FFA89F909EB000CD5F804B01FFA8CFCC0
:1053300000236045ABF806C0ABF804008BF80030E2
:105340008BF801308BF802308BF8033000F21081BB
:105350006368002B00F02A81D3F80490B9F8042088
:105360009042C0F01F8100F0CC80B9F806E0704593
:10537000C0F0C780D9F800204FF0010AA2B15368ED
:1053800099888842C0F0E78000F0BB80DA889042BC
:10539000C0F0B7809946714518BF4FF0000A964695
:1053A000D9F80020002AEAD17045C0F0CC817045C0
:1053B000C9F80050039B00F0BB80002B00F0BD80BB
:1053C000A37FDA0700F10281B8F800301F44A8F883
:1053D0000070002799E0042000F03EFF0446D0B1A1
:1053E00020220021204611F06AFF336823600F223B
:1053F000E2774946142204F10800346011F03BFFC3
:1054000064E710B1FFF764FE0444A74240F3E6806E
:10541000BAF1010F75DD3368002B00F0DD80D9F89B
:105420000CE05A694FF0000C724561466046E24656
:1054300011D00AF1010AE8B1C27F93F81FB0934579
:105440009CBF614618461A689C46002AD9D013466C
:105450005A697245EDD1D9F810B09A695A45E8D128
:10546000B3F80CB0B9F804209345ECD00AF1010A66
:105470000028E1D161461846E5E74FF0000A33689D
:10548000002B35D0D9F80CE05A694FF0000C72456A
:105490006146604664460FD00134D8B1C27F93F8AC
:1054A0001FB093459CBF614618461A689C46BAB126
:1054B00013465A697245EFD1D9F810B09A695A4526
:1054C000EAD1B3F80CB0B9F804209345EDD001341B
:1054D0000028E3D11A68614618469C46002AE7D1A5
:1054E00010B1FFF7F5FD8244574501DD012CC6DC04
:1054F000BAF1000F05D0B8F800303B440A2B7FF713
:10550000C4AE284601F0E2F90027384605B0BDE8F0
:10551000F08FE08900F058FAC0F30C0000283FF447
:10552000D5AE1422494604F1080011F0A4FECDE6E0
:10553000002B42D1BAF1000F5FD1B8F800301F4400
:10554000A8F80070DDE90121A37F0A4443F00103BC
:10555000A283A377D8E77045CBF80020D1D38C4540
:105560007FF625AFCDE700BF540400205004002093
:105570006768002FC5D13368A34237D0874B88496D
:10558000884840F2AB2211F04BFF33689C422DD08B
:10559000824B8549834840F2451211F041FF236850
:1055A0003B60FFDE9445CBF80030AAD8039B6560D2
:1055B000002B00F0C3804FF0010AA37FDB077FF5CB
:1055C00003AFBAF1000F01D06368D3B9B8F8003067
:1055D0001F44A8F8007097E7A74292DC042000F06F
:1055E0003BFE044600287FF4FBAE8AE72368336065
:1055F0002146042000F05AFE83E76368002B00F088
:1056000093805D68AB88002B40F08E80DBF8003023
:10561000002B00F0A4805B68BBF806109A889142CA
:1056200006D081E05268D988938899427CD113468C
:105630001A68002AF6D19D4200F09380B8F8003035
:105640001F44039BA8F80070002B00F09D80A78BDF
:105650006368D3F80490142204F108014846D9F88D
:10566000005011F008FE07F1140080B200F0ACF910
:105670000023A9F8020089F8063089F8073089F874
:105680000A3089F80B304846142100F0BDFA6768EB
:10569000A9F80A006DB1A1466C681421284601F0F2
:1056A00093F82946384601F0ABFA2568002DF3D16E
:1056B0004C463268A24234D04AB113689C4211D0A1
:1056C0002BB11A68A2420ED01346002BF9D1334BEE
:1056D0003549344840F2451211F0A2FE00232268F9
:1056E0001A60FFDE134622681A602146042000F08B
:1056F000DDFD384601F064FAB8F800308342044614
:1057000008D2264B2949274840F29B2211F088FEF7
:10571000B8F800301B1B3846A8F8003005B0BDE8CB
:10572000F08F23683360E0E7B8F800301F44039B34
:10573000A8F80070002B7FF4E7AE03E76368002B46
:105740007FF45FAFF9E6154B194916484FF4DB7249
:1057500011F066FEB9F806E0BBF8040027E65B46E8
:1057600069E70E4B13490F4840F2E11211F058FE61
:105770002B68002B3FF462AF084B0F49094840F2F9
:10578000E31211F04DFE59E7DDE90121A37F0A4440
:1057900097B243F00103A783A37759E73C94010034
:1057A0009C930100848B0100FC9301008093010015
:1057B0002C9301004C9301005C9301002DE9F04F04
:1057C0008DB00B8D0A92B3F1140248BFA3F10D0204
:1057D000436804931C78079104F00F044FEA840B8C
:1057E000C2F3CF03BBF1140F0546069340F0D380FC
:1057F0004389132B40F2D280049BD88800F0E4F850
:10580000B5F80890C0F30C03A9F1140905931FFA29
:1058100089FA00F400530B93BAF1000F00F0908066
:10582000069BCDF80CA0DB009BB2089300244FF43C
:10583000207214210E2001F0B7F8089B039A9342BE
:1058400028BF134681460293002800F093804389C5
:10585000132B40F2948014220499D9F8040011F01B
:105860000AFDD9F804300993029B002B30D01F4663
:105870006B89DFF850A1A3EB0B045B45A4B26AD39C
:10588000BC4228BF3C46002C5CD0052000F0E4FC64
:105890004122804603462146002868D001946E6864
:1058A0005E440096002000F045FF064600285AD0CE
:1058B000284601F091F93F1B3D4BC8F81450314682
:1058C000C8F810304846BFB201F09AF9002F39D11C
:1058D000079B059A1B8DC2F30C00039A133BA3444C
:1058E00093421FFA8BFB52DC40F4005000F06CF83E
:1058F000029F099E3B461433F08098B200F064F892
:1059000000237080B372F3721421304600F07CF9EA
:10591000B046079E0A9A7369A8F80A0049463046BD
:105920009847484600F0D2FF039BDB1B9AB2DDE9A3
:1059300005310B449BB203920593002A7FF477AFA5
:10594000002019E02D686B894FF0000BA3EB0B04CE
:105950005B45A4B294D2174B174840F22D32514602
:1059600011F05EFD8CE74146052000F09FFC4846A3
:1059700000F0ACFF4FF0FF300DB0BDE8F08F0D4BE5
:105980000E490D4840F2253211F04AFD63E70B9BAA
:10599000002BABD0A8E76FF00500EDE7054B0849F9
:1059A00005484FF43F7211F03BFD6FF00500E3E74F
:1059B000995000003C940100848B0100FC9201008E
:1059C000E09201001C93010040BA80B2704700BF12
:1059D00000BA7047F8B5044608460E46174611F05F
:1059E000ABFEC8B1237823B127442218974205465D
:1059F0000ED20020F8BD2A463146204611F0A4FE02
:105A000050B114F8013F6119002BF2D08F42F0D34E
:105A100031789942F5D1EEE72046F8BD10F8013B08
:105A200011F8012B93421AD070B443F02004A4F172
:105A30006105192D10D842F02006B4420CD193B163
:105A400010F8013B11F8012B9342F8D043F02004E9
:105A5000A4F16105192DEED9012070BC7047002B0F
:105A6000DCD118467047184670BC7047012930D900
:105A7000F0B4002A01F1FF3424DB4FF0000303559A
:105A800004442ED00646B44227D9002A174FB8BF87
:105A9000524201E0B44220D087FB0235D317C3EB5A
:105AA000A50303EB8305A2EB4502303204F8012D78
:105AB0001A46002BEED14218121B21463046F0BC8C
:105AC00011F0E4BB2D2500230570461C035504444A
:105AD000D9E701D100230370704700230370F0BCA5
