:10000000000008207D050000A9050000A9050000EA
:10001000A9050000A9050000A9050000A905000028
:10002000A9050000A9050000A9050000A905000018
:10003000A9050000A90500006F8C0300018F0300D3
:10004000A9050000A90500002D2E000017020400DC
:10005000A9050000A905000035090000A905000058
:10006000A9050000A9050000A9050000A9050000D8
:10007000A905000023020400A9050000A90500004D
:10008000A9050000A9050000A9050000A9050000B8
:10009000A9050000A9050000A9050000A9050000A8
:1000A000A9050000A9050000A9050000A905000098
:1000B000A9050000A9050000A905000059300000AD
:1000C000A9050000A9050000A9050000A905000078
:1000D000A9050000A9050000A9050000A905000068
:1000E000A9050000A9050000A9050000A905000058
:1000F000A9050000A9050000A9050000A905000048
:10010000A9050000A9050000A9050000A905000037
:10011000A9050000A9050000A9050000A905000027
:10012000A9050000A9050000E9A10300A905000038
:10013000A9050000A9050000A9050000A905000007
:10014000A9050000A9050000A9050000A9050000F7
:1001500010B5054C237833B9044B13B10448AFF301
:1001600000800123237010BD7004002000000000F7
:10017000D4DB120008B5034B1BB103490348AFF3AE
:10018000008008BD0000000074040020D4DB1200D1
:10019000154B002B08BF134B9D46A3F5803A002159
:1001A0008B460F461348144A121A43F08EFF0F4B2A
:1001B000002B00D098470E4B002B00D09847002012
:1001C000002104000D000D48002802D00C48AFF3B8
:1001D000008043F0EFFE200029003FF0A5FF43F030
:1001E000D5FE00BF0000080000000820000000004D
:1001F00000000000700400205003022000000000F6
:100200000000000080B400AF4FF0804301225A6428
:10021000154BD3F8B030144A43F00103C2F8B030A4
:10022000114BD3F8E030104A43F00803C2F8E03035
:100230000E4B1B680D4A43F4805313600A4BD3F8EE
:10024000E030094A23F00803C2F8E030064BD3F847
:10025000B030054A23F00103C2F8B03000BFBD46FC
:100260005DF8047B704700BF00400E4034400540FD
:1002700080B582B000AF11237B60FFF7C3FF084851
:1002800006F042FA0521786804F046FF00220121B9
:10029000012005F0ADFB00BF0837BD4680BD00BFA3
:1002A000B857040080B500AF00F0F4F8044B1B69A8
:1002B000002B02D0034832F0D5FD00BF80BD00BF47
:1002C0007C4C0E00CC57040080B582B000AF00F02B
:1002D0006DF9786030F0AAF902467B68B3FBF2F35F
:1002E0003B60386838F020FE00BF0837BD4680BD4F
:1002F00080B485B000AF786039607B6803F1047327
:10030000DA003B6813449B00FB60FB681B681846DF
:100310001437BD465DF8047B7047000080B582B09D
:1003200000AF03463960FB71FB79002B31D0FB79BC
:10033000012B2BD0FB79022B25D0FB79032B1FD06F
:10034000FB79042B19D0FB79052B13D0FB79062BF5
:100350000DD0FB79072B07D0FB79082B02D14FF684
:10036000FF7318E0002316E04FF6FF7313E04FF61B
:10037000FF7310E04FF6FF730DE04FF6FF730AE0D6
:100380004FF6FF7307E04FF6FF7304E04FF6FF737D
:1003900001E04FF6FF733A68134103F00103002BAD
:1003A00004D140F2F7310B4803F0D0F8FA79134644
:1003B0005B0013441B010C3303F1804303F5082356
:1003C00039681846FFF794FF034618460837BD46BC
:1003D00080BD00BFDC57040080B582B000AF03468B
:1003E0003960FB71FB79002B31D0FB79012B2BD0CD
:1003F000FB79022B25D0FB79032B1FD0FB79042B33
:1004000019D0FB79052B13D0FB79062B0DD0FB7986
:10041000072B07D0FB79082B02D14FF6FF7318E0AA
:10042000002316E04FF6FF7313E04FF6FF7310E062
:100430004FF6FF730DE04FF6FF730AE04FF6FF73C0
:1004400007E04FF6FF7304E04FF6FF7301E04FF64D
:10045000FF733A68134103F00103002B04D140F20B
:1004600027410A4803F072F801223B6802FA03F3BD
:100470000749FA79184613465B0013441B010B44E5
:100480001833186000BF0837BD4680BDDC57040034
:100490000080084080B582B000AF0121104803F011
:1004A000F5FD01210F4803F0F1FD00237B600FE013
:1004B0000D4A7B6812F833000B4A7B68DB0013445B
:1004C00059680023042206F0F1FD7B6801337B604C
:1004D0007B68012BECDD002318460837BD4680BD44
:1004E0004041050000550A003058040080B584B032
:1004F00000AF78604FF0FF33FB607B68002B15DBAB
:100500007B68012B12DC0C4A7B6812F833000A4A24
:100510007B68DB0013445B681946FFF7FFFE034668
:10052000012B0CBF01230023DBB2FB60FB681846E4
:100530001037BD4680BD00BF3058040080B582B082
:1005400000AF78607B68002B10DB7B68012B0DDC33
:10055000094A7B6812F83300074A7B68DB001344C2
:100560005B681946FFF738FF002301E04FF0FF33C7
:1005700018460837BD4680BD3058040006488047FD
:100580000649074A074B9A42BEBF51F8040B42F88E
:10059000040BF8E7FFF7FCFD89060000E0DB120022
:1005A000000000206C040020FEE700BF80B582B090
:1005B00000AF00F025F878600A4BD3F808311B0A29
:1005C000C3F308033B603B6801337A68B2FBF3F383
:1005D0007B60054A7B6813607B6818460837BD4618
:1005E00080BD00BF00400E400800002080B400AF76
:1005F000024B1846BD465DF8047B704700A24A04D2
:1006000080B483B000AF164BD3F8943003F00703E7
:10061000032B08D0042B02D0022B08D00BE0114B87
:100620001B687B600BE04FF400437B6007E00E4BE0
:100630001B687B6003E00D4B1B687B6000BF084BB1
:10064000D3F800311B0A03F01F0301337A68B2FBB1
:10065000F3F318460C37BD465DF8047B704700BFC6
:1006600000400E4004000020000000200C0000208C
:1006700080B400AF034B1B681846BD465DF8047B91
:10068000704700BF0000002080B400AF074B084A4D
:100690009A60064BD3F88830044A43F47003C2F8DA
:1006A000883000BFBD465DF8047B704700ED00E078
:1006B0000000000080B400AF4FF400431846BD4670
:1006C0005DF8047B704780B400AF4FF47A7318462E
:1006D000BD465DF8047B704780B400AF034B1B68D8
:1006E0001846BD465DF8047B704700BF040000203B
:1006F00080B483B000AF7860002318460C37BD4645
:100700005DF8047B704780B483B000AF7860FEE78B
:1007100080B483B000AF786039603B684FF400521A
:100720005A60002318460C37BD465DF8047B7047BD
:1007300080B483B000AF7860012318460C37BD4603
:100740005DF8047B704780B485B000AFF860B96095
:100750007A60002318461437BD465DF8047B704765
:1007600080B586B000AFF860B9607A6000237B6125
:100770000FE000F095F938613B69B3F1FF3F0ED00F
:10078000BB685A1CBA603A69D2B21A707B690133ED
:100790007B617B685A1E7A60002BEAD100E000BFC3
:1007A0007B69002B02DC4FF0FF3300E07B691846C9
:1007B0001837BD4680BD000080B485B000AF7860BA
:1007C0000B4B1B68002B02D1094B0A4A1A60084BDD
:1007D0001B68FB60064B1A687B681344044A13606D
:1007E000FB6818461437BD465DF8047B704700BFB0
:1007F0008C0400205003022080B586B000AFF86062
:10080000B9607A6000237B6109E0BB685A1CBA605A
:100810001B78184600F084F97B6901337B617A69A3
:100820007B689A42F1DB7B6818461837BD4680BD6D
:1008300080B483B000AF0346FB7197F90730002BFB
:100840000BDBFB7903F01F02074997F907305B09BF
:10085000012000FA02F241F8232000BF0C37BD4608
:100860005DF8047B704700BF00E100E080B483B016
:1008700000AF0346FB7197F90730002B0CDBFB79C7
:1008800003F01F02074997F907305B09012000FABE
:1008900002F2603341F8232000BF0C37BD465DF8FB
:1008A000047B704700E100E080B483B000AF786063
:1008B00039607B683A689A6400BF0C37BD465DF8C2
:1008C000047B704780B483B000AF786039607B6888
:1008D000DA6C3B68DB431A407B68DA6400BF0C3794
:1008E000BD465DF8047B704780B483B000AF78608C
:1008F00039607B68DA6C3B681A437B68DA6400BF56
:100900000C37BD465DF8047B7047000080B500AF32
:1009100004210248FFF7D6FF00BF80BD0000014060
:1009200080B500AF04210248FFF7DEFF00BF80BDA5
:100930000000014098B500AF144B1B6903F0800321
:10094000002B20D0124B1B68072B1ADC114B1C68A4
:100950000E4806F00BFF03461A460F4B1A550D4B77
:100960001B6801330B4A1360094B1B680133084AAB
:100970001360084B1B68082B05D1064B00221A6038
:1009800001E0FFF7C3FF00BF98BD00BF00000140BA
:1009900098040020940400209C04002080B483B0BC
:1009A00000AF78607B68002B03D0064B01221A70E1
:1009B00002E0044B00221A7000BF0C37BD465DF800
:1009C000047B7047A4040020B0B588B000AF0121BB
:1009D0002C4803F05BFB01212B4803F057FB01235C
:1009E00004220721042006F061FB002301220621D6
:1009F000042006F05BFB254BFB61254B3C461D4666
:100A00000FCD0FC495E8070084E8070001212148B5
:100A100003F03CFB00233B703B461946F86906F0A7
:100A20008FFDFB6903225A67FB699B6F23F4E06328
:100A300023F0070343F4807343F00103FA699367DB
:100A400004211248FFF730FF0620FFF70FFF0421B3
:100A50000E48FFF749FF0620FFF7EAFE0521F86977
:100A600006F01EFD0C4B1B68986800230222002133
:100A700043F046FC094B01221A7000BF2037BD46E7
:100A8000B0BD00BF4041050000550A000000014014
:100A9000405804000072040094020020A5040020C5
:100AA00080B582B000AF4FF0FF337B60184B1B78EE
:100AB00083F00103DBB2002B01D0FFF785FF05F0C7
:100AC000B7F93860134B1B68002B18DD124B1B68FD
:100AD000124AD35CDBB27B600F4B1B6801330E4ABA
:100AE00013600D4B1B68082B02D10B4B00221A60C0
:100AF000084B1B68013B074A1360FFF711FF38687A
:100B000005F0A6F97B6818460837BD4680BD00BFD2
:100B1000A504002098040020900400209C040020DC
:100B200080B582B000AF0346FB710F4B1B7883F09A
:100B30000103DBB2002B01D0FFF746FF0B4B1B7804
:100B4000002B06D0FB790A2B03D10D21084806F0B3
:100B500021FEFB791946064806F01CFEFB79184673
:100B60000837BD4680BD00BFA5040020A4040020B6
:100B70000000014080B483B000AF0346FB7197F9D9
:100B80000730002B0CDBFB7903F01F02074997F9B4
:100B900007305B09012000FA02F2603341F823209C
:100BA00000BF0C37BD465DF8047B704700E100E0F4
:100BB00080B400AF034B9B681846BD465DF8047BCC
:100BC000704700BF0020064080B58AB000AF002308
:100BD00087F82730002387F82630002387F8253050
:100BE000002387F82430002387F82330534A3B46FC
:100BF00007CA03C31A800023FB610023BB61504B6B
:100C0000D3F8B03003F00103002B06D101214D4889
:100C100003F03CFA012387F827304B4804F0E2F850
:100C20000346FB75FB7D032B02D0012387F825309B
:100C3000434BD3F8903003F04003002B02D1012343
:100C400087F824300321404804F066FA3F4803F057
:100C500001FA38613A4BD3F8F03003F00103002B6E
:100C600006D10121394803F011FA012387F8263013
:100C700005F0DEF8F860364B1B6803F00103002B2B
:100C800015D0334B1B68FB61314B5B6ABB61304B4A
:100C900000221A602E4B00225A622D4B40F2FF7246
:100CA0001A621F20FFF766FF012387F82330002315
:100CB000BB700023FB7008233B713B46184606F0CF
:100CC000DFFA00F065F8F86805F0C2F897F823300D
:100CD000002B0AD039691D4803F0C9F91C4AFB6989
:100CE00013601B4ABB69536202E0002006F0B6FAAB
:100CF00097F82630002B03D00021144803F0C6F9E2
:100D000097F82530002B04D0FB7D19460E4804F0DF
:100D100003FA97F82430002B04D000220021012090
:100D200004F066FE97F82730002B03D00021054819
:100D300003F0ACF900BF2837BD4680BD5C58040005
:100D400000400E4000050A0005002400A009140020
:100D50000020064080B483B000AF78607B680B4908
:100D6000002B0CD0013B88221202003253430A6848
:100D7000D80AD20A5043800901D00138FDD800BFFB
:100D80000C37BD465DF8047B704700BF10000020A3
:100D900080B584B000AF0823BB60334B4FF4805262
:100DA0001A601AE000F062F8786000BF00F05EF8A8
:100DB00002467B689342F9D000F058F878602A4BDD
:100DC0001B68184600F059F800F050F802467B689E
:100DD000D31A7B607B68002B07D1234B1B685B0019
:100DE000214A1360002BDDD100E000BF1E4B1B68C1
:100DF0005B081D4A13601C4B1B68FB6024E01A4B08
:100E00001A68FB681343184A136000F02FF87860E3
:100E100000BF00F02BF802467B689342F9D000F047
:100E200025F87860104B1B68184600F026F800F093
:100E30001DF802467B68934206D0FB68DA430A4BF2
:100E40001B681340084A1360BB685A1EBA60002B27
:100E500005D0FB685B08FB60FB68002BCFD100BFAF
:100E60001037BD4680BD00BF1000002080B500AF28
:100E7000FFF79EFE0346184680BD80B483B000AFE6
:100E800078607B68013BFDD800BF0C37BD465DF83C
:100E9000047B704780B483B000AF78607B681846ED
:100EA0000C37BD465DF8047B704780B584B000AF59
:100EB00003463960FB7107F10802F9790423022027
:100EC00000F0F8F8F8603B7A9AB27B7A9BB21B028A
:100ED0009BB213439AB23B681A80FB6818461037DE
:100EE000BD4680BD80B584B000AF03460A46FB71A5
:100EF0001346BB80BB88DBB23B73BB881B0A9BB22B
:100F0000DBB27B730023BB730023FB7307F10C027E
:100F1000F9790423012000F0CDF803461846103774
:100F2000BD4680BD80B584B000AF03463960FB711B
:100F3000F97904233A68022000F0BCF8F8603B68B5
:100F40001B681846FFF7A6FF02463B681A60FB685D
:100F500018461037BD4680BD80B582B000AF03464D
:100F60003960FB713B681846FFF794FF03463B600E
:100F70003A46F9790423012000F09CF8034618460C
:100F80000837BD4680BD80B584B000AF7860396059
:100F90003B687A680221022000F08CF8F860FB6858
:100FA00018461037BD4680BD80B584B000AF78606C
:100FB00039603B687A680221012000F07BF8F86014
:100FC000FB6818461037BD4680BD80B586B000AFBF
:100FD000F860B9607A607B68B3F5005F01D32123C4
:100FE0000FE0F9680420FFF7B7FF78617B69002BF9
:100FF00006D17B68BA680521012000F05BF87861B2
:101000007B6918461837BD4680BD80B584B000AFF7
:101010007860396079680420FFF79EFFF860FB680C
:10102000002B04D139680520FFF796FFF860FB68B4
:1010300018461037BD4680BD80B586B000AF7860D9
:10104000396079680420FFF787FF386107F10C03E6
:1010500019460020FFF766FF3861FB6843F4005330
:1010600019460020FFF778FF386100237B6111E00B
:1010700007F10C0319460020FFF754FF3861FB68A5
:1010800003F40053002B09D0012041F063FC7B697D
:1010900001337B617B69132BEAD900E000BF39681B
:1010A0000520FFF73FFF38613B6918461837BD46FA
:1010B00080BD000080B586B000AFBA607B6003469B
:1010C000FB730B46BB73424B1B6893F8223203F051
:1010D0000803002B1AD0012041F0E6FB78617B6900
:1010E000002B68D1FB7B012B05D141F01BFC786103
:1010F0007B69002B61D1364B1B6893F82222344B5D
:101100001B6822F00802D2B283F82222FB7B022B5A
:1011100007D1BB7B7A68B968184642F023F878613A
:101120000CE0FB7B012B07D1BB7B7A68B9681846C2
:1011300042F086F8786101E021237B617B69002B16
:101140003DD1234B1B6893F8223203F01003002B90
:1011500037D0FB7B022B34D1BB7B012B31D01C4B16
:101160001B68B3F80632012B2BD87B68023BBA68A8
:1011700013441B88C3F30B03002B22D1B97BFB7BE9
:101180007A68184641F0DEFF024640F608339A427C
:1011900017D10F4B1B6893F822220D4B1B6842F0AE
:1011A0000802D2B283F82222002041F07DFB786150
:1011B0007B69002B05E000BF04E000BF02E000BF38
:1011C00000E000BF7B6918461837BD4680BD00BFF0
:1011D000E05B002080B483B000AF78607B68184685
:1011E0000C37BD465DF8047B704780B582B000AF18
:1011F000786020220021786842F067FF00BF08373E
:10120000BD4680BD80B485B000AF0346FB710F4B77
:101210001B68FA79D208D2B2134493F850321946B7
:10122000FB7903F00703012202FA03F30B40002BC2
:1012300002DD0123FB7301E00023FB73FB7B1846F7
:101240001437BD465DF8047B704700BFE05B0020AB
:1012500080B590B002AF78600B46FB700023FB6056
:101260008723FB70FB783B7407F1100301332022C6
:101270007968184642F005FF07F1100107F10C03E9
:10128000009300232122272000F07CFE78637B6BF3
:10129000002B0BD1FB685B681846FFF79BFF0346EA
:1012A0002721184601F094FC786300E000BF7B6BB7
:1012B00018463837BD4680BD80B588B000AF78602D
:1012C00039600023FB6100233B610023FB600023A6
:1012D000BB6168237B6107F110007B690222282132
:1012E00001F02CFDF861FB69002B3AD13B69043316
:1012F000BB610120FFF76EFF0246BB691A60796887
:10130000B86942F0DFF8F861FB69002B2BD1BB69AB
:10131000043320221946386842F0B3FE3B697A69EB
:1013200092B21946282000F0ADFEF861FB69002B4F
:101330001BD107F10C031A4641F28831282041F0F5
:101340002FFBF861FB69002B11D1FB685B68184625
:10135000FFF740FF03462821184601F039FCF861E9
:1013600006E000BF04E000BF02E000BF00E000BFF5
:101370003B69002B05D03B6902222821184601F069
:1013800033FDFB6918462037BD4680BD80B58AB065
:1013900000AF2F4B1B68022283F880222C4B1B6866
:1013A00003F223233A4611461846FFF785FF786279
:1013B0007B6A002B39D1E52041F0DCFA78627B6A48
:1013C000002B34D107F120031A4641F28831E52081
:1013D00041F0E6FA78627B6A002B2AD13B6A5B68AF
:1013E0001846FFF7F7FE03469E2B03D040F6143352
:1013F0007B6221E03B6A5B681846FFF7EBFE034621
:10140000E521184601F0E4FB78627B6A002B12D1DB
:10141000386A0F4B1B6803F223233A46194642F001
:10142000D1F878627B6A002B06E000BF04E000BFC1
:1014300002E000BF00E000BF42F074F9044B1B68FB
:10144000002283F880227B6A18462837BD4680BD7B
:10145000E05B002080B58EB002AF78600B46FB7079
:1014600007F1080320227968184642F00AFEFB784B
:101470001846FFF7AFFE0346BB6207F108010023E1
:10148000009300232422292000F07CFDF862FB6AEF
:10149000002B09D1074B1B6803F5147320227968D0
:1014A000184642F0EEFD00E000BFFB6A18463037F8
:1014B000BD4680BDE05B002080B582B000AF7860A3
:1014C0002022FF21786842F000FEE021786800F0D9
:1014D00020F8E421786800F01CF8E121786800F039
:1014E00018F8E221786800F014F82821786800F0F4
:1014F00010F8E521786800F00CF84A21786800F0CF
:1015000008F8CA21786800F004F800BF0837BD4623
:1015100080BD80B483B000AF78600B46FB70FB7871
:10152000DB08DBB21A467B6813441B785AB2FB789F
:1015300003F00703012101FA03F35BB2DB435BB263
:1015400013405AB2FB78DB08DBB219467B680B44C8
:10155000D2B21A7000BF0C37BD465DF8047B7047ED
:1015600080B483B000AF0346FB80FB8818460C377D
:10157000BD465DF8047B704780B483B000AF7860EF
:101580007B6818460C37BD465DF8047B7047000049
:1015900090B591B000AF7860A84B1B68002283F82B
:1015A00080224FF421720021786842F08EFDA34A18
:1015B0007B681360A14B1B680022A3F8062241F050
:1015C00081FEF863FB6B002B40F00D8100F0D0FF33
:1015D000F863FB6B002B40F0088101F073F8F863AF
:1015E000FB6B002B40F00381E12041F0C3F9F8636D
:1015F000FB6B002B40F0FD8001F0B6F8F863FB6B4D
:10160000002B40F0F88000F047FFF863FB6B002BE5
:1016100040F0F38000F08EFFF863FB6B002B40F08E
:10162000EE8007F134031A4641F28831E12041F09F
:10163000B7F9F863FB6B002B40F0E3807B6B93F80A
:1016400038207B6883F800227B6B93F839207B6815
:1016500083F801227B6B93F83A207B6883F802229F
:101660007B6803F216207B6B26330622194642F074
:1016700008FD7B6803F507707B6B2C330622194647
:1016800042F0FFFC7B6B1B8C9BB21846FFF768FF98
:1016900003461A466A4B1A807B6803F502707B6B1F
:1016A0000A330E22194642F0ECFC012041F0FCF80E
:1016B0007B6B93F83430C3F30103DBB287F83A3025
:1016C0005E4B1B6803F22323184641F0D5FEF863F6
:1016D000FB6B002B4BD197F83A30032B00F2938031
:1016E00001A252F823F000BF731700007317000027
:1016F000F916000011170000504B1B6803F223235A
:1017000087211846FFF7A4FDF863FB6B002B7CD103
:10171000FFF73CFEF863FB6B002B78D107F10C035D
:101720001846FFF762FD07F10C031846FFF7C4FEE9
:1017300097F83A30022B05D107F10C0329211846FE
:10174000FFF7E7FE3D4B1B6803F5147307F10C012F
:101750002022184642F095FC07F10C0300211846A0
:10176000FFF778FEF863FB6B002B52D102E000BF5D
:1017700000E000BF07F13203184641F009F8F863B2
:10178000FB6B002B47D1002387F83B301FE097F815
:101790003B309AB207F12C031146184640F0E2FFA5
:1017A000F863FB6B002B38D1FC6AFB6A184642F0E9
:1017B000D7FE03461946204600F066FBF863FB6B34
:1017C000002B2CD197F83B30013387F83B3097F84A
:1017D0003B309AB27B8E9A42D9D3184B1B680122B8
:1017E00083F822221CE000BF1AE000BF18E000BF0F
:1017F00016E000BF14E000BF12E000BF10E000BF21
:101800000EE000BF0CE000BF0AE000BF08E000BF30
:1018100006E000BF04E000BF02E000BF00E000BF40
:10182000FB6B002B05D000F05EFE41F01DFE40F08A
:10183000BDFFFB6B18464437BD4690BDE05B002002
:10184000A804002080B58AB000AFF860B9607A6063
:101850007B8000237B620023BB6100237B6100232C
:101860003B62B7F84830013323F001037833FB6162
:1018700007F11800FB690222432101F05FFA786248
:101880007B6A002B40F08580BB690022DA70BB695F
:1018900004333B62B868FFF76FFE02463B6A1A608A
:1018A0007B881846FFF75CFE03461A463B6A5A855A
:1018B0003B6A97F8302083F82C203B6A97F8342055
:1018C00083F82D203B8F1846FFF74AFE03461A4641
:1018D0003B6ADA85B7F840301846FFF741FE034609
:1018E0001A463B6A1A86B7F848301846FFF738FEA2
:1018F00003461A463B6AA3F872203B6A0433BA686F
:10190000F968184642F0BDFB3B6A3233B7F8402015
:10191000F96B184642F0B5FB3B6A7433B7F84820C0
:10192000796C184642F0ADFB7B68002B07D03B6A10
:10193000243379680622184642F0A3FB06E03B6A8E
:1019400024330622FF21184642F0BFFBBB69FA6927
:1019500092B21946432000F095FB78627B6A002B17
:1019600019D107F114031A4641F28831432041F09E
:1019700017F878627B6A002B0FD17B695B68184689
:10198000FFF7FAFD03464321184601F021F978627A
:1019900004E000BF02E000BF00E000BF7B6A072B4D
:1019A0000DD10E4B1B68B3F80632002B07D00B4B42
:1019B0001B68B3F80622013A92B2A3F80622BB696B
:1019C000002B05D0BB6902224321184601F00CFA16
:1019D0007B6A18462837BD4680BD00BFE05B00200B
:1019E00080B582B002AF00230093002300220021C3
:1019F000442000F0C7FA03461846BD4680BD0000EB
:101A000080B58AB000AFB9607A601A460346FB81A0
:101A100013467B7300237B620023BB6100237B6141
:101A200000233B62B7F84820B7F850301A44B7F8A3
:101A30004810B7F850300B449BB203F00103134435
:101A40007433FB6107F11800FB690222452101F0A4
:101A500075F978627B6A002B40F08A80BB690222AC
:101A6000DA70BB6904333B627868FFF785FD024694
:101A70003B6A1A603B6A7A7B83F824203B6A97F8BA
:101A8000302083F825203B6A97F8342083F82620FD
:101A90003B6A97F8382083F82720FB891846FFF720
:101AA0005FFD03461A463B6A1A85B7F84030184670
:101AB000FFF756FD03461A463B6A5A85B7F8483089
:101AC0001846FFF74DFD03461A463B6AA3F86C2003
:101AD000B7F850301846FFF743FD03461A463B6AF5
:101AE000A3F86E203B6A04337A68B968184642F05E
:101AF000C8FA3B6A2C33B7F84020F96B184642F01D
:101B0000C0FA3B6A7033B7F84820796C184642F047
:101B1000B8FA3B6A03F17002B7F848301344B7F8DB
:101B20005020F96C184642F0ACFABB69FA6992B2DF
:101B30001946452000F0A6FA78627B6A002B19D17D
:101B400007F114031A4641F28831452040F028FF7E
:101B500078627B6A002B0FD17B695B681846FFF7C0
:101B60000BFD03464521184601F032F8786204E087
:101B700000BF02E000BF00E000BF7B6A072B0DD171
:101B80000D4B1B68B3F80632002B07D00A4B1B68BD
:101B9000B3F80622013A92B2A3F80622BB69002BE1
:101BA00005D0BB6902224521184601F01DF97B6A68
:101BB00018462837BD4680BDE05B002080B582B066
:101BC00002AF00230093012300220021472000F0F0
:101BD000D9F903461846BD4680BD000080B586B0E1
:101BE00000AFF860B96011461A460B46FB71134608
:101BF000BB71BB68013323F001030C337B61214BC4
:101C00001B68B3F80422013292B2A3F80422BB6825
:101C10009BB20C339BB21846FFF7A2FC03461A4650
:101C2000FB681A80FB684A229A70FB795B00DBB282
:101C300003F00603DAB2FB68DA70FB6808221A7157
:101C4000FB68BA795A710F4B1B68B3F80432184617
:101C5000FFF786FC03461A46FB68DA80B868FFF790
:101C60008BFC0246FB689A607B699BB21A46F96856
:101C70004A2000F007FA38613B6918461837BD461C
:101C800080BD00BFE05B002080B58CB000AFB960C4
:101C90007B600346FB811346BB810023FB6200236C
:101CA000BB610023BB6200237B6200237B61B98997
:101CB0003A8F1346DB0013449B00CA18B7F8403034
:101CC000134406333B623B6A013323F001030C33B8
:101CD000FB6107F11800FB6902224B2101F02EF88D
:101CE000F862FB6A002B40F08E80BB690022DA703C
:101CF000BB6904337B62FB891846FFF731FC03465E
:101D00001A467B6A1A80BB891846FFF729FC0346EE
:101D10001A467B6A5A803B8F1846FFF721FC034620
:101D20001A467B6A9A80B7F840301846FFF718FCCD
:101D300003461A467B6ADA807B6A0833BB62BB893A
:101D4000002B09D0BB891A46B968B86A42F099F9E4
:101D5000BB89BA6A1344BB623B8F002B12D03A8F07
:101D60001346DB0013449B001A467968B86A42F0B8
:101D700088F93A8F1346DB0013449B001A46BB6A6E
:101D80001344BB62B7F84030002B0BD0B7F840309B
:101D90001A46F96BB86A42F074F9B7F84030BA6A7B
:101DA0001344BB627B6C002B05D00622796CB86AA9
:101DB00042F067F904E00622FF21B86A42F085F993
:101DC000BB69FA6992B219464B2000F05BF9F862E0
:101DD000FB6A002B19D107F114031A4641F288312E
:101DE0004B2040F0DDFDF862FB6A002B0FD17B69D0
:101DF0005B681846FFF7C0FB03464B21184600F00E
:101E0000E7FEF86204E000BF02E000BF00E000BFB0
:101E1000FB6A072B0DD10E4B1B68B3F80632002B63
:101E200007D00B4B1B68B3F80622013A92B2A3F815
:101E30000622BB69002B05D0BB6902224B21184644
:101E400000F0D2FFFB6A18463037BD4680BD00BFA8
:101E5000E05B002080B586B002AF7860796807F15A
:101E600008030622184642F00CF907F10801002386
:101E70000093012306224F2000F084F80346184601
:101E80001037BD4680BD000080B588B000AF7860D7
:101E900039600023FB6100233B610023FB600023CA
:101EA000BB613B68013323F0010306337B6107F11B
:101EB00010007B690222092100F040FFF861FB69F4
:101EC000002B38D13B690022DA703B690433BB61D7
:101ED0003B689BB21846FFF743FB03461A46BB69B3
:101EE0001A80BB6902333A687968184642F0C9F82B
:101EF0003B697A6992B21946092000F0C3F8F8618B
:101F0000FB69002B19D107F10C031A4641F2883105
:101F1000092040F045FDF861FB69002B0FD1FB68FB
:101F20005B681846FFF728FB03460921184600F0B6
:101F30004FFEF86104E000BF02E000BF00E000BF18
:101F4000FB69072B0DD10E4B1B68B3F80632002B33
:101F500007D00B4B1B68B3F80622013A92B2A3F8E4
:101F600006223B69002B05D03B6902220921184655
:101F700000F03AFFFB6918462037BD4680BD00BF20
:101F8000E05B002080B588B000AFB9607A601A4687
:101F90000346FB731346BB7300233B617B6801332D
:101FA00023F001030433BB61F97B07F11000BB6927
:101FB000022200F0C3FEF861FB69002B3CD1BB7B21
:101FC0005B00DAB23B6902F00602D2B2DA70BB689B
:101FD000002B06D03B6904337A68B968184642F092
:101FE00050F83969BB699AB2FB7B184600F04AF891
:101FF000F861FB69002B21D107F11402FB7B41F250
:102000008831184640F0CCFCF861FB69002B17D1F1
:10201000BB6A002B03D07A69BB6A1A6011E07B6946
:102020005B681846FFF7A8FA0246FB7B1946104684
:1020300000F0CEFDF86104E000BF02E000BF00E068
:1020400000BFFB69072B0DD10D4B1B68B3F806329F
:10205000002B07D00A4B1B68B3F80622013A92B254
:10206000A3F806223B69002B05D03B69F97B0222CD
:10207000184600F0B9FEFB6918462037BD4680BD02
:10208000E05B002080B588B000AF03463960FB718B
:102090001346BB801A23FB6140F0C0FCF861FB696A
:1020A000002B40F0A6805D4B1B68B3F806225C4B0A
:1020B0001B889A4280F09F803B68FA799A70BB88AF
:1020C0001846FFF74DFA03461A463B681A80534BF1
:1020D0001B6893F88032022B05D1FB79282B02D0A4
:1020E0000123FB618EE0FB791846FFF78BF803466E
:1020F000012B64D10023FB6000233B61474B1B682D
:10210000D3F84C327B61BB880D339BB223F00F03B5
:102110009BB20233BB80BB88023B19463F4B1B6816
:1021200003F51C7207F10C03386841F07FFBF8617E
:10213000FB69002B61D13B68043BBB61374B1B68DB
:10214000D3F84C329BB21846FFF70AFA03461A46F8
:10215000BB691A80BB690233BB61304B1B68D3F883
:102160004C321B0C9BB2C3F30D039BB243F4804370
:102170009BB21846FFF7F4F903461A46BB691A806A
:10218000264B1B68D3F84C220132C3F84C22234B58
:102190001B68D3F84C32B3F1005F0AD91F4B1B68A0
:1021A00093F88032002B04D11C4B1B68012283F86A
:1021B0008022BB881433BB803B68043B3B60FB79C7
:1021C000184640F0D7FBF861FB69002B17D1BB889C
:1021D0001946386840F036FDF861FB69002B10D1D4
:1021E0000E4B1B68B3F80622013292B2A3F8062206
:1021F00008E000BF06E000BF04E000BF02E000BF4F
:1022000000E000BF40F022FC0346002B01D0012378
:10221000FB61FB6918462037BD4680BDE05B0020AE
:10222000A804002090B58DB000AF78600023FB605B
:10223000012387F82B3040F0F1FBF862FB6A002B9A
:1022400040F0F5807B681B88C3F30B035B007B6267
:102250007B6A002B18D179680120FEF726FEF86210
:10226000FB6A002B40F0E5807B681B88C3F30B03FF
:102270005B007B627B6A002B06D140F60533FB6274
:10228000FB6A002B40F0D7807B681B889B0B9BB2BE
:1022900087F823307B6A0233FB6197F82330032BE6
:1022A00001D1012300E0022387F82B30FB6903F002
:1022B0003F03002B04D0FB6923F03F03403300E0D1
:1022C000FB6997F82B1007F10C001A4640F076FADC
:1022D000F862FB6A002B40F0B080FB68FA690021CD
:1022E000184641F0F2FEFB68F9691846FEF74BFE0E
:1022F000F862FB6A002B40F0A280654B1B68B3F8C4
:102300000632002B0CD0FB689B785BB2002B07DBFE
:102310005F4B1B68B3F80622013A92B2A3F806227B
:10232000FA687B6A13441B789AB2F9687B6A0133B6
:102330000B441B789BB21B029BB213439AB27B687F
:102340001A80FB68DB7803F0C003002B60D0FB68C9
:10235000BB61FB681B781A46FB6801331B781B02C4
:1023600013437B61BB690233BB61BB691B881B04E0
:102370001A46484B13407A6913437B61FB68DB784C
:102380009B09DBB2022B0AD0032B0ED0012B00D00D
:1023900011E03F4B1B687A69C3F84C220BE03C4BC1
:1023A0001B687A69C3F8482205E0394B1B687A69D3
:1023B000C3F8442200BFFB69183B3B61FB68981DD2
:1023C000334B1B6803F51C731A46396941F0BEF99B
:1023D000F862FB6A002B34D12D4B1B68D3F84832CE
:1023E000B3F1005F06D82A4B1B68D3F84432B3F12F
:1023F000005F0AD9264B1B6893F88032002B04D16A
:10240000234B1B68012283F88022FB680433FB60A6
:10241000FB681B889BB2FC681846FFF7A1F80346CF
:102420002380FB68184640F027FBF8620AE000BFF3
:1024300008E000BF06E000BF04E000BF02E000BF0C
:1024400000E000BFFB68002B08D0F868FB689B78B1
:10245000194697F82B301A4600F0C6FC0C4B1B6847
:1024600093F88032012B06D1094B1B68022283F8B6
:10247000802241F019FA40F0E9FA0346002B01D01E
:102480000123FB62FB6A18463437BD4690BD00BF8E
:10249000E05B00200000FF3F80B582B000AF3CF061
:1024A000DFF978607B68002B15D13B461946002088
:1024B000FEF738FD78607B68002B0ED13B6843F453
:1024C00080333B603B6819460020FEF745FD78608D
:1024D0007B68002B02E000BF00E000BF7B6818466D
:1024E0000837BD4680BD80B582B000AF3B46194677
:1024F0000020FEF717FD78607B68002B12D13B6847
:1025000023F480333B603B6819460020FEF724FD2E
:1025100078607B68002B07D13CF0C8F978607B6855
:10252000002B02E000BF00E000BF7B6818460837C0
:10253000BD4680BD80B582B000AF3B461946002045
:10254000FEF7F0FC78607B68002B0AD13B6823F42F
:10255000806319460020FEF7FFFC78607B68002B43
:1025600000E000BF7B6818460837BD4680BD00000C
:1025700080B584B000AF3B1D19460020FEF7D2FCA9
:10258000F860FB68002B77D149490620FEF7E4FC90
:10259000F860FB68002B71D146490620FEF7DCFC91
:1025A000F860FB68002B6BD143490620FEF7D4FC92
:1025B000F860FB68002B65D140490620FEF7CCFC93
:1025C000F860FB68002B5FD13D490620FEF7C4FC94
:1025D000F860FB68002B59D1BB1C19460120FEF79F
:1025E00064FCF860FB68002B52D17B8843F4805375
:1025F0009BB27B807B8819460120FEF773FCF86054
:10260000FB68002B46D10023BB6013E0BB1C1946BE
:102610000120FEF74AFCF860FB68002B3CD17B8868
:1026200003F40053002B09D1012040F093F9BB685B
:102630000133BB60BB68C72BE8D900E000BF7B88D3
:1026400003F40053002B04D10723FB60FB68002B2D
:1026500024D13B1D19460020FEF764FCF860FB689E
:10266000002B1DD17B6803F48063002B1AD101235A
:10267000FB60FB68002B15E000BF14E000BF12E018
:1026800000BF10E000BF0EE000BF0CE000BF0AE09A
:1026900000BF08E000BF06E000BF04E000BF02E0AA
:1026A00000BF00E000BFFB6818461037BD4680BD84
:1026B0007587200720C02E083C3C3C09442C320B77
:1026C0009764A00C80B582B000AF3B461946234802
:1026D000FEF7B2FC78607B68002B2FD13B46194691
:1026E0000020FEF71FFC78607B68002B28D13B6838
:1026F00023F4A0433B603B6819460020FEF72CFC06
:1027000078607B68002B1DD115491648FEF77DFCCB
:1027100078607B68002B17D13B4619461148FEF7BD
:102720008BFC78607B68002B10D13B680C4A93428D
:102730000ED001237B607B68002B09E000BF08E01E
:1027400000BF06E000BF04E000BF02E000BF00E001
:1027500000BF7B6818460837BD4680BD10C0000921
:102760008EC8AB230040000980B58CB000AF0023B9
:102770003B620023BB603FF08BFFF862FB6A002BDB
:1027800040F06781B449B548FEF73FFCF862FB6A48
:10279000002B40F087810021B148FEF736FCF8623B
:1027A000FB6A002B40F080810021AE48FEF72DFC33
:1027B000F862FB6A002B40F07981AB49A748FEF72D
:1027C00024FCF862FB6A002B40F072816422A74966
:1027D000A74800F0A5F9F862FB6A002B40F06A8177
:1027E00007F110031946A348FEF726FCF862FB6ABE
:1027F000002B40F0618107F1100319469E48FEF757
:102800001BFCF862FB6A002B40F058813B691B0AF5
:10281000DAB29A4B1A709A499048FEF7F6FBF862C2
:10282000FB6A002B40F04C8164228F49904800F0F5
:1028300077F9F862FB6A002B40F044814FF0FF31DA
:102840009048FEF7E2FBF862FB6A002B40F03C8107
:1028500007F10C0318463FF075FFFB68503B194623
:102860008948FEF7D2FBF862FB6A002B40F02E810C
:102870003B1D082118463FF049FFF862FB6A002B18
:1028800040F026817D4B1B787A681146184600F08F
:1028900078F9F862FB6A002B40F01C813B1D402157
:1028A00018463FF033FFF862FB6A002B40F01481BA
:1028B0007B68402219467548FEF787FBF862FB6A81
:1028C000002B40F00B813B1D082118463FF01EFFF6
:1028D000F862FB6A002B40F003817B6808221946EE
:1028E0006B48FEF772FBF862FB6A002B40F0FA803F
:1028F00001216848FEF789FBF862FB6A002B40F073
:10290000F38065495548FEF780FBF862FB6A002BAF
:1029100040F0EC80FB68503BFB60FB68013B9B0A8E
:102920000133BB6100237B6276E007F11003194697
:102930004F48FEF781FBF862FB6A002B40F0D8801D
:102940003B69554A934205D00123FB62FB6A002B89
:1029500040F0D0800023BB6215E00023BB6007F18C
:10296000080319463F48FEF767FBF862FB6A002B35
:1029700040F0C280BB683A6AD31AB3F5F84F06D963
:10298000BB6A0133BB62BB6A632BE6D900E000BFC0
:10299000BB683A6AD31AB3F5F84F06D940F602334A
:1029A000FB62FB6A002B40F0A980FA683B6AD31AED
:1029B000FB61FB69B3F5806F02D94FF48063FB6163
:1029C0003B1DF96918463FF0A1FEF862FB6A002B37
:1029D00040F096803B6AC3F30E0303F1106303F5E6
:1029E00080437B617B68FA6919467869FEF7EDFAE6
:1029F000F862FB6A002B40F085803A6AFB69134459
:102A00003B62396A1648FEF700FBF862FB6A002B4E
:102A10007AD17B6A01337B627A6ABB699A4284D33A
:102A20001E490E48FEF7F1FAF862FB6A002B6DD1E1
:102A300064221A490E4800F073F8F862FB6A002B12
:102A400066D117490548FEF7E0FAF862FB6A002BE9
:102A50005FE000BF5DE000BF785634120CC0000993
:102A600004C0000908C000092143658799EF53BDE0
:102A700010C0000980C00009CCC00009A6040020D5
:102A800099BD53A70040000900C0000914C0000907
:102A900054C000095CC00009BADCCDAB994AC6D469
:102AA00082C84F1700BF34E000BF32E000BF30E003
:102AB00000BF2EE000BF2CE000BF2AE000BF28E0EE
:102AC00000BF26E000BF24E000BF22E000BF20E0FE
:102AD00000BF1EE000BF1CE000BF1AE000BF18E00E
:102AE00000BF16E000BF14E000BF12E000BF10E01E
:102AF00000BF0EE000BF0CE000BF0AE000BF08E02E
:102B000000BF06E000BF04E000BF02E000BF00E03D
:102B100000BF3FF04BFEFB6A18463037BD4680BD14
:102B200080B586B000AFF860B9607A6000237B6141
:102B300013E007F110031946F868FEF77DFA786193
:102B40007B69002B15D13B69BA689A4209D00120F4
:102B50003FF000FF7B68013B7B607B68002BE8D186
:102B600000E000BF3B69BA689A4204D007237B614A
:102B700002E000BF00E000BF7B6918461837BD4681
:102B800080BD80B584B000AF03463960FB713B68FF
:102B90009B793B723B68DB797B720023BB7207F148
:102BA000080310220021184641F0F2FD0346FB7293
:102BB000FA7AFB799A4202D10023FB6002E040F6E8
:102BC0000133FB60FB6818461037BD4680BD00002E
:102BD00080B485B000AF78600B46FB70FB7803F0E3
:102BE0002003002B3DD07B686B2B28D06B2B0FD89C
:102BF000022B27D0022B04D8002B1DD0012B1ED076
:102C00002BE0042B25D0042B1FD35A2B14D024E007
:102C10009E2B11D09E2B04D87C2B10D08D2B0ED048
:102C20001BE041F23422934206D041F256229342F5
:102C300005D0AF2B03D010E00023FB6076E001232A
:102C4000FB6073E02123FB6070E040F60433FB601F
:102C50006CE040F60333FB6068E00123FB6000BFDB
:102C600064E07B68142B5ED801A252F823F000BF09
:102C7000C52C0000CB2C0000D12C0000D92C00006A
:102C8000DF2C0000E72C0000EF2C0000F72C0000E8
:102C9000FF2C0000072D00000F2D0000272D000045
:102CA000272D0000272D0000272D0000272D0000D4
:102CB000272D0000272D0000272D0000172D0000D4
:102CC0001F2D00000023FB6030E02123FB602DE07E
:102CD00040F61833FB6029E00123FB6026E040F654
:102CE0001933FB6022E040F60433FB601EE040F63F
:102CF0001A33FB601AE040F61B33FB6016E040F627
:102D00001C33FB6012E040F61D33FB600EE040F622
:102D10001E33FB600AE040F61F33FB6006E04FF411
:102D20003263FB6002E00123FB6000BFFB681846D2
:102D30001437BD465DF8047B704700BF80B586B090
:102D400000AFF860B9603B601346FB71BB68DBB253
:102D50001846FEF757FA0346012B2BD100233B619F
:102D60003B6803F00F03002B06D03B68DBB203F097
:102D70000F03C3F110033B613A683B69134403F14D
:102D80001402FB791946F8683FF018FD78617B69F9
:102D9000002B21D1FB6818683A683B69134414334F
:102DA0001A46002141F091F9FB681B681A1DFB6867
:102DB0001A6014E0FB793A681946F8683FF0FEFCA7
:102DC00078617B69002B09D1FB681B683A68002198
:102DD000184641F07AF902E000BF00E000BF7B69CD
:102DE00018461837BD4680BD80B584B000AFF86086
:102DF000B9601346FB71BB68DBB21846FEF702FAF6
:102E00000346012B08D1FB68043BFA7911461846AA
:102E10003FF01EFD034605E0FB791946F8683FF0D8
:102E200017FD034618461037BD4680BD80B586B0F5
:102E300000AF324B1B6EFB60304BDB6EFA68134009
:102E4000FB60FB68002B00DAFEE700237B610123B7
:102E50003B614CE0FA683B691340002B41D0274AA4
:102E60003B6993667B691B01254A1344BB60BB68C1
:102E70001B68002B35D0BB689B685A1CBB689A60E6
:102E8000BB681B68BA689168BA68526878699847E5
:102E90000346002B14BF01230023DBB283F00103A0
:102EA000DBB2FB71FB7903F00103FB71BB685B7B59
:102EB000012B16D1FB79002B13D0124A7B695B01E1
:102EC000134403F1080213796FF3410313710D4AA0
:102ED0007B695B01134403F1180213796FF341031B
:102EE00013717B6901337B613B695B003B617B69EB
:102EF000172BAFD900BF1837BD4680BD002000405A
:102F0000AC0400202C06002080B582B000AF7860B1
:102F10007B68022B04D940F29711074800F016FB9A
:102F2000064A7B6804331B01134404331B681846AC
:102F30000837BD4680BD00BFBC58040000200640D5
:102F400080B582B000AF786039607B68022B04D90D
:102F500040F2AB11074800F0F9FA074A7B680433E6
:102F60001B01134404333A681A6000BF0837BD469A
:102F700080BD00BFBC5804000020064080B582B070
:102F800000AF78607868FFF7BFFF03461846083740
:102F9000BD4680BD80B582B000AF786039603968C9
:102FA0007868FFF7CDFF00BF0837BD4680BD000041
:102FB00080B400AF034B9B681846BD465DF8047BA8
:102FC000704700BF0020064080B483B000AF786037
:102FD000044A7B68136200BF0C37BD465DF8047B72
:102FE000704700BF0020064080B483B000AF786017
:102FF000064B5A6A7B68DB43044913404B6200BFAF
:103000000C37BD465DF8047B704700BF00200640CA
:1030100080B483B000AF7860054B5A6A04497B687E
:1030200013434B6200BF0C37BD465DF8047B70470D
:103030000020064080B483B000AF064B5B6A7B6023
:10304000044B9A697B68134018460C37BD465DF8FF
:10305000047B70470020064080B586B000AF02F0C8
:10306000E7FE3861FFF7E6FFF860FB6823F0050331
:103070001846FFF7A9FFFB6803F00403002B30D0CC
:103080001C4B01221A70FFF793FF78610420FFF7B1
:10309000ABFF194B1B687A69D31ABB60B86800F0A4
:1030A0002FF800F095F9786900F0C4F9FFF780FF78
:1030B0007861114B1B687A69D31ABB600120FFF756
:1030C0005DFF02460C4B1B68D31A7B600B4B1B78D1
:1030D000002B03D0BA687B689A42D7D2054B0022F6
:1030E0001A7000F01DFA386902F0B2FE00BF1837FE
:1030F000BD4680BD5C090020580900205D09002004
:10310000F0B587B000AF786000237B6156E1AF492E
:103110007A6913469B001344DB000B441D330022E5
:103120001A70AA497A6913469B001344DB000B44CA
:103130001C331B78002B00F03E81A4497A691346AA
:103140009B001344DB000B44D3E900347A6811463A
:103150004FF00002A24208BF99421AD29B497A69F5
:1031600013469B001344DB000B44D3E900567B68F5
:103170004FF0000429463246C91A62EB0402934C10
:10318000786903469B000344DB002344C3E9001233
:1031900011E18E497A6913469B001344DB000B440E
:1031A0001F331B78002B0AD188497A6913469B008C
:1031B0001344DB000B441C3300221A70E6E07B68EA
:1031C00019464FF00002814C786903469B00034486
:1031D000DB002344D3E900560B4614465B1B64EB2B
:1031E0000604C7E9023479497A6913469B001344FF
:1031F000DB000B440833D3E9004574497A69134670
:103200009B001344DB000B440833D3E90023D7E9C8
:10321000020140F033FDA41A65EB030521462A465E
:103220006A4C786903469B000344DB002344C3E9EE
:10323000001266497A6913469B001344DB000B4475
:1032400010331B68002B50DD60497A6913469B00E0
:103250001344DB000B44143319685C487A69134645
:103260009B001344DB00034410331B681944574888
:103270007A6913469B001344DB000344143319603E
:1032800052497A6913469B001344DB000B44143304
:103290001B681D2B7AD94D497A6913469B0013444C
:1032A000DB000B44D3E90034591C44F10002474CC5
:1032B000786903469B000344DB002344C3E9001202
:1032C00042497A6913469B001344DB000B441433D4
:1032D0001B68A3F11E013D487A6913469B00134405
:1032E000DB0003441433196050E038497A6913460F
:1032F0009B001344DB000B441433196833487A698C
:1033000013469B001344DB00034410331B68C91AA7
:103310002E487A6913469B001344DB0003441433A0
:1033200019602A497A6913469B001344DB000B4459
:1033300014331B681D2B29D924497A6913469B0035
:103340001344DB000B44D3E9003413F1FF3144F1A3
:10335000FF321E4C786903469B000344DB00234484
:10336000C3E9001219497A6913469B001344DB0034
:103370000B4414331B68A3F11E0114487A691346E9
:103380009B001344DB000344143319600F497A692E
:1033900013469B001344DB000B4418331B68002BBF
:1033A00009D00A497A6913469B001344DB000B4499
:1033B0001D3301221A707B6901337B617B69002B0D
:1033C0007FF7A5AE00BF1C37BD46F0BD3009002019
:1033D00090B583B000AF00237B6022E014497A6887
:1033E00013469B001344DB000B441D331B78002B5A
:1033F00014D00F497A6813469B001344DB000B443A
:1034000018331C6878680A497A6813469B0013448D
:10341000DB000B4420331B681946A0477B6801334F
:103420007B607B68002BD9DD00BF0C37BD4690BDAB
:103430003009002090B58BB000AF78604FF0FF33BB
:103440004FF0FF34C7E9063400237B6227E031499F
:103450007A6A13469B001344DB000B441C331B7831
:10346000002B19D02B497A6A13469B001344DB00CA
:103470000B44D3E90012D7E90634A24208BF9942AF
:103480000AD224497A6A13469B001344DB000B449A
:10349000D3E90034C7E906347B6A01337B627B6A77
:1034A000002BD4DD1C4B00221A70D7E90634B4F18E
:1034B000FF3F08BFB3F1FF3F27D0D7E90634C7E984
:1034C00004346FF06403FB60FB6819464FF00002A0
:1034D000D7E90434A24208BF994201D20B461446F0
:1034E000C7E906340D4A7B6813600420FFF76CFDC2
:1034F000BA697B68134419460120FFF74BFD064B60
:1035000001221A700420FFF783FD00BF2C37BD464F
:1035100090BD00BF300900205D090020580900203F
:1035200080B500AFFFF786FD034603F00103002BD3
:1035300007D00120FFF748FD034B1B680133024A07
:10354000136000BF80BD00BF6009002080B483B05D
:1035500000AF78603960FEE780B487B000AFF860F4
:10356000B9607A60FB6803F10473DA00BB68134446
:103570009B007B617B697A681A6000BF1C37BD467F
:103580005DF8047B704780B485B000AF7860396027
:103590007B6803F10473DA003B6813449B00FB6013
:1035A000FB681B6818461437BD465DF8047B7047FE
:1035B00080B485B000AF786039607B6803F1C06388
:1035C000FB60FB683A681A6000BF1437BD465DF8BF
:1035D000047B704780B485B000AF786039607B6849
:1035E00003F18063FB60FB683A681A6000BF143720
:1035F000BD465DF8047B704780B582B000AF78604F
:103600007B681F2B04D94FF496710548FFF79EFF86
:1036100001227B6802FA03F318460837BD4680BDD5
:103620001059040080B584B000AF78607B68B3F5B2
:10363000004F04D340F686310E48FFF787FF7B68C2
:103640000133B3FA83F3DBB2C3F11F03FB60F86805
:10365000FFF7D2FF0346013B7A689A4204D040F656
:103660008C310448FFF772FFFB6818461037BD46DF
:1036700080BD00BF6859040080B500AF00BF1221B3
:103680000348FFF780FF0346002BF8D100BF80BD41
:1036900004300E4080B500AFFFF7EEFF034B5B68D0
:1036A0001B0C03F00303DBB2184680BD00300E4054
:1036B00080B584B000AF78600123FB607B68124A5C
:1036C000934204D80023FB600023BB6008E07B68C2
:1036D0000E4A934202D80123BB6001E00223BB6083
:1036E000FA6810210A48FFF737FF094BD3F8003179
:1036F00023F04072BB681B0605491343C1F8003133
:1037000000BF1037BD4680BD0048E8010090D003DF
:1037100000400E4080B483B000AF054B1B687B6057
:103720007B6818460C37BD465DF8047B704700BFC8
:103730001400002080B582B000AFFCF761FF786014
:10374000064BD3F800311B0A03F01F0301337A68DC
:1037500002FB03F318460837BD4680BD00400E400B
:1037600080B582B000AF0F4801F03CFB0346FB7010
:10377000FB78072B05D0092B07D1FCF741FF7860B8
:103780000BE0FFF7C7FF786007E000237B6040F69F
:10379000D8410548FFF7DAFE00BF7B6818460837B6
:1037A000BD4680BD06000E00BC59040080B584B043
:1037B00000AF78607B68002B02D0012B06D00BE0B5
:1037C000224801F00FFB0346FB720CE0204801F099
:1037D00009FB0346FB7206E040F6F8411D48FFF77F
:1037E000B5FE00232EE0FB7A013B072B21D801A276
:1037F00052F823F015380000333800003338000049
:103800002338000033380000333800001B38000034
:103810002B3800000023FB6013E0FFF77BFFF8600C
:103820000FE0FCF725FFF8600BE0FFF783FFF8607F
:1038300007E00023FB6040F60F510648FFF786FEC5
:1038400000BFFB6818461037BD4680BDB800320087
:10385000B9003400BC59040080B582B000AF1C48E8
:1038600001F0C0FA0346FB70FB78043B062B21D81D
:1038700001A252F823F000BF9D38000095380000E7
:10388000B5380000A5380000B5380000B538000094
:10389000AD3800000F4B1B687B6013E0FCF7E8FEBF
:1038A00078600FE0FFF736FF78600BE00A4B1B688B
:1038B0007B6007E000237B6040F639510748FFF743
:1038C00045FE00BF7B6818460837BD4680BD00BF77
:1038D0000A7B36000C00002018000020BC590400B0
:1038E00080B584B000AF78607B68002B1AD11F4888
:1038F00001F078FA0346FB7200BFFB7A043B062B0B
:1039000027D801A252F823F03B39000033390000D8
:103910005339000043390000533900005339000087
:103920004B39000040F654511148FFF70FFE0023B9
:1039300018E0104B1B68FB6013E0FCF799FEF86081
:103940000FE0FFF7E7FEF8600BE00B4B1B68FB6036
:1039500007E00023FB6040F66B510548FFF7F6FDDA
:1039600000BFFB6818461037BD4680BD0B7C380091
:10397000BC5904000C0000201800002080B582B063
:1039800000AF244801F02EFA0346FB70FB78023B9F
:10399000092B31D801A252F823F000BFE939000009
:1039A000F1390000CD390000E1390000F93900009B
:1039B000F9390000F9390000F9390000C539000073
:1039C000D5390000144B1B687B601DE0FCF750FEEE
:1039D000786019E0FCF74CFE03465B007B6013E067
:1039E0000E4B1B687B600FE0FCF776FE78600BE007
:1039F000FCF760FE786007E000237B6040F6C25170
:103A00000748FFF7A3FD00BF7B6818460837BD468F
:103A100080BD00BF0C7F3A00180000200C00002081
:103A2000BC59040080B584B000AF786039604FF0B5
:103A300080435B6803F04073FB600023BB6012E0CF
:103A40001C4ABB68DB0013441A793B68DBB29A421C
:103A500006D1184ABB6852F833307A689A4206D9C0
:103A6000BB680133BB60BB68062BE9D900E000BF2F
:103A7000BB68072B07D10323FB6040F616610E4895
:103A8000FFF764FD05E00B4ABB68DB0013445B797C
:103A9000FB60FB681B06FB604FF080435B6823F014
:103AA00040724FF08041FB6813434B6000BF1037FA
:103AB000BD4680BD105A0400BC59040080B582B0D8
:103AC00000AF4FF080431B6C002B14BF0123002379
:103AD000FB714FF0804341F671321A64FCF786FDAA
:103AE000034600211846FFF79DFFFB79002B03D00A
:103AF0004FF0804300221A6400BF0837BD4680BDE6
:103B000080B584B000AF786039600C4BFB603B68D7
:103B1000022B01D10A4BFB607A68FB689A4204D9F8
:103B200008490948FFF744FD03E006490648FFF746
:103B300051FD00BF1037BD4680BD00BF80D5430298
:103B40000024F400020202000001004080B582B0AF
:103B500000AF786039607B680B4A934209D93B68B3
:103B6000002B06D14FF480514FF08040FFF720FD2D
:103B700005E04FF480514FF08040FFF72BFD00BF70
:103B80000837BD4680BD00BF80F0FA0280B584B022
:103B900000AF786039604FF080431B6C002B14BF7E
:103BA00001230023FB734FF0804341F671321A6406
:103BB00039687868FFF736FF39687868FFF7A0FF43
:103BC00039687868FFF7C2FFFB7B002B03D04FF00A
:103BD000804300221A6400BF1037BD4680BD00003C
:103BE00080B400AF044B5B6A1B0903F00303184663
:103BF000BD465DF8047B704700400E4080B483B042
:103C000000AF7860074B5B6A23F030027B681B01D2
:103C1000044913434B6200BF0C37BD465DF8047B7B
:103C2000704700BF00400E4090B585B000AF78608F
:103C30000023BB607B68474A934212D0454A9342B7
:103C400003D8454A93420CD005E0444A934208D039
:103C5000434A934205D040F616714248FFF776FC7E
:103C600000E000BF786801F0BDF80346FB607B68A8
:103C7000384A934214D0374A934203D8364A934283
:103C800007D022E0354A934211D0354A934215D0ED
:103C90001BE0354BD3F8803003F00703FB601AE0DC
:103CA000314BD3F8843003F00703FB6013E02E4B55
:103CB000D3F88C3003F00703FB600CE02A4BD3F8F9
:103CC000883003F00703FB6005E040F645712548A6
:103CD000FFF73CFC00BFFB68042B2ED801A252F872
:103CE00023F000BF353D0000F93C0000013D00001D
:103CF000113D0000093D0000FCF7DCFCB86024E049
:103D0000FCF7EAFCB86020E0FCF7DDFCB8601CE0E2
:103D1000FCF74CFC0446144BD3F800311B0E03F0A7
:103D2000030301331846FFF767FC0346B4FBF3F3C4
:103D3000BB600AE00023BB6007E00023BB6040F6E5
:103D40009D710848FFF702FC00BFBB681846143796
:103D5000BD4690BD0300200002001E0004002200AA
:103D600005002400BC59040000400E4080B483B01C
:103D700000AF78600A4BD3F8443103F00103002B05
:103D800008D100BF064BD3F840217B681340002BBD
:103D9000F8D100E000BF0C37BD465DF8047B7047EA
:103DA00000400E4080B500AF0321064800F070FDD2
:103DB0000321054800F06CFD0321044800F068FD74
:103DC00000BF80BD4041050050410700604109002F
:103DD00080B582B000AFFCF713FC3860FFF75AFCE7
:103DE0000346022B1AD13A68224B1344224AA2FB03
:103DF0000323DB0D7B607B68002B02D07B68013BDB
:103E00007B6079681D4800F043FD79681C4800F02C
:103E10003FFD79681B4800F03BFD27E03A681A4BEC
:103E200013441A4AA2FB03231B0E7B607B68002B02
:103E300002D07B68013B7B607968104800F028FD68
:103E40007968104800F024FD3A68114B1344114A78
:103E5000A2FB03239B0E7B607B68002B02D07B6858
:103E6000013B7B607968064800F012FD00BF08370F
:103E7000BD4680BDFF2C31016BCA5F6B4041050020
:103E800050410700604109007FF0FA02893BE65586
:103E9000FFA14A04B5FA9BEE80B483B000AF78600E
:103EA0007B68304A934239D02E4A934213D82E4A27
:103EB000934227D02C4A934206D82C4A934221D0D1
:103EC0002B4A93421ED045E02A4A93421ED02A4AEA
:103ED00093421FD03EE0294A93422BD0274A934277
:103EE00006D8274A93421DD0264A93421ED031E07D
:103EF000254A934226D0254A934227D0244A93420A
:103F00001CD027E0234BD3F8E03024E0214BD3F83A
:103F1000EC3020E01F4BD3F8F8301CE01D4BD3F8F9
:103F2000FC3018E01B4BD3F8003114E0194BD3F8E8
:103F3000083110E0174BD3F80C310CE0154BD3F8D7
:103F4000103108E0134BD3F8143104E0114BD3F8CF
:103F5000183100E0002318460C37BD465DF8047B9D
:103F6000704700BF0024F40000093D0040420F00EC
:103F700080841E00C0CF6A00405DC6000048E80192
:103F8000C0EA210180BA8C01006CDC0280F0FA02E8
:103F900080D54302B081E00F80B400AF034B1B68B3
:103FA0001846BD465DF8047B704700BF1400002032
:103FB00080B584B000AF78607868FFF76DFFF86077
:103FC000FB68002B03D0FB68B3F1FF3F04D141F243
:103FD000CD011948FFF7BAFA184A7B68136000BF91
:103FE00019211748FFF7CFFA0346002BF8D17B6859
:103FF000144A93420DD0144A934211D0134A93426B
:1040000000D012E0FB6823F0C06343F08063FB60E4
:104010000BE0FB6823F0C06343F00073FB6004E037
:10402000FB6823F0C063FB6000BF094AFB68936133
:1040300000BF1037BD4680BDBC59040014000020ED
:1040400040410E4080841E0000093D0040420F00A8
:1040500000400E4080B582B000AF7860786800F014
:10406000ABFA0346013318460837BD4680BD80B51C
:1040700082B000AF786039603B68013B19467868D0
:1040800000F006FC00BF0837BD4680BD80B586B095
:1040900000AF78600B46FB7000233B617B681B0A16
:1040A00003F00F03013B0E2B6AD801A252F823F054
:1040B000ED400000F9400000814100008141000016
:1040C000F3400000054100000F41000019410000CD
:1040D000254100007B4100003141000053410000B8
:1040E00081410000FF40000075410000314B7B61C1
:1040F0004CE0314B7B6149E0304B7B6146E0304B1B
:104100007B6143E02F4B7B6101233B613EE02E4B03
:104110007B6110233B6139E02C4B7B614FF4807352
:104120003B6133E02A4B7B614FF480333B612DE0F0
:10413000284B7B61FB78002B14BF01230023DBB2EB
:1041400083F00103DBB2FB70FB7803F00103FB702B
:104150001CE0214B7B61FB78002B14BF0123002363
:10416000DBB283F00103DBB2FB70FB7803F00103E9
:10417000FB700BE0194B7B6108E0194B7B6105E09C
:1041800041F2A1311748FFF7E1F910E07B681B0B02
:1041900003F01F03FB603B69002B02D03869FFF777
:1041A000E5FDFB781A46F9687869FFF7D5F9183705
:1041B000BD4680BD00400E40B0400E40C0400E40A5
:1041C000C4400E40E0400E40E8400E40EC400E403F
:1041D000F0400E4060410E4064410E40F0410E4000
:1041E00050410E40BC59040080B584B000AF7860E7
:1041F0007B6803F47813B3F5D01F00F04D81B3F55D
:10420000D01F3CD8B3F5402F00F0C980B3F5402F44
:1042100018D8B3F5802F77D0B3F5802F06D8002BB0
:104220006ED0B3F5003F00F0AB80ACE1B3F5002FEA
:1042300000F08880B3F5202F00F09380B3F5C02FF5
:1042400071D0A0E1B3F5901F00F0BD80B3F5901FD1
:1042500008D8B3F5602F00F06281B3F5801F00F03D
:10426000628190E1B3F5B01F00F0CA80B3F5C01FC2
:1042700000F0D880B3F5A01F00F0B48083E1B3F55F
:10428000381F00F0F580B3F5381F1CD8B3F5001FB8
:1042900000F0FD80B3F5001F08D8B3F5E01F00F073
:1042A0000D81B3F5F01F00F089806CE1B3F5201F9C
:1042B00000F02B81B3F5281F00F0C780B3F5101F65
:1042C00000F028815FE1B3F5501F00F03F81B3F5A6
:1042D000501F08D8B3F5401F00F00381B3F5481F05
:1042E00000F025814FE1B3F5601F00F04381B3F585
:1042F000681F00F04481B3F5581F00F0378142E198
:10430000FCF77EF9F86046E1FCF77AF9F860A44B17
:10431000D3F80C311B0AC3F308030133FA68B2FB6C
:10432000F3F3FB6037E1FCF76BF9F8609C4BD3F8D3
:1043300018311B0AC3F308030133FA68B2FBF3F325
:10434000FB6028E1FCF75CF9F860954BD3F81C3171
:104350001B0AC3F308030133FA68B2FBF3F3FB60F3
:1043600019E1FCF74DF9F8608D4BD3F804311B0AC5
:10437000C3F308030133FA68B2FBF3F3FB600AE10D
:10438000FCF73EF9F860864BD3F808311B0AC3F3FB
:1043900008030133FA68B2FBF3F3FB60FBE0FCF7C0
:1043A0002FF9F8607E4BD3F814311B0A03F01F037A
:1043B0000133FA68B2FBF3F3FB60ECE07948FFF7F6
:1043C00033FCF860E7E07748FFF72EFCF860744BA9
:1043D000D3F820311B0C03F00F03FA6822FA03F321
:1043E000FB60D8E07048FFF71FFCF8606C4BD3F817
:1043F000303103F00303FA6822FA03F3FB60CAE0EA
:104400006848FFF711FCF860654BD3F8203103F0E2
:104410000F031846FFF7F0F80246FB68B3FBF2F310
:10442000FB60B8E05F48FFF7FFFBF8605C4BD3F838
:1044300020311B0903F00F031846FFF7DDF8024691
:10444000FB68B3FBF2F3FB60A5E05648FFF7ECFB1B
:10445000F860534BD3F820311B0B03F007031846C9
:10446000FFF7CAF80246FB68B3FBF2F3FB6092E089
:104470004C48FFF7D9FBF860494BD3F820311B0AB1
:1044800003F00303FA6822FA03F3FB6083E0474872
:10449000FFF7CAFBF8607EE04448FFF7C5FBF86011
:1044A0003F4BD3F8283103F003031846FFF7A4F875
:1044B0000246FB68B3FBF2F3FB606CE03B48FFF79E
:1044C000B3FBF860364BD3F828311B0903F0030324
:1044D0001846FFF791F80246FB68B3FBF2F3FB6066
:1044E00059E03248FFF7A0FBF8602D4BD3F8283194
:1044F0001B0B03F0030304331846FFF77DF8024655
:10450000FB68B3FBF2F3FB6045E02948FFF78CFB47
:10451000F86040E02448FFF787FBF8603BE0FFF7D6
:104520001FF9F86037E0FFF7F5F8F86033E0002096
:10453000FFF73CF9F8601A4BD3F85C3103F0030342
:104540000133FA68B2FBF3F3FB6024E00120FFF7CC
:104550002DF9F860124BD3F85C311B0C03F0030308
:104560000133FA68B2FBF3F3FB6014E0FFF774F970
:10457000F86010E00020FFF7B3F9F8600BE0FFF7F8
:10458000FDF9F86007E00023FB6041F2C7410948EC
:10459000FEF7DCFF00BFFB6818461037BD4680BD44
:1045A00000400E4002001E00050024000300200011
:1045B00004002200BC59040080B584B000AF7860CC
:1045C0007B681B0903F00F03BB60BB68013B0B2B2F
:1045D00000F2348101A252F823F000BF0D46000022
:1045E0001D4600002D4600003D4600004D460000DF
:1045F0005D4600006D4600007D4600004947000012
:10460000C5470000ED4700002D480000924BD3F84D
:1046100000311B0A03F01F03FB6017E18E4BD3F838
:1046200014311B0A03F01F03FB600FE18A4BD3F820
:1046300000311B0E03F00303FB6007E1864BD3F848
:104640000C311B0AC3F30803FB60FFE0824BD3F875
:1046500018311B0AC3F30803FB60F7E07E4BD3F865
:104660001C311B0AC3F30803FB60EFE07A4BD3F85D
:1046700008311B0AC3F30803FB60E7E07B68774A55
:1046800093422ED0754A934206D8754A934244D03D
:10469000744A93420AD04EE0734A93422FD0734A31
:1046A000934210D0724A934229D044E06A4BD3F827
:1046B000203103F00F03FB60F868FEF79DFF03460F
:1046C000013BFB603FE0644BD3F820311B0A03F051
:1046D0000303FB60F868FEF78FFF0346013BFB60B6
:1046E00031E05D4BD3F820311B0903F00F03FB6071
:1046F000F868FEF781FF0346013BFB6023E0564B61
:10470000D3F820311B0B03F00703FB60F868FEF7BA
:1047100073FF0346013BFB6015E04F4BD3F820319C
:104720001B0C03F00F03FB60F868FEF765FF034600
:10473000013BFB6007E00023FB6041F23A514D482A
:10474000FEF704FF00BF81E07B684B4A934212D022
:104750004A4A93421DD04A4A93422AD13E4BD3F84B
:10476000283103F00303FB60F868FEF745FF0346BA
:10477000013BFB6025E0384BD3F828311B0903F0DF
:104780000303FB60F868FEF737FF0346013BFB605D
:1047900017E0314BD3F828311B0B03F00303FB6008
:1047A000FB6804331846FEF727FF0346013BFB6016
:1047B00007E00023FB6041F25E512E48FEF7C6FE83
:1047C00000BF43E07B682F4A934206D1224BD3F8C7
:1047D000303103F00303FB6007E00023FB6041F28C
:1047E0006D512448FEF7B2FE00BF2FE07B68264AD9
:1047F000934203D0254A934207D00EE0164BD3F8DC
:104800005C3103F00303FB600FE0134BD3F85C3122
:104810001B0C03F00303FB6007E00023FB6041F285
:1048200085511448FEF792FE00BF0FE00A4BD3F803
:1048300004311B0AC3F30803FB6007E00023FB609D
:1048400041F292510B48FEF781FE00BFFB6818460B
:104850001037BD4680BD00BF00400E4080161800D6
:10486000804612008006160000362C0080262E009E
:1048700080002A00BC59040090171C0090373000BB
:1048800090071A00A0091400B8003200B9003400E3
:1048900080B584B000AF786039607B681B0903F095
:1048A0000F03FB60FB68013B0B2B00F2808201A22F
:1048B00052F823F0E548000041490000AF4D0000E8
:1048C0006949000097490000C5490000F34900000C
:1048D0004D4A0000054C0000D14C0000154D000071
:1048E000814D00003B681F2B04D941F2BA51BA48F0
:1048F000FEF72CFEFFF7E2F8B848FEF7D9FEFFF707
:1049000051FAB74BD3F8003123F4F8523B681B023D
:10491000B3491343C1F80031FBF748FEB860FEF716
:10492000B9FE03461946B868FFF730F9AD48FFF7FE
:104930005BFC03461846FEF7BBFEFFF749FA3CE274
:104940003B681F2B04D941F2D051A348FEF7FEFD6E
:10495000A34BD3F8143123F4F8523B681B02A0494F
:104960001343C1F8143128E23B68B3F5007F04D348
:1049700041F2D7519848FEF7E9FD994BD3F80C3135
:1049800023F4FF3323F480733A68120294491343EB
:10499000C1F80C3111E23B68B3F5007F04D341F25A
:1049A000DE518D48FEF7D2FD8D4BD3F8183123F43C
:1049B000FF3323F480733A68120289491343C1F824
:1049C0001831FAE13B68B3F5007F04D341F2E651B8
:1049D0008148FEF7BBFD824BD3F81C3123F4FF3333
:1049E00023F480733A6812027D491343C1F81C31E5
:1049F000E3E13B68B3F5007F04D341F2ED51764823
:104A0000FEF7A4FDFFF75AF87448FEF751FE744B09
:104A1000D3F8083123F4FF3323F480733A68120289
:104A20006F491343C1F80831FBF7C0FDB860FEF7CA
:104A300031FE03461946B868FFF7A8F86948FFF742
:104A4000D3FB03461846FEF733FEB6E17B68664AA1
:104A5000934266D0644A934209D8644A93422ED066
:104A6000634A934242D0634A93420CD0ACE0624A1C
:104A7000934200F08D80614A93426ED0604A934227
:104A800000F08680A0E03B68B3F5004F04D941F206
:104A900001615148FEF75AFD3868FEF7C3FD3860E2
:104AA0000420FFF763F94E4BD3F8203123F4702232
:104AB0003B681B044A491343C1F820318AE03B6834
:104AC000022B04D941F212614348FEF73FFD4FF437
:104AD0008020FFF74BF9424BD3F8303123F003022B
:104AE0003F493B681343C1F8303173E03B68B3F58D
:104AF000004F04D941F22F613748FEF727FD38688F
:104B0000FEF790FD38600420FFF730F9344BD3F8FE
:104B1000203123F00F0232493B681343C1F82031A2
:104B200058E03B68B3F5004F04D941F23E612A4892
:104B3000FEF70CFD3868FEF775FD38600420FFF7BE
:104B400015F9274BD3F8203123F0F0023B681B0105
:104B500023491343C1F820313CE03B68082B04D9BA
:104B600041F24D611C48FEF7F1FC3868FEF75AFD32
:104B700038600420FFF7FAF8194BD3F8203123F4FA
:104B800040723B681B0216491343C1F8203121E0F3
:104B90003B68B3F5004F04D941F25D610E48FEF762
:104BA000D5FC3868FEF73EFD38600420FFF7DEF8DC
:104BB0000B4BD3F8203123F4E0423B681B03084938
:104BC0001343C1F8203105E041F26B610248FEF762
:104BD000BDFC00BFF1E000BFBC5904000148E80182
:104BE00000400E4000050A0080161800A0091400BD
:104BF000800616008046120000362C0080262E000B
:104C000080002A007B686F4A93421FD06E4A93420D
:104C100037D06E4A934254D13B68082B04D941F2F5
:104C200074616B48FEF792FC3868FEF7FBFC386055
:104C30004020FFF79BF8674BD3F8283123F003029D
:104C400064493B681343C1F8283140E03B68082BB6
:104C500004D941F283615E48FEF778FC3868FEF7BC
:104C6000E1FC38604020FFF781F85A4BD3F8283137
:104C700023F030023B681B0156491343C1F8283129
:104C800025E03B687F2B02D83B680E2B04D841F20D
:104C900092614F48FEF75AFC3868FEF7C3FC0346A2
:104CA000043B3B604020FFF761F84A4BD3F82831C2
:104CB00023F440523B681B0346491343C1F8283193
:104CC00005E041F2A1614248FEF740FC00BF74E0FC
:104CD0007B68414A934216D13B68022B04D941F2CA
:104CE000AB613B48FEF732FC4FF48020FFF73EF803
:104CF000384BD3F8303123F0030236493B68134375
:104D0000C1F8303105E041F2BB613148FEF71EFCCD
:104D100000BF52E07B68314A934203D0304A93424D
:104D200013D026E03B68032B04D941F2C661284822
:104D3000FEF70CFC274BD3F85C3123F00302254926
:104D40003B681343C1F85C3119E03B68032B04D97D
:104D500041F2CE611E48FEF7F9FB1E4BD3F85C31E1
:104D600023F440323B681B041A491343C1F85C31F9
:104D700005E041F2D4611648FEF7E8FB00BF1CE0F5
:104D80003B68B3F5007F04D341F2DC611048FEF7C5
:104D9000DDFB104BD3F8043123F4FF3323F480738D
:104DA0003A6812020B491343C1F8043105E041F29D
:104DB000E3610748FEF7CAFB00BF00BF1037BD46DE
:104DC00080BD00BF90171C009037300090071A007C
:104DD000BC59040000400E40A0091400B800320085
:104DE000B900340080B584B000AF78600123FB7354
:104DF0007B6803F00F03BB60BB68013B0B2B00F229
:104E0000748101A252F823F0394E0000954E000043
:104E1000C54E00003D4F00000D4F00006D4F0000DB
:104E2000EB500000914F0000D34F000017500000DE
:104E30005750000097500000B54BD3F8943003F062
:104E40000703023B052B21D801A252F823F000BF33
:104E5000754E00006F4E0000694E00007B4E000052
:104E6000874E0000814E00000223FB7311E00323F4
:104E7000FB730EE00423FB730BE00D23FB7308E0D0
:104E80000E23FB7305E00A23FB7302E00523FB738B
:104E900000BF37E19E4BD3F8803003F00703022BAD
:104EA00006D0042B07D0012B08D10323FB7308E0A5
:104EB0000223FB7305E00C23FB7302E00123FB7369
:104EC00000BF1FE1924BD3F8843003F00703013B8E
:104ED000032B17D801A252F823F000BFED4E0000BB
:104EE000F34E0000FF4E0000F94E00000323FB7359
:104EF0000BE00223FB7308E00C23FB7305E00623A1
:104F0000FB7302E00123FB7300BFFBE0804BD3F88F
:104F1000883003F00703022B06D0042B07D0012BA7
:104F200008D10323FB7308E00223FB7305E00C2385
:104F3000FB7302E00123FB7300BFE3E0744BD3F883
:104F40008C3003F00703022B06D0042B07D0012B73
:104F500008D10323FB7308E00223FB7305E00C2355
:104F6000FB7302E00123FB7300BFCBE0684B1B6FB8
:104F700003F00303002B04D0012B05D10923FB739D
:104F800005E00723FB7302E00123FB7300BFB9E0D8
:104F90005F4BD3F85C3103F03003102B0CD0102B97
:104FA00002D8002B05D010E0202B08D0302B09D0E0
:104FB0000BE00123FB730BE00723FB7308E00423E2
:104FC000FB7305E00823FB7302E00123FB7300BFC2
:104FD00098E04F4BD3F85C3103F44013B3F5801FD6
:104FE0000FD0B3F5801F02D8002B07D08AE0B3F5AD
:104FF000001F09D0B3F5401F09D083E00123FB73E4
:1050000008E00723FB7305E00423FB7302E0082399
:10501000FB7300BF76E03E4BD3F8603103F003032F
:10502000032B6AD801A252F823F000BF3D500000C4
:1050300043500000495000004F5000000523FB730F
:1050400008E00423FB7305E00723FB7302E00A2357
:10505000FB7300BF51E02E4BD3F8643103F0030320
:10506000032B4CD801A252F823F000BF7D50000062
:1050700083500000895000008F5000000523FB730F
:1050800008E00423FB7305E00723FB7302E00A2317
:10509000FB7300BF33E01E4BD3F8F03103F007037E
:1050A000052B2ED801A252F823F000BFC5500000F6
:1050B000CB500000D1500000D7500000DD50000060
:1050C000E35000000A23FB730EE00423FB730BE0A4
:1050D0000B23FB7308E00523FB7305E00223FB733E
:1050E00002E00323FB7300BF0BE00023FB7341F6D8
:1050F000EE010848FEF72AFA04E000BF02E000BF14
:1051000000E000BFFB7B18461037BD4680BD00BFE6
:1051100000400E40BC59040080B58AB000AF7860F2
:105120000B46FB7003237B62032387F823300023A5
:10513000BB6100237B617B68112B19D1FB78042BA9
:1051400003D1FBF795FA78610BE0FB78052B08D1CA
:1051500000F082FB0246BF4B9A4202D900F07CFB72
:1051600078617B69002B03D00021786900F09EFFF5
:105170007B6803F00F033B613B69013B0B2B00F2A3
:10518000C98201A252F823F0B9510000D95200009F
:1051900029530000ED5200000B530000D1530000D2
:1051A00015570000FB530000A154000021550000DA
:1051B000AF5500003B560000FB78023B0C2B53D848
:1051C00001A252F823F000BFFD5100000952000077
:1051D0001552000027520000695200006952000079
:1051E00069520000695200005152000069520000EB
:1051F0005D520000395200004552000004237B62DA
:10520000002387F8233035E003237B62012387F8EE
:1052100023302FE002237B62022387F823308E485D
:10522000FEF746FA26E001237B62032387F823304A
:105230008948FEF73DFA1DE005237B62032387F8CA
:10524000233017E007237B62072387F8233011E020
:1052500006237B62052387F823300BE041F6AF116C
:105260007E48FEF773F95BE241F6B4117B48FEF726
:105270006DF955E297F82330072B06D097F82330C5
:1052800001220121184600F0B3FBFEF717FCFEF7E0
:1052900089FD7B69002B01D0FEF7EEF9704A7B6A2D
:1052A00053677048FEF7A0FF03461846FEF700FA62
:1052B000FBF77CF9F860FEF7EDF903461946F8684C
:1052C000FEF764FC7B69002B03D10121002000F074
:1052D000EDFEFEF77DFD23E2634BBB61FB78062B01
:1052E00004D141F6F0115D48FEF730F9BB69002B9F
:1052F00001D0BB6900E05D4BBB61FB78062B04D19C
:1053000041F6FA115548FEF721F9BB69002B01D08F
:10531000BB6900E0564BBB61FB78062B04D141F61C
:1053200004214E48FEF712F9BB69002B01D0BB697E
:1053300000E0504BBB61FB78013B0B2B3ED801A238
:1053400052F823F0755300007B5300008B5300008C
:10535000BD530000BD5300009B530000BD5300002F
:10536000BD530000BD530000BD530000BD530000FD
:10537000B75300000023FB6126E001220121002039
:1053800000F036FB0223FB611EE001220121012017
:1053900000F02EFB0123FB6116E0FBF707F9034643
:1053A0001846FEF785F9012200213348FEF7D4F8AC
:1053B0000323FB6108E00423FB6105E041F6302193
:1053C0002648FEF7C3F8ABE1BB69FA691A60A7E1AA
:1053D000FB78072B02D0092B04D007E0204B0022DA
:1053E0001A6709E01E4B01221A6705E041F6BA214F
:1053F0001A48FEF7ABF893E192E1FB78013B072BEB
:105400003CD801A252F823F0295400007D5400003A
:105410007D5400003F5400007D5400007D54000086
:105420002F5400004F5400000023FB612CE00122A8
:105430000121042000F0DCFA0123FB6124E00122B9
:105440000121022000F0D4FA0223FB611CE00323B7
:10545000FB6119E0002D31010148E801BC5904004D
:1054600000400E4000050A0080400E408C400E4077
:1054700088400E4084400E40B0400E4041F6183146
:10548000A948FEF763F84BE1A84BD3F85C3123F051
:105490003002FB691B01A5491343C1F85C313FE1B0
:1054A000FB78013B072B29D801A252F823F000BF5B
:1054B000D1540000FD540000FD540000E7540000EA
:1054C000FD540000FD540000D7540000F7540000C4
:1054D0000023FB6118E001220121042000F088FA7A
:1054E0000123FB6110E001220121022000F080FA7B
:1054F0000223FB6108E00323FB6105E041F63B3139
:105500008948FEF723F80BE1884BD3F85C3123F48C
:105510004012FB691B0585491343C1F85C31FFE06C
:10552000FB78043B062B31D801A252F823F000BFD0
:105530005D5500004D5500008D5500006D55000073
:105540008D5500008D5500007D5500000122012180
:10555000032000F04DFA0023FB611DE00122012130
:10556000022000F045FA0123FB6115E00122012130
:10557000042000F03DFA0223FB610DE0012201212D
:10558000052000F035FA0323FB6105E041F66231A6
:105590006548FDF7DBFFC3E0644BD3F8603123F0CF
:1055A00003026249FB691343C1F86031B8E0FB783C
:1055B000043B062B30D801A252F823F0E955000035
:1055C000D955000019560000F95500001956000081
:1055D000195600000956000001220121032000F0A5
:1055E00007FA0023FB611DE001220121022000F0E7
:1055F000FFF90123FB6115E001220121042000F0E5
:10560000F7F90223FB610DE001220121052000F0E2
:10561000EFF90323FB6105E041F689314248FDF7CC
:1056200095FF7DE0414BD3F8643123F003023F49FD
:10563000FB691343C1F8643172E0FB78023B092B2C
:1056400057D801A252F823F0D3560000E3560000C9
:1056500081560000C3560000F3560000F3560000C8
:10566000F3560000F35600007156000091560000FA
:1056700001220121052000F0BBF90023FB613EE07F
:1056800001220121022000F0B3F90123FB6136E081
:10569000FAF7EEFF0246264B9A4204D941F6A431AE
:1056A0002148FDF753FF214B5B6A204A43F0080372
:1056B000536201220121022000F09AF90223FB61CA
:1056C0001DE001220121032000F092F90323FB6178
:1056D00015E001220121002000F08AF90423FB617A
:1056E0000DE001220121012000F082F90523FB6178
:1056F00005E041F6C3310C48FDF728FF10E00B4BE5
:10570000D3F8F03123F007020849FB691343C1F8CD
:10571000F03105E041F6EF310348FDF717FF00BF18
:105720002837BD4680BD00BFBC59040000400E4074
:1057300040787D0180B483B000AF78607B68374AE1
:10574000934243D0354A934216D8354A93422DD0DE
:10575000334A934206D8334A934227D0324A93427F
:1057600024D053E0314A934228D0314A934229D081
:10577000304A93421ED049E02F4A934236D02E4AF7
:10578000934209D82D4A934228D02D4A934229D0DA
:105790002C4A93421ED039E02B4A93422ED02B4AFA
:1057A00093422FD02A4A934224D02FE0294BD3F89A
:1057B00080302CE0274BD3F88C3028E0254BD3F8F1
:1057C000983024E0234BD3F89C3020E0214BD3F8D1
:1057D000A0301CE01F4BD3F8A83018E01D4BD3F8C5
:1057E000AC3014E01B4BD3F8B03010E0194BD3F8B9
:1057F000B4300CE0174BD3F8B83008E0154BD3F8B1
:10580000BC3004E0134BD3F8C03000E0002318464E
:105810000C37BD465DF8047B704700BFC0EA21012C
:1058200000093D0040420F0080841E00405DC6001C
:105830000024F400C0CF6A00006CDC020048E801DC
:1058400080D5430280BA8C010090D00300A24A04A4
:10585000007E5603B081E00F80B400AF034B1B689D
:105860001846BD465DF8047B704700BF0C00002061
:1058700080B586B000AF78607868FFF75BFF78612D
:105880007B69002B03D07B69B3F1FF3F04D141F664
:1058900081514F48FDF75AFE4E4B1B683B614D4A04
:1058A0007B6813601120FFF79DFA0346052B03D197
:1058B000FEF704F9FEF776FA00BF18214648FDF717
:1058C00062FE0346002BF8D17B69B3F1FF3F04D1A0
:1058D00041F692513E48FDF739FE7B683F4A9342BC
:1058E0000DD03F4A934211D03E4A934200D012E07D
:1058F0007B6923F0C06343F080637B610BE07B69CD
:1059000023F0C06343F000737B6104E07B6923F004
:10591000C0637B6100BF1120FFF764FA0346052BCB
:1059200002D17868FDF7C4FE7A683B699A4203D9D0
:105930000121786800F0BAFB2B4A7B6913611120C2
:10594000FFF750FA0346052B26D1FAF72FFEF86031
:10595000FA687B689A4204D941F6BE511C48FDF7AB
:10596000F5FD1C4B1B68FA689A4204D941F6BF51F9
:105970001748FDF7EBFD174B1B687A689A4204D075
:105980004FF4EE511248FDF7E1FDFDF783FE0346AB
:105990001946F868FEF7FAF81448FEF725FC0346A6
:1059A0001846FDF785FE7A683B699A4203D80121C3
:1059B000002000F07BFB1120FFF714FA0346052BB3
:1059C00001D1FEF705FA00BF1837BD4680BD00BF04
:1059D000BC5904000C00002040410E4080841E0091
:1059E00000093D0040420F0000400E4000050A0043
:1059F00080B588B000AF0346FB710B46BB71134600
:105A00007B71FB79052B49D801A252F823F000BF26
:105A1000715A00005F5A00003B5A0000295A0000EA
:105A20004D5A0000875A000001237B6102233B612D
:105A30000123FB610023BB6136E004237B61082363
:105A40003B610323FB610223BB612DE010237B61DB
:105A500020233B610523FB610423BB6124E0402339
:105A60007B6180233B610723FB610623BB611BE055
:105A70004FF480737B614FF400733B610923FB613A
:105A80000823BB6110E04FF480637B614FF4006337
:105A90003B610B23FB610A23BB6105E041F6F57115
:105AA0004248FDF753FD7DE0BB79002B5ED000231B
:105AB000FB73FB79022B1AD1FEF792F80346012BF8
:105AC00015D13B4BDB6B03F48063002B04D142F216
:105AD00004013648FDF73AFD0123FB73354B5B6A41
